{
  "contractName": "Course",
  "abi": [
    {
      "inputs": [],
      "stateMutability": "nonpayable",
      "type": "constructor"
    },
    {
      "anonymous": false,
      "inputs": [
        {
          "indexed": true,
          "internalType": "address",
          "name": "owner",
          "type": "address"
        },
        {
          "indexed": true,
          "internalType": "address",
          "name": "approved",
          "type": "address"
        },
        {
          "indexed": true,
          "internalType": "uint256",
          "name": "tokenId",
          "type": "uint256"
        }
      ],
      "name": "Approval",
      "type": "event"
    },
    {
      "anonymous": false,
      "inputs": [
        {
          "indexed": true,
          "internalType": "address",
          "name": "owner",
          "type": "address"
        },
        {
          "indexed": true,
          "internalType": "address",
          "name": "operator",
          "type": "address"
        },
        {
          "indexed": false,
          "internalType": "bool",
          "name": "approved",
          "type": "bool"
        }
      ],
      "name": "ApprovalForAll",
      "type": "event"
    },
    {
      "anonymous": false,
      "inputs": [
        {
          "indexed": true,
          "internalType": "bytes32",
          "name": "role",
          "type": "bytes32"
        },
        {
          "indexed": true,
          "internalType": "bytes32",
          "name": "previousAdminRole",
          "type": "bytes32"
        },
        {
          "indexed": true,
          "internalType": "bytes32",
          "name": "newAdminRole",
          "type": "bytes32"
        }
      ],
      "name": "RoleAdminChanged",
      "type": "event"
    },
    {
      "anonymous": false,
      "inputs": [
        {
          "indexed": true,
          "internalType": "bytes32",
          "name": "role",
          "type": "bytes32"
        },
        {
          "indexed": true,
          "internalType": "address",
          "name": "account",
          "type": "address"
        },
        {
          "indexed": true,
          "internalType": "address",
          "name": "sender",
          "type": "address"
        }
      ],
      "name": "RoleGranted",
      "type": "event"
    },
    {
      "anonymous": false,
      "inputs": [
        {
          "indexed": true,
          "internalType": "bytes32",
          "name": "role",
          "type": "bytes32"
        },
        {
          "indexed": true,
          "internalType": "address",
          "name": "account",
          "type": "address"
        },
        {
          "indexed": true,
          "internalType": "address",
          "name": "sender",
          "type": "address"
        }
      ],
      "name": "RoleRevoked",
      "type": "event"
    },
    {
      "anonymous": false,
      "inputs": [
        {
          "indexed": true,
          "internalType": "address",
          "name": "from",
          "type": "address"
        },
        {
          "indexed": true,
          "internalType": "address",
          "name": "to",
          "type": "address"
        },
        {
          "indexed": true,
          "internalType": "uint256",
          "name": "tokenId",
          "type": "uint256"
        }
      ],
      "name": "Transfer",
      "type": "event"
    },
    {
      "inputs": [],
      "name": "DEFAULT_ADMIN_ROLE",
      "outputs": [
        {
          "internalType": "bytes32",
          "name": "",
          "type": "bytes32"
        }
      ],
      "stateMutability": "view",
      "type": "function",
      "constant": true
    },
    {
      "inputs": [],
      "name": "DEPARTMENT_ROLE",
      "outputs": [
        {
          "internalType": "bytes32",
          "name": "",
          "type": "bytes32"
        }
      ],
      "stateMutability": "view",
      "type": "function",
      "constant": true
    },
    {
      "inputs": [],
      "name": "FACULTY_ROLE",
      "outputs": [
        {
          "internalType": "bytes32",
          "name": "",
          "type": "bytes32"
        }
      ],
      "stateMutability": "view",
      "type": "function",
      "constant": true
    },
    {
      "inputs": [],
      "name": "GRADUATED_ROLE",
      "outputs": [
        {
          "internalType": "bytes32",
          "name": "",
          "type": "bytes32"
        }
      ],
      "stateMutability": "view",
      "type": "function",
      "constant": true
    },
    {
      "inputs": [],
      "name": "INSTRUCTOR_ROLE",
      "outputs": [
        {
          "internalType": "bytes32",
          "name": "",
          "type": "bytes32"
        }
      ],
      "stateMutability": "view",
      "type": "function",
      "constant": true
    },
    {
      "inputs": [],
      "name": "RECTOR_ROLE",
      "outputs": [
        {
          "internalType": "bytes32",
          "name": "",
          "type": "bytes32"
        }
      ],
      "stateMutability": "view",
      "type": "function",
      "constant": true
    },
    {
      "inputs": [],
      "name": "STUDENT_ROLE",
      "outputs": [
        {
          "internalType": "bytes32",
          "name": "",
          "type": "bytes32"
        }
      ],
      "stateMutability": "view",
      "type": "function",
      "constant": true
    },
    {
      "inputs": [
        {
          "internalType": "address",
          "name": "to",
          "type": "address"
        },
        {
          "internalType": "uint256",
          "name": "tokenId",
          "type": "uint256"
        }
      ],
      "name": "approve",
      "outputs": [],
      "stateMutability": "nonpayable",
      "type": "function"
    },
    {
      "inputs": [
        {
          "internalType": "address",
          "name": "owner",
          "type": "address"
        }
      ],
      "name": "balanceOf",
      "outputs": [
        {
          "internalType": "uint256",
          "name": "",
          "type": "uint256"
        }
      ],
      "stateMutability": "view",
      "type": "function",
      "constant": true
    },
    {
      "inputs": [
        {
          "internalType": "uint256",
          "name": "tokenId",
          "type": "uint256"
        }
      ],
      "name": "getApproved",
      "outputs": [
        {
          "internalType": "address",
          "name": "",
          "type": "address"
        }
      ],
      "stateMutability": "view",
      "type": "function",
      "constant": true
    },
    {
      "inputs": [
        {
          "internalType": "bytes32",
          "name": "role",
          "type": "bytes32"
        }
      ],
      "name": "getRoleAdmin",
      "outputs": [
        {
          "internalType": "bytes32",
          "name": "",
          "type": "bytes32"
        }
      ],
      "stateMutability": "view",
      "type": "function",
      "constant": true
    },
    {
      "inputs": [
        {
          "internalType": "bytes32",
          "name": "role",
          "type": "bytes32"
        },
        {
          "internalType": "uint256",
          "name": "index",
          "type": "uint256"
        }
      ],
      "name": "getRoleMember",
      "outputs": [
        {
          "internalType": "address",
          "name": "",
          "type": "address"
        }
      ],
      "stateMutability": "view",
      "type": "function",
      "constant": true
    },
    {
      "inputs": [
        {
          "internalType": "bytes32",
          "name": "role",
          "type": "bytes32"
        }
      ],
      "name": "getRoleMemberCount",
      "outputs": [
        {
          "internalType": "uint256",
          "name": "",
          "type": "uint256"
        }
      ],
      "stateMutability": "view",
      "type": "function",
      "constant": true
    },
    {
      "inputs": [
        {
          "internalType": "address",
          "name": "account",
          "type": "address"
        }
      ],
      "name": "grantDepartmentRole",
      "outputs": [],
      "stateMutability": "nonpayable",
      "type": "function"
    },
    {
      "inputs": [
        {
          "internalType": "address",
          "name": "account",
          "type": "address"
        }
      ],
      "name": "grantFacultyRole",
      "outputs": [],
      "stateMutability": "nonpayable",
      "type": "function"
    },
    {
      "inputs": [
        {
          "internalType": "address",
          "name": "account",
          "type": "address"
        }
      ],
      "name": "grantGraduatedRole",
      "outputs": [],
      "stateMutability": "nonpayable",
      "type": "function"
    },
    {
      "inputs": [
        {
          "internalType": "address",
          "name": "account",
          "type": "address"
        }
      ],
      "name": "grantInstructorRole",
      "outputs": [],
      "stateMutability": "nonpayable",
      "type": "function"
    },
    {
      "inputs": [
        {
          "internalType": "address",
          "name": "account",
          "type": "address"
        }
      ],
      "name": "grantRectorRole",
      "outputs": [],
      "stateMutability": "nonpayable",
      "type": "function"
    },
    {
      "inputs": [
        {
          "internalType": "bytes32",
          "name": "role",
          "type": "bytes32"
        },
        {
          "internalType": "address",
          "name": "account",
          "type": "address"
        }
      ],
      "name": "grantRole",
      "outputs": [],
      "stateMutability": "nonpayable",
      "type": "function"
    },
    {
      "inputs": [
        {
          "internalType": "address",
          "name": "account",
          "type": "address"
        }
      ],
      "name": "grantStudentRole",
      "outputs": [],
      "stateMutability": "nonpayable",
      "type": "function"
    },
    {
      "inputs": [
        {
          "internalType": "address",
          "name": "account",
          "type": "address"
        }
      ],
      "name": "hasDepartmentRole",
      "outputs": [
        {
          "internalType": "bool",
          "name": "",
          "type": "bool"
        }
      ],
      "stateMutability": "view",
      "type": "function",
      "constant": true
    },
    {
      "inputs": [
        {
          "internalType": "address",
          "name": "account",
          "type": "address"
        }
      ],
      "name": "hasFacultyRole",
      "outputs": [
        {
          "internalType": "bool",
          "name": "",
          "type": "bool"
        }
      ],
      "stateMutability": "view",
      "type": "function",
      "constant": true
    },
    {
      "inputs": [
        {
          "internalType": "address",
          "name": "account",
          "type": "address"
        }
      ],
      "name": "hasGraduatedRole",
      "outputs": [
        {
          "internalType": "bool",
          "name": "",
          "type": "bool"
        }
      ],
      "stateMutability": "view",
      "type": "function",
      "constant": true
    },
    {
      "inputs": [
        {
          "internalType": "address",
          "name": "account",
          "type": "address"
        }
      ],
      "name": "hasInstructorRole",
      "outputs": [
        {
          "internalType": "bool",
          "name": "",
          "type": "bool"
        }
      ],
      "stateMutability": "view",
      "type": "function",
      "constant": true
    },
    {
      "inputs": [
        {
          "internalType": "address",
          "name": "account",
          "type": "address"
        }
      ],
      "name": "hasRectorRole",
      "outputs": [
        {
          "internalType": "bool",
          "name": "",
          "type": "bool"
        }
      ],
      "stateMutability": "view",
      "type": "function",
      "constant": true
    },
    {
      "inputs": [
        {
          "internalType": "bytes32",
          "name": "role",
          "type": "bytes32"
        },
        {
          "internalType": "address",
          "name": "account",
          "type": "address"
        }
      ],
      "name": "hasRole",
      "outputs": [
        {
          "internalType": "bool",
          "name": "",
          "type": "bool"
        }
      ],
      "stateMutability": "view",
      "type": "function",
      "constant": true
    },
    {
      "inputs": [
        {
          "internalType": "address",
          "name": "account",
          "type": "address"
        }
      ],
      "name": "hasStudentRole",
      "outputs": [
        {
          "internalType": "bool",
          "name": "",
          "type": "bool"
        }
      ],
      "stateMutability": "view",
      "type": "function",
      "constant": true
    },
    {
      "inputs": [
        {
          "internalType": "address",
          "name": "owner",
          "type": "address"
        },
        {
          "internalType": "address",
          "name": "operator",
          "type": "address"
        }
      ],
      "name": "isApprovedForAll",
      "outputs": [
        {
          "internalType": "bool",
          "name": "",
          "type": "bool"
        }
      ],
      "stateMutability": "view",
      "type": "function",
      "constant": true
    },
    {
      "inputs": [],
      "name": "name",
      "outputs": [
        {
          "internalType": "string",
          "name": "",
          "type": "string"
        }
      ],
      "stateMutability": "view",
      "type": "function",
      "constant": true
    },
    {
      "inputs": [
        {
          "internalType": "uint256",
          "name": "tokenId",
          "type": "uint256"
        }
      ],
      "name": "ownerOf",
      "outputs": [
        {
          "internalType": "address",
          "name": "",
          "type": "address"
        }
      ],
      "stateMutability": "view",
      "type": "function",
      "constant": true
    },
    {
      "inputs": [
        {
          "internalType": "bytes32",
          "name": "role",
          "type": "bytes32"
        },
        {
          "internalType": "address",
          "name": "account",
          "type": "address"
        }
      ],
      "name": "renounceRole",
      "outputs": [],
      "stateMutability": "nonpayable",
      "type": "function"
    },
    {
      "inputs": [
        {
          "internalType": "address",
          "name": "account",
          "type": "address"
        }
      ],
      "name": "revokeDepartmentRole",
      "outputs": [],
      "stateMutability": "nonpayable",
      "type": "function"
    },
    {
      "inputs": [
        {
          "internalType": "address",
          "name": "account",
          "type": "address"
        }
      ],
      "name": "revokeFacultyRole",
      "outputs": [],
      "stateMutability": "nonpayable",
      "type": "function"
    },
    {
      "inputs": [
        {
          "internalType": "address",
          "name": "account",
          "type": "address"
        }
      ],
      "name": "revokeInstructorRole",
      "outputs": [],
      "stateMutability": "nonpayable",
      "type": "function"
    },
    {
      "inputs": [
        {
          "internalType": "bytes32",
          "name": "role",
          "type": "bytes32"
        },
        {
          "internalType": "address",
          "name": "account",
          "type": "address"
        }
      ],
      "name": "revokeRole",
      "outputs": [],
      "stateMutability": "nonpayable",
      "type": "function"
    },
    {
      "inputs": [
        {
          "internalType": "address",
          "name": "account",
          "type": "address"
        }
      ],
      "name": "revokeStudentRole",
      "outputs": [],
      "stateMutability": "nonpayable",
      "type": "function"
    },
    {
      "inputs": [
        {
          "internalType": "address",
          "name": "operator",
          "type": "address"
        },
        {
          "internalType": "bool",
          "name": "approved",
          "type": "bool"
        }
      ],
      "name": "setApprovalForAll",
      "outputs": [],
      "stateMutability": "nonpayable",
      "type": "function"
    },
    {
      "inputs": [],
      "name": "symbol",
      "outputs": [
        {
          "internalType": "string",
          "name": "",
          "type": "string"
        }
      ],
      "stateMutability": "view",
      "type": "function",
      "constant": true
    },
    {
      "inputs": [
        {
          "internalType": "uint256",
          "name": "tokenId",
          "type": "uint256"
        }
      ],
      "name": "tokenURI",
      "outputs": [
        {
          "internalType": "string",
          "name": "",
          "type": "string"
        }
      ],
      "stateMutability": "view",
      "type": "function",
      "constant": true
    },
    {
      "inputs": [
        {
          "internalType": "string",
          "name": "_courseLink",
          "type": "string"
        },
        {
          "internalType": "address",
          "name": "instructorAddress",
          "type": "address"
        }
      ],
      "name": "mint",
      "outputs": [],
      "stateMutability": "nonpayable",
      "type": "function"
    },
    {
      "inputs": [],
      "name": "getCourseLinks",
      "outputs": [
        {
          "internalType": "string[]",
          "name": "courseLinks",
          "type": "string[]"
        }
      ],
      "stateMutability": "view",
      "type": "function",
      "constant": true
    },
    {
      "inputs": [
        {
          "internalType": "address",
          "name": "instructorAddress",
          "type": "address"
        }
      ],
      "name": "getGivesCourses",
      "outputs": [
        {
          "internalType": "uint256[]",
          "name": "givesCourses",
          "type": "uint256[]"
        }
      ],
      "stateMutability": "view",
      "type": "function",
      "constant": true
    },
    {
      "inputs": [
        {
          "internalType": "address",
          "name": "from",
          "type": "address"
        },
        {
          "internalType": "address",
          "name": "to",
          "type": "address"
        },
        {
          "internalType": "uint256",
          "name": "tokenId",
          "type": "uint256"
        }
      ],
      "name": "transferFrom",
      "outputs": [],
      "stateMutability": "nonpayable",
      "type": "function"
    },
    {
      "inputs": [
        {
          "internalType": "address",
          "name": "from",
          "type": "address"
        },
        {
          "internalType": "address",
          "name": "to",
          "type": "address"
        },
        {
          "internalType": "uint256",
          "name": "tokenId",
          "type": "uint256"
        }
      ],
      "name": "safeTransferFrom",
      "outputs": [],
      "stateMutability": "nonpayable",
      "type": "function"
    },
    {
      "inputs": [
        {
          "internalType": "address",
          "name": "from",
          "type": "address"
        },
        {
          "internalType": "address",
          "name": "to",
          "type": "address"
        },
        {
          "internalType": "uint256",
          "name": "tokenId",
          "type": "uint256"
        },
        {
          "internalType": "bytes",
          "name": "_data",
          "type": "bytes"
        }
      ],
      "name": "safeTransferFrom",
      "outputs": [],
      "stateMutability": "nonpayable",
      "type": "function"
    },
    {
      "inputs": [
        {
          "internalType": "bytes4",
          "name": "interfaceId",
          "type": "bytes4"
        }
      ],
      "name": "supportsInterface",
      "outputs": [
        {
          "internalType": "bool",
          "name": "",
          "type": "bool"
        }
      ],
      "stateMutability": "view",
      "type": "function",
      "constant": true
    }
  ],
  "bytecode": "0x60806040523480156200001157600080fd5b506040518060400160405280600681526020017f436f7572736500000000000000000000000000000000000000000000000000008152506040518060400160405280600381526020017f435253000000000000000000000000000000000000000000000000000000000081525081600090805190602001906200009692919062000397565b508060019080519060200190620000af92919062000397565b505050620000c76000801b33620000ff60201b60201c565b620000f97f5f1d1e303f9c0a1801dd708bdc4239781d66c88ca6cb941c5769ba09b5c1b28533620000ff60201b60201c565b620004ac565b6200011182826200011560201b60201c565b5050565b6200012c82826200015d60201b62001b9e1760201c565b6200015881600760008581526020019081526020016000206200024f60201b62001c7f1790919060201c565b505050565b6200016f82826200028760201b60201c565b6200024b5760016006600084815260200190815260200160002060000160008373ffffffffffffffffffffffffffffffffffffffff1673ffffffffffffffffffffffffffffffffffffffff16815260200190815260200160002060006101000a81548160ff021916908315150217905550620001f0620002f260201b60201c565b73ffffffffffffffffffffffffffffffffffffffff168173ffffffffffffffffffffffffffffffffffffffff16837f2f8788117e7eff1d82e926ec794901d17c78024a50270940304540a733656f0d60405160405180910390a45b5050565b60006200027f836000018373ffffffffffffffffffffffffffffffffffffffff1660001b620002fa60201b60201c565b905092915050565b60006006600084815260200190815260200160002060000160008373ffffffffffffffffffffffffffffffffffffffff1673ffffffffffffffffffffffffffffffffffffffff16815260200190815260200160002060009054906101000a900460ff16905092915050565b600033905090565b60006200030e83836200037460201b60201c565b620003695782600001829080600181540180825580915050600190039060005260206000200160009091909190915055826000018054905083600101600084815260200190815260200160002081905550600190506200036e565b600090505b92915050565b600080836001016000848152602001908152602001600020541415905092915050565b828054620003a59062000476565b90600052602060002090601f016020900481019282620003c9576000855562000415565b82601f10620003e457805160ff191683800117855562000415565b8280016001018555821562000415579182015b8281111562000414578251825591602001919060010190620003f7565b5b50905062000424919062000428565b5090565b5b808211156200044357600081600090555060010162000429565b5090565b7f4e487b7100000000000000000000000000000000000000000000000000000000600052602260045260246000fd5b600060028204905060018216806200048f57607f821691505b60208210811415620004a657620004a562000447565b5b50919050565b614b8680620004bc6000396000f3fe608060405234801561001057600080fd5b506004361061028a5760003560e01c806386f8e92c1161015c578063ad7be93a116100ce578063d547741f11610087578063d547741f14610805578063e17f6b2c14610821578063e78af7c514610851578063e985e9c514610881578063f7be43fb146108b1578063fc3ba6b4146108cf5761028a565b8063ad7be93a14610733578063b88d4fde14610751578063b94470511461076d578063c87b56dd14610789578063c94d10ad146107b9578063ca15c873146107d55761028a565b806395d89b411161012057806395d89b411461066f5780639822a5991461068d578063996dc022146106bd578063a217fddf146106db578063a22cb465146106f9578063a6faa962146107155761028a565b806386f8e92c146105b95780638bcf979c146105d55780638df6674a146105f35780639010d07c1461060f57806391d148541461063f5761028a565b80632be7dc44116102005780635ea07b1c116101b95780635ea07b1c146104d35780635f1d514e146104ef5780636352211e1461050b5780636fe3ceb81461053b57806370a08231146105595780637168c27d146105895761028a565b80632be7dc44146104175780632f2ff15d1461044757806332b3c8461461046357806336568abe1461047f57806342842e0e1461049b578063529f790c146104b75761028a565b80630baf40e3116102525780630baf40e31461034557806312fb59f2146103755780631c351a9d1461039157806323b872dd146103ad578063248a9ca3146103c957806324d42a37146103f95761028a565b806301ffc9a71461028f5780630252dffc146102bf57806306fdde03146102db578063081812fc146102f9578063095ea7b314610329575b600080fd5b6102a960048036038101906102a4919061325b565b6108ff565b6040516102b691906132a3565b60405180910390f35b6102d960048036038101906102d4919061331c565b610911565b005b6102e3610971565b6040516102f091906133e2565b60405180910390f35b610313600480360381019061030e919061343a565b610a03565b6040516103209190613476565b60405180910390f35b610343600480360381019061033e9190613491565b610a88565b005b61035f600480360381019061035a919061331c565b610ba0565b60405161036c919061358f565b60405180910390f35b61038f600480360381019061038a919061331c565b610c37565b005b6103ab60048036038101906103a691906136e6565b610c97565b005b6103c760048036038101906103c29190613742565b610e5e565b005b6103e360048036038101906103de91906137cb565b610edd565b6040516103f09190613807565b60405180910390f35b610401610efd565b60405161040e9190613807565b60405180910390f35b610431600480360381019061042c919061331c565b610f21565b60405161043e91906132a3565b60405180910390f35b610461600480360381019061045c9190613822565b610f54565b005b61047d6004803603810190610478919061331c565b610f7d565b005b61049960048036038101906104949190613822565b610fdd565b005b6104b560048036038101906104b09190613742565b611060565b005b6104d160048036038101906104cc919061331c565b6110df565b005b6104ed60048036038101906104e8919061331c565b61113f565b005b6105096004803603810190610504919061331c565b611232565b005b6105256004803603810190610520919061343a565b611292565b6040516105329190613476565b60405180910390f35b610543611344565b6040516105509190613807565b60405180910390f35b610573600480360381019061056e919061331c565b611368565b6040516105809190613871565b60405180910390f35b6105a3600480360381019061059e919061331c565b611420565b6040516105b091906132a3565b60405180910390f35b6105d360048036038101906105ce919061331c565b611453565b005b6105dd6114b3565b6040516105ea9190613807565b60405180910390f35b61060d6004803603810190610608919061331c565b6114d7565b005b6106296004803603810190610624919061388c565b61157b565b6040516106369190613476565b60405180910390f35b61065960048036038101906106549190613822565b6115aa565b60405161066691906132a3565b60405180910390f35b610677611615565b60405161068491906133e2565b60405180910390f35b6106a760048036038101906106a2919061331c565b6116a7565b6040516106b491906132a3565b60405180910390f35b6106c56116da565b6040516106d29190613807565b60405180910390f35b6106e36116fe565b6040516106f09190613807565b60405180910390f35b610713600480360381019061070e91906138f8565b611705565b005b61071d61171b565b60405161072a9190613a44565b60405180910390f35b61073b6117f4565b6040516107489190613807565b60405180910390f35b61076b60048036038101906107669190613b07565b611818565b005b6107876004803603810190610782919061331c565b611899565b005b6107a3600480360381019061079e919061343a565b6118f9565b6040516107b091906133e2565b60405180910390f35b6107d360048036038101906107ce919061331c565b6119a0565b005b6107ef60048036038101906107ea91906137cb565b611a00565b6040516107fc9190613871565b60405180910390f35b61081f600480360381019061081a9190613822565b611a24565b005b61083b6004803603810190610836919061331c565b611a4d565b60405161084891906132a3565b60405180910390f35b61086b6004803603810190610866919061331c565b611a80565b60405161087891906132a3565b60405180910390f35b61089b60048036038101906108969190613b8a565b611ab3565b6040516108a891906132a3565b60405180910390f35b6108b9611b47565b6040516108c69190613807565b60405180910390f35b6108e960048036038101906108e4919061331c565b611b6b565b6040516108f691906132a3565b60405180910390f35b600061090a82611caf565b9050919050565b7f5f1d1e303f9c0a1801dd708bdc4239781d66c88ca6cb941c5769ba09b5c1b2856109438161093e611d29565b611d31565b61096d7fe7837d04f36ce0b2f3cc662bf1b2b632a7fbd12ae95199e8bd3dcfbcc440b66b83611a24565b5050565b60606000805461098090613bf9565b80601f01602080910402602001604051908101604052809291908181526020018280546109ac90613bf9565b80156109f95780601f106109ce576101008083540402835291602001916109f9565b820191906000526020600020905b8154815290600101906020018083116109dc57829003601f168201915b5050505050905090565b6000610a0e82611dce565b610a4d576040517f08c379a0000000000000000000000000000000000000000000000000000000008152600401610a4490613c9d565b60405180910390fd5b6004600083815260200190815260200160002060009054906101000a900473ffffffffffffffffffffffffffffffffffffffff169050919050565b6000610a9382611292565b90508073ffffffffffffffffffffffffffffffffffffffff168373ffffffffffffffffffffffffffffffffffffffff161415610b04576040517f08c379a0000000000000000000000000000000000000000000000000000000008152600401610afb90613d2f565b60405180910390fd5b8073ffffffffffffffffffffffffffffffffffffffff16610b23611d29565b73ffffffffffffffffffffffffffffffffffffffff161480610b525750610b5181610b4c611d29565b611ab3565b5b610b91576040517f08c379a0000000000000000000000000000000000000000000000000000000008152600401610b8890613dc1565b60405180910390fd5b610b9b8383611e3a565b505050565b6060600860008373ffffffffffffffffffffffffffffffffffffffff1673ffffffffffffffffffffffffffffffffffffffff168152602001908152602001600020805480602002602001604051908101604052809291908181526020018280548015610c2b57602002820191906000526020600020905b815481526020019060010190808311610c17575b50505050509050919050565b7f5f1d1e303f9c0a1801dd708bdc4239781d66c88ca6cb941c5769ba09b5c1b285610c6981610c64611d29565b611d31565b610c937fe7837d04f36ce0b2f3cc662bf1b2b632a7fbd12ae95199e8bd3dcfbcc440b66b83610f54565b5050565b600b82604051610ca79190613e1d565b908152602001604051809103902060009054906101000a900460ff1615610d03576040517f08c379a0000000000000000000000000000000000000000000000000000000008152600401610cfa90613e80565b60405180910390fd5b610d2d7fae4a0595970935aa5495afbbb72e5f1f6ff1062766b4a3028c0c9b7d5cf7e345826115aa565b610d6c576040517f08c379a0000000000000000000000000000000000000000000000000000000008152600401610d6390613f12565b60405180910390fd5b600c82908060018154018082558091505060019003906000526020600020016000909190919091509080519060200190610da792919061314c565b506000600c805490509050610dbc8282611ef3565b6001600b84604051610dce9190613e1d565b908152602001604051809103902060006101000a81548160ff021916908315150217905550600860008373ffffffffffffffffffffffffffffffffffffffff1673ffffffffffffffffffffffffffffffffffffffff168152602001908152602001600020819080600181540180825580915050600190039060005260206000200160009091909190915055505050565b600073ffffffffffffffffffffffffffffffffffffffff163373ffffffffffffffffffffffffffffffffffffffff1614610ecd576040517f08c379a0000000000000000000000000000000000000000000000000000000008152600401610ec490613fa4565b60405180910390fd5b610ed88383836120c1565b505050565b600060066000838152602001908152602001600020600101549050919050565b7f5f1d1e303f9c0a1801dd708bdc4239781d66c88ca6cb941c5769ba09b5c1b28581565b6000610f4d7f5f1d1e303f9c0a1801dd708bdc4239781d66c88ca6cb941c5769ba09b5c1b285836115aa565b9050919050565b610f5d82610edd565b610f6e81610f69611d29565b611d31565b610f788383612121565b505050565b7f5f1d1e303f9c0a1801dd708bdc4239781d66c88ca6cb941c5769ba09b5c1b285610faf81610faa611d29565b611d31565b610fd97f36a5c4aaacb6b388bbd448bf11096b7dafc5652bcc9046084fd0e95b1fb0b2cc83611a24565b5050565b610fe5611d29565b73ffffffffffffffffffffffffffffffffffffffff168173ffffffffffffffffffffffffffffffffffffffff1614611052576040517f08c379a000000000000000000000000000000000000000000000000000000000815260040161104990614036565b60405180910390fd5b61105c8282612155565b5050565b600073ffffffffffffffffffffffffffffffffffffffff163373ffffffffffffffffffffffffffffffffffffffff16146110cf576040517f08c379a00000000000000000000000000000000000000000000000000000000081526004016110c690613fa4565b60405180910390fd5b6110da838383612189565b505050565b7f5f1d1e303f9c0a1801dd708bdc4239781d66c88ca6cb941c5769ba09b5c1b2856111118161110c611d29565b611d31565b61113b7ff3f9cfff7b46f415da5a492b1718971da203f87c6aae9299e7b408eb83ef8bee83610f54565b5050565b7f5f1d1e303f9c0a1801dd708bdc4239781d66c88ca6cb941c5769ba09b5c1b2856111718161116c611d29565b611d31565b61119b7f36a5c4aaacb6b388bbd448bf11096b7dafc5652bcc9046084fd0e95b1fb0b2cc836115aa565b6111da576040517f08c379a00000000000000000000000000000000000000000000000000000000081526004016111d1906140a2565b60405180910390fd5b6112047f36a5c4aaacb6b388bbd448bf11096b7dafc5652bcc9046084fd0e95b1fb0b2cc83611a24565b61122e7f4758f7d70d6088cbfad5c79861ac6457ba2af02adf5ea419e97879ae24459cb683610f54565b5050565b7f5f1d1e303f9c0a1801dd708bdc4239781d66c88ca6cb941c5769ba09b5c1b2856112648161125f611d29565b611d31565b61128e7fae4a0595970935aa5495afbbb72e5f1f6ff1062766b4a3028c0c9b7d5cf7e34583610f54565b5050565b6000806002600084815260200190815260200160002060009054906101000a900473ffffffffffffffffffffffffffffffffffffffff169050600073ffffffffffffffffffffffffffffffffffffffff168173ffffffffffffffffffffffffffffffffffffffff16141561133b576040517f08c379a000000000000000000000000000000000000000000000000000000000815260040161133290614134565b60405180910390fd5b80915050919050565b7ff3f9cfff7b46f415da5a492b1718971da203f87c6aae9299e7b408eb83ef8bee81565b60008073ffffffffffffffffffffffffffffffffffffffff168273ffffffffffffffffffffffffffffffffffffffff1614156113d9576040517f08c379a00000000000000000000000000000000000000000000000000000000081526004016113d0906141c6565b60405180910390fd5b600360008373ffffffffffffffffffffffffffffffffffffffff1673ffffffffffffffffffffffffffffffffffffffff168152602001908152602001600020549050919050565b600061144c7f4758f7d70d6088cbfad5c79861ac6457ba2af02adf5ea419e97879ae24459cb6836115aa565b9050919050565b7f5f1d1e303f9c0a1801dd708bdc4239781d66c88ca6cb941c5769ba09b5c1b28561148581611480611d29565b611d31565b6114af7fae4a0595970935aa5495afbbb72e5f1f6ff1062766b4a3028c0c9b7d5cf7e34583611a24565b5050565b7fae4a0595970935aa5495afbbb72e5f1f6ff1062766b4a3028c0c9b7d5cf7e34581565b7f5f1d1e303f9c0a1801dd708bdc4239781d66c88ca6cb941c5769ba09b5c1b28561150981611504611d29565b611d31565b6115337f5f1d1e303f9c0a1801dd708bdc4239781d66c88ca6cb941c5769ba09b5c1b28583610f54565b6115406000801b83610f54565b61154d6000801b33610fdd565b6115777f5f1d1e303f9c0a1801dd708bdc4239781d66c88ca6cb941c5769ba09b5c1b28533610fdd565b5050565b60006115a282600760008681526020019081526020016000206121a990919063ffffffff16565b905092915050565b60006006600084815260200190815260200160002060000160008373ffffffffffffffffffffffffffffffffffffffff1673ffffffffffffffffffffffffffffffffffffffff16815260200190815260200160002060009054906101000a900460ff16905092915050565b60606001805461162490613bf9565b80601f016020809104026020016040519081016040528092919081815260200182805461165090613bf9565b801561169d5780601f106116725761010080835404028352916020019161169d565b820191906000526020600020905b81548152906001019060200180831161168057829003601f168201915b5050505050905090565b60006116d37fae4a0595970935aa5495afbbb72e5f1f6ff1062766b4a3028c0c9b7d5cf7e345836115aa565b9050919050565b7fe7837d04f36ce0b2f3cc662bf1b2b632a7fbd12ae95199e8bd3dcfbcc440b66b81565b6000801b81565b611717611710611d29565b83836121c3565b5050565b6060600c805480602002602001604051908101604052809291908181526020016000905b828210156117eb57838290600052602060002001805461175e90613bf9565b80601f016020809104026020016040519081016040528092919081815260200182805461178a90613bf9565b80156117d75780601f106117ac576101008083540402835291602001916117d7565b820191906000526020600020905b8154815290600101906020018083116117ba57829003601f168201915b50505050508152602001906001019061173f565b50505050905090565b7f4758f7d70d6088cbfad5c79861ac6457ba2af02adf5ea419e97879ae24459cb681565b600073ffffffffffffffffffffffffffffffffffffffff163373ffffffffffffffffffffffffffffffffffffffff1614611887576040517f08c379a000000000000000000000000000000000000000000000000000000000815260040161187e90613fa4565b60405180910390fd5b61189384848484612330565b50505050565b7f5f1d1e303f9c0a1801dd708bdc4239781d66c88ca6cb941c5769ba09b5c1b2856118cb816118c6611d29565b611d31565b6118f57ff3f9cfff7b46f415da5a492b1718971da203f87c6aae9299e7b408eb83ef8bee83611a24565b5050565b606061190482611dce565b611943576040517f08c379a000000000000000000000000000000000000000000000000000000000815260040161193a90614258565b60405180910390fd5b600061194d612392565b9050600081511161196d5760405180602001604052806000815250611998565b80611977846123a9565b604051602001611988929190614278565b6040516020818303038152906040525b915050919050565b7f5f1d1e303f9c0a1801dd708bdc4239781d66c88ca6cb941c5769ba09b5c1b2856119d2816119cd611d29565b611d31565b6119fc7f36a5c4aaacb6b388bbd448bf11096b7dafc5652bcc9046084fd0e95b1fb0b2cc83610f54565b5050565b6000611a1d6007600084815260200190815260200160002061250a565b9050919050565b611a2d82610edd565b611a3e81611a39611d29565b611d31565b611a488383612155565b505050565b6000611a797fe7837d04f36ce0b2f3cc662bf1b2b632a7fbd12ae95199e8bd3dcfbcc440b66b836115aa565b9050919050565b6000611aac7ff3f9cfff7b46f415da5a492b1718971da203f87c6aae9299e7b408eb83ef8bee836115aa565b9050919050565b6000600560008473ffffffffffffffffffffffffffffffffffffffff1673ffffffffffffffffffffffffffffffffffffffff16815260200190815260200160002060008373ffffffffffffffffffffffffffffffffffffffff1673ffffffffffffffffffffffffffffffffffffffff16815260200190815260200160002060009054906101000a900460ff16905092915050565b7f36a5c4aaacb6b388bbd448bf11096b7dafc5652bcc9046084fd0e95b1fb0b2cc81565b6000611b977f36a5c4aaacb6b388bbd448bf11096b7dafc5652bcc9046084fd0e95b1fb0b2cc836115aa565b9050919050565b611ba882826115aa565b611c7b5760016006600084815260200190815260200160002060000160008373ffffffffffffffffffffffffffffffffffffffff1673ffffffffffffffffffffffffffffffffffffffff16815260200190815260200160002060006101000a81548160ff021916908315150217905550611c20611d29565b73ffffffffffffffffffffffffffffffffffffffff168173ffffffffffffffffffffffffffffffffffffffff16837f2f8788117e7eff1d82e926ec794901d17c78024a50270940304540a733656f0d60405160405180910390a45b5050565b6000611ca7836000018373ffffffffffffffffffffffffffffffffffffffff1660001b61251f565b905092915050565b60007f5a05180f000000000000000000000000000000000000000000000000000000007bffffffffffffffffffffffffffffffffffffffffffffffffffffffff1916827bffffffffffffffffffffffffffffffffffffffffffffffffffffffff19161480611d225750611d218261258f565b5b9050919050565b600033905090565b611d3b82826115aa565b611dca57611d608173ffffffffffffffffffffffffffffffffffffffff166014612609565b611d6e8360001c6020612609565b604051602001611d7f929190614334565b6040516020818303038152906040526040517f08c379a0000000000000000000000000000000000000000000000000000000008152600401611dc191906133e2565b60405180910390fd5b5050565b60008073ffffffffffffffffffffffffffffffffffffffff166002600084815260200190815260200160002060009054906101000a900473ffffffffffffffffffffffffffffffffffffffff1673ffffffffffffffffffffffffffffffffffffffff1614159050919050565b816004600083815260200190815260200160002060006101000a81548173ffffffffffffffffffffffffffffffffffffffff021916908373ffffffffffffffffffffffffffffffffffffffff160217905550808273ffffffffffffffffffffffffffffffffffffffff16611ead83611292565b73ffffffffffffffffffffffffffffffffffffffff167f8c5be1e5ebec7d5bd14f71427d1e84f3dd0314c0f7b2291e5b200ac8c7c3b92560405160405180910390a45050565b600073ffffffffffffffffffffffffffffffffffffffff168273ffffffffffffffffffffffffffffffffffffffff161415611f63576040517f08c379a0000000000000000000000000000000000000000000000000000000008152600401611f5a906143ba565b60405180910390fd5b611f6c81611dce565b15611fac576040517f08c379a0000000000000000000000000000000000000000000000000000000008152600401611fa390614426565b60405180910390fd5b611fb860008383612845565b6001600360008473ffffffffffffffffffffffffffffffffffffffff1673ffffffffffffffffffffffffffffffffffffffff16815260200190815260200160002060008282546120089190614475565b92505081905550816002600083815260200190815260200160002060006101000a81548173ffffffffffffffffffffffffffffffffffffffff021916908373ffffffffffffffffffffffffffffffffffffffff160217905550808273ffffffffffffffffffffffffffffffffffffffff16600073ffffffffffffffffffffffffffffffffffffffff167fddf252ad1be2c89b69c2b068fc378daa952ba7f163c4a11628f55a4df523b3ef60405160405180910390a45050565b6120d26120cc611d29565b8261284a565b612111576040517f08c379a00000000000000000000000000000000000000000000000000000000081526004016121089061453d565b60405180910390fd5b61211c838383612928565b505050565b61212b8282611b9e565b6121508160076000858152602001908152602001600020611c7f90919063ffffffff16565b505050565b61215f8282612b84565b6121848160076000858152602001908152602001600020612c6690919063ffffffff16565b505050565b6121a483838360405180602001604052806000815250611818565b505050565b60006121b88360000183612c96565b60001c905092915050565b8173ffffffffffffffffffffffffffffffffffffffff168373ffffffffffffffffffffffffffffffffffffffff161415612232576040517f08c379a0000000000000000000000000000000000000000000000000000000008152600401612229906145a9565b60405180910390fd5b80600560008573ffffffffffffffffffffffffffffffffffffffff1673ffffffffffffffffffffffffffffffffffffffff16815260200190815260200160002060008473ffffffffffffffffffffffffffffffffffffffff1673ffffffffffffffffffffffffffffffffffffffff16815260200190815260200160002060006101000a81548160ff0219169083151502179055508173ffffffffffffffffffffffffffffffffffffffff168373ffffffffffffffffffffffffffffffffffffffff167f17307eab39ab6107e8899845ad3d59bd9653f200f220920489ca2b5937696c318360405161232391906132a3565b60405180910390a3505050565b61234161233b611d29565b8361284a565b612380576040517f08c379a00000000000000000000000000000000000000000000000000000000081526004016123779061453d565b60405180910390fd5b61238c84848484612cc1565b50505050565b606060405180602001604052806000815250905090565b606060008214156123f1576040518060400160405280600181526020017f30000000000000000000000000000000000000000000000000000000000000008152509050612505565b600082905060005b6000821461242357808061240c906145c9565b915050600a8261241c9190614641565b91506123f9565b60008167ffffffffffffffff81111561243f5761243e6135bb565b5b6040519080825280601f01601f1916602001820160405280156124715781602001600182028036833780820191505090505b5090505b600085146124fe5760018261248a9190614672565b9150600a8561249991906146a6565b60306124a59190614475565b60f81b8183815181106124bb576124ba6146d7565b5b60200101907effffffffffffffffffffffffffffffffffffffffffffffffffffffffffffff1916908160001a905350600a856124f79190614641565b9450612475565b8093505050505b919050565b600061251882600001612d1d565b9050919050565b600061252b8383612d2e565b612584578260000182908060018154018082558091505060019003906000526020600020016000909190919091505582600001805490508360010160008481526020019081526020016000208190555060019050612589565b600090505b92915050565b60007f7965db0b000000000000000000000000000000000000000000000000000000007bffffffffffffffffffffffffffffffffffffffffffffffffffffffff1916827bffffffffffffffffffffffffffffffffffffffffffffffffffffffff19161480612602575061260182612d51565b5b9050919050565b60606000600283600261261c9190614706565b6126269190614475565b67ffffffffffffffff81111561263f5761263e6135bb565b5b6040519080825280601f01601f1916602001820160405280156126715781602001600182028036833780820191505090505b5090507f3000000000000000000000000000000000000000000000000000000000000000816000815181106126a9576126a86146d7565b5b60200101907effffffffffffffffffffffffffffffffffffffffffffffffffffffffffffff1916908160001a9053507f78000000000000000000000000000000000000000000000000000000000000008160018151811061270d5761270c6146d7565b5b60200101907effffffffffffffffffffffffffffffffffffffffffffffffffffffffffffff1916908160001a9053506000600184600261274d9190614706565b6127579190614475565b90505b60018111156127f7577f3031323334353637383961626364656600000000000000000000000000000000600f861660108110612799576127986146d7565b5b1a60f81b8282815181106127b0576127af6146d7565b5b60200101907effffffffffffffffffffffffffffffffffffffffffffffffffffffffffffff1916908160001a905350600485901c9450806127f090614760565b905061275a565b506000841461283b576040517f08c379a0000000000000000000000000000000000000000000000000000000008152600401612832906147d6565b60405180910390fd5b8091505092915050565b505050565b600061285582611dce565b612894576040517f08c379a000000000000000000000000000000000000000000000000000000000815260040161288b90614868565b60405180910390fd5b600061289f83611292565b90508073ffffffffffffffffffffffffffffffffffffffff168473ffffffffffffffffffffffffffffffffffffffff16148061290e57508373ffffffffffffffffffffffffffffffffffffffff166128f684610a03565b73ffffffffffffffffffffffffffffffffffffffff16145b8061291f575061291e8185611ab3565b5b91505092915050565b8273ffffffffffffffffffffffffffffffffffffffff1661294882611292565b73ffffffffffffffffffffffffffffffffffffffff161461299e576040517f08c379a0000000000000000000000000000000000000000000000000000000008152600401612995906148fa565b60405180910390fd5b600073ffffffffffffffffffffffffffffffffffffffff168273ffffffffffffffffffffffffffffffffffffffff161415612a0e576040517f08c379a0000000000000000000000000000000000000000000000000000000008152600401612a059061498c565b60405180910390fd5b612a19838383612845565b612a24600082611e3a565b6001600360008573ffffffffffffffffffffffffffffffffffffffff1673ffffffffffffffffffffffffffffffffffffffff1681526020019081526020016000206000828254612a749190614672565b925050819055506001600360008473ffffffffffffffffffffffffffffffffffffffff1673ffffffffffffffffffffffffffffffffffffffff1681526020019081526020016000206000828254612acb9190614475565b92505081905550816002600083815260200190815260200160002060006101000a81548173ffffffffffffffffffffffffffffffffffffffff021916908373ffffffffffffffffffffffffffffffffffffffff160217905550808273ffffffffffffffffffffffffffffffffffffffff168473ffffffffffffffffffffffffffffffffffffffff167fddf252ad1be2c89b69c2b068fc378daa952ba7f163c4a11628f55a4df523b3ef60405160405180910390a4505050565b612b8e82826115aa565b15612c625760006006600084815260200190815260200160002060000160008373ffffffffffffffffffffffffffffffffffffffff1673ffffffffffffffffffffffffffffffffffffffff16815260200190815260200160002060006101000a81548160ff021916908315150217905550612c07611d29565b73ffffffffffffffffffffffffffffffffffffffff168173ffffffffffffffffffffffffffffffffffffffff16837ff6391f5c32d9c69d2a47ea670b442974b53935d1edc7fd64eb21e047a839171b60405160405180910390a45b5050565b6000612c8e836000018373ffffffffffffffffffffffffffffffffffffffff1660001b612e33565b905092915050565b6000826000018281548110612cae57612cad6146d7565b5b9060005260206000200154905092915050565b612ccc848484612928565b612cd884848484612f47565b612d17576040517f08c379a0000000000000000000000000000000000000000000000000000000008152600401612d0e90614a1e565b60405180910390fd5b50505050565b600081600001805490509050919050565b600080836001016000848152602001908152602001600020541415905092915050565b60007f80ac58cd000000000000000000000000000000000000000000000000000000007bffffffffffffffffffffffffffffffffffffffffffffffffffffffff1916827bffffffffffffffffffffffffffffffffffffffffffffffffffffffff19161480612e1c57507f5b5e139f000000000000000000000000000000000000000000000000000000007bffffffffffffffffffffffffffffffffffffffffffffffffffffffff1916827bffffffffffffffffffffffffffffffffffffffffffffffffffffffff1916145b80612e2c5750612e2b826130cf565b5b9050919050565b60008083600101600084815260200190815260200160002054905060008114612f3b576000600182612e659190614672565b9050600060018660000180549050612e7d9190614672565b9050818114612eec576000866000018281548110612e9e57612e9d6146d7565b5b9060005260206000200154905080876000018481548110612ec257612ec16146d7565b5b90600052602060002001819055508387600101600083815260200190815260200160002081905550505b85600001805480612f0057612eff614a3e565b5b600190038181906000526020600020016000905590558560010160008681526020019081526020016000206000905560019350505050612f41565b60009150505b92915050565b6000612f688473ffffffffffffffffffffffffffffffffffffffff16613139565b156130c2578373ffffffffffffffffffffffffffffffffffffffff1663150b7a02612f91611d29565b8786866040518563ffffffff1660e01b8152600401612fb39493929190614ac2565b6020604051808303816000875af1925050508015612fef57506040513d601f19601f82011682018060405250810190612fec9190614b23565b60015b613072573d806000811461301f576040519150601f19603f3d011682016040523d82523d6000602084013e613024565b606091505b5060008151141561306a576040517f08c379a000000000000000000000000000000000000000000000000000000000815260040161306190614a1e565b60405180910390fd5b805181602001fd5b63150b7a0260e01b7bffffffffffffffffffffffffffffffffffffffffffffffffffffffff1916817bffffffffffffffffffffffffffffffffffffffffffffffffffffffff1916149150506130c7565b600190505b949350505050565b60007f01ffc9a7000000000000000000000000000000000000000000000000000000007bffffffffffffffffffffffffffffffffffffffffffffffffffffffff1916827bffffffffffffffffffffffffffffffffffffffffffffffffffffffff1916149050919050565b600080823b905060008111915050919050565b82805461315890613bf9565b90600052602060002090601f01602090048101928261317a57600085556131c1565b82601f1061319357805160ff19168380011785556131c1565b828001600101855582156131c1579182015b828111156131c05782518255916020019190600101906131a5565b5b5090506131ce91906131d2565b5090565b5b808211156131eb5760008160009055506001016131d3565b5090565b6000604051905090565b600080fd5b600080fd5b60007fffffffff0000000000000000000000000000000000000000000000000000000082169050919050565b61323881613203565b811461324357600080fd5b50565b6000813590506132558161322f565b92915050565b600060208284031215613271576132706131f9565b5b600061327f84828501613246565b91505092915050565b60008115159050919050565b61329d81613288565b82525050565b60006020820190506132b86000830184613294565b92915050565b600073ffffffffffffffffffffffffffffffffffffffff82169050919050565b60006132e9826132be565b9050919050565b6132f9816132de565b811461330457600080fd5b50565b600081359050613316816132f0565b92915050565b600060208284031215613332576133316131f9565b5b600061334084828501613307565b91505092915050565b600081519050919050565b600082825260208201905092915050565b60005b83811015613383578082015181840152602081019050613368565b83811115613392576000848401525b50505050565b6000601f19601f8301169050919050565b60006133b482613349565b6133be8185613354565b93506133ce818560208601613365565b6133d781613398565b840191505092915050565b600060208201905081810360008301526133fc81846133a9565b905092915050565b6000819050919050565b61341781613404565b811461342257600080fd5b50565b6000813590506134348161340e565b92915050565b6000602082840312156134505761344f6131f9565b5b600061345e84828501613425565b91505092915050565b613470816132de565b82525050565b600060208201905061348b6000830184613467565b92915050565b600080604083850312156134a8576134a76131f9565b5b60006134b685828601613307565b92505060206134c785828601613425565b9150509250929050565b600081519050919050565b600082825260208201905092915050565b6000819050602082019050919050565b61350681613404565b82525050565b600061351883836134fd565b60208301905092915050565b6000602082019050919050565b600061353c826134d1565b61354681856134dc565b9350613551836134ed565b8060005b83811015613582578151613569888261350c565b975061357483613524565b925050600181019050613555565b5085935050505092915050565b600060208201905081810360008301526135a98184613531565b905092915050565b600080fd5b600080fd5b7f4e487b7100000000000000000000000000000000000000000000000000000000600052604160045260246000fd5b6135f382613398565b810181811067ffffffffffffffff82111715613612576136116135bb565b5b80604052505050565b60006136256131ef565b905061363182826135ea565b919050565b600067ffffffffffffffff821115613651576136506135bb565b5b61365a82613398565b9050602081019050919050565b82818337600083830152505050565b600061368961368484613636565b61361b565b9050828152602081018484840111156136a5576136a46135b6565b5b6136b0848285613667565b509392505050565b600082601f8301126136cd576136cc6135b1565b5b81356136dd848260208601613676565b91505092915050565b600080604083850312156136fd576136fc6131f9565b5b600083013567ffffffffffffffff81111561371b5761371a6131fe565b5b613727858286016136b8565b925050602061373885828601613307565b9150509250929050565b60008060006060848603121561375b5761375a6131f9565b5b600061376986828701613307565b935050602061377a86828701613307565b925050604061378b86828701613425565b9150509250925092565b6000819050919050565b6137a881613795565b81146137b357600080fd5b50565b6000813590506137c58161379f565b92915050565b6000602082840312156137e1576137e06131f9565b5b60006137ef848285016137b6565b91505092915050565b61380181613795565b82525050565b600060208201905061381c60008301846137f8565b92915050565b60008060408385031215613839576138386131f9565b5b6000613847858286016137b6565b925050602061385885828601613307565b9150509250929050565b61386b81613404565b82525050565b60006020820190506138866000830184613862565b92915050565b600080604083850312156138a3576138a26131f9565b5b60006138b1858286016137b6565b92505060206138c285828601613425565b9150509250929050565b6138d581613288565b81146138e057600080fd5b50565b6000813590506138f2816138cc565b92915050565b6000806040838503121561390f5761390e6131f9565b5b600061391d85828601613307565b925050602061392e858286016138e3565b9150509250929050565b600081519050919050565b600082825260208201905092915050565b6000819050602082019050919050565b600082825260208201905092915050565b600061398082613349565b61398a8185613964565b935061399a818560208601613365565b6139a381613398565b840191505092915050565b60006139ba8383613975565b905092915050565b6000602082019050919050565b60006139da82613938565b6139e48185613943565b9350836020820285016139f685613954565b8060005b85811015613a325784840389528151613a1385826139ae565b9450613a1e836139c2565b925060208a019950506001810190506139fa565b50829750879550505050505092915050565b60006020820190508181036000830152613a5e81846139cf565b905092915050565b600067ffffffffffffffff821115613a8157613a806135bb565b5b613a8a82613398565b9050602081019050919050565b6000613aaa613aa584613a66565b61361b565b905082815260208101848484011115613ac657613ac56135b6565b5b613ad1848285613667565b509392505050565b600082601f830112613aee57613aed6135b1565b5b8135613afe848260208601613a97565b91505092915050565b60008060008060808587031215613b2157613b206131f9565b5b6000613b2f87828801613307565b9450506020613b4087828801613307565b9350506040613b5187828801613425565b925050606085013567ffffffffffffffff811115613b7257613b716131fe565b5b613b7e87828801613ad9565b91505092959194509250565b60008060408385031215613ba157613ba06131f9565b5b6000613baf85828601613307565b9250506020613bc085828601613307565b9150509250929050565b7f4e487b7100000000000000000000000000000000000000000000000000000000600052602260045260246000fd5b60006002820490506001821680613c1157607f821691505b60208210811415613c2557613c24613bca565b5b50919050565b7f4552433732313a20617070726f76656420717565727920666f72206e6f6e657860008201527f697374656e7420746f6b656e0000000000000000000000000000000000000000602082015250565b6000613c87602c83613354565b9150613c9282613c2b565b604082019050919050565b60006020820190508181036000830152613cb681613c7a565b9050919050565b7f4552433732313a20617070726f76616c20746f2063757272656e74206f776e6560008201527f7200000000000000000000000000000000000000000000000000000000000000602082015250565b6000613d19602183613354565b9150613d2482613cbd565b604082019050919050565b60006020820190508181036000830152613d4881613d0c565b9050919050565b7f4552433732313a20617070726f76652063616c6c6572206973206e6f74206f7760008201527f6e6572206e6f7220617070726f76656420666f7220616c6c0000000000000000602082015250565b6000613dab603883613354565b9150613db682613d4f565b604082019050919050565b60006020820190508181036000830152613dda81613d9e565b9050919050565b600081905092915050565b6000613df782613349565b613e018185613de1565b9350613e11818560208601613365565b80840191505092915050565b6000613e298284613dec565b915081905092915050565b7f54686973206c696e6b20697320616c7265616479206d696e7465640000000000600082015250565b6000613e6a601b83613354565b9150613e7582613e34565b602082019050919050565b60006020820190508181036000830152613e9981613e5d565b9050919050565b7f546869732061646472657373206973206e6f7420616e20696e7374727563746f60008201527f7200000000000000000000000000000000000000000000000000000000000000602082015250565b6000613efc602183613354565b9150613f0782613ea0565b604082019050919050565b60006020820190508181036000830152613f2b81613eef565b9050919050565b7f5472616e73666572206166746572206d696e742069732070726f68696269746560008201527f6400000000000000000000000000000000000000000000000000000000000000602082015250565b6000613f8e602183613354565b9150613f9982613f32565b604082019050919050565b60006020820190508181036000830152613fbd81613f81565b9050919050565b7f416363657373436f6e74726f6c3a2063616e206f6e6c792072656e6f756e636560008201527f20726f6c657320666f722073656c660000000000000000000000000000000000602082015250565b6000614020602f83613354565b915061402b82613fc4565b604082019050919050565b6000602082019050818103600083015261404f81614013565b9050919050565b7f5468652061646472657373206973206e6f7420612073747564656e7400000000600082015250565b600061408c601c83613354565b915061409782614056565b602082019050919050565b600060208201905081810360008301526140bb8161407f565b9050919050565b7f4552433732313a206f776e657220717565727920666f72206e6f6e657869737460008201527f656e7420746f6b656e0000000000000000000000000000000000000000000000602082015250565b600061411e602983613354565b9150614129826140c2565b604082019050919050565b6000602082019050818103600083015261414d81614111565b9050919050565b7f4552433732313a2062616c616e636520717565727920666f7220746865207a6560008201527f726f206164647265737300000000000000000000000000000000000000000000602082015250565b60006141b0602a83613354565b91506141bb82614154565b604082019050919050565b600060208201905081810360008301526141df816141a3565b9050919050565b7f4552433732314d657461646174613a2055524920717565727920666f72206e6f60008201527f6e6578697374656e7420746f6b656e0000000000000000000000000000000000602082015250565b6000614242602f83613354565b915061424d826141e6565b604082019050919050565b6000602082019050818103600083015261427181614235565b9050919050565b60006142848285613dec565b91506142908284613dec565b91508190509392505050565b7f416363657373436f6e74726f6c3a206163636f756e7420000000000000000000600082015250565b60006142d2601783613de1565b91506142dd8261429c565b601782019050919050565b7f206973206d697373696e6720726f6c6520000000000000000000000000000000600082015250565b600061431e601183613de1565b9150614329826142e8565b601182019050919050565b600061433f826142c5565b915061434b8285613dec565b915061435682614311565b91506143628284613dec565b91508190509392505050565b7f4552433732313a206d696e7420746f20746865207a65726f2061646472657373600082015250565b60006143a4602083613354565b91506143af8261436e565b602082019050919050565b600060208201905081810360008301526143d381614397565b9050919050565b7f4552433732313a20746f6b656e20616c7265616479206d696e74656400000000600082015250565b6000614410601c83613354565b915061441b826143da565b602082019050919050565b6000602082019050818103600083015261443f81614403565b9050919050565b7f4e487b7100000000000000000000000000000000000000000000000000000000600052601160045260246000fd5b600061448082613404565b915061448b83613404565b9250827fffffffffffffffffffffffffffffffffffffffffffffffffffffffffffffffff038211156144c0576144bf614446565b5b828201905092915050565b7f4552433732313a207472616e736665722063616c6c6572206973206e6f74206f60008201527f776e6572206e6f7220617070726f766564000000000000000000000000000000602082015250565b6000614527603183613354565b9150614532826144cb565b604082019050919050565b600060208201905081810360008301526145568161451a565b9050919050565b7f4552433732313a20617070726f766520746f2063616c6c657200000000000000600082015250565b6000614593601983613354565b915061459e8261455d565b602082019050919050565b600060208201905081810360008301526145c281614586565b9050919050565b60006145d482613404565b91507fffffffffffffffffffffffffffffffffffffffffffffffffffffffffffffffff82141561460757614606614446565b5b600182019050919050565b7f4e487b7100000000000000000000000000000000000000000000000000000000600052601260045260246000fd5b600061464c82613404565b915061465783613404565b92508261466757614666614612565b5b828204905092915050565b600061467d82613404565b915061468883613404565b92508282101561469b5761469a614446565b5b828203905092915050565b60006146b182613404565b91506146bc83613404565b9250826146cc576146cb614612565b5b828206905092915050565b7f4e487b7100000000000000000000000000000000000000000000000000000000600052603260045260246000fd5b600061471182613404565b915061471c83613404565b9250817fffffffffffffffffffffffffffffffffffffffffffffffffffffffffffffffff048311821515161561475557614754614446565b5b828202905092915050565b600061476b82613404565b9150600082141561477f5761477e614446565b5b600182039050919050565b7f537472696e67733a20686578206c656e67746820696e73756666696369656e74600082015250565b60006147c0602083613354565b91506147cb8261478a565b602082019050919050565b600060208201905081810360008301526147ef816147b3565b9050919050565b7f4552433732313a206f70657261746f7220717565727920666f72206e6f6e657860008201527f697374656e7420746f6b656e0000000000000000000000000000000000000000602082015250565b6000614852602c83613354565b915061485d826147f6565b604082019050919050565b6000602082019050818103600083015261488181614845565b9050919050565b7f4552433732313a207472616e73666572206f6620746f6b656e2074686174206960008201527f73206e6f74206f776e0000000000000000000000000000000000000000000000602082015250565b60006148e4602983613354565b91506148ef82614888565b604082019050919050565b60006020820190508181036000830152614913816148d7565b9050919050565b7f4552433732313a207472616e7366657220746f20746865207a65726f2061646460008201527f7265737300000000000000000000000000000000000000000000000000000000602082015250565b6000614976602483613354565b91506149818261491a565b604082019050919050565b600060208201905081810360008301526149a581614969565b9050919050565b7f4552433732313a207472616e7366657220746f206e6f6e20455243373231526560008201527f63656976657220696d706c656d656e7465720000000000000000000000000000602082015250565b6000614a08603283613354565b9150614a13826149ac565b604082019050919050565b60006020820190508181036000830152614a37816149fb565b9050919050565b7f4e487b7100000000000000000000000000000000000000000000000000000000600052603160045260246000fd5b600081519050919050565b600082825260208201905092915050565b6000614a9482614a6d565b614a9e8185614a78565b9350614aae818560208601613365565b614ab781613398565b840191505092915050565b6000608082019050614ad76000830187613467565b614ae46020830186613467565b614af16040830185613862565b8181036060830152614b038184614a89565b905095945050505050565b600081519050614b1d8161322f565b92915050565b600060208284031215614b3957614b386131f9565b5b6000614b4784828501614b0e565b9150509291505056fea2646970667358221220e81589153efa8b46d48dd54e1b13b9f5784887c3203c1449eb72af98fc2d84c964736f6c634300080a0033",
  "immutableReferences": {},
  "source": "pragma solidity ^0.8.10;\r\n\r\nimport \"@openzeppelin/contracts/token/ERC721/ERC721.sol\";\r\nimport \"./Roles.sol\";\r\n\r\ncontract Course is ERC721, Roles{\r\n\r\n    //Mapping of the instructor to the tokenIDs\r\n    mapping(address => uint256[]) _givesCourses;\r\n    //Mapping of the tokenID to the owner is defined in ERC721.sol\r\n    //Mapping of the student to the tokenIDs\r\n\r\n    //TODO///////////////////////////////////////////\r\n    mapping(address => uint256[]) _takesCourses;\r\n    //Mapping of the tokenID to the students\r\n    mapping(uint256 => address[]) _studentsOf;\r\n    //is Course link exist\r\n    //TODO///////////////////////////////////////////\r\n\r\n    mapping(string => bool) _courseExist;\r\n    //List of Course Links\r\n    string[] _courseLinks;\r\n\r\n    constructor() ERC721(\"Course\", \"CRS\"){\r\n        _setupRole(DEFAULT_ADMIN_ROLE, msg.sender);\r\n        _setupRole(RECTOR_ROLE, msg.sender);\r\n    }\r\n\r\n    //TODO Change It To Role Based Ownership From Public\r\n    function mint(string memory _courseLink, address instructorAddress) public{\r\n        require(!_courseExist[_courseLink], \"This link is already minted\");\r\n        require(hasRole(INSTRUCTOR_ROLE, instructorAddress), \"This address is not an instructor\");\r\n        //diplomaLinks - add\r\n        _courseLinks.push(_courseLink);\r\n        uint _id = _courseLinks.length; //tokenID's start from 1 because default uint256 value is 0\r\n        //Call mint of ERC721\r\n        _mint(instructorAddress, _id);\r\n        //Trace it\r\n        _courseExist[_courseLink] = true;\r\n        _givesCourses[instructorAddress].push(_id);\r\n    }\r\n    function getCourseLinks() public view returns(string[] memory courseLinks){\r\n        return _courseLinks;\r\n    }\r\n    function getGivesCourses(address instructorAddress) public view returns (uint[] memory givesCourses){\r\n        return _givesCourses[instructorAddress];\r\n    }\r\n\r\n    //TODO Contract Owner can make mistakes when minting. Token should be somewhat editable for contract owner\r\n    function transferFrom(//Only callable when minted\r\n        address from,\r\n        address to,\r\n        uint256 tokenId\r\n    ) public virtual override {\r\n        require(msg.sender == 0x0000000000000000000000000000000000000000, \"Transfer after mint is prohibited\");\r\n        super.transferFrom(from,to,tokenId);\r\n    }\r\n    function safeTransferFrom(//Only callable when minted\r\n        address from,\r\n        address to,\r\n        uint256 tokenId\r\n    ) public virtual override {\r\n        require(msg.sender == 0x0000000000000000000000000000000000000000, \"Transfer after mint is prohibited\");\r\n        super.safeTransferFrom(from,to,tokenId);\r\n    }\r\n    function safeTransferFrom(//Only callable when minted\r\n        address from,\r\n        address to,\r\n        uint256 tokenId,\r\n        bytes memory _data\r\n    ) public virtual override {\r\n        require(msg.sender == 0x0000000000000000000000000000000000000000, \"Transfer after mint is prohibited\");\r\n        super.safeTransferFrom(from, to, tokenId, _data);\r\n    }\r\n    function supportsInterface(bytes4 interfaceId) public view virtual override(ERC721, AccessControlEnumerable) returns (bool) {\r\n        return super.supportsInterface(interfaceId);\r\n    }\r\n}\r\n",
  "sourcePath": "C:\\Users\\asus\\Desktop\\Dersler\\CMPE492\\certification-project\\contracts\\Course.sol",
  "compiler": {
    "name": "solc",
    "version": "0.8.10+commit.fc410830.Emscripten.clang"
  },
  "schemaVersion": "3.4.4",
  "updatedAt": "2022-01-14T18:18:06.901Z",
  "networkType": "ethereum",
  "devdoc": {
    "kind": "dev",
    "methods": {
      "approve(address,uint256)": {
        "details": "See {IERC721-approve}."
      },
      "balanceOf(address)": {
        "details": "See {IERC721-balanceOf}."
      },
      "getApproved(uint256)": {
        "details": "See {IERC721-getApproved}."
      },
      "getRoleAdmin(bytes32)": {
        "details": "Returns the admin role that controls `role`. See {grantRole} and {revokeRole}. To change a role's admin, use {_setRoleAdmin}."
      },
      "getRoleMember(bytes32,uint256)": {
        "details": "Returns one of the accounts that have `role`. `index` must be a value between 0 and {getRoleMemberCount}, non-inclusive. Role bearers are not sorted in any particular way, and their ordering may change at any point. WARNING: When using {getRoleMember} and {getRoleMemberCount}, make sure you perform all queries on the same block. See the following https://forum.openzeppelin.com/t/iterating-over-elements-on-enumerableset-in-openzeppelin-contracts/2296[forum post] for more information."
      },
      "getRoleMemberCount(bytes32)": {
        "details": "Returns the number of accounts that have `role`. Can be used together with {getRoleMember} to enumerate all bearers of a role."
      },
      "grantRole(bytes32,address)": {
        "details": "Grants `role` to `account`. If `account` had not been already granted `role`, emits a {RoleGranted} event. Requirements: - the caller must have ``role``'s admin role."
      },
      "hasRole(bytes32,address)": {
        "details": "Returns `true` if `account` has been granted `role`."
      },
      "isApprovedForAll(address,address)": {
        "details": "See {IERC721-isApprovedForAll}."
      },
      "name()": {
        "details": "See {IERC721Metadata-name}."
      },
      "ownerOf(uint256)": {
        "details": "See {IERC721-ownerOf}."
      },
      "renounceRole(bytes32,address)": {
        "details": "Revokes `role` from the calling account. Roles are often managed via {grantRole} and {revokeRole}: this function's purpose is to provide a mechanism for accounts to lose their privileges if they are compromised (such as when a trusted device is misplaced). If the calling account had been revoked `role`, emits a {RoleRevoked} event. Requirements: - the caller must be `account`."
      },
      "revokeRole(bytes32,address)": {
        "details": "Revokes `role` from `account`. If `account` had been granted `role`, emits a {RoleRevoked} event. Requirements: - the caller must have ``role``'s admin role."
      },
      "safeTransferFrom(address,address,uint256)": {
        "details": "See {IERC721-safeTransferFrom}."
      },
      "safeTransferFrom(address,address,uint256,bytes)": {
        "details": "See {IERC721-safeTransferFrom}."
      },
      "setApprovalForAll(address,bool)": {
        "details": "See {IERC721-setApprovalForAll}."
      },
      "symbol()": {
        "details": "See {IERC721Metadata-symbol}."
      },
      "tokenURI(uint256)": {
        "details": "See {IERC721Metadata-tokenURI}."
      },
      "transferFrom(address,address,uint256)": {
        "details": "See {IERC721-transferFrom}."
      }
    },
    "version": 1
  },
  "userdoc": {
    "kind": "user",
    "methods": {},
    "version": 1
  }
}