{
  "contractName": "Course",
  "abi": [
    {
      "inputs": [
        {
          "internalType": "address",
          "name": "_rolesContractAddress",
          "type": "address"
        },
        {
          "internalType": "address",
          "name": "_requestContractAddress",
          "type": "address"
        }
      ],
      "stateMutability": "nonpayable",
      "type": "constructor"
    },
    {
      "anonymous": false,
      "inputs": [
        {
          "indexed": true,
          "internalType": "address",
          "name": "owner",
          "type": "address"
        },
        {
          "indexed": true,
          "internalType": "address",
          "name": "approved",
          "type": "address"
        },
        {
          "indexed": true,
          "internalType": "uint256",
          "name": "tokenId",
          "type": "uint256"
        }
      ],
      "name": "Approval",
      "type": "event"
    },
    {
      "anonymous": false,
      "inputs": [
        {
          "indexed": true,
          "internalType": "address",
          "name": "owner",
          "type": "address"
        },
        {
          "indexed": true,
          "internalType": "address",
          "name": "operator",
          "type": "address"
        },
        {
          "indexed": false,
          "internalType": "bool",
          "name": "approved",
          "type": "bool"
        }
      ],
      "name": "ApprovalForAll",
      "type": "event"
    },
    {
      "anonymous": false,
      "inputs": [
        {
          "indexed": true,
          "internalType": "address",
          "name": "from",
          "type": "address"
        },
        {
          "indexed": true,
          "internalType": "address",
          "name": "to",
          "type": "address"
        },
        {
          "indexed": true,
          "internalType": "uint256",
          "name": "tokenId",
          "type": "uint256"
        }
      ],
      "name": "Transfer",
      "type": "event"
    },
    {
      "inputs": [
        {
          "internalType": "address",
          "name": "to",
          "type": "address"
        },
        {
          "internalType": "uint256",
          "name": "tokenId",
          "type": "uint256"
        }
      ],
      "name": "approve",
      "outputs": [],
      "stateMutability": "nonpayable",
      "type": "function"
    },
    {
      "inputs": [
        {
          "internalType": "address",
          "name": "owner",
          "type": "address"
        }
      ],
      "name": "balanceOf",
      "outputs": [
        {
          "internalType": "uint256",
          "name": "",
          "type": "uint256"
        }
      ],
      "stateMutability": "view",
      "type": "function"
    },
    {
      "inputs": [
        {
          "internalType": "uint256",
          "name": "tokenId",
          "type": "uint256"
        }
      ],
      "name": "getApproved",
      "outputs": [
        {
          "internalType": "address",
          "name": "",
          "type": "address"
        }
      ],
      "stateMutability": "view",
      "type": "function"
    },
    {
      "inputs": [
        {
          "internalType": "address",
          "name": "owner",
          "type": "address"
        },
        {
          "internalType": "address",
          "name": "operator",
          "type": "address"
        }
      ],
      "name": "isApprovedForAll",
      "outputs": [
        {
          "internalType": "bool",
          "name": "",
          "type": "bool"
        }
      ],
      "stateMutability": "view",
      "type": "function"
    },
    {
      "inputs": [],
      "name": "name",
      "outputs": [
        {
          "internalType": "string",
          "name": "",
          "type": "string"
        }
      ],
      "stateMutability": "view",
      "type": "function"
    },
    {
      "inputs": [
        {
          "internalType": "uint256",
          "name": "tokenId",
          "type": "uint256"
        }
      ],
      "name": "ownerOf",
      "outputs": [
        {
          "internalType": "address",
          "name": "",
          "type": "address"
        }
      ],
      "stateMutability": "view",
      "type": "function"
    },
    {
      "inputs": [
        {
          "internalType": "address",
          "name": "operator",
          "type": "address"
        },
        {
          "internalType": "bool",
          "name": "approved",
          "type": "bool"
        }
      ],
      "name": "setApprovalForAll",
      "outputs": [],
      "stateMutability": "nonpayable",
      "type": "function"
    },
    {
      "inputs": [
        {
          "internalType": "bytes4",
          "name": "interfaceId",
          "type": "bytes4"
        }
      ],
      "name": "supportsInterface",
      "outputs": [
        {
          "internalType": "bool",
          "name": "",
          "type": "bool"
        }
      ],
      "stateMutability": "view",
      "type": "function"
    },
    {
      "inputs": [],
      "name": "symbol",
      "outputs": [
        {
          "internalType": "string",
          "name": "",
          "type": "string"
        }
      ],
      "stateMutability": "view",
      "type": "function"
    },
    {
      "inputs": [
        {
          "internalType": "uint256",
          "name": "tokenId",
          "type": "uint256"
        }
      ],
      "name": "tokenURI",
      "outputs": [
        {
          "internalType": "string",
          "name": "",
          "type": "string"
        }
      ],
      "stateMutability": "view",
      "type": "function"
    },
    {
      "inputs": [
        {
          "internalType": "string",
          "name": "_courseLink",
          "type": "string"
        },
        {
          "internalType": "address",
          "name": "_instructorAddress",
          "type": "address"
        }
      ],
      "name": "mint",
      "outputs": [],
      "stateMutability": "nonpayable",
      "type": "function"
    },
    {
      "inputs": [
        {
          "internalType": "uint256",
          "name": "_id",
          "type": "uint256"
        }
      ],
      "name": "applyCourse",
      "outputs": [],
      "stateMutability": "nonpayable",
      "type": "function"
    },
    {
      "inputs": [],
      "name": "getCourseLinks",
      "outputs": [
        {
          "internalType": "string[]",
          "name": "courseLinks",
          "type": "string[]"
        }
      ],
      "stateMutability": "view",
      "type": "function"
    },
    {
      "inputs": [
        {
          "internalType": "address",
          "name": "instructorAddress",
          "type": "address"
        }
      ],
      "name": "getGivesCourses",
      "outputs": [
        {
          "internalType": "uint256[]",
          "name": "givesCourses",
          "type": "uint256[]"
        }
      ],
      "stateMutability": "view",
      "type": "function"
    },
    {
      "inputs": [
        {
          "internalType": "address",
          "name": "studentAddress",
          "type": "address"
        }
      ],
      "name": "getTakesCourses",
      "outputs": [
        {
          "internalType": "uint256[]",
          "name": "",
          "type": "uint256[]"
        }
      ],
      "stateMutability": "view",
      "type": "function"
    },
    {
      "inputs": [
        {
          "internalType": "uint256",
          "name": "_id",
          "type": "uint256"
        }
      ],
      "name": "getRequestOfStudents",
      "outputs": [
        {
          "internalType": "address[]",
          "name": "",
          "type": "address[]"
        }
      ],
      "stateMutability": "view",
      "type": "function"
    },
    {
      "inputs": [
        {
          "internalType": "uint256",
          "name": "_id",
          "type": "uint256"
        }
      ],
      "name": "getApprovedStudents",
      "outputs": [
        {
          "internalType": "address[]",
          "name": "",
          "type": "address[]"
        }
      ],
      "stateMutability": "view",
      "type": "function"
    },
    {
      "inputs": [
        {
          "internalType": "uint256",
          "name": "_id",
          "type": "uint256"
        }
      ],
      "name": "getFrozen",
      "outputs": [
        {
          "internalType": "bool",
          "name": "",
          "type": "bool"
        }
      ],
      "stateMutability": "view",
      "type": "function"
    },
    {
      "inputs": [
        {
          "internalType": "address",
          "name": "from",
          "type": "address"
        },
        {
          "internalType": "address",
          "name": "to",
          "type": "address"
        },
        {
          "internalType": "uint256",
          "name": "tokenId",
          "type": "uint256"
        }
      ],
      "name": "transferFrom",
      "outputs": [],
      "stateMutability": "nonpayable",
      "type": "function"
    },
    {
      "inputs": [
        {
          "internalType": "address",
          "name": "from",
          "type": "address"
        },
        {
          "internalType": "address",
          "name": "to",
          "type": "address"
        },
        {
          "internalType": "uint256",
          "name": "tokenId",
          "type": "uint256"
        }
      ],
      "name": "safeTransferFrom",
      "outputs": [],
      "stateMutability": "nonpayable",
      "type": "function"
    },
    {
      "inputs": [
        {
          "internalType": "address",
          "name": "from",
          "type": "address"
        },
        {
          "internalType": "address",
          "name": "to",
          "type": "address"
        },
        {
          "internalType": "uint256",
          "name": "tokenId",
          "type": "uint256"
        },
        {
          "internalType": "bytes",
          "name": "_data",
          "type": "bytes"
        }
      ],
      "name": "safeTransferFrom",
      "outputs": [],
      "stateMutability": "nonpayable",
      "type": "function"
    }
  ],
  "bytecode": "0x60806040523480156200001157600080fd5b50604051620041333803806200413383398181016040528101906200003791906200027b565b6040518060400160405280600681526020017f436f7572736500000000000000000000000000000000000000000000000000008152506040518060400160405280600381526020017f43525300000000000000000000000000000000000000000000000000000000008152508160009080519060200190620000bb92919062000161565b508060019080519060200190620000d492919062000161565b50505081600660006101000a81548173ffffffffffffffffffffffffffffffffffffffff021916908373ffffffffffffffffffffffffffffffffffffffff16021790555080600760006101000a81548173ffffffffffffffffffffffffffffffffffffffff021916908373ffffffffffffffffffffffffffffffffffffffff160217905550505062000327565b8280546200016f90620002f1565b90600052602060002090601f016020900481019282620001935760008555620001df565b82601f10620001ae57805160ff1916838001178555620001df565b82800160010185558215620001df579182015b82811115620001de578251825591602001919060010190620001c1565b5b509050620001ee9190620001f2565b5090565b5b808211156200020d576000816000905550600101620001f3565b5090565b600080fd5b600073ffffffffffffffffffffffffffffffffffffffff82169050919050565b6000620002438262000216565b9050919050565b620002558162000236565b81146200026157600080fd5b50565b60008151905062000275816200024a565b92915050565b6000806040838503121562000295576200029462000211565b5b6000620002a58582860162000264565b9250506020620002b88582860162000264565b9150509250929050565b7f4e487b7100000000000000000000000000000000000000000000000000000000600052602260045260246000fd5b600060028204905060018216806200030a57607f821691505b60208210811415620003215762000320620002c2565b5b50919050565b613dfc80620003376000396000f3fe608060405234801561001057600080fd5b50600436106101375760003560e01c80636352211e116100b8578063b88d4fde1161007c578063b88d4fde14610372578063c87b56dd1461038e578063e50cd299146103be578063e721e465146103ee578063e985e9c51461040a578063fc3fef4d1461043a57610137565b80636352211e146102ba57806370a08231146102ea57806395d89b411461031a578063a22cb46514610338578063a6faa9621461035457610137565b80631c351a9d116100ff5780631c351a9d1461020657806323b872dd146102225780632971b8811461023e57806342842e0e1461026e5780635ce8d7951461028a57610137565b806301ffc9a71461013c57806306fdde031461016c578063081812fc1461018a578063095ea7b3146101ba5780630baf40e3146101d6575b600080fd5b61015660048036038101906101519190612465565b61046a565b60405161016391906124ad565b60405180910390f35b61017461054c565b6040516101819190612561565b60405180910390f35b6101a4600480360381019061019f91906125b9565b6105de565b6040516101b19190612627565b60405180910390f35b6101d460048036038101906101cf919061266e565b610663565b005b6101f060048036038101906101eb91906126ae565b61077b565b6040516101fd9190612799565b60405180910390f35b610220600480360381019061021b91906128f0565b610812565b005b61023c6004803603810190610237919061294c565b610bdf565b005b610258600480360381019061025391906125b9565b610c5e565b6040516102659190612a5d565b60405180910390f35b6102886004803603810190610283919061294c565b610cff565b005b6102a4600480360381019061029f91906125b9565b610d7e565b6040516102b19190612a5d565b60405180910390f35b6102d460048036038101906102cf91906125b9565b610e1f565b6040516102e19190612627565b60405180910390f35b61030460048036038101906102ff91906126ae565b610ed1565b6040516103119190612a8e565b60405180910390f35b610322610f89565b60405161032f9190612561565b60405180910390f35b610352600480360381019061034d9190612ad5565b61101b565b005b61035c611031565b6040516103699190612c21565b60405180910390f35b61038c60048036038101906103879190612ce4565b61110a565b005b6103a860048036038101906103a391906125b9565b61118b565b6040516103b59190612561565b60405180910390f35b6103d860048036038101906103d391906126ae565b611232565b6040516103e59190612799565b60405180910390f35b610408600480360381019061040391906125b9565b6112c9565b005b610424600480360381019061041f9190612d67565b611588565b60405161043191906124ad565b60405180910390f35b610454600480360381019061044f91906125b9565b61161c565b60405161046191906124ad565b60405180910390f35b60007f80ac58cd000000000000000000000000000000000000000000000000000000007bffffffffffffffffffffffffffffffffffffffffffffffffffffffff1916827bffffffffffffffffffffffffffffffffffffffffffffffffffffffff1916148061053557507f5b5e139f000000000000000000000000000000000000000000000000000000007bffffffffffffffffffffffffffffffffffffffffffffffffffffffff1916827bffffffffffffffffffffffffffffffffffffffffffffffffffffffff1916145b80610545575061054482611646565b5b9050919050565b60606000805461055b90612dd6565b80601f016020809104026020016040519081016040528092919081815260200182805461058790612dd6565b80156105d45780601f106105a9576101008083540402835291602001916105d4565b820191906000526020600020905b8154815290600101906020018083116105b757829003601f168201915b5050505050905090565b60006105e9826116b0565b610628576040517f08c379a000000000000000000000000000000000000000000000000000000000815260040161061f90612e7a565b60405180910390fd5b6004600083815260200190815260200160002060009054906101000a900473ffffffffffffffffffffffffffffffffffffffff169050919050565b600061066e82610e1f565b90508073ffffffffffffffffffffffffffffffffffffffff168373ffffffffffffffffffffffffffffffffffffffff1614156106df576040517f08c379a00000000000000000000000000000000000000000000000000000000081526004016106d690612f0c565b60405180910390fd5b8073ffffffffffffffffffffffffffffffffffffffff166106fe61171c565b73ffffffffffffffffffffffffffffffffffffffff16148061072d575061072c8161072761171c565b611588565b5b61076c576040517f08c379a000000000000000000000000000000000000000000000000000000000815260040161076390612f9e565b60405180910390fd5b6107768383611724565b505050565b6060600860008373ffffffffffffffffffffffffffffffffffffffff1673ffffffffffffffffffffffffffffffffffffffff16815260200190815260200160002080548060200260200160405190810160405280929190818152602001828054801561080657602002820191906000526020600020905b8154815260200190600101908083116107f2575b50505050509050919050565b600660009054906101000a900473ffffffffffffffffffffffffffffffffffffffff1673ffffffffffffffffffffffffffffffffffffffff16632be7dc44336040518263ffffffff1660e01b815260040161086d9190612627565b602060405180830381865afa15801561088a573d6000803e3d6000fd5b505050506040513d601f19601f820116820180604052508101906108ae9190612fd3565b6108ed576040517f08c379a00000000000000000000000000000000000000000000000000000000081526004016108e490613072565b60405180910390fd5b600660009054906101000a900473ffffffffffffffffffffffffffffffffffffffff1673ffffffffffffffffffffffffffffffffffffffff16639822a599826040518263ffffffff1660e01b81526004016109489190612627565b602060405180830381865afa158015610965573d6000803e3d6000fd5b505050506040513d601f19601f820116820180604052508101906109899190612fd3565b6109c8576040517f08c379a00000000000000000000000000000000000000000000000000000000081526004016109bf90613104565b60405180910390fd5b600d826040516109d89190613160565b908152602001604051809103902060009054906101000a900460ff1615610a34576040517f08c379a0000000000000000000000000000000000000000000000000000000008152600401610a2b906131c3565b60405180910390fd5b600e82908060018154018082558091505060019003906000526020600020016000909190919091509080519060200190610a6f929190612356565b506000600e805490509050610a8482826117dd565b6001600d84604051610a969190613160565b908152602001604051809103902060006101000a81548160ff021916908315150217905550600860008373ffffffffffffffffffffffffffffffffffffffff1673ffffffffffffffffffffffffffffffffffffffff1681526020019081526020016000208190806001815401808255809150506001900390600052602060002001600090919091909150556000600c600083815260200190815260200160002060006101000a81548160ff021916908315150217905550600760009054906101000a900473ffffffffffffffffffffffffffffffffffffffff1673ffffffffffffffffffffffffffffffffffffffff1663ef51ea6c846040518263ffffffff1660e01b8152600401610ba89190612561565b600060405180830381600087803b158015610bc257600080fd5b505af1158015610bd6573d6000803e3d6000fd5b50505050505050565b600073ffffffffffffffffffffffffffffffffffffffff163373ffffffffffffffffffffffffffffffffffffffff1614610c4e576040517f08c379a0000000000000000000000000000000000000000000000000000000008152600401610c4590613255565b60405180910390fd5b610c598383836119ab565b505050565b6060600a6000838152602001908152602001600020805480602002602001604051908101604052809291908181526020018280548015610cf357602002820191906000526020600020905b8160009054906101000a900473ffffffffffffffffffffffffffffffffffffffff1673ffffffffffffffffffffffffffffffffffffffff1681526020019060010190808311610ca9575b50505050509050919050565b600073ffffffffffffffffffffffffffffffffffffffff163373ffffffffffffffffffffffffffffffffffffffff1614610d6e576040517f08c379a0000000000000000000000000000000000000000000000000000000008152600401610d6590613255565b60405180910390fd5b610d79838383611a0b565b505050565b6060600b6000838152602001908152602001600020805480602002602001604051908101604052809291908181526020018280548015610e1357602002820191906000526020600020905b8160009054906101000a900473ffffffffffffffffffffffffffffffffffffffff1673ffffffffffffffffffffffffffffffffffffffff1681526020019060010190808311610dc9575b50505050509050919050565b6000806002600084815260200190815260200160002060009054906101000a900473ffffffffffffffffffffffffffffffffffffffff169050600073ffffffffffffffffffffffffffffffffffffffff168173ffffffffffffffffffffffffffffffffffffffff161415610ec8576040517f08c379a0000000000000000000000000000000000000000000000000000000008152600401610ebf906132e7565b60405180910390fd5b80915050919050565b60008073ffffffffffffffffffffffffffffffffffffffff168273ffffffffffffffffffffffffffffffffffffffff161415610f42576040517f08c379a0000000000000000000000000000000000000000000000000000000008152600401610f3990613379565b60405180910390fd5b600360008373ffffffffffffffffffffffffffffffffffffffff1673ffffffffffffffffffffffffffffffffffffffff168152602001908152602001600020549050919050565b606060018054610f9890612dd6565b80601f0160208091040260200160405190810160405280929190818152602001828054610fc490612dd6565b80156110115780601f10610fe657610100808354040283529160200191611011565b820191906000526020600020905b815481529060010190602001808311610ff457829003601f168201915b5050505050905090565b61102d61102661171c565b8383611a2b565b5050565b6060600e805480602002602001604051908101604052809291908181526020016000905b8282101561110157838290600052602060002001805461107490612dd6565b80601f01602080910402602001604051908101604052809291908181526020018280546110a090612dd6565b80156110ed5780601f106110c2576101008083540402835291602001916110ed565b820191906000526020600020905b8154815290600101906020018083116110d057829003601f168201915b505050505081526020019060010190611055565b50505050905090565b600073ffffffffffffffffffffffffffffffffffffffff163373ffffffffffffffffffffffffffffffffffffffff1614611179576040517f08c379a000000000000000000000000000000000000000000000000000000000815260040161117090613255565b60405180910390fd5b61118584848484611b98565b50505050565b6060611196826116b0565b6111d5576040517f08c379a00000000000000000000000000000000000000000000000000000000081526004016111cc9061340b565b60405180910390fd5b60006111df611bfa565b905060008151116111ff576040518060200160405280600081525061122a565b8061120984611c11565b60405160200161121a92919061342b565b6040516020818303038152906040525b915050919050565b6060600960008373ffffffffffffffffffffffffffffffffffffffff1673ffffffffffffffffffffffffffffffffffffffff1681526020019081526020016000208054806020026020016040519081016040528092919081815260200182805480156112bd57602002820191906000526020600020905b8154815260200190600101908083116112a9575b50505050509050919050565b600660009054906101000a900473ffffffffffffffffffffffffffffffffffffffff1673ffffffffffffffffffffffffffffffffffffffff1663fc3ba6b4336040518263ffffffff1660e01b81526004016113249190612627565b602060405180830381865afa158015611341573d6000803e3d6000fd5b505050506040513d601f19601f820116820180604052508101906113659190612fd3565b6113a4576040517f08c379a000000000000000000000000000000000000000000000000000000000815260040161139b906134c1565b60405180910390fd5b600e8054905081111580156113b95750600081115b6113f8576040517f08c379a00000000000000000000000000000000000000000000000000000000081526004016113ef9061352d565b60405180910390fd5b600c600082815260200190815260200160002060009054906101000a900460ff1615611459576040517f08c379a0000000000000000000000000000000000000000000000000000000008152600401611450906135bf565b60405180910390fd5b611475600a600083815260200190815260200160002033611d72565b156114b5576040517f08c379a00000000000000000000000000000000000000000000000000000000081526004016114ac90613651565b60405180910390fd5b6114d1600b600083815260200190815260200160002033611d72565b15611511576040517f08c379a0000000000000000000000000000000000000000000000000000000008152600401611508906136e3565b60405180910390fd5b600a6000828152602001908152602001600020339080600181540180825580915050600190039060005260206000200160009091909190916101000a81548173ffffffffffffffffffffffffffffffffffffffff021916908373ffffffffffffffffffffffffffffffffffffffff16021790555050565b6000600560008473ffffffffffffffffffffffffffffffffffffffff1673ffffffffffffffffffffffffffffffffffffffff16815260200190815260200160002060008373ffffffffffffffffffffffffffffffffffffffff1673ffffffffffffffffffffffffffffffffffffffff16815260200190815260200160002060009054906101000a900460ff16905092915050565b6000600c600083815260200190815260200160002060009054906101000a900460ff169050919050565b60007f01ffc9a7000000000000000000000000000000000000000000000000000000007bffffffffffffffffffffffffffffffffffffffffffffffffffffffff1916827bffffffffffffffffffffffffffffffffffffffffffffffffffffffff1916149050919050565b60008073ffffffffffffffffffffffffffffffffffffffff166002600084815260200190815260200160002060009054906101000a900473ffffffffffffffffffffffffffffffffffffffff1673ffffffffffffffffffffffffffffffffffffffff1614159050919050565b600033905090565b816004600083815260200190815260200160002060006101000a81548173ffffffffffffffffffffffffffffffffffffffff021916908373ffffffffffffffffffffffffffffffffffffffff160217905550808273ffffffffffffffffffffffffffffffffffffffff1661179783610e1f565b73ffffffffffffffffffffffffffffffffffffffff167f8c5be1e5ebec7d5bd14f71427d1e84f3dd0314c0f7b2291e5b200ac8c7c3b92560405160405180910390a45050565b600073ffffffffffffffffffffffffffffffffffffffff168273ffffffffffffffffffffffffffffffffffffffff16141561184d576040517f08c379a00000000000000000000000000000000000000000000000000000000081526004016118449061374f565b60405180910390fd5b611856816116b0565b15611896576040517f08c379a000000000000000000000000000000000000000000000000000000000815260040161188d906137bb565b60405180910390fd5b6118a260008383611e20565b6001600360008473ffffffffffffffffffffffffffffffffffffffff1673ffffffffffffffffffffffffffffffffffffffff16815260200190815260200160002060008282546118f2919061380a565b92505081905550816002600083815260200190815260200160002060006101000a81548173ffffffffffffffffffffffffffffffffffffffff021916908373ffffffffffffffffffffffffffffffffffffffff160217905550808273ffffffffffffffffffffffffffffffffffffffff16600073ffffffffffffffffffffffffffffffffffffffff167fddf252ad1be2c89b69c2b068fc378daa952ba7f163c4a11628f55a4df523b3ef60405160405180910390a45050565b6119bc6119b661171c565b82611e25565b6119fb576040517f08c379a00000000000000000000000000000000000000000000000000000000081526004016119f2906138d2565b60405180910390fd5b611a06838383611f03565b505050565b611a268383836040518060200160405280600081525061110a565b505050565b8173ffffffffffffffffffffffffffffffffffffffff168373ffffffffffffffffffffffffffffffffffffffff161415611a9a576040517f08c379a0000000000000000000000000000000000000000000000000000000008152600401611a919061393e565b60405180910390fd5b80600560008573ffffffffffffffffffffffffffffffffffffffff1673ffffffffffffffffffffffffffffffffffffffff16815260200190815260200160002060008473ffffffffffffffffffffffffffffffffffffffff1673ffffffffffffffffffffffffffffffffffffffff16815260200190815260200160002060006101000a81548160ff0219169083151502179055508173ffffffffffffffffffffffffffffffffffffffff168373ffffffffffffffffffffffffffffffffffffffff167f17307eab39ab6107e8899845ad3d59bd9653f200f220920489ca2b5937696c3183604051611b8b91906124ad565b60405180910390a3505050565b611ba9611ba361171c565b83611e25565b611be8576040517f08c379a0000000000000000000000000000000000000000000000000000000008152600401611bdf906138d2565b60405180910390fd5b611bf48484848461215f565b50505050565b606060405180602001604052806000815250905090565b60606000821415611c59576040518060400160405280600181526020017f30000000000000000000000000000000000000000000000000000000000000008152509050611d6d565b600082905060005b60008214611c8b578080611c749061395e565b915050600a82611c8491906139d6565b9150611c61565b60008167ffffffffffffffff811115611ca757611ca66127c5565b5b6040519080825280601f01601f191660200182016040528015611cd95781602001600182028036833780820191505090505b5090505b60008514611d6657600182611cf29190613a07565b9150600a85611d019190613a3b565b6030611d0d919061380a565b60f81b818381518110611d2357611d22613a6c565b5b60200101907effffffffffffffffffffffffffffffffffffffffffffffffffffffffffffff1916908160001a905350600a85611d5f91906139d6565b9450611cdd565b8093505050505b919050565b600080600090505b8380549050811015611e14578273ffffffffffffffffffffffffffffffffffffffff16848281548110611db057611daf613a6c565b5b9060005260206000200160009054906101000a900473ffffffffffffffffffffffffffffffffffffffff1673ffffffffffffffffffffffffffffffffffffffff161415611e01576001915050611e1a565b8080611e0c9061395e565b915050611d7a565b50600090505b92915050565b505050565b6000611e30826116b0565b611e6f576040517f08c379a0000000000000000000000000000000000000000000000000000000008152600401611e6690613b0d565b60405180910390fd5b6000611e7a83610e1f565b90508073ffffffffffffffffffffffffffffffffffffffff168473ffffffffffffffffffffffffffffffffffffffff161480611ee957508373ffffffffffffffffffffffffffffffffffffffff16611ed1846105de565b73ffffffffffffffffffffffffffffffffffffffff16145b80611efa5750611ef98185611588565b5b91505092915050565b8273ffffffffffffffffffffffffffffffffffffffff16611f2382610e1f565b73ffffffffffffffffffffffffffffffffffffffff1614611f79576040517f08c379a0000000000000000000000000000000000000000000000000000000008152600401611f7090613b9f565b60405180910390fd5b600073ffffffffffffffffffffffffffffffffffffffff168273ffffffffffffffffffffffffffffffffffffffff161415611fe9576040517f08c379a0000000000000000000000000000000000000000000000000000000008152600401611fe090613c31565b60405180910390fd5b611ff4838383611e20565b611fff600082611724565b6001600360008573ffffffffffffffffffffffffffffffffffffffff1673ffffffffffffffffffffffffffffffffffffffff168152602001908152602001600020600082825461204f9190613a07565b925050819055506001600360008473ffffffffffffffffffffffffffffffffffffffff1673ffffffffffffffffffffffffffffffffffffffff16815260200190815260200160002060008282546120a6919061380a565b92505081905550816002600083815260200190815260200160002060006101000a81548173ffffffffffffffffffffffffffffffffffffffff021916908373ffffffffffffffffffffffffffffffffffffffff160217905550808273ffffffffffffffffffffffffffffffffffffffff168473ffffffffffffffffffffffffffffffffffffffff167fddf252ad1be2c89b69c2b068fc378daa952ba7f163c4a11628f55a4df523b3ef60405160405180910390a4505050565b61216a848484611f03565b612176848484846121bb565b6121b5576040517f08c379a00000000000000000000000000000000000000000000000000000000081526004016121ac90613cc3565b60405180910390fd5b50505050565b60006121dc8473ffffffffffffffffffffffffffffffffffffffff16612343565b15612336578373ffffffffffffffffffffffffffffffffffffffff1663150b7a0261220561171c565b8786866040518563ffffffff1660e01b81526004016122279493929190613d38565b6020604051808303816000875af192505050801561226357506040513d601f19601f820116820180604052508101906122609190613d99565b60015b6122e6573d8060008114612293576040519150601f19603f3d011682016040523d82523d6000602084013e612298565b606091505b506000815114156122de576040517f08c379a00000000000000000000000000000000000000000000000000000000081526004016122d590613cc3565b60405180910390fd5b805181602001fd5b63150b7a0260e01b7bffffffffffffffffffffffffffffffffffffffffffffffffffffffff1916817bffffffffffffffffffffffffffffffffffffffffffffffffffffffff19161491505061233b565b600190505b949350505050565b600080823b905060008111915050919050565b82805461236290612dd6565b90600052602060002090601f01602090048101928261238457600085556123cb565b82601f1061239d57805160ff19168380011785556123cb565b828001600101855582156123cb579182015b828111156123ca5782518255916020019190600101906123af565b5b5090506123d891906123dc565b5090565b5b808211156123f55760008160009055506001016123dd565b5090565b6000604051905090565b600080fd5b600080fd5b60007fffffffff0000000000000000000000000000000000000000000000000000000082169050919050565b6124428161240d565b811461244d57600080fd5b50565b60008135905061245f81612439565b92915050565b60006020828403121561247b5761247a612403565b5b600061248984828501612450565b91505092915050565b60008115159050919050565b6124a781612492565b82525050565b60006020820190506124c2600083018461249e565b92915050565b600081519050919050565b600082825260208201905092915050565b60005b838110156125025780820151818401526020810190506124e7565b83811115612511576000848401525b50505050565b6000601f19601f8301169050919050565b6000612533826124c8565b61253d81856124d3565b935061254d8185602086016124e4565b61255681612517565b840191505092915050565b6000602082019050818103600083015261257b8184612528565b905092915050565b6000819050919050565b61259681612583565b81146125a157600080fd5b50565b6000813590506125b38161258d565b92915050565b6000602082840312156125cf576125ce612403565b5b60006125dd848285016125a4565b91505092915050565b600073ffffffffffffffffffffffffffffffffffffffff82169050919050565b6000612611826125e6565b9050919050565b61262181612606565b82525050565b600060208201905061263c6000830184612618565b92915050565b61264b81612606565b811461265657600080fd5b50565b60008135905061266881612642565b92915050565b6000806040838503121561268557612684612403565b5b600061269385828601612659565b92505060206126a4858286016125a4565b9150509250929050565b6000602082840312156126c4576126c3612403565b5b60006126d284828501612659565b91505092915050565b600081519050919050565b600082825260208201905092915050565b6000819050602082019050919050565b61271081612583565b82525050565b60006127228383612707565b60208301905092915050565b6000602082019050919050565b6000612746826126db565b61275081856126e6565b935061275b836126f7565b8060005b8381101561278c5781516127738882612716565b975061277e8361272e565b92505060018101905061275f565b5085935050505092915050565b600060208201905081810360008301526127b3818461273b565b905092915050565b600080fd5b600080fd5b7f4e487b7100000000000000000000000000000000000000000000000000000000600052604160045260246000fd5b6127fd82612517565b810181811067ffffffffffffffff8211171561281c5761281b6127c5565b5b80604052505050565b600061282f6123f9565b905061283b82826127f4565b919050565b600067ffffffffffffffff82111561285b5761285a6127c5565b5b61286482612517565b9050602081019050919050565b82818337600083830152505050565b600061289361288e84612840565b612825565b9050828152602081018484840111156128af576128ae6127c0565b5b6128ba848285612871565b509392505050565b600082601f8301126128d7576128d66127bb565b5b81356128e7848260208601612880565b91505092915050565b6000806040838503121561290757612906612403565b5b600083013567ffffffffffffffff81111561292557612924612408565b5b612931858286016128c2565b925050602061294285828601612659565b9150509250929050565b60008060006060848603121561296557612964612403565b5b600061297386828701612659565b935050602061298486828701612659565b9250506040612995868287016125a4565b9150509250925092565b600081519050919050565b600082825260208201905092915050565b6000819050602082019050919050565b6129d481612606565b82525050565b60006129e683836129cb565b60208301905092915050565b6000602082019050919050565b6000612a0a8261299f565b612a1481856129aa565b9350612a1f836129bb565b8060005b83811015612a50578151612a3788826129da565b9750612a42836129f2565b925050600181019050612a23565b5085935050505092915050565b60006020820190508181036000830152612a7781846129ff565b905092915050565b612a8881612583565b82525050565b6000602082019050612aa36000830184612a7f565b92915050565b612ab281612492565b8114612abd57600080fd5b50565b600081359050612acf81612aa9565b92915050565b60008060408385031215612aec57612aeb612403565b5b6000612afa85828601612659565b9250506020612b0b85828601612ac0565b9150509250929050565b600081519050919050565b600082825260208201905092915050565b6000819050602082019050919050565b600082825260208201905092915050565b6000612b5d826124c8565b612b678185612b41565b9350612b778185602086016124e4565b612b8081612517565b840191505092915050565b6000612b978383612b52565b905092915050565b6000602082019050919050565b6000612bb782612b15565b612bc18185612b20565b935083602082028501612bd385612b31565b8060005b85811015612c0f5784840389528151612bf08582612b8b565b9450612bfb83612b9f565b925060208a01995050600181019050612bd7565b50829750879550505050505092915050565b60006020820190508181036000830152612c3b8184612bac565b905092915050565b600067ffffffffffffffff821115612c5e57612c5d6127c5565b5b612c6782612517565b9050602081019050919050565b6000612c87612c8284612c43565b612825565b905082815260208101848484011115612ca357612ca26127c0565b5b612cae848285612871565b509392505050565b600082601f830112612ccb57612cca6127bb565b5b8135612cdb848260208601612c74565b91505092915050565b60008060008060808587031215612cfe57612cfd612403565b5b6000612d0c87828801612659565b9450506020612d1d87828801612659565b9350506040612d2e878288016125a4565b925050606085013567ffffffffffffffff811115612d4f57612d4e612408565b5b612d5b87828801612cb6565b91505092959194509250565b60008060408385031215612d7e57612d7d612403565b5b6000612d8c85828601612659565b9250506020612d9d85828601612659565b9150509250929050565b7f4e487b7100000000000000000000000000000000000000000000000000000000600052602260045260246000fd5b60006002820490506001821680612dee57607f821691505b60208210811415612e0257612e01612da7565b5b50919050565b7f4552433732313a20617070726f76656420717565727920666f72206e6f6e657860008201527f697374656e7420746f6b656e0000000000000000000000000000000000000000602082015250565b6000612e64602c836124d3565b9150612e6f82612e08565b604082019050919050565b60006020820190508181036000830152612e9381612e57565b9050919050565b7f4552433732313a20617070726f76616c20746f2063757272656e74206f776e6560008201527f7200000000000000000000000000000000000000000000000000000000000000602082015250565b6000612ef66021836124d3565b9150612f0182612e9a565b604082019050919050565b60006020820190508181036000830152612f2581612ee9565b9050919050565b7f4552433732313a20617070726f76652063616c6c6572206973206e6f74206f7760008201527f6e6572206e6f7220617070726f76656420666f7220616c6c0000000000000000602082015250565b6000612f886038836124d3565b9150612f9382612f2c565b604082019050919050565b60006020820190508181036000830152612fb781612f7b565b9050919050565b600081519050612fcd81612aa9565b92915050565b600060208284031215612fe957612fe8612403565b5b6000612ff784828501612fbe565b91505092915050565b7f54686973206163636f756e7420646f6573206e6f74206861766520746865205260008201527f6563746f72205065726d697373696f6e73000000000000000000000000000000602082015250565b600061305c6031836124d3565b915061306782613000565b604082019050919050565b6000602082019050818103600083015261308b8161304f565b9050919050565b7f546869732061646472657373206973206e6f7420616e20696e7374727563746f60008201527f7200000000000000000000000000000000000000000000000000000000000000602082015250565b60006130ee6021836124d3565b91506130f982613092565b604082019050919050565b6000602082019050818103600083015261311d816130e1565b9050919050565b600081905092915050565b600061313a826124c8565b6131448185613124565b93506131548185602086016124e4565b80840191505092915050565b600061316c828461312f565b915081905092915050565b7f54686973206c696e6b20697320616c7265616479206d696e7465640000000000600082015250565b60006131ad601b836124d3565b91506131b882613177565b602082019050919050565b600060208201905081810360008301526131dc816131a0565b9050919050565b7f5472616e73666572206166746572206d696e742069732070726f68696269746560008201527f6400000000000000000000000000000000000000000000000000000000000000602082015250565b600061323f6021836124d3565b915061324a826131e3565b604082019050919050565b6000602082019050818103600083015261326e81613232565b9050919050565b7f4552433732313a206f776e657220717565727920666f72206e6f6e657869737460008201527f656e7420746f6b656e0000000000000000000000000000000000000000000000602082015250565b60006132d16029836124d3565b91506132dc82613275565b604082019050919050565b60006020820190508181036000830152613300816132c4565b9050919050565b7f4552433732313a2062616c616e636520717565727920666f7220746865207a6560008201527f726f206164647265737300000000000000000000000000000000000000000000602082015250565b6000613363602a836124d3565b915061336e82613307565b604082019050919050565b6000602082019050818103600083015261339281613356565b9050919050565b7f4552433732314d657461646174613a2055524920717565727920666f72206e6f60008201527f6e6578697374656e7420746f6b656e0000000000000000000000000000000000602082015250565b60006133f5602f836124d3565b915061340082613399565b604082019050919050565b60006020820190508181036000830152613424816133e8565b9050919050565b6000613437828561312f565b9150613443828461312f565b91508190509392505050565b7f54686973206163636f756e7420646f6573206e6f74206861766520746865205360008201527f747564656e74205065726d697373696f6e730000000000000000000000000000602082015250565b60006134ab6032836124d3565b91506134b68261344f565b604082019050919050565b600060208201905081810360008301526134da8161349e565b9050919050565b7f5468697320636f7572736520646f6573206e6f74206578697374000000000000600082015250565b6000613517601a836124d3565b9150613522826134e1565b602082019050919050565b600060208201905081810360008301526135468161350a565b9050919050565b7f5468697320636f7572736520697320636c6f7365642062792074686520496e7360008201527f74727563746f7200000000000000000000000000000000000000000000000000602082015250565b60006135a96027836124d3565b91506135b48261354d565b604082019050919050565b600060208201905081810360008301526135d88161359c565b9050919050565b7f546869732073747564656e7420616c7265616479206170706c69656420666f7260008201527f207468697320636f757273650000000000000000000000000000000000000000602082015250565b600061363b602c836124d3565b9150613646826135df565b604082019050919050565b6000602082019050818103600083015261366a8161362e565b9050919050565b7f546869732073747564656e7420616c726561647920617070726f76656420666f60008201527f72207468697320636f7572736500000000000000000000000000000000000000602082015250565b60006136cd602d836124d3565b91506136d882613671565b604082019050919050565b600060208201905081810360008301526136fc816136c0565b9050919050565b7f4552433732313a206d696e7420746f20746865207a65726f2061646472657373600082015250565b60006137396020836124d3565b915061374482613703565b602082019050919050565b600060208201905081810360008301526137688161372c565b9050919050565b7f4552433732313a20746f6b656e20616c7265616479206d696e74656400000000600082015250565b60006137a5601c836124d3565b91506137b08261376f565b602082019050919050565b600060208201905081810360008301526137d481613798565b9050919050565b7f4e487b7100000000000000000000000000000000000000000000000000000000600052601160045260246000fd5b600061381582612583565b915061382083612583565b9250827fffffffffffffffffffffffffffffffffffffffffffffffffffffffffffffffff03821115613855576138546137db565b5b828201905092915050565b7f4552433732313a207472616e736665722063616c6c6572206973206e6f74206f60008201527f776e6572206e6f7220617070726f766564000000000000000000000000000000602082015250565b60006138bc6031836124d3565b91506138c782613860565b604082019050919050565b600060208201905081810360008301526138eb816138af565b9050919050565b7f4552433732313a20617070726f766520746f2063616c6c657200000000000000600082015250565b60006139286019836124d3565b9150613933826138f2565b602082019050919050565b600060208201905081810360008301526139578161391b565b9050919050565b600061396982612583565b91507fffffffffffffffffffffffffffffffffffffffffffffffffffffffffffffffff82141561399c5761399b6137db565b5b600182019050919050565b7f4e487b7100000000000000000000000000000000000000000000000000000000600052601260045260246000fd5b60006139e182612583565b91506139ec83612583565b9250826139fc576139fb6139a7565b5b828204905092915050565b6000613a1282612583565b9150613a1d83612583565b925082821015613a3057613a2f6137db565b5b828203905092915050565b6000613a4682612583565b9150613a5183612583565b925082613a6157613a606139a7565b5b828206905092915050565b7f4e487b7100000000000000000000000000000000000000000000000000000000600052603260045260246000fd5b7f4552433732313a206f70657261746f7220717565727920666f72206e6f6e657860008201527f697374656e7420746f6b656e0000000000000000000000000000000000000000602082015250565b6000613af7602c836124d3565b9150613b0282613a9b565b604082019050919050565b60006020820190508181036000830152613b2681613aea565b9050919050565b7f4552433732313a207472616e73666572206f6620746f6b656e2074686174206960008201527f73206e6f74206f776e0000000000000000000000000000000000000000000000602082015250565b6000613b896029836124d3565b9150613b9482613b2d565b604082019050919050565b60006020820190508181036000830152613bb881613b7c565b9050919050565b7f4552433732313a207472616e7366657220746f20746865207a65726f2061646460008201527f7265737300000000000000000000000000000000000000000000000000000000602082015250565b6000613c1b6024836124d3565b9150613c2682613bbf565b604082019050919050565b60006020820190508181036000830152613c4a81613c0e565b9050919050565b7f4552433732313a207472616e7366657220746f206e6f6e20455243373231526560008201527f63656976657220696d706c656d656e7465720000000000000000000000000000602082015250565b6000613cad6032836124d3565b9150613cb882613c51565b604082019050919050565b60006020820190508181036000830152613cdc81613ca0565b9050919050565b600081519050919050565b600082825260208201905092915050565b6000613d0a82613ce3565b613d148185613cee565b9350613d248185602086016124e4565b613d2d81612517565b840191505092915050565b6000608082019050613d4d6000830187612618565b613d5a6020830186612618565b613d676040830185612a7f565b8181036060830152613d798184613cff565b905095945050505050565b600081519050613d9381612439565b92915050565b600060208284031215613daf57613dae612403565b5b6000613dbd84828501613d84565b9150509291505056fea2646970667358221220164ee26c7dd3d1775e0330fec729636c9d68abba9344fc898587607b4c9e9c0764736f6c634300080a0033",
  "immutableReferences": {},
  "source": "pragma solidity ^0.8.10;\r\n\r\nimport \"@openzeppelin/contracts/token/ERC721/ERC721.sol\";\r\nimport \"./Roles.sol\";\r\nimport \"./Request.sol\";\r\n\r\ncontract Course is ERC721{\r\n\r\n    address rolesContractAddress;\r\n    address requestContractAddress;\r\n\r\n    //Mapping of the instructor to the tokenIDs\r\n    mapping(address => uint256[]) _givesCourses;\r\n    //Mapping of the tokenID to the owner is defined in ERC721.sol\r\n\r\n    //TODO///////////////////////////////////////////\r\n    //Mapping of the student to the tokenIDs\r\n    mapping(address => uint256[]) _takesCourses;\r\n    //Mapping of the tokenID to the request of students\r\n    mapping(uint256 => address[]) _requestOfStudents;\r\n    //Mapping of the tokenID to the approved students\r\n    mapping(uint256 => address[]) _approvedStudents;\r\n    //Mapping of the tokenID to frozen or not\r\n    mapping(uint256 => bool) _frozen;\r\n    //TODO///////////////////////////////////////////\r\n\r\n    //is Course link exist\r\n    mapping(string => bool) _courseExist;\r\n    //List of Course Links\r\n    string[] _courseLinks;\r\n\r\n    constructor(address _rolesContractAddress, address _requestContractAddress) ERC721(\"Course\", \"CRS\"){\r\n        rolesContractAddress =_rolesContractAddress;\r\n        requestContractAddress = _requestContractAddress;\r\n    }\r\n    function mint(string memory _courseLink, address _instructorAddress) public{\r\n        require(Roles(rolesContractAddress).hasRectorRole(msg.sender), \"This account does not have the Rector Permissions\");\r\n        require(Roles(rolesContractAddress).hasInstructorRole(_instructorAddress), \"This address is not an instructor\");\r\n        require(!_courseExist[_courseLink], \"This link is already minted\");\r\n        //_courseLinks - add\r\n        _courseLinks.push(_courseLink);\r\n        uint _id = _courseLinks.length;\r\n        //tokenID's start from 1 because default uint256 value is 0\r\n        //Call mint of ERC721\r\n        _mint(_instructorAddress, _id);\r\n        //Trace it\r\n        _courseExist[_courseLink] = true;\r\n        _givesCourses[_instructorAddress].push(_id);\r\n        _frozen[_id] = false;\r\n\r\n        //Make request minted\r\n        Request(requestContractAddress).courseMinted(_courseLink);\r\n    }\r\n    function applyCourse(uint256 _id) public{\r\n        //Requirements\r\n        require(Roles(rolesContractAddress).hasStudentRole(msg.sender), \"This account does not have the Student Permissions\");\r\n        require(_id<=_courseLinks.length && _id>0, \"This course does not exist\");\r\n        require(!_frozen[_id],\"This course is closed by the Instructor\");\r\n        require(!isExist(_requestOfStudents[_id], msg.sender), \"This student already applied for this course\");\r\n        require(!isExist(_approvedStudents[_id], msg.sender), \"This student already approved for this course\");\r\n\r\n        //Push it\r\n        _requestOfStudents[_id].push(msg.sender);\r\n    }\r\n    function getCourseLinks() public view returns(string[] memory courseLinks){\r\n        return _courseLinks;\r\n    }\r\n    function getGivesCourses(address instructorAddress) public view returns (uint[] memory givesCourses){\r\n        return _givesCourses[instructorAddress];\r\n    }\r\n    function getTakesCourses(address studentAddress)public view returns(uint256[] memory){\r\n        return _takesCourses[studentAddress];\r\n    }\r\n    function getRequestOfStudents(uint _id)public view returns(address[] memory){\r\n        return _requestOfStudents[_id];\r\n    }\r\n    function getApprovedStudents(uint _id)public view returns(address[] memory){\r\n        return _approvedStudents[_id];\r\n    }\r\n    function getFrozen(uint256 _id) public view returns(bool){\r\n        return _frozen[_id];\r\n    }\r\n\r\n    function isExist(address[] storage list, address element) private view returns(bool){\r\n        for(uint256 i = 0; i<list.length; i++){\r\n            if(list[i] == element){\r\n                return true;\r\n            }\r\n        }\r\n        return false;\r\n    }\r\n    //TODO Contract Owner can make mistakes when minting. Token should be somewhat editable for contract owner\r\n    function transferFrom(//Only callable when minted\r\n        address from,\r\n        address to,\r\n        uint256 tokenId\r\n    ) public virtual override {\r\n        require(msg.sender == 0x0000000000000000000000000000000000000000, \"Transfer after mint is prohibited\");\r\n        super.transferFrom(from,to,tokenId);\r\n    }\r\n    function safeTransferFrom(//Only callable when minted\r\n        address from,\r\n        address to,\r\n        uint256 tokenId\r\n    ) public virtual override {\r\n        require(msg.sender == 0x0000000000000000000000000000000000000000, \"Transfer after mint is prohibited\");\r\n        super.safeTransferFrom(from,to,tokenId);\r\n    }\r\n    function safeTransferFrom(//Only callable when minted\r\n        address from,\r\n        address to,\r\n        uint256 tokenId,\r\n        bytes memory _data\r\n    ) public virtual override {\r\n        require(msg.sender == 0x0000000000000000000000000000000000000000, \"Transfer after mint is prohibited\");\r\n        super.safeTransferFrom(from, to, tokenId, _data);\r\n    }\r\n}\r\n",
  "sourcePath": "C:\\Users\\asus\\Desktop\\Dersler\\CMPE492\\certification-project\\contracts\\Course.sol",
  "compiler": {
    "name": "solc",
    "version": "0.8.10+commit.fc410830.Emscripten.clang"
  },
  "schemaVersion": "3.4.4",
  "updatedAt": "2022-01-20T11:31:46.440Z",
  "devdoc": {
    "kind": "dev",
    "methods": {
      "approve(address,uint256)": {
        "details": "See {IERC721-approve}."
      },
      "balanceOf(address)": {
        "details": "See {IERC721-balanceOf}."
      },
      "getApproved(uint256)": {
        "details": "See {IERC721-getApproved}."
      },
      "isApprovedForAll(address,address)": {
        "details": "See {IERC721-isApprovedForAll}."
      },
      "name()": {
        "details": "See {IERC721Metadata-name}."
      },
      "ownerOf(uint256)": {
        "details": "See {IERC721-ownerOf}."
      },
      "safeTransferFrom(address,address,uint256)": {
        "details": "See {IERC721-safeTransferFrom}."
      },
      "safeTransferFrom(address,address,uint256,bytes)": {
        "details": "See {IERC721-safeTransferFrom}."
      },
      "setApprovalForAll(address,bool)": {
        "details": "See {IERC721-setApprovalForAll}."
      },
      "supportsInterface(bytes4)": {
        "details": "See {IERC165-supportsInterface}."
      },
      "symbol()": {
        "details": "See {IERC721Metadata-symbol}."
      },
      "tokenURI(uint256)": {
        "details": "See {IERC721Metadata-tokenURI}."
      },
      "transferFrom(address,address,uint256)": {
        "details": "See {IERC721-transferFrom}."
      }
    },
    "version": 1
  },
  "userdoc": {
    "kind": "user",
    "methods": {},
    "version": 1
  }
}