{
  "contractName": "Course",
  "abi": [
    {
      "inputs": [
        {
          "internalType": "address",
          "name": "_rolesContractAddress",
          "type": "address"
        },
        {
          "internalType": "address",
          "name": "_requestContractAddress",
          "type": "address"
        }
      ],
      "stateMutability": "nonpayable",
      "type": "constructor"
    },
    {
      "anonymous": false,
      "inputs": [
        {
          "indexed": true,
          "internalType": "address",
          "name": "owner",
          "type": "address"
        },
        {
          "indexed": true,
          "internalType": "address",
          "name": "approved",
          "type": "address"
        },
        {
          "indexed": true,
          "internalType": "uint256",
          "name": "tokenId",
          "type": "uint256"
        }
      ],
      "name": "Approval",
      "type": "event"
    },
    {
      "anonymous": false,
      "inputs": [
        {
          "indexed": true,
          "internalType": "address",
          "name": "owner",
          "type": "address"
        },
        {
          "indexed": true,
          "internalType": "address",
          "name": "operator",
          "type": "address"
        },
        {
          "indexed": false,
          "internalType": "bool",
          "name": "approved",
          "type": "bool"
        }
      ],
      "name": "ApprovalForAll",
      "type": "event"
    },
    {
      "anonymous": false,
      "inputs": [
        {
          "indexed": true,
          "internalType": "address",
          "name": "from",
          "type": "address"
        },
        {
          "indexed": true,
          "internalType": "address",
          "name": "to",
          "type": "address"
        },
        {
          "indexed": true,
          "internalType": "uint256",
          "name": "tokenId",
          "type": "uint256"
        }
      ],
      "name": "Transfer",
      "type": "event"
    },
    {
      "inputs": [
        {
          "internalType": "address",
          "name": "to",
          "type": "address"
        },
        {
          "internalType": "uint256",
          "name": "tokenId",
          "type": "uint256"
        }
      ],
      "name": "approve",
      "outputs": [],
      "stateMutability": "nonpayable",
      "type": "function"
    },
    {
      "inputs": [
        {
          "internalType": "address",
          "name": "owner",
          "type": "address"
        }
      ],
      "name": "balanceOf",
      "outputs": [
        {
          "internalType": "uint256",
          "name": "",
          "type": "uint256"
        }
      ],
      "stateMutability": "view",
      "type": "function"
    },
    {
      "inputs": [
        {
          "internalType": "uint256",
          "name": "tokenId",
          "type": "uint256"
        }
      ],
      "name": "getApproved",
      "outputs": [
        {
          "internalType": "address",
          "name": "",
          "type": "address"
        }
      ],
      "stateMutability": "view",
      "type": "function"
    },
    {
      "inputs": [
        {
          "internalType": "address",
          "name": "owner",
          "type": "address"
        },
        {
          "internalType": "address",
          "name": "operator",
          "type": "address"
        }
      ],
      "name": "isApprovedForAll",
      "outputs": [
        {
          "internalType": "bool",
          "name": "",
          "type": "bool"
        }
      ],
      "stateMutability": "view",
      "type": "function"
    },
    {
      "inputs": [],
      "name": "name",
      "outputs": [
        {
          "internalType": "string",
          "name": "",
          "type": "string"
        }
      ],
      "stateMutability": "view",
      "type": "function"
    },
    {
      "inputs": [
        {
          "internalType": "uint256",
          "name": "tokenId",
          "type": "uint256"
        }
      ],
      "name": "ownerOf",
      "outputs": [
        {
          "internalType": "address",
          "name": "",
          "type": "address"
        }
      ],
      "stateMutability": "view",
      "type": "function"
    },
    {
      "inputs": [
        {
          "internalType": "address",
          "name": "operator",
          "type": "address"
        },
        {
          "internalType": "bool",
          "name": "approved",
          "type": "bool"
        }
      ],
      "name": "setApprovalForAll",
      "outputs": [],
      "stateMutability": "nonpayable",
      "type": "function"
    },
    {
      "inputs": [
        {
          "internalType": "bytes4",
          "name": "interfaceId",
          "type": "bytes4"
        }
      ],
      "name": "supportsInterface",
      "outputs": [
        {
          "internalType": "bool",
          "name": "",
          "type": "bool"
        }
      ],
      "stateMutability": "view",
      "type": "function"
    },
    {
      "inputs": [],
      "name": "symbol",
      "outputs": [
        {
          "internalType": "string",
          "name": "",
          "type": "string"
        }
      ],
      "stateMutability": "view",
      "type": "function"
    },
    {
      "inputs": [
        {
          "internalType": "uint256",
          "name": "tokenId",
          "type": "uint256"
        }
      ],
      "name": "tokenURI",
      "outputs": [
        {
          "internalType": "string",
          "name": "",
          "type": "string"
        }
      ],
      "stateMutability": "view",
      "type": "function"
    },
    {
      "inputs": [
        {
          "internalType": "string",
          "name": "_courseLink",
          "type": "string"
        },
        {
          "internalType": "address",
          "name": "_instructorAddress",
          "type": "address"
        }
      ],
      "name": "mint",
      "outputs": [],
      "stateMutability": "nonpayable",
      "type": "function"
    },
    {
      "inputs": [
        {
          "internalType": "uint256",
          "name": "_id",
          "type": "uint256"
        }
      ],
      "name": "applyCourse",
      "outputs": [],
      "stateMutability": "nonpayable",
      "type": "function"
    },
    {
      "inputs": [
        {
          "internalType": "uint256",
          "name": "_id",
          "type": "uint256"
        },
        {
          "internalType": "address",
          "name": "studentAddress",
          "type": "address"
        },
        {
          "internalType": "bool",
          "name": "isApprove",
          "type": "bool"
        }
      ],
      "name": "approveDisapproveApplication",
      "outputs": [],
      "stateMutability": "nonpayable",
      "type": "function"
    },
    {
      "inputs": [
        {
          "internalType": "uint256",
          "name": "_id",
          "type": "uint256"
        },
        {
          "internalType": "address",
          "name": "studentAddress",
          "type": "address"
        }
      ],
      "name": "dropStudent",
      "outputs": [],
      "stateMutability": "nonpayable",
      "type": "function"
    },
    {
      "inputs": [
        {
          "internalType": "uint256",
          "name": "_id",
          "type": "uint256"
        },
        {
          "internalType": "string",
          "name": "newLink",
          "type": "string"
        }
      ],
      "name": "editCourseLink",
      "outputs": [],
      "stateMutability": "nonpayable",
      "type": "function"
    },
    {
      "inputs": [
        {
          "internalType": "uint256",
          "name": "_id",
          "type": "uint256"
        }
      ],
      "name": "freeze",
      "outputs": [],
      "stateMutability": "nonpayable",
      "type": "function"
    },
    {
      "inputs": [],
      "name": "getCourseLinks",
      "outputs": [
        {
          "internalType": "string[]",
          "name": "courseLinks",
          "type": "string[]"
        }
      ],
      "stateMutability": "view",
      "type": "function"
    },
    {
      "inputs": [
        {
          "internalType": "address",
          "name": "instructorAddress",
          "type": "address"
        }
      ],
      "name": "getGivesCourses",
      "outputs": [
        {
          "internalType": "uint256[]",
          "name": "givesCourses",
          "type": "uint256[]"
        }
      ],
      "stateMutability": "view",
      "type": "function"
    },
    {
      "inputs": [
        {
          "internalType": "address",
          "name": "studentAddress",
          "type": "address"
        }
      ],
      "name": "getTakesCourses",
      "outputs": [
        {
          "internalType": "uint256[]",
          "name": "",
          "type": "uint256[]"
        }
      ],
      "stateMutability": "view",
      "type": "function"
    },
    {
      "inputs": [
        {
          "internalType": "uint256",
          "name": "_id",
          "type": "uint256"
        }
      ],
      "name": "getRequestOfStudents",
      "outputs": [
        {
          "internalType": "address[]",
          "name": "",
          "type": "address[]"
        }
      ],
      "stateMutability": "view",
      "type": "function"
    },
    {
      "inputs": [
        {
          "internalType": "uint256",
          "name": "_id",
          "type": "uint256"
        }
      ],
      "name": "getApprovedStudents",
      "outputs": [
        {
          "internalType": "address[]",
          "name": "",
          "type": "address[]"
        }
      ],
      "stateMutability": "view",
      "type": "function"
    },
    {
      "inputs": [
        {
          "internalType": "uint256",
          "name": "_id",
          "type": "uint256"
        }
      ],
      "name": "getFrozen",
      "outputs": [
        {
          "internalType": "bool",
          "name": "",
          "type": "bool"
        }
      ],
      "stateMutability": "view",
      "type": "function"
    },
    {
      "inputs": [
        {
          "internalType": "address",
          "name": "from",
          "type": "address"
        },
        {
          "internalType": "address",
          "name": "to",
          "type": "address"
        },
        {
          "internalType": "uint256",
          "name": "tokenId",
          "type": "uint256"
        }
      ],
      "name": "transferFrom",
      "outputs": [],
      "stateMutability": "nonpayable",
      "type": "function"
    },
    {
      "inputs": [
        {
          "internalType": "address",
          "name": "from",
          "type": "address"
        },
        {
          "internalType": "address",
          "name": "to",
          "type": "address"
        },
        {
          "internalType": "uint256",
          "name": "tokenId",
          "type": "uint256"
        }
      ],
      "name": "safeTransferFrom",
      "outputs": [],
      "stateMutability": "nonpayable",
      "type": "function"
    },
    {
      "inputs": [
        {
          "internalType": "address",
          "name": "from",
          "type": "address"
        },
        {
          "internalType": "address",
          "name": "to",
          "type": "address"
        },
        {
          "internalType": "uint256",
          "name": "tokenId",
          "type": "uint256"
        },
        {
          "internalType": "bytes",
          "name": "_data",
          "type": "bytes"
        }
      ],
      "name": "safeTransferFrom",
      "outputs": [],
      "stateMutability": "nonpayable",
      "type": "function"
    }
  ],
  "bytecode": "0x60806040523480156200001157600080fd5b50604051620057ce380380620057ce83398181016040528101906200003791906200027b565b6040518060400160405280600681526020017f436f7572736500000000000000000000000000000000000000000000000000008152506040518060400160405280600381526020017f43525300000000000000000000000000000000000000000000000000000000008152508160009080519060200190620000bb92919062000161565b508060019080519060200190620000d492919062000161565b50505081600660006101000a81548173ffffffffffffffffffffffffffffffffffffffff021916908373ffffffffffffffffffffffffffffffffffffffff16021790555080600760006101000a81548173ffffffffffffffffffffffffffffffffffffffff021916908373ffffffffffffffffffffffffffffffffffffffff160217905550505062000327565b8280546200016f90620002f1565b90600052602060002090601f016020900481019282620001935760008555620001df565b82601f10620001ae57805160ff1916838001178555620001df565b82800160010185558215620001df579182015b82811115620001de578251825591602001919060010190620001c1565b5b509050620001ee9190620001f2565b5090565b5b808211156200020d576000816000905550600101620001f3565b5090565b600080fd5b600073ffffffffffffffffffffffffffffffffffffffff82169050919050565b6000620002438262000216565b9050919050565b620002558162000236565b81146200026157600080fd5b50565b60008151905062000275816200024a565b92915050565b6000806040838503121562000295576200029462000211565b5b6000620002a58582860162000264565b9250506020620002b88582860162000264565b9150509250929050565b7f4e487b7100000000000000000000000000000000000000000000000000000000600052602260045260246000fd5b600060028204905060018216806200030a57607f821691505b60208210811415620003215762000320620002c2565b5b50919050565b61549780620003376000396000f3fe608060405234801561001057600080fd5b50600436106101735760003560e01c80636352211e116100de578063c87b56dd11610097578063e5c5830311610071578063e5c583031461047e578063e721e4651461049a578063e985e9c5146104b6578063fc3fef4d146104e657610173565b8063c87b56dd14610402578063d7a78db814610432578063e50cd2991461044e57610173565b80636352211e1461032e57806370a082311461035e57806395d89b411461038e578063a22cb465146103ac578063a6faa962146103c8578063b88d4fde146103e657610173565b80631c351a9d116101305780631c351a9d1461025e57806323b872dd1461027a5780632971b8811461029657806342842e0e146102c657806344424dbe146102e25780635ce8d795146102fe57610173565b806301ffc9a71461017857806306fdde03146101a8578063081812fc146101c6578063095ea7b3146101f65780630baf40e3146102125780631908721e14610242575b600080fd5b610192600480360381019061018d9190613638565b610516565b60405161019f9190613680565b60405180910390f35b6101b06105f8565b6040516101bd9190613734565b60405180910390f35b6101e060048036038101906101db919061378c565b61068a565b6040516101ed91906137fa565b60405180910390f35b610210600480360381019061020b9190613841565b61070f565b005b61022c60048036038101906102279190613881565b610827565b604051610239919061396c565b60405180910390f35b61025c6004803603810190610257919061398e565b6108be565b005b61027860048036038101906102739190613b03565b610ce9565b005b610294600480360381019061028f9190613b5f565b6110b6565b005b6102b060048036038101906102ab919061378c565b611135565b6040516102bd9190613c70565b60405180910390f35b6102e060048036038101906102db9190613b5f565b6111d6565b005b6102fc60048036038101906102f79190613cbe565b611255565b005b6103186004803603810190610313919061378c565b6116ef565b6040516103259190613c70565b60405180910390f35b6103486004803603810190610343919061378c565b611790565b60405161035591906137fa565b60405180910390f35b61037860048036038101906103739190613881565b611842565b6040516103859190613d20565b60405180910390f35b6103966118fa565b6040516103a39190613734565b60405180910390f35b6103c660048036038101906103c19190613d3b565b61198c565b005b6103d06119a2565b6040516103dd9190613e87565b60405180910390f35b61040060048036038101906103fb9190613f4a565b611a7b565b005b61041c6004803603810190610417919061378c565b611afc565b6040516104299190613734565b60405180910390f35b61044c6004803603810190610447919061378c565b611ba3565b005b61046860048036038101906104639190613881565b611e03565b604051610475919061396c565b60405180910390f35b6104986004803603810190610493919061402d565b611e9a565b005b6104b460048036038101906104af919061378c565b6120df565b005b6104d060048036038101906104cb919061408d565b61239e565b6040516104dd9190613680565b60405180910390f35b61050060048036038101906104fb919061378c565b612432565b60405161050d9190613680565b60405180910390f35b60007f80ac58cd000000000000000000000000000000000000000000000000000000007bffffffffffffffffffffffffffffffffffffffffffffffffffffffff1916827bffffffffffffffffffffffffffffffffffffffffffffffffffffffff191614806105e157507f5b5e139f000000000000000000000000000000000000000000000000000000007bffffffffffffffffffffffffffffffffffffffffffffffffffffffff1916827bffffffffffffffffffffffffffffffffffffffffffffffffffffffff1916145b806105f157506105f08261245c565b5b9050919050565b606060008054610607906140fc565b80601f0160208091040260200160405190810160405280929190818152602001828054610633906140fc565b80156106805780601f1061065557610100808354040283529160200191610680565b820191906000526020600020905b81548152906001019060200180831161066357829003601f168201915b5050505050905090565b6000610695826124c6565b6106d4576040517f08c379a00000000000000000000000000000000000000000000000000000000081526004016106cb906141a0565b60405180910390fd5b6004600083815260200190815260200160002060009054906101000a900473ffffffffffffffffffffffffffffffffffffffff169050919050565b600061071a82611790565b90508073ffffffffffffffffffffffffffffffffffffffff168373ffffffffffffffffffffffffffffffffffffffff16141561078b576040517f08c379a000000000000000000000000000000000000000000000000000000000815260040161078290614232565b60405180910390fd5b8073ffffffffffffffffffffffffffffffffffffffff166107aa612532565b73ffffffffffffffffffffffffffffffffffffffff1614806107d957506107d8816107d3612532565b61239e565b5b610818576040517f08c379a000000000000000000000000000000000000000000000000000000000815260040161080f906142c4565b60405180910390fd5b610822838361253a565b505050565b6060600860008373ffffffffffffffffffffffffffffffffffffffff1673ffffffffffffffffffffffffffffffffffffffff1681526020019081526020016000208054806020026020016040519081016040528092919081815260200182805480156108b257602002820191906000526020600020905b81548152602001906001019080831161089e575b50505050509050919050565b600660009054906101000a900473ffffffffffffffffffffffffffffffffffffffff1673ffffffffffffffffffffffffffffffffffffffff16639822a599336040518263ffffffff1660e01b815260040161091991906137fa565b602060405180830381865afa158015610936573d6000803e3d6000fd5b505050506040513d601f19601f8201168201806040525081019061095a91906142f9565b610999576040517f08c379a000000000000000000000000000000000000000000000000000000000815260040161099090614398565b60405180910390fd5b3373ffffffffffffffffffffffffffffffffffffffff166109b983611790565b73ffffffffffffffffffffffffffffffffffffffff1614610a0f576040517f08c379a0000000000000000000000000000000000000000000000000000000008152600401610a069061442a565b60405180910390fd5b600660009054906101000a900473ffffffffffffffffffffffffffffffffffffffff1673ffffffffffffffffffffffffffffffffffffffff1663fc3ba6b4826040518263ffffffff1660e01b8152600401610a6a91906137fa565b602060405180830381865afa158015610a87573d6000803e3d6000fd5b505050506040513d601f19601f82011682018060405250810190610aab91906142f9565b610aea576040517f08c379a0000000000000000000000000000000000000000000000000000000008152600401610ae190614496565b60405180910390fd5b600e805490508211158015610aff5750600082115b610b3e576040517f08c379a0000000000000000000000000000000000000000000000000000000008152600401610b3590614502565b60405180910390fd5b600c600083815260200190815260200160002060009054906101000a900460ff1615610b9f576040517f08c379a0000000000000000000000000000000000000000000000000000000008152600401610b9690614594565b60405180910390fd5b610bbb600b6000848152602001908152602001600020826125f3565b610bfa576040517f08c379a0000000000000000000000000000000000000000000000000000000008152600401610bf190614626565b60405180910390fd5b610c42600a60008373ffffffffffffffffffffffffffffffffffffffff1673ffffffffffffffffffffffffffffffffffffffff168152602001908152602001600020836126a1565b610c81576040517f08c379a0000000000000000000000000000000000000000000000000000000008152600401610c78906146b8565b60405180910390fd5b610c9d81600b6000858152602001908152602001600020612703565b610ce582600a60008473ffffffffffffffffffffffffffffffffffffffff1673ffffffffffffffffffffffffffffffffffffffff16815260200190815260200160002061288b565b5050565b600660009054906101000a900473ffffffffffffffffffffffffffffffffffffffff1673ffffffffffffffffffffffffffffffffffffffff16632be7dc44336040518263ffffffff1660e01b8152600401610d4491906137fa565b602060405180830381865afa158015610d61573d6000803e3d6000fd5b505050506040513d601f19601f82011682018060405250810190610d8591906142f9565b610dc4576040517f08c379a0000000000000000000000000000000000000000000000000000000008152600401610dbb9061474a565b60405180910390fd5b600660009054906101000a900473ffffffffffffffffffffffffffffffffffffffff1673ffffffffffffffffffffffffffffffffffffffff16639822a599826040518263ffffffff1660e01b8152600401610e1f91906137fa565b602060405180830381865afa158015610e3c573d6000803e3d6000fd5b505050506040513d601f19601f82011682018060405250810190610e6091906142f9565b610e9f576040517f08c379a0000000000000000000000000000000000000000000000000000000008152600401610e96906147dc565b60405180910390fd5b600d82604051610eaf9190614838565b908152602001604051809103902060009054906101000a900460ff1615610f0b576040517f08c379a0000000000000000000000000000000000000000000000000000000008152600401610f029061489b565b60405180910390fd5b600e82908060018154018082558091505060019003906000526020600020016000909190919091509080519060200190610f46929190613419565b506000600e805490509050610f5b828261294e565b6001600d84604051610f6d9190614838565b908152602001604051809103902060006101000a81548160ff021916908315150217905550600860008373ffffffffffffffffffffffffffffffffffffffff1673ffffffffffffffffffffffffffffffffffffffff1681526020019081526020016000208190806001815401808255809150506001900390600052602060002001600090919091909150556000600c600083815260200190815260200160002060006101000a81548160ff021916908315150217905550600760009054906101000a900473ffffffffffffffffffffffffffffffffffffffff1673ffffffffffffffffffffffffffffffffffffffff1663ef51ea6c846040518263ffffffff1660e01b815260040161107f9190613734565b600060405180830381600087803b15801561109957600080fd5b505af11580156110ad573d6000803e3d6000fd5b50505050505050565b600073ffffffffffffffffffffffffffffffffffffffff163373ffffffffffffffffffffffffffffffffffffffff1614611125576040517f08c379a000000000000000000000000000000000000000000000000000000000815260040161111c9061492d565b60405180910390fd5b611130838383612b1c565b505050565b6060600960008381526020019081526020016000208054806020026020016040519081016040528092919081815260200182805480156111ca57602002820191906000526020600020905b8160009054906101000a900473ffffffffffffffffffffffffffffffffffffffff1673ffffffffffffffffffffffffffffffffffffffff1681526020019060010190808311611180575b50505050509050919050565b600073ffffffffffffffffffffffffffffffffffffffff163373ffffffffffffffffffffffffffffffffffffffff1614611245576040517f08c379a000000000000000000000000000000000000000000000000000000000815260040161123c9061492d565b60405180910390fd5b611250838383612b7c565b505050565b600660009054906101000a900473ffffffffffffffffffffffffffffffffffffffff1673ffffffffffffffffffffffffffffffffffffffff16639822a599336040518263ffffffff1660e01b81526004016112b091906137fa565b602060405180830381865afa1580156112cd573d6000803e3d6000fd5b505050506040513d601f19601f820116820180604052508101906112f191906142f9565b611330576040517f08c379a000000000000000000000000000000000000000000000000000000000815260040161132790614398565b60405180910390fd5b3373ffffffffffffffffffffffffffffffffffffffff1661135084611790565b73ffffffffffffffffffffffffffffffffffffffff16146113a6576040517f08c379a000000000000000000000000000000000000000000000000000000000815260040161139d9061442a565b60405180910390fd5b600660009054906101000a900473ffffffffffffffffffffffffffffffffffffffff1673ffffffffffffffffffffffffffffffffffffffff1663fc3ba6b4836040518263ffffffff1660e01b815260040161140191906137fa565b602060405180830381865afa15801561141e573d6000803e3d6000fd5b505050506040513d601f19601f8201168201806040525081019061144291906142f9565b611481576040517f08c379a000000000000000000000000000000000000000000000000000000000815260040161147890614496565b60405180910390fd5b600e8054905083111580156114965750600083115b6114d5576040517f08c379a00000000000000000000000000000000000000000000000000000000081526004016114cc90614502565b60405180910390fd5b600c600084815260200190815260200160002060009054906101000a900460ff1615611536576040517f08c379a000000000000000000000000000000000000000000000000000000000815260040161152d90614594565b60405180910390fd5b611552600b6000858152602001908152602001600020836125f3565b15611592576040517f08c379a0000000000000000000000000000000000000000000000000000000008152600401611589906149bf565b60405180910390fd5b6115ae60096000858152602001908152602001600020836125f3565b6115ed576040517f08c379a00000000000000000000000000000000000000000000000000000000081526004016115e490614a51565b60405180910390fd5b6116098260096000868152602001908152602001600020612703565b80156116ea57600a60008373ffffffffffffffffffffffffffffffffffffffff1673ffffffffffffffffffffffffffffffffffffffff168152602001908152602001600020839080600181540180825580915050600190039060005260206000200160009091909190915055600b6000848152602001908152602001600020829080600181540180825580915050600190039060005260206000200160009091909190916101000a81548173ffffffffffffffffffffffffffffffffffffffff021916908373ffffffffffffffffffffffffffffffffffffffff1602179055505b505050565b6060600b600083815260200190815260200160002080548060200260200160405190810160405280929190818152602001828054801561178457602002820191906000526020600020905b8160009054906101000a900473ffffffffffffffffffffffffffffffffffffffff1673ffffffffffffffffffffffffffffffffffffffff168152602001906001019080831161173a575b50505050509050919050565b6000806002600084815260200190815260200160002060009054906101000a900473ffffffffffffffffffffffffffffffffffffffff169050600073ffffffffffffffffffffffffffffffffffffffff168173ffffffffffffffffffffffffffffffffffffffff161415611839576040517f08c379a000000000000000000000000000000000000000000000000000000000815260040161183090614ae3565b60405180910390fd5b80915050919050565b60008073ffffffffffffffffffffffffffffffffffffffff168273ffffffffffffffffffffffffffffffffffffffff1614156118b3576040517f08c379a00000000000000000000000000000000000000000000000000000000081526004016118aa90614b75565b60405180910390fd5b600360008373ffffffffffffffffffffffffffffffffffffffff1673ffffffffffffffffffffffffffffffffffffffff168152602001908152602001600020549050919050565b606060018054611909906140fc565b80601f0160208091040260200160405190810160405280929190818152602001828054611935906140fc565b80156119825780601f1061195757610100808354040283529160200191611982565b820191906000526020600020905b81548152906001019060200180831161196557829003601f168201915b5050505050905090565b61199e611997612532565b8383612b9c565b5050565b6060600e805480602002602001604051908101604052809291908181526020016000905b82821015611a725783829060005260206000200180546119e5906140fc565b80601f0160208091040260200160405190810160405280929190818152602001828054611a11906140fc565b8015611a5e5780601f10611a3357610100808354040283529160200191611a5e565b820191906000526020600020905b815481529060010190602001808311611a4157829003601f168201915b5050505050815260200190600101906119c6565b50505050905090565b600073ffffffffffffffffffffffffffffffffffffffff163373ffffffffffffffffffffffffffffffffffffffff1614611aea576040517f08c379a0000000000000000000000000000000000000000000000000000000008152600401611ae19061492d565b60405180910390fd5b611af684848484612d09565b50505050565b6060611b07826124c6565b611b46576040517f08c379a0000000000000000000000000000000000000000000000000000000008152600401611b3d90614c07565b60405180910390fd5b6000611b50612d6b565b90506000815111611b705760405180602001604052806000815250611b9b565b80611b7a84612d82565b604051602001611b8b929190614c27565b6040516020818303038152906040525b915050919050565b600660009054906101000a900473ffffffffffffffffffffffffffffffffffffffff1673ffffffffffffffffffffffffffffffffffffffff16639822a599336040518263ffffffff1660e01b8152600401611bfe91906137fa565b602060405180830381865afa158015611c1b573d6000803e3d6000fd5b505050506040513d601f19601f82011682018060405250810190611c3f91906142f9565b611c7e576040517f08c379a0000000000000000000000000000000000000000000000000000000008152600401611c7590614398565b60405180910390fd5b3373ffffffffffffffffffffffffffffffffffffffff16611c9e82611790565b73ffffffffffffffffffffffffffffffffffffffff1614611cf4576040517f08c379a0000000000000000000000000000000000000000000000000000000008152600401611ceb9061442a565b60405180910390fd5b600e805490508111158015611d095750600081115b611d48576040517f08c379a0000000000000000000000000000000000000000000000000000000008152600401611d3f90614502565b60405180910390fd5b600c600082815260200190815260200160002060009054906101000a900460ff1615611da9576040517f08c379a0000000000000000000000000000000000000000000000000000000008152600401611da090614594565b60405180910390fd5b606080600960008481526020019081526020016000209080519060200190611dd292919061349f565b506001600c600084815260200190815260200160002060006101000a81548160ff0219169083151502179055505050565b6060600a60008373ffffffffffffffffffffffffffffffffffffffff1673ffffffffffffffffffffffffffffffffffffffff168152602001908152602001600020805480602002602001604051908101604052809291908181526020018280548015611e8e57602002820191906000526020600020905b815481526020019060010190808311611e7a575b50505050509050919050565b600660009054906101000a900473ffffffffffffffffffffffffffffffffffffffff1673ffffffffffffffffffffffffffffffffffffffff16639822a599336040518263ffffffff1660e01b8152600401611ef591906137fa565b602060405180830381865afa158015611f12573d6000803e3d6000fd5b505050506040513d601f19601f82011682018060405250810190611f3691906142f9565b611f75576040517f08c379a0000000000000000000000000000000000000000000000000000000008152600401611f6c90614398565b60405180910390fd5b3373ffffffffffffffffffffffffffffffffffffffff16611f9584611790565b73ffffffffffffffffffffffffffffffffffffffff1614611feb576040517f08c379a0000000000000000000000000000000000000000000000000000000008152600401611fe29061442a565b60405180910390fd5b600e8054905083111580156120005750600083115b61203f576040517f08c379a000000000000000000000000000000000000000000000000000000000815260040161203690614502565b60405180910390fd5b600c600084815260200190815260200160002060009054906101000a900460ff16156120a0576040517f08c379a000000000000000000000000000000000000000000000000000000000815260040161209790614594565b60405180910390fd5b8181600e6001866120b19190614c7a565b815481106120c2576120c1614cae565b5b9060005260206000200191906120d9929190613529565b50505050565b600660009054906101000a900473ffffffffffffffffffffffffffffffffffffffff1673ffffffffffffffffffffffffffffffffffffffff1663fc3ba6b4336040518263ffffffff1660e01b815260040161213a91906137fa565b602060405180830381865afa158015612157573d6000803e3d6000fd5b505050506040513d601f19601f8201168201806040525081019061217b91906142f9565b6121ba576040517f08c379a00000000000000000000000000000000000000000000000000000000081526004016121b190614d4f565b60405180910390fd5b600e8054905081111580156121cf5750600081115b61220e576040517f08c379a000000000000000000000000000000000000000000000000000000000815260040161220590614502565b60405180910390fd5b600c600082815260200190815260200160002060009054906101000a900460ff161561226f576040517f08c379a000000000000000000000000000000000000000000000000000000000815260040161226690614594565b60405180910390fd5b61228b600b6000838152602001908152602001600020336125f3565b156122cb576040517f08c379a00000000000000000000000000000000000000000000000000000000081526004016122c2906149bf565b60405180910390fd5b6122e760096000838152602001908152602001600020336125f3565b15612327576040517f08c379a000000000000000000000000000000000000000000000000000000000815260040161231e90614de1565b60405180910390fd5b60096000828152602001908152602001600020339080600181540180825580915050600190039060005260206000200160009091909190916101000a81548173ffffffffffffffffffffffffffffffffffffffff021916908373ffffffffffffffffffffffffffffffffffffffff16021790555050565b6000600560008473ffffffffffffffffffffffffffffffffffffffff1673ffffffffffffffffffffffffffffffffffffffff16815260200190815260200160002060008373ffffffffffffffffffffffffffffffffffffffff1673ffffffffffffffffffffffffffffffffffffffff16815260200190815260200160002060009054906101000a900460ff16905092915050565b6000600c600083815260200190815260200160002060009054906101000a900460ff169050919050565b60007f01ffc9a7000000000000000000000000000000000000000000000000000000007bffffffffffffffffffffffffffffffffffffffffffffffffffffffff1916827bffffffffffffffffffffffffffffffffffffffffffffffffffffffff1916149050919050565b60008073ffffffffffffffffffffffffffffffffffffffff166002600084815260200190815260200160002060009054906101000a900473ffffffffffffffffffffffffffffffffffffffff1673ffffffffffffffffffffffffffffffffffffffff1614159050919050565b600033905090565b816004600083815260200190815260200160002060006101000a81548173ffffffffffffffffffffffffffffffffffffffff021916908373ffffffffffffffffffffffffffffffffffffffff160217905550808273ffffffffffffffffffffffffffffffffffffffff166125ad83611790565b73ffffffffffffffffffffffffffffffffffffffff167f8c5be1e5ebec7d5bd14f71427d1e84f3dd0314c0f7b2291e5b200ac8c7c3b92560405160405180910390a45050565b600080600090505b8380549050811015612695578273ffffffffffffffffffffffffffffffffffffffff1684828154811061263157612630614cae565b5b9060005260206000200160009054906101000a900473ffffffffffffffffffffffffffffffffffffffff1673ffffffffffffffffffffffffffffffffffffffff16141561268257600191505061269b565b808061268d90614e01565b9150506125fb565b50600090505b92915050565b600080600090505b83805490508110156126f757828482815481106126c9576126c8614cae565b5b906000526020600020015414156126e45760019150506126fd565b80806126ef90614e01565b9150506126a9565b50600090505b92915050565b60005b8180549050811015612886578273ffffffffffffffffffffffffffffffffffffffff1682828154811061273c5761273b614cae565b5b9060005260206000200160009054906101000a900473ffffffffffffffffffffffffffffffffffffffff1673ffffffffffffffffffffffffffffffffffffffff1614156128735781600183805490506127959190614c7a565b815481106127a6576127a5614cae565b5b9060005260206000200160009054906101000a900473ffffffffffffffffffffffffffffffffffffffff168282815481106127e4576127e3614cae565b5b9060005260206000200160006101000a81548173ffffffffffffffffffffffffffffffffffffffff021916908373ffffffffffffffffffffffffffffffffffffffff1602179055508180548061283d5761283c614e4a565b5b6001900381819060005260206000200160006101000a81549073ffffffffffffffffffffffffffffffffffffffff021916905590555b808061287e90614e01565b915050612706565b505050565b60005b818054905081101561294957828282815481106128ae576128ad614cae565b5b906000526020600020015414156129365781600183805490506128d19190614c7a565b815481106128e2576128e1614cae565b5b9060005260206000200154828281548110612900576128ff614cae565b5b90600052602060002001819055508180548061291f5761291e614e4a565b5b600190038181906000526020600020016000905590555b808061294190614e01565b91505061288e565b505050565b600073ffffffffffffffffffffffffffffffffffffffff168273ffffffffffffffffffffffffffffffffffffffff1614156129be576040517f08c379a00000000000000000000000000000000000000000000000000000000081526004016129b590614ec5565b60405180910390fd5b6129c7816124c6565b15612a07576040517f08c379a00000000000000000000000000000000000000000000000000000000081526004016129fe90614f31565b60405180910390fd5b612a1360008383612ee3565b6001600360008473ffffffffffffffffffffffffffffffffffffffff1673ffffffffffffffffffffffffffffffffffffffff1681526020019081526020016000206000828254612a639190614f51565b92505081905550816002600083815260200190815260200160002060006101000a81548173ffffffffffffffffffffffffffffffffffffffff021916908373ffffffffffffffffffffffffffffffffffffffff160217905550808273ffffffffffffffffffffffffffffffffffffffff16600073ffffffffffffffffffffffffffffffffffffffff167fddf252ad1be2c89b69c2b068fc378daa952ba7f163c4a11628f55a4df523b3ef60405160405180910390a45050565b612b2d612b27612532565b82612ee8565b612b6c576040517f08c379a0000000000000000000000000000000000000000000000000000000008152600401612b6390615019565b60405180910390fd5b612b77838383612fc6565b505050565b612b9783838360405180602001604052806000815250611a7b565b505050565b8173ffffffffffffffffffffffffffffffffffffffff168373ffffffffffffffffffffffffffffffffffffffff161415612c0b576040517f08c379a0000000000000000000000000000000000000000000000000000000008152600401612c0290615085565b60405180910390fd5b80600560008573ffffffffffffffffffffffffffffffffffffffff1673ffffffffffffffffffffffffffffffffffffffff16815260200190815260200160002060008473ffffffffffffffffffffffffffffffffffffffff1673ffffffffffffffffffffffffffffffffffffffff16815260200190815260200160002060006101000a81548160ff0219169083151502179055508173ffffffffffffffffffffffffffffffffffffffff168373ffffffffffffffffffffffffffffffffffffffff167f17307eab39ab6107e8899845ad3d59bd9653f200f220920489ca2b5937696c3183604051612cfc9190613680565b60405180910390a3505050565b612d1a612d14612532565b83612ee8565b612d59576040517f08c379a0000000000000000000000000000000000000000000000000000000008152600401612d5090615019565b60405180910390fd5b612d6584848484613222565b50505050565b606060405180602001604052806000815250905090565b60606000821415612dca576040518060400160405280600181526020017f30000000000000000000000000000000000000000000000000000000000000008152509050612ede565b600082905060005b60008214612dfc578080612de590614e01565b915050600a82612df591906150d4565b9150612dd2565b60008167ffffffffffffffff811115612e1857612e176139d8565b5b6040519080825280601f01601f191660200182016040528015612e4a5781602001600182028036833780820191505090505b5090505b60008514612ed757600182612e639190614c7a565b9150600a85612e729190615105565b6030612e7e9190614f51565b60f81b818381518110612e9457612e93614cae565b5b60200101907effffffffffffffffffffffffffffffffffffffffffffffffffffffffffffff1916908160001a905350600a85612ed091906150d4565b9450612e4e565b8093505050505b919050565b505050565b6000612ef3826124c6565b612f32576040517f08c379a0000000000000000000000000000000000000000000000000000000008152600401612f29906151a8565b60405180910390fd5b6000612f3d83611790565b90508073ffffffffffffffffffffffffffffffffffffffff168473ffffffffffffffffffffffffffffffffffffffff161480612fac57508373ffffffffffffffffffffffffffffffffffffffff16612f948461068a565b73ffffffffffffffffffffffffffffffffffffffff16145b80612fbd5750612fbc818561239e565b5b91505092915050565b8273ffffffffffffffffffffffffffffffffffffffff16612fe682611790565b73ffffffffffffffffffffffffffffffffffffffff161461303c576040517f08c379a00000000000000000000000000000000000000000000000000000000081526004016130339061523a565b60405180910390fd5b600073ffffffffffffffffffffffffffffffffffffffff168273ffffffffffffffffffffffffffffffffffffffff1614156130ac576040517f08c379a00000000000000000000000000000000000000000000000000000000081526004016130a3906152cc565b60405180910390fd5b6130b7838383612ee3565b6130c260008261253a565b6001600360008573ffffffffffffffffffffffffffffffffffffffff1673ffffffffffffffffffffffffffffffffffffffff16815260200190815260200160002060008282546131129190614c7a565b925050819055506001600360008473ffffffffffffffffffffffffffffffffffffffff1673ffffffffffffffffffffffffffffffffffffffff16815260200190815260200160002060008282546131699190614f51565b92505081905550816002600083815260200190815260200160002060006101000a81548173ffffffffffffffffffffffffffffffffffffffff021916908373ffffffffffffffffffffffffffffffffffffffff160217905550808273ffffffffffffffffffffffffffffffffffffffff168473ffffffffffffffffffffffffffffffffffffffff167fddf252ad1be2c89b69c2b068fc378daa952ba7f163c4a11628f55a4df523b3ef60405160405180910390a4505050565b61322d848484612fc6565b6132398484848461327e565b613278576040517f08c379a000000000000000000000000000000000000000000000000000000000815260040161326f9061535e565b60405180910390fd5b50505050565b600061329f8473ffffffffffffffffffffffffffffffffffffffff16613406565b156133f9578373ffffffffffffffffffffffffffffffffffffffff1663150b7a026132c8612532565b8786866040518563ffffffff1660e01b81526004016132ea94939291906153d3565b6020604051808303816000875af192505050801561332657506040513d601f19601f820116820180604052508101906133239190615434565b60015b6133a9573d8060008114613356576040519150601f19603f3d011682016040523d82523d6000602084013e61335b565b606091505b506000815114156133a1576040517f08c379a00000000000000000000000000000000000000000000000000000000081526004016133989061535e565b60405180910390fd5b805181602001fd5b63150b7a0260e01b7bffffffffffffffffffffffffffffffffffffffffffffffffffffffff1916817bffffffffffffffffffffffffffffffffffffffffffffffffffffffff1916149150506133fe565b600190505b949350505050565b600080823b905060008111915050919050565b828054613425906140fc565b90600052602060002090601f016020900481019282613447576000855561348e565b82601f1061346057805160ff191683800117855561348e565b8280016001018555821561348e579182015b8281111561348d578251825591602001919060010190613472565b5b50905061349b91906135af565b5090565b828054828255906000526020600020908101928215613518579160200282015b828111156135175782518260006101000a81548173ffffffffffffffffffffffffffffffffffffffff021916908373ffffffffffffffffffffffffffffffffffffffff160217905550916020019190600101906134bf565b5b50905061352591906135af565b5090565b828054613535906140fc565b90600052602060002090601f016020900481019282613557576000855561359e565b82601f1061357057803560ff191683800117855561359e565b8280016001018555821561359e579182015b8281111561359d578235825591602001919060010190613582565b5b5090506135ab91906135af565b5090565b5b808211156135c85760008160009055506001016135b0565b5090565b6000604051905090565b600080fd5b600080fd5b60007fffffffff0000000000000000000000000000000000000000000000000000000082169050919050565b613615816135e0565b811461362057600080fd5b50565b6000813590506136328161360c565b92915050565b60006020828403121561364e5761364d6135d6565b5b600061365c84828501613623565b91505092915050565b60008115159050919050565b61367a81613665565b82525050565b60006020820190506136956000830184613671565b92915050565b600081519050919050565b600082825260208201905092915050565b60005b838110156136d55780820151818401526020810190506136ba565b838111156136e4576000848401525b50505050565b6000601f19601f8301169050919050565b60006137068261369b565b61371081856136a6565b93506137208185602086016136b7565b613729816136ea565b840191505092915050565b6000602082019050818103600083015261374e81846136fb565b905092915050565b6000819050919050565b61376981613756565b811461377457600080fd5b50565b60008135905061378681613760565b92915050565b6000602082840312156137a2576137a16135d6565b5b60006137b084828501613777565b91505092915050565b600073ffffffffffffffffffffffffffffffffffffffff82169050919050565b60006137e4826137b9565b9050919050565b6137f4816137d9565b82525050565b600060208201905061380f60008301846137eb565b92915050565b61381e816137d9565b811461382957600080fd5b50565b60008135905061383b81613815565b92915050565b60008060408385031215613858576138576135d6565b5b60006138668582860161382c565b925050602061387785828601613777565b9150509250929050565b600060208284031215613897576138966135d6565b5b60006138a58482850161382c565b91505092915050565b600081519050919050565b600082825260208201905092915050565b6000819050602082019050919050565b6138e381613756565b82525050565b60006138f583836138da565b60208301905092915050565b6000602082019050919050565b6000613919826138ae565b61392381856138b9565b935061392e836138ca565b8060005b8381101561395f57815161394688826138e9565b975061395183613901565b925050600181019050613932565b5085935050505092915050565b60006020820190508181036000830152613986818461390e565b905092915050565b600080604083850312156139a5576139a46135d6565b5b60006139b385828601613777565b92505060206139c48582860161382c565b9150509250929050565b600080fd5b600080fd5b7f4e487b7100000000000000000000000000000000000000000000000000000000600052604160045260246000fd5b613a10826136ea565b810181811067ffffffffffffffff82111715613a2f57613a2e6139d8565b5b80604052505050565b6000613a426135cc565b9050613a4e8282613a07565b919050565b600067ffffffffffffffff821115613a6e57613a6d6139d8565b5b613a77826136ea565b9050602081019050919050565b82818337600083830152505050565b6000613aa6613aa184613a53565b613a38565b905082815260208101848484011115613ac257613ac16139d3565b5b613acd848285613a84565b509392505050565b600082601f830112613aea57613ae96139ce565b5b8135613afa848260208601613a93565b91505092915050565b60008060408385031215613b1a57613b196135d6565b5b600083013567ffffffffffffffff811115613b3857613b376135db565b5b613b4485828601613ad5565b9250506020613b558582860161382c565b9150509250929050565b600080600060608486031215613b7857613b776135d6565b5b6000613b868682870161382c565b9350506020613b978682870161382c565b9250506040613ba886828701613777565b9150509250925092565b600081519050919050565b600082825260208201905092915050565b6000819050602082019050919050565b613be7816137d9565b82525050565b6000613bf98383613bde565b60208301905092915050565b6000602082019050919050565b6000613c1d82613bb2565b613c278185613bbd565b9350613c3283613bce565b8060005b83811015613c63578151613c4a8882613bed565b9750613c5583613c05565b925050600181019050613c36565b5085935050505092915050565b60006020820190508181036000830152613c8a8184613c12565b905092915050565b613c9b81613665565b8114613ca657600080fd5b50565b600081359050613cb881613c92565b92915050565b600080600060608486031215613cd757613cd66135d6565b5b6000613ce586828701613777565b9350506020613cf68682870161382c565b9250506040613d0786828701613ca9565b9150509250925092565b613d1a81613756565b82525050565b6000602082019050613d356000830184613d11565b92915050565b60008060408385031215613d5257613d516135d6565b5b6000613d608582860161382c565b9250506020613d7185828601613ca9565b9150509250929050565b600081519050919050565b600082825260208201905092915050565b6000819050602082019050919050565b600082825260208201905092915050565b6000613dc38261369b565b613dcd8185613da7565b9350613ddd8185602086016136b7565b613de6816136ea565b840191505092915050565b6000613dfd8383613db8565b905092915050565b6000602082019050919050565b6000613e1d82613d7b565b613e278185613d86565b935083602082028501613e3985613d97565b8060005b85811015613e755784840389528151613e568582613df1565b9450613e6183613e05565b925060208a01995050600181019050613e3d565b50829750879550505050505092915050565b60006020820190508181036000830152613ea18184613e12565b905092915050565b600067ffffffffffffffff821115613ec457613ec36139d8565b5b613ecd826136ea565b9050602081019050919050565b6000613eed613ee884613ea9565b613a38565b905082815260208101848484011115613f0957613f086139d3565b5b613f14848285613a84565b509392505050565b600082601f830112613f3157613f306139ce565b5b8135613f41848260208601613eda565b91505092915050565b60008060008060808587031215613f6457613f636135d6565b5b6000613f728782880161382c565b9450506020613f838782880161382c565b9350506040613f9487828801613777565b925050606085013567ffffffffffffffff811115613fb557613fb46135db565b5b613fc187828801613f1c565b91505092959194509250565b600080fd5b600080fd5b60008083601f840112613fed57613fec6139ce565b5b8235905067ffffffffffffffff81111561400a57614009613fcd565b5b60208301915083600182028301111561402657614025613fd2565b5b9250929050565b600080600060408486031215614046576140456135d6565b5b600061405486828701613777565b935050602084013567ffffffffffffffff811115614075576140746135db565b5b61408186828701613fd7565b92509250509250925092565b600080604083850312156140a4576140a36135d6565b5b60006140b28582860161382c565b92505060206140c38582860161382c565b9150509250929050565b7f4e487b7100000000000000000000000000000000000000000000000000000000600052602260045260246000fd5b6000600282049050600182168061411457607f821691505b60208210811415614128576141276140cd565b5b50919050565b7f4552433732313a20617070726f76656420717565727920666f72206e6f6e657860008201527f697374656e7420746f6b656e0000000000000000000000000000000000000000602082015250565b600061418a602c836136a6565b91506141958261412e565b604082019050919050565b600060208201905081810360008301526141b98161417d565b9050919050565b7f4552433732313a20617070726f76616c20746f2063757272656e74206f776e6560008201527f7200000000000000000000000000000000000000000000000000000000000000602082015250565b600061421c6021836136a6565b9150614227826141c0565b604082019050919050565b6000602082019050818103600083015261424b8161420f565b9050919050565b7f4552433732313a20617070726f76652063616c6c6572206973206e6f74206f7760008201527f6e6572206e6f7220617070726f76656420666f7220616c6c0000000000000000602082015250565b60006142ae6038836136a6565b91506142b982614252565b604082019050919050565b600060208201905081810360008301526142dd816142a1565b9050919050565b6000815190506142f381613c92565b92915050565b60006020828403121561430f5761430e6135d6565b5b600061431d848285016142e4565b91505092915050565b7f54686973206163636f756e7420646f6573206e6f74206861766520496e73747260008201527f7563746f72205065726d697373696f6e73000000000000000000000000000000602082015250565b60006143826031836136a6565b915061438d82614326565b604082019050919050565b600060208201905081810360008301526143b181614375565b9050919050565b7f5468697320636f7572736520646f6573206e6f742062656c6f6e6720746f207460008201527f68697320496e7374727563746f72000000000000000000000000000000000000602082015250565b6000614414602e836136a6565b915061441f826143b8565b604082019050919050565b6000602082019050818103600083015261444381614407565b9050919050565b7f546869732061646472657373206973206e6f7420612073747564656e74000000600082015250565b6000614480601d836136a6565b915061448b8261444a565b602082019050919050565b600060208201905081810360008301526144af81614473565b9050919050565b7f5468697320636f7572736520646f6573206e6f74206578697374000000000000600082015250565b60006144ec601a836136a6565b91506144f7826144b6565b602082019050919050565b6000602082019050818103600083015261451b816144df565b9050919050565b7f5468697320636f7572736520697320636c6f7365642062792074686520496e7360008201527f74727563746f7200000000000000000000000000000000000000000000000000602082015250565b600061457e6027836136a6565b915061458982614522565b604082019050919050565b600060208201905081810360008301526145ad81614571565b9050919050565b7f546869732073747564656e74206973206e6f7420617070726f76656420666f7260008201527f207468697320636f757273650000000000000000000000000000000000000000602082015250565b6000614610602c836136a6565b915061461b826145b4565b604082019050919050565b6000602082019050818103600083015261463f81614603565b9050919050565b7f546869732073747564656e74206973206e6f742074616b696e6720746869732060008201527f636f757273650000000000000000000000000000000000000000000000000000602082015250565b60006146a26026836136a6565b91506146ad82614646565b604082019050919050565b600060208201905081810360008301526146d181614695565b9050919050565b7f54686973206163636f756e7420646f6573206e6f74206861766520746865205260008201527f6563746f72205065726d697373696f6e73000000000000000000000000000000602082015250565b60006147346031836136a6565b915061473f826146d8565b604082019050919050565b6000602082019050818103600083015261476381614727565b9050919050565b7f546869732061646472657373206973206e6f7420616e20696e7374727563746f60008201527f7200000000000000000000000000000000000000000000000000000000000000602082015250565b60006147c66021836136a6565b91506147d18261476a565b604082019050919050565b600060208201905081810360008301526147f5816147b9565b9050919050565b600081905092915050565b60006148128261369b565b61481c81856147fc565b935061482c8185602086016136b7565b80840191505092915050565b60006148448284614807565b915081905092915050565b7f54686973206c696e6b20697320616c7265616479206d696e7465640000000000600082015250565b6000614885601b836136a6565b91506148908261484f565b602082019050919050565b600060208201905081810360008301526148b481614878565b9050919050565b7f5472616e73666572206166746572206d696e742069732070726f68696269746560008201527f6400000000000000000000000000000000000000000000000000000000000000602082015250565b60006149176021836136a6565b9150614922826148bb565b604082019050919050565b600060208201905081810360008301526149468161490a565b9050919050565b7f546869732073747564656e7420616c726561647920617070726f76656420666f60008201527f72207468697320636f7572736500000000000000000000000000000000000000602082015250565b60006149a9602d836136a6565b91506149b48261494d565b604082019050919050565b600060208201905081810360008301526149d88161499c565b9050919050565b7f546869732073747564656e7420686173206e6f74206170706c69656420666f7260008201527f207468697320636f757273650000000000000000000000000000000000000000602082015250565b6000614a3b602c836136a6565b9150614a46826149df565b604082019050919050565b60006020820190508181036000830152614a6a81614a2e565b9050919050565b7f4552433732313a206f776e657220717565727920666f72206e6f6e657869737460008201527f656e7420746f6b656e0000000000000000000000000000000000000000000000602082015250565b6000614acd6029836136a6565b9150614ad882614a71565b604082019050919050565b60006020820190508181036000830152614afc81614ac0565b9050919050565b7f4552433732313a2062616c616e636520717565727920666f7220746865207a6560008201527f726f206164647265737300000000000000000000000000000000000000000000602082015250565b6000614b5f602a836136a6565b9150614b6a82614b03565b604082019050919050565b60006020820190508181036000830152614b8e81614b52565b9050919050565b7f4552433732314d657461646174613a2055524920717565727920666f72206e6f60008201527f6e6578697374656e7420746f6b656e0000000000000000000000000000000000602082015250565b6000614bf1602f836136a6565b9150614bfc82614b95565b604082019050919050565b60006020820190508181036000830152614c2081614be4565b9050919050565b6000614c338285614807565b9150614c3f8284614807565b91508190509392505050565b7f4e487b7100000000000000000000000000000000000000000000000000000000600052601160045260246000fd5b6000614c8582613756565b9150614c9083613756565b925082821015614ca357614ca2614c4b565b5b828203905092915050565b7f4e487b7100000000000000000000000000000000000000000000000000000000600052603260045260246000fd5b7f54686973206163636f756e7420646f6573206e6f74206861766520746865205360008201527f747564656e74205065726d697373696f6e730000000000000000000000000000602082015250565b6000614d396032836136a6565b9150614d4482614cdd565b604082019050919050565b60006020820190508181036000830152614d6881614d2c565b9050919050565b7f546869732073747564656e7420616c7265616479206170706c69656420666f7260008201527f207468697320636f757273650000000000000000000000000000000000000000602082015250565b6000614dcb602c836136a6565b9150614dd682614d6f565b604082019050919050565b60006020820190508181036000830152614dfa81614dbe565b9050919050565b6000614e0c82613756565b91507fffffffffffffffffffffffffffffffffffffffffffffffffffffffffffffffff821415614e3f57614e3e614c4b565b5b600182019050919050565b7f4e487b7100000000000000000000000000000000000000000000000000000000600052603160045260246000fd5b7f4552433732313a206d696e7420746f20746865207a65726f2061646472657373600082015250565b6000614eaf6020836136a6565b9150614eba82614e79565b602082019050919050565b60006020820190508181036000830152614ede81614ea2565b9050919050565b7f4552433732313a20746f6b656e20616c7265616479206d696e74656400000000600082015250565b6000614f1b601c836136a6565b9150614f2682614ee5565b602082019050919050565b60006020820190508181036000830152614f4a81614f0e565b9050919050565b6000614f5c82613756565b9150614f6783613756565b9250827fffffffffffffffffffffffffffffffffffffffffffffffffffffffffffffffff03821115614f9c57614f9b614c4b565b5b828201905092915050565b7f4552433732313a207472616e736665722063616c6c6572206973206e6f74206f60008201527f776e6572206e6f7220617070726f766564000000000000000000000000000000602082015250565b60006150036031836136a6565b915061500e82614fa7565b604082019050919050565b6000602082019050818103600083015261503281614ff6565b9050919050565b7f4552433732313a20617070726f766520746f2063616c6c657200000000000000600082015250565b600061506f6019836136a6565b915061507a82615039565b602082019050919050565b6000602082019050818103600083015261509e81615062565b9050919050565b7f4e487b7100000000000000000000000000000000000000000000000000000000600052601260045260246000fd5b60006150df82613756565b91506150ea83613756565b9250826150fa576150f96150a5565b5b828204905092915050565b600061511082613756565b915061511b83613756565b92508261512b5761512a6150a5565b5b828206905092915050565b7f4552433732313a206f70657261746f7220717565727920666f72206e6f6e657860008201527f697374656e7420746f6b656e0000000000000000000000000000000000000000602082015250565b6000615192602c836136a6565b915061519d82615136565b604082019050919050565b600060208201905081810360008301526151c181615185565b9050919050565b7f4552433732313a207472616e73666572206f6620746f6b656e2074686174206960008201527f73206e6f74206f776e0000000000000000000000000000000000000000000000602082015250565b60006152246029836136a6565b915061522f826151c8565b604082019050919050565b6000602082019050818103600083015261525381615217565b9050919050565b7f4552433732313a207472616e7366657220746f20746865207a65726f2061646460008201527f7265737300000000000000000000000000000000000000000000000000000000602082015250565b60006152b66024836136a6565b91506152c18261525a565b604082019050919050565b600060208201905081810360008301526152e5816152a9565b9050919050565b7f4552433732313a207472616e7366657220746f206e6f6e20455243373231526560008201527f63656976657220696d706c656d656e7465720000000000000000000000000000602082015250565b60006153486032836136a6565b9150615353826152ec565b604082019050919050565b600060208201905081810360008301526153778161533b565b9050919050565b600081519050919050565b600082825260208201905092915050565b60006153a58261537e565b6153af8185615389565b93506153bf8185602086016136b7565b6153c8816136ea565b840191505092915050565b60006080820190506153e860008301876137eb565b6153f560208301866137eb565b6154026040830185613d11565b8181036060830152615414818461539a565b905095945050505050565b60008151905061542e8161360c565b92915050565b60006020828403121561544a576154496135d6565b5b60006154588482850161541f565b9150509291505056fea2646970667358221220222faa46f301da626456d3d30e67fc23e14ae24a734a047a73c35dc1db33603864736f6c634300080a0033",
  "immutableReferences": {},
  "source": "pragma solidity ^0.8.10;\r\n\r\nimport \"@openzeppelin/contracts/token/ERC721/ERC721.sol\";\r\nimport \"./Roles.sol\";\r\nimport \"./Request.sol\";\r\n\r\ncontract Course is ERC721{\r\n\r\n    address rolesContractAddress;\r\n    address requestContractAddress;\r\n\r\n    //Mapping of the instructor to the tokenIDs\r\n    mapping(address => uint256[]) _givesCourses;//array starts from 0th index\r\n    //Mapping of the tokenID to the owner is defined in ERC721.sol\r\n\r\n    //Mapping of the tokenID to the request of students\r\n    mapping(uint256 => address[]) _requestOfStudents;//array starts from 0th index\r\n    //Mapping of the student to the tokenIDs\r\n    mapping(address => uint256[]) _takesCourses;//array starts from 0th index\r\n    //Mapping of the tokenID to the approved students\r\n    mapping(uint256 => address[]) _approvedStudents;//array starts from 0th index\r\n    //Mapping of the tokenID to frozen or not\r\n    mapping(uint256 => bool) _frozen;\r\n\r\n    //is Course link exist\r\n    mapping(string => bool) _courseExist;\r\n    //List of Course Links\r\n    string[] _courseLinks;//starts from 0th index\r\n\r\n    constructor(address _rolesContractAddress, address _requestContractAddress) ERC721(\"Course\", \"CRS\"){\r\n        rolesContractAddress =_rolesContractAddress;\r\n        requestContractAddress = _requestContractAddress;\r\n    }\r\n    function mint(string memory _courseLink, address _instructorAddress) public{\r\n        require(Roles(rolesContractAddress).hasRectorRole(msg.sender), \"This account does not have the Rector Permissions\");\r\n        require(Roles(rolesContractAddress).hasInstructorRole(_instructorAddress), \"This address is not an instructor\");\r\n        require(!_courseExist[_courseLink], \"This link is already minted\");\r\n        //_courseLinks - add\r\n        _courseLinks.push(_courseLink);\r\n        uint _id = _courseLinks.length;\r\n        //tokenID's start from 1 because default uint256 value is 0\r\n        //Call mint of ERC721\r\n        _mint(_instructorAddress, _id);\r\n        //Trace it\r\n        _courseExist[_courseLink] = true;\r\n        _givesCourses[_instructorAddress].push(_id);\r\n        _frozen[_id] = false;\r\n\r\n        //Make request minted\r\n        Request(requestContractAddress).courseMinted(_courseLink);\r\n    }\r\n    function applyCourse(uint256 _id) public{\r\n        //Requirements\r\n        require(Roles(rolesContractAddress).hasStudentRole(msg.sender), \"This account does not have the Student Permissions\");\r\n        require(_id<=_courseLinks.length && _id>0, \"This course does not exist\");\r\n        require(!_frozen[_id],\"This course is closed by the Instructor\");\r\n        require(!isExist(_approvedStudents[_id], msg.sender), \"This student already approved for this course\");\r\n        require(!isExist(_requestOfStudents[_id], msg.sender), \"This student already applied for this course\");\r\n\r\n        //Push it\r\n        _requestOfStudents[_id].push(msg.sender);\r\n    }\r\n    function approveDisapproveApplication(uint256 _id, address studentAddress, bool isApprove) public{\r\n        //Requirements\r\n        require(Roles(rolesContractAddress).hasInstructorRole(msg.sender), \"This account does not have Instructor Permissions\");\r\n        require(ownerOf(_id) == msg.sender, \"This course does not belong to this Instructor\");\r\n        require(Roles(rolesContractAddress).hasStudentRole(studentAddress), \"This address is not a student\");\r\n        require(_id<=_courseLinks.length && _id>0, \"This course does not exist\");\r\n        require(!_frozen[_id],\"This course is closed by the Instructor\");\r\n        require(!isExist(_approvedStudents[_id], studentAddress), \"This student already approved for this course\");\r\n        require(isExist(_requestOfStudents[_id], studentAddress), \"This student has not applied for this course\");\r\n        //Trace - it\r\n        removeElement(studentAddress, _requestOfStudents[_id]);\r\n        if(isApprove){\r\n            _takesCourses[studentAddress].push(_id);\r\n            _approvedStudents[_id].push(studentAddress);\r\n        }\r\n    }\r\n    function dropStudent(uint256 _id, address studentAddress) public{\r\n        //Requirements\r\n        require(Roles(rolesContractAddress).hasInstructorRole(msg.sender), \"This account does not have Instructor Permissions\");\r\n        require(ownerOf(_id) == msg.sender, \"This course does not belong to this Instructor\");\r\n        require(Roles(rolesContractAddress).hasStudentRole(studentAddress), \"This address is not a student\");\r\n        require(_id<=_courseLinks.length && _id>0, \"This course does not exist\");\r\n        require(!_frozen[_id],\"This course is closed by the Instructor\");\r\n        require(isExist(_approvedStudents[_id], studentAddress), \"This student is not approved for this course\");\r\n        require(isExistUint(_takesCourses[studentAddress], _id), \"This student is not taking this course\");\r\n        //Drop Student\r\n        removeElement(studentAddress, _approvedStudents[_id]);\r\n        removeElementUint(_id, _takesCourses[studentAddress]);\r\n    }\r\n    function editCourseLink(uint _id, string calldata newLink) public{\r\n        //Requirements\r\n        require(Roles(rolesContractAddress).hasInstructorRole(msg.sender), \"This account does not have Instructor Permissions\");\r\n        require(ownerOf(_id) == msg.sender, \"This course does not belong to this Instructor\");\r\n        require(_id<=_courseLinks.length && _id>0, \"This course does not exist\");\r\n        require(!_frozen[_id], \"This course is closed by the Instructor\");\r\n        //Edit\r\n        _courseLinks[_id-1] = newLink;\r\n    }\r\n    function freeze(uint256 _id) public {\r\n        //Requirements\r\n        require(Roles(rolesContractAddress).hasInstructorRole(msg.sender), \"This account does not have Instructor Permissions\");\r\n        require(ownerOf(_id) == msg.sender, \"This course does not belong to this Instructor\");\r\n        require(_id<=_courseLinks.length && _id>0, \"This course does not exist\");\r\n        require(!_frozen[_id],\"This course is closed by the Instructor\");\r\n        //Freeze it\r\n        address[] memory empty;\r\n        _requestOfStudents[_id] = empty;\r\n        _frozen[_id] = true;\r\n    }\r\n    function getCourseLinks() public view returns(string[] memory courseLinks){\r\n        return _courseLinks;\r\n    }\r\n    function getGivesCourses(address instructorAddress) public view returns (uint[] memory givesCourses){\r\n        return _givesCourses[instructorAddress];\r\n    }\r\n    function getTakesCourses(address studentAddress)public view returns(uint256[] memory){\r\n        return _takesCourses[studentAddress];\r\n    }\r\n    function getRequestOfStudents(uint _id)public view returns(address[] memory){\r\n        return _requestOfStudents[_id];\r\n    }\r\n    function getApprovedStudents(uint _id)public view returns(address[] memory){\r\n        return _approvedStudents[_id];\r\n    }\r\n    function getFrozen(uint256 _id) public view returns(bool){\r\n        return _frozen[_id];\r\n    }\r\n\r\n    function isExist(address[] storage list, address element) private view returns(bool){\r\n        for(uint256 i = 0; i<list.length; i++){\r\n            if(list[i] == element){\r\n                return true;\r\n            }\r\n        }\r\n        return false;\r\n    }\r\n    function isExistUint(uint[] storage list, uint element) private view returns(bool){\r\n        for(uint256 i = 0; i<list.length; i++){\r\n            if(list[i] == element){\r\n                return true;\r\n            }\r\n        }\r\n        return false;\r\n    }\r\n\r\n    function removeElement(address element, address[] storage arr) private{\r\n        for(uint i = 0; i<arr.length; i++){\r\n            if(arr[i] == element){\r\n                arr[i] = arr[arr.length-1];\r\n                arr.pop();\r\n            }\r\n        }\r\n    }\r\n    function removeElementUint(uint element, uint[] storage arr) private{\r\n        for(uint i = 0; i<arr.length; i++){\r\n            if(arr[i] == element){\r\n                arr[i] = arr[arr.length-1];\r\n                arr.pop();\r\n            }\r\n        }\r\n    }\r\n\r\n    //TODO Contract Owner can make mistakes when minting. Token should be somewhat editable for contract owner\r\n    function transferFrom(//Only callable when minted\r\n        address from,\r\n        address to,\r\n        uint256 tokenId\r\n    ) public virtual override {\r\n        require(msg.sender == 0x0000000000000000000000000000000000000000, \"Transfer after mint is prohibited\");\r\n        super.transferFrom(from,to,tokenId);\r\n    }\r\n    function safeTransferFrom(//Only callable when minted\r\n        address from,\r\n        address to,\r\n        uint256 tokenId\r\n    ) public virtual override {\r\n        require(msg.sender == 0x0000000000000000000000000000000000000000, \"Transfer after mint is prohibited\");\r\n        super.safeTransferFrom(from,to,tokenId);\r\n    }\r\n    function safeTransferFrom(//Only callable when minted\r\n        address from,\r\n        address to,\r\n        uint256 tokenId,\r\n        bytes memory _data\r\n    ) public virtual override {\r\n        require(msg.sender == 0x0000000000000000000000000000000000000000, \"Transfer after mint is prohibited\");\r\n        super.safeTransferFrom(from, to, tokenId, _data);\r\n    }\r\n}\r\n",
  "sourcePath": "C:\\Users\\asus\\Desktop\\Dersler\\CMPE492\\certification-project\\contracts\\Course.sol",
  "compiler": {
    "name": "solc",
    "version": "0.8.10+commit.fc410830.Emscripten.clang"
  },
  "schemaVersion": "3.4.4",
  "updatedAt": "2022-01-21T18:04:25.969Z",
  "devdoc": {
    "kind": "dev",
    "methods": {
      "approve(address,uint256)": {
        "details": "See {IERC721-approve}."
      },
      "balanceOf(address)": {
        "details": "See {IERC721-balanceOf}."
      },
      "getApproved(uint256)": {
        "details": "See {IERC721-getApproved}."
      },
      "isApprovedForAll(address,address)": {
        "details": "See {IERC721-isApprovedForAll}."
      },
      "name()": {
        "details": "See {IERC721Metadata-name}."
      },
      "ownerOf(uint256)": {
        "details": "See {IERC721-ownerOf}."
      },
      "safeTransferFrom(address,address,uint256)": {
        "details": "See {IERC721-safeTransferFrom}."
      },
      "safeTransferFrom(address,address,uint256,bytes)": {
        "details": "See {IERC721-safeTransferFrom}."
      },
      "setApprovalForAll(address,bool)": {
        "details": "See {IERC721-setApprovalForAll}."
      },
      "supportsInterface(bytes4)": {
        "details": "See {IERC165-supportsInterface}."
      },
      "symbol()": {
        "details": "See {IERC721Metadata-symbol}."
      },
      "tokenURI(uint256)": {
        "details": "See {IERC721Metadata-tokenURI}."
      },
      "transferFrom(address,address,uint256)": {
        "details": "See {IERC721-transferFrom}."
      }
    },
    "version": 1
  },
  "userdoc": {
    "kind": "user",
    "methods": {},
    "version": 1
  }
}