{
  "contractName": "Course",
  "abi": [
    {
      "inputs": [],
      "stateMutability": "nonpayable",
      "type": "constructor"
    },
    {
      "anonymous": false,
      "inputs": [
        {
          "indexed": true,
          "internalType": "address",
          "name": "owner",
          "type": "address"
        },
        {
          "indexed": true,
          "internalType": "address",
          "name": "approved",
          "type": "address"
        },
        {
          "indexed": true,
          "internalType": "uint256",
          "name": "tokenId",
          "type": "uint256"
        }
      ],
      "name": "Approval",
      "type": "event"
    },
    {
      "anonymous": false,
      "inputs": [
        {
          "indexed": true,
          "internalType": "address",
          "name": "owner",
          "type": "address"
        },
        {
          "indexed": true,
          "internalType": "address",
          "name": "operator",
          "type": "address"
        },
        {
          "indexed": false,
          "internalType": "bool",
          "name": "approved",
          "type": "bool"
        }
      ],
      "name": "ApprovalForAll",
      "type": "event"
    },
    {
      "anonymous": false,
      "inputs": [
        {
          "indexed": true,
          "internalType": "bytes32",
          "name": "role",
          "type": "bytes32"
        },
        {
          "indexed": true,
          "internalType": "bytes32",
          "name": "previousAdminRole",
          "type": "bytes32"
        },
        {
          "indexed": true,
          "internalType": "bytes32",
          "name": "newAdminRole",
          "type": "bytes32"
        }
      ],
      "name": "RoleAdminChanged",
      "type": "event"
    },
    {
      "anonymous": false,
      "inputs": [
        {
          "indexed": true,
          "internalType": "bytes32",
          "name": "role",
          "type": "bytes32"
        },
        {
          "indexed": true,
          "internalType": "address",
          "name": "account",
          "type": "address"
        },
        {
          "indexed": true,
          "internalType": "address",
          "name": "sender",
          "type": "address"
        }
      ],
      "name": "RoleGranted",
      "type": "event"
    },
    {
      "anonymous": false,
      "inputs": [
        {
          "indexed": true,
          "internalType": "bytes32",
          "name": "role",
          "type": "bytes32"
        },
        {
          "indexed": true,
          "internalType": "address",
          "name": "account",
          "type": "address"
        },
        {
          "indexed": true,
          "internalType": "address",
          "name": "sender",
          "type": "address"
        }
      ],
      "name": "RoleRevoked",
      "type": "event"
    },
    {
      "anonymous": false,
      "inputs": [
        {
          "indexed": true,
          "internalType": "address",
          "name": "from",
          "type": "address"
        },
        {
          "indexed": true,
          "internalType": "address",
          "name": "to",
          "type": "address"
        },
        {
          "indexed": true,
          "internalType": "uint256",
          "name": "tokenId",
          "type": "uint256"
        }
      ],
      "name": "Transfer",
      "type": "event"
    },
    {
      "inputs": [],
      "name": "DEFAULT_ADMIN_ROLE",
      "outputs": [
        {
          "internalType": "bytes32",
          "name": "",
          "type": "bytes32"
        }
      ],
      "stateMutability": "view",
      "type": "function",
      "constant": true
    },
    {
      "inputs": [],
      "name": "DEPARTMENT_ROLE",
      "outputs": [
        {
          "internalType": "bytes32",
          "name": "",
          "type": "bytes32"
        }
      ],
      "stateMutability": "view",
      "type": "function",
      "constant": true
    },
    {
      "inputs": [],
      "name": "FACULTY_ROLE",
      "outputs": [
        {
          "internalType": "bytes32",
          "name": "",
          "type": "bytes32"
        }
      ],
      "stateMutability": "view",
      "type": "function",
      "constant": true
    },
    {
      "inputs": [],
      "name": "GRADUATED_ROLE",
      "outputs": [
        {
          "internalType": "bytes32",
          "name": "",
          "type": "bytes32"
        }
      ],
      "stateMutability": "view",
      "type": "function",
      "constant": true
    },
    {
      "inputs": [],
      "name": "INSTRUCTOR_ROLE",
      "outputs": [
        {
          "internalType": "bytes32",
          "name": "",
          "type": "bytes32"
        }
      ],
      "stateMutability": "view",
      "type": "function",
      "constant": true
    },
    {
      "inputs": [],
      "name": "RECTOR_ROLE",
      "outputs": [
        {
          "internalType": "bytes32",
          "name": "",
          "type": "bytes32"
        }
      ],
      "stateMutability": "view",
      "type": "function",
      "constant": true
    },
    {
      "inputs": [],
      "name": "STUDENT_ROLE",
      "outputs": [
        {
          "internalType": "bytes32",
          "name": "",
          "type": "bytes32"
        }
      ],
      "stateMutability": "view",
      "type": "function",
      "constant": true
    },
    {
      "inputs": [
        {
          "internalType": "address",
          "name": "to",
          "type": "address"
        },
        {
          "internalType": "uint256",
          "name": "tokenId",
          "type": "uint256"
        }
      ],
      "name": "approve",
      "outputs": [],
      "stateMutability": "nonpayable",
      "type": "function"
    },
    {
      "inputs": [
        {
          "internalType": "address",
          "name": "owner",
          "type": "address"
        }
      ],
      "name": "balanceOf",
      "outputs": [
        {
          "internalType": "uint256",
          "name": "",
          "type": "uint256"
        }
      ],
      "stateMutability": "view",
      "type": "function",
      "constant": true
    },
    {
      "inputs": [
        {
          "internalType": "uint256",
          "name": "tokenId",
          "type": "uint256"
        }
      ],
      "name": "getApproved",
      "outputs": [
        {
          "internalType": "address",
          "name": "",
          "type": "address"
        }
      ],
      "stateMutability": "view",
      "type": "function",
      "constant": true
    },
    {
      "inputs": [],
      "name": "getDepartments",
      "outputs": [
        {
          "internalType": "address[]",
          "name": "",
          "type": "address[]"
        }
      ],
      "stateMutability": "view",
      "type": "function",
      "constant": true
    },
    {
      "inputs": [],
      "name": "getFaculties",
      "outputs": [
        {
          "internalType": "address[]",
          "name": "",
          "type": "address[]"
        }
      ],
      "stateMutability": "view",
      "type": "function",
      "constant": true
    },
    {
      "inputs": [],
      "name": "getGraduateds",
      "outputs": [
        {
          "internalType": "address[]",
          "name": "",
          "type": "address[]"
        }
      ],
      "stateMutability": "view",
      "type": "function",
      "constant": true
    },
    {
      "inputs": [],
      "name": "getInstructors",
      "outputs": [
        {
          "internalType": "address[]",
          "name": "",
          "type": "address[]"
        }
      ],
      "stateMutability": "view",
      "type": "function",
      "constant": true
    },
    {
      "inputs": [],
      "name": "getRector",
      "outputs": [
        {
          "internalType": "address",
          "name": "",
          "type": "address"
        }
      ],
      "stateMutability": "view",
      "type": "function",
      "constant": true
    },
    {
      "inputs": [
        {
          "internalType": "bytes32",
          "name": "role",
          "type": "bytes32"
        }
      ],
      "name": "getRoleAdmin",
      "outputs": [
        {
          "internalType": "bytes32",
          "name": "",
          "type": "bytes32"
        }
      ],
      "stateMutability": "view",
      "type": "function",
      "constant": true
    },
    {
      "inputs": [
        {
          "internalType": "bytes32",
          "name": "role",
          "type": "bytes32"
        },
        {
          "internalType": "uint256",
          "name": "index",
          "type": "uint256"
        }
      ],
      "name": "getRoleMember",
      "outputs": [
        {
          "internalType": "address",
          "name": "",
          "type": "address"
        }
      ],
      "stateMutability": "view",
      "type": "function",
      "constant": true
    },
    {
      "inputs": [
        {
          "internalType": "bytes32",
          "name": "role",
          "type": "bytes32"
        }
      ],
      "name": "getRoleMemberCount",
      "outputs": [
        {
          "internalType": "uint256",
          "name": "",
          "type": "uint256"
        }
      ],
      "stateMutability": "view",
      "type": "function",
      "constant": true
    },
    {
      "inputs": [],
      "name": "getStudents",
      "outputs": [
        {
          "internalType": "address[]",
          "name": "",
          "type": "address[]"
        }
      ],
      "stateMutability": "view",
      "type": "function",
      "constant": true
    },
    {
      "inputs": [
        {
          "internalType": "address",
          "name": "account",
          "type": "address"
        }
      ],
      "name": "grantDepartmentRole",
      "outputs": [],
      "stateMutability": "nonpayable",
      "type": "function"
    },
    {
      "inputs": [
        {
          "internalType": "address",
          "name": "account",
          "type": "address"
        }
      ],
      "name": "grantFacultyRole",
      "outputs": [],
      "stateMutability": "nonpayable",
      "type": "function"
    },
    {
      "inputs": [
        {
          "internalType": "address",
          "name": "account",
          "type": "address"
        }
      ],
      "name": "grantGraduatedRole",
      "outputs": [],
      "stateMutability": "nonpayable",
      "type": "function"
    },
    {
      "inputs": [
        {
          "internalType": "address",
          "name": "account",
          "type": "address"
        }
      ],
      "name": "grantInstructorRole",
      "outputs": [],
      "stateMutability": "nonpayable",
      "type": "function"
    },
    {
      "inputs": [
        {
          "internalType": "address",
          "name": "account",
          "type": "address"
        }
      ],
      "name": "grantRectorRole",
      "outputs": [],
      "stateMutability": "nonpayable",
      "type": "function"
    },
    {
      "inputs": [
        {
          "internalType": "bytes32",
          "name": "role",
          "type": "bytes32"
        },
        {
          "internalType": "address",
          "name": "account",
          "type": "address"
        }
      ],
      "name": "grantRole",
      "outputs": [],
      "stateMutability": "nonpayable",
      "type": "function"
    },
    {
      "inputs": [
        {
          "internalType": "address",
          "name": "account",
          "type": "address"
        }
      ],
      "name": "grantStudentRole",
      "outputs": [],
      "stateMutability": "nonpayable",
      "type": "function"
    },
    {
      "inputs": [
        {
          "internalType": "address",
          "name": "account",
          "type": "address"
        }
      ],
      "name": "hasDepartmentRole",
      "outputs": [
        {
          "internalType": "bool",
          "name": "",
          "type": "bool"
        }
      ],
      "stateMutability": "view",
      "type": "function",
      "constant": true
    },
    {
      "inputs": [
        {
          "internalType": "address",
          "name": "account",
          "type": "address"
        }
      ],
      "name": "hasFacultyRole",
      "outputs": [
        {
          "internalType": "bool",
          "name": "",
          "type": "bool"
        }
      ],
      "stateMutability": "view",
      "type": "function",
      "constant": true
    },
    {
      "inputs": [
        {
          "internalType": "address",
          "name": "account",
          "type": "address"
        }
      ],
      "name": "hasGraduatedRole",
      "outputs": [
        {
          "internalType": "bool",
          "name": "",
          "type": "bool"
        }
      ],
      "stateMutability": "view",
      "type": "function",
      "constant": true
    },
    {
      "inputs": [
        {
          "internalType": "address",
          "name": "account",
          "type": "address"
        }
      ],
      "name": "hasInstructorRole",
      "outputs": [
        {
          "internalType": "bool",
          "name": "",
          "type": "bool"
        }
      ],
      "stateMutability": "view",
      "type": "function",
      "constant": true
    },
    {
      "inputs": [
        {
          "internalType": "address",
          "name": "account",
          "type": "address"
        }
      ],
      "name": "hasRectorRole",
      "outputs": [
        {
          "internalType": "bool",
          "name": "",
          "type": "bool"
        }
      ],
      "stateMutability": "view",
      "type": "function",
      "constant": true
    },
    {
      "inputs": [
        {
          "internalType": "bytes32",
          "name": "role",
          "type": "bytes32"
        },
        {
          "internalType": "address",
          "name": "account",
          "type": "address"
        }
      ],
      "name": "hasRole",
      "outputs": [
        {
          "internalType": "bool",
          "name": "",
          "type": "bool"
        }
      ],
      "stateMutability": "view",
      "type": "function",
      "constant": true
    },
    {
      "inputs": [
        {
          "internalType": "address",
          "name": "account",
          "type": "address"
        }
      ],
      "name": "hasStudentRole",
      "outputs": [
        {
          "internalType": "bool",
          "name": "",
          "type": "bool"
        }
      ],
      "stateMutability": "view",
      "type": "function",
      "constant": true
    },
    {
      "inputs": [
        {
          "internalType": "address",
          "name": "owner",
          "type": "address"
        },
        {
          "internalType": "address",
          "name": "operator",
          "type": "address"
        }
      ],
      "name": "isApprovedForAll",
      "outputs": [
        {
          "internalType": "bool",
          "name": "",
          "type": "bool"
        }
      ],
      "stateMutability": "view",
      "type": "function",
      "constant": true
    },
    {
      "inputs": [],
      "name": "name",
      "outputs": [
        {
          "internalType": "string",
          "name": "",
          "type": "string"
        }
      ],
      "stateMutability": "view",
      "type": "function",
      "constant": true
    },
    {
      "inputs": [
        {
          "internalType": "uint256",
          "name": "tokenId",
          "type": "uint256"
        }
      ],
      "name": "ownerOf",
      "outputs": [
        {
          "internalType": "address",
          "name": "",
          "type": "address"
        }
      ],
      "stateMutability": "view",
      "type": "function",
      "constant": true
    },
    {
      "inputs": [
        {
          "internalType": "bytes32",
          "name": "role",
          "type": "bytes32"
        },
        {
          "internalType": "address",
          "name": "account",
          "type": "address"
        }
      ],
      "name": "renounceRole",
      "outputs": [],
      "stateMutability": "nonpayable",
      "type": "function"
    },
    {
      "inputs": [
        {
          "internalType": "address",
          "name": "account",
          "type": "address"
        }
      ],
      "name": "revokeDepartmentRole",
      "outputs": [],
      "stateMutability": "nonpayable",
      "type": "function"
    },
    {
      "inputs": [
        {
          "internalType": "address",
          "name": "account",
          "type": "address"
        }
      ],
      "name": "revokeFacultyRole",
      "outputs": [],
      "stateMutability": "nonpayable",
      "type": "function"
    },
    {
      "inputs": [
        {
          "internalType": "address",
          "name": "account",
          "type": "address"
        }
      ],
      "name": "revokeInstructorRole",
      "outputs": [],
      "stateMutability": "nonpayable",
      "type": "function"
    },
    {
      "inputs": [
        {
          "internalType": "bytes32",
          "name": "role",
          "type": "bytes32"
        },
        {
          "internalType": "address",
          "name": "account",
          "type": "address"
        }
      ],
      "name": "revokeRole",
      "outputs": [],
      "stateMutability": "nonpayable",
      "type": "function"
    },
    {
      "inputs": [
        {
          "internalType": "address",
          "name": "account",
          "type": "address"
        }
      ],
      "name": "revokeStudentRole",
      "outputs": [],
      "stateMutability": "nonpayable",
      "type": "function"
    },
    {
      "inputs": [
        {
          "internalType": "address",
          "name": "operator",
          "type": "address"
        },
        {
          "internalType": "bool",
          "name": "approved",
          "type": "bool"
        }
      ],
      "name": "setApprovalForAll",
      "outputs": [],
      "stateMutability": "nonpayable",
      "type": "function"
    },
    {
      "inputs": [],
      "name": "symbol",
      "outputs": [
        {
          "internalType": "string",
          "name": "",
          "type": "string"
        }
      ],
      "stateMutability": "view",
      "type": "function",
      "constant": true
    },
    {
      "inputs": [
        {
          "internalType": "uint256",
          "name": "tokenId",
          "type": "uint256"
        }
      ],
      "name": "tokenURI",
      "outputs": [
        {
          "internalType": "string",
          "name": "",
          "type": "string"
        }
      ],
      "stateMutability": "view",
      "type": "function",
      "constant": true
    },
    {
      "inputs": [
        {
          "internalType": "string",
          "name": "_courseLink",
          "type": "string"
        },
        {
          "internalType": "address",
          "name": "instructorAddress",
          "type": "address"
        }
      ],
      "name": "mint",
      "outputs": [],
      "stateMutability": "nonpayable",
      "type": "function"
    },
    {
      "inputs": [],
      "name": "getCourseLinks",
      "outputs": [
        {
          "internalType": "string[]",
          "name": "courseLinks",
          "type": "string[]"
        }
      ],
      "stateMutability": "view",
      "type": "function",
      "constant": true
    },
    {
      "inputs": [
        {
          "internalType": "address",
          "name": "instructorAddress",
          "type": "address"
        }
      ],
      "name": "getGivesCourses",
      "outputs": [
        {
          "internalType": "uint256[]",
          "name": "givesCourses",
          "type": "uint256[]"
        }
      ],
      "stateMutability": "view",
      "type": "function",
      "constant": true
    },
    {
      "inputs": [
        {
          "internalType": "address",
          "name": "from",
          "type": "address"
        },
        {
          "internalType": "address",
          "name": "to",
          "type": "address"
        },
        {
          "internalType": "uint256",
          "name": "tokenId",
          "type": "uint256"
        }
      ],
      "name": "transferFrom",
      "outputs": [],
      "stateMutability": "nonpayable",
      "type": "function"
    },
    {
      "inputs": [
        {
          "internalType": "address",
          "name": "from",
          "type": "address"
        },
        {
          "internalType": "address",
          "name": "to",
          "type": "address"
        },
        {
          "internalType": "uint256",
          "name": "tokenId",
          "type": "uint256"
        }
      ],
      "name": "safeTransferFrom",
      "outputs": [],
      "stateMutability": "nonpayable",
      "type": "function"
    },
    {
      "inputs": [
        {
          "internalType": "address",
          "name": "from",
          "type": "address"
        },
        {
          "internalType": "address",
          "name": "to",
          "type": "address"
        },
        {
          "internalType": "uint256",
          "name": "tokenId",
          "type": "uint256"
        },
        {
          "internalType": "bytes",
          "name": "_data",
          "type": "bytes"
        }
      ],
      "name": "safeTransferFrom",
      "outputs": [],
      "stateMutability": "nonpayable",
      "type": "function"
    },
    {
      "inputs": [
        {
          "internalType": "bytes4",
          "name": "interfaceId",
          "type": "bytes4"
        }
      ],
      "name": "supportsInterface",
      "outputs": [
        {
          "internalType": "bool",
          "name": "",
          "type": "bool"
        }
      ],
      "stateMutability": "view",
      "type": "function",
      "constant": true
    }
  ],
  "bytecode": "0x60806040523480156200001157600080fd5b506040518060400160405280600681526020017f436f7572736500000000000000000000000000000000000000000000000000008152506040518060400160405280600381526020017f435253000000000000000000000000000000000000000000000000000000000081525081600090805190602001906200009692919062000397565b508060019080519060200190620000af92919062000397565b505050620000c76000801b33620000ff60201b60201c565b620000f97f5f1d1e303f9c0a1801dd708bdc4239781d66c88ca6cb941c5769ba09b5c1b28533620000ff60201b60201c565b620004ac565b6200011182826200011560201b60201c565b5050565b6200012c82826200015d60201b620022241760201c565b6200015881600760008581526020019081526020016000206200024f60201b620023051790919060201c565b505050565b6200016f82826200028760201b60201c565b6200024b5760016006600084815260200190815260200160002060000160008373ffffffffffffffffffffffffffffffffffffffff1673ffffffffffffffffffffffffffffffffffffffff16815260200190815260200160002060006101000a81548160ff021916908315150217905550620001f0620002f260201b60201c565b73ffffffffffffffffffffffffffffffffffffffff168173ffffffffffffffffffffffffffffffffffffffff16837f2f8788117e7eff1d82e926ec794901d17c78024a50270940304540a733656f0d60405160405180910390a45b5050565b60006200027f836000018373ffffffffffffffffffffffffffffffffffffffff1660001b620002fa60201b60201c565b905092915050565b60006006600084815260200190815260200160002060000160008373ffffffffffffffffffffffffffffffffffffffff1673ffffffffffffffffffffffffffffffffffffffff16815260200190815260200160002060009054906101000a900460ff16905092915050565b600033905090565b60006200030e83836200037460201b60201c565b620003695782600001829080600181540180825580915050600190039060005260206000200160009091909190915055826000018054905083600101600084815260200190815260200160002081905550600190506200036e565b600090505b92915050565b600080836001016000848152602001908152602001600020541415905092915050565b828054620003a59062000476565b90600052602060002090601f016020900481019282620003c9576000855562000415565b82601f10620003e457805160ff191683800117855562000415565b8280016001018555821562000415579182015b8281111562000414578251825591602001919060010190620003f7565b5b50905062000424919062000428565b5090565b5b808211156200044357600081600090555060010162000429565b5090565b7f4e487b7100000000000000000000000000000000000000000000000000000000600052602260045260246000fd5b600060028204905060018216806200048f57607f821691505b60208210811415620004a657620004a562000447565b5b50919050565b61550080620004bc6000396000f3fe608060405234801561001057600080fd5b506004361061030c5760003560e01c806386f8e92c1161019d578063b9447051116100e9578063e17f6b2c116100a2578063f1d064b31161007c578063f1d064b3146109ab578063f7be43fb146109c9578063f800f1fc146109e7578063fc3ba6b414610a055761030c565b8063e17f6b2c1461091b578063e78af7c51461094b578063e985e9c51461097b5761030c565b8063b944705114610849578063c87b56dd14610865578063c94d10ad14610895578063ca15c873146108b1578063cf19b6f2146108e1578063d547741f146108ff5761030c565b80639822a59911610156578063a22cb46511610130578063a22cb465146107d5578063a6faa962146107f1578063ad7be93a1461080f578063b88d4fde1461082d5761030c565b80639822a59914610769578063996dc02214610799578063a217fddf146107b75761030c565b806386f8e92c146106955780638bcf979c146106b15780638df6674a146106cf5780639010d07c146106eb57806391d148541461071b57806395d89b411461074b5761030c565b80632f2ff15d1161025c5780635ea07b1c116102155780636352211e116101ef5780636352211e146105e75780636fe3ceb81461061757806370a08231146106355780637168c27d146106655761030c565b80635ea07b1c146105915780635eff7dae146105ad5780635f1d514e146105cb5761030c565b80632f2ff15d146104e757806332b3c8461461050357806336568abe1461051f57806342842e0e1461053b578063529f790c146105575780635c26b7ca146105735761030c565b80630c6da2f7116102c957806323b872dd116102a357806323b872dd1461044d578063248a9ca31461046957806324d42a37146104995780632be7dc44146104b75761030c565b80630c6da2f7146103f757806312fb59f2146104155780631c351a9d146104315761030c565b806301ffc9a7146103115780630252dffc1461034157806306fdde031461035d578063081812fc1461037b578063095ea7b3146103ab5780630baf40e3146103c7575b600080fd5b61032b60048036038101906103269190613af5565b610a35565b6040516103389190613b3d565b60405180910390f35b61035b60048036038101906103569190613bb6565b610a47565b005b610365610ab3565b6040516103729190613c7c565b60405180910390f35b61039560048036038101906103909190613cd4565b610b45565b6040516103a29190613d10565b60405180910390f35b6103c560048036038101906103c09190613d2b565b610bca565b005b6103e160048036038101906103dc9190613bb6565b610ce2565b6040516103ee9190613e29565b60405180910390f35b6103ff610d79565b60405161040c9190613f09565b60405180910390f35b61042f600480360381019061042a9190613bb6565b610e07565b005b61044b60048036038101906104469190614060565b610eca565b005b610467600480360381019061046291906140bc565b611091565b005b610483600480360381019061047e9190614145565b611110565b6040516104909190614181565b60405180910390f35b6104a1611130565b6040516104ae9190614181565b60405180910390f35b6104d160048036038101906104cc9190613bb6565b611154565b6040516104de9190613b3d565b60405180910390f35b61050160048036038101906104fc919061419c565b611187565b005b61051d60048036038101906105189190613bb6565b6111b0565b005b6105396004803603810190610534919061419c565b61121c565b005b610555600480360381019061055091906140bc565b61129f565b005b610571600480360381019061056c9190613bb6565b61131e565b005b61057b6113e1565b6040516105889190613f09565b60405180910390f35b6105ab60048036038101906105a69190613bb6565b61146f565b005b6105b56115c5565b6040516105c29190613f09565b60405180910390f35b6105e560048036038101906105e09190613bb6565b611653565b005b61060160048036038101906105fc9190613cd4565b611716565b60405161060e9190613d10565b60405180910390f35b61061f6117c8565b60405161062c9190614181565b60405180910390f35b61064f600480360381019061064a9190613bb6565b6117ec565b60405161065c91906141eb565b60405180910390f35b61067f600480360381019061067a9190613bb6565b6118a4565b60405161068c9190613b3d565b60405180910390f35b6106af60048036038101906106aa9190613bb6565b6118d7565b005b6106b9611943565b6040516106c69190614181565b60405180910390f35b6106e960048036038101906106e49190613bb6565b611967565b005b61070560048036038101906107009190614206565b611a4c565b6040516107129190613d10565b60405180910390f35b6107356004803603810190610730919061419c565b611a7b565b6040516107429190613b3d565b60405180910390f35b610753611ae6565b6040516107609190613c7c565b60405180910390f35b610783600480360381019061077e9190613bb6565b611b78565b6040516107909190613b3d565b60405180910390f35b6107a1611bab565b6040516107ae9190614181565b60405180910390f35b6107bf611bcf565b6040516107cc9190614181565b60405180910390f35b6107ef60048036038101906107ea9190614272565b611bd6565b005b6107f9611bec565b60405161080691906143be565b60405180910390f35b610817611cc5565b6040516108249190614181565b60405180910390f35b61084760048036038101906108429190614481565b611ce9565b005b610863600480360381019061085e9190613bb6565b611d6a565b005b61087f600480360381019061087a9190613cd4565b611dd6565b60405161088c9190613c7c565b60405180910390f35b6108af60048036038101906108aa9190613bb6565b611e7d565b005b6108cb60048036038101906108c69190614145565b611f40565b6040516108d891906141eb565b60405180910390f35b6108e9611f64565b6040516108f69190613d10565b60405180910390f35b6109196004803603810190610914919061419c565b611f8e565b005b61093560048036038101906109309190613bb6565b611fb7565b6040516109429190613b3d565b60405180910390f35b61096560048036038101906109609190613bb6565b611fea565b6040516109729190613b3d565b60405180910390f35b61099560048036038101906109909190614504565b61201d565b6040516109a29190613b3d565b60405180910390f35b6109b36120b1565b6040516109c09190613f09565b60405180910390f35b6109d161213f565b6040516109de9190614181565b60405180910390f35b6109ef612163565b6040516109fc9190613f09565b60405180910390f35b610a1f6004803603810190610a1a9190613bb6565b6121f1565b604051610a2c9190613b3d565b60405180910390f35b6000610a4082612335565b9050919050565b7f5f1d1e303f9c0a1801dd708bdc4239781d66c88ca6cb941c5769ba09b5c1b285610a7981610a746123af565b6123b7565b610aa37fe7837d04f36ce0b2f3cc662bf1b2b632a7fbd12ae95199e8bd3dcfbcc440b66b83611f8e565b610aae82600a612454565b505050565b606060008054610ac290614573565b80601f0160208091040260200160405190810160405280929190818152602001828054610aee90614573565b8015610b3b5780601f10610b1057610100808354040283529160200191610b3b565b820191906000526020600020905b815481529060010190602001808311610b1e57829003601f168201915b5050505050905090565b6000610b5082612668565b610b8f576040517f08c379a0000000000000000000000000000000000000000000000000000000008152600401610b8690614617565b60405180910390fd5b6004600083815260200190815260200160002060009054906101000a900473ffffffffffffffffffffffffffffffffffffffff169050919050565b6000610bd582611716565b90508073ffffffffffffffffffffffffffffffffffffffff168373ffffffffffffffffffffffffffffffffffffffff161415610c46576040517f08c379a0000000000000000000000000000000000000000000000000000000008152600401610c3d906146a9565b60405180910390fd5b8073ffffffffffffffffffffffffffffffffffffffff16610c656123af565b73ffffffffffffffffffffffffffffffffffffffff161480610c945750610c9381610c8e6123af565b61201d565b5b610cd3576040517f08c379a0000000000000000000000000000000000000000000000000000000008152600401610cca9061473b565b60405180910390fd5b610cdd83836126d4565b505050565b6060600e60008373ffffffffffffffffffffffffffffffffffffffff1673ffffffffffffffffffffffffffffffffffffffff168152602001908152602001600020805480602002602001604051908101604052809291908181526020018280548015610d6d57602002820191906000526020600020905b815481526020019060010190808311610d59575b50505050509050919050565b60606009805480602002602001604051908101604052809291908181526020018280548015610dfd57602002820191906000526020600020905b8160009054906101000a900473ffffffffffffffffffffffffffffffffffffffff1673ffffffffffffffffffffffffffffffffffffffff1681526020019060010190808311610db3575b5050505050905090565b7f5f1d1e303f9c0a1801dd708bdc4239781d66c88ca6cb941c5769ba09b5c1b285610e3981610e346123af565b6123b7565b610e637fe7837d04f36ce0b2f3cc662bf1b2b632a7fbd12ae95199e8bd3dcfbcc440b66b83611187565b600a829080600181540180825580915050600190039060005260206000200160009091909190916101000a81548173ffffffffffffffffffffffffffffffffffffffff021916908373ffffffffffffffffffffffffffffffffffffffff1602179055505050565b601182604051610eda9190614797565b908152602001604051809103902060009054906101000a900460ff1615610f36576040517f08c379a0000000000000000000000000000000000000000000000000000000008152600401610f2d906147fa565b60405180910390fd5b610f607fae4a0595970935aa5495afbbb72e5f1f6ff1062766b4a3028c0c9b7d5cf7e34582611a7b565b610f9f576040517f08c379a0000000000000000000000000000000000000000000000000000000008152600401610f969061488c565b60405180910390fd5b601282908060018154018082558091505060019003906000526020600020016000909190919091509080519060200190610fda9291906139e6565b5060006012805490509050610fef828261278d565b60016011846040516110019190614797565b908152602001604051809103902060006101000a81548160ff021916908315150217905550600e60008373ffffffffffffffffffffffffffffffffffffffff1673ffffffffffffffffffffffffffffffffffffffff168152602001908152602001600020819080600181540180825580915050600190039060005260206000200160009091909190915055505050565b600073ffffffffffffffffffffffffffffffffffffffff163373ffffffffffffffffffffffffffffffffffffffff1614611100576040517f08c379a00000000000000000000000000000000000000000000000000000000081526004016110f79061491e565b60405180910390fd5b61110b83838361295b565b505050565b600060066000838152602001908152602001600020600101549050919050565b7f5f1d1e303f9c0a1801dd708bdc4239781d66c88ca6cb941c5769ba09b5c1b28581565b60006111807f5f1d1e303f9c0a1801dd708bdc4239781d66c88ca6cb941c5769ba09b5c1b28583611a7b565b9050919050565b61119082611110565b6111a18161119c6123af565b6123b7565b6111ab83836129bb565b505050565b7f5f1d1e303f9c0a1801dd708bdc4239781d66c88ca6cb941c5769ba09b5c1b2856111e2816111dd6123af565b6123b7565b61120c7f36a5c4aaacb6b388bbd448bf11096b7dafc5652bcc9046084fd0e95b1fb0b2cc83611f8e565b61121782600c612454565b505050565b6112246123af565b73ffffffffffffffffffffffffffffffffffffffff168173ffffffffffffffffffffffffffffffffffffffff1614611291576040517f08c379a0000000000000000000000000000000000000000000000000000000008152600401611288906149b0565b60405180910390fd5b61129b82826129ef565b5050565b600073ffffffffffffffffffffffffffffffffffffffff163373ffffffffffffffffffffffffffffffffffffffff161461130e576040517f08c379a00000000000000000000000000000000000000000000000000000000081526004016113059061491e565b60405180910390fd5b611319838383612a23565b505050565b7f5f1d1e303f9c0a1801dd708bdc4239781d66c88ca6cb941c5769ba09b5c1b2856113508161134b6123af565b6123b7565b61137a7ff3f9cfff7b46f415da5a492b1718971da203f87c6aae9299e7b408eb83ef8bee83611187565b6009829080600181540180825580915050600190039060005260206000200160009091909190916101000a81548173ffffffffffffffffffffffffffffffffffffffff021916908373ffffffffffffffffffffffffffffffffffffffff1602179055505050565b6060600a80548060200260200160405190810160405280929190818152602001828054801561146557602002820191906000526020600020905b8160009054906101000a900473ffffffffffffffffffffffffffffffffffffffff1673ffffffffffffffffffffffffffffffffffffffff168152602001906001019080831161141b575b5050505050905090565b7f5f1d1e303f9c0a1801dd708bdc4239781d66c88ca6cb941c5769ba09b5c1b2856114a18161149c6123af565b6123b7565b6114cb7f36a5c4aaacb6b388bbd448bf11096b7dafc5652bcc9046084fd0e95b1fb0b2cc83611a7b565b61150a576040517f08c379a000000000000000000000000000000000000000000000000000000000815260040161150190614a1c565b60405180910390fd5b6115347f36a5c4aaacb6b388bbd448bf11096b7dafc5652bcc9046084fd0e95b1fb0b2cc83611f8e565b61155e7f4758f7d70d6088cbfad5c79861ac6457ba2af02adf5ea419e97879ae24459cb683611187565b600d829080600181540180825580915050600190039060005260206000200160009091909190916101000a81548173ffffffffffffffffffffffffffffffffffffffff021916908373ffffffffffffffffffffffffffffffffffffffff1602179055505050565b6060600b80548060200260200160405190810160405280929190818152602001828054801561164957602002820191906000526020600020905b8160009054906101000a900473ffffffffffffffffffffffffffffffffffffffff1673ffffffffffffffffffffffffffffffffffffffff16815260200190600101908083116115ff575b5050505050905090565b7f5f1d1e303f9c0a1801dd708bdc4239781d66c88ca6cb941c5769ba09b5c1b285611685816116806123af565b6123b7565b6116af7fae4a0595970935aa5495afbbb72e5f1f6ff1062766b4a3028c0c9b7d5cf7e34583611187565b600b829080600181540180825580915050600190039060005260206000200160009091909190916101000a81548173ffffffffffffffffffffffffffffffffffffffff021916908373ffffffffffffffffffffffffffffffffffffffff1602179055505050565b6000806002600084815260200190815260200160002060009054906101000a900473ffffffffffffffffffffffffffffffffffffffff169050600073ffffffffffffffffffffffffffffffffffffffff168173ffffffffffffffffffffffffffffffffffffffff1614156117bf576040517f08c379a00000000000000000000000000000000000000000000000000000000081526004016117b690614aae565b60405180910390fd5b80915050919050565b7ff3f9cfff7b46f415da5a492b1718971da203f87c6aae9299e7b408eb83ef8bee81565b60008073ffffffffffffffffffffffffffffffffffffffff168273ffffffffffffffffffffffffffffffffffffffff16141561185d576040517f08c379a000000000000000000000000000000000000000000000000000000000815260040161185490614b40565b60405180910390fd5b600360008373ffffffffffffffffffffffffffffffffffffffff1673ffffffffffffffffffffffffffffffffffffffff168152602001908152602001600020549050919050565b60006118d07f4758f7d70d6088cbfad5c79861ac6457ba2af02adf5ea419e97879ae24459cb683611a7b565b9050919050565b7f5f1d1e303f9c0a1801dd708bdc4239781d66c88ca6cb941c5769ba09b5c1b285611909816119046123af565b6123b7565b6119337fae4a0595970935aa5495afbbb72e5f1f6ff1062766b4a3028c0c9b7d5cf7e34583611f8e565b61193e82600b612454565b505050565b7fae4a0595970935aa5495afbbb72e5f1f6ff1062766b4a3028c0c9b7d5cf7e34581565b7f5f1d1e303f9c0a1801dd708bdc4239781d66c88ca6cb941c5769ba09b5c1b285611999816119946123af565b6123b7565b6119c37f5f1d1e303f9c0a1801dd708bdc4239781d66c88ca6cb941c5769ba09b5c1b28583611187565b6119d06000801b83611187565b6119dd6000801b3361121c565b611a077f5f1d1e303f9c0a1801dd708bdc4239781d66c88ca6cb941c5769ba09b5c1b2853361121c565b81600860006101000a81548173ffffffffffffffffffffffffffffffffffffffff021916908373ffffffffffffffffffffffffffffffffffffffff1602179055505050565b6000611a738260076000868152602001908152602001600020612a4390919063ffffffff16565b905092915050565b60006006600084815260200190815260200160002060000160008373ffffffffffffffffffffffffffffffffffffffff1673ffffffffffffffffffffffffffffffffffffffff16815260200190815260200160002060009054906101000a900460ff16905092915050565b606060018054611af590614573565b80601f0160208091040260200160405190810160405280929190818152602001828054611b2190614573565b8015611b6e5780601f10611b4357610100808354040283529160200191611b6e565b820191906000526020600020905b815481529060010190602001808311611b5157829003601f168201915b5050505050905090565b6000611ba47fae4a0595970935aa5495afbbb72e5f1f6ff1062766b4a3028c0c9b7d5cf7e34583611a7b565b9050919050565b7fe7837d04f36ce0b2f3cc662bf1b2b632a7fbd12ae95199e8bd3dcfbcc440b66b81565b6000801b81565b611be8611be16123af565b8383612a5d565b5050565b60606012805480602002602001604051908101604052809291908181526020016000905b82821015611cbc578382906000526020600020018054611c2f90614573565b80601f0160208091040260200160405190810160405280929190818152602001828054611c5b90614573565b8015611ca85780601f10611c7d57610100808354040283529160200191611ca8565b820191906000526020600020905b815481529060010190602001808311611c8b57829003601f168201915b505050505081526020019060010190611c10565b50505050905090565b7f4758f7d70d6088cbfad5c79861ac6457ba2af02adf5ea419e97879ae24459cb681565b600073ffffffffffffffffffffffffffffffffffffffff163373ffffffffffffffffffffffffffffffffffffffff1614611d58576040517f08c379a0000000000000000000000000000000000000000000000000000000008152600401611d4f9061491e565b60405180910390fd5b611d6484848484612bca565b50505050565b7f5f1d1e303f9c0a1801dd708bdc4239781d66c88ca6cb941c5769ba09b5c1b285611d9c81611d976123af565b6123b7565b611dc67ff3f9cfff7b46f415da5a492b1718971da203f87c6aae9299e7b408eb83ef8bee83611f8e565b611dd1826009612454565b505050565b6060611de182612668565b611e20576040517f08c379a0000000000000000000000000000000000000000000000000000000008152600401611e1790614bd2565b60405180910390fd5b6000611e2a612c2c565b90506000815111611e4a5760405180602001604052806000815250611e75565b80611e5484612c43565b604051602001611e65929190614bf2565b6040516020818303038152906040525b915050919050565b7f5f1d1e303f9c0a1801dd708bdc4239781d66c88ca6cb941c5769ba09b5c1b285611eaf81611eaa6123af565b6123b7565b611ed97f36a5c4aaacb6b388bbd448bf11096b7dafc5652bcc9046084fd0e95b1fb0b2cc83611187565b600c829080600181540180825580915050600190039060005260206000200160009091909190916101000a81548173ffffffffffffffffffffffffffffffffffffffff021916908373ffffffffffffffffffffffffffffffffffffffff1602179055505050565b6000611f5d60076000848152602001908152602001600020612da4565b9050919050565b6000600860009054906101000a900473ffffffffffffffffffffffffffffffffffffffff16905090565b611f9782611110565b611fa881611fa36123af565b6123b7565b611fb283836129ef565b505050565b6000611fe37fe7837d04f36ce0b2f3cc662bf1b2b632a7fbd12ae95199e8bd3dcfbcc440b66b83611a7b565b9050919050565b60006120167ff3f9cfff7b46f415da5a492b1718971da203f87c6aae9299e7b408eb83ef8bee83611a7b565b9050919050565b6000600560008473ffffffffffffffffffffffffffffffffffffffff1673ffffffffffffffffffffffffffffffffffffffff16815260200190815260200160002060008373ffffffffffffffffffffffffffffffffffffffff1673ffffffffffffffffffffffffffffffffffffffff16815260200190815260200160002060009054906101000a900460ff16905092915050565b6060600c80548060200260200160405190810160405280929190818152602001828054801561213557602002820191906000526020600020905b8160009054906101000a900473ffffffffffffffffffffffffffffffffffffffff1673ffffffffffffffffffffffffffffffffffffffff16815260200190600101908083116120eb575b5050505050905090565b7f36a5c4aaacb6b388bbd448bf11096b7dafc5652bcc9046084fd0e95b1fb0b2cc81565b6060600d8054806020026020016040519081016040528092919081815260200182805480156121e757602002820191906000526020600020905b8160009054906101000a900473ffffffffffffffffffffffffffffffffffffffff1673ffffffffffffffffffffffffffffffffffffffff168152602001906001019080831161219d575b5050505050905090565b600061221d7f36a5c4aaacb6b388bbd448bf11096b7dafc5652bcc9046084fd0e95b1fb0b2cc83611a7b565b9050919050565b61222e8282611a7b565b6123015760016006600084815260200190815260200160002060000160008373ffffffffffffffffffffffffffffffffffffffff1673ffffffffffffffffffffffffffffffffffffffff16815260200190815260200160002060006101000a81548160ff0219169083151502179055506122a66123af565b73ffffffffffffffffffffffffffffffffffffffff168173ffffffffffffffffffffffffffffffffffffffff16837f2f8788117e7eff1d82e926ec794901d17c78024a50270940304540a733656f0d60405160405180910390a45b5050565b600061232d836000018373ffffffffffffffffffffffffffffffffffffffff1660001b612db9565b905092915050565b60007f5a05180f000000000000000000000000000000000000000000000000000000007bffffffffffffffffffffffffffffffffffffffffffffffffffffffff1916827bffffffffffffffffffffffffffffffffffffffffffffffffffffffff191614806123a857506123a782612e29565b5b9050919050565b600033905090565b6123c18282611a7b565b612450576123e68173ffffffffffffffffffffffffffffffffffffffff166014612ea3565b6123f48360001c6020612ea3565b604051602001612405929190614cae565b6040516020818303038152906040526040517f08c379a00000000000000000000000000000000000000000000000000000000081526004016124479190613c7c565b60405180910390fd5b5050565b606060005b82805490508110156125d9578373ffffffffffffffffffffffffffffffffffffffff1683828154811061248f5761248e614ce8565b5b9060005260206000200160009054906101000a900473ffffffffffffffffffffffffffffffffffffffff1673ffffffffffffffffffffffffffffffffffffffff1614156125c65782600184805490506124e89190614d46565b815481106124f9576124f8614ce8565b5b9060005260206000200160009054906101000a900473ffffffffffffffffffffffffffffffffffffffff1683828154811061253757612536614ce8565b5b9060005260206000200160006101000a81548173ffffffffffffffffffffffffffffffffffffffff021916908373ffffffffffffffffffffffffffffffffffffffff160217905550828054806125905761258f614d7a565b5b6001900381819060005260206000200160006101000a81549073ffffffffffffffffffffffffffffffffffffffff021916905590555b80806125d190614da9565b915050612459565b508180548060200260200160405190810160405280929190818152602001828054801561265b57602002820191906000526020600020905b8160009054906101000a900473ffffffffffffffffffffffffffffffffffffffff1673ffffffffffffffffffffffffffffffffffffffff1681526020019060010190808311612611575b5050505050905092915050565b60008073ffffffffffffffffffffffffffffffffffffffff166002600084815260200190815260200160002060009054906101000a900473ffffffffffffffffffffffffffffffffffffffff1673ffffffffffffffffffffffffffffffffffffffff1614159050919050565b816004600083815260200190815260200160002060006101000a81548173ffffffffffffffffffffffffffffffffffffffff021916908373ffffffffffffffffffffffffffffffffffffffff160217905550808273ffffffffffffffffffffffffffffffffffffffff1661274783611716565b73ffffffffffffffffffffffffffffffffffffffff167f8c5be1e5ebec7d5bd14f71427d1e84f3dd0314c0f7b2291e5b200ac8c7c3b92560405160405180910390a45050565b600073ffffffffffffffffffffffffffffffffffffffff168273ffffffffffffffffffffffffffffffffffffffff1614156127fd576040517f08c379a00000000000000000000000000000000000000000000000000000000081526004016127f490614e3e565b60405180910390fd5b61280681612668565b15612846576040517f08c379a000000000000000000000000000000000000000000000000000000000815260040161283d90614eaa565b60405180910390fd5b612852600083836130df565b6001600360008473ffffffffffffffffffffffffffffffffffffffff1673ffffffffffffffffffffffffffffffffffffffff16815260200190815260200160002060008282546128a29190614eca565b92505081905550816002600083815260200190815260200160002060006101000a81548173ffffffffffffffffffffffffffffffffffffffff021916908373ffffffffffffffffffffffffffffffffffffffff160217905550808273ffffffffffffffffffffffffffffffffffffffff16600073ffffffffffffffffffffffffffffffffffffffff167fddf252ad1be2c89b69c2b068fc378daa952ba7f163c4a11628f55a4df523b3ef60405160405180910390a45050565b61296c6129666123af565b826130e4565b6129ab576040517f08c379a00000000000000000000000000000000000000000000000000000000081526004016129a290614f92565b60405180910390fd5b6129b68383836131c2565b505050565b6129c58282612224565b6129ea816007600085815260200190815260200160002061230590919063ffffffff16565b505050565b6129f9828261341e565b612a1e816007600085815260200190815260200160002061350090919063ffffffff16565b505050565b612a3e83838360405180602001604052806000815250611ce9565b505050565b6000612a528360000183613530565b60001c905092915050565b8173ffffffffffffffffffffffffffffffffffffffff168373ffffffffffffffffffffffffffffffffffffffff161415612acc576040517f08c379a0000000000000000000000000000000000000000000000000000000008152600401612ac390614ffe565b60405180910390fd5b80600560008573ffffffffffffffffffffffffffffffffffffffff1673ffffffffffffffffffffffffffffffffffffffff16815260200190815260200160002060008473ffffffffffffffffffffffffffffffffffffffff1673ffffffffffffffffffffffffffffffffffffffff16815260200190815260200160002060006101000a81548160ff0219169083151502179055508173ffffffffffffffffffffffffffffffffffffffff168373ffffffffffffffffffffffffffffffffffffffff167f17307eab39ab6107e8899845ad3d59bd9653f200f220920489ca2b5937696c3183604051612bbd9190613b3d565b60405180910390a3505050565b612bdb612bd56123af565b836130e4565b612c1a576040517f08c379a0000000000000000000000000000000000000000000000000000000008152600401612c1190614f92565b60405180910390fd5b612c268484848461355b565b50505050565b606060405180602001604052806000815250905090565b60606000821415612c8b576040518060400160405280600181526020017f30000000000000000000000000000000000000000000000000000000000000008152509050612d9f565b600082905060005b60008214612cbd578080612ca690614da9565b915050600a82612cb6919061504d565b9150612c93565b60008167ffffffffffffffff811115612cd957612cd8613f35565b5b6040519080825280601f01601f191660200182016040528015612d0b5781602001600182028036833780820191505090505b5090505b60008514612d9857600182612d249190614d46565b9150600a85612d33919061507e565b6030612d3f9190614eca565b60f81b818381518110612d5557612d54614ce8565b5b60200101907effffffffffffffffffffffffffffffffffffffffffffffffffffffffffffff1916908160001a905350600a85612d91919061504d565b9450612d0f565b8093505050505b919050565b6000612db2826000016135b7565b9050919050565b6000612dc583836135c8565b612e1e578260000182908060018154018082558091505060019003906000526020600020016000909190919091505582600001805490508360010160008481526020019081526020016000208190555060019050612e23565b600090505b92915050565b60007f7965db0b000000000000000000000000000000000000000000000000000000007bffffffffffffffffffffffffffffffffffffffffffffffffffffffff1916827bffffffffffffffffffffffffffffffffffffffffffffffffffffffff19161480612e9c5750612e9b826135eb565b5b9050919050565b606060006002836002612eb691906150af565b612ec09190614eca565b67ffffffffffffffff811115612ed957612ed8613f35565b5b6040519080825280601f01601f191660200182016040528015612f0b5781602001600182028036833780820191505090505b5090507f300000000000000000000000000000000000000000000000000000000000000081600081518110612f4357612f42614ce8565b5b60200101907effffffffffffffffffffffffffffffffffffffffffffffffffffffffffffff1916908160001a9053507f780000000000000000000000000000000000000000000000000000000000000081600181518110612fa757612fa6614ce8565b5b60200101907effffffffffffffffffffffffffffffffffffffffffffffffffffffffffffff1916908160001a90535060006001846002612fe791906150af565b612ff19190614eca565b90505b6001811115613091577f3031323334353637383961626364656600000000000000000000000000000000600f86166010811061303357613032614ce8565b5b1a60f81b82828151811061304a57613049614ce8565b5b60200101907effffffffffffffffffffffffffffffffffffffffffffffffffffffffffffff1916908160001a905350600485901c94508061308a90615109565b9050612ff4565b50600084146130d5576040517f08c379a00000000000000000000000000000000000000000000000000000000081526004016130cc9061517f565b60405180910390fd5b8091505092915050565b505050565b60006130ef82612668565b61312e576040517f08c379a000000000000000000000000000000000000000000000000000000000815260040161312590615211565b60405180910390fd5b600061313983611716565b90508073ffffffffffffffffffffffffffffffffffffffff168473ffffffffffffffffffffffffffffffffffffffff1614806131a857508373ffffffffffffffffffffffffffffffffffffffff1661319084610b45565b73ffffffffffffffffffffffffffffffffffffffff16145b806131b957506131b8818561201d565b5b91505092915050565b8273ffffffffffffffffffffffffffffffffffffffff166131e282611716565b73ffffffffffffffffffffffffffffffffffffffff1614613238576040517f08c379a000000000000000000000000000000000000000000000000000000000815260040161322f906152a3565b60405180910390fd5b600073ffffffffffffffffffffffffffffffffffffffff168273ffffffffffffffffffffffffffffffffffffffff1614156132a8576040517f08c379a000000000000000000000000000000000000000000000000000000000815260040161329f90615335565b60405180910390fd5b6132b38383836130df565b6132be6000826126d4565b6001600360008573ffffffffffffffffffffffffffffffffffffffff1673ffffffffffffffffffffffffffffffffffffffff168152602001908152602001600020600082825461330e9190614d46565b925050819055506001600360008473ffffffffffffffffffffffffffffffffffffffff1673ffffffffffffffffffffffffffffffffffffffff16815260200190815260200160002060008282546133659190614eca565b92505081905550816002600083815260200190815260200160002060006101000a81548173ffffffffffffffffffffffffffffffffffffffff021916908373ffffffffffffffffffffffffffffffffffffffff160217905550808273ffffffffffffffffffffffffffffffffffffffff168473ffffffffffffffffffffffffffffffffffffffff167fddf252ad1be2c89b69c2b068fc378daa952ba7f163c4a11628f55a4df523b3ef60405160405180910390a4505050565b6134288282611a7b565b156134fc5760006006600084815260200190815260200160002060000160008373ffffffffffffffffffffffffffffffffffffffff1673ffffffffffffffffffffffffffffffffffffffff16815260200190815260200160002060006101000a81548160ff0219169083151502179055506134a16123af565b73ffffffffffffffffffffffffffffffffffffffff168173ffffffffffffffffffffffffffffffffffffffff16837ff6391f5c32d9c69d2a47ea670b442974b53935d1edc7fd64eb21e047a839171b60405160405180910390a45b5050565b6000613528836000018373ffffffffffffffffffffffffffffffffffffffff1660001b6136cd565b905092915050565b600082600001828154811061354857613547614ce8565b5b9060005260206000200154905092915050565b6135668484846131c2565b613572848484846137e1565b6135b1576040517f08c379a00000000000000000000000000000000000000000000000000000000081526004016135a8906153c7565b60405180910390fd5b50505050565b600081600001805490509050919050565b600080836001016000848152602001908152602001600020541415905092915050565b60007f80ac58cd000000000000000000000000000000000000000000000000000000007bffffffffffffffffffffffffffffffffffffffffffffffffffffffff1916827bffffffffffffffffffffffffffffffffffffffffffffffffffffffff191614806136b657507f5b5e139f000000000000000000000000000000000000000000000000000000007bffffffffffffffffffffffffffffffffffffffffffffffffffffffff1916827bffffffffffffffffffffffffffffffffffffffffffffffffffffffff1916145b806136c657506136c582613969565b5b9050919050565b600080836001016000848152602001908152602001600020549050600081146137d55760006001826136ff9190614d46565b90506000600186600001805490506137179190614d46565b905081811461378657600086600001828154811061373857613737614ce8565b5b906000526020600020015490508087600001848154811061375c5761375b614ce8565b5b90600052602060002001819055508387600101600083815260200190815260200160002081905550505b8560000180548061379a57613799614d7a565b5b6001900381819060005260206000200160009055905585600101600086815260200190815260200160002060009055600193505050506137db565b60009150505b92915050565b60006138028473ffffffffffffffffffffffffffffffffffffffff166139d3565b1561395c578373ffffffffffffffffffffffffffffffffffffffff1663150b7a0261382b6123af565b8786866040518563ffffffff1660e01b815260040161384d949392919061543c565b6020604051808303816000875af192505050801561388957506040513d601f19601f82011682018060405250810190613886919061549d565b60015b61390c573d80600081146138b9576040519150601f19603f3d011682016040523d82523d6000602084013e6138be565b606091505b50600081511415613904576040517f08c379a00000000000000000000000000000000000000000000000000000000081526004016138fb906153c7565b60405180910390fd5b805181602001fd5b63150b7a0260e01b7bffffffffffffffffffffffffffffffffffffffffffffffffffffffff1916817bffffffffffffffffffffffffffffffffffffffffffffffffffffffff191614915050613961565b600190505b949350505050565b60007f01ffc9a7000000000000000000000000000000000000000000000000000000007bffffffffffffffffffffffffffffffffffffffffffffffffffffffff1916827bffffffffffffffffffffffffffffffffffffffffffffffffffffffff1916149050919050565b600080823b905060008111915050919050565b8280546139f290614573565b90600052602060002090601f016020900481019282613a145760008555613a5b565b82601f10613a2d57805160ff1916838001178555613a5b565b82800160010185558215613a5b579182015b82811115613a5a578251825591602001919060010190613a3f565b5b509050613a689190613a6c565b5090565b5b80821115613a85576000816000905550600101613a6d565b5090565b6000604051905090565b600080fd5b600080fd5b60007fffffffff0000000000000000000000000000000000000000000000000000000082169050919050565b613ad281613a9d565b8114613add57600080fd5b50565b600081359050613aef81613ac9565b92915050565b600060208284031215613b0b57613b0a613a93565b5b6000613b1984828501613ae0565b91505092915050565b60008115159050919050565b613b3781613b22565b82525050565b6000602082019050613b526000830184613b2e565b92915050565b600073ffffffffffffffffffffffffffffffffffffffff82169050919050565b6000613b8382613b58565b9050919050565b613b9381613b78565b8114613b9e57600080fd5b50565b600081359050613bb081613b8a565b92915050565b600060208284031215613bcc57613bcb613a93565b5b6000613bda84828501613ba1565b91505092915050565b600081519050919050565b600082825260208201905092915050565b60005b83811015613c1d578082015181840152602081019050613c02565b83811115613c2c576000848401525b50505050565b6000601f19601f8301169050919050565b6000613c4e82613be3565b613c588185613bee565b9350613c68818560208601613bff565b613c7181613c32565b840191505092915050565b60006020820190508181036000830152613c968184613c43565b905092915050565b6000819050919050565b613cb181613c9e565b8114613cbc57600080fd5b50565b600081359050613cce81613ca8565b92915050565b600060208284031215613cea57613ce9613a93565b5b6000613cf884828501613cbf565b91505092915050565b613d0a81613b78565b82525050565b6000602082019050613d256000830184613d01565b92915050565b60008060408385031215613d4257613d41613a93565b5b6000613d5085828601613ba1565b9250506020613d6185828601613cbf565b9150509250929050565b600081519050919050565b600082825260208201905092915050565b6000819050602082019050919050565b613da081613c9e565b82525050565b6000613db28383613d97565b60208301905092915050565b6000602082019050919050565b6000613dd682613d6b565b613de08185613d76565b9350613deb83613d87565b8060005b83811015613e1c578151613e038882613da6565b9750613e0e83613dbe565b925050600181019050613def565b5085935050505092915050565b60006020820190508181036000830152613e438184613dcb565b905092915050565b600081519050919050565b600082825260208201905092915050565b6000819050602082019050919050565b613e8081613b78565b82525050565b6000613e928383613e77565b60208301905092915050565b6000602082019050919050565b6000613eb682613e4b565b613ec08185613e56565b9350613ecb83613e67565b8060005b83811015613efc578151613ee38882613e86565b9750613eee83613e9e565b925050600181019050613ecf565b5085935050505092915050565b60006020820190508181036000830152613f238184613eab565b905092915050565b600080fd5b600080fd5b7f4e487b7100000000000000000000000000000000000000000000000000000000600052604160045260246000fd5b613f6d82613c32565b810181811067ffffffffffffffff82111715613f8c57613f8b613f35565b5b80604052505050565b6000613f9f613a89565b9050613fab8282613f64565b919050565b600067ffffffffffffffff821115613fcb57613fca613f35565b5b613fd482613c32565b9050602081019050919050565b82818337600083830152505050565b6000614003613ffe84613fb0565b613f95565b90508281526020810184848401111561401f5761401e613f30565b5b61402a848285613fe1565b509392505050565b600082601f83011261404757614046613f2b565b5b8135614057848260208601613ff0565b91505092915050565b6000806040838503121561407757614076613a93565b5b600083013567ffffffffffffffff81111561409557614094613a98565b5b6140a185828601614032565b92505060206140b285828601613ba1565b9150509250929050565b6000806000606084860312156140d5576140d4613a93565b5b60006140e386828701613ba1565b93505060206140f486828701613ba1565b925050604061410586828701613cbf565b9150509250925092565b6000819050919050565b6141228161410f565b811461412d57600080fd5b50565b60008135905061413f81614119565b92915050565b60006020828403121561415b5761415a613a93565b5b600061416984828501614130565b91505092915050565b61417b8161410f565b82525050565b60006020820190506141966000830184614172565b92915050565b600080604083850312156141b3576141b2613a93565b5b60006141c185828601614130565b92505060206141d285828601613ba1565b9150509250929050565b6141e581613c9e565b82525050565b600060208201905061420060008301846141dc565b92915050565b6000806040838503121561421d5761421c613a93565b5b600061422b85828601614130565b925050602061423c85828601613cbf565b9150509250929050565b61424f81613b22565b811461425a57600080fd5b50565b60008135905061426c81614246565b92915050565b6000806040838503121561428957614288613a93565b5b600061429785828601613ba1565b92505060206142a88582860161425d565b9150509250929050565b600081519050919050565b600082825260208201905092915050565b6000819050602082019050919050565b600082825260208201905092915050565b60006142fa82613be3565b61430481856142de565b9350614314818560208601613bff565b61431d81613c32565b840191505092915050565b600061433483836142ef565b905092915050565b6000602082019050919050565b6000614354826142b2565b61435e81856142bd565b935083602082028501614370856142ce565b8060005b858110156143ac578484038952815161438d8582614328565b94506143988361433c565b925060208a01995050600181019050614374565b50829750879550505050505092915050565b600060208201905081810360008301526143d88184614349565b905092915050565b600067ffffffffffffffff8211156143fb576143fa613f35565b5b61440482613c32565b9050602081019050919050565b600061442461441f846143e0565b613f95565b9050828152602081018484840111156144405761443f613f30565b5b61444b848285613fe1565b509392505050565b600082601f83011261446857614467613f2b565b5b8135614478848260208601614411565b91505092915050565b6000806000806080858703121561449b5761449a613a93565b5b60006144a987828801613ba1565b94505060206144ba87828801613ba1565b93505060406144cb87828801613cbf565b925050606085013567ffffffffffffffff8111156144ec576144eb613a98565b5b6144f887828801614453565b91505092959194509250565b6000806040838503121561451b5761451a613a93565b5b600061452985828601613ba1565b925050602061453a85828601613ba1565b9150509250929050565b7f4e487b7100000000000000000000000000000000000000000000000000000000600052602260045260246000fd5b6000600282049050600182168061458b57607f821691505b6020821081141561459f5761459e614544565b5b50919050565b7f4552433732313a20617070726f76656420717565727920666f72206e6f6e657860008201527f697374656e7420746f6b656e0000000000000000000000000000000000000000602082015250565b6000614601602c83613bee565b915061460c826145a5565b604082019050919050565b60006020820190508181036000830152614630816145f4565b9050919050565b7f4552433732313a20617070726f76616c20746f2063757272656e74206f776e6560008201527f7200000000000000000000000000000000000000000000000000000000000000602082015250565b6000614693602183613bee565b915061469e82614637565b604082019050919050565b600060208201905081810360008301526146c281614686565b9050919050565b7f4552433732313a20617070726f76652063616c6c6572206973206e6f74206f7760008201527f6e6572206e6f7220617070726f76656420666f7220616c6c0000000000000000602082015250565b6000614725603883613bee565b9150614730826146c9565b604082019050919050565b6000602082019050818103600083015261475481614718565b9050919050565b600081905092915050565b600061477182613be3565b61477b818561475b565b935061478b818560208601613bff565b80840191505092915050565b60006147a38284614766565b915081905092915050565b7f54686973206c696e6b20697320616c7265616479206d696e7465640000000000600082015250565b60006147e4601b83613bee565b91506147ef826147ae565b602082019050919050565b60006020820190508181036000830152614813816147d7565b9050919050565b7f546869732061646472657373206973206e6f7420616e20696e7374727563746f60008201527f7200000000000000000000000000000000000000000000000000000000000000602082015250565b6000614876602183613bee565b91506148818261481a565b604082019050919050565b600060208201905081810360008301526148a581614869565b9050919050565b7f5472616e73666572206166746572206d696e742069732070726f68696269746560008201527f6400000000000000000000000000000000000000000000000000000000000000602082015250565b6000614908602183613bee565b9150614913826148ac565b604082019050919050565b60006020820190508181036000830152614937816148fb565b9050919050565b7f416363657373436f6e74726f6c3a2063616e206f6e6c792072656e6f756e636560008201527f20726f6c657320666f722073656c660000000000000000000000000000000000602082015250565b600061499a602f83613bee565b91506149a58261493e565b604082019050919050565b600060208201905081810360008301526149c98161498d565b9050919050565b7f5468652061646472657373206973206e6f7420612073747564656e7400000000600082015250565b6000614a06601c83613bee565b9150614a11826149d0565b602082019050919050565b60006020820190508181036000830152614a35816149f9565b9050919050565b7f4552433732313a206f776e657220717565727920666f72206e6f6e657869737460008201527f656e7420746f6b656e0000000000000000000000000000000000000000000000602082015250565b6000614a98602983613bee565b9150614aa382614a3c565b604082019050919050565b60006020820190508181036000830152614ac781614a8b565b9050919050565b7f4552433732313a2062616c616e636520717565727920666f7220746865207a6560008201527f726f206164647265737300000000000000000000000000000000000000000000602082015250565b6000614b2a602a83613bee565b9150614b3582614ace565b604082019050919050565b60006020820190508181036000830152614b5981614b1d565b9050919050565b7f4552433732314d657461646174613a2055524920717565727920666f72206e6f60008201527f6e6578697374656e7420746f6b656e0000000000000000000000000000000000602082015250565b6000614bbc602f83613bee565b9150614bc782614b60565b604082019050919050565b60006020820190508181036000830152614beb81614baf565b9050919050565b6000614bfe8285614766565b9150614c0a8284614766565b91508190509392505050565b7f416363657373436f6e74726f6c3a206163636f756e7420000000000000000000600082015250565b6000614c4c60178361475b565b9150614c5782614c16565b601782019050919050565b7f206973206d697373696e6720726f6c6520000000000000000000000000000000600082015250565b6000614c9860118361475b565b9150614ca382614c62565b601182019050919050565b6000614cb982614c3f565b9150614cc58285614766565b9150614cd082614c8b565b9150614cdc8284614766565b91508190509392505050565b7f4e487b7100000000000000000000000000000000000000000000000000000000600052603260045260246000fd5b7f4e487b7100000000000000000000000000000000000000000000000000000000600052601160045260246000fd5b6000614d5182613c9e565b9150614d5c83613c9e565b925082821015614d6f57614d6e614d17565b5b828203905092915050565b7f4e487b7100000000000000000000000000000000000000000000000000000000600052603160045260246000fd5b6000614db482613c9e565b91507fffffffffffffffffffffffffffffffffffffffffffffffffffffffffffffffff821415614de757614de6614d17565b5b600182019050919050565b7f4552433732313a206d696e7420746f20746865207a65726f2061646472657373600082015250565b6000614e28602083613bee565b9150614e3382614df2565b602082019050919050565b60006020820190508181036000830152614e5781614e1b565b9050919050565b7f4552433732313a20746f6b656e20616c7265616479206d696e74656400000000600082015250565b6000614e94601c83613bee565b9150614e9f82614e5e565b602082019050919050565b60006020820190508181036000830152614ec381614e87565b9050919050565b6000614ed582613c9e565b9150614ee083613c9e565b9250827fffffffffffffffffffffffffffffffffffffffffffffffffffffffffffffffff03821115614f1557614f14614d17565b5b828201905092915050565b7f4552433732313a207472616e736665722063616c6c6572206973206e6f74206f60008201527f776e6572206e6f7220617070726f766564000000000000000000000000000000602082015250565b6000614f7c603183613bee565b9150614f8782614f20565b604082019050919050565b60006020820190508181036000830152614fab81614f6f565b9050919050565b7f4552433732313a20617070726f766520746f2063616c6c657200000000000000600082015250565b6000614fe8601983613bee565b9150614ff382614fb2565b602082019050919050565b6000602082019050818103600083015261501781614fdb565b9050919050565b7f4e487b7100000000000000000000000000000000000000000000000000000000600052601260045260246000fd5b600061505882613c9e565b915061506383613c9e565b9250826150735761507261501e565b5b828204905092915050565b600061508982613c9e565b915061509483613c9e565b9250826150a4576150a361501e565b5b828206905092915050565b60006150ba82613c9e565b91506150c583613c9e565b9250817fffffffffffffffffffffffffffffffffffffffffffffffffffffffffffffffff04831182151516156150fe576150fd614d17565b5b828202905092915050565b600061511482613c9e565b9150600082141561512857615127614d17565b5b600182039050919050565b7f537472696e67733a20686578206c656e67746820696e73756666696369656e74600082015250565b6000615169602083613bee565b915061517482615133565b602082019050919050565b600060208201905081810360008301526151988161515c565b9050919050565b7f4552433732313a206f70657261746f7220717565727920666f72206e6f6e657860008201527f697374656e7420746f6b656e0000000000000000000000000000000000000000602082015250565b60006151fb602c83613bee565b91506152068261519f565b604082019050919050565b6000602082019050818103600083015261522a816151ee565b9050919050565b7f4552433732313a207472616e73666572206f6620746f6b656e2074686174206960008201527f73206e6f74206f776e0000000000000000000000000000000000000000000000602082015250565b600061528d602983613bee565b915061529882615231565b604082019050919050565b600060208201905081810360008301526152bc81615280565b9050919050565b7f4552433732313a207472616e7366657220746f20746865207a65726f2061646460008201527f7265737300000000000000000000000000000000000000000000000000000000602082015250565b600061531f602483613bee565b915061532a826152c3565b604082019050919050565b6000602082019050818103600083015261534e81615312565b9050919050565b7f4552433732313a207472616e7366657220746f206e6f6e20455243373231526560008201527f63656976657220696d706c656d656e7465720000000000000000000000000000602082015250565b60006153b1603283613bee565b91506153bc82615355565b604082019050919050565b600060208201905081810360008301526153e0816153a4565b9050919050565b600081519050919050565b600082825260208201905092915050565b600061540e826153e7565b61541881856153f2565b9350615428818560208601613bff565b61543181613c32565b840191505092915050565b60006080820190506154516000830187613d01565b61545e6020830186613d01565b61546b60408301856141dc565b818103606083015261547d8184615403565b905095945050505050565b60008151905061549781613ac9565b92915050565b6000602082840312156154b3576154b2613a93565b5b60006154c184828501615488565b9150509291505056fea26469706673582212204d9bd04a05094c9c0b7ec2f0b3824192f03b8677f68df9a6d06bf7858aae701664736f6c634300080a0033",
  "immutableReferences": {},
  "source": "pragma solidity ^0.8.10;\r\n\r\nimport \"@openzeppelin/contracts/token/ERC721/ERC721.sol\";\r\nimport \"./Roles.sol\";\r\n\r\ncontract Course is ERC721, Roles{\r\n\r\n    //Mapping of the instructor to the tokenIDs\r\n    mapping(address => uint256[]) _givesCourses;\r\n    //Mapping of the tokenID to the owner is defined in ERC721.sol\r\n    //Mapping of the student to the tokenIDs\r\n\r\n    //TODO///////////////////////////////////////////\r\n    mapping(address => uint256[]) _takesCourses;\r\n    //Mapping of the tokenID to the students\r\n    mapping(uint256 => address[]) _studentsOf;\r\n    //is Course link exist\r\n    //TODO///////////////////////////////////////////\r\n\r\n    mapping(string => bool) _courseExist;\r\n    //List of Course Links\r\n    string[] _courseLinks;\r\n\r\n    constructor() ERC721(\"Course\", \"CRS\"){\r\n        _setupRole(DEFAULT_ADMIN_ROLE, msg.sender);\r\n        _setupRole(RECTOR_ROLE, msg.sender);\r\n    }\r\n\r\n    //TODO Change It To Role Based Ownership From Public\r\n    function mint(string memory _courseLink, address instructorAddress) public{\r\n        require(!_courseExist[_courseLink], \"This link is already minted\");\r\n        require(hasRole(INSTRUCTOR_ROLE, instructorAddress), \"This address is not an instructor\");\r\n        //diplomaLinks - add\r\n        _courseLinks.push(_courseLink);\r\n        uint _id = _courseLinks.length; //tokenID's start from 1 because default uint256 value is 0\r\n        //Call mint of ERC721\r\n        _mint(instructorAddress, _id);\r\n        //Trace it\r\n        _courseExist[_courseLink] = true;\r\n        _givesCourses[instructorAddress].push(_id);\r\n    }\r\n    function getCourseLinks() public view returns(string[] memory courseLinks){\r\n        return _courseLinks;\r\n    }\r\n    function getGivesCourses(address instructorAddress) public view returns (uint[] memory givesCourses){\r\n        return _givesCourses[instructorAddress];\r\n    }\r\n\r\n    //TODO Contract Owner can make mistakes when minting. Token should be somewhat editable for contract owner\r\n    function transferFrom(//Only callable when minted\r\n        address from,\r\n        address to,\r\n        uint256 tokenId\r\n    ) public virtual override {\r\n        require(msg.sender == 0x0000000000000000000000000000000000000000, \"Transfer after mint is prohibited\");\r\n        super.transferFrom(from,to,tokenId);\r\n    }\r\n    function safeTransferFrom(//Only callable when minted\r\n        address from,\r\n        address to,\r\n        uint256 tokenId\r\n    ) public virtual override {\r\n        require(msg.sender == 0x0000000000000000000000000000000000000000, \"Transfer after mint is prohibited\");\r\n        super.safeTransferFrom(from,to,tokenId);\r\n    }\r\n    function safeTransferFrom(//Only callable when minted\r\n        address from,\r\n        address to,\r\n        uint256 tokenId,\r\n        bytes memory _data\r\n    ) public virtual override {\r\n        require(msg.sender == 0x0000000000000000000000000000000000000000, \"Transfer after mint is prohibited\");\r\n        super.safeTransferFrom(from, to, tokenId, _data);\r\n    }\r\n    function supportsInterface(bytes4 interfaceId) public view virtual override(ERC721, AccessControlEnumerable) returns (bool) {\r\n        return super.supportsInterface(interfaceId);\r\n    }\r\n}\r\n",
  "sourcePath": "C:\\Users\\asus\\Desktop\\Dersler\\CMPE492\\certification-project\\contracts\\Course.sol",
  "compiler": {
    "name": "solc",
    "version": "0.8.10+commit.fc410830.Emscripten.clang"
  },
  "schemaVersion": "3.4.4",
  "updatedAt": "2022-01-15T00:13:30.810Z",
  "networkType": "ethereum",
  "devdoc": {
    "kind": "dev",
    "methods": {
      "approve(address,uint256)": {
        "details": "See {IERC721-approve}."
      },
      "balanceOf(address)": {
        "details": "See {IERC721-balanceOf}."
      },
      "getApproved(uint256)": {
        "details": "See {IERC721-getApproved}."
      },
      "getRoleAdmin(bytes32)": {
        "details": "Returns the admin role that controls `role`. See {grantRole} and {revokeRole}. To change a role's admin, use {_setRoleAdmin}."
      },
      "getRoleMember(bytes32,uint256)": {
        "details": "Returns one of the accounts that have `role`. `index` must be a value between 0 and {getRoleMemberCount}, non-inclusive. Role bearers are not sorted in any particular way, and their ordering may change at any point. WARNING: When using {getRoleMember} and {getRoleMemberCount}, make sure you perform all queries on the same block. See the following https://forum.openzeppelin.com/t/iterating-over-elements-on-enumerableset-in-openzeppelin-contracts/2296[forum post] for more information."
      },
      "getRoleMemberCount(bytes32)": {
        "details": "Returns the number of accounts that have `role`. Can be used together with {getRoleMember} to enumerate all bearers of a role."
      },
      "grantRole(bytes32,address)": {
        "details": "Grants `role` to `account`. If `account` had not been already granted `role`, emits a {RoleGranted} event. Requirements: - the caller must have ``role``'s admin role."
      },
      "hasRole(bytes32,address)": {
        "details": "Returns `true` if `account` has been granted `role`."
      },
      "isApprovedForAll(address,address)": {
        "details": "See {IERC721-isApprovedForAll}."
      },
      "name()": {
        "details": "See {IERC721Metadata-name}."
      },
      "ownerOf(uint256)": {
        "details": "See {IERC721-ownerOf}."
      },
      "renounceRole(bytes32,address)": {
        "details": "Revokes `role` from the calling account. Roles are often managed via {grantRole} and {revokeRole}: this function's purpose is to provide a mechanism for accounts to lose their privileges if they are compromised (such as when a trusted device is misplaced). If the calling account had been revoked `role`, emits a {RoleRevoked} event. Requirements: - the caller must be `account`."
      },
      "revokeRole(bytes32,address)": {
        "details": "Revokes `role` from `account`. If `account` had been granted `role`, emits a {RoleRevoked} event. Requirements: - the caller must have ``role``'s admin role."
      },
      "safeTransferFrom(address,address,uint256)": {
        "details": "See {IERC721-safeTransferFrom}."
      },
      "safeTransferFrom(address,address,uint256,bytes)": {
        "details": "See {IERC721-safeTransferFrom}."
      },
      "setApprovalForAll(address,bool)": {
        "details": "See {IERC721-setApprovalForAll}."
      },
      "symbol()": {
        "details": "See {IERC721Metadata-symbol}."
      },
      "tokenURI(uint256)": {
        "details": "See {IERC721Metadata-tokenURI}."
      },
      "transferFrom(address,address,uint256)": {
        "details": "See {IERC721-transferFrom}."
      }
    },
    "version": 1
  },
  "userdoc": {
    "kind": "user",
    "methods": {},
    "version": 1
  }
}