{
  "contractName": "Course",
  "abi": [
    {
      "inputs": [
        {
          "internalType": "address",
          "name": "_rolesContractAddress",
          "type": "address"
        },
        {
          "internalType": "address",
          "name": "_requestContractAddress",
          "type": "address"
        }
      ],
      "stateMutability": "nonpayable",
      "type": "constructor"
    },
    {
      "anonymous": false,
      "inputs": [
        {
          "indexed": true,
          "internalType": "address",
          "name": "owner",
          "type": "address"
        },
        {
          "indexed": true,
          "internalType": "address",
          "name": "approved",
          "type": "address"
        },
        {
          "indexed": true,
          "internalType": "uint256",
          "name": "tokenId",
          "type": "uint256"
        }
      ],
      "name": "Approval",
      "type": "event"
    },
    {
      "anonymous": false,
      "inputs": [
        {
          "indexed": true,
          "internalType": "address",
          "name": "owner",
          "type": "address"
        },
        {
          "indexed": true,
          "internalType": "address",
          "name": "operator",
          "type": "address"
        },
        {
          "indexed": false,
          "internalType": "bool",
          "name": "approved",
          "type": "bool"
        }
      ],
      "name": "ApprovalForAll",
      "type": "event"
    },
    {
      "anonymous": false,
      "inputs": [
        {
          "indexed": true,
          "internalType": "address",
          "name": "from",
          "type": "address"
        },
        {
          "indexed": true,
          "internalType": "address",
          "name": "to",
          "type": "address"
        },
        {
          "indexed": true,
          "internalType": "uint256",
          "name": "tokenId",
          "type": "uint256"
        }
      ],
      "name": "Transfer",
      "type": "event"
    },
    {
      "inputs": [
        {
          "internalType": "address",
          "name": "to",
          "type": "address"
        },
        {
          "internalType": "uint256",
          "name": "tokenId",
          "type": "uint256"
        }
      ],
      "name": "approve",
      "outputs": [],
      "stateMutability": "nonpayable",
      "type": "function"
    },
    {
      "inputs": [
        {
          "internalType": "address",
          "name": "owner",
          "type": "address"
        }
      ],
      "name": "balanceOf",
      "outputs": [
        {
          "internalType": "uint256",
          "name": "",
          "type": "uint256"
        }
      ],
      "stateMutability": "view",
      "type": "function"
    },
    {
      "inputs": [
        {
          "internalType": "uint256",
          "name": "tokenId",
          "type": "uint256"
        }
      ],
      "name": "getApproved",
      "outputs": [
        {
          "internalType": "address",
          "name": "",
          "type": "address"
        }
      ],
      "stateMutability": "view",
      "type": "function"
    },
    {
      "inputs": [
        {
          "internalType": "address",
          "name": "owner",
          "type": "address"
        },
        {
          "internalType": "address",
          "name": "operator",
          "type": "address"
        }
      ],
      "name": "isApprovedForAll",
      "outputs": [
        {
          "internalType": "bool",
          "name": "",
          "type": "bool"
        }
      ],
      "stateMutability": "view",
      "type": "function"
    },
    {
      "inputs": [],
      "name": "name",
      "outputs": [
        {
          "internalType": "string",
          "name": "",
          "type": "string"
        }
      ],
      "stateMutability": "view",
      "type": "function"
    },
    {
      "inputs": [
        {
          "internalType": "uint256",
          "name": "tokenId",
          "type": "uint256"
        }
      ],
      "name": "ownerOf",
      "outputs": [
        {
          "internalType": "address",
          "name": "",
          "type": "address"
        }
      ],
      "stateMutability": "view",
      "type": "function"
    },
    {
      "inputs": [
        {
          "internalType": "address",
          "name": "operator",
          "type": "address"
        },
        {
          "internalType": "bool",
          "name": "approved",
          "type": "bool"
        }
      ],
      "name": "setApprovalForAll",
      "outputs": [],
      "stateMutability": "nonpayable",
      "type": "function"
    },
    {
      "inputs": [
        {
          "internalType": "bytes4",
          "name": "interfaceId",
          "type": "bytes4"
        }
      ],
      "name": "supportsInterface",
      "outputs": [
        {
          "internalType": "bool",
          "name": "",
          "type": "bool"
        }
      ],
      "stateMutability": "view",
      "type": "function"
    },
    {
      "inputs": [],
      "name": "symbol",
      "outputs": [
        {
          "internalType": "string",
          "name": "",
          "type": "string"
        }
      ],
      "stateMutability": "view",
      "type": "function"
    },
    {
      "inputs": [
        {
          "internalType": "uint256",
          "name": "tokenId",
          "type": "uint256"
        }
      ],
      "name": "tokenURI",
      "outputs": [
        {
          "internalType": "string",
          "name": "",
          "type": "string"
        }
      ],
      "stateMutability": "view",
      "type": "function"
    },
    {
      "inputs": [
        {
          "internalType": "string",
          "name": "_courseLink",
          "type": "string"
        },
        {
          "internalType": "address",
          "name": "_instructorAddress",
          "type": "address"
        }
      ],
      "name": "mint",
      "outputs": [],
      "stateMutability": "nonpayable",
      "type": "function"
    },
    {
      "inputs": [],
      "name": "getCourseLinks",
      "outputs": [
        {
          "internalType": "string[]",
          "name": "courseLinks",
          "type": "string[]"
        }
      ],
      "stateMutability": "view",
      "type": "function"
    },
    {
      "inputs": [
        {
          "internalType": "address",
          "name": "instructorAddress",
          "type": "address"
        }
      ],
      "name": "getGivesCourses",
      "outputs": [
        {
          "internalType": "uint256[]",
          "name": "givesCourses",
          "type": "uint256[]"
        }
      ],
      "stateMutability": "view",
      "type": "function"
    },
    {
      "inputs": [
        {
          "internalType": "address",
          "name": "from",
          "type": "address"
        },
        {
          "internalType": "address",
          "name": "to",
          "type": "address"
        },
        {
          "internalType": "uint256",
          "name": "tokenId",
          "type": "uint256"
        }
      ],
      "name": "transferFrom",
      "outputs": [],
      "stateMutability": "nonpayable",
      "type": "function"
    },
    {
      "inputs": [
        {
          "internalType": "address",
          "name": "from",
          "type": "address"
        },
        {
          "internalType": "address",
          "name": "to",
          "type": "address"
        },
        {
          "internalType": "uint256",
          "name": "tokenId",
          "type": "uint256"
        }
      ],
      "name": "safeTransferFrom",
      "outputs": [],
      "stateMutability": "nonpayable",
      "type": "function"
    },
    {
      "inputs": [
        {
          "internalType": "address",
          "name": "from",
          "type": "address"
        },
        {
          "internalType": "address",
          "name": "to",
          "type": "address"
        },
        {
          "internalType": "uint256",
          "name": "tokenId",
          "type": "uint256"
        },
        {
          "internalType": "bytes",
          "name": "_data",
          "type": "bytes"
        }
      ],
      "name": "safeTransferFrom",
      "outputs": [],
      "stateMutability": "nonpayable",
      "type": "function"
    }
  ],
  "bytecode": "0x60806040523480156200001157600080fd5b50604051620036f0380380620036f083398181016040528101906200003791906200027b565b6040518060400160405280600681526020017f436f7572736500000000000000000000000000000000000000000000000000008152506040518060400160405280600381526020017f43525300000000000000000000000000000000000000000000000000000000008152508160009080519060200190620000bb92919062000161565b508060019080519060200190620000d492919062000161565b50505081600660006101000a81548173ffffffffffffffffffffffffffffffffffffffff021916908373ffffffffffffffffffffffffffffffffffffffff16021790555080600760006101000a81548173ffffffffffffffffffffffffffffffffffffffff021916908373ffffffffffffffffffffffffffffffffffffffff160217905550505062000327565b8280546200016f90620002f1565b90600052602060002090601f016020900481019282620001935760008555620001df565b82601f10620001ae57805160ff1916838001178555620001df565b82800160010185558215620001df579182015b82811115620001de578251825591602001919060010190620001c1565b5b509050620001ee9190620001f2565b5090565b5b808211156200020d576000816000905550600101620001f3565b5090565b600080fd5b600073ffffffffffffffffffffffffffffffffffffffff82169050919050565b6000620002438262000216565b9050919050565b620002558162000236565b81146200026157600080fd5b50565b60008151905062000275816200024a565b92915050565b6000806040838503121562000295576200029462000211565b5b6000620002a58582860162000264565b9250506020620002b88582860162000264565b9150509250929050565b7f4e487b7100000000000000000000000000000000000000000000000000000000600052602260045260246000fd5b600060028204905060018216806200030a57607f821691505b60208210811415620003215762000320620002c2565b5b50919050565b6133b980620003376000396000f3fe608060405234801561001057600080fd5b50600436106101005760003560e01c80636352211e11610097578063a6faa96211610066578063a6faa962146102bd578063b88d4fde146102db578063c87b56dd146102f7578063e985e9c51461032757610100565b80636352211e1461022357806370a082311461025357806395d89b4114610283578063a22cb465146102a157610100565b80630baf40e3116100d35780630baf40e31461019f5780631c351a9d146101cf57806323b872dd146101eb57806342842e0e1461020757610100565b806301ffc9a71461010557806306fdde0314610135578063081812fc14610153578063095ea7b314610183575b600080fd5b61011f600480360381019061011a9190611db6565b610357565b60405161012c9190611dfe565b60405180910390f35b61013d610439565b60405161014a9190611eb2565b60405180910390f35b61016d60048036038101906101689190611f0a565b6104cb565b60405161017a9190611f78565b60405180910390f35b61019d60048036038101906101989190611fbf565b610550565b005b6101b960048036038101906101b49190611fff565b610668565b6040516101c691906120ea565b60405180910390f35b6101e960048036038101906101e49190612241565b6106ff565b005b6102056004803603810190610200919061229d565b610aa0565b005b610221600480360381019061021c919061229d565b610b1f565b005b61023d60048036038101906102389190611f0a565b610b9e565b60405161024a9190611f78565b60405180910390f35b61026d60048036038101906102689190611fff565b610c50565b60405161027a91906122ff565b60405180910390f35b61028b610d08565b6040516102989190611eb2565b60405180910390f35b6102bb60048036038101906102b69190612346565b610d9a565b005b6102c5610db0565b6040516102d29190612492565b60405180910390f35b6102f560048036038101906102f09190612555565b610e89565b005b610311600480360381019061030c9190611f0a565b610f0a565b60405161031e9190611eb2565b60405180910390f35b610341600480360381019061033c91906125d8565b610fb1565b60405161034e9190611dfe565b60405180910390f35b60007f80ac58cd000000000000000000000000000000000000000000000000000000007bffffffffffffffffffffffffffffffffffffffffffffffffffffffff1916827bffffffffffffffffffffffffffffffffffffffffffffffffffffffff1916148061042257507f5b5e139f000000000000000000000000000000000000000000000000000000007bffffffffffffffffffffffffffffffffffffffffffffffffffffffff1916827bffffffffffffffffffffffffffffffffffffffffffffffffffffffff1916145b80610432575061043182611045565b5b9050919050565b60606000805461044890612647565b80601f016020809104026020016040519081016040528092919081815260200182805461047490612647565b80156104c15780601f10610496576101008083540402835291602001916104c1565b820191906000526020600020905b8154815290600101906020018083116104a457829003601f168201915b5050505050905090565b60006104d6826110af565b610515576040517f08c379a000000000000000000000000000000000000000000000000000000000815260040161050c906126eb565b60405180910390fd5b6004600083815260200190815260200160002060009054906101000a900473ffffffffffffffffffffffffffffffffffffffff169050919050565b600061055b82610b9e565b90508073ffffffffffffffffffffffffffffffffffffffff168373ffffffffffffffffffffffffffffffffffffffff1614156105cc576040517f08c379a00000000000000000000000000000000000000000000000000000000081526004016105c39061277d565b60405180910390fd5b8073ffffffffffffffffffffffffffffffffffffffff166105eb61111b565b73ffffffffffffffffffffffffffffffffffffffff16148061061a57506106198161061461111b565b610fb1565b5b610659576040517f08c379a00000000000000000000000000000000000000000000000000000000081526004016106509061280f565b60405180910390fd5b6106638383611123565b505050565b6060600860008373ffffffffffffffffffffffffffffffffffffffff1673ffffffffffffffffffffffffffffffffffffffff1681526020019081526020016000208054806020026020016040519081016040528092919081815260200182805480156106f357602002820191906000526020600020905b8154815260200190600101908083116106df575b50505050509050919050565b600660009054906101000a900473ffffffffffffffffffffffffffffffffffffffff1673ffffffffffffffffffffffffffffffffffffffff16632be7dc44336040518263ffffffff1660e01b815260040161075a9190611f78565b602060405180830381865afa158015610777573d6000803e3d6000fd5b505050506040513d601f19601f8201168201806040525081019061079b9190612844565b6107da576040517f08c379a00000000000000000000000000000000000000000000000000000000081526004016107d1906128e3565b60405180910390fd5b600660009054906101000a900473ffffffffffffffffffffffffffffffffffffffff1673ffffffffffffffffffffffffffffffffffffffff16639822a599826040518263ffffffff1660e01b81526004016108359190611f78565b602060405180830381865afa158015610852573d6000803e3d6000fd5b505050506040513d601f19601f820116820180604052508101906108769190612844565b6108b5576040517f08c379a00000000000000000000000000000000000000000000000000000000081526004016108ac90612975565b60405180910390fd5b600b826040516108c591906129d1565b908152602001604051809103902060009054906101000a900460ff1615610921576040517f08c379a000000000000000000000000000000000000000000000000000000000815260040161091890612a34565b60405180910390fd5b600c8290806001815401808255809150506001900390600052602060002001600090919091909150908051906020019061095c929190611ca7565b506000600c80549050905061097182826111dc565b6001600b8460405161098391906129d1565b908152602001604051809103902060006101000a81548160ff021916908315150217905550600860008373ffffffffffffffffffffffffffffffffffffffff1673ffffffffffffffffffffffffffffffffffffffff168152602001908152602001600020819080600181540180825580915050600190039060005260206000200160009091909190915055600760009054906101000a900473ffffffffffffffffffffffffffffffffffffffff1673ffffffffffffffffffffffffffffffffffffffff1663ef51ea6c846040518263ffffffff1660e01b8152600401610a699190611eb2565b600060405180830381600087803b158015610a8357600080fd5b505af1158015610a97573d6000803e3d6000fd5b50505050505050565b600073ffffffffffffffffffffffffffffffffffffffff163373ffffffffffffffffffffffffffffffffffffffff1614610b0f576040517f08c379a0000000000000000000000000000000000000000000000000000000008152600401610b0690612ac6565b60405180910390fd5b610b1a8383836113aa565b505050565b600073ffffffffffffffffffffffffffffffffffffffff163373ffffffffffffffffffffffffffffffffffffffff1614610b8e576040517f08c379a0000000000000000000000000000000000000000000000000000000008152600401610b8590612ac6565b60405180910390fd5b610b9983838361140a565b505050565b6000806002600084815260200190815260200160002060009054906101000a900473ffffffffffffffffffffffffffffffffffffffff169050600073ffffffffffffffffffffffffffffffffffffffff168173ffffffffffffffffffffffffffffffffffffffff161415610c47576040517f08c379a0000000000000000000000000000000000000000000000000000000008152600401610c3e90612b58565b60405180910390fd5b80915050919050565b60008073ffffffffffffffffffffffffffffffffffffffff168273ffffffffffffffffffffffffffffffffffffffff161415610cc1576040517f08c379a0000000000000000000000000000000000000000000000000000000008152600401610cb890612bea565b60405180910390fd5b600360008373ffffffffffffffffffffffffffffffffffffffff1673ffffffffffffffffffffffffffffffffffffffff168152602001908152602001600020549050919050565b606060018054610d1790612647565b80601f0160208091040260200160405190810160405280929190818152602001828054610d4390612647565b8015610d905780601f10610d6557610100808354040283529160200191610d90565b820191906000526020600020905b815481529060010190602001808311610d7357829003601f168201915b5050505050905090565b610dac610da561111b565b838361142a565b5050565b6060600c805480602002602001604051908101604052809291908181526020016000905b82821015610e80578382906000526020600020018054610df390612647565b80601f0160208091040260200160405190810160405280929190818152602001828054610e1f90612647565b8015610e6c5780601f10610e4157610100808354040283529160200191610e6c565b820191906000526020600020905b815481529060010190602001808311610e4f57829003601f168201915b505050505081526020019060010190610dd4565b50505050905090565b600073ffffffffffffffffffffffffffffffffffffffff163373ffffffffffffffffffffffffffffffffffffffff1614610ef8576040517f08c379a0000000000000000000000000000000000000000000000000000000008152600401610eef90612ac6565b60405180910390fd5b610f0484848484611597565b50505050565b6060610f15826110af565b610f54576040517f08c379a0000000000000000000000000000000000000000000000000000000008152600401610f4b90612c7c565b60405180910390fd5b6000610f5e6115f9565b90506000815111610f7e5760405180602001604052806000815250610fa9565b80610f8884611610565b604051602001610f99929190612c9c565b6040516020818303038152906040525b915050919050565b6000600560008473ffffffffffffffffffffffffffffffffffffffff1673ffffffffffffffffffffffffffffffffffffffff16815260200190815260200160002060008373ffffffffffffffffffffffffffffffffffffffff1673ffffffffffffffffffffffffffffffffffffffff16815260200190815260200160002060009054906101000a900460ff16905092915050565b60007f01ffc9a7000000000000000000000000000000000000000000000000000000007bffffffffffffffffffffffffffffffffffffffffffffffffffffffff1916827bffffffffffffffffffffffffffffffffffffffffffffffffffffffff1916149050919050565b60008073ffffffffffffffffffffffffffffffffffffffff166002600084815260200190815260200160002060009054906101000a900473ffffffffffffffffffffffffffffffffffffffff1673ffffffffffffffffffffffffffffffffffffffff1614159050919050565b600033905090565b816004600083815260200190815260200160002060006101000a81548173ffffffffffffffffffffffffffffffffffffffff021916908373ffffffffffffffffffffffffffffffffffffffff160217905550808273ffffffffffffffffffffffffffffffffffffffff1661119683610b9e565b73ffffffffffffffffffffffffffffffffffffffff167f8c5be1e5ebec7d5bd14f71427d1e84f3dd0314c0f7b2291e5b200ac8c7c3b92560405160405180910390a45050565b600073ffffffffffffffffffffffffffffffffffffffff168273ffffffffffffffffffffffffffffffffffffffff16141561124c576040517f08c379a000000000000000000000000000000000000000000000000000000000815260040161124390612d0c565b60405180910390fd5b611255816110af565b15611295576040517f08c379a000000000000000000000000000000000000000000000000000000000815260040161128c90612d78565b60405180910390fd5b6112a160008383611771565b6001600360008473ffffffffffffffffffffffffffffffffffffffff1673ffffffffffffffffffffffffffffffffffffffff16815260200190815260200160002060008282546112f19190612dc7565b92505081905550816002600083815260200190815260200160002060006101000a81548173ffffffffffffffffffffffffffffffffffffffff021916908373ffffffffffffffffffffffffffffffffffffffff160217905550808273ffffffffffffffffffffffffffffffffffffffff16600073ffffffffffffffffffffffffffffffffffffffff167fddf252ad1be2c89b69c2b068fc378daa952ba7f163c4a11628f55a4df523b3ef60405160405180910390a45050565b6113bb6113b561111b565b82611776565b6113fa576040517f08c379a00000000000000000000000000000000000000000000000000000000081526004016113f190612e8f565b60405180910390fd5b611405838383611854565b505050565b61142583838360405180602001604052806000815250610e89565b505050565b8173ffffffffffffffffffffffffffffffffffffffff168373ffffffffffffffffffffffffffffffffffffffff161415611499576040517f08c379a000000000000000000000000000000000000000000000000000000000815260040161149090612efb565b60405180910390fd5b80600560008573ffffffffffffffffffffffffffffffffffffffff1673ffffffffffffffffffffffffffffffffffffffff16815260200190815260200160002060008473ffffffffffffffffffffffffffffffffffffffff1673ffffffffffffffffffffffffffffffffffffffff16815260200190815260200160002060006101000a81548160ff0219169083151502179055508173ffffffffffffffffffffffffffffffffffffffff168373ffffffffffffffffffffffffffffffffffffffff167f17307eab39ab6107e8899845ad3d59bd9653f200f220920489ca2b5937696c318360405161158a9190611dfe565b60405180910390a3505050565b6115a86115a261111b565b83611776565b6115e7576040517f08c379a00000000000000000000000000000000000000000000000000000000081526004016115de90612e8f565b60405180910390fd5b6115f384848484611ab0565b50505050565b606060405180602001604052806000815250905090565b60606000821415611658576040518060400160405280600181526020017f3000000000000000000000000000000000000000000000000000000000000000815250905061176c565b600082905060005b6000821461168a57808061167390612f1b565b915050600a826116839190612f93565b9150611660565b60008167ffffffffffffffff8111156116a6576116a5612116565b5b6040519080825280601f01601f1916602001820160405280156116d85781602001600182028036833780820191505090505b5090505b60008514611765576001826116f19190612fc4565b9150600a856117009190612ff8565b603061170c9190612dc7565b60f81b81838151811061172257611721613029565b5b60200101907effffffffffffffffffffffffffffffffffffffffffffffffffffffffffffff1916908160001a905350600a8561175e9190612f93565b94506116dc565b8093505050505b919050565b505050565b6000611781826110af565b6117c0576040517f08c379a00000000000000000000000000000000000000000000000000000000081526004016117b7906130ca565b60405180910390fd5b60006117cb83610b9e565b90508073ffffffffffffffffffffffffffffffffffffffff168473ffffffffffffffffffffffffffffffffffffffff16148061183a57508373ffffffffffffffffffffffffffffffffffffffff16611822846104cb565b73ffffffffffffffffffffffffffffffffffffffff16145b8061184b575061184a8185610fb1565b5b91505092915050565b8273ffffffffffffffffffffffffffffffffffffffff1661187482610b9e565b73ffffffffffffffffffffffffffffffffffffffff16146118ca576040517f08c379a00000000000000000000000000000000000000000000000000000000081526004016118c19061315c565b60405180910390fd5b600073ffffffffffffffffffffffffffffffffffffffff168273ffffffffffffffffffffffffffffffffffffffff16141561193a576040517f08c379a0000000000000000000000000000000000000000000000000000000008152600401611931906131ee565b60405180910390fd5b611945838383611771565b611950600082611123565b6001600360008573ffffffffffffffffffffffffffffffffffffffff1673ffffffffffffffffffffffffffffffffffffffff16815260200190815260200160002060008282546119a09190612fc4565b925050819055506001600360008473ffffffffffffffffffffffffffffffffffffffff1673ffffffffffffffffffffffffffffffffffffffff16815260200190815260200160002060008282546119f79190612dc7565b92505081905550816002600083815260200190815260200160002060006101000a81548173ffffffffffffffffffffffffffffffffffffffff021916908373ffffffffffffffffffffffffffffffffffffffff160217905550808273ffffffffffffffffffffffffffffffffffffffff168473ffffffffffffffffffffffffffffffffffffffff167fddf252ad1be2c89b69c2b068fc378daa952ba7f163c4a11628f55a4df523b3ef60405160405180910390a4505050565b611abb848484611854565b611ac784848484611b0c565b611b06576040517f08c379a0000000000000000000000000000000000000000000000000000000008152600401611afd90613280565b60405180910390fd5b50505050565b6000611b2d8473ffffffffffffffffffffffffffffffffffffffff16611c94565b15611c87578373ffffffffffffffffffffffffffffffffffffffff1663150b7a02611b5661111b565b8786866040518563ffffffff1660e01b8152600401611b7894939291906132f5565b6020604051808303816000875af1925050508015611bb457506040513d601f19601f82011682018060405250810190611bb19190613356565b60015b611c37573d8060008114611be4576040519150601f19603f3d011682016040523d82523d6000602084013e611be9565b606091505b50600081511415611c2f576040517f08c379a0000000000000000000000000000000000000000000000000000000008152600401611c2690613280565b60405180910390fd5b805181602001fd5b63150b7a0260e01b7bffffffffffffffffffffffffffffffffffffffffffffffffffffffff1916817bffffffffffffffffffffffffffffffffffffffffffffffffffffffff191614915050611c8c565b600190505b949350505050565b600080823b905060008111915050919050565b828054611cb390612647565b90600052602060002090601f016020900481019282611cd55760008555611d1c565b82601f10611cee57805160ff1916838001178555611d1c565b82800160010185558215611d1c579182015b82811115611d1b578251825591602001919060010190611d00565b5b509050611d299190611d2d565b5090565b5b80821115611d46576000816000905550600101611d2e565b5090565b6000604051905090565b600080fd5b600080fd5b60007fffffffff0000000000000000000000000000000000000000000000000000000082169050919050565b611d9381611d5e565b8114611d9e57600080fd5b50565b600081359050611db081611d8a565b92915050565b600060208284031215611dcc57611dcb611d54565b5b6000611dda84828501611da1565b91505092915050565b60008115159050919050565b611df881611de3565b82525050565b6000602082019050611e136000830184611def565b92915050565b600081519050919050565b600082825260208201905092915050565b60005b83811015611e53578082015181840152602081019050611e38565b83811115611e62576000848401525b50505050565b6000601f19601f8301169050919050565b6000611e8482611e19565b611e8e8185611e24565b9350611e9e818560208601611e35565b611ea781611e68565b840191505092915050565b60006020820190508181036000830152611ecc8184611e79565b905092915050565b6000819050919050565b611ee781611ed4565b8114611ef257600080fd5b50565b600081359050611f0481611ede565b92915050565b600060208284031215611f2057611f1f611d54565b5b6000611f2e84828501611ef5565b91505092915050565b600073ffffffffffffffffffffffffffffffffffffffff82169050919050565b6000611f6282611f37565b9050919050565b611f7281611f57565b82525050565b6000602082019050611f8d6000830184611f69565b92915050565b611f9c81611f57565b8114611fa757600080fd5b50565b600081359050611fb981611f93565b92915050565b60008060408385031215611fd657611fd5611d54565b5b6000611fe485828601611faa565b9250506020611ff585828601611ef5565b9150509250929050565b60006020828403121561201557612014611d54565b5b600061202384828501611faa565b91505092915050565b600081519050919050565b600082825260208201905092915050565b6000819050602082019050919050565b61206181611ed4565b82525050565b60006120738383612058565b60208301905092915050565b6000602082019050919050565b60006120978261202c565b6120a18185612037565b93506120ac83612048565b8060005b838110156120dd5781516120c48882612067565b97506120cf8361207f565b9250506001810190506120b0565b5085935050505092915050565b60006020820190508181036000830152612104818461208c565b905092915050565b600080fd5b600080fd5b7f4e487b7100000000000000000000000000000000000000000000000000000000600052604160045260246000fd5b61214e82611e68565b810181811067ffffffffffffffff8211171561216d5761216c612116565b5b80604052505050565b6000612180611d4a565b905061218c8282612145565b919050565b600067ffffffffffffffff8211156121ac576121ab612116565b5b6121b582611e68565b9050602081019050919050565b82818337600083830152505050565b60006121e46121df84612191565b612176565b905082815260208101848484011115612200576121ff612111565b5b61220b8482856121c2565b509392505050565b600082601f8301126122285761222761210c565b5b81356122388482602086016121d1565b91505092915050565b6000806040838503121561225857612257611d54565b5b600083013567ffffffffffffffff81111561227657612275611d59565b5b61228285828601612213565b925050602061229385828601611faa565b9150509250929050565b6000806000606084860312156122b6576122b5611d54565b5b60006122c486828701611faa565b93505060206122d586828701611faa565b92505060406122e686828701611ef5565b9150509250925092565b6122f981611ed4565b82525050565b600060208201905061231460008301846122f0565b92915050565b61232381611de3565b811461232e57600080fd5b50565b6000813590506123408161231a565b92915050565b6000806040838503121561235d5761235c611d54565b5b600061236b85828601611faa565b925050602061237c85828601612331565b9150509250929050565b600081519050919050565b600082825260208201905092915050565b6000819050602082019050919050565b600082825260208201905092915050565b60006123ce82611e19565b6123d881856123b2565b93506123e8818560208601611e35565b6123f181611e68565b840191505092915050565b600061240883836123c3565b905092915050565b6000602082019050919050565b600061242882612386565b6124328185612391565b935083602082028501612444856123a2565b8060005b85811015612480578484038952815161246185826123fc565b945061246c83612410565b925060208a01995050600181019050612448565b50829750879550505050505092915050565b600060208201905081810360008301526124ac818461241d565b905092915050565b600067ffffffffffffffff8211156124cf576124ce612116565b5b6124d882611e68565b9050602081019050919050565b60006124f86124f3846124b4565b612176565b90508281526020810184848401111561251457612513612111565b5b61251f8482856121c2565b509392505050565b600082601f83011261253c5761253b61210c565b5b813561254c8482602086016124e5565b91505092915050565b6000806000806080858703121561256f5761256e611d54565b5b600061257d87828801611faa565b945050602061258e87828801611faa565b935050604061259f87828801611ef5565b925050606085013567ffffffffffffffff8111156125c0576125bf611d59565b5b6125cc87828801612527565b91505092959194509250565b600080604083850312156125ef576125ee611d54565b5b60006125fd85828601611faa565b925050602061260e85828601611faa565b9150509250929050565b7f4e487b7100000000000000000000000000000000000000000000000000000000600052602260045260246000fd5b6000600282049050600182168061265f57607f821691505b6020821081141561267357612672612618565b5b50919050565b7f4552433732313a20617070726f76656420717565727920666f72206e6f6e657860008201527f697374656e7420746f6b656e0000000000000000000000000000000000000000602082015250565b60006126d5602c83611e24565b91506126e082612679565b604082019050919050565b60006020820190508181036000830152612704816126c8565b9050919050565b7f4552433732313a20617070726f76616c20746f2063757272656e74206f776e6560008201527f7200000000000000000000000000000000000000000000000000000000000000602082015250565b6000612767602183611e24565b91506127728261270b565b604082019050919050565b600060208201905081810360008301526127968161275a565b9050919050565b7f4552433732313a20617070726f76652063616c6c6572206973206e6f74206f7760008201527f6e6572206e6f7220617070726f76656420666f7220616c6c0000000000000000602082015250565b60006127f9603883611e24565b91506128048261279d565b604082019050919050565b60006020820190508181036000830152612828816127ec565b9050919050565b60008151905061283e8161231a565b92915050565b60006020828403121561285a57612859611d54565b5b60006128688482850161282f565b91505092915050565b7f54686973206163636f756e7420646f6573206e6f74206861766520746865205260008201527f6563746f72205065726d697373696f6e73000000000000000000000000000000602082015250565b60006128cd603183611e24565b91506128d882612871565b604082019050919050565b600060208201905081810360008301526128fc816128c0565b9050919050565b7f546869732061646472657373206973206e6f7420616e20696e7374727563746f60008201527f7200000000000000000000000000000000000000000000000000000000000000602082015250565b600061295f602183611e24565b915061296a82612903565b604082019050919050565b6000602082019050818103600083015261298e81612952565b9050919050565b600081905092915050565b60006129ab82611e19565b6129b58185612995565b93506129c5818560208601611e35565b80840191505092915050565b60006129dd82846129a0565b915081905092915050565b7f54686973206c696e6b20697320616c7265616479206d696e7465640000000000600082015250565b6000612a1e601b83611e24565b9150612a29826129e8565b602082019050919050565b60006020820190508181036000830152612a4d81612a11565b9050919050565b7f5472616e73666572206166746572206d696e742069732070726f68696269746560008201527f6400000000000000000000000000000000000000000000000000000000000000602082015250565b6000612ab0602183611e24565b9150612abb82612a54565b604082019050919050565b60006020820190508181036000830152612adf81612aa3565b9050919050565b7f4552433732313a206f776e657220717565727920666f72206e6f6e657869737460008201527f656e7420746f6b656e0000000000000000000000000000000000000000000000602082015250565b6000612b42602983611e24565b9150612b4d82612ae6565b604082019050919050565b60006020820190508181036000830152612b7181612b35565b9050919050565b7f4552433732313a2062616c616e636520717565727920666f7220746865207a6560008201527f726f206164647265737300000000000000000000000000000000000000000000602082015250565b6000612bd4602a83611e24565b9150612bdf82612b78565b604082019050919050565b60006020820190508181036000830152612c0381612bc7565b9050919050565b7f4552433732314d657461646174613a2055524920717565727920666f72206e6f60008201527f6e6578697374656e7420746f6b656e0000000000000000000000000000000000602082015250565b6000612c66602f83611e24565b9150612c7182612c0a565b604082019050919050565b60006020820190508181036000830152612c9581612c59565b9050919050565b6000612ca882856129a0565b9150612cb482846129a0565b91508190509392505050565b7f4552433732313a206d696e7420746f20746865207a65726f2061646472657373600082015250565b6000612cf6602083611e24565b9150612d0182612cc0565b602082019050919050565b60006020820190508181036000830152612d2581612ce9565b9050919050565b7f4552433732313a20746f6b656e20616c7265616479206d696e74656400000000600082015250565b6000612d62601c83611e24565b9150612d6d82612d2c565b602082019050919050565b60006020820190508181036000830152612d9181612d55565b9050919050565b7f4e487b7100000000000000000000000000000000000000000000000000000000600052601160045260246000fd5b6000612dd282611ed4565b9150612ddd83611ed4565b9250827fffffffffffffffffffffffffffffffffffffffffffffffffffffffffffffffff03821115612e1257612e11612d98565b5b828201905092915050565b7f4552433732313a207472616e736665722063616c6c6572206973206e6f74206f60008201527f776e6572206e6f7220617070726f766564000000000000000000000000000000602082015250565b6000612e79603183611e24565b9150612e8482612e1d565b604082019050919050565b60006020820190508181036000830152612ea881612e6c565b9050919050565b7f4552433732313a20617070726f766520746f2063616c6c657200000000000000600082015250565b6000612ee5601983611e24565b9150612ef082612eaf565b602082019050919050565b60006020820190508181036000830152612f1481612ed8565b9050919050565b6000612f2682611ed4565b91507fffffffffffffffffffffffffffffffffffffffffffffffffffffffffffffffff821415612f5957612f58612d98565b5b600182019050919050565b7f4e487b7100000000000000000000000000000000000000000000000000000000600052601260045260246000fd5b6000612f9e82611ed4565b9150612fa983611ed4565b925082612fb957612fb8612f64565b5b828204905092915050565b6000612fcf82611ed4565b9150612fda83611ed4565b925082821015612fed57612fec612d98565b5b828203905092915050565b600061300382611ed4565b915061300e83611ed4565b92508261301e5761301d612f64565b5b828206905092915050565b7f4e487b7100000000000000000000000000000000000000000000000000000000600052603260045260246000fd5b7f4552433732313a206f70657261746f7220717565727920666f72206e6f6e657860008201527f697374656e7420746f6b656e0000000000000000000000000000000000000000602082015250565b60006130b4602c83611e24565b91506130bf82613058565b604082019050919050565b600060208201905081810360008301526130e3816130a7565b9050919050565b7f4552433732313a207472616e73666572206f6620746f6b656e2074686174206960008201527f73206e6f74206f776e0000000000000000000000000000000000000000000000602082015250565b6000613146602983611e24565b9150613151826130ea565b604082019050919050565b6000602082019050818103600083015261317581613139565b9050919050565b7f4552433732313a207472616e7366657220746f20746865207a65726f2061646460008201527f7265737300000000000000000000000000000000000000000000000000000000602082015250565b60006131d8602483611e24565b91506131e38261317c565b604082019050919050565b60006020820190508181036000830152613207816131cb565b9050919050565b7f4552433732313a207472616e7366657220746f206e6f6e20455243373231526560008201527f63656976657220696d706c656d656e7465720000000000000000000000000000602082015250565b600061326a603283611e24565b91506132758261320e565b604082019050919050565b600060208201905081810360008301526132998161325d565b9050919050565b600081519050919050565b600082825260208201905092915050565b60006132c7826132a0565b6132d181856132ab565b93506132e1818560208601611e35565b6132ea81611e68565b840191505092915050565b600060808201905061330a6000830187611f69565b6133176020830186611f69565b61332460408301856122f0565b818103606083015261333681846132bc565b905095945050505050565b60008151905061335081611d8a565b92915050565b60006020828403121561336c5761336b611d54565b5b600061337a84828501613341565b9150509291505056fea2646970667358221220575f9740f610bc70a2a30ccf6ce18bcf1319c5ad52c66dc47c3190f14726850e64736f6c634300080a0033",
  "immutableReferences": {},
  "source": "pragma solidity ^0.8.10;\r\n\r\nimport \"@openzeppelin/contracts/token/ERC721/ERC721.sol\";\r\nimport \"./Roles.sol\";\r\nimport \"./Request.sol\";\r\n\r\ncontract Course is ERC721{\r\n\r\n    address rolesContractAddress;\r\n    address requestContractAddress;\r\n\r\n    //Mapping of the instructor to the tokenIDs\r\n    mapping(address => uint256[]) _givesCourses;\r\n    //Mapping of the tokenID to the owner is defined in ERC721.sol\r\n\r\n    //TODO///////////////////////////////////////////\r\n    //Mapping of the student to the tokenIDs\r\n    mapping(address => uint256[]) _takesCourses;\r\n    //Mapping of the tokenID to the students\r\n    mapping(uint256 => address[]) _studentsOf;\r\n    //TODO///////////////////////////////////////////\r\n\r\n    //is Course link exist\r\n    mapping(string => bool) _courseExist;\r\n    //List of Course Links\r\n    string[] _courseLinks;\r\n\r\n    constructor(address _rolesContractAddress, address _requestContractAddress) ERC721(\"Course\", \"CRS\"){\r\n        rolesContractAddress =_rolesContractAddress;\r\n        requestContractAddress = _requestContractAddress;\r\n    }\r\n\r\n    //TODO Change It To Role Based Ownership From Public\r\n    function mint(string memory _courseLink, address _instructorAddress) public{\r\n        require(Roles(rolesContractAddress).hasRectorRole(msg.sender), \"This account does not have the Rector Permissions\");\r\n        require(Roles(rolesContractAddress).hasInstructorRole(_instructorAddress), \"This address is not an instructor\");\r\n        require(!_courseExist[_courseLink], \"This link is already minted\");\r\n        //_courseLinks - add\r\n        _courseLinks.push(_courseLink);\r\n        uint _id = _courseLinks.length;\r\n        //tokenID's start from 1 because default uint256 value is 0\r\n        //Call mint of ERC721\r\n        _mint(_instructorAddress, _id);\r\n        //Trace it\r\n        _courseExist[_courseLink] = true;\r\n        _givesCourses[_instructorAddress].push(_id);\r\n\r\n        //Make request minted\r\n        Request(requestContractAddress).courseMinted(_courseLink);\r\n    }\r\n    function getCourseLinks() public view returns(string[] memory courseLinks){\r\n        return _courseLinks;\r\n    }\r\n    function getGivesCourses(address instructorAddress) public view returns (uint[] memory givesCourses){\r\n        return _givesCourses[instructorAddress];\r\n    }\r\n\r\n    //TODO Contract Owner can make mistakes when minting. Token should be somewhat editable for contract owner\r\n    function transferFrom(//Only callable when minted\r\n        address from,\r\n        address to,\r\n        uint256 tokenId\r\n    ) public virtual override {\r\n        require(msg.sender == 0x0000000000000000000000000000000000000000, \"Transfer after mint is prohibited\");\r\n        super.transferFrom(from,to,tokenId);\r\n    }\r\n    function safeTransferFrom(//Only callable when minted\r\n        address from,\r\n        address to,\r\n        uint256 tokenId\r\n    ) public virtual override {\r\n        require(msg.sender == 0x0000000000000000000000000000000000000000, \"Transfer after mint is prohibited\");\r\n        super.safeTransferFrom(from,to,tokenId);\r\n    }\r\n    function safeTransferFrom(//Only callable when minted\r\n        address from,\r\n        address to,\r\n        uint256 tokenId,\r\n        bytes memory _data\r\n    ) public virtual override {\r\n        require(msg.sender == 0x0000000000000000000000000000000000000000, \"Transfer after mint is prohibited\");\r\n        super.safeTransferFrom(from, to, tokenId, _data);\r\n    }\r\n}\r\n",
  "sourcePath": "C:\\Users\\asus\\Desktop\\Dersler\\CMPE492\\certification-project\\contracts\\Course.sol",
  "compiler": {
    "name": "solc",
    "version": "0.8.10+commit.fc410830.Emscripten.clang"
  },
  "schemaVersion": "3.4.4",
  "updatedAt": "2022-01-20T05:56:32.641Z",
  "devdoc": {
    "kind": "dev",
    "methods": {
      "approve(address,uint256)": {
        "details": "See {IERC721-approve}."
      },
      "balanceOf(address)": {
        "details": "See {IERC721-balanceOf}."
      },
      "getApproved(uint256)": {
        "details": "See {IERC721-getApproved}."
      },
      "isApprovedForAll(address,address)": {
        "details": "See {IERC721-isApprovedForAll}."
      },
      "name()": {
        "details": "See {IERC721Metadata-name}."
      },
      "ownerOf(uint256)": {
        "details": "See {IERC721-ownerOf}."
      },
      "safeTransferFrom(address,address,uint256)": {
        "details": "See {IERC721-safeTransferFrom}."
      },
      "safeTransferFrom(address,address,uint256,bytes)": {
        "details": "See {IERC721-safeTransferFrom}."
      },
      "setApprovalForAll(address,bool)": {
        "details": "See {IERC721-setApprovalForAll}."
      },
      "supportsInterface(bytes4)": {
        "details": "See {IERC165-supportsInterface}."
      },
      "symbol()": {
        "details": "See {IERC721Metadata-symbol}."
      },
      "tokenURI(uint256)": {
        "details": "See {IERC721Metadata-tokenURI}."
      },
      "transferFrom(address,address,uint256)": {
        "details": "See {IERC721-transferFrom}."
      }
    },
    "version": 1
  },
  "userdoc": {
    "kind": "user",
    "methods": {},
    "version": 1
  }
}