{
  "contractName": "Course",
  "abi": [
    {
      "inputs": [
        {
          "internalType": "address",
          "name": "_rolesContractAddress",
          "type": "address"
        }
      ],
      "stateMutability": "nonpayable",
      "type": "constructor"
    },
    {
      "anonymous": false,
      "inputs": [
        {
          "indexed": true,
          "internalType": "address",
          "name": "owner",
          "type": "address"
        },
        {
          "indexed": true,
          "internalType": "address",
          "name": "approved",
          "type": "address"
        },
        {
          "indexed": true,
          "internalType": "uint256",
          "name": "tokenId",
          "type": "uint256"
        }
      ],
      "name": "Approval",
      "type": "event"
    },
    {
      "anonymous": false,
      "inputs": [
        {
          "indexed": true,
          "internalType": "address",
          "name": "owner",
          "type": "address"
        },
        {
          "indexed": true,
          "internalType": "address",
          "name": "operator",
          "type": "address"
        },
        {
          "indexed": false,
          "internalType": "bool",
          "name": "approved",
          "type": "bool"
        }
      ],
      "name": "ApprovalForAll",
      "type": "event"
    },
    {
      "anonymous": false,
      "inputs": [
        {
          "indexed": true,
          "internalType": "bytes32",
          "name": "role",
          "type": "bytes32"
        },
        {
          "indexed": true,
          "internalType": "bytes32",
          "name": "previousAdminRole",
          "type": "bytes32"
        },
        {
          "indexed": true,
          "internalType": "bytes32",
          "name": "newAdminRole",
          "type": "bytes32"
        }
      ],
      "name": "RoleAdminChanged",
      "type": "event"
    },
    {
      "anonymous": false,
      "inputs": [
        {
          "indexed": true,
          "internalType": "bytes32",
          "name": "role",
          "type": "bytes32"
        },
        {
          "indexed": true,
          "internalType": "address",
          "name": "account",
          "type": "address"
        },
        {
          "indexed": true,
          "internalType": "address",
          "name": "sender",
          "type": "address"
        }
      ],
      "name": "RoleGranted",
      "type": "event"
    },
    {
      "anonymous": false,
      "inputs": [
        {
          "indexed": true,
          "internalType": "bytes32",
          "name": "role",
          "type": "bytes32"
        },
        {
          "indexed": true,
          "internalType": "address",
          "name": "account",
          "type": "address"
        },
        {
          "indexed": true,
          "internalType": "address",
          "name": "sender",
          "type": "address"
        }
      ],
      "name": "RoleRevoked",
      "type": "event"
    },
    {
      "anonymous": false,
      "inputs": [
        {
          "indexed": true,
          "internalType": "address",
          "name": "from",
          "type": "address"
        },
        {
          "indexed": true,
          "internalType": "address",
          "name": "to",
          "type": "address"
        },
        {
          "indexed": true,
          "internalType": "uint256",
          "name": "tokenId",
          "type": "uint256"
        }
      ],
      "name": "Transfer",
      "type": "event"
    },
    {
      "inputs": [],
      "name": "DEFAULT_ADMIN_ROLE",
      "outputs": [
        {
          "internalType": "bytes32",
          "name": "",
          "type": "bytes32"
        }
      ],
      "stateMutability": "view",
      "type": "function",
      "constant": true
    },
    {
      "inputs": [],
      "name": "DEPARTMENT_ROLE",
      "outputs": [
        {
          "internalType": "bytes32",
          "name": "",
          "type": "bytes32"
        }
      ],
      "stateMutability": "view",
      "type": "function",
      "constant": true
    },
    {
      "inputs": [],
      "name": "FACULTY_ROLE",
      "outputs": [
        {
          "internalType": "bytes32",
          "name": "",
          "type": "bytes32"
        }
      ],
      "stateMutability": "view",
      "type": "function",
      "constant": true
    },
    {
      "inputs": [],
      "name": "GRADUATED_ROLE",
      "outputs": [
        {
          "internalType": "bytes32",
          "name": "",
          "type": "bytes32"
        }
      ],
      "stateMutability": "view",
      "type": "function",
      "constant": true
    },
    {
      "inputs": [],
      "name": "INSTRUCTOR_ROLE",
      "outputs": [
        {
          "internalType": "bytes32",
          "name": "",
          "type": "bytes32"
        }
      ],
      "stateMutability": "view",
      "type": "function",
      "constant": true
    },
    {
      "inputs": [],
      "name": "RECTOR_ROLE",
      "outputs": [
        {
          "internalType": "bytes32",
          "name": "",
          "type": "bytes32"
        }
      ],
      "stateMutability": "view",
      "type": "function",
      "constant": true
    },
    {
      "inputs": [],
      "name": "STUDENT_ROLE",
      "outputs": [
        {
          "internalType": "bytes32",
          "name": "",
          "type": "bytes32"
        }
      ],
      "stateMutability": "view",
      "type": "function",
      "constant": true
    },
    {
      "inputs": [
        {
          "internalType": "address",
          "name": "to",
          "type": "address"
        },
        {
          "internalType": "uint256",
          "name": "tokenId",
          "type": "uint256"
        }
      ],
      "name": "approve",
      "outputs": [],
      "stateMutability": "nonpayable",
      "type": "function"
    },
    {
      "inputs": [
        {
          "internalType": "address",
          "name": "owner",
          "type": "address"
        }
      ],
      "name": "balanceOf",
      "outputs": [
        {
          "internalType": "uint256",
          "name": "",
          "type": "uint256"
        }
      ],
      "stateMutability": "view",
      "type": "function",
      "constant": true
    },
    {
      "inputs": [
        {
          "internalType": "uint256",
          "name": "tokenId",
          "type": "uint256"
        }
      ],
      "name": "getApproved",
      "outputs": [
        {
          "internalType": "address",
          "name": "",
          "type": "address"
        }
      ],
      "stateMutability": "view",
      "type": "function",
      "constant": true
    },
    {
      "inputs": [],
      "name": "getDepartmentRoles",
      "outputs": [
        {
          "internalType": "address[]",
          "name": "",
          "type": "address[]"
        }
      ],
      "stateMutability": "view",
      "type": "function",
      "constant": true
    },
    {
      "inputs": [],
      "name": "getFacultyRoles",
      "outputs": [
        {
          "internalType": "address[]",
          "name": "",
          "type": "address[]"
        }
      ],
      "stateMutability": "view",
      "type": "function",
      "constant": true
    },
    {
      "inputs": [],
      "name": "getGraduatedRoles",
      "outputs": [
        {
          "internalType": "address[]",
          "name": "",
          "type": "address[]"
        }
      ],
      "stateMutability": "view",
      "type": "function",
      "constant": true
    },
    {
      "inputs": [],
      "name": "getInstructorRoles",
      "outputs": [
        {
          "internalType": "address[]",
          "name": "",
          "type": "address[]"
        }
      ],
      "stateMutability": "view",
      "type": "function",
      "constant": true
    },
    {
      "inputs": [],
      "name": "getRectorRole",
      "outputs": [
        {
          "internalType": "address",
          "name": "",
          "type": "address"
        }
      ],
      "stateMutability": "view",
      "type": "function",
      "constant": true
    },
    {
      "inputs": [
        {
          "internalType": "bytes32",
          "name": "role",
          "type": "bytes32"
        }
      ],
      "name": "getRoleAdmin",
      "outputs": [
        {
          "internalType": "bytes32",
          "name": "",
          "type": "bytes32"
        }
      ],
      "stateMutability": "view",
      "type": "function",
      "constant": true
    },
    {
      "inputs": [
        {
          "internalType": "bytes32",
          "name": "role",
          "type": "bytes32"
        },
        {
          "internalType": "uint256",
          "name": "index",
          "type": "uint256"
        }
      ],
      "name": "getRoleMember",
      "outputs": [
        {
          "internalType": "address",
          "name": "",
          "type": "address"
        }
      ],
      "stateMutability": "view",
      "type": "function",
      "constant": true
    },
    {
      "inputs": [
        {
          "internalType": "bytes32",
          "name": "role",
          "type": "bytes32"
        }
      ],
      "name": "getRoleMemberCount",
      "outputs": [
        {
          "internalType": "uint256",
          "name": "",
          "type": "uint256"
        }
      ],
      "stateMutability": "view",
      "type": "function",
      "constant": true
    },
    {
      "inputs": [],
      "name": "getStudentRoles",
      "outputs": [
        {
          "internalType": "address[]",
          "name": "",
          "type": "address[]"
        }
      ],
      "stateMutability": "view",
      "type": "function",
      "constant": true
    },
    {
      "inputs": [
        {
          "internalType": "address",
          "name": "account",
          "type": "address"
        }
      ],
      "name": "grantDepartmentRole",
      "outputs": [],
      "stateMutability": "nonpayable",
      "type": "function"
    },
    {
      "inputs": [
        {
          "internalType": "address",
          "name": "account",
          "type": "address"
        }
      ],
      "name": "grantFacultyRole",
      "outputs": [],
      "stateMutability": "nonpayable",
      "type": "function"
    },
    {
      "inputs": [
        {
          "internalType": "address",
          "name": "account",
          "type": "address"
        }
      ],
      "name": "grantGraduatedRole",
      "outputs": [],
      "stateMutability": "nonpayable",
      "type": "function"
    },
    {
      "inputs": [
        {
          "internalType": "address",
          "name": "account",
          "type": "address"
        }
      ],
      "name": "grantInstructorRole",
      "outputs": [],
      "stateMutability": "nonpayable",
      "type": "function"
    },
    {
      "inputs": [
        {
          "internalType": "address",
          "name": "account",
          "type": "address"
        }
      ],
      "name": "grantRectorRole",
      "outputs": [],
      "stateMutability": "nonpayable",
      "type": "function"
    },
    {
      "inputs": [
        {
          "internalType": "bytes32",
          "name": "role",
          "type": "bytes32"
        },
        {
          "internalType": "address",
          "name": "account",
          "type": "address"
        }
      ],
      "name": "grantRole",
      "outputs": [],
      "stateMutability": "nonpayable",
      "type": "function"
    },
    {
      "inputs": [
        {
          "internalType": "address",
          "name": "account",
          "type": "address"
        }
      ],
      "name": "grantStudentRole",
      "outputs": [],
      "stateMutability": "nonpayable",
      "type": "function"
    },
    {
      "inputs": [
        {
          "internalType": "address",
          "name": "account",
          "type": "address"
        }
      ],
      "name": "hasDepartmentRole",
      "outputs": [
        {
          "internalType": "bool",
          "name": "",
          "type": "bool"
        }
      ],
      "stateMutability": "view",
      "type": "function",
      "constant": true
    },
    {
      "inputs": [
        {
          "internalType": "address",
          "name": "account",
          "type": "address"
        }
      ],
      "name": "hasFacultyRole",
      "outputs": [
        {
          "internalType": "bool",
          "name": "",
          "type": "bool"
        }
      ],
      "stateMutability": "view",
      "type": "function",
      "constant": true
    },
    {
      "inputs": [
        {
          "internalType": "address",
          "name": "account",
          "type": "address"
        }
      ],
      "name": "hasGraduatedRole",
      "outputs": [
        {
          "internalType": "bool",
          "name": "",
          "type": "bool"
        }
      ],
      "stateMutability": "view",
      "type": "function",
      "constant": true
    },
    {
      "inputs": [
        {
          "internalType": "address",
          "name": "account",
          "type": "address"
        }
      ],
      "name": "hasInstructorRole",
      "outputs": [
        {
          "internalType": "bool",
          "name": "",
          "type": "bool"
        }
      ],
      "stateMutability": "view",
      "type": "function",
      "constant": true
    },
    {
      "inputs": [
        {
          "internalType": "address",
          "name": "account",
          "type": "address"
        }
      ],
      "name": "hasRectorRole",
      "outputs": [
        {
          "internalType": "bool",
          "name": "",
          "type": "bool"
        }
      ],
      "stateMutability": "view",
      "type": "function",
      "constant": true
    },
    {
      "inputs": [
        {
          "internalType": "bytes32",
          "name": "role",
          "type": "bytes32"
        },
        {
          "internalType": "address",
          "name": "account",
          "type": "address"
        }
      ],
      "name": "hasRole",
      "outputs": [
        {
          "internalType": "bool",
          "name": "",
          "type": "bool"
        }
      ],
      "stateMutability": "view",
      "type": "function",
      "constant": true
    },
    {
      "inputs": [
        {
          "internalType": "address",
          "name": "account",
          "type": "address"
        }
      ],
      "name": "hasStudentRole",
      "outputs": [
        {
          "internalType": "bool",
          "name": "",
          "type": "bool"
        }
      ],
      "stateMutability": "view",
      "type": "function",
      "constant": true
    },
    {
      "inputs": [
        {
          "internalType": "address",
          "name": "_courseContractAddress",
          "type": "address"
        },
        {
          "internalType": "address",
          "name": "_departmentContractAddress",
          "type": "address"
        },
        {
          "internalType": "address",
          "name": "_diplomaContractAddress",
          "type": "address"
        },
        {
          "internalType": "address",
          "name": "_facultyContractAddress",
          "type": "address"
        }
      ],
      "name": "init",
      "outputs": [],
      "stateMutability": "nonpayable",
      "type": "function"
    },
    {
      "inputs": [
        {
          "internalType": "address",
          "name": "owner",
          "type": "address"
        },
        {
          "internalType": "address",
          "name": "operator",
          "type": "address"
        }
      ],
      "name": "isApprovedForAll",
      "outputs": [
        {
          "internalType": "bool",
          "name": "",
          "type": "bool"
        }
      ],
      "stateMutability": "view",
      "type": "function",
      "constant": true
    },
    {
      "inputs": [],
      "name": "name",
      "outputs": [
        {
          "internalType": "string",
          "name": "",
          "type": "string"
        }
      ],
      "stateMutability": "view",
      "type": "function",
      "constant": true
    },
    {
      "inputs": [
        {
          "internalType": "uint256",
          "name": "tokenId",
          "type": "uint256"
        }
      ],
      "name": "ownerOf",
      "outputs": [
        {
          "internalType": "address",
          "name": "",
          "type": "address"
        }
      ],
      "stateMutability": "view",
      "type": "function",
      "constant": true
    },
    {
      "inputs": [
        {
          "internalType": "bytes32",
          "name": "role",
          "type": "bytes32"
        },
        {
          "internalType": "address",
          "name": "account",
          "type": "address"
        }
      ],
      "name": "renounceRole",
      "outputs": [],
      "stateMutability": "nonpayable",
      "type": "function"
    },
    {
      "inputs": [
        {
          "internalType": "address",
          "name": "account",
          "type": "address"
        }
      ],
      "name": "revokeDepartmentRole",
      "outputs": [],
      "stateMutability": "nonpayable",
      "type": "function"
    },
    {
      "inputs": [
        {
          "internalType": "address",
          "name": "account",
          "type": "address"
        }
      ],
      "name": "revokeFacultyRole",
      "outputs": [],
      "stateMutability": "nonpayable",
      "type": "function"
    },
    {
      "inputs": [
        {
          "internalType": "address",
          "name": "account",
          "type": "address"
        }
      ],
      "name": "revokeInstructorRole",
      "outputs": [],
      "stateMutability": "nonpayable",
      "type": "function"
    },
    {
      "inputs": [
        {
          "internalType": "bytes32",
          "name": "role",
          "type": "bytes32"
        },
        {
          "internalType": "address",
          "name": "account",
          "type": "address"
        }
      ],
      "name": "revokeRole",
      "outputs": [],
      "stateMutability": "nonpayable",
      "type": "function"
    },
    {
      "inputs": [
        {
          "internalType": "address",
          "name": "account",
          "type": "address"
        }
      ],
      "name": "revokeStudentRole",
      "outputs": [],
      "stateMutability": "nonpayable",
      "type": "function"
    },
    {
      "inputs": [
        {
          "internalType": "address",
          "name": "operator",
          "type": "address"
        },
        {
          "internalType": "bool",
          "name": "approved",
          "type": "bool"
        }
      ],
      "name": "setApprovalForAll",
      "outputs": [],
      "stateMutability": "nonpayable",
      "type": "function"
    },
    {
      "inputs": [],
      "name": "symbol",
      "outputs": [
        {
          "internalType": "string",
          "name": "",
          "type": "string"
        }
      ],
      "stateMutability": "view",
      "type": "function",
      "constant": true
    },
    {
      "inputs": [
        {
          "internalType": "uint256",
          "name": "tokenId",
          "type": "uint256"
        }
      ],
      "name": "tokenURI",
      "outputs": [
        {
          "internalType": "string",
          "name": "",
          "type": "string"
        }
      ],
      "stateMutability": "view",
      "type": "function",
      "constant": true
    },
    {
      "inputs": [
        {
          "internalType": "string",
          "name": "_courseLink",
          "type": "string"
        },
        {
          "internalType": "address",
          "name": "instructorAddress",
          "type": "address"
        }
      ],
      "name": "mint",
      "outputs": [],
      "stateMutability": "nonpayable",
      "type": "function"
    },
    {
      "inputs": [],
      "name": "getCourseLinks",
      "outputs": [
        {
          "internalType": "string[]",
          "name": "courseLinks",
          "type": "string[]"
        }
      ],
      "stateMutability": "view",
      "type": "function",
      "constant": true
    },
    {
      "inputs": [
        {
          "internalType": "address",
          "name": "instructorAddress",
          "type": "address"
        }
      ],
      "name": "getGivesCourses",
      "outputs": [
        {
          "internalType": "uint256[]",
          "name": "givesCourses",
          "type": "uint256[]"
        }
      ],
      "stateMutability": "view",
      "type": "function",
      "constant": true
    },
    {
      "inputs": [
        {
          "internalType": "address",
          "name": "from",
          "type": "address"
        },
        {
          "internalType": "address",
          "name": "to",
          "type": "address"
        },
        {
          "internalType": "uint256",
          "name": "tokenId",
          "type": "uint256"
        }
      ],
      "name": "transferFrom",
      "outputs": [],
      "stateMutability": "nonpayable",
      "type": "function"
    },
    {
      "inputs": [
        {
          "internalType": "address",
          "name": "from",
          "type": "address"
        },
        {
          "internalType": "address",
          "name": "to",
          "type": "address"
        },
        {
          "internalType": "uint256",
          "name": "tokenId",
          "type": "uint256"
        }
      ],
      "name": "safeTransferFrom",
      "outputs": [],
      "stateMutability": "nonpayable",
      "type": "function"
    },
    {
      "inputs": [
        {
          "internalType": "address",
          "name": "from",
          "type": "address"
        },
        {
          "internalType": "address",
          "name": "to",
          "type": "address"
        },
        {
          "internalType": "uint256",
          "name": "tokenId",
          "type": "uint256"
        },
        {
          "internalType": "bytes",
          "name": "_data",
          "type": "bytes"
        }
      ],
      "name": "safeTransferFrom",
      "outputs": [],
      "stateMutability": "nonpayable",
      "type": "function"
    },
    {
      "inputs": [
        {
          "internalType": "bytes4",
          "name": "interfaceId",
          "type": "bytes4"
        }
      ],
      "name": "supportsInterface",
      "outputs": [
        {
          "internalType": "bool",
          "name": "",
          "type": "bool"
        }
      ],
      "stateMutability": "view",
      "type": "function",
      "constant": true
    }
  ],
  "bytecode": "0x60806040523480156200001157600080fd5b5060405162005cc738038062005cc783398181016040528101906200003791906200055f565b6040518060400160405280600681526020017f436f7572736500000000000000000000000000000000000000000000000000008152506040518060400160405280600381526020017f43525300000000000000000000000000000000000000000000000000000000008152508160009080519060200190620000bb92919062000445565b508060019080519060200190620000d492919062000445565b505050620000ec6000801b33620001ad60201b60201c565b6200011e7f5f1d1e303f9c0a1801dd708bdc4239781d66c88ca6cb941c5769ba09b5c1b28533620001ad60201b60201c565b620001336000801b33620001ad60201b60201c565b620001657f5f1d1e303f9c0a1801dd708bdc4239781d66c88ca6cb941c5769ba09b5c1b28533620001ad60201b60201c565b80600e60006101000a81548173ffffffffffffffffffffffffffffffffffffffff021916908373ffffffffffffffffffffffffffffffffffffffff16021790555050620005f6565b620001bf8282620001c360201b60201c565b5050565b620001da82826200020b60201b620023701760201c565b620002068160076000858152602001908152602001600020620002fd60201b620024511790919060201c565b505050565b6200021d82826200033560201b60201c565b620002f95760016006600084815260200190815260200160002060000160008373ffffffffffffffffffffffffffffffffffffffff1673ffffffffffffffffffffffffffffffffffffffff16815260200190815260200160002060006101000a81548160ff0219169083151502179055506200029e620003a060201b60201c565b73ffffffffffffffffffffffffffffffffffffffff168173ffffffffffffffffffffffffffffffffffffffff16837f2f8788117e7eff1d82e926ec794901d17c78024a50270940304540a733656f0d60405160405180910390a45b5050565b60006200032d836000018373ffffffffffffffffffffffffffffffffffffffff1660001b620003a860201b60201c565b905092915050565b60006006600084815260200190815260200160002060000160008373ffffffffffffffffffffffffffffffffffffffff1673ffffffffffffffffffffffffffffffffffffffff16815260200190815260200160002060009054906101000a900460ff16905092915050565b600033905090565b6000620003bc83836200042260201b60201c565b620004175782600001829080600181540180825580915050600190039060005260206000200160009091909190915055826000018054905083600101600084815260200190815260200160002081905550600190506200041c565b600090505b92915050565b600080836001016000848152602001908152602001600020541415905092915050565b8280546200045390620005c0565b90600052602060002090601f016020900481019282620004775760008555620004c3565b82601f106200049257805160ff1916838001178555620004c3565b82800160010185558215620004c3579182015b82811115620004c2578251825591602001919060010190620004a5565b5b509050620004d29190620004d6565b5090565b5b80821115620004f1576000816000905550600101620004d7565b5090565b600080fd5b600073ffffffffffffffffffffffffffffffffffffffff82169050919050565b60006200052782620004fa565b9050919050565b62000539816200051a565b81146200054557600080fd5b50565b60008151905062000559816200052e565b92915050565b600060208284031215620005785762000577620004f5565b5b6000620005888482850162000548565b91505092915050565b7f4e487b7100000000000000000000000000000000000000000000000000000000600052602260045260246000fd5b60006002820490506001821680620005d957607f821691505b60208210811415620005f057620005ef62000591565b5b50919050565b6156c180620006066000396000f3fe608060405234801561001057600080fd5b50600436106103275760003560e01c80637168c27d116101b8578063ad7be93a11610104578063d547741f116100a2578063e78af7c51161007c578063e78af7c5146109be578063e985e9c5146109ee578063f7be43fb14610a1e578063fc3ba6b414610a3c57610327565b8063d547741f14610954578063db0b1fee14610970578063e17f6b2c1461098e57610327565b8063ba5adbd1116100de578063ba5adbd1146108ba578063c87b56dd146108d8578063c94d10ad14610908578063ca15c8731461092457610327565b8063ad7be93a14610864578063b88d4fde14610882578063b94470511461089e57610327565b806395d89b4111610171578063996dc0221161014b578063996dc022146107ee578063a217fddf1461080c578063a22cb4651461082a578063a6faa9621461084657610327565b806395d89b4114610782578063973c4b6c146107a05780639822a599146107be57610327565b80637168c27d1461069c57806386f8e92c146106cc5780638bcf979c146106e85780638df6674a146107065780639010d07c1461072257806391d148541461075257610327565b80632b1533c411610277578063529f790c116102305780635f1d514e1161020a5780635f1d514e146106025780636352211e1461061e5780636fe3ceb81461064e57806370a082311461066c57610327565b8063529f790c146105ac5780635e3c7e8e146105c85780635ea07b1c146105e657610327565b80632b1533c4146104ee5780632be7dc441461050c5780632f2ff15d1461053c57806332b3c8461461055857806336568abe1461057457806342842e0e1461059057610327565b80630baf40e3116102e45780631c351a9d116102be5780631c351a9d1461046857806323b872dd14610484578063248a9ca3146104a057806324d42a37146104d057610327565b80630baf40e3146103fe57806312fb59f21461042e57806316bec7811461044a57610327565b806301ffc9a71461032c5780630252dffc1461035c57806306552ff31461037857806306fdde0314610394578063081812fc146103b2578063095ea7b3146103e2575b600080fd5b61034660048036038101906103419190613c4f565b610a6c565b6040516103539190613c97565b60405180910390f35b61037660048036038101906103719190613d10565b610a7e565b005b610392600480360381019061038d9190613d3d565b610aea565b005b61039c610bff565b6040516103a99190613e3d565b60405180910390f35b6103cc60048036038101906103c79190613e95565b610c91565b6040516103d99190613ed1565b60405180910390f35b6103fc60048036038101906103f79190613eec565b610d16565b005b61041860048036038101906104139190613d10565b610e2e565b6040516104259190613fea565b60405180910390f35b61044860048036038101906104439190613d10565b610ec5565b005b610452610f88565b60405161045f91906140ca565b60405180910390f35b610482600480360381019061047d9190614221565b611016565b005b61049e6004803603810190610499919061427d565b6111dd565b005b6104ba60048036038101906104b59190614306565b61125c565b6040516104c79190614342565b60405180910390f35b6104d861127c565b6040516104e59190614342565b60405180910390f35b6104f66112a0565b60405161050391906140ca565b60405180910390f35b61052660048036038101906105219190613d10565b61132e565b6040516105339190613c97565b60405180910390f35b6105566004803603810190610551919061435d565b611361565b005b610572600480360381019061056d9190613d10565b61138a565b005b61058e6004803603810190610589919061435d565b6113f6565b005b6105aa60048036038101906105a5919061427d565b611479565b005b6105c660048036038101906105c19190613d10565b6114f8565b005b6105d06115bb565b6040516105dd91906140ca565b60405180910390f35b61060060048036038101906105fb9190613d10565b611649565b005b61061c60048036038101906106179190613d10565b61179f565b005b61063860048036038101906106339190613e95565b611862565b6040516106459190613ed1565b60405180910390f35b610656611914565b6040516106639190614342565b60405180910390f35b61068660048036038101906106819190613d10565b611938565b60405161069391906143ac565b60405180910390f35b6106b660048036038101906106b19190613d10565b6119f0565b6040516106c39190613c97565b60405180910390f35b6106e660048036038101906106e19190613d10565b611a23565b005b6106f0611a8f565b6040516106fd9190614342565b60405180910390f35b610720600480360381019061071b9190613d10565b611ab3565b005b61073c600480360381019061073791906143c7565b611b98565b6040516107499190613ed1565b60405180910390f35b61076c6004803603810190610767919061435d565b611bc7565b6040516107799190613c97565b60405180910390f35b61078a611c32565b6040516107979190613e3d565b60405180910390f35b6107a8611cc4565b6040516107b59190613ed1565b60405180910390f35b6107d860048036038101906107d39190613d10565b611cee565b6040516107e59190613c97565b60405180910390f35b6107f6611d21565b6040516108039190614342565b60405180910390f35b610814611d45565b6040516108219190614342565b60405180910390f35b610844600480360381019061083f9190614433565b611d4c565b005b61084e611d62565b60405161085b919061457f565b60405180910390f35b61086c611e3b565b6040516108799190614342565b60405180910390f35b61089c60048036038101906108979190614642565b611e5f565b005b6108b860048036038101906108b39190613d10565b611ee0565b005b6108c2611f4c565b6040516108cf91906140ca565b60405180910390f35b6108f260048036038101906108ed9190613e95565b611fda565b6040516108ff9190613e3d565b60405180910390f35b610922600480360381019061091d9190613d10565b612081565b005b61093e60048036038101906109399190614306565b612144565b60405161094b91906143ac565b60405180910390f35b61096e6004803603810190610969919061435d565b612168565b005b610978612191565b60405161098591906140ca565b60405180910390f35b6109a860048036038101906109a39190613d10565b61221f565b6040516109b59190613c97565b60405180910390f35b6109d860048036038101906109d39190613d10565b612252565b6040516109e59190613c97565b60405180910390f35b610a086004803603810190610a0391906146c5565b612285565b604051610a159190613c97565b60405180910390f35b610a26612319565b604051610a339190614342565b60405180910390f35b610a566004803603810190610a519190613d10565b61233d565b604051610a639190613c97565b60405180910390f35b6000610a7782612481565b9050919050565b7f5f1d1e303f9c0a1801dd708bdc4239781d66c88ca6cb941c5769ba09b5c1b285610ab081610aab6124fb565b612503565b610ada7fe7837d04f36ce0b2f3cc662bf1b2b632a7fbd12ae95199e8bd3dcfbcc440b66b83612168565b610ae582600a6125a0565b505050565b7f5f1d1e303f9c0a1801dd708bdc4239781d66c88ca6cb941c5769ba09b5c1b285610b1c81610b176124fb565b612503565b610b296000801b866127b4565b610b537f5f1d1e303f9c0a1801dd708bdc4239781d66c88ca6cb941c5769ba09b5c1b285866127b4565b610b606000801b856127b4565b610b8a7f5f1d1e303f9c0a1801dd708bdc4239781d66c88ca6cb941c5769ba09b5c1b285856127b4565b610b976000801b846127b4565b610bc17f5f1d1e303f9c0a1801dd708bdc4239781d66c88ca6cb941c5769ba09b5c1b285846127b4565b610bce6000801b836127b4565b610bf87f5f1d1e303f9c0a1801dd708bdc4239781d66c88ca6cb941c5769ba09b5c1b285836127b4565b5050505050565b606060008054610c0e90614734565b80601f0160208091040260200160405190810160405280929190818152602001828054610c3a90614734565b8015610c875780601f10610c5c57610100808354040283529160200191610c87565b820191906000526020600020905b815481529060010190602001808311610c6a57829003601f168201915b5050505050905090565b6000610c9c826127c2565b610cdb576040517f08c379a0000000000000000000000000000000000000000000000000000000008152600401610cd2906147d8565b60405180910390fd5b6004600083815260200190815260200160002060009054906101000a900473ffffffffffffffffffffffffffffffffffffffff169050919050565b6000610d2182611862565b90508073ffffffffffffffffffffffffffffffffffffffff168373ffffffffffffffffffffffffffffffffffffffff161415610d92576040517f08c379a0000000000000000000000000000000000000000000000000000000008152600401610d899061486a565b60405180910390fd5b8073ffffffffffffffffffffffffffffffffffffffff16610db16124fb565b73ffffffffffffffffffffffffffffffffffffffff161480610de05750610ddf81610dda6124fb565b612285565b5b610e1f576040517f08c379a0000000000000000000000000000000000000000000000000000000008152600401610e16906148fc565b60405180910390fd5b610e29838361282e565b505050565b6060600f60008373ffffffffffffffffffffffffffffffffffffffff1673ffffffffffffffffffffffffffffffffffffffff168152602001908152602001600020805480602002602001604051908101604052809291908181526020018280548015610eb957602002820191906000526020600020905b815481526020019060010190808311610ea5575b50505050509050919050565b7f5f1d1e303f9c0a1801dd708bdc4239781d66c88ca6cb941c5769ba09b5c1b285610ef781610ef26124fb565b612503565b610f217fe7837d04f36ce0b2f3cc662bf1b2b632a7fbd12ae95199e8bd3dcfbcc440b66b83611361565b600a829080600181540180825580915050600190039060005260206000200160009091909190916101000a81548173ffffffffffffffffffffffffffffffffffffffff021916908373ffffffffffffffffffffffffffffffffffffffff1602179055505050565b6060600a80548060200260200160405190810160405280929190818152602001828054801561100c57602002820191906000526020600020905b8160009054906101000a900473ffffffffffffffffffffffffffffffffffffffff1673ffffffffffffffffffffffffffffffffffffffff1681526020019060010190808311610fc2575b5050505050905090565b6012826040516110269190614958565b908152602001604051809103902060009054906101000a900460ff1615611082576040517f08c379a0000000000000000000000000000000000000000000000000000000008152600401611079906149bb565b60405180910390fd5b6110ac7fae4a0595970935aa5495afbbb72e5f1f6ff1062766b4a3028c0c9b7d5cf7e34582611bc7565b6110eb576040517f08c379a00000000000000000000000000000000000000000000000000000000081526004016110e290614a4d565b60405180910390fd5b601382908060018154018082558091505060019003906000526020600020016000909190919091509080519060200190611126929190613b40565b506000601380549050905061113b82826128e7565b600160128460405161114d9190614958565b908152602001604051809103902060006101000a81548160ff021916908315150217905550600f60008373ffffffffffffffffffffffffffffffffffffffff1673ffffffffffffffffffffffffffffffffffffffff168152602001908152602001600020819080600181540180825580915050600190039060005260206000200160009091909190915055505050565b600073ffffffffffffffffffffffffffffffffffffffff163373ffffffffffffffffffffffffffffffffffffffff161461124c576040517f08c379a000000000000000000000000000000000000000000000000000000000815260040161124390614adf565b60405180910390fd5b611257838383612ab5565b505050565b600060066000838152602001908152602001600020600101549050919050565b7f5f1d1e303f9c0a1801dd708bdc4239781d66c88ca6cb941c5769ba09b5c1b28581565b6060600980548060200260200160405190810160405280929190818152602001828054801561132457602002820191906000526020600020905b8160009054906101000a900473ffffffffffffffffffffffffffffffffffffffff1673ffffffffffffffffffffffffffffffffffffffff16815260200190600101908083116112da575b5050505050905090565b600061135a7f5f1d1e303f9c0a1801dd708bdc4239781d66c88ca6cb941c5769ba09b5c1b28583611bc7565b9050919050565b61136a8261125c565b61137b816113766124fb565b612503565b6113858383612b15565b505050565b7f5f1d1e303f9c0a1801dd708bdc4239781d66c88ca6cb941c5769ba09b5c1b2856113bc816113b76124fb565b612503565b6113e67f36a5c4aaacb6b388bbd448bf11096b7dafc5652bcc9046084fd0e95b1fb0b2cc83612168565b6113f182600c6125a0565b505050565b6113fe6124fb565b73ffffffffffffffffffffffffffffffffffffffff168173ffffffffffffffffffffffffffffffffffffffff161461146b576040517f08c379a000000000000000000000000000000000000000000000000000000000815260040161146290614b71565b60405180910390fd5b6114758282612b49565b5050565b600073ffffffffffffffffffffffffffffffffffffffff163373ffffffffffffffffffffffffffffffffffffffff16146114e8576040517f08c379a00000000000000000000000000000000000000000000000000000000081526004016114df90614adf565b60405180910390fd5b6114f3838383612b7d565b505050565b7f5f1d1e303f9c0a1801dd708bdc4239781d66c88ca6cb941c5769ba09b5c1b28561152a816115256124fb565b612503565b6115547ff3f9cfff7b46f415da5a492b1718971da203f87c6aae9299e7b408eb83ef8bee83611361565b6009829080600181540180825580915050600190039060005260206000200160009091909190916101000a81548173ffffffffffffffffffffffffffffffffffffffff021916908373ffffffffffffffffffffffffffffffffffffffff1602179055505050565b6060600b80548060200260200160405190810160405280929190818152602001828054801561163f57602002820191906000526020600020905b8160009054906101000a900473ffffffffffffffffffffffffffffffffffffffff1673ffffffffffffffffffffffffffffffffffffffff16815260200190600101908083116115f5575b5050505050905090565b7f5f1d1e303f9c0a1801dd708bdc4239781d66c88ca6cb941c5769ba09b5c1b28561167b816116766124fb565b612503565b6116a57f36a5c4aaacb6b388bbd448bf11096b7dafc5652bcc9046084fd0e95b1fb0b2cc83611bc7565b6116e4576040517f08c379a00000000000000000000000000000000000000000000000000000000081526004016116db90614bdd565b60405180910390fd5b61170e7f36a5c4aaacb6b388bbd448bf11096b7dafc5652bcc9046084fd0e95b1fb0b2cc83612168565b6117387f4758f7d70d6088cbfad5c79861ac6457ba2af02adf5ea419e97879ae24459cb683611361565b600d829080600181540180825580915050600190039060005260206000200160009091909190916101000a81548173ffffffffffffffffffffffffffffffffffffffff021916908373ffffffffffffffffffffffffffffffffffffffff1602179055505050565b7f5f1d1e303f9c0a1801dd708bdc4239781d66c88ca6cb941c5769ba09b5c1b2856117d1816117cc6124fb565b612503565b6117fb7fae4a0595970935aa5495afbbb72e5f1f6ff1062766b4a3028c0c9b7d5cf7e34583611361565b600b829080600181540180825580915050600190039060005260206000200160009091909190916101000a81548173ffffffffffffffffffffffffffffffffffffffff021916908373ffffffffffffffffffffffffffffffffffffffff1602179055505050565b6000806002600084815260200190815260200160002060009054906101000a900473ffffffffffffffffffffffffffffffffffffffff169050600073ffffffffffffffffffffffffffffffffffffffff168173ffffffffffffffffffffffffffffffffffffffff16141561190b576040517f08c379a000000000000000000000000000000000000000000000000000000000815260040161190290614c6f565b60405180910390fd5b80915050919050565b7ff3f9cfff7b46f415da5a492b1718971da203f87c6aae9299e7b408eb83ef8bee81565b60008073ffffffffffffffffffffffffffffffffffffffff168273ffffffffffffffffffffffffffffffffffffffff1614156119a9576040517f08c379a00000000000000000000000000000000000000000000000000000000081526004016119a090614d01565b60405180910390fd5b600360008373ffffffffffffffffffffffffffffffffffffffff1673ffffffffffffffffffffffffffffffffffffffff168152602001908152602001600020549050919050565b6000611a1c7f4758f7d70d6088cbfad5c79861ac6457ba2af02adf5ea419e97879ae24459cb683611bc7565b9050919050565b7f5f1d1e303f9c0a1801dd708bdc4239781d66c88ca6cb941c5769ba09b5c1b285611a5581611a506124fb565b612503565b611a7f7fae4a0595970935aa5495afbbb72e5f1f6ff1062766b4a3028c0c9b7d5cf7e34583612168565b611a8a82600b6125a0565b505050565b7fae4a0595970935aa5495afbbb72e5f1f6ff1062766b4a3028c0c9b7d5cf7e34581565b7f5f1d1e303f9c0a1801dd708bdc4239781d66c88ca6cb941c5769ba09b5c1b285611ae581611ae06124fb565b612503565b611b0f7f5f1d1e303f9c0a1801dd708bdc4239781d66c88ca6cb941c5769ba09b5c1b28583611361565b611b1c6000801b83611361565b611b296000801b336113f6565b611b537f5f1d1e303f9c0a1801dd708bdc4239781d66c88ca6cb941c5769ba09b5c1b285336113f6565b81600860006101000a81548173ffffffffffffffffffffffffffffffffffffffff021916908373ffffffffffffffffffffffffffffffffffffffff1602179055505050565b6000611bbf8260076000868152602001908152602001600020612b9d90919063ffffffff16565b905092915050565b60006006600084815260200190815260200160002060000160008373ffffffffffffffffffffffffffffffffffffffff1673ffffffffffffffffffffffffffffffffffffffff16815260200190815260200160002060009054906101000a900460ff16905092915050565b606060018054611c4190614734565b80601f0160208091040260200160405190810160405280929190818152602001828054611c6d90614734565b8015611cba5780601f10611c8f57610100808354040283529160200191611cba565b820191906000526020600020905b815481529060010190602001808311611c9d57829003601f168201915b5050505050905090565b6000600860009054906101000a900473ffffffffffffffffffffffffffffffffffffffff16905090565b6000611d1a7fae4a0595970935aa5495afbbb72e5f1f6ff1062766b4a3028c0c9b7d5cf7e34583611bc7565b9050919050565b7fe7837d04f36ce0b2f3cc662bf1b2b632a7fbd12ae95199e8bd3dcfbcc440b66b81565b6000801b81565b611d5e611d576124fb565b8383612bb7565b5050565b60606013805480602002602001604051908101604052809291908181526020016000905b82821015611e32578382906000526020600020018054611da590614734565b80601f0160208091040260200160405190810160405280929190818152602001828054611dd190614734565b8015611e1e5780601f10611df357610100808354040283529160200191611e1e565b820191906000526020600020905b815481529060010190602001808311611e0157829003601f168201915b505050505081526020019060010190611d86565b50505050905090565b7f4758f7d70d6088cbfad5c79861ac6457ba2af02adf5ea419e97879ae24459cb681565b600073ffffffffffffffffffffffffffffffffffffffff163373ffffffffffffffffffffffffffffffffffffffff1614611ece576040517f08c379a0000000000000000000000000000000000000000000000000000000008152600401611ec590614adf565b60405180910390fd5b611eda84848484612d24565b50505050565b7f5f1d1e303f9c0a1801dd708bdc4239781d66c88ca6cb941c5769ba09b5c1b285611f1281611f0d6124fb565b612503565b611f3c7ff3f9cfff7b46f415da5a492b1718971da203f87c6aae9299e7b408eb83ef8bee83612168565b611f478260096125a0565b505050565b6060600c805480602002602001604051908101604052809291908181526020018280548015611fd057602002820191906000526020600020905b8160009054906101000a900473ffffffffffffffffffffffffffffffffffffffff1673ffffffffffffffffffffffffffffffffffffffff1681526020019060010190808311611f86575b5050505050905090565b6060611fe5826127c2565b612024576040517f08c379a000000000000000000000000000000000000000000000000000000000815260040161201b90614d93565b60405180910390fd5b600061202e612d86565b9050600081511161204e5760405180602001604052806000815250612079565b8061205884612d9d565b604051602001612069929190614db3565b6040516020818303038152906040525b915050919050565b7f5f1d1e303f9c0a1801dd708bdc4239781d66c88ca6cb941c5769ba09b5c1b2856120b3816120ae6124fb565b612503565b6120dd7f36a5c4aaacb6b388bbd448bf11096b7dafc5652bcc9046084fd0e95b1fb0b2cc83611361565b600c829080600181540180825580915050600190039060005260206000200160009091909190916101000a81548173ffffffffffffffffffffffffffffffffffffffff021916908373ffffffffffffffffffffffffffffffffffffffff1602179055505050565b600061216160076000848152602001908152602001600020612efe565b9050919050565b6121718261125c565b6121828161217d6124fb565b612503565b61218c8383612b49565b505050565b6060600d80548060200260200160405190810160405280929190818152602001828054801561221557602002820191906000526020600020905b8160009054906101000a900473ffffffffffffffffffffffffffffffffffffffff1673ffffffffffffffffffffffffffffffffffffffff16815260200190600101908083116121cb575b5050505050905090565b600061224b7fe7837d04f36ce0b2f3cc662bf1b2b632a7fbd12ae95199e8bd3dcfbcc440b66b83611bc7565b9050919050565b600061227e7ff3f9cfff7b46f415da5a492b1718971da203f87c6aae9299e7b408eb83ef8bee83611bc7565b9050919050565b6000600560008473ffffffffffffffffffffffffffffffffffffffff1673ffffffffffffffffffffffffffffffffffffffff16815260200190815260200160002060008373ffffffffffffffffffffffffffffffffffffffff1673ffffffffffffffffffffffffffffffffffffffff16815260200190815260200160002060009054906101000a900460ff16905092915050565b7f36a5c4aaacb6b388bbd448bf11096b7dafc5652bcc9046084fd0e95b1fb0b2cc81565b60006123697f36a5c4aaacb6b388bbd448bf11096b7dafc5652bcc9046084fd0e95b1fb0b2cc83611bc7565b9050919050565b61237a8282611bc7565b61244d5760016006600084815260200190815260200160002060000160008373ffffffffffffffffffffffffffffffffffffffff1673ffffffffffffffffffffffffffffffffffffffff16815260200190815260200160002060006101000a81548160ff0219169083151502179055506123f26124fb565b73ffffffffffffffffffffffffffffffffffffffff168173ffffffffffffffffffffffffffffffffffffffff16837f2f8788117e7eff1d82e926ec794901d17c78024a50270940304540a733656f0d60405160405180910390a45b5050565b6000612479836000018373ffffffffffffffffffffffffffffffffffffffff1660001b612f13565b905092915050565b60007f5a05180f000000000000000000000000000000000000000000000000000000007bffffffffffffffffffffffffffffffffffffffffffffffffffffffff1916827bffffffffffffffffffffffffffffffffffffffffffffffffffffffff191614806124f457506124f382612f83565b5b9050919050565b600033905090565b61250d8282611bc7565b61259c576125328173ffffffffffffffffffffffffffffffffffffffff166014612ffd565b6125408360001c6020612ffd565b604051602001612551929190614e6f565b6040516020818303038152906040526040517f08c379a00000000000000000000000000000000000000000000000000000000081526004016125939190613e3d565b60405180910390fd5b5050565b606060005b8280549050811015612725578373ffffffffffffffffffffffffffffffffffffffff168382815481106125db576125da614ea9565b5b9060005260206000200160009054906101000a900473ffffffffffffffffffffffffffffffffffffffff1673ffffffffffffffffffffffffffffffffffffffff1614156127125782600184805490506126349190614f07565b8154811061264557612644614ea9565b5b9060005260206000200160009054906101000a900473ffffffffffffffffffffffffffffffffffffffff1683828154811061268357612682614ea9565b5b9060005260206000200160006101000a81548173ffffffffffffffffffffffffffffffffffffffff021916908373ffffffffffffffffffffffffffffffffffffffff160217905550828054806126dc576126db614f3b565b5b6001900381819060005260206000200160006101000a81549073ffffffffffffffffffffffffffffffffffffffff021916905590555b808061271d90614f6a565b9150506125a5565b50818054806020026020016040519081016040528092919081815260200182805480156127a757602002820191906000526020600020905b8160009054906101000a900473ffffffffffffffffffffffffffffffffffffffff1673ffffffffffffffffffffffffffffffffffffffff168152602001906001019080831161275d575b5050505050905092915050565b6127be8282612b15565b5050565b60008073ffffffffffffffffffffffffffffffffffffffff166002600084815260200190815260200160002060009054906101000a900473ffffffffffffffffffffffffffffffffffffffff1673ffffffffffffffffffffffffffffffffffffffff1614159050919050565b816004600083815260200190815260200160002060006101000a81548173ffffffffffffffffffffffffffffffffffffffff021916908373ffffffffffffffffffffffffffffffffffffffff160217905550808273ffffffffffffffffffffffffffffffffffffffff166128a183611862565b73ffffffffffffffffffffffffffffffffffffffff167f8c5be1e5ebec7d5bd14f71427d1e84f3dd0314c0f7b2291e5b200ac8c7c3b92560405160405180910390a45050565b600073ffffffffffffffffffffffffffffffffffffffff168273ffffffffffffffffffffffffffffffffffffffff161415612957576040517f08c379a000000000000000000000000000000000000000000000000000000000815260040161294e90614fff565b60405180910390fd5b612960816127c2565b156129a0576040517f08c379a00000000000000000000000000000000000000000000000000000000081526004016129979061506b565b60405180910390fd5b6129ac60008383613239565b6001600360008473ffffffffffffffffffffffffffffffffffffffff1673ffffffffffffffffffffffffffffffffffffffff16815260200190815260200160002060008282546129fc919061508b565b92505081905550816002600083815260200190815260200160002060006101000a81548173ffffffffffffffffffffffffffffffffffffffff021916908373ffffffffffffffffffffffffffffffffffffffff160217905550808273ffffffffffffffffffffffffffffffffffffffff16600073ffffffffffffffffffffffffffffffffffffffff167fddf252ad1be2c89b69c2b068fc378daa952ba7f163c4a11628f55a4df523b3ef60405160405180910390a45050565b612ac6612ac06124fb565b8261323e565b612b05576040517f08c379a0000000000000000000000000000000000000000000000000000000008152600401612afc90615153565b60405180910390fd5b612b1083838361331c565b505050565b612b1f8282612370565b612b44816007600085815260200190815260200160002061245190919063ffffffff16565b505050565b612b538282613578565b612b78816007600085815260200190815260200160002061365a90919063ffffffff16565b505050565b612b9883838360405180602001604052806000815250611e5f565b505050565b6000612bac836000018361368a565b60001c905092915050565b8173ffffffffffffffffffffffffffffffffffffffff168373ffffffffffffffffffffffffffffffffffffffff161415612c26576040517f08c379a0000000000000000000000000000000000000000000000000000000008152600401612c1d906151bf565b60405180910390fd5b80600560008573ffffffffffffffffffffffffffffffffffffffff1673ffffffffffffffffffffffffffffffffffffffff16815260200190815260200160002060008473ffffffffffffffffffffffffffffffffffffffff1673ffffffffffffffffffffffffffffffffffffffff16815260200190815260200160002060006101000a81548160ff0219169083151502179055508173ffffffffffffffffffffffffffffffffffffffff168373ffffffffffffffffffffffffffffffffffffffff167f17307eab39ab6107e8899845ad3d59bd9653f200f220920489ca2b5937696c3183604051612d179190613c97565b60405180910390a3505050565b612d35612d2f6124fb565b8361323e565b612d74576040517f08c379a0000000000000000000000000000000000000000000000000000000008152600401612d6b90615153565b60405180910390fd5b612d80848484846136b5565b50505050565b606060405180602001604052806000815250905090565b60606000821415612de5576040518060400160405280600181526020017f30000000000000000000000000000000000000000000000000000000000000008152509050612ef9565b600082905060005b60008214612e17578080612e0090614f6a565b915050600a82612e10919061520e565b9150612ded565b60008167ffffffffffffffff811115612e3357612e326140f6565b5b6040519080825280601f01601f191660200182016040528015612e655781602001600182028036833780820191505090505b5090505b60008514612ef257600182612e7e9190614f07565b9150600a85612e8d919061523f565b6030612e99919061508b565b60f81b818381518110612eaf57612eae614ea9565b5b60200101907effffffffffffffffffffffffffffffffffffffffffffffffffffffffffffff1916908160001a905350600a85612eeb919061520e565b9450612e69565b8093505050505b919050565b6000612f0c82600001613711565b9050919050565b6000612f1f8383613722565b612f78578260000182908060018154018082558091505060019003906000526020600020016000909190919091505582600001805490508360010160008481526020019081526020016000208190555060019050612f7d565b600090505b92915050565b60007f7965db0b000000000000000000000000000000000000000000000000000000007bffffffffffffffffffffffffffffffffffffffffffffffffffffffff1916827bffffffffffffffffffffffffffffffffffffffffffffffffffffffff19161480612ff65750612ff582613745565b5b9050919050565b6060600060028360026130109190615270565b61301a919061508b565b67ffffffffffffffff811115613033576130326140f6565b5b6040519080825280601f01601f1916602001820160405280156130655781602001600182028036833780820191505090505b5090507f30000000000000000000000000000000000000000000000000000000000000008160008151811061309d5761309c614ea9565b5b60200101907effffffffffffffffffffffffffffffffffffffffffffffffffffffffffffff1916908160001a9053507f78000000000000000000000000000000000000000000000000000000000000008160018151811061310157613100614ea9565b5b60200101907effffffffffffffffffffffffffffffffffffffffffffffffffffffffffffff1916908160001a905350600060018460026131419190615270565b61314b919061508b565b90505b60018111156131eb577f3031323334353637383961626364656600000000000000000000000000000000600f86166010811061318d5761318c614ea9565b5b1a60f81b8282815181106131a4576131a3614ea9565b5b60200101907effffffffffffffffffffffffffffffffffffffffffffffffffffffffffffff1916908160001a905350600485901c9450806131e4906152ca565b905061314e565b506000841461322f576040517f08c379a000000000000000000000000000000000000000000000000000000000815260040161322690615340565b60405180910390fd5b8091505092915050565b505050565b6000613249826127c2565b613288576040517f08c379a000000000000000000000000000000000000000000000000000000000815260040161327f906153d2565b60405180910390fd5b600061329383611862565b90508073ffffffffffffffffffffffffffffffffffffffff168473ffffffffffffffffffffffffffffffffffffffff16148061330257508373ffffffffffffffffffffffffffffffffffffffff166132ea84610c91565b73ffffffffffffffffffffffffffffffffffffffff16145b8061331357506133128185612285565b5b91505092915050565b8273ffffffffffffffffffffffffffffffffffffffff1661333c82611862565b73ffffffffffffffffffffffffffffffffffffffff1614613392576040517f08c379a000000000000000000000000000000000000000000000000000000000815260040161338990615464565b60405180910390fd5b600073ffffffffffffffffffffffffffffffffffffffff168273ffffffffffffffffffffffffffffffffffffffff161415613402576040517f08c379a00000000000000000000000000000000000000000000000000000000081526004016133f9906154f6565b60405180910390fd5b61340d838383613239565b61341860008261282e565b6001600360008573ffffffffffffffffffffffffffffffffffffffff1673ffffffffffffffffffffffffffffffffffffffff16815260200190815260200160002060008282546134689190614f07565b925050819055506001600360008473ffffffffffffffffffffffffffffffffffffffff1673ffffffffffffffffffffffffffffffffffffffff16815260200190815260200160002060008282546134bf919061508b565b92505081905550816002600083815260200190815260200160002060006101000a81548173ffffffffffffffffffffffffffffffffffffffff021916908373ffffffffffffffffffffffffffffffffffffffff160217905550808273ffffffffffffffffffffffffffffffffffffffff168473ffffffffffffffffffffffffffffffffffffffff167fddf252ad1be2c89b69c2b068fc378daa952ba7f163c4a11628f55a4df523b3ef60405160405180910390a4505050565b6135828282611bc7565b156136565760006006600084815260200190815260200160002060000160008373ffffffffffffffffffffffffffffffffffffffff1673ffffffffffffffffffffffffffffffffffffffff16815260200190815260200160002060006101000a81548160ff0219169083151502179055506135fb6124fb565b73ffffffffffffffffffffffffffffffffffffffff168173ffffffffffffffffffffffffffffffffffffffff16837ff6391f5c32d9c69d2a47ea670b442974b53935d1edc7fd64eb21e047a839171b60405160405180910390a45b5050565b6000613682836000018373ffffffffffffffffffffffffffffffffffffffff1660001b613827565b905092915050565b60008260000182815481106136a2576136a1614ea9565b5b9060005260206000200154905092915050565b6136c084848461331c565b6136cc8484848461393b565b61370b576040517f08c379a000000000000000000000000000000000000000000000000000000000815260040161370290615588565b60405180910390fd5b50505050565b600081600001805490509050919050565b600080836001016000848152602001908152602001600020541415905092915050565b60007f80ac58cd000000000000000000000000000000000000000000000000000000007bffffffffffffffffffffffffffffffffffffffffffffffffffffffff1916827bffffffffffffffffffffffffffffffffffffffffffffffffffffffff1916148061381057507f5b5e139f000000000000000000000000000000000000000000000000000000007bffffffffffffffffffffffffffffffffffffffffffffffffffffffff1916827bffffffffffffffffffffffffffffffffffffffffffffffffffffffff1916145b80613820575061381f82613ac3565b5b9050919050565b6000808360010160008481526020019081526020016000205490506000811461392f5760006001826138599190614f07565b90506000600186600001805490506138719190614f07565b90508181146138e057600086600001828154811061389257613891614ea9565b5b90600052602060002001549050808760000184815481106138b6576138b5614ea9565b5b90600052602060002001819055508387600101600083815260200190815260200160002081905550505b856000018054806138f4576138f3614f3b565b5b600190038181906000526020600020016000905590558560010160008681526020019081526020016000206000905560019350505050613935565b60009150505b92915050565b600061395c8473ffffffffffffffffffffffffffffffffffffffff16613b2d565b15613ab6578373ffffffffffffffffffffffffffffffffffffffff1663150b7a026139856124fb565b8786866040518563ffffffff1660e01b81526004016139a794939291906155fd565b6020604051808303816000875af19250505080156139e357506040513d601f19601f820116820180604052508101906139e0919061565e565b60015b613a66573d8060008114613a13576040519150601f19603f3d011682016040523d82523d6000602084013e613a18565b606091505b50600081511415613a5e576040517f08c379a0000000000000000000000000000000000000000000000000000000008152600401613a5590615588565b60405180910390fd5b805181602001fd5b63150b7a0260e01b7bffffffffffffffffffffffffffffffffffffffffffffffffffffffff1916817bffffffffffffffffffffffffffffffffffffffffffffffffffffffff191614915050613abb565b600190505b949350505050565b60007f01ffc9a7000000000000000000000000000000000000000000000000000000007bffffffffffffffffffffffffffffffffffffffffffffffffffffffff1916827bffffffffffffffffffffffffffffffffffffffffffffffffffffffff1916149050919050565b600080823b905060008111915050919050565b828054613b4c90614734565b90600052602060002090601f016020900481019282613b6e5760008555613bb5565b82601f10613b8757805160ff1916838001178555613bb5565b82800160010185558215613bb5579182015b82811115613bb4578251825591602001919060010190613b99565b5b509050613bc29190613bc6565b5090565b5b80821115613bdf576000816000905550600101613bc7565b5090565b6000604051905090565b600080fd5b600080fd5b60007fffffffff0000000000000000000000000000000000000000000000000000000082169050919050565b613c2c81613bf7565b8114613c3757600080fd5b50565b600081359050613c4981613c23565b92915050565b600060208284031215613c6557613c64613bed565b5b6000613c7384828501613c3a565b91505092915050565b60008115159050919050565b613c9181613c7c565b82525050565b6000602082019050613cac6000830184613c88565b92915050565b600073ffffffffffffffffffffffffffffffffffffffff82169050919050565b6000613cdd82613cb2565b9050919050565b613ced81613cd2565b8114613cf857600080fd5b50565b600081359050613d0a81613ce4565b92915050565b600060208284031215613d2657613d25613bed565b5b6000613d3484828501613cfb565b91505092915050565b60008060008060808587031215613d5757613d56613bed565b5b6000613d6587828801613cfb565b9450506020613d7687828801613cfb565b9350506040613d8787828801613cfb565b9250506060613d9887828801613cfb565b91505092959194509250565b600081519050919050565b600082825260208201905092915050565b60005b83811015613dde578082015181840152602081019050613dc3565b83811115613ded576000848401525b50505050565b6000601f19601f8301169050919050565b6000613e0f82613da4565b613e198185613daf565b9350613e29818560208601613dc0565b613e3281613df3565b840191505092915050565b60006020820190508181036000830152613e578184613e04565b905092915050565b6000819050919050565b613e7281613e5f565b8114613e7d57600080fd5b50565b600081359050613e8f81613e69565b92915050565b600060208284031215613eab57613eaa613bed565b5b6000613eb984828501613e80565b91505092915050565b613ecb81613cd2565b82525050565b6000602082019050613ee66000830184613ec2565b92915050565b60008060408385031215613f0357613f02613bed565b5b6000613f1185828601613cfb565b9250506020613f2285828601613e80565b9150509250929050565b600081519050919050565b600082825260208201905092915050565b6000819050602082019050919050565b613f6181613e5f565b82525050565b6000613f738383613f58565b60208301905092915050565b6000602082019050919050565b6000613f9782613f2c565b613fa18185613f37565b9350613fac83613f48565b8060005b83811015613fdd578151613fc48882613f67565b9750613fcf83613f7f565b925050600181019050613fb0565b5085935050505092915050565b600060208201905081810360008301526140048184613f8c565b905092915050565b600081519050919050565b600082825260208201905092915050565b6000819050602082019050919050565b61404181613cd2565b82525050565b60006140538383614038565b60208301905092915050565b6000602082019050919050565b60006140778261400c565b6140818185614017565b935061408c83614028565b8060005b838110156140bd5781516140a48882614047565b97506140af8361405f565b925050600181019050614090565b5085935050505092915050565b600060208201905081810360008301526140e4818461406c565b905092915050565b600080fd5b600080fd5b7f4e487b7100000000000000000000000000000000000000000000000000000000600052604160045260246000fd5b61412e82613df3565b810181811067ffffffffffffffff8211171561414d5761414c6140f6565b5b80604052505050565b6000614160613be3565b905061416c8282614125565b919050565b600067ffffffffffffffff82111561418c5761418b6140f6565b5b61419582613df3565b9050602081019050919050565b82818337600083830152505050565b60006141c46141bf84614171565b614156565b9050828152602081018484840111156141e0576141df6140f1565b5b6141eb8482856141a2565b509392505050565b600082601f830112614208576142076140ec565b5b81356142188482602086016141b1565b91505092915050565b6000806040838503121561423857614237613bed565b5b600083013567ffffffffffffffff81111561425657614255613bf2565b5b614262858286016141f3565b925050602061427385828601613cfb565b9150509250929050565b60008060006060848603121561429657614295613bed565b5b60006142a486828701613cfb565b93505060206142b586828701613cfb565b92505060406142c686828701613e80565b9150509250925092565b6000819050919050565b6142e3816142d0565b81146142ee57600080fd5b50565b600081359050614300816142da565b92915050565b60006020828403121561431c5761431b613bed565b5b600061432a848285016142f1565b91505092915050565b61433c816142d0565b82525050565b60006020820190506143576000830184614333565b92915050565b6000806040838503121561437457614373613bed565b5b6000614382858286016142f1565b925050602061439385828601613cfb565b9150509250929050565b6143a681613e5f565b82525050565b60006020820190506143c1600083018461439d565b92915050565b600080604083850312156143de576143dd613bed565b5b60006143ec858286016142f1565b92505060206143fd85828601613e80565b9150509250929050565b61441081613c7c565b811461441b57600080fd5b50565b60008135905061442d81614407565b92915050565b6000806040838503121561444a57614449613bed565b5b600061445885828601613cfb565b92505060206144698582860161441e565b9150509250929050565b600081519050919050565b600082825260208201905092915050565b6000819050602082019050919050565b600082825260208201905092915050565b60006144bb82613da4565b6144c5818561449f565b93506144d5818560208601613dc0565b6144de81613df3565b840191505092915050565b60006144f583836144b0565b905092915050565b6000602082019050919050565b600061451582614473565b61451f818561447e565b9350836020820285016145318561448f565b8060005b8581101561456d578484038952815161454e85826144e9565b9450614559836144fd565b925060208a01995050600181019050614535565b50829750879550505050505092915050565b60006020820190508181036000830152614599818461450a565b905092915050565b600067ffffffffffffffff8211156145bc576145bb6140f6565b5b6145c582613df3565b9050602081019050919050565b60006145e56145e0846145a1565b614156565b905082815260208101848484011115614601576146006140f1565b5b61460c8482856141a2565b509392505050565b600082601f830112614629576146286140ec565b5b81356146398482602086016145d2565b91505092915050565b6000806000806080858703121561465c5761465b613bed565b5b600061466a87828801613cfb565b945050602061467b87828801613cfb565b935050604061468c87828801613e80565b925050606085013567ffffffffffffffff8111156146ad576146ac613bf2565b5b6146b987828801614614565b91505092959194509250565b600080604083850312156146dc576146db613bed565b5b60006146ea85828601613cfb565b92505060206146fb85828601613cfb565b9150509250929050565b7f4e487b7100000000000000000000000000000000000000000000000000000000600052602260045260246000fd5b6000600282049050600182168061474c57607f821691505b602082108114156147605761475f614705565b5b50919050565b7f4552433732313a20617070726f76656420717565727920666f72206e6f6e657860008201527f697374656e7420746f6b656e0000000000000000000000000000000000000000602082015250565b60006147c2602c83613daf565b91506147cd82614766565b604082019050919050565b600060208201905081810360008301526147f1816147b5565b9050919050565b7f4552433732313a20617070726f76616c20746f2063757272656e74206f776e6560008201527f7200000000000000000000000000000000000000000000000000000000000000602082015250565b6000614854602183613daf565b915061485f826147f8565b604082019050919050565b6000602082019050818103600083015261488381614847565b9050919050565b7f4552433732313a20617070726f76652063616c6c6572206973206e6f74206f7760008201527f6e6572206e6f7220617070726f76656420666f7220616c6c0000000000000000602082015250565b60006148e6603883613daf565b91506148f18261488a565b604082019050919050565b60006020820190508181036000830152614915816148d9565b9050919050565b600081905092915050565b600061493282613da4565b61493c818561491c565b935061494c818560208601613dc0565b80840191505092915050565b60006149648284614927565b915081905092915050565b7f54686973206c696e6b20697320616c7265616479206d696e7465640000000000600082015250565b60006149a5601b83613daf565b91506149b08261496f565b602082019050919050565b600060208201905081810360008301526149d481614998565b9050919050565b7f546869732061646472657373206973206e6f7420616e20696e7374727563746f60008201527f7200000000000000000000000000000000000000000000000000000000000000602082015250565b6000614a37602183613daf565b9150614a42826149db565b604082019050919050565b60006020820190508181036000830152614a6681614a2a565b9050919050565b7f5472616e73666572206166746572206d696e742069732070726f68696269746560008201527f6400000000000000000000000000000000000000000000000000000000000000602082015250565b6000614ac9602183613daf565b9150614ad482614a6d565b604082019050919050565b60006020820190508181036000830152614af881614abc565b9050919050565b7f416363657373436f6e74726f6c3a2063616e206f6e6c792072656e6f756e636560008201527f20726f6c657320666f722073656c660000000000000000000000000000000000602082015250565b6000614b5b602f83613daf565b9150614b6682614aff565b604082019050919050565b60006020820190508181036000830152614b8a81614b4e565b9050919050565b7f5468652061646472657373206973206e6f7420612073747564656e7400000000600082015250565b6000614bc7601c83613daf565b9150614bd282614b91565b602082019050919050565b60006020820190508181036000830152614bf681614bba565b9050919050565b7f4552433732313a206f776e657220717565727920666f72206e6f6e657869737460008201527f656e7420746f6b656e0000000000000000000000000000000000000000000000602082015250565b6000614c59602983613daf565b9150614c6482614bfd565b604082019050919050565b60006020820190508181036000830152614c8881614c4c565b9050919050565b7f4552433732313a2062616c616e636520717565727920666f7220746865207a6560008201527f726f206164647265737300000000000000000000000000000000000000000000602082015250565b6000614ceb602a83613daf565b9150614cf682614c8f565b604082019050919050565b60006020820190508181036000830152614d1a81614cde565b9050919050565b7f4552433732314d657461646174613a2055524920717565727920666f72206e6f60008201527f6e6578697374656e7420746f6b656e0000000000000000000000000000000000602082015250565b6000614d7d602f83613daf565b9150614d8882614d21565b604082019050919050565b60006020820190508181036000830152614dac81614d70565b9050919050565b6000614dbf8285614927565b9150614dcb8284614927565b91508190509392505050565b7f416363657373436f6e74726f6c3a206163636f756e7420000000000000000000600082015250565b6000614e0d60178361491c565b9150614e1882614dd7565b601782019050919050565b7f206973206d697373696e6720726f6c6520000000000000000000000000000000600082015250565b6000614e5960118361491c565b9150614e6482614e23565b601182019050919050565b6000614e7a82614e00565b9150614e868285614927565b9150614e9182614e4c565b9150614e9d8284614927565b91508190509392505050565b7f4e487b7100000000000000000000000000000000000000000000000000000000600052603260045260246000fd5b7f4e487b7100000000000000000000000000000000000000000000000000000000600052601160045260246000fd5b6000614f1282613e5f565b9150614f1d83613e5f565b925082821015614f3057614f2f614ed8565b5b828203905092915050565b7f4e487b7100000000000000000000000000000000000000000000000000000000600052603160045260246000fd5b6000614f7582613e5f565b91507fffffffffffffffffffffffffffffffffffffffffffffffffffffffffffffffff821415614fa857614fa7614ed8565b5b600182019050919050565b7f4552433732313a206d696e7420746f20746865207a65726f2061646472657373600082015250565b6000614fe9602083613daf565b9150614ff482614fb3565b602082019050919050565b6000602082019050818103600083015261501881614fdc565b9050919050565b7f4552433732313a20746f6b656e20616c7265616479206d696e74656400000000600082015250565b6000615055601c83613daf565b91506150608261501f565b602082019050919050565b6000602082019050818103600083015261508481615048565b9050919050565b600061509682613e5f565b91506150a183613e5f565b9250827fffffffffffffffffffffffffffffffffffffffffffffffffffffffffffffffff038211156150d6576150d5614ed8565b5b828201905092915050565b7f4552433732313a207472616e736665722063616c6c6572206973206e6f74206f60008201527f776e6572206e6f7220617070726f766564000000000000000000000000000000602082015250565b600061513d603183613daf565b9150615148826150e1565b604082019050919050565b6000602082019050818103600083015261516c81615130565b9050919050565b7f4552433732313a20617070726f766520746f2063616c6c657200000000000000600082015250565b60006151a9601983613daf565b91506151b482615173565b602082019050919050565b600060208201905081810360008301526151d88161519c565b9050919050565b7f4e487b7100000000000000000000000000000000000000000000000000000000600052601260045260246000fd5b600061521982613e5f565b915061522483613e5f565b925082615234576152336151df565b5b828204905092915050565b600061524a82613e5f565b915061525583613e5f565b925082615265576152646151df565b5b828206905092915050565b600061527b82613e5f565b915061528683613e5f565b9250817fffffffffffffffffffffffffffffffffffffffffffffffffffffffffffffffff04831182151516156152bf576152be614ed8565b5b828202905092915050565b60006152d582613e5f565b915060008214156152e9576152e8614ed8565b5b600182039050919050565b7f537472696e67733a20686578206c656e67746820696e73756666696369656e74600082015250565b600061532a602083613daf565b9150615335826152f4565b602082019050919050565b600060208201905081810360008301526153598161531d565b9050919050565b7f4552433732313a206f70657261746f7220717565727920666f72206e6f6e657860008201527f697374656e7420746f6b656e0000000000000000000000000000000000000000602082015250565b60006153bc602c83613daf565b91506153c782615360565b604082019050919050565b600060208201905081810360008301526153eb816153af565b9050919050565b7f4552433732313a207472616e73666572206f6620746f6b656e2074686174206960008201527f73206e6f74206f776e0000000000000000000000000000000000000000000000602082015250565b600061544e602983613daf565b9150615459826153f2565b604082019050919050565b6000602082019050818103600083015261547d81615441565b9050919050565b7f4552433732313a207472616e7366657220746f20746865207a65726f2061646460008201527f7265737300000000000000000000000000000000000000000000000000000000602082015250565b60006154e0602483613daf565b91506154eb82615484565b604082019050919050565b6000602082019050818103600083015261550f816154d3565b9050919050565b7f4552433732313a207472616e7366657220746f206e6f6e20455243373231526560008201527f63656976657220696d706c656d656e7465720000000000000000000000000000602082015250565b6000615572603283613daf565b915061557d82615516565b604082019050919050565b600060208201905081810360008301526155a181615565565b9050919050565b600081519050919050565b600082825260208201905092915050565b60006155cf826155a8565b6155d981856155b3565b93506155e9818560208601613dc0565b6155f281613df3565b840191505092915050565b60006080820190506156126000830187613ec2565b61561f6020830186613ec2565b61562c604083018561439d565b818103606083015261563e81846155c4565b905095945050505050565b60008151905061565881613c23565b92915050565b60006020828403121561567457615673613bed565b5b600061568284828501615649565b9150509291505056fea2646970667358221220023fa34797609eb3e7ec7d1dc5f5cd136df82468af8bb7f8ea85fab9a99e4d9164736f6c634300080a0033",
  "immutableReferences": {},
  "source": "pragma solidity ^0.8.10;\r\n\r\nimport \"@openzeppelin/contracts/token/ERC721/ERC721.sol\";\r\nimport \"./Roles.sol\";\r\n\r\ncontract Course is ERC721, Roles{\r\n\r\n    address rolesContractAddress;\r\n\r\n    //Mapping of the instructor to the tokenIDs\r\n    mapping(address => uint256[]) _givesCourses;\r\n    //Mapping of the tokenID to the owner is defined in ERC721.sol\r\n    //Mapping of the student to the tokenIDs\r\n\r\n    //TODO///////////////////////////////////////////\r\n    mapping(address => uint256[]) _takesCourses;\r\n    //Mapping of the tokenID to the students\r\n    mapping(uint256 => address[]) _studentsOf;\r\n    //is Course link exist\r\n    //TODO///////////////////////////////////////////\r\n\r\n    mapping(string => bool) _courseExist;\r\n    //List of Course Links\r\n    string[] _courseLinks;\r\n\r\n    constructor(address _rolesContractAddress) ERC721(\"Course\", \"CRS\"){\r\n        _setupRole(DEFAULT_ADMIN_ROLE, msg.sender);\r\n        _setupRole(RECTOR_ROLE, msg.sender);\r\n//        grantRectorRole(msg.sender);\r\n        rolesContractAddress =_rolesContractAddress;\r\n    }\r\n\r\n    //TODO Change It To Role Based Ownership From Public\r\n    function mint(string memory _courseLink, address instructorAddress) public{\r\n        require(!_courseExist[_courseLink], \"This link is already minted\");\r\n        require(hasRole(INSTRUCTOR_ROLE, instructorAddress), \"This address is not an instructor\");\r\n        //diplomaLinks - add\r\n        _courseLinks.push(_courseLink);\r\n        uint _id = _courseLinks.length; //tokenID's start from 1 because default uint256 value is 0\r\n        //Call mint of ERC721\r\n        _mint(instructorAddress, _id);\r\n        //Trace it\r\n        _courseExist[_courseLink] = true;\r\n        _givesCourses[instructorAddress].push(_id);\r\n    }\r\n    function getCourseLinks() public view returns(string[] memory courseLinks){\r\n        return _courseLinks;\r\n    }\r\n    function getGivesCourses(address instructorAddress) public view returns (uint[] memory givesCourses){\r\n        return _givesCourses[instructorAddress];\r\n    }\r\n\r\n    //TODO Contract Owner can make mistakes when minting. Token should be somewhat editable for contract owner\r\n    function transferFrom(//Only callable when minted\r\n        address from,\r\n        address to,\r\n        uint256 tokenId\r\n    ) public virtual override {\r\n        require(msg.sender == 0x0000000000000000000000000000000000000000, \"Transfer after mint is prohibited\");\r\n        super.transferFrom(from,to,tokenId);\r\n    }\r\n    function safeTransferFrom(//Only callable when minted\r\n        address from,\r\n        address to,\r\n        uint256 tokenId\r\n    ) public virtual override {\r\n        require(msg.sender == 0x0000000000000000000000000000000000000000, \"Transfer after mint is prohibited\");\r\n        super.safeTransferFrom(from,to,tokenId);\r\n    }\r\n    function safeTransferFrom(//Only callable when minted\r\n        address from,\r\n        address to,\r\n        uint256 tokenId,\r\n        bytes memory _data\r\n    ) public virtual override {\r\n        require(msg.sender == 0x0000000000000000000000000000000000000000, \"Transfer after mint is prohibited\");\r\n        super.safeTransferFrom(from, to, tokenId, _data);\r\n    }\r\n    function supportsInterface(bytes4 interfaceId) public view virtual override(ERC721, AccessControlEnumerable) returns (bool) {\r\n        return super.supportsInterface(interfaceId);\r\n    }\r\n}\r\n",
  "sourcePath": "C:\\Users\\asus\\Desktop\\Dersler\\CMPE492\\certification-project\\contracts\\Course.sol",
  "compiler": {
    "name": "solc",
    "version": "0.8.10+commit.fc410830.Emscripten.clang"
  },
  "schemaVersion": "3.4.4",
  "updatedAt": "2022-01-18T21:05:26.226Z",
  "networkType": "ethereum",
  "devdoc": {
    "kind": "dev",
    "methods": {
      "approve(address,uint256)": {
        "details": "See {IERC721-approve}."
      },
      "balanceOf(address)": {
        "details": "See {IERC721-balanceOf}."
      },
      "getApproved(uint256)": {
        "details": "See {IERC721-getApproved}."
      },
      "getRoleAdmin(bytes32)": {
        "details": "Returns the admin role that controls `role`. See {grantRole} and {revokeRole}. To change a role's admin, use {_setRoleAdmin}."
      },
      "getRoleMember(bytes32,uint256)": {
        "details": "Returns one of the accounts that have `role`. `index` must be a value between 0 and {getRoleMemberCount}, non-inclusive. Role bearers are not sorted in any particular way, and their ordering may change at any point. WARNING: When using {getRoleMember} and {getRoleMemberCount}, make sure you perform all queries on the same block. See the following https://forum.openzeppelin.com/t/iterating-over-elements-on-enumerableset-in-openzeppelin-contracts/2296[forum post] for more information."
      },
      "getRoleMemberCount(bytes32)": {
        "details": "Returns the number of accounts that have `role`. Can be used together with {getRoleMember} to enumerate all bearers of a role."
      },
      "grantRole(bytes32,address)": {
        "details": "Grants `role` to `account`. If `account` had not been already granted `role`, emits a {RoleGranted} event. Requirements: - the caller must have ``role``'s admin role."
      },
      "hasRole(bytes32,address)": {
        "details": "Returns `true` if `account` has been granted `role`."
      },
      "isApprovedForAll(address,address)": {
        "details": "See {IERC721-isApprovedForAll}."
      },
      "name()": {
        "details": "See {IERC721Metadata-name}."
      },
      "ownerOf(uint256)": {
        "details": "See {IERC721-ownerOf}."
      },
      "renounceRole(bytes32,address)": {
        "details": "Revokes `role` from the calling account. Roles are often managed via {grantRole} and {revokeRole}: this function's purpose is to provide a mechanism for accounts to lose their privileges if they are compromised (such as when a trusted device is misplaced). If the calling account had been revoked `role`, emits a {RoleRevoked} event. Requirements: - the caller must be `account`."
      },
      "revokeRole(bytes32,address)": {
        "details": "Revokes `role` from `account`. If `account` had been granted `role`, emits a {RoleRevoked} event. Requirements: - the caller must have ``role``'s admin role."
      },
      "safeTransferFrom(address,address,uint256)": {
        "details": "See {IERC721-safeTransferFrom}."
      },
      "safeTransferFrom(address,address,uint256,bytes)": {
        "details": "See {IERC721-safeTransferFrom}."
      },
      "setApprovalForAll(address,bool)": {
        "details": "See {IERC721-setApprovalForAll}."
      },
      "symbol()": {
        "details": "See {IERC721Metadata-symbol}."
      },
      "tokenURI(uint256)": {
        "details": "See {IERC721Metadata-tokenURI}."
      },
      "transferFrom(address,address,uint256)": {
        "details": "See {IERC721-transferFrom}."
      }
    },
    "version": 1
  },
  "userdoc": {
    "kind": "user",
    "methods": {},
    "version": 1
  }
}