{
  "contractName": "Course",
  "abi": [
    {
      "inputs": [
        {
          "internalType": "address",
          "name": "_rolesContractAddress",
          "type": "address"
        },
        {
          "internalType": "address",
          "name": "_requestContractAddress",
          "type": "address"
        }
      ],
      "stateMutability": "nonpayable",
      "type": "constructor"
    },
    {
      "anonymous": false,
      "inputs": [
        {
          "indexed": true,
          "internalType": "address",
          "name": "owner",
          "type": "address"
        },
        {
          "indexed": true,
          "internalType": "address",
          "name": "approved",
          "type": "address"
        },
        {
          "indexed": true,
          "internalType": "uint256",
          "name": "tokenId",
          "type": "uint256"
        }
      ],
      "name": "Approval",
      "type": "event"
    },
    {
      "anonymous": false,
      "inputs": [
        {
          "indexed": true,
          "internalType": "address",
          "name": "owner",
          "type": "address"
        },
        {
          "indexed": true,
          "internalType": "address",
          "name": "operator",
          "type": "address"
        },
        {
          "indexed": false,
          "internalType": "bool",
          "name": "approved",
          "type": "bool"
        }
      ],
      "name": "ApprovalForAll",
      "type": "event"
    },
    {
      "anonymous": false,
      "inputs": [
        {
          "indexed": true,
          "internalType": "address",
          "name": "from",
          "type": "address"
        },
        {
          "indexed": true,
          "internalType": "address",
          "name": "to",
          "type": "address"
        },
        {
          "indexed": true,
          "internalType": "uint256",
          "name": "tokenId",
          "type": "uint256"
        }
      ],
      "name": "Transfer",
      "type": "event"
    },
    {
      "inputs": [
        {
          "internalType": "address",
          "name": "to",
          "type": "address"
        },
        {
          "internalType": "uint256",
          "name": "tokenId",
          "type": "uint256"
        }
      ],
      "name": "approve",
      "outputs": [],
      "stateMutability": "nonpayable",
      "type": "function"
    },
    {
      "inputs": [
        {
          "internalType": "address",
          "name": "owner",
          "type": "address"
        }
      ],
      "name": "balanceOf",
      "outputs": [
        {
          "internalType": "uint256",
          "name": "",
          "type": "uint256"
        }
      ],
      "stateMutability": "view",
      "type": "function"
    },
    {
      "inputs": [
        {
          "internalType": "uint256",
          "name": "tokenId",
          "type": "uint256"
        }
      ],
      "name": "getApproved",
      "outputs": [
        {
          "internalType": "address",
          "name": "",
          "type": "address"
        }
      ],
      "stateMutability": "view",
      "type": "function"
    },
    {
      "inputs": [
        {
          "internalType": "address",
          "name": "owner",
          "type": "address"
        },
        {
          "internalType": "address",
          "name": "operator",
          "type": "address"
        }
      ],
      "name": "isApprovedForAll",
      "outputs": [
        {
          "internalType": "bool",
          "name": "",
          "type": "bool"
        }
      ],
      "stateMutability": "view",
      "type": "function"
    },
    {
      "inputs": [],
      "name": "name",
      "outputs": [
        {
          "internalType": "string",
          "name": "",
          "type": "string"
        }
      ],
      "stateMutability": "view",
      "type": "function"
    },
    {
      "inputs": [
        {
          "internalType": "uint256",
          "name": "tokenId",
          "type": "uint256"
        }
      ],
      "name": "ownerOf",
      "outputs": [
        {
          "internalType": "address",
          "name": "",
          "type": "address"
        }
      ],
      "stateMutability": "view",
      "type": "function"
    },
    {
      "inputs": [
        {
          "internalType": "address",
          "name": "operator",
          "type": "address"
        },
        {
          "internalType": "bool",
          "name": "approved",
          "type": "bool"
        }
      ],
      "name": "setApprovalForAll",
      "outputs": [],
      "stateMutability": "nonpayable",
      "type": "function"
    },
    {
      "inputs": [
        {
          "internalType": "bytes4",
          "name": "interfaceId",
          "type": "bytes4"
        }
      ],
      "name": "supportsInterface",
      "outputs": [
        {
          "internalType": "bool",
          "name": "",
          "type": "bool"
        }
      ],
      "stateMutability": "view",
      "type": "function"
    },
    {
      "inputs": [],
      "name": "symbol",
      "outputs": [
        {
          "internalType": "string",
          "name": "",
          "type": "string"
        }
      ],
      "stateMutability": "view",
      "type": "function"
    },
    {
      "inputs": [
        {
          "internalType": "uint256",
          "name": "tokenId",
          "type": "uint256"
        }
      ],
      "name": "tokenURI",
      "outputs": [
        {
          "internalType": "string",
          "name": "",
          "type": "string"
        }
      ],
      "stateMutability": "view",
      "type": "function"
    },
    {
      "inputs": [
        {
          "internalType": "string",
          "name": "_courseLink",
          "type": "string"
        },
        {
          "internalType": "address",
          "name": "_instructorAddress",
          "type": "address"
        }
      ],
      "name": "mint",
      "outputs": [],
      "stateMutability": "nonpayable",
      "type": "function"
    },
    {
      "inputs": [
        {
          "internalType": "uint256",
          "name": "_id",
          "type": "uint256"
        }
      ],
      "name": "applyCourse",
      "outputs": [],
      "stateMutability": "nonpayable",
      "type": "function"
    },
    {
      "inputs": [
        {
          "internalType": "uint256",
          "name": "_id",
          "type": "uint256"
        },
        {
          "internalType": "address",
          "name": "studentAddress",
          "type": "address"
        },
        {
          "internalType": "bool",
          "name": "isApprove",
          "type": "bool"
        }
      ],
      "name": "approveDisapproveApplication",
      "outputs": [],
      "stateMutability": "nonpayable",
      "type": "function"
    },
    {
      "inputs": [
        {
          "internalType": "uint256",
          "name": "_id",
          "type": "uint256"
        },
        {
          "internalType": "address",
          "name": "studentAddress",
          "type": "address"
        }
      ],
      "name": "dropStudent",
      "outputs": [],
      "stateMutability": "nonpayable",
      "type": "function"
    },
    {
      "inputs": [
        {
          "internalType": "uint256",
          "name": "_id",
          "type": "uint256"
        }
      ],
      "name": "freeze",
      "outputs": [],
      "stateMutability": "nonpayable",
      "type": "function"
    },
    {
      "inputs": [],
      "name": "getCourseLinks",
      "outputs": [
        {
          "internalType": "string[]",
          "name": "courseLinks",
          "type": "string[]"
        }
      ],
      "stateMutability": "view",
      "type": "function"
    },
    {
      "inputs": [
        {
          "internalType": "address",
          "name": "instructorAddress",
          "type": "address"
        }
      ],
      "name": "getGivesCourses",
      "outputs": [
        {
          "internalType": "uint256[]",
          "name": "givesCourses",
          "type": "uint256[]"
        }
      ],
      "stateMutability": "view",
      "type": "function"
    },
    {
      "inputs": [
        {
          "internalType": "address",
          "name": "studentAddress",
          "type": "address"
        }
      ],
      "name": "getTakesCourses",
      "outputs": [
        {
          "internalType": "uint256[]",
          "name": "",
          "type": "uint256[]"
        }
      ],
      "stateMutability": "view",
      "type": "function"
    },
    {
      "inputs": [
        {
          "internalType": "uint256",
          "name": "_id",
          "type": "uint256"
        }
      ],
      "name": "getRequestOfStudents",
      "outputs": [
        {
          "internalType": "address[]",
          "name": "",
          "type": "address[]"
        }
      ],
      "stateMutability": "view",
      "type": "function"
    },
    {
      "inputs": [
        {
          "internalType": "uint256",
          "name": "_id",
          "type": "uint256"
        }
      ],
      "name": "getApprovedStudents",
      "outputs": [
        {
          "internalType": "address[]",
          "name": "",
          "type": "address[]"
        }
      ],
      "stateMutability": "view",
      "type": "function"
    },
    {
      "inputs": [
        {
          "internalType": "uint256",
          "name": "_id",
          "type": "uint256"
        }
      ],
      "name": "getFrozen",
      "outputs": [
        {
          "internalType": "bool",
          "name": "",
          "type": "bool"
        }
      ],
      "stateMutability": "view",
      "type": "function"
    },
    {
      "inputs": [
        {
          "internalType": "address",
          "name": "from",
          "type": "address"
        },
        {
          "internalType": "address",
          "name": "to",
          "type": "address"
        },
        {
          "internalType": "uint256",
          "name": "tokenId",
          "type": "uint256"
        }
      ],
      "name": "transferFrom",
      "outputs": [],
      "stateMutability": "nonpayable",
      "type": "function"
    },
    {
      "inputs": [
        {
          "internalType": "address",
          "name": "from",
          "type": "address"
        },
        {
          "internalType": "address",
          "name": "to",
          "type": "address"
        },
        {
          "internalType": "uint256",
          "name": "tokenId",
          "type": "uint256"
        }
      ],
      "name": "safeTransferFrom",
      "outputs": [],
      "stateMutability": "nonpayable",
      "type": "function"
    },
    {
      "inputs": [
        {
          "internalType": "address",
          "name": "from",
          "type": "address"
        },
        {
          "internalType": "address",
          "name": "to",
          "type": "address"
        },
        {
          "internalType": "uint256",
          "name": "tokenId",
          "type": "uint256"
        },
        {
          "internalType": "bytes",
          "name": "_data",
          "type": "bytes"
        }
      ],
      "name": "safeTransferFrom",
      "outputs": [],
      "stateMutability": "nonpayable",
      "type": "function"
    }
  ],
  "bytecode": "0x60806040523480156200001157600080fd5b506040516200540c3803806200540c83398181016040528101906200003791906200027b565b6040518060400160405280600681526020017f436f7572736500000000000000000000000000000000000000000000000000008152506040518060400160405280600381526020017f43525300000000000000000000000000000000000000000000000000000000008152508160009080519060200190620000bb92919062000161565b508060019080519060200190620000d492919062000161565b50505081600660006101000a81548173ffffffffffffffffffffffffffffffffffffffff021916908373ffffffffffffffffffffffffffffffffffffffff16021790555080600760006101000a81548173ffffffffffffffffffffffffffffffffffffffff021916908373ffffffffffffffffffffffffffffffffffffffff160217905550505062000327565b8280546200016f90620002f1565b90600052602060002090601f016020900481019282620001935760008555620001df565b82601f10620001ae57805160ff1916838001178555620001df565b82800160010185558215620001df579182015b82811115620001de578251825591602001919060010190620001c1565b5b509050620001ee9190620001f2565b5090565b5b808211156200020d576000816000905550600101620001f3565b5090565b600080fd5b600073ffffffffffffffffffffffffffffffffffffffff82169050919050565b6000620002438262000216565b9050919050565b620002558162000236565b81146200026157600080fd5b50565b60008151905062000275816200024a565b92915050565b6000806040838503121562000295576200029462000211565b5b6000620002a58582860162000264565b9250506020620002b88582860162000264565b9150509250929050565b7f4e487b7100000000000000000000000000000000000000000000000000000000600052602260045260246000fd5b600060028204905060018216806200030a57607f821691505b60208210811415620003215762000320620002c2565b5b50919050565b6150d580620003376000396000f3fe608060405234801561001057600080fd5b50600436106101585760003560e01c80636352211e116100c3578063c87b56dd1161007c578063c87b56dd146103e7578063d7a78db814610417578063e50cd29914610433578063e721e46514610463578063e985e9c51461047f578063fc3fef4d146104af57610158565b80636352211e1461031357806370a082311461034357806395d89b4114610373578063a22cb46514610391578063a6faa962146103ad578063b88d4fde146103cb57610158565b80631c351a9d116101155780631c351a9d1461024357806323b872dd1461025f5780632971b8811461027b57806342842e0e146102ab57806344424dbe146102c75780635ce8d795146102e357610158565b806301ffc9a71461015d57806306fdde031461018d578063081812fc146101ab578063095ea7b3146101db5780630baf40e3146101f75780631908721e14610227575b600080fd5b61017760048036038101906101729190613336565b6104df565b604051610184919061337e565b60405180910390f35b6101956105c1565b6040516101a29190613432565b60405180910390f35b6101c560048036038101906101c0919061348a565b610653565b6040516101d291906134f8565b60405180910390f35b6101f560048036038101906101f0919061353f565b6106d8565b005b610211600480360381019061020c919061357f565b6107f0565b60405161021e919061366a565b60405180910390f35b610241600480360381019061023c919061368c565b610887565b005b61025d60048036038101906102589190613801565b610cb2565b005b6102796004803603810190610274919061385d565b61107f565b005b6102956004803603810190610290919061348a565b6110fe565b6040516102a2919061396e565b60405180910390f35b6102c560048036038101906102c0919061385d565b61119f565b005b6102e160048036038101906102dc91906139bc565b61121e565b005b6102fd60048036038101906102f8919061348a565b6116b8565b60405161030a919061396e565b60405180910390f35b61032d6004803603810190610328919061348a565b611759565b60405161033a91906134f8565b60405180910390f35b61035d6004803603810190610358919061357f565b61180b565b60405161036a9190613a1e565b60405180910390f35b61037b6118c3565b6040516103889190613432565b60405180910390f35b6103ab60048036038101906103a69190613a39565b611955565b005b6103b561196b565b6040516103c29190613b85565b60405180910390f35b6103e560048036038101906103e09190613c48565b611a44565b005b61040160048036038101906103fc919061348a565b611ac5565b60405161040e9190613432565b60405180910390f35b610431600480360381019061042c919061348a565b611b6c565b005b61044d6004803603810190610448919061357f565b611dcc565b60405161045a919061366a565b60405180910390f35b61047d6004803603810190610478919061348a565b611e63565b005b61049960048036038101906104949190613ccb565b612122565b6040516104a6919061337e565b60405180910390f35b6104c960048036038101906104c4919061348a565b6121b6565b6040516104d6919061337e565b60405180910390f35b60007f80ac58cd000000000000000000000000000000000000000000000000000000007bffffffffffffffffffffffffffffffffffffffffffffffffffffffff1916827bffffffffffffffffffffffffffffffffffffffffffffffffffffffff191614806105aa57507f5b5e139f000000000000000000000000000000000000000000000000000000007bffffffffffffffffffffffffffffffffffffffffffffffffffffffff1916827bffffffffffffffffffffffffffffffffffffffffffffffffffffffff1916145b806105ba57506105b9826121e0565b5b9050919050565b6060600080546105d090613d3a565b80601f01602080910402602001604051908101604052809291908181526020018280546105fc90613d3a565b80156106495780601f1061061e57610100808354040283529160200191610649565b820191906000526020600020905b81548152906001019060200180831161062c57829003601f168201915b5050505050905090565b600061065e8261224a565b61069d576040517f08c379a000000000000000000000000000000000000000000000000000000000815260040161069490613dde565b60405180910390fd5b6004600083815260200190815260200160002060009054906101000a900473ffffffffffffffffffffffffffffffffffffffff169050919050565b60006106e382611759565b90508073ffffffffffffffffffffffffffffffffffffffff168373ffffffffffffffffffffffffffffffffffffffff161415610754576040517f08c379a000000000000000000000000000000000000000000000000000000000815260040161074b90613e70565b60405180910390fd5b8073ffffffffffffffffffffffffffffffffffffffff166107736122b6565b73ffffffffffffffffffffffffffffffffffffffff1614806107a257506107a18161079c6122b6565b612122565b5b6107e1576040517f08c379a00000000000000000000000000000000000000000000000000000000081526004016107d890613f02565b60405180910390fd5b6107eb83836122be565b505050565b6060600860008373ffffffffffffffffffffffffffffffffffffffff1673ffffffffffffffffffffffffffffffffffffffff16815260200190815260200160002080548060200260200160405190810160405280929190818152602001828054801561087b57602002820191906000526020600020905b815481526020019060010190808311610867575b50505050509050919050565b600660009054906101000a900473ffffffffffffffffffffffffffffffffffffffff1673ffffffffffffffffffffffffffffffffffffffff16639822a599336040518263ffffffff1660e01b81526004016108e291906134f8565b602060405180830381865afa1580156108ff573d6000803e3d6000fd5b505050506040513d601f19601f820116820180604052508101906109239190613f37565b610962576040517f08c379a000000000000000000000000000000000000000000000000000000000815260040161095990613fd6565b60405180910390fd5b3373ffffffffffffffffffffffffffffffffffffffff1661098283611759565b73ffffffffffffffffffffffffffffffffffffffff16146109d8576040517f08c379a00000000000000000000000000000000000000000000000000000000081526004016109cf90614068565b60405180910390fd5b600660009054906101000a900473ffffffffffffffffffffffffffffffffffffffff1673ffffffffffffffffffffffffffffffffffffffff1663fc3ba6b4826040518263ffffffff1660e01b8152600401610a3391906134f8565b602060405180830381865afa158015610a50573d6000803e3d6000fd5b505050506040513d601f19601f82011682018060405250810190610a749190613f37565b610ab3576040517f08c379a0000000000000000000000000000000000000000000000000000000008152600401610aaa906140d4565b60405180910390fd5b600e805490508211158015610ac85750600082115b610b07576040517f08c379a0000000000000000000000000000000000000000000000000000000008152600401610afe90614140565b60405180910390fd5b600c600083815260200190815260200160002060009054906101000a900460ff1615610b68576040517f08c379a0000000000000000000000000000000000000000000000000000000008152600401610b5f906141d2565b60405180910390fd5b610b84600b600084815260200190815260200160002082612377565b610bc3576040517f08c379a0000000000000000000000000000000000000000000000000000000008152600401610bba90614264565b60405180910390fd5b610c0b600a60008373ffffffffffffffffffffffffffffffffffffffff1673ffffffffffffffffffffffffffffffffffffffff16815260200190815260200160002083612425565b610c4a576040517f08c379a0000000000000000000000000000000000000000000000000000000008152600401610c41906142f6565b60405180910390fd5b610c6681600b6000858152602001908152602001600020612487565b610cae82600a60008473ffffffffffffffffffffffffffffffffffffffff1673ffffffffffffffffffffffffffffffffffffffff16815260200190815260200160002061260f565b5050565b600660009054906101000a900473ffffffffffffffffffffffffffffffffffffffff1673ffffffffffffffffffffffffffffffffffffffff16632be7dc44336040518263ffffffff1660e01b8152600401610d0d91906134f8565b602060405180830381865afa158015610d2a573d6000803e3d6000fd5b505050506040513d601f19601f82011682018060405250810190610d4e9190613f37565b610d8d576040517f08c379a0000000000000000000000000000000000000000000000000000000008152600401610d8490614388565b60405180910390fd5b600660009054906101000a900473ffffffffffffffffffffffffffffffffffffffff1673ffffffffffffffffffffffffffffffffffffffff16639822a599826040518263ffffffff1660e01b8152600401610de891906134f8565b602060405180830381865afa158015610e05573d6000803e3d6000fd5b505050506040513d601f19601f82011682018060405250810190610e299190613f37565b610e68576040517f08c379a0000000000000000000000000000000000000000000000000000000008152600401610e5f9061441a565b60405180910390fd5b600d82604051610e789190614476565b908152602001604051809103902060009054906101000a900460ff1615610ed4576040517f08c379a0000000000000000000000000000000000000000000000000000000008152600401610ecb906144d9565b60405180910390fd5b600e82908060018154018082558091505060019003906000526020600020016000909190919091509080519060200190610f0f92919061319d565b506000600e805490509050610f2482826126d2565b6001600d84604051610f369190614476565b908152602001604051809103902060006101000a81548160ff021916908315150217905550600860008373ffffffffffffffffffffffffffffffffffffffff1673ffffffffffffffffffffffffffffffffffffffff1681526020019081526020016000208190806001815401808255809150506001900390600052602060002001600090919091909150556000600c600083815260200190815260200160002060006101000a81548160ff021916908315150217905550600760009054906101000a900473ffffffffffffffffffffffffffffffffffffffff1673ffffffffffffffffffffffffffffffffffffffff1663ef51ea6c846040518263ffffffff1660e01b81526004016110489190613432565b600060405180830381600087803b15801561106257600080fd5b505af1158015611076573d6000803e3d6000fd5b50505050505050565b600073ffffffffffffffffffffffffffffffffffffffff163373ffffffffffffffffffffffffffffffffffffffff16146110ee576040517f08c379a00000000000000000000000000000000000000000000000000000000081526004016110e59061456b565b60405180910390fd5b6110f98383836128a0565b505050565b60606009600083815260200190815260200160002080548060200260200160405190810160405280929190818152602001828054801561119357602002820191906000526020600020905b8160009054906101000a900473ffffffffffffffffffffffffffffffffffffffff1673ffffffffffffffffffffffffffffffffffffffff1681526020019060010190808311611149575b50505050509050919050565b600073ffffffffffffffffffffffffffffffffffffffff163373ffffffffffffffffffffffffffffffffffffffff161461120e576040517f08c379a00000000000000000000000000000000000000000000000000000000081526004016112059061456b565b60405180910390fd5b611219838383612900565b505050565b600660009054906101000a900473ffffffffffffffffffffffffffffffffffffffff1673ffffffffffffffffffffffffffffffffffffffff16639822a599336040518263ffffffff1660e01b815260040161127991906134f8565b602060405180830381865afa158015611296573d6000803e3d6000fd5b505050506040513d601f19601f820116820180604052508101906112ba9190613f37565b6112f9576040517f08c379a00000000000000000000000000000000000000000000000000000000081526004016112f090613fd6565b60405180910390fd5b3373ffffffffffffffffffffffffffffffffffffffff1661131984611759565b73ffffffffffffffffffffffffffffffffffffffff161461136f576040517f08c379a000000000000000000000000000000000000000000000000000000000815260040161136690614068565b60405180910390fd5b600660009054906101000a900473ffffffffffffffffffffffffffffffffffffffff1673ffffffffffffffffffffffffffffffffffffffff1663fc3ba6b4836040518263ffffffff1660e01b81526004016113ca91906134f8565b602060405180830381865afa1580156113e7573d6000803e3d6000fd5b505050506040513d601f19601f8201168201806040525081019061140b9190613f37565b61144a576040517f08c379a0000000000000000000000000000000000000000000000000000000008152600401611441906140d4565b60405180910390fd5b600e80549050831115801561145f5750600083115b61149e576040517f08c379a000000000000000000000000000000000000000000000000000000000815260040161149590614140565b60405180910390fd5b600c600084815260200190815260200160002060009054906101000a900460ff16156114ff576040517f08c379a00000000000000000000000000000000000000000000000000000000081526004016114f6906141d2565b60405180910390fd5b61151b600b600085815260200190815260200160002083612377565b1561155b576040517f08c379a0000000000000000000000000000000000000000000000000000000008152600401611552906145fd565b60405180910390fd5b6115776009600085815260200190815260200160002083612377565b6115b6576040517f08c379a00000000000000000000000000000000000000000000000000000000081526004016115ad9061468f565b60405180910390fd5b6115d28260096000868152602001908152602001600020612487565b80156116b357600a60008373ffffffffffffffffffffffffffffffffffffffff1673ffffffffffffffffffffffffffffffffffffffff168152602001908152602001600020839080600181540180825580915050600190039060005260206000200160009091909190915055600b6000848152602001908152602001600020829080600181540180825580915050600190039060005260206000200160009091909190916101000a81548173ffffffffffffffffffffffffffffffffffffffff021916908373ffffffffffffffffffffffffffffffffffffffff1602179055505b505050565b6060600b600083815260200190815260200160002080548060200260200160405190810160405280929190818152602001828054801561174d57602002820191906000526020600020905b8160009054906101000a900473ffffffffffffffffffffffffffffffffffffffff1673ffffffffffffffffffffffffffffffffffffffff1681526020019060010190808311611703575b50505050509050919050565b6000806002600084815260200190815260200160002060009054906101000a900473ffffffffffffffffffffffffffffffffffffffff169050600073ffffffffffffffffffffffffffffffffffffffff168173ffffffffffffffffffffffffffffffffffffffff161415611802576040517f08c379a00000000000000000000000000000000000000000000000000000000081526004016117f990614721565b60405180910390fd5b80915050919050565b60008073ffffffffffffffffffffffffffffffffffffffff168273ffffffffffffffffffffffffffffffffffffffff16141561187c576040517f08c379a0000000000000000000000000000000000000000000000000000000008152600401611873906147b3565b60405180910390fd5b600360008373ffffffffffffffffffffffffffffffffffffffff1673ffffffffffffffffffffffffffffffffffffffff168152602001908152602001600020549050919050565b6060600180546118d290613d3a565b80601f01602080910402602001604051908101604052809291908181526020018280546118fe90613d3a565b801561194b5780601f106119205761010080835404028352916020019161194b565b820191906000526020600020905b81548152906001019060200180831161192e57829003601f168201915b5050505050905090565b6119676119606122b6565b8383612920565b5050565b6060600e805480602002602001604051908101604052809291908181526020016000905b82821015611a3b5783829060005260206000200180546119ae90613d3a565b80601f01602080910402602001604051908101604052809291908181526020018280546119da90613d3a565b8015611a275780601f106119fc57610100808354040283529160200191611a27565b820191906000526020600020905b815481529060010190602001808311611a0a57829003601f168201915b50505050508152602001906001019061198f565b50505050905090565b600073ffffffffffffffffffffffffffffffffffffffff163373ffffffffffffffffffffffffffffffffffffffff1614611ab3576040517f08c379a0000000000000000000000000000000000000000000000000000000008152600401611aaa9061456b565b60405180910390fd5b611abf84848484612a8d565b50505050565b6060611ad08261224a565b611b0f576040517f08c379a0000000000000000000000000000000000000000000000000000000008152600401611b0690614845565b60405180910390fd5b6000611b19612aef565b90506000815111611b395760405180602001604052806000815250611b64565b80611b4384612b06565b604051602001611b54929190614865565b6040516020818303038152906040525b915050919050565b600660009054906101000a900473ffffffffffffffffffffffffffffffffffffffff1673ffffffffffffffffffffffffffffffffffffffff16639822a599336040518263ffffffff1660e01b8152600401611bc791906134f8565b602060405180830381865afa158015611be4573d6000803e3d6000fd5b505050506040513d601f19601f82011682018060405250810190611c089190613f37565b611c47576040517f08c379a0000000000000000000000000000000000000000000000000000000008152600401611c3e90613fd6565b60405180910390fd5b3373ffffffffffffffffffffffffffffffffffffffff16611c6782611759565b73ffffffffffffffffffffffffffffffffffffffff1614611cbd576040517f08c379a0000000000000000000000000000000000000000000000000000000008152600401611cb490614068565b60405180910390fd5b600e805490508111158015611cd25750600081115b611d11576040517f08c379a0000000000000000000000000000000000000000000000000000000008152600401611d0890614140565b60405180910390fd5b600c600082815260200190815260200160002060009054906101000a900460ff1615611d72576040517f08c379a0000000000000000000000000000000000000000000000000000000008152600401611d69906141d2565b60405180910390fd5b606080600960008481526020019081526020016000209080519060200190611d9b929190613223565b506001600c600084815260200190815260200160002060006101000a81548160ff0219169083151502179055505050565b6060600a60008373ffffffffffffffffffffffffffffffffffffffff1673ffffffffffffffffffffffffffffffffffffffff168152602001908152602001600020805480602002602001604051908101604052809291908181526020018280548015611e5757602002820191906000526020600020905b815481526020019060010190808311611e43575b50505050509050919050565b600660009054906101000a900473ffffffffffffffffffffffffffffffffffffffff1673ffffffffffffffffffffffffffffffffffffffff1663fc3ba6b4336040518263ffffffff1660e01b8152600401611ebe91906134f8565b602060405180830381865afa158015611edb573d6000803e3d6000fd5b505050506040513d601f19601f82011682018060405250810190611eff9190613f37565b611f3e576040517f08c379a0000000000000000000000000000000000000000000000000000000008152600401611f35906148fb565b60405180910390fd5b600e805490508111158015611f535750600081115b611f92576040517f08c379a0000000000000000000000000000000000000000000000000000000008152600401611f8990614140565b60405180910390fd5b600c600082815260200190815260200160002060009054906101000a900460ff1615611ff3576040517f08c379a0000000000000000000000000000000000000000000000000000000008152600401611fea906141d2565b60405180910390fd5b61200f600b600083815260200190815260200160002033612377565b1561204f576040517f08c379a0000000000000000000000000000000000000000000000000000000008152600401612046906145fd565b60405180910390fd5b61206b6009600083815260200190815260200160002033612377565b156120ab576040517f08c379a00000000000000000000000000000000000000000000000000000000081526004016120a29061498d565b60405180910390fd5b60096000828152602001908152602001600020339080600181540180825580915050600190039060005260206000200160009091909190916101000a81548173ffffffffffffffffffffffffffffffffffffffff021916908373ffffffffffffffffffffffffffffffffffffffff16021790555050565b6000600560008473ffffffffffffffffffffffffffffffffffffffff1673ffffffffffffffffffffffffffffffffffffffff16815260200190815260200160002060008373ffffffffffffffffffffffffffffffffffffffff1673ffffffffffffffffffffffffffffffffffffffff16815260200190815260200160002060009054906101000a900460ff16905092915050565b6000600c600083815260200190815260200160002060009054906101000a900460ff169050919050565b60007f01ffc9a7000000000000000000000000000000000000000000000000000000007bffffffffffffffffffffffffffffffffffffffffffffffffffffffff1916827bffffffffffffffffffffffffffffffffffffffffffffffffffffffff1916149050919050565b60008073ffffffffffffffffffffffffffffffffffffffff166002600084815260200190815260200160002060009054906101000a900473ffffffffffffffffffffffffffffffffffffffff1673ffffffffffffffffffffffffffffffffffffffff1614159050919050565b600033905090565b816004600083815260200190815260200160002060006101000a81548173ffffffffffffffffffffffffffffffffffffffff021916908373ffffffffffffffffffffffffffffffffffffffff160217905550808273ffffffffffffffffffffffffffffffffffffffff1661233183611759565b73ffffffffffffffffffffffffffffffffffffffff167f8c5be1e5ebec7d5bd14f71427d1e84f3dd0314c0f7b2291e5b200ac8c7c3b92560405160405180910390a45050565b600080600090505b8380549050811015612419578273ffffffffffffffffffffffffffffffffffffffff168482815481106123b5576123b46149ad565b5b9060005260206000200160009054906101000a900473ffffffffffffffffffffffffffffffffffffffff1673ffffffffffffffffffffffffffffffffffffffff16141561240657600191505061241f565b808061241190614a0b565b91505061237f565b50600090505b92915050565b600080600090505b838054905081101561247b578284828154811061244d5761244c6149ad565b5b90600052602060002001541415612468576001915050612481565b808061247390614a0b565b91505061242d565b50600090505b92915050565b60005b818054905081101561260a578273ffffffffffffffffffffffffffffffffffffffff168282815481106124c0576124bf6149ad565b5b9060005260206000200160009054906101000a900473ffffffffffffffffffffffffffffffffffffffff1673ffffffffffffffffffffffffffffffffffffffff1614156125f75781600183805490506125199190614a54565b8154811061252a576125296149ad565b5b9060005260206000200160009054906101000a900473ffffffffffffffffffffffffffffffffffffffff16828281548110612568576125676149ad565b5b9060005260206000200160006101000a81548173ffffffffffffffffffffffffffffffffffffffff021916908373ffffffffffffffffffffffffffffffffffffffff160217905550818054806125c1576125c0614a88565b5b6001900381819060005260206000200160006101000a81549073ffffffffffffffffffffffffffffffffffffffff021916905590555b808061260290614a0b565b91505061248a565b505050565b60005b81805490508110156126cd5782828281548110612632576126316149ad565b5b906000526020600020015414156126ba5781600183805490506126559190614a54565b81548110612666576126656149ad565b5b9060005260206000200154828281548110612684576126836149ad565b5b9060005260206000200181905550818054806126a3576126a2614a88565b5b600190038181906000526020600020016000905590555b80806126c590614a0b565b915050612612565b505050565b600073ffffffffffffffffffffffffffffffffffffffff168273ffffffffffffffffffffffffffffffffffffffff161415612742576040517f08c379a000000000000000000000000000000000000000000000000000000000815260040161273990614b03565b60405180910390fd5b61274b8161224a565b1561278b576040517f08c379a000000000000000000000000000000000000000000000000000000000815260040161278290614b6f565b60405180910390fd5b61279760008383612c67565b6001600360008473ffffffffffffffffffffffffffffffffffffffff1673ffffffffffffffffffffffffffffffffffffffff16815260200190815260200160002060008282546127e79190614b8f565b92505081905550816002600083815260200190815260200160002060006101000a81548173ffffffffffffffffffffffffffffffffffffffff021916908373ffffffffffffffffffffffffffffffffffffffff160217905550808273ffffffffffffffffffffffffffffffffffffffff16600073ffffffffffffffffffffffffffffffffffffffff167fddf252ad1be2c89b69c2b068fc378daa952ba7f163c4a11628f55a4df523b3ef60405160405180910390a45050565b6128b16128ab6122b6565b82612c6c565b6128f0576040517f08c379a00000000000000000000000000000000000000000000000000000000081526004016128e790614c57565b60405180910390fd5b6128fb838383612d4a565b505050565b61291b83838360405180602001604052806000815250611a44565b505050565b8173ffffffffffffffffffffffffffffffffffffffff168373ffffffffffffffffffffffffffffffffffffffff16141561298f576040517f08c379a000000000000000000000000000000000000000000000000000000000815260040161298690614cc3565b60405180910390fd5b80600560008573ffffffffffffffffffffffffffffffffffffffff1673ffffffffffffffffffffffffffffffffffffffff16815260200190815260200160002060008473ffffffffffffffffffffffffffffffffffffffff1673ffffffffffffffffffffffffffffffffffffffff16815260200190815260200160002060006101000a81548160ff0219169083151502179055508173ffffffffffffffffffffffffffffffffffffffff168373ffffffffffffffffffffffffffffffffffffffff167f17307eab39ab6107e8899845ad3d59bd9653f200f220920489ca2b5937696c3183604051612a80919061337e565b60405180910390a3505050565b612a9e612a986122b6565b83612c6c565b612add576040517f08c379a0000000000000000000000000000000000000000000000000000000008152600401612ad490614c57565b60405180910390fd5b612ae984848484612fa6565b50505050565b606060405180602001604052806000815250905090565b60606000821415612b4e576040518060400160405280600181526020017f30000000000000000000000000000000000000000000000000000000000000008152509050612c62565b600082905060005b60008214612b80578080612b6990614a0b565b915050600a82612b799190614d12565b9150612b56565b60008167ffffffffffffffff811115612b9c57612b9b6136d6565b5b6040519080825280601f01601f191660200182016040528015612bce5781602001600182028036833780820191505090505b5090505b60008514612c5b57600182612be79190614a54565b9150600a85612bf69190614d43565b6030612c029190614b8f565b60f81b818381518110612c1857612c176149ad565b5b60200101907effffffffffffffffffffffffffffffffffffffffffffffffffffffffffffff1916908160001a905350600a85612c549190614d12565b9450612bd2565b8093505050505b919050565b505050565b6000612c778261224a565b612cb6576040517f08c379a0000000000000000000000000000000000000000000000000000000008152600401612cad90614de6565b60405180910390fd5b6000612cc183611759565b90508073ffffffffffffffffffffffffffffffffffffffff168473ffffffffffffffffffffffffffffffffffffffff161480612d3057508373ffffffffffffffffffffffffffffffffffffffff16612d1884610653565b73ffffffffffffffffffffffffffffffffffffffff16145b80612d415750612d408185612122565b5b91505092915050565b8273ffffffffffffffffffffffffffffffffffffffff16612d6a82611759565b73ffffffffffffffffffffffffffffffffffffffff1614612dc0576040517f08c379a0000000000000000000000000000000000000000000000000000000008152600401612db790614e78565b60405180910390fd5b600073ffffffffffffffffffffffffffffffffffffffff168273ffffffffffffffffffffffffffffffffffffffff161415612e30576040517f08c379a0000000000000000000000000000000000000000000000000000000008152600401612e2790614f0a565b60405180910390fd5b612e3b838383612c67565b612e466000826122be565b6001600360008573ffffffffffffffffffffffffffffffffffffffff1673ffffffffffffffffffffffffffffffffffffffff1681526020019081526020016000206000828254612e969190614a54565b925050819055506001600360008473ffffffffffffffffffffffffffffffffffffffff1673ffffffffffffffffffffffffffffffffffffffff1681526020019081526020016000206000828254612eed9190614b8f565b92505081905550816002600083815260200190815260200160002060006101000a81548173ffffffffffffffffffffffffffffffffffffffff021916908373ffffffffffffffffffffffffffffffffffffffff160217905550808273ffffffffffffffffffffffffffffffffffffffff168473ffffffffffffffffffffffffffffffffffffffff167fddf252ad1be2c89b69c2b068fc378daa952ba7f163c4a11628f55a4df523b3ef60405160405180910390a4505050565b612fb1848484612d4a565b612fbd84848484613002565b612ffc576040517f08c379a0000000000000000000000000000000000000000000000000000000008152600401612ff390614f9c565b60405180910390fd5b50505050565b60006130238473ffffffffffffffffffffffffffffffffffffffff1661318a565b1561317d578373ffffffffffffffffffffffffffffffffffffffff1663150b7a0261304c6122b6565b8786866040518563ffffffff1660e01b815260040161306e9493929190615011565b6020604051808303816000875af19250505080156130aa57506040513d601f19601f820116820180604052508101906130a79190615072565b60015b61312d573d80600081146130da576040519150601f19603f3d011682016040523d82523d6000602084013e6130df565b606091505b50600081511415613125576040517f08c379a000000000000000000000000000000000000000000000000000000000815260040161311c90614f9c565b60405180910390fd5b805181602001fd5b63150b7a0260e01b7bffffffffffffffffffffffffffffffffffffffffffffffffffffffff1916817bffffffffffffffffffffffffffffffffffffffffffffffffffffffff191614915050613182565b600190505b949350505050565b600080823b905060008111915050919050565b8280546131a990613d3a565b90600052602060002090601f0160209004810192826131cb5760008555613212565b82601f106131e457805160ff1916838001178555613212565b82800160010185558215613212579182015b828111156132115782518255916020019190600101906131f6565b5b50905061321f91906132ad565b5090565b82805482825590600052602060002090810192821561329c579160200282015b8281111561329b5782518260006101000a81548173ffffffffffffffffffffffffffffffffffffffff021916908373ffffffffffffffffffffffffffffffffffffffff16021790555091602001919060010190613243565b5b5090506132a991906132ad565b5090565b5b808211156132c65760008160009055506001016132ae565b5090565b6000604051905090565b600080fd5b600080fd5b60007fffffffff0000000000000000000000000000000000000000000000000000000082169050919050565b613313816132de565b811461331e57600080fd5b50565b6000813590506133308161330a565b92915050565b60006020828403121561334c5761334b6132d4565b5b600061335a84828501613321565b91505092915050565b60008115159050919050565b61337881613363565b82525050565b6000602082019050613393600083018461336f565b92915050565b600081519050919050565b600082825260208201905092915050565b60005b838110156133d35780820151818401526020810190506133b8565b838111156133e2576000848401525b50505050565b6000601f19601f8301169050919050565b600061340482613399565b61340e81856133a4565b935061341e8185602086016133b5565b613427816133e8565b840191505092915050565b6000602082019050818103600083015261344c81846133f9565b905092915050565b6000819050919050565b61346781613454565b811461347257600080fd5b50565b6000813590506134848161345e565b92915050565b6000602082840312156134a05761349f6132d4565b5b60006134ae84828501613475565b91505092915050565b600073ffffffffffffffffffffffffffffffffffffffff82169050919050565b60006134e2826134b7565b9050919050565b6134f2816134d7565b82525050565b600060208201905061350d60008301846134e9565b92915050565b61351c816134d7565b811461352757600080fd5b50565b60008135905061353981613513565b92915050565b60008060408385031215613556576135556132d4565b5b60006135648582860161352a565b925050602061357585828601613475565b9150509250929050565b600060208284031215613595576135946132d4565b5b60006135a38482850161352a565b91505092915050565b600081519050919050565b600082825260208201905092915050565b6000819050602082019050919050565b6135e181613454565b82525050565b60006135f383836135d8565b60208301905092915050565b6000602082019050919050565b6000613617826135ac565b61362181856135b7565b935061362c836135c8565b8060005b8381101561365d57815161364488826135e7565b975061364f836135ff565b925050600181019050613630565b5085935050505092915050565b60006020820190508181036000830152613684818461360c565b905092915050565b600080604083850312156136a3576136a26132d4565b5b60006136b185828601613475565b92505060206136c28582860161352a565b9150509250929050565b600080fd5b600080fd5b7f4e487b7100000000000000000000000000000000000000000000000000000000600052604160045260246000fd5b61370e826133e8565b810181811067ffffffffffffffff8211171561372d5761372c6136d6565b5b80604052505050565b60006137406132ca565b905061374c8282613705565b919050565b600067ffffffffffffffff82111561376c5761376b6136d6565b5b613775826133e8565b9050602081019050919050565b82818337600083830152505050565b60006137a461379f84613751565b613736565b9050828152602081018484840111156137c0576137bf6136d1565b5b6137cb848285613782565b509392505050565b600082601f8301126137e8576137e76136cc565b5b81356137f8848260208601613791565b91505092915050565b60008060408385031215613818576138176132d4565b5b600083013567ffffffffffffffff811115613836576138356132d9565b5b613842858286016137d3565b92505060206138538582860161352a565b9150509250929050565b600080600060608486031215613876576138756132d4565b5b60006138848682870161352a565b93505060206138958682870161352a565b92505060406138a686828701613475565b9150509250925092565b600081519050919050565b600082825260208201905092915050565b6000819050602082019050919050565b6138e5816134d7565b82525050565b60006138f783836138dc565b60208301905092915050565b6000602082019050919050565b600061391b826138b0565b61392581856138bb565b9350613930836138cc565b8060005b8381101561396157815161394888826138eb565b975061395383613903565b925050600181019050613934565b5085935050505092915050565b600060208201905081810360008301526139888184613910565b905092915050565b61399981613363565b81146139a457600080fd5b50565b6000813590506139b681613990565b92915050565b6000806000606084860312156139d5576139d46132d4565b5b60006139e386828701613475565b93505060206139f48682870161352a565b9250506040613a05868287016139a7565b9150509250925092565b613a1881613454565b82525050565b6000602082019050613a336000830184613a0f565b92915050565b60008060408385031215613a5057613a4f6132d4565b5b6000613a5e8582860161352a565b9250506020613a6f858286016139a7565b9150509250929050565b600081519050919050565b600082825260208201905092915050565b6000819050602082019050919050565b600082825260208201905092915050565b6000613ac182613399565b613acb8185613aa5565b9350613adb8185602086016133b5565b613ae4816133e8565b840191505092915050565b6000613afb8383613ab6565b905092915050565b6000602082019050919050565b6000613b1b82613a79565b613b258185613a84565b935083602082028501613b3785613a95565b8060005b85811015613b735784840389528151613b548582613aef565b9450613b5f83613b03565b925060208a01995050600181019050613b3b565b50829750879550505050505092915050565b60006020820190508181036000830152613b9f8184613b10565b905092915050565b600067ffffffffffffffff821115613bc257613bc16136d6565b5b613bcb826133e8565b9050602081019050919050565b6000613beb613be684613ba7565b613736565b905082815260208101848484011115613c0757613c066136d1565b5b613c12848285613782565b509392505050565b600082601f830112613c2f57613c2e6136cc565b5b8135613c3f848260208601613bd8565b91505092915050565b60008060008060808587031215613c6257613c616132d4565b5b6000613c708782880161352a565b9450506020613c818782880161352a565b9350506040613c9287828801613475565b925050606085013567ffffffffffffffff811115613cb357613cb26132d9565b5b613cbf87828801613c1a565b91505092959194509250565b60008060408385031215613ce257613ce16132d4565b5b6000613cf08582860161352a565b9250506020613d018582860161352a565b9150509250929050565b7f4e487b7100000000000000000000000000000000000000000000000000000000600052602260045260246000fd5b60006002820490506001821680613d5257607f821691505b60208210811415613d6657613d65613d0b565b5b50919050565b7f4552433732313a20617070726f76656420717565727920666f72206e6f6e657860008201527f697374656e7420746f6b656e0000000000000000000000000000000000000000602082015250565b6000613dc8602c836133a4565b9150613dd382613d6c565b604082019050919050565b60006020820190508181036000830152613df781613dbb565b9050919050565b7f4552433732313a20617070726f76616c20746f2063757272656e74206f776e6560008201527f7200000000000000000000000000000000000000000000000000000000000000602082015250565b6000613e5a6021836133a4565b9150613e6582613dfe565b604082019050919050565b60006020820190508181036000830152613e8981613e4d565b9050919050565b7f4552433732313a20617070726f76652063616c6c6572206973206e6f74206f7760008201527f6e6572206e6f7220617070726f76656420666f7220616c6c0000000000000000602082015250565b6000613eec6038836133a4565b9150613ef782613e90565b604082019050919050565b60006020820190508181036000830152613f1b81613edf565b9050919050565b600081519050613f3181613990565b92915050565b600060208284031215613f4d57613f4c6132d4565b5b6000613f5b84828501613f22565b91505092915050565b7f54686973206163636f756e7420646f6573206e6f74206861766520496e73747260008201527f7563746f72205065726d697373696f6e73000000000000000000000000000000602082015250565b6000613fc06031836133a4565b9150613fcb82613f64565b604082019050919050565b60006020820190508181036000830152613fef81613fb3565b9050919050565b7f5468697320636f7572736520646f6573206e6f742062656c6f6e6720746f207460008201527f68697320496e7374727563746f72000000000000000000000000000000000000602082015250565b6000614052602e836133a4565b915061405d82613ff6565b604082019050919050565b6000602082019050818103600083015261408181614045565b9050919050565b7f546869732061646472657373206973206e6f7420612073747564656e74000000600082015250565b60006140be601d836133a4565b91506140c982614088565b602082019050919050565b600060208201905081810360008301526140ed816140b1565b9050919050565b7f5468697320636f7572736520646f6573206e6f74206578697374000000000000600082015250565b600061412a601a836133a4565b9150614135826140f4565b602082019050919050565b600060208201905081810360008301526141598161411d565b9050919050565b7f5468697320636f7572736520697320636c6f7365642062792074686520496e7360008201527f74727563746f7200000000000000000000000000000000000000000000000000602082015250565b60006141bc6027836133a4565b91506141c782614160565b604082019050919050565b600060208201905081810360008301526141eb816141af565b9050919050565b7f546869732073747564656e74206973206e6f7420617070726f76656420666f7260008201527f207468697320636f757273650000000000000000000000000000000000000000602082015250565b600061424e602c836133a4565b9150614259826141f2565b604082019050919050565b6000602082019050818103600083015261427d81614241565b9050919050565b7f546869732073747564656e74206973206e6f742074616b696e6720746869732060008201527f636f757273650000000000000000000000000000000000000000000000000000602082015250565b60006142e06026836133a4565b91506142eb82614284565b604082019050919050565b6000602082019050818103600083015261430f816142d3565b9050919050565b7f54686973206163636f756e7420646f6573206e6f74206861766520746865205260008201527f6563746f72205065726d697373696f6e73000000000000000000000000000000602082015250565b60006143726031836133a4565b915061437d82614316565b604082019050919050565b600060208201905081810360008301526143a181614365565b9050919050565b7f546869732061646472657373206973206e6f7420616e20696e7374727563746f60008201527f7200000000000000000000000000000000000000000000000000000000000000602082015250565b60006144046021836133a4565b915061440f826143a8565b604082019050919050565b60006020820190508181036000830152614433816143f7565b9050919050565b600081905092915050565b600061445082613399565b61445a818561443a565b935061446a8185602086016133b5565b80840191505092915050565b60006144828284614445565b915081905092915050565b7f54686973206c696e6b20697320616c7265616479206d696e7465640000000000600082015250565b60006144c3601b836133a4565b91506144ce8261448d565b602082019050919050565b600060208201905081810360008301526144f2816144b6565b9050919050565b7f5472616e73666572206166746572206d696e742069732070726f68696269746560008201527f6400000000000000000000000000000000000000000000000000000000000000602082015250565b60006145556021836133a4565b9150614560826144f9565b604082019050919050565b6000602082019050818103600083015261458481614548565b9050919050565b7f546869732073747564656e7420616c726561647920617070726f76656420666f60008201527f72207468697320636f7572736500000000000000000000000000000000000000602082015250565b60006145e7602d836133a4565b91506145f28261458b565b604082019050919050565b60006020820190508181036000830152614616816145da565b9050919050565b7f546869732073747564656e7420686173206e6f74206170706c69656420666f7260008201527f207468697320636f757273650000000000000000000000000000000000000000602082015250565b6000614679602c836133a4565b91506146848261461d565b604082019050919050565b600060208201905081810360008301526146a88161466c565b9050919050565b7f4552433732313a206f776e657220717565727920666f72206e6f6e657869737460008201527f656e7420746f6b656e0000000000000000000000000000000000000000000000602082015250565b600061470b6029836133a4565b9150614716826146af565b604082019050919050565b6000602082019050818103600083015261473a816146fe565b9050919050565b7f4552433732313a2062616c616e636520717565727920666f7220746865207a6560008201527f726f206164647265737300000000000000000000000000000000000000000000602082015250565b600061479d602a836133a4565b91506147a882614741565b604082019050919050565b600060208201905081810360008301526147cc81614790565b9050919050565b7f4552433732314d657461646174613a2055524920717565727920666f72206e6f60008201527f6e6578697374656e7420746f6b656e0000000000000000000000000000000000602082015250565b600061482f602f836133a4565b915061483a826147d3565b604082019050919050565b6000602082019050818103600083015261485e81614822565b9050919050565b60006148718285614445565b915061487d8284614445565b91508190509392505050565b7f54686973206163636f756e7420646f6573206e6f74206861766520746865205360008201527f747564656e74205065726d697373696f6e730000000000000000000000000000602082015250565b60006148e56032836133a4565b91506148f082614889565b604082019050919050565b60006020820190508181036000830152614914816148d8565b9050919050565b7f546869732073747564656e7420616c7265616479206170706c69656420666f7260008201527f207468697320636f757273650000000000000000000000000000000000000000602082015250565b6000614977602c836133a4565b91506149828261491b565b604082019050919050565b600060208201905081810360008301526149a68161496a565b9050919050565b7f4e487b7100000000000000000000000000000000000000000000000000000000600052603260045260246000fd5b7f4e487b7100000000000000000000000000000000000000000000000000000000600052601160045260246000fd5b6000614a1682613454565b91507fffffffffffffffffffffffffffffffffffffffffffffffffffffffffffffffff821415614a4957614a486149dc565b5b600182019050919050565b6000614a5f82613454565b9150614a6a83613454565b925082821015614a7d57614a7c6149dc565b5b828203905092915050565b7f4e487b7100000000000000000000000000000000000000000000000000000000600052603160045260246000fd5b7f4552433732313a206d696e7420746f20746865207a65726f2061646472657373600082015250565b6000614aed6020836133a4565b9150614af882614ab7565b602082019050919050565b60006020820190508181036000830152614b1c81614ae0565b9050919050565b7f4552433732313a20746f6b656e20616c7265616479206d696e74656400000000600082015250565b6000614b59601c836133a4565b9150614b6482614b23565b602082019050919050565b60006020820190508181036000830152614b8881614b4c565b9050919050565b6000614b9a82613454565b9150614ba583613454565b9250827fffffffffffffffffffffffffffffffffffffffffffffffffffffffffffffffff03821115614bda57614bd96149dc565b5b828201905092915050565b7f4552433732313a207472616e736665722063616c6c6572206973206e6f74206f60008201527f776e6572206e6f7220617070726f766564000000000000000000000000000000602082015250565b6000614c416031836133a4565b9150614c4c82614be5565b604082019050919050565b60006020820190508181036000830152614c7081614c34565b9050919050565b7f4552433732313a20617070726f766520746f2063616c6c657200000000000000600082015250565b6000614cad6019836133a4565b9150614cb882614c77565b602082019050919050565b60006020820190508181036000830152614cdc81614ca0565b9050919050565b7f4e487b7100000000000000000000000000000000000000000000000000000000600052601260045260246000fd5b6000614d1d82613454565b9150614d2883613454565b925082614d3857614d37614ce3565b5b828204905092915050565b6000614d4e82613454565b9150614d5983613454565b925082614d6957614d68614ce3565b5b828206905092915050565b7f4552433732313a206f70657261746f7220717565727920666f72206e6f6e657860008201527f697374656e7420746f6b656e0000000000000000000000000000000000000000602082015250565b6000614dd0602c836133a4565b9150614ddb82614d74565b604082019050919050565b60006020820190508181036000830152614dff81614dc3565b9050919050565b7f4552433732313a207472616e73666572206f6620746f6b656e2074686174206960008201527f73206e6f74206f776e0000000000000000000000000000000000000000000000602082015250565b6000614e626029836133a4565b9150614e6d82614e06565b604082019050919050565b60006020820190508181036000830152614e9181614e55565b9050919050565b7f4552433732313a207472616e7366657220746f20746865207a65726f2061646460008201527f7265737300000000000000000000000000000000000000000000000000000000602082015250565b6000614ef46024836133a4565b9150614eff82614e98565b604082019050919050565b60006020820190508181036000830152614f2381614ee7565b9050919050565b7f4552433732313a207472616e7366657220746f206e6f6e20455243373231526560008201527f63656976657220696d706c656d656e7465720000000000000000000000000000602082015250565b6000614f866032836133a4565b9150614f9182614f2a565b604082019050919050565b60006020820190508181036000830152614fb581614f79565b9050919050565b600081519050919050565b600082825260208201905092915050565b6000614fe382614fbc565b614fed8185614fc7565b9350614ffd8185602086016133b5565b615006816133e8565b840191505092915050565b600060808201905061502660008301876134e9565b61503360208301866134e9565b6150406040830185613a0f565b81810360608301526150528184614fd8565b905095945050505050565b60008151905061506c8161330a565b92915050565b600060208284031215615088576150876132d4565b5b60006150968482850161505d565b9150509291505056fea264697066735822122024efd97277b0b4a23159cfa14cc2e874d89927cb18d9f7a984ee153e387c57c464736f6c634300080a0033",
  "immutableReferences": {},
  "source": "pragma solidity ^0.8.10;\r\n\r\nimport \"@openzeppelin/contracts/token/ERC721/ERC721.sol\";\r\nimport \"./Roles.sol\";\r\nimport \"./Request.sol\";\r\n\r\ncontract Course is ERC721{\r\n\r\n    address rolesContractAddress;\r\n    address requestContractAddress;\r\n\r\n    //Mapping of the instructor to the tokenIDs\r\n    mapping(address => uint256[]) _givesCourses;//array starts from 0th index\r\n    //Mapping of the tokenID to the owner is defined in ERC721.sol\r\n\r\n    //TODO///////////////////////////////////////////\r\n    //Mapping of the tokenID to the request of students\r\n    mapping(uint256 => address[]) _requestOfStudents;//array starts from 0th index\r\n    //Mapping of the student to the tokenIDs\r\n    mapping(address => uint256[]) _takesCourses;//array starts from 0th index\r\n    //Mapping of the tokenID to the approved students\r\n    mapping(uint256 => address[]) _approvedStudents;//array starts from 0th index\r\n    //Mapping of the tokenID to frozen or not\r\n    mapping(uint256 => bool) _frozen;//TODO when you froze a course reset the correlated _requestOfStudents data\r\n    //TODO///////////////////////////////////////////\r\n\r\n    //is Course link exist\r\n    mapping(string => bool) _courseExist;\r\n    //List of Course Links\r\n    string[] _courseLinks;//starts from 0th index\r\n\r\n    constructor(address _rolesContractAddress, address _requestContractAddress) ERC721(\"Course\", \"CRS\"){\r\n        rolesContractAddress =_rolesContractAddress;\r\n        requestContractAddress = _requestContractAddress;\r\n    }\r\n    function mint(string memory _courseLink, address _instructorAddress) public{\r\n        require(Roles(rolesContractAddress).hasRectorRole(msg.sender), \"This account does not have the Rector Permissions\");\r\n        require(Roles(rolesContractAddress).hasInstructorRole(_instructorAddress), \"This address is not an instructor\");\r\n        require(!_courseExist[_courseLink], \"This link is already minted\");\r\n        //_courseLinks - add\r\n        _courseLinks.push(_courseLink);\r\n        uint _id = _courseLinks.length;\r\n        //tokenID's start from 1 because default uint256 value is 0\r\n        //Call mint of ERC721\r\n        _mint(_instructorAddress, _id);\r\n        //Trace it\r\n        _courseExist[_courseLink] = true;\r\n        _givesCourses[_instructorAddress].push(_id);\r\n        _frozen[_id] = false;\r\n\r\n        //Make request minted\r\n        Request(requestContractAddress).courseMinted(_courseLink);\r\n    }\r\n    function applyCourse(uint256 _id) public{\r\n        //Requirements\r\n        require(Roles(rolesContractAddress).hasStudentRole(msg.sender), \"This account does not have the Student Permissions\");\r\n        require(_id<=_courseLinks.length && _id>0, \"This course does not exist\");\r\n        require(!_frozen[_id],\"This course is closed by the Instructor\");\r\n        require(!isExist(_approvedStudents[_id], msg.sender), \"This student already approved for this course\");\r\n        require(!isExist(_requestOfStudents[_id], msg.sender), \"This student already applied for this course\");\r\n\r\n        //Push it\r\n        _requestOfStudents[_id].push(msg.sender);\r\n    }\r\n    function approveDisapproveApplication(uint256 _id, address studentAddress, bool isApprove) public{\r\n        //Requirements\r\n        require(Roles(rolesContractAddress).hasInstructorRole(msg.sender), \"This account does not have Instructor Permissions\");\r\n        require(ownerOf(_id) == msg.sender, \"This course does not belong to this Instructor\");\r\n        require(Roles(rolesContractAddress).hasStudentRole(studentAddress), \"This address is not a student\");\r\n        require(_id<=_courseLinks.length && _id>0, \"This course does not exist\");\r\n        require(!_frozen[_id],\"This course is closed by the Instructor\");\r\n        require(!isExist(_approvedStudents[_id], studentAddress), \"This student already approved for this course\");\r\n        require(isExist(_requestOfStudents[_id], studentAddress), \"This student has not applied for this course\");\r\n        //Trace - it\r\n        removeElement(studentAddress, _requestOfStudents[_id]);\r\n        if(isApprove){\r\n            _takesCourses[studentAddress].push(_id);\r\n            _approvedStudents[_id].push(studentAddress);\r\n        }\r\n    }\r\n    function dropStudent(uint256 _id, address studentAddress) public{\r\n        //Requirements\r\n        require(Roles(rolesContractAddress).hasInstructorRole(msg.sender), \"This account does not have Instructor Permissions\");\r\n        require(ownerOf(_id) == msg.sender, \"This course does not belong to this Instructor\");\r\n        require(Roles(rolesContractAddress).hasStudentRole(studentAddress), \"This address is not a student\");\r\n        require(_id<=_courseLinks.length && _id>0, \"This course does not exist\");\r\n        require(!_frozen[_id],\"This course is closed by the Instructor\");\r\n        require(isExist(_approvedStudents[_id], studentAddress), \"This student is not approved for this course\");\r\n        require(isExistUint(_takesCourses[studentAddress], _id), \"This student is not taking this course\");\r\n        //Drop Student\r\n        removeElement(studentAddress, _approvedStudents[_id]);\r\n        removeElementUint(_id, _takesCourses[studentAddress]);\r\n    }\r\n    function freeze(uint256 _id) public {\r\n        //Requirements\r\n        require(Roles(rolesContractAddress).hasInstructorRole(msg.sender), \"This account does not have Instructor Permissions\");\r\n        require(ownerOf(_id) == msg.sender, \"This course does not belong to this Instructor\");\r\n        require(_id<=_courseLinks.length && _id>0, \"This course does not exist\");\r\n        require(!_frozen[_id],\"This course is closed by the Instructor\");\r\n        //Freeze it\r\n        address[] memory empty;\r\n        _requestOfStudents[_id] = empty;\r\n        _frozen[_id] = true;\r\n    }\r\n    function getCourseLinks() public view returns(string[] memory courseLinks){\r\n        return _courseLinks;\r\n    }\r\n    function getGivesCourses(address instructorAddress) public view returns (uint[] memory givesCourses){\r\n        return _givesCourses[instructorAddress];\r\n    }\r\n    function getTakesCourses(address studentAddress)public view returns(uint256[] memory){\r\n        return _takesCourses[studentAddress];\r\n    }\r\n    function getRequestOfStudents(uint _id)public view returns(address[] memory){\r\n        return _requestOfStudents[_id];\r\n    }\r\n    function getApprovedStudents(uint _id)public view returns(address[] memory){\r\n        return _approvedStudents[_id];\r\n    }\r\n    function getFrozen(uint256 _id) public view returns(bool){\r\n        return _frozen[_id];\r\n    }\r\n\r\n    function isExist(address[] storage list, address element) private view returns(bool){\r\n        for(uint256 i = 0; i<list.length; i++){\r\n            if(list[i] == element){\r\n                return true;\r\n            }\r\n        }\r\n        return false;\r\n    }\r\n    function isExistUint(uint[] storage list, uint element) private view returns(bool){\r\n        for(uint256 i = 0; i<list.length; i++){\r\n            if(list[i] == element){\r\n                return true;\r\n            }\r\n        }\r\n        return false;\r\n    }\r\n\r\n    function removeElement(address element, address[] storage arr) private{\r\n        for(uint i = 0; i<arr.length; i++){\r\n            if(arr[i] == element){\r\n                arr[i] = arr[arr.length-1];\r\n                arr.pop();\r\n            }\r\n        }\r\n    }\r\n    function removeElementUint(uint element, uint[] storage arr) private{\r\n        for(uint i = 0; i<arr.length; i++){\r\n            if(arr[i] == element){\r\n                arr[i] = arr[arr.length-1];\r\n                arr.pop();\r\n            }\r\n        }\r\n    }\r\n\r\n    //TODO Contract Owner can make mistakes when minting. Token should be somewhat editable for contract owner\r\n    function transferFrom(//Only callable when minted\r\n        address from,\r\n        address to,\r\n        uint256 tokenId\r\n    ) public virtual override {\r\n        require(msg.sender == 0x0000000000000000000000000000000000000000, \"Transfer after mint is prohibited\");\r\n        super.transferFrom(from,to,tokenId);\r\n    }\r\n    function safeTransferFrom(//Only callable when minted\r\n        address from,\r\n        address to,\r\n        uint256 tokenId\r\n    ) public virtual override {\r\n        require(msg.sender == 0x0000000000000000000000000000000000000000, \"Transfer after mint is prohibited\");\r\n        super.safeTransferFrom(from,to,tokenId);\r\n    }\r\n    function safeTransferFrom(//Only callable when minted\r\n        address from,\r\n        address to,\r\n        uint256 tokenId,\r\n        bytes memory _data\r\n    ) public virtual override {\r\n        require(msg.sender == 0x0000000000000000000000000000000000000000, \"Transfer after mint is prohibited\");\r\n        super.safeTransferFrom(from, to, tokenId, _data);\r\n    }\r\n}\r\n",
  "sourcePath": "C:\\Users\\asus\\Desktop\\Dersler\\CMPE492\\certification-project\\contracts\\Course.sol",
  "compiler": {
    "name": "solc",
    "version": "0.8.10+commit.fc410830.Emscripten.clang"
  },
  "schemaVersion": "3.4.4",
  "updatedAt": "2022-01-21T02:53:35.149Z",
  "devdoc": {
    "kind": "dev",
    "methods": {
      "approve(address,uint256)": {
        "details": "See {IERC721-approve}."
      },
      "balanceOf(address)": {
        "details": "See {IERC721-balanceOf}."
      },
      "getApproved(uint256)": {
        "details": "See {IERC721-getApproved}."
      },
      "isApprovedForAll(address,address)": {
        "details": "See {IERC721-isApprovedForAll}."
      },
      "name()": {
        "details": "See {IERC721Metadata-name}."
      },
      "ownerOf(uint256)": {
        "details": "See {IERC721-ownerOf}."
      },
      "safeTransferFrom(address,address,uint256)": {
        "details": "See {IERC721-safeTransferFrom}."
      },
      "safeTransferFrom(address,address,uint256,bytes)": {
        "details": "See {IERC721-safeTransferFrom}."
      },
      "setApprovalForAll(address,bool)": {
        "details": "See {IERC721-setApprovalForAll}."
      },
      "supportsInterface(bytes4)": {
        "details": "See {IERC165-supportsInterface}."
      },
      "symbol()": {
        "details": "See {IERC721Metadata-symbol}."
      },
      "tokenURI(uint256)": {
        "details": "See {IERC721Metadata-tokenURI}."
      },
      "transferFrom(address,address,uint256)": {
        "details": "See {IERC721-transferFrom}."
      }
    },
    "version": 1
  },
  "userdoc": {
    "kind": "user",
    "methods": {},
    "version": 1
  }
}