{
  "contractName": "Course",
  "abi": [
    {
      "inputs": [
        {
          "internalType": "address",
          "name": "_rolesContractAddress",
          "type": "address"
        },
        {
          "internalType": "address",
          "name": "_requestContractAddress",
          "type": "address"
        }
      ],
      "stateMutability": "nonpayable",
      "type": "constructor"
    },
    {
      "anonymous": false,
      "inputs": [
        {
          "indexed": true,
          "internalType": "address",
          "name": "owner",
          "type": "address"
        },
        {
          "indexed": true,
          "internalType": "address",
          "name": "approved",
          "type": "address"
        },
        {
          "indexed": true,
          "internalType": "uint256",
          "name": "tokenId",
          "type": "uint256"
        }
      ],
      "name": "Approval",
      "type": "event"
    },
    {
      "anonymous": false,
      "inputs": [
        {
          "indexed": true,
          "internalType": "address",
          "name": "owner",
          "type": "address"
        },
        {
          "indexed": true,
          "internalType": "address",
          "name": "operator",
          "type": "address"
        },
        {
          "indexed": false,
          "internalType": "bool",
          "name": "approved",
          "type": "bool"
        }
      ],
      "name": "ApprovalForAll",
      "type": "event"
    },
    {
      "anonymous": false,
      "inputs": [
        {
          "indexed": true,
          "internalType": "address",
          "name": "from",
          "type": "address"
        },
        {
          "indexed": true,
          "internalType": "address",
          "name": "to",
          "type": "address"
        },
        {
          "indexed": true,
          "internalType": "uint256",
          "name": "tokenId",
          "type": "uint256"
        }
      ],
      "name": "Transfer",
      "type": "event"
    },
    {
      "inputs": [
        {
          "internalType": "address",
          "name": "to",
          "type": "address"
        },
        {
          "internalType": "uint256",
          "name": "tokenId",
          "type": "uint256"
        }
      ],
      "name": "approve",
      "outputs": [],
      "stateMutability": "nonpayable",
      "type": "function"
    },
    {
      "inputs": [
        {
          "internalType": "address",
          "name": "owner",
          "type": "address"
        }
      ],
      "name": "balanceOf",
      "outputs": [
        {
          "internalType": "uint256",
          "name": "",
          "type": "uint256"
        }
      ],
      "stateMutability": "view",
      "type": "function"
    },
    {
      "inputs": [
        {
          "internalType": "uint256",
          "name": "tokenId",
          "type": "uint256"
        }
      ],
      "name": "getApproved",
      "outputs": [
        {
          "internalType": "address",
          "name": "",
          "type": "address"
        }
      ],
      "stateMutability": "view",
      "type": "function"
    },
    {
      "inputs": [
        {
          "internalType": "address",
          "name": "owner",
          "type": "address"
        },
        {
          "internalType": "address",
          "name": "operator",
          "type": "address"
        }
      ],
      "name": "isApprovedForAll",
      "outputs": [
        {
          "internalType": "bool",
          "name": "",
          "type": "bool"
        }
      ],
      "stateMutability": "view",
      "type": "function"
    },
    {
      "inputs": [],
      "name": "name",
      "outputs": [
        {
          "internalType": "string",
          "name": "",
          "type": "string"
        }
      ],
      "stateMutability": "view",
      "type": "function"
    },
    {
      "inputs": [
        {
          "internalType": "uint256",
          "name": "tokenId",
          "type": "uint256"
        }
      ],
      "name": "ownerOf",
      "outputs": [
        {
          "internalType": "address",
          "name": "",
          "type": "address"
        }
      ],
      "stateMutability": "view",
      "type": "function"
    },
    {
      "inputs": [
        {
          "internalType": "address",
          "name": "operator",
          "type": "address"
        },
        {
          "internalType": "bool",
          "name": "approved",
          "type": "bool"
        }
      ],
      "name": "setApprovalForAll",
      "outputs": [],
      "stateMutability": "nonpayable",
      "type": "function"
    },
    {
      "inputs": [
        {
          "internalType": "bytes4",
          "name": "interfaceId",
          "type": "bytes4"
        }
      ],
      "name": "supportsInterface",
      "outputs": [
        {
          "internalType": "bool",
          "name": "",
          "type": "bool"
        }
      ],
      "stateMutability": "view",
      "type": "function"
    },
    {
      "inputs": [],
      "name": "symbol",
      "outputs": [
        {
          "internalType": "string",
          "name": "",
          "type": "string"
        }
      ],
      "stateMutability": "view",
      "type": "function"
    },
    {
      "inputs": [
        {
          "internalType": "uint256",
          "name": "tokenId",
          "type": "uint256"
        }
      ],
      "name": "tokenURI",
      "outputs": [
        {
          "internalType": "string",
          "name": "",
          "type": "string"
        }
      ],
      "stateMutability": "view",
      "type": "function"
    },
    {
      "inputs": [
        {
          "internalType": "string",
          "name": "_courseLink",
          "type": "string"
        },
        {
          "internalType": "address",
          "name": "_instructorAddress",
          "type": "address"
        }
      ],
      "name": "mint",
      "outputs": [],
      "stateMutability": "nonpayable",
      "type": "function"
    },
    {
      "inputs": [
        {
          "internalType": "uint256",
          "name": "_id",
          "type": "uint256"
        }
      ],
      "name": "applyCourse",
      "outputs": [],
      "stateMutability": "nonpayable",
      "type": "function"
    },
    {
      "inputs": [
        {
          "internalType": "uint256",
          "name": "_id",
          "type": "uint256"
        },
        {
          "internalType": "address",
          "name": "studentAddress",
          "type": "address"
        },
        {
          "internalType": "bool",
          "name": "isApprove",
          "type": "bool"
        }
      ],
      "name": "approveDisapproveApplication",
      "outputs": [],
      "stateMutability": "nonpayable",
      "type": "function"
    },
    {
      "inputs": [],
      "name": "getCourseLinks",
      "outputs": [
        {
          "internalType": "string[]",
          "name": "courseLinks",
          "type": "string[]"
        }
      ],
      "stateMutability": "view",
      "type": "function"
    },
    {
      "inputs": [
        {
          "internalType": "address",
          "name": "instructorAddress",
          "type": "address"
        }
      ],
      "name": "getGivesCourses",
      "outputs": [
        {
          "internalType": "uint256[]",
          "name": "givesCourses",
          "type": "uint256[]"
        }
      ],
      "stateMutability": "view",
      "type": "function"
    },
    {
      "inputs": [
        {
          "internalType": "address",
          "name": "studentAddress",
          "type": "address"
        }
      ],
      "name": "getTakesCourses",
      "outputs": [
        {
          "internalType": "uint256[]",
          "name": "",
          "type": "uint256[]"
        }
      ],
      "stateMutability": "view",
      "type": "function"
    },
    {
      "inputs": [
        {
          "internalType": "uint256",
          "name": "_id",
          "type": "uint256"
        }
      ],
      "name": "getRequestOfStudents",
      "outputs": [
        {
          "internalType": "address[]",
          "name": "",
          "type": "address[]"
        }
      ],
      "stateMutability": "view",
      "type": "function"
    },
    {
      "inputs": [
        {
          "internalType": "uint256",
          "name": "_id",
          "type": "uint256"
        }
      ],
      "name": "getApprovedStudents",
      "outputs": [
        {
          "internalType": "address[]",
          "name": "",
          "type": "address[]"
        }
      ],
      "stateMutability": "view",
      "type": "function"
    },
    {
      "inputs": [
        {
          "internalType": "uint256",
          "name": "_id",
          "type": "uint256"
        }
      ],
      "name": "getFrozen",
      "outputs": [
        {
          "internalType": "bool",
          "name": "",
          "type": "bool"
        }
      ],
      "stateMutability": "view",
      "type": "function"
    },
    {
      "inputs": [
        {
          "internalType": "address",
          "name": "from",
          "type": "address"
        },
        {
          "internalType": "address",
          "name": "to",
          "type": "address"
        },
        {
          "internalType": "uint256",
          "name": "tokenId",
          "type": "uint256"
        }
      ],
      "name": "transferFrom",
      "outputs": [],
      "stateMutability": "nonpayable",
      "type": "function"
    },
    {
      "inputs": [
        {
          "internalType": "address",
          "name": "from",
          "type": "address"
        },
        {
          "internalType": "address",
          "name": "to",
          "type": "address"
        },
        {
          "internalType": "uint256",
          "name": "tokenId",
          "type": "uint256"
        }
      ],
      "name": "safeTransferFrom",
      "outputs": [],
      "stateMutability": "nonpayable",
      "type": "function"
    },
    {
      "inputs": [
        {
          "internalType": "address",
          "name": "from",
          "type": "address"
        },
        {
          "internalType": "address",
          "name": "to",
          "type": "address"
        },
        {
          "internalType": "uint256",
          "name": "tokenId",
          "type": "uint256"
        },
        {
          "internalType": "bytes",
          "name": "_data",
          "type": "bytes"
        }
      ],
      "name": "safeTransferFrom",
      "outputs": [],
      "stateMutability": "nonpayable",
      "type": "function"
    }
  ],
  "bytecode": "0x60806040523480156200001157600080fd5b50604051620049a5380380620049a583398181016040528101906200003791906200027b565b6040518060400160405280600681526020017f436f7572736500000000000000000000000000000000000000000000000000008152506040518060400160405280600381526020017f43525300000000000000000000000000000000000000000000000000000000008152508160009080519060200190620000bb92919062000161565b508060019080519060200190620000d492919062000161565b50505081600660006101000a81548173ffffffffffffffffffffffffffffffffffffffff021916908373ffffffffffffffffffffffffffffffffffffffff16021790555080600760006101000a81548173ffffffffffffffffffffffffffffffffffffffff021916908373ffffffffffffffffffffffffffffffffffffffff160217905550505062000327565b8280546200016f90620002f1565b90600052602060002090601f016020900481019282620001935760008555620001df565b82601f10620001ae57805160ff1916838001178555620001df565b82800160010185558215620001df579182015b82811115620001de578251825591602001919060010190620001c1565b5b509050620001ee9190620001f2565b5090565b5b808211156200020d576000816000905550600101620001f3565b5090565b600080fd5b600073ffffffffffffffffffffffffffffffffffffffff82169050919050565b6000620002438262000216565b9050919050565b620002558162000236565b81146200026157600080fd5b50565b60008151905062000275816200024a565b92915050565b6000806040838503121562000295576200029462000211565b5b6000620002a58582860162000264565b9250506020620002b88582860162000264565b9150509250929050565b7f4e487b7100000000000000000000000000000000000000000000000000000000600052602260045260246000fd5b600060028204905060018216806200030a57607f821691505b60208210811415620003215762000320620002c2565b5b50919050565b61466e80620003376000396000f3fe608060405234801561001057600080fd5b50600436106101425760003560e01c80636352211e116100b8578063b88d4fde1161007c578063b88d4fde14610399578063c87b56dd146103b5578063e50cd299146103e5578063e721e46514610415578063e985e9c514610431578063fc3fef4d1461046157610142565b80636352211e146102e157806370a082311461031157806395d89b4114610341578063a22cb4651461035f578063a6faa9621461037b57610142565b80631c351a9d1161010a5780631c351a9d1461021157806323b872dd1461022d5780632971b8811461024957806342842e0e1461027957806344424dbe146102955780635ce8d795146102b157610142565b806301ffc9a71461014757806306fdde0314610177578063081812fc14610195578063095ea7b3146101c55780630baf40e3146101e1575b600080fd5b610161600480360381019061015c9190612ac5565b610491565b60405161016e9190612b0d565b60405180910390f35b61017f610573565b60405161018c9190612bc1565b60405180910390f35b6101af60048036038101906101aa9190612c19565b610605565b6040516101bc9190612c87565b60405180910390f35b6101df60048036038101906101da9190612cce565b61068a565b005b6101fb60048036038101906101f69190612d0e565b6107a2565b6040516102089190612df9565b60405180910390f35b61022b60048036038101906102269190612f50565b610839565b005b61024760048036038101906102429190612fac565b610c06565b005b610263600480360381019061025e9190612c19565b610c85565b60405161027091906130bd565b60405180910390f35b610293600480360381019061028e9190612fac565b610d26565b005b6102af60048036038101906102aa919061310b565b610da5565b005b6102cb60048036038101906102c69190612c19565b6111ca565b6040516102d891906130bd565b60405180910390f35b6102fb60048036038101906102f69190612c19565b61126b565b6040516103089190612c87565b60405180910390f35b61032b60048036038101906103269190612d0e565b61131d565b604051610338919061316d565b60405180910390f35b6103496113d5565b6040516103569190612bc1565b60405180910390f35b61037960048036038101906103749190613188565b611467565b005b61038361147d565b60405161039091906132d4565b60405180910390f35b6103b360048036038101906103ae9190613397565b611556565b005b6103cf60048036038101906103ca9190612c19565b6115d7565b6040516103dc9190612bc1565b60405180910390f35b6103ff60048036038101906103fa9190612d0e565b61167e565b60405161040c9190612df9565b60405180910390f35b61042f600480360381019061042a9190612c19565b611715565b005b61044b6004803603810190610446919061341a565b6119d4565b6040516104589190612b0d565b60405180910390f35b61047b60048036038101906104769190612c19565b611a68565b6040516104889190612b0d565b60405180910390f35b60007f80ac58cd000000000000000000000000000000000000000000000000000000007bffffffffffffffffffffffffffffffffffffffffffffffffffffffff1916827bffffffffffffffffffffffffffffffffffffffffffffffffffffffff1916148061055c57507f5b5e139f000000000000000000000000000000000000000000000000000000007bffffffffffffffffffffffffffffffffffffffffffffffffffffffff1916827bffffffffffffffffffffffffffffffffffffffffffffffffffffffff1916145b8061056c575061056b82611a92565b5b9050919050565b60606000805461058290613489565b80601f01602080910402602001604051908101604052809291908181526020018280546105ae90613489565b80156105fb5780601f106105d0576101008083540402835291602001916105fb565b820191906000526020600020905b8154815290600101906020018083116105de57829003601f168201915b5050505050905090565b600061061082611afc565b61064f576040517f08c379a00000000000000000000000000000000000000000000000000000000081526004016106469061352d565b60405180910390fd5b6004600083815260200190815260200160002060009054906101000a900473ffffffffffffffffffffffffffffffffffffffff169050919050565b60006106958261126b565b90508073ffffffffffffffffffffffffffffffffffffffff168373ffffffffffffffffffffffffffffffffffffffff161415610706576040517f08c379a00000000000000000000000000000000000000000000000000000000081526004016106fd906135bf565b60405180910390fd5b8073ffffffffffffffffffffffffffffffffffffffff16610725611b68565b73ffffffffffffffffffffffffffffffffffffffff16148061075457506107538161074e611b68565b6119d4565b5b610793576040517f08c379a000000000000000000000000000000000000000000000000000000000815260040161078a90613651565b60405180910390fd5b61079d8383611b70565b505050565b6060600860008373ffffffffffffffffffffffffffffffffffffffff1673ffffffffffffffffffffffffffffffffffffffff16815260200190815260200160002080548060200260200160405190810160405280929190818152602001828054801561082d57602002820191906000526020600020905b815481526020019060010190808311610819575b50505050509050919050565b600660009054906101000a900473ffffffffffffffffffffffffffffffffffffffff1673ffffffffffffffffffffffffffffffffffffffff16632be7dc44336040518263ffffffff1660e01b81526004016108949190612c87565b602060405180830381865afa1580156108b1573d6000803e3d6000fd5b505050506040513d601f19601f820116820180604052508101906108d59190613686565b610914576040517f08c379a000000000000000000000000000000000000000000000000000000000815260040161090b90613725565b60405180910390fd5b600660009054906101000a900473ffffffffffffffffffffffffffffffffffffffff1673ffffffffffffffffffffffffffffffffffffffff16639822a599826040518263ffffffff1660e01b815260040161096f9190612c87565b602060405180830381865afa15801561098c573d6000803e3d6000fd5b505050506040513d601f19601f820116820180604052508101906109b09190613686565b6109ef576040517f08c379a00000000000000000000000000000000000000000000000000000000081526004016109e6906137b7565b60405180910390fd5b600d826040516109ff9190613813565b908152602001604051809103902060009054906101000a900460ff1615610a5b576040517f08c379a0000000000000000000000000000000000000000000000000000000008152600401610a5290613876565b60405180910390fd5b600e82908060018154018082558091505060019003906000526020600020016000909190919091509080519060200190610a969291906129b6565b506000600e805490509050610aab8282611c29565b6001600d84604051610abd9190613813565b908152602001604051809103902060006101000a81548160ff021916908315150217905550600860008373ffffffffffffffffffffffffffffffffffffffff1673ffffffffffffffffffffffffffffffffffffffff1681526020019081526020016000208190806001815401808255809150506001900390600052602060002001600090919091909150556000600c600083815260200190815260200160002060006101000a81548160ff021916908315150217905550600760009054906101000a900473ffffffffffffffffffffffffffffffffffffffff1673ffffffffffffffffffffffffffffffffffffffff1663ef51ea6c846040518263ffffffff1660e01b8152600401610bcf9190612bc1565b600060405180830381600087803b158015610be957600080fd5b505af1158015610bfd573d6000803e3d6000fd5b50505050505050565b600073ffffffffffffffffffffffffffffffffffffffff163373ffffffffffffffffffffffffffffffffffffffff1614610c75576040517f08c379a0000000000000000000000000000000000000000000000000000000008152600401610c6c90613908565b60405180910390fd5b610c80838383611df7565b505050565b6060600a6000838152602001908152602001600020805480602002602001604051908101604052809291908181526020018280548015610d1a57602002820191906000526020600020905b8160009054906101000a900473ffffffffffffffffffffffffffffffffffffffff1673ffffffffffffffffffffffffffffffffffffffff1681526020019060010190808311610cd0575b50505050509050919050565b600073ffffffffffffffffffffffffffffffffffffffff163373ffffffffffffffffffffffffffffffffffffffff1614610d95576040517f08c379a0000000000000000000000000000000000000000000000000000000008152600401610d8c90613908565b60405180910390fd5b610da0838383611e57565b505050565b600660009054906101000a900473ffffffffffffffffffffffffffffffffffffffff1673ffffffffffffffffffffffffffffffffffffffff16639822a599336040518263ffffffff1660e01b8152600401610e009190612c87565b602060405180830381865afa158015610e1d573d6000803e3d6000fd5b505050506040513d601f19601f82011682018060405250810190610e419190613686565b610e80576040517f08c379a0000000000000000000000000000000000000000000000000000000008152600401610e779061399a565b60405180910390fd5b600660009054906101000a900473ffffffffffffffffffffffffffffffffffffffff1673ffffffffffffffffffffffffffffffffffffffff1663fc3ba6b4836040518263ffffffff1660e01b8152600401610edb9190612c87565b602060405180830381865afa158015610ef8573d6000803e3d6000fd5b505050506040513d601f19601f82011682018060405250810190610f1c9190613686565b610f5b576040517f08c379a0000000000000000000000000000000000000000000000000000000008152600401610f5290613a06565b60405180910390fd5b600e805490508311158015610f705750600083115b610faf576040517f08c379a0000000000000000000000000000000000000000000000000000000008152600401610fa690613a72565b60405180910390fd5b600c600084815260200190815260200160002060009054906101000a900460ff1615611010576040517f08c379a000000000000000000000000000000000000000000000000000000000815260040161100790613b04565b60405180910390fd5b61102c600b600085815260200190815260200160002083611e77565b1561106c576040517f08c379a000000000000000000000000000000000000000000000000000000000815260040161106390613b96565b60405180910390fd5b611088600a600085815260200190815260200160002083611e77565b6110c7576040517f08c379a00000000000000000000000000000000000000000000000000000000081526004016110be90613c28565b60405180910390fd5b6110e382600a6000868152602001908152602001600020611f25565b5080156111c557600960008373ffffffffffffffffffffffffffffffffffffffff1673ffffffffffffffffffffffffffffffffffffffff168152602001908152602001600020839080600181540180825580915050600190039060005260206000200160009091909190915055600b6000848152602001908152602001600020829080600181540180825580915050600190039060005260206000200160009091909190916101000a81548173ffffffffffffffffffffffffffffffffffffffff021916908373ffffffffffffffffffffffffffffffffffffffff1602179055505b505050565b6060600b600083815260200190815260200160002080548060200260200160405190810160405280929190818152602001828054801561125f57602002820191906000526020600020905b8160009054906101000a900473ffffffffffffffffffffffffffffffffffffffff1673ffffffffffffffffffffffffffffffffffffffff1681526020019060010190808311611215575b50505050509050919050565b6000806002600084815260200190815260200160002060009054906101000a900473ffffffffffffffffffffffffffffffffffffffff169050600073ffffffffffffffffffffffffffffffffffffffff168173ffffffffffffffffffffffffffffffffffffffff161415611314576040517f08c379a000000000000000000000000000000000000000000000000000000000815260040161130b90613cba565b60405180910390fd5b80915050919050565b60008073ffffffffffffffffffffffffffffffffffffffff168273ffffffffffffffffffffffffffffffffffffffff16141561138e576040517f08c379a000000000000000000000000000000000000000000000000000000000815260040161138590613d4c565b60405180910390fd5b600360008373ffffffffffffffffffffffffffffffffffffffff1673ffffffffffffffffffffffffffffffffffffffff168152602001908152602001600020549050919050565b6060600180546113e490613489565b80601f016020809104026020016040519081016040528092919081815260200182805461141090613489565b801561145d5780601f106114325761010080835404028352916020019161145d565b820191906000526020600020905b81548152906001019060200180831161144057829003601f168201915b5050505050905090565b611479611472611b68565b8383612139565b5050565b6060600e805480602002602001604051908101604052809291908181526020016000905b8282101561154d5783829060005260206000200180546114c090613489565b80601f01602080910402602001604051908101604052809291908181526020018280546114ec90613489565b80156115395780601f1061150e57610100808354040283529160200191611539565b820191906000526020600020905b81548152906001019060200180831161151c57829003601f168201915b5050505050815260200190600101906114a1565b50505050905090565b600073ffffffffffffffffffffffffffffffffffffffff163373ffffffffffffffffffffffffffffffffffffffff16146115c5576040517f08c379a00000000000000000000000000000000000000000000000000000000081526004016115bc90613908565b60405180910390fd5b6115d1848484846122a6565b50505050565b60606115e282611afc565b611621576040517f08c379a000000000000000000000000000000000000000000000000000000000815260040161161890613dde565b60405180910390fd5b600061162b612308565b9050600081511161164b5760405180602001604052806000815250611676565b806116558461231f565b604051602001611666929190613dfe565b6040516020818303038152906040525b915050919050565b6060600960008373ffffffffffffffffffffffffffffffffffffffff1673ffffffffffffffffffffffffffffffffffffffff16815260200190815260200160002080548060200260200160405190810160405280929190818152602001828054801561170957602002820191906000526020600020905b8154815260200190600101908083116116f5575b50505050509050919050565b600660009054906101000a900473ffffffffffffffffffffffffffffffffffffffff1673ffffffffffffffffffffffffffffffffffffffff1663fc3ba6b4336040518263ffffffff1660e01b81526004016117709190612c87565b602060405180830381865afa15801561178d573d6000803e3d6000fd5b505050506040513d601f19601f820116820180604052508101906117b19190613686565b6117f0576040517f08c379a00000000000000000000000000000000000000000000000000000000081526004016117e790613e94565b60405180910390fd5b600e8054905081111580156118055750600081115b611844576040517f08c379a000000000000000000000000000000000000000000000000000000000815260040161183b90613a72565b60405180910390fd5b600c600082815260200190815260200160002060009054906101000a900460ff16156118a5576040517f08c379a000000000000000000000000000000000000000000000000000000000815260040161189c90613b04565b60405180910390fd5b6118c1600b600083815260200190815260200160002033611e77565b15611901576040517f08c379a00000000000000000000000000000000000000000000000000000000081526004016118f890613b96565b60405180910390fd5b61191d600a600083815260200190815260200160002033611e77565b1561195d576040517f08c379a000000000000000000000000000000000000000000000000000000000815260040161195490613f26565b60405180910390fd5b600a6000828152602001908152602001600020339080600181540180825580915050600190039060005260206000200160009091909190916101000a81548173ffffffffffffffffffffffffffffffffffffffff021916908373ffffffffffffffffffffffffffffffffffffffff16021790555050565b6000600560008473ffffffffffffffffffffffffffffffffffffffff1673ffffffffffffffffffffffffffffffffffffffff16815260200190815260200160002060008373ffffffffffffffffffffffffffffffffffffffff1673ffffffffffffffffffffffffffffffffffffffff16815260200190815260200160002060009054906101000a900460ff16905092915050565b6000600c600083815260200190815260200160002060009054906101000a900460ff169050919050565b60007f01ffc9a7000000000000000000000000000000000000000000000000000000007bffffffffffffffffffffffffffffffffffffffffffffffffffffffff1916827bffffffffffffffffffffffffffffffffffffffffffffffffffffffff1916149050919050565b60008073ffffffffffffffffffffffffffffffffffffffff166002600084815260200190815260200160002060009054906101000a900473ffffffffffffffffffffffffffffffffffffffff1673ffffffffffffffffffffffffffffffffffffffff1614159050919050565b600033905090565b816004600083815260200190815260200160002060006101000a81548173ffffffffffffffffffffffffffffffffffffffff021916908373ffffffffffffffffffffffffffffffffffffffff160217905550808273ffffffffffffffffffffffffffffffffffffffff16611be38361126b565b73ffffffffffffffffffffffffffffffffffffffff167f8c5be1e5ebec7d5bd14f71427d1e84f3dd0314c0f7b2291e5b200ac8c7c3b92560405160405180910390a45050565b600073ffffffffffffffffffffffffffffffffffffffff168273ffffffffffffffffffffffffffffffffffffffff161415611c99576040517f08c379a0000000000000000000000000000000000000000000000000000000008152600401611c9090613f92565b60405180910390fd5b611ca281611afc565b15611ce2576040517f08c379a0000000000000000000000000000000000000000000000000000000008152600401611cd990613ffe565b60405180910390fd5b611cee60008383612480565b6001600360008473ffffffffffffffffffffffffffffffffffffffff1673ffffffffffffffffffffffffffffffffffffffff1681526020019081526020016000206000828254611d3e919061404d565b92505081905550816002600083815260200190815260200160002060006101000a81548173ffffffffffffffffffffffffffffffffffffffff021916908373ffffffffffffffffffffffffffffffffffffffff160217905550808273ffffffffffffffffffffffffffffffffffffffff16600073ffffffffffffffffffffffffffffffffffffffff167fddf252ad1be2c89b69c2b068fc378daa952ba7f163c4a11628f55a4df523b3ef60405160405180910390a45050565b611e08611e02611b68565b82612485565b611e47576040517f08c379a0000000000000000000000000000000000000000000000000000000008152600401611e3e90614115565b60405180910390fd5b611e52838383612563565b505050565b611e7283838360405180602001604052806000815250611556565b505050565b600080600090505b8380549050811015611f19578273ffffffffffffffffffffffffffffffffffffffff16848281548110611eb557611eb4614135565b5b9060005260206000200160009054906101000a900473ffffffffffffffffffffffffffffffffffffffff1673ffffffffffffffffffffffffffffffffffffffff161415611f06576001915050611f1f565b8080611f1190614164565b915050611e7f565b50600090505b92915050565b606060005b82805490508110156120aa578373ffffffffffffffffffffffffffffffffffffffff16838281548110611f6057611f5f614135565b5b9060005260206000200160009054906101000a900473ffffffffffffffffffffffffffffffffffffffff1673ffffffffffffffffffffffffffffffffffffffff161415612097578260018480549050611fb991906141ad565b81548110611fca57611fc9614135565b5b9060005260206000200160009054906101000a900473ffffffffffffffffffffffffffffffffffffffff1683828154811061200857612007614135565b5b9060005260206000200160006101000a81548173ffffffffffffffffffffffffffffffffffffffff021916908373ffffffffffffffffffffffffffffffffffffffff16021790555082805480612061576120606141e1565b5b6001900381819060005260206000200160006101000a81549073ffffffffffffffffffffffffffffffffffffffff021916905590555b80806120a290614164565b915050611f2a565b508180548060200260200160405190810160405280929190818152602001828054801561212c57602002820191906000526020600020905b8160009054906101000a900473ffffffffffffffffffffffffffffffffffffffff1673ffffffffffffffffffffffffffffffffffffffff16815260200190600101908083116120e2575b5050505050905092915050565b8173ffffffffffffffffffffffffffffffffffffffff168373ffffffffffffffffffffffffffffffffffffffff1614156121a8576040517f08c379a000000000000000000000000000000000000000000000000000000000815260040161219f9061425c565b60405180910390fd5b80600560008573ffffffffffffffffffffffffffffffffffffffff1673ffffffffffffffffffffffffffffffffffffffff16815260200190815260200160002060008473ffffffffffffffffffffffffffffffffffffffff1673ffffffffffffffffffffffffffffffffffffffff16815260200190815260200160002060006101000a81548160ff0219169083151502179055508173ffffffffffffffffffffffffffffffffffffffff168373ffffffffffffffffffffffffffffffffffffffff167f17307eab39ab6107e8899845ad3d59bd9653f200f220920489ca2b5937696c31836040516122999190612b0d565b60405180910390a3505050565b6122b76122b1611b68565b83612485565b6122f6576040517f08c379a00000000000000000000000000000000000000000000000000000000081526004016122ed90614115565b60405180910390fd5b612302848484846127bf565b50505050565b606060405180602001604052806000815250905090565b60606000821415612367576040518060400160405280600181526020017f3000000000000000000000000000000000000000000000000000000000000000815250905061247b565b600082905060005b6000821461239957808061238290614164565b915050600a8261239291906142ab565b915061236f565b60008167ffffffffffffffff8111156123b5576123b4612e25565b5b6040519080825280601f01601f1916602001820160405280156123e75781602001600182028036833780820191505090505b5090505b600085146124745760018261240091906141ad565b9150600a8561240f91906142dc565b603061241b919061404d565b60f81b81838151811061243157612430614135565b5b60200101907effffffffffffffffffffffffffffffffffffffffffffffffffffffffffffff1916908160001a905350600a8561246d91906142ab565b94506123eb565b8093505050505b919050565b505050565b600061249082611afc565b6124cf576040517f08c379a00000000000000000000000000000000000000000000000000000000081526004016124c69061437f565b60405180910390fd5b60006124da8361126b565b90508073ffffffffffffffffffffffffffffffffffffffff168473ffffffffffffffffffffffffffffffffffffffff16148061254957508373ffffffffffffffffffffffffffffffffffffffff1661253184610605565b73ffffffffffffffffffffffffffffffffffffffff16145b8061255a575061255981856119d4565b5b91505092915050565b8273ffffffffffffffffffffffffffffffffffffffff166125838261126b565b73ffffffffffffffffffffffffffffffffffffffff16146125d9576040517f08c379a00000000000000000000000000000000000000000000000000000000081526004016125d090614411565b60405180910390fd5b600073ffffffffffffffffffffffffffffffffffffffff168273ffffffffffffffffffffffffffffffffffffffff161415612649576040517f08c379a0000000000000000000000000000000000000000000000000000000008152600401612640906144a3565b60405180910390fd5b612654838383612480565b61265f600082611b70565b6001600360008573ffffffffffffffffffffffffffffffffffffffff1673ffffffffffffffffffffffffffffffffffffffff16815260200190815260200160002060008282546126af91906141ad565b925050819055506001600360008473ffffffffffffffffffffffffffffffffffffffff1673ffffffffffffffffffffffffffffffffffffffff1681526020019081526020016000206000828254612706919061404d565b92505081905550816002600083815260200190815260200160002060006101000a81548173ffffffffffffffffffffffffffffffffffffffff021916908373ffffffffffffffffffffffffffffffffffffffff160217905550808273ffffffffffffffffffffffffffffffffffffffff168473ffffffffffffffffffffffffffffffffffffffff167fddf252ad1be2c89b69c2b068fc378daa952ba7f163c4a11628f55a4df523b3ef60405160405180910390a4505050565b6127ca848484612563565b6127d68484848461281b565b612815576040517f08c379a000000000000000000000000000000000000000000000000000000000815260040161280c90614535565b60405180910390fd5b50505050565b600061283c8473ffffffffffffffffffffffffffffffffffffffff166129a3565b15612996578373ffffffffffffffffffffffffffffffffffffffff1663150b7a02612865611b68565b8786866040518563ffffffff1660e01b815260040161288794939291906145aa565b6020604051808303816000875af19250505080156128c357506040513d601f19601f820116820180604052508101906128c0919061460b565b60015b612946573d80600081146128f3576040519150601f19603f3d011682016040523d82523d6000602084013e6128f8565b606091505b5060008151141561293e576040517f08c379a000000000000000000000000000000000000000000000000000000000815260040161293590614535565b60405180910390fd5b805181602001fd5b63150b7a0260e01b7bffffffffffffffffffffffffffffffffffffffffffffffffffffffff1916817bffffffffffffffffffffffffffffffffffffffffffffffffffffffff19161491505061299b565b600190505b949350505050565b600080823b905060008111915050919050565b8280546129c290613489565b90600052602060002090601f0160209004810192826129e45760008555612a2b565b82601f106129fd57805160ff1916838001178555612a2b565b82800160010185558215612a2b579182015b82811115612a2a578251825591602001919060010190612a0f565b5b509050612a389190612a3c565b5090565b5b80821115612a55576000816000905550600101612a3d565b5090565b6000604051905090565b600080fd5b600080fd5b60007fffffffff0000000000000000000000000000000000000000000000000000000082169050919050565b612aa281612a6d565b8114612aad57600080fd5b50565b600081359050612abf81612a99565b92915050565b600060208284031215612adb57612ada612a63565b5b6000612ae984828501612ab0565b91505092915050565b60008115159050919050565b612b0781612af2565b82525050565b6000602082019050612b226000830184612afe565b92915050565b600081519050919050565b600082825260208201905092915050565b60005b83811015612b62578082015181840152602081019050612b47565b83811115612b71576000848401525b50505050565b6000601f19601f8301169050919050565b6000612b9382612b28565b612b9d8185612b33565b9350612bad818560208601612b44565b612bb681612b77565b840191505092915050565b60006020820190508181036000830152612bdb8184612b88565b905092915050565b6000819050919050565b612bf681612be3565b8114612c0157600080fd5b50565b600081359050612c1381612bed565b92915050565b600060208284031215612c2f57612c2e612a63565b5b6000612c3d84828501612c04565b91505092915050565b600073ffffffffffffffffffffffffffffffffffffffff82169050919050565b6000612c7182612c46565b9050919050565b612c8181612c66565b82525050565b6000602082019050612c9c6000830184612c78565b92915050565b612cab81612c66565b8114612cb657600080fd5b50565b600081359050612cc881612ca2565b92915050565b60008060408385031215612ce557612ce4612a63565b5b6000612cf385828601612cb9565b9250506020612d0485828601612c04565b9150509250929050565b600060208284031215612d2457612d23612a63565b5b6000612d3284828501612cb9565b91505092915050565b600081519050919050565b600082825260208201905092915050565b6000819050602082019050919050565b612d7081612be3565b82525050565b6000612d828383612d67565b60208301905092915050565b6000602082019050919050565b6000612da682612d3b565b612db08185612d46565b9350612dbb83612d57565b8060005b83811015612dec578151612dd38882612d76565b9750612dde83612d8e565b925050600181019050612dbf565b5085935050505092915050565b60006020820190508181036000830152612e138184612d9b565b905092915050565b600080fd5b600080fd5b7f4e487b7100000000000000000000000000000000000000000000000000000000600052604160045260246000fd5b612e5d82612b77565b810181811067ffffffffffffffff82111715612e7c57612e7b612e25565b5b80604052505050565b6000612e8f612a59565b9050612e9b8282612e54565b919050565b600067ffffffffffffffff821115612ebb57612eba612e25565b5b612ec482612b77565b9050602081019050919050565b82818337600083830152505050565b6000612ef3612eee84612ea0565b612e85565b905082815260208101848484011115612f0f57612f0e612e20565b5b612f1a848285612ed1565b509392505050565b600082601f830112612f3757612f36612e1b565b5b8135612f47848260208601612ee0565b91505092915050565b60008060408385031215612f6757612f66612a63565b5b600083013567ffffffffffffffff811115612f8557612f84612a68565b5b612f9185828601612f22565b9250506020612fa285828601612cb9565b9150509250929050565b600080600060608486031215612fc557612fc4612a63565b5b6000612fd386828701612cb9565b9350506020612fe486828701612cb9565b9250506040612ff586828701612c04565b9150509250925092565b600081519050919050565b600082825260208201905092915050565b6000819050602082019050919050565b61303481612c66565b82525050565b6000613046838361302b565b60208301905092915050565b6000602082019050919050565b600061306a82612fff565b613074818561300a565b935061307f8361301b565b8060005b838110156130b0578151613097888261303a565b97506130a283613052565b925050600181019050613083565b5085935050505092915050565b600060208201905081810360008301526130d7818461305f565b905092915050565b6130e881612af2565b81146130f357600080fd5b50565b600081359050613105816130df565b92915050565b60008060006060848603121561312457613123612a63565b5b600061313286828701612c04565b935050602061314386828701612cb9565b9250506040613154868287016130f6565b9150509250925092565b61316781612be3565b82525050565b6000602082019050613182600083018461315e565b92915050565b6000806040838503121561319f5761319e612a63565b5b60006131ad85828601612cb9565b92505060206131be858286016130f6565b9150509250929050565b600081519050919050565b600082825260208201905092915050565b6000819050602082019050919050565b600082825260208201905092915050565b600061321082612b28565b61321a81856131f4565b935061322a818560208601612b44565b61323381612b77565b840191505092915050565b600061324a8383613205565b905092915050565b6000602082019050919050565b600061326a826131c8565b61327481856131d3565b935083602082028501613286856131e4565b8060005b858110156132c257848403895281516132a3858261323e565b94506132ae83613252565b925060208a0199505060018101905061328a565b50829750879550505050505092915050565b600060208201905081810360008301526132ee818461325f565b905092915050565b600067ffffffffffffffff82111561331157613310612e25565b5b61331a82612b77565b9050602081019050919050565b600061333a613335846132f6565b612e85565b90508281526020810184848401111561335657613355612e20565b5b613361848285612ed1565b509392505050565b600082601f83011261337e5761337d612e1b565b5b813561338e848260208601613327565b91505092915050565b600080600080608085870312156133b1576133b0612a63565b5b60006133bf87828801612cb9565b94505060206133d087828801612cb9565b93505060406133e187828801612c04565b925050606085013567ffffffffffffffff81111561340257613401612a68565b5b61340e87828801613369565b91505092959194509250565b6000806040838503121561343157613430612a63565b5b600061343f85828601612cb9565b925050602061345085828601612cb9565b9150509250929050565b7f4e487b7100000000000000000000000000000000000000000000000000000000600052602260045260246000fd5b600060028204905060018216806134a157607f821691505b602082108114156134b5576134b461345a565b5b50919050565b7f4552433732313a20617070726f76656420717565727920666f72206e6f6e657860008201527f697374656e7420746f6b656e0000000000000000000000000000000000000000602082015250565b6000613517602c83612b33565b9150613522826134bb565b604082019050919050565b600060208201905081810360008301526135468161350a565b9050919050565b7f4552433732313a20617070726f76616c20746f2063757272656e74206f776e6560008201527f7200000000000000000000000000000000000000000000000000000000000000602082015250565b60006135a9602183612b33565b91506135b48261354d565b604082019050919050565b600060208201905081810360008301526135d88161359c565b9050919050565b7f4552433732313a20617070726f76652063616c6c6572206973206e6f74206f7760008201527f6e6572206e6f7220617070726f76656420666f7220616c6c0000000000000000602082015250565b600061363b603883612b33565b9150613646826135df565b604082019050919050565b6000602082019050818103600083015261366a8161362e565b9050919050565b600081519050613680816130df565b92915050565b60006020828403121561369c5761369b612a63565b5b60006136aa84828501613671565b91505092915050565b7f54686973206163636f756e7420646f6573206e6f74206861766520746865205260008201527f6563746f72205065726d697373696f6e73000000000000000000000000000000602082015250565b600061370f603183612b33565b915061371a826136b3565b604082019050919050565b6000602082019050818103600083015261373e81613702565b9050919050565b7f546869732061646472657373206973206e6f7420616e20696e7374727563746f60008201527f7200000000000000000000000000000000000000000000000000000000000000602082015250565b60006137a1602183612b33565b91506137ac82613745565b604082019050919050565b600060208201905081810360008301526137d081613794565b9050919050565b600081905092915050565b60006137ed82612b28565b6137f781856137d7565b9350613807818560208601612b44565b80840191505092915050565b600061381f82846137e2565b915081905092915050565b7f54686973206c696e6b20697320616c7265616479206d696e7465640000000000600082015250565b6000613860601b83612b33565b915061386b8261382a565b602082019050919050565b6000602082019050818103600083015261388f81613853565b9050919050565b7f5472616e73666572206166746572206d696e742069732070726f68696269746560008201527f6400000000000000000000000000000000000000000000000000000000000000602082015250565b60006138f2602183612b33565b91506138fd82613896565b604082019050919050565b60006020820190508181036000830152613921816138e5565b9050919050565b7f54686973206163636f756e7420646f6573206e6f74206861766520496e73747260008201527f7563746f72205065726d697373696f6e73000000000000000000000000000000602082015250565b6000613984603183612b33565b915061398f82613928565b604082019050919050565b600060208201905081810360008301526139b381613977565b9050919050565b7f546869732061646472657373206973206e6f7420612073747564656e74000000600082015250565b60006139f0601d83612b33565b91506139fb826139ba565b602082019050919050565b60006020820190508181036000830152613a1f816139e3565b9050919050565b7f5468697320636f7572736520646f6573206e6f74206578697374000000000000600082015250565b6000613a5c601a83612b33565b9150613a6782613a26565b602082019050919050565b60006020820190508181036000830152613a8b81613a4f565b9050919050565b7f5468697320636f7572736520697320636c6f7365642062792074686520496e7360008201527f74727563746f7200000000000000000000000000000000000000000000000000602082015250565b6000613aee602783612b33565b9150613af982613a92565b604082019050919050565b60006020820190508181036000830152613b1d81613ae1565b9050919050565b7f546869732073747564656e7420616c726561647920617070726f76656420666f60008201527f72207468697320636f7572736500000000000000000000000000000000000000602082015250565b6000613b80602d83612b33565b9150613b8b82613b24565b604082019050919050565b60006020820190508181036000830152613baf81613b73565b9050919050565b7f546869732073747564656e7420686173206e6f74206170706c69656420666f7260008201527f207468697320636f757273650000000000000000000000000000000000000000602082015250565b6000613c12602c83612b33565b9150613c1d82613bb6565b604082019050919050565b60006020820190508181036000830152613c4181613c05565b9050919050565b7f4552433732313a206f776e657220717565727920666f72206e6f6e657869737460008201527f656e7420746f6b656e0000000000000000000000000000000000000000000000602082015250565b6000613ca4602983612b33565b9150613caf82613c48565b604082019050919050565b60006020820190508181036000830152613cd381613c97565b9050919050565b7f4552433732313a2062616c616e636520717565727920666f7220746865207a6560008201527f726f206164647265737300000000000000000000000000000000000000000000602082015250565b6000613d36602a83612b33565b9150613d4182613cda565b604082019050919050565b60006020820190508181036000830152613d6581613d29565b9050919050565b7f4552433732314d657461646174613a2055524920717565727920666f72206e6f60008201527f6e6578697374656e7420746f6b656e0000000000000000000000000000000000602082015250565b6000613dc8602f83612b33565b9150613dd382613d6c565b604082019050919050565b60006020820190508181036000830152613df781613dbb565b9050919050565b6000613e0a82856137e2565b9150613e1682846137e2565b91508190509392505050565b7f54686973206163636f756e7420646f6573206e6f74206861766520746865205360008201527f747564656e74205065726d697373696f6e730000000000000000000000000000602082015250565b6000613e7e603283612b33565b9150613e8982613e22565b604082019050919050565b60006020820190508181036000830152613ead81613e71565b9050919050565b7f546869732073747564656e7420616c7265616479206170706c69656420666f7260008201527f207468697320636f757273650000000000000000000000000000000000000000602082015250565b6000613f10602c83612b33565b9150613f1b82613eb4565b604082019050919050565b60006020820190508181036000830152613f3f81613f03565b9050919050565b7f4552433732313a206d696e7420746f20746865207a65726f2061646472657373600082015250565b6000613f7c602083612b33565b9150613f8782613f46565b602082019050919050565b60006020820190508181036000830152613fab81613f6f565b9050919050565b7f4552433732313a20746f6b656e20616c7265616479206d696e74656400000000600082015250565b6000613fe8601c83612b33565b9150613ff382613fb2565b602082019050919050565b6000602082019050818103600083015261401781613fdb565b9050919050565b7f4e487b7100000000000000000000000000000000000000000000000000000000600052601160045260246000fd5b600061405882612be3565b915061406383612be3565b9250827fffffffffffffffffffffffffffffffffffffffffffffffffffffffffffffffff038211156140985761409761401e565b5b828201905092915050565b7f4552433732313a207472616e736665722063616c6c6572206973206e6f74206f60008201527f776e6572206e6f7220617070726f766564000000000000000000000000000000602082015250565b60006140ff603183612b33565b915061410a826140a3565b604082019050919050565b6000602082019050818103600083015261412e816140f2565b9050919050565b7f4e487b7100000000000000000000000000000000000000000000000000000000600052603260045260246000fd5b600061416f82612be3565b91507fffffffffffffffffffffffffffffffffffffffffffffffffffffffffffffffff8214156141a2576141a161401e565b5b600182019050919050565b60006141b882612be3565b91506141c383612be3565b9250828210156141d6576141d561401e565b5b828203905092915050565b7f4e487b7100000000000000000000000000000000000000000000000000000000600052603160045260246000fd5b7f4552433732313a20617070726f766520746f2063616c6c657200000000000000600082015250565b6000614246601983612b33565b915061425182614210565b602082019050919050565b6000602082019050818103600083015261427581614239565b9050919050565b7f4e487b7100000000000000000000000000000000000000000000000000000000600052601260045260246000fd5b60006142b682612be3565b91506142c183612be3565b9250826142d1576142d061427c565b5b828204905092915050565b60006142e782612be3565b91506142f283612be3565b9250826143025761430161427c565b5b828206905092915050565b7f4552433732313a206f70657261746f7220717565727920666f72206e6f6e657860008201527f697374656e7420746f6b656e0000000000000000000000000000000000000000602082015250565b6000614369602c83612b33565b91506143748261430d565b604082019050919050565b600060208201905081810360008301526143988161435c565b9050919050565b7f4552433732313a207472616e73666572206f6620746f6b656e2074686174206960008201527f73206e6f74206f776e0000000000000000000000000000000000000000000000602082015250565b60006143fb602983612b33565b91506144068261439f565b604082019050919050565b6000602082019050818103600083015261442a816143ee565b9050919050565b7f4552433732313a207472616e7366657220746f20746865207a65726f2061646460008201527f7265737300000000000000000000000000000000000000000000000000000000602082015250565b600061448d602483612b33565b915061449882614431565b604082019050919050565b600060208201905081810360008301526144bc81614480565b9050919050565b7f4552433732313a207472616e7366657220746f206e6f6e20455243373231526560008201527f63656976657220696d706c656d656e7465720000000000000000000000000000602082015250565b600061451f603283612b33565b915061452a826144c3565b604082019050919050565b6000602082019050818103600083015261454e81614512565b9050919050565b600081519050919050565b600082825260208201905092915050565b600061457c82614555565b6145868185614560565b9350614596818560208601612b44565b61459f81612b77565b840191505092915050565b60006080820190506145bf6000830187612c78565b6145cc6020830186612c78565b6145d9604083018561315e565b81810360608301526145eb8184614571565b905095945050505050565b60008151905061460581612a99565b92915050565b60006020828403121561462157614620612a63565b5b600061462f848285016145f6565b9150509291505056fea2646970667358221220a081096a0c70343bfec2b34992821c0f8f1be0bb732f30334da4f034b884c9e764736f6c634300080a0033",
  "immutableReferences": {},
  "source": "pragma solidity ^0.8.10;\r\n\r\nimport \"@openzeppelin/contracts/token/ERC721/ERC721.sol\";\r\nimport \"./Roles.sol\";\r\nimport \"./Request.sol\";\r\n\r\ncontract Course is ERC721{\r\n\r\n    address rolesContractAddress;\r\n    address requestContractAddress;\r\n\r\n    //Mapping of the instructor to the tokenIDs\r\n    mapping(address => uint256[]) _givesCourses;//array starts from 0th index\r\n    //Mapping of the tokenID to the owner is defined in ERC721.sol\r\n\r\n    //TODO///////////////////////////////////////////\r\n    //Mapping of the student to the tokenIDs\r\n    mapping(address => uint256[]) _takesCourses;//array starts from 0th index\r\n    //Mapping of the tokenID to the request of students\r\n    mapping(uint256 => address[]) _requestOfStudents;//array starts from 0th index\r\n    //Mapping of the tokenID to the approved students\r\n    mapping(uint256 => address[]) _approvedStudents;//array starts from 0th index\r\n    //Mapping of the tokenID to frozen or not\r\n    mapping(uint256 => bool) _frozen;//TODO when you froze a course reset the correlated _requestOfStudents data\r\n    //TODO///////////////////////////////////////////\r\n\r\n    //is Course link exist\r\n    mapping(string => bool) _courseExist;\r\n    //List of Course Links\r\n    string[] _courseLinks;//starts from 0th index\r\n\r\n    constructor(address _rolesContractAddress, address _requestContractAddress) ERC721(\"Course\", \"CRS\"){\r\n        rolesContractAddress =_rolesContractAddress;\r\n        requestContractAddress = _requestContractAddress;\r\n    }\r\n    function mint(string memory _courseLink, address _instructorAddress) public{\r\n        require(Roles(rolesContractAddress).hasRectorRole(msg.sender), \"This account does not have the Rector Permissions\");\r\n        require(Roles(rolesContractAddress).hasInstructorRole(_instructorAddress), \"This address is not an instructor\");\r\n        require(!_courseExist[_courseLink], \"This link is already minted\");\r\n        //_courseLinks - add\r\n        _courseLinks.push(_courseLink);\r\n        uint _id = _courseLinks.length;\r\n        //tokenID's start from 1 because default uint256 value is 0\r\n        //Call mint of ERC721\r\n        _mint(_instructorAddress, _id);\r\n        //Trace it\r\n        _courseExist[_courseLink] = true;\r\n        _givesCourses[_instructorAddress].push(_id);\r\n        _frozen[_id] = false;\r\n\r\n        //Make request minted\r\n        Request(requestContractAddress).courseMinted(_courseLink);\r\n    }\r\n    function applyCourse(uint256 _id) public{\r\n        //Requirements\r\n        require(Roles(rolesContractAddress).hasStudentRole(msg.sender), \"This account does not have the Student Permissions\");\r\n        require(_id<=_courseLinks.length && _id>0, \"This course does not exist\");\r\n        require(!_frozen[_id],\"This course is closed by the Instructor\");\r\n        require(!isExist(_approvedStudents[_id], msg.sender), \"This student already approved for this course\");\r\n        require(!isExist(_requestOfStudents[_id], msg.sender), \"This student already applied for this course\");\r\n\r\n        //Push it\r\n        _requestOfStudents[_id].push(msg.sender);\r\n    }\r\n    function approveDisapproveApplication(uint256 _id, address studentAddress, bool isApprove) public{\r\n        //Requirements\r\n        require(Roles(rolesContractAddress).hasInstructorRole(msg.sender), \"This account does not have Instructor Permissions\");\r\n        require(Roles(rolesContractAddress).hasStudentRole(studentAddress), \"This address is not a student\");\r\n        require(_id<=_courseLinks.length && _id>0, \"This course does not exist\");\r\n        require(!_frozen[_id],\"This course is closed by the Instructor\");\r\n        require(!isExist(_approvedStudents[_id], studentAddress), \"This student already approved for this course\");\r\n        require(isExist(_requestOfStudents[_id], studentAddress), \"This student has not applied for this course\");\r\n        //Trace - it\r\n        removeElement(studentAddress, _requestOfStudents[_id]);\r\n        if(isApprove){\r\n            _takesCourses[studentAddress].push(_id);\r\n            _approvedStudents[_id].push(studentAddress);\r\n        }\r\n    }\r\n    function getCourseLinks() public view returns(string[] memory courseLinks){\r\n        return _courseLinks;\r\n    }\r\n    function getGivesCourses(address instructorAddress) public view returns (uint[] memory givesCourses){\r\n        return _givesCourses[instructorAddress];\r\n    }\r\n    function getTakesCourses(address studentAddress)public view returns(uint256[] memory){\r\n        return _takesCourses[studentAddress];\r\n    }\r\n    function getRequestOfStudents(uint _id)public view returns(address[] memory){\r\n        return _requestOfStudents[_id];\r\n    }\r\n    function getApprovedStudents(uint _id)public view returns(address[] memory){\r\n        return _approvedStudents[_id];\r\n    }\r\n    function getFrozen(uint256 _id) public view returns(bool){\r\n        return _frozen[_id];\r\n    }\r\n\r\n    function isExist(address[] storage list, address element) private view returns(bool){\r\n        for(uint256 i = 0; i<list.length; i++){\r\n            if(list[i] == element){\r\n                return true;\r\n            }\r\n        }\r\n        return false;\r\n    }\r\n    function removeElement(address element, address[] storage arr) private returns(address[] memory){\r\n        for(uint i = 0; i<arr.length; i++){\r\n            if(arr[i] == element){\r\n                arr[i] = arr[arr.length-1];\r\n                arr.pop();\r\n            }\r\n        }\r\n        return arr;\r\n    }\r\n    //TODO Contract Owner can make mistakes when minting. Token should be somewhat editable for contract owner\r\n    function transferFrom(//Only callable when minted\r\n        address from,\r\n        address to,\r\n        uint256 tokenId\r\n    ) public virtual override {\r\n        require(msg.sender == 0x0000000000000000000000000000000000000000, \"Transfer after mint is prohibited\");\r\n        super.transferFrom(from,to,tokenId);\r\n    }\r\n    function safeTransferFrom(//Only callable when minted\r\n        address from,\r\n        address to,\r\n        uint256 tokenId\r\n    ) public virtual override {\r\n        require(msg.sender == 0x0000000000000000000000000000000000000000, \"Transfer after mint is prohibited\");\r\n        super.safeTransferFrom(from,to,tokenId);\r\n    }\r\n    function safeTransferFrom(//Only callable when minted\r\n        address from,\r\n        address to,\r\n        uint256 tokenId,\r\n        bytes memory _data\r\n    ) public virtual override {\r\n        require(msg.sender == 0x0000000000000000000000000000000000000000, \"Transfer after mint is prohibited\");\r\n        super.safeTransferFrom(from, to, tokenId, _data);\r\n    }\r\n}\r\n",
  "sourcePath": "C:\\Users\\asus\\Desktop\\Dersler\\CMPE492\\certification-project\\contracts\\Course.sol",
  "compiler": {
    "name": "solc",
    "version": "0.8.10+commit.fc410830.Emscripten.clang"
  },
  "schemaVersion": "3.4.4",
  "updatedAt": "2022-01-20T23:16:19.299Z",
  "devdoc": {
    "kind": "dev",
    "methods": {
      "approve(address,uint256)": {
        "details": "See {IERC721-approve}."
      },
      "balanceOf(address)": {
        "details": "See {IERC721-balanceOf}."
      },
      "getApproved(uint256)": {
        "details": "See {IERC721-getApproved}."
      },
      "isApprovedForAll(address,address)": {
        "details": "See {IERC721-isApprovedForAll}."
      },
      "name()": {
        "details": "See {IERC721Metadata-name}."
      },
      "ownerOf(uint256)": {
        "details": "See {IERC721-ownerOf}."
      },
      "safeTransferFrom(address,address,uint256)": {
        "details": "See {IERC721-safeTransferFrom}."
      },
      "safeTransferFrom(address,address,uint256,bytes)": {
        "details": "See {IERC721-safeTransferFrom}."
      },
      "setApprovalForAll(address,bool)": {
        "details": "See {IERC721-setApprovalForAll}."
      },
      "supportsInterface(bytes4)": {
        "details": "See {IERC165-supportsInterface}."
      },
      "symbol()": {
        "details": "See {IERC721Metadata-symbol}."
      },
      "tokenURI(uint256)": {
        "details": "See {IERC721Metadata-tokenURI}."
      },
      "transferFrom(address,address,uint256)": {
        "details": "See {IERC721-transferFrom}."
      }
    },
    "version": 1
  },
  "userdoc": {
    "kind": "user",
    "methods": {},
    "version": 1
  }
}