{
  "contractName": "Course",
  "abi": [
    {
      "inputs": [
        {
          "internalType": "address",
          "name": "_rolesContractAddress",
          "type": "address"
        },
        {
          "internalType": "address",
          "name": "_requestContractAddress",
          "type": "address"
        }
      ],
      "stateMutability": "nonpayable",
      "type": "constructor"
    },
    {
      "anonymous": false,
      "inputs": [
        {
          "indexed": true,
          "internalType": "address",
          "name": "owner",
          "type": "address"
        },
        {
          "indexed": true,
          "internalType": "address",
          "name": "approved",
          "type": "address"
        },
        {
          "indexed": true,
          "internalType": "uint256",
          "name": "tokenId",
          "type": "uint256"
        }
      ],
      "name": "Approval",
      "type": "event"
    },
    {
      "anonymous": false,
      "inputs": [
        {
          "indexed": true,
          "internalType": "address",
          "name": "owner",
          "type": "address"
        },
        {
          "indexed": true,
          "internalType": "address",
          "name": "operator",
          "type": "address"
        },
        {
          "indexed": false,
          "internalType": "bool",
          "name": "approved",
          "type": "bool"
        }
      ],
      "name": "ApprovalForAll",
      "type": "event"
    },
    {
      "anonymous": false,
      "inputs": [
        {
          "indexed": true,
          "internalType": "address",
          "name": "from",
          "type": "address"
        },
        {
          "indexed": true,
          "internalType": "address",
          "name": "to",
          "type": "address"
        },
        {
          "indexed": true,
          "internalType": "uint256",
          "name": "tokenId",
          "type": "uint256"
        }
      ],
      "name": "Transfer",
      "type": "event"
    },
    {
      "inputs": [
        {
          "internalType": "address",
          "name": "to",
          "type": "address"
        },
        {
          "internalType": "uint256",
          "name": "tokenId",
          "type": "uint256"
        }
      ],
      "name": "approve",
      "outputs": [],
      "stateMutability": "nonpayable",
      "type": "function"
    },
    {
      "inputs": [
        {
          "internalType": "address",
          "name": "owner",
          "type": "address"
        }
      ],
      "name": "balanceOf",
      "outputs": [
        {
          "internalType": "uint256",
          "name": "",
          "type": "uint256"
        }
      ],
      "stateMutability": "view",
      "type": "function"
    },
    {
      "inputs": [
        {
          "internalType": "uint256",
          "name": "tokenId",
          "type": "uint256"
        }
      ],
      "name": "getApproved",
      "outputs": [
        {
          "internalType": "address",
          "name": "",
          "type": "address"
        }
      ],
      "stateMutability": "view",
      "type": "function"
    },
    {
      "inputs": [
        {
          "internalType": "address",
          "name": "owner",
          "type": "address"
        },
        {
          "internalType": "address",
          "name": "operator",
          "type": "address"
        }
      ],
      "name": "isApprovedForAll",
      "outputs": [
        {
          "internalType": "bool",
          "name": "",
          "type": "bool"
        }
      ],
      "stateMutability": "view",
      "type": "function"
    },
    {
      "inputs": [],
      "name": "name",
      "outputs": [
        {
          "internalType": "string",
          "name": "",
          "type": "string"
        }
      ],
      "stateMutability": "view",
      "type": "function"
    },
    {
      "inputs": [
        {
          "internalType": "uint256",
          "name": "tokenId",
          "type": "uint256"
        }
      ],
      "name": "ownerOf",
      "outputs": [
        {
          "internalType": "address",
          "name": "",
          "type": "address"
        }
      ],
      "stateMutability": "view",
      "type": "function"
    },
    {
      "inputs": [
        {
          "internalType": "address",
          "name": "operator",
          "type": "address"
        },
        {
          "internalType": "bool",
          "name": "approved",
          "type": "bool"
        }
      ],
      "name": "setApprovalForAll",
      "outputs": [],
      "stateMutability": "nonpayable",
      "type": "function"
    },
    {
      "inputs": [
        {
          "internalType": "bytes4",
          "name": "interfaceId",
          "type": "bytes4"
        }
      ],
      "name": "supportsInterface",
      "outputs": [
        {
          "internalType": "bool",
          "name": "",
          "type": "bool"
        }
      ],
      "stateMutability": "view",
      "type": "function"
    },
    {
      "inputs": [],
      "name": "symbol",
      "outputs": [
        {
          "internalType": "string",
          "name": "",
          "type": "string"
        }
      ],
      "stateMutability": "view",
      "type": "function"
    },
    {
      "inputs": [
        {
          "internalType": "uint256",
          "name": "tokenId",
          "type": "uint256"
        }
      ],
      "name": "tokenURI",
      "outputs": [
        {
          "internalType": "string",
          "name": "",
          "type": "string"
        }
      ],
      "stateMutability": "view",
      "type": "function"
    },
    {
      "inputs": [
        {
          "internalType": "string",
          "name": "_courseLink",
          "type": "string"
        },
        {
          "internalType": "address",
          "name": "_instructorAddress",
          "type": "address"
        }
      ],
      "name": "mint",
      "outputs": [],
      "stateMutability": "nonpayable",
      "type": "function"
    },
    {
      "inputs": [
        {
          "internalType": "uint256",
          "name": "_id",
          "type": "uint256"
        }
      ],
      "name": "applyCourse",
      "outputs": [],
      "stateMutability": "nonpayable",
      "type": "function"
    },
    {
      "inputs": [
        {
          "internalType": "uint256",
          "name": "_id",
          "type": "uint256"
        },
        {
          "internalType": "address",
          "name": "studentAddress",
          "type": "address"
        }
      ],
      "name": "approveApplication",
      "outputs": [],
      "stateMutability": "nonpayable",
      "type": "function"
    },
    {
      "inputs": [],
      "name": "getCourseLinks",
      "outputs": [
        {
          "internalType": "string[]",
          "name": "courseLinks",
          "type": "string[]"
        }
      ],
      "stateMutability": "view",
      "type": "function"
    },
    {
      "inputs": [
        {
          "internalType": "address",
          "name": "instructorAddress",
          "type": "address"
        }
      ],
      "name": "getGivesCourses",
      "outputs": [
        {
          "internalType": "uint256[]",
          "name": "givesCourses",
          "type": "uint256[]"
        }
      ],
      "stateMutability": "view",
      "type": "function"
    },
    {
      "inputs": [
        {
          "internalType": "address",
          "name": "studentAddress",
          "type": "address"
        }
      ],
      "name": "getTakesCourses",
      "outputs": [
        {
          "internalType": "uint256[]",
          "name": "",
          "type": "uint256[]"
        }
      ],
      "stateMutability": "view",
      "type": "function"
    },
    {
      "inputs": [
        {
          "internalType": "uint256",
          "name": "_id",
          "type": "uint256"
        }
      ],
      "name": "getRequestOfStudents",
      "outputs": [
        {
          "internalType": "address[]",
          "name": "",
          "type": "address[]"
        }
      ],
      "stateMutability": "view",
      "type": "function"
    },
    {
      "inputs": [
        {
          "internalType": "uint256",
          "name": "_id",
          "type": "uint256"
        }
      ],
      "name": "getApprovedStudents",
      "outputs": [
        {
          "internalType": "address[]",
          "name": "",
          "type": "address[]"
        }
      ],
      "stateMutability": "view",
      "type": "function"
    },
    {
      "inputs": [
        {
          "internalType": "uint256",
          "name": "_id",
          "type": "uint256"
        }
      ],
      "name": "getFrozen",
      "outputs": [
        {
          "internalType": "bool",
          "name": "",
          "type": "bool"
        }
      ],
      "stateMutability": "view",
      "type": "function"
    },
    {
      "inputs": [
        {
          "internalType": "address",
          "name": "from",
          "type": "address"
        },
        {
          "internalType": "address",
          "name": "to",
          "type": "address"
        },
        {
          "internalType": "uint256",
          "name": "tokenId",
          "type": "uint256"
        }
      ],
      "name": "transferFrom",
      "outputs": [],
      "stateMutability": "nonpayable",
      "type": "function"
    },
    {
      "inputs": [
        {
          "internalType": "address",
          "name": "from",
          "type": "address"
        },
        {
          "internalType": "address",
          "name": "to",
          "type": "address"
        },
        {
          "internalType": "uint256",
          "name": "tokenId",
          "type": "uint256"
        }
      ],
      "name": "safeTransferFrom",
      "outputs": [],
      "stateMutability": "nonpayable",
      "type": "function"
    },
    {
      "inputs": [
        {
          "internalType": "address",
          "name": "from",
          "type": "address"
        },
        {
          "internalType": "address",
          "name": "to",
          "type": "address"
        },
        {
          "internalType": "uint256",
          "name": "tokenId",
          "type": "uint256"
        },
        {
          "internalType": "bytes",
          "name": "_data",
          "type": "bytes"
        }
      ],
      "name": "safeTransferFrom",
      "outputs": [],
      "stateMutability": "nonpayable",
      "type": "function"
    }
  ],
  "bytecode": "0x60806040523480156200001157600080fd5b506040516200498a3803806200498a83398181016040528101906200003791906200027b565b6040518060400160405280600681526020017f436f7572736500000000000000000000000000000000000000000000000000008152506040518060400160405280600381526020017f43525300000000000000000000000000000000000000000000000000000000008152508160009080519060200190620000bb92919062000161565b508060019080519060200190620000d492919062000161565b50505081600660006101000a81548173ffffffffffffffffffffffffffffffffffffffff021916908373ffffffffffffffffffffffffffffffffffffffff16021790555080600760006101000a81548173ffffffffffffffffffffffffffffffffffffffff021916908373ffffffffffffffffffffffffffffffffffffffff160217905550505062000327565b8280546200016f90620002f1565b90600052602060002090601f016020900481019282620001935760008555620001df565b82601f10620001ae57805160ff1916838001178555620001df565b82800160010185558215620001df579182015b82811115620001de578251825591602001919060010190620001c1565b5b509050620001ee9190620001f2565b5090565b5b808211156200020d576000816000905550600101620001f3565b5090565b600080fd5b600073ffffffffffffffffffffffffffffffffffffffff82169050919050565b6000620002438262000216565b9050919050565b620002558162000236565b81146200026157600080fd5b50565b60008151905062000275816200024a565b92915050565b6000806040838503121562000295576200029462000211565b5b6000620002a58582860162000264565b9250506020620002b88582860162000264565b9150509250929050565b7f4e487b7100000000000000000000000000000000000000000000000000000000600052602260045260246000fd5b600060028204905060018216806200030a57607f821691505b60208210811415620003215762000320620002c2565b5b50919050565b61465380620003376000396000f3fe608060405234801561001057600080fd5b50600436106101425760003560e01c80636352211e116100b8578063b88d4fde1161007c578063b88d4fde14610399578063c87b56dd146103b5578063e50cd299146103e5578063e721e46514610415578063e985e9c514610431578063fc3fef4d1461046157610142565b80636352211e146102e157806370a082311461031157806395d89b4114610341578063a22cb4651461035f578063a6faa9621461037b57610142565b806313efe8581161010a57806313efe858146102115780631c351a9d1461022d57806323b872dd146102495780632971b8811461026557806342842e0e146102955780635ce8d795146102b157610142565b806301ffc9a71461014757806306fdde0314610177578063081812fc14610195578063095ea7b3146101c55780630baf40e3146101e1575b600080fd5b610161600480360381019061015c9190612abd565b610491565b60405161016e9190612b05565b60405180910390f35b61017f610573565b60405161018c9190612bb9565b60405180910390f35b6101af60048036038101906101aa9190612c11565b610605565b6040516101bc9190612c7f565b60405180910390f35b6101df60048036038101906101da9190612cc6565b61068a565b005b6101fb60048036038101906101f69190612d06565b6107a2565b6040516102089190612df1565b60405180910390f35b61022b60048036038101906102269190612e13565b610839565b005b61024760048036038101906102429190612f88565b610c56565b005b610263600480360381019061025e9190612fe4565b611023565b005b61027f600480360381019061027a9190612c11565b6110a2565b60405161028c91906130f5565b60405180910390f35b6102af60048036038101906102aa9190612fe4565b611143565b005b6102cb60048036038101906102c69190612c11565b6111c2565b6040516102d891906130f5565b60405180910390f35b6102fb60048036038101906102f69190612c11565b611263565b6040516103089190612c7f565b60405180910390f35b61032b60048036038101906103269190612d06565b611315565b6040516103389190613126565b60405180910390f35b6103496113cd565b6040516103569190612bb9565b60405180910390f35b6103796004803603810190610374919061316d565b61145f565b005b610383611475565b60405161039091906132b9565b60405180910390f35b6103b360048036038101906103ae919061337c565b61154e565b005b6103cf60048036038101906103ca9190612c11565b6115cf565b6040516103dc9190612bb9565b60405180910390f35b6103ff60048036038101906103fa9190612d06565b611676565b60405161040c9190612df1565b60405180910390f35b61042f600480360381019061042a9190612c11565b61170d565b005b61044b600480360381019061044691906133ff565b6119cc565b6040516104589190612b05565b60405180910390f35b61047b60048036038101906104769190612c11565b611a60565b6040516104889190612b05565b60405180910390f35b60007f80ac58cd000000000000000000000000000000000000000000000000000000007bffffffffffffffffffffffffffffffffffffffffffffffffffffffff1916827bffffffffffffffffffffffffffffffffffffffffffffffffffffffff1916148061055c57507f5b5e139f000000000000000000000000000000000000000000000000000000007bffffffffffffffffffffffffffffffffffffffffffffffffffffffff1916827bffffffffffffffffffffffffffffffffffffffffffffffffffffffff1916145b8061056c575061056b82611a8a565b5b9050919050565b6060600080546105829061346e565b80601f01602080910402602001604051908101604052809291908181526020018280546105ae9061346e565b80156105fb5780601f106105d0576101008083540402835291602001916105fb565b820191906000526020600020905b8154815290600101906020018083116105de57829003601f168201915b5050505050905090565b600061061082611af4565b61064f576040517f08c379a000000000000000000000000000000000000000000000000000000000815260040161064690613512565b60405180910390fd5b6004600083815260200190815260200160002060009054906101000a900473ffffffffffffffffffffffffffffffffffffffff169050919050565b600061069582611263565b90508073ffffffffffffffffffffffffffffffffffffffff168373ffffffffffffffffffffffffffffffffffffffff161415610706576040517f08c379a00000000000000000000000000000000000000000000000000000000081526004016106fd906135a4565b60405180910390fd5b8073ffffffffffffffffffffffffffffffffffffffff16610725611b60565b73ffffffffffffffffffffffffffffffffffffffff16148061075457506107538161074e611b60565b6119cc565b5b610793576040517f08c379a000000000000000000000000000000000000000000000000000000000815260040161078a90613636565b60405180910390fd5b61079d8383611b68565b505050565b6060600860008373ffffffffffffffffffffffffffffffffffffffff1673ffffffffffffffffffffffffffffffffffffffff16815260200190815260200160002080548060200260200160405190810160405280929190818152602001828054801561082d57602002820191906000526020600020905b815481526020019060010190808311610819575b50505050509050919050565b600660009054906101000a900473ffffffffffffffffffffffffffffffffffffffff1673ffffffffffffffffffffffffffffffffffffffff16639822a599336040518263ffffffff1660e01b81526004016108949190612c7f565b602060405180830381865afa1580156108b1573d6000803e3d6000fd5b505050506040513d601f19601f820116820180604052508101906108d5919061366b565b610914576040517f08c379a000000000000000000000000000000000000000000000000000000000815260040161090b9061370a565b60405180910390fd5b600660009054906101000a900473ffffffffffffffffffffffffffffffffffffffff1673ffffffffffffffffffffffffffffffffffffffff1663fc3ba6b4826040518263ffffffff1660e01b815260040161096f9190612c7f565b602060405180830381865afa15801561098c573d6000803e3d6000fd5b505050506040513d601f19601f820116820180604052508101906109b0919061366b565b6109ef576040517f08c379a00000000000000000000000000000000000000000000000000000000081526004016109e690613776565b60405180910390fd5b600e805490508211158015610a045750600082115b610a43576040517f08c379a0000000000000000000000000000000000000000000000000000000008152600401610a3a906137e2565b60405180910390fd5b600c600083815260200190815260200160002060009054906101000a900460ff1615610aa4576040517f08c379a0000000000000000000000000000000000000000000000000000000008152600401610a9b90613874565b60405180910390fd5b610ac0600b600084815260200190815260200160002082611c21565b15610b00576040517f08c379a0000000000000000000000000000000000000000000000000000000008152600401610af790613906565b60405180910390fd5b610b1c600a600084815260200190815260200160002082611c21565b610b5b576040517f08c379a0000000000000000000000000000000000000000000000000000000008152600401610b5290613998565b60405180910390fd5b610b7781600a6000858152602001908152602001600020611ccf565b50600960008273ffffffffffffffffffffffffffffffffffffffff1673ffffffffffffffffffffffffffffffffffffffff168152602001908152602001600020829080600181540180825580915050600190039060005260206000200160009091909190915055600b6000838152602001908152602001600020819080600181540180825580915050600190039060005260206000200160009091909190916101000a81548173ffffffffffffffffffffffffffffffffffffffff021916908373ffffffffffffffffffffffffffffffffffffffff1602179055505050565b600660009054906101000a900473ffffffffffffffffffffffffffffffffffffffff1673ffffffffffffffffffffffffffffffffffffffff16632be7dc44336040518263ffffffff1660e01b8152600401610cb19190612c7f565b602060405180830381865afa158015610cce573d6000803e3d6000fd5b505050506040513d601f19601f82011682018060405250810190610cf2919061366b565b610d31576040517f08c379a0000000000000000000000000000000000000000000000000000000008152600401610d2890613a2a565b60405180910390fd5b600660009054906101000a900473ffffffffffffffffffffffffffffffffffffffff1673ffffffffffffffffffffffffffffffffffffffff16639822a599826040518263ffffffff1660e01b8152600401610d8c9190612c7f565b602060405180830381865afa158015610da9573d6000803e3d6000fd5b505050506040513d601f19601f82011682018060405250810190610dcd919061366b565b610e0c576040517f08c379a0000000000000000000000000000000000000000000000000000000008152600401610e0390613abc565b60405180910390fd5b600d82604051610e1c9190613b18565b908152602001604051809103902060009054906101000a900460ff1615610e78576040517f08c379a0000000000000000000000000000000000000000000000000000000008152600401610e6f90613b7b565b60405180910390fd5b600e82908060018154018082558091505060019003906000526020600020016000909190919091509080519060200190610eb39291906129ae565b506000600e805490509050610ec88282611ee3565b6001600d84604051610eda9190613b18565b908152602001604051809103902060006101000a81548160ff021916908315150217905550600860008373ffffffffffffffffffffffffffffffffffffffff1673ffffffffffffffffffffffffffffffffffffffff1681526020019081526020016000208190806001815401808255809150506001900390600052602060002001600090919091909150556000600c600083815260200190815260200160002060006101000a81548160ff021916908315150217905550600760009054906101000a900473ffffffffffffffffffffffffffffffffffffffff1673ffffffffffffffffffffffffffffffffffffffff1663ef51ea6c846040518263ffffffff1660e01b8152600401610fec9190612bb9565b600060405180830381600087803b15801561100657600080fd5b505af115801561101a573d6000803e3d6000fd5b50505050505050565b600073ffffffffffffffffffffffffffffffffffffffff163373ffffffffffffffffffffffffffffffffffffffff1614611092576040517f08c379a000000000000000000000000000000000000000000000000000000000815260040161108990613c0d565b60405180910390fd5b61109d8383836120b1565b505050565b6060600a600083815260200190815260200160002080548060200260200160405190810160405280929190818152602001828054801561113757602002820191906000526020600020905b8160009054906101000a900473ffffffffffffffffffffffffffffffffffffffff1673ffffffffffffffffffffffffffffffffffffffff16815260200190600101908083116110ed575b50505050509050919050565b600073ffffffffffffffffffffffffffffffffffffffff163373ffffffffffffffffffffffffffffffffffffffff16146111b2576040517f08c379a00000000000000000000000000000000000000000000000000000000081526004016111a990613c0d565b60405180910390fd5b6111bd838383612111565b505050565b6060600b600083815260200190815260200160002080548060200260200160405190810160405280929190818152602001828054801561125757602002820191906000526020600020905b8160009054906101000a900473ffffffffffffffffffffffffffffffffffffffff1673ffffffffffffffffffffffffffffffffffffffff168152602001906001019080831161120d575b50505050509050919050565b6000806002600084815260200190815260200160002060009054906101000a900473ffffffffffffffffffffffffffffffffffffffff169050600073ffffffffffffffffffffffffffffffffffffffff168173ffffffffffffffffffffffffffffffffffffffff16141561130c576040517f08c379a000000000000000000000000000000000000000000000000000000000815260040161130390613c9f565b60405180910390fd5b80915050919050565b60008073ffffffffffffffffffffffffffffffffffffffff168273ffffffffffffffffffffffffffffffffffffffff161415611386576040517f08c379a000000000000000000000000000000000000000000000000000000000815260040161137d90613d31565b60405180910390fd5b600360008373ffffffffffffffffffffffffffffffffffffffff1673ffffffffffffffffffffffffffffffffffffffff168152602001908152602001600020549050919050565b6060600180546113dc9061346e565b80601f01602080910402602001604051908101604052809291908181526020018280546114089061346e565b80156114555780601f1061142a57610100808354040283529160200191611455565b820191906000526020600020905b81548152906001019060200180831161143857829003601f168201915b5050505050905090565b61147161146a611b60565b8383612131565b5050565b6060600e805480602002602001604051908101604052809291908181526020016000905b828210156115455783829060005260206000200180546114b89061346e565b80601f01602080910402602001604051908101604052809291908181526020018280546114e49061346e565b80156115315780601f1061150657610100808354040283529160200191611531565b820191906000526020600020905b81548152906001019060200180831161151457829003601f168201915b505050505081526020019060010190611499565b50505050905090565b600073ffffffffffffffffffffffffffffffffffffffff163373ffffffffffffffffffffffffffffffffffffffff16146115bd576040517f08c379a00000000000000000000000000000000000000000000000000000000081526004016115b490613c0d565b60405180910390fd5b6115c98484848461229e565b50505050565b60606115da82611af4565b611619576040517f08c379a000000000000000000000000000000000000000000000000000000000815260040161161090613dc3565b60405180910390fd5b6000611623612300565b90506000815111611643576040518060200160405280600081525061166e565b8061164d84612317565b60405160200161165e929190613de3565b6040516020818303038152906040525b915050919050565b6060600960008373ffffffffffffffffffffffffffffffffffffffff1673ffffffffffffffffffffffffffffffffffffffff16815260200190815260200160002080548060200260200160405190810160405280929190818152602001828054801561170157602002820191906000526020600020905b8154815260200190600101908083116116ed575b50505050509050919050565b600660009054906101000a900473ffffffffffffffffffffffffffffffffffffffff1673ffffffffffffffffffffffffffffffffffffffff1663fc3ba6b4336040518263ffffffff1660e01b81526004016117689190612c7f565b602060405180830381865afa158015611785573d6000803e3d6000fd5b505050506040513d601f19601f820116820180604052508101906117a9919061366b565b6117e8576040517f08c379a00000000000000000000000000000000000000000000000000000000081526004016117df90613e79565b60405180910390fd5b600e8054905081111580156117fd5750600081115b61183c576040517f08c379a0000000000000000000000000000000000000000000000000000000008152600401611833906137e2565b60405180910390fd5b600c600082815260200190815260200160002060009054906101000a900460ff161561189d576040517f08c379a000000000000000000000000000000000000000000000000000000000815260040161189490613874565b60405180910390fd5b6118b9600b600083815260200190815260200160002033611c21565b156118f9576040517f08c379a00000000000000000000000000000000000000000000000000000000081526004016118f090613906565b60405180910390fd5b611915600a600083815260200190815260200160002033611c21565b15611955576040517f08c379a000000000000000000000000000000000000000000000000000000000815260040161194c90613f0b565b60405180910390fd5b600a6000828152602001908152602001600020339080600181540180825580915050600190039060005260206000200160009091909190916101000a81548173ffffffffffffffffffffffffffffffffffffffff021916908373ffffffffffffffffffffffffffffffffffffffff16021790555050565b6000600560008473ffffffffffffffffffffffffffffffffffffffff1673ffffffffffffffffffffffffffffffffffffffff16815260200190815260200160002060008373ffffffffffffffffffffffffffffffffffffffff1673ffffffffffffffffffffffffffffffffffffffff16815260200190815260200160002060009054906101000a900460ff16905092915050565b6000600c600083815260200190815260200160002060009054906101000a900460ff169050919050565b60007f01ffc9a7000000000000000000000000000000000000000000000000000000007bffffffffffffffffffffffffffffffffffffffffffffffffffffffff1916827bffffffffffffffffffffffffffffffffffffffffffffffffffffffff1916149050919050565b60008073ffffffffffffffffffffffffffffffffffffffff166002600084815260200190815260200160002060009054906101000a900473ffffffffffffffffffffffffffffffffffffffff1673ffffffffffffffffffffffffffffffffffffffff1614159050919050565b600033905090565b816004600083815260200190815260200160002060006101000a81548173ffffffffffffffffffffffffffffffffffffffff021916908373ffffffffffffffffffffffffffffffffffffffff160217905550808273ffffffffffffffffffffffffffffffffffffffff16611bdb83611263565b73ffffffffffffffffffffffffffffffffffffffff167f8c5be1e5ebec7d5bd14f71427d1e84f3dd0314c0f7b2291e5b200ac8c7c3b92560405160405180910390a45050565b600080600090505b8380549050811015611cc3578273ffffffffffffffffffffffffffffffffffffffff16848281548110611c5f57611c5e613f2b565b5b9060005260206000200160009054906101000a900473ffffffffffffffffffffffffffffffffffffffff1673ffffffffffffffffffffffffffffffffffffffff161415611cb0576001915050611cc9565b8080611cbb90613f89565b915050611c29565b50600090505b92915050565b606060005b8280549050811015611e54578373ffffffffffffffffffffffffffffffffffffffff16838281548110611d0a57611d09613f2b565b5b9060005260206000200160009054906101000a900473ffffffffffffffffffffffffffffffffffffffff1673ffffffffffffffffffffffffffffffffffffffff161415611e41578260018480549050611d639190613fd2565b81548110611d7457611d73613f2b565b5b9060005260206000200160009054906101000a900473ffffffffffffffffffffffffffffffffffffffff16838281548110611db257611db1613f2b565b5b9060005260206000200160006101000a81548173ffffffffffffffffffffffffffffffffffffffff021916908373ffffffffffffffffffffffffffffffffffffffff16021790555082805480611e0b57611e0a614006565b5b6001900381819060005260206000200160006101000a81549073ffffffffffffffffffffffffffffffffffffffff021916905590555b8080611e4c90613f89565b915050611cd4565b5081805480602002602001604051908101604052809291908181526020018280548015611ed657602002820191906000526020600020905b8160009054906101000a900473ffffffffffffffffffffffffffffffffffffffff1673ffffffffffffffffffffffffffffffffffffffff1681526020019060010190808311611e8c575b5050505050905092915050565b600073ffffffffffffffffffffffffffffffffffffffff168273ffffffffffffffffffffffffffffffffffffffff161415611f53576040517f08c379a0000000000000000000000000000000000000000000000000000000008152600401611f4a90614081565b60405180910390fd5b611f5c81611af4565b15611f9c576040517f08c379a0000000000000000000000000000000000000000000000000000000008152600401611f93906140ed565b60405180910390fd5b611fa860008383612478565b6001600360008473ffffffffffffffffffffffffffffffffffffffff1673ffffffffffffffffffffffffffffffffffffffff1681526020019081526020016000206000828254611ff8919061410d565b92505081905550816002600083815260200190815260200160002060006101000a81548173ffffffffffffffffffffffffffffffffffffffff021916908373ffffffffffffffffffffffffffffffffffffffff160217905550808273ffffffffffffffffffffffffffffffffffffffff16600073ffffffffffffffffffffffffffffffffffffffff167fddf252ad1be2c89b69c2b068fc378daa952ba7f163c4a11628f55a4df523b3ef60405160405180910390a45050565b6120c26120bc611b60565b8261247d565b612101576040517f08c379a00000000000000000000000000000000000000000000000000000000081526004016120f8906141d5565b60405180910390fd5b61210c83838361255b565b505050565b61212c8383836040518060200160405280600081525061154e565b505050565b8173ffffffffffffffffffffffffffffffffffffffff168373ffffffffffffffffffffffffffffffffffffffff1614156121a0576040517f08c379a000000000000000000000000000000000000000000000000000000000815260040161219790614241565b60405180910390fd5b80600560008573ffffffffffffffffffffffffffffffffffffffff1673ffffffffffffffffffffffffffffffffffffffff16815260200190815260200160002060008473ffffffffffffffffffffffffffffffffffffffff1673ffffffffffffffffffffffffffffffffffffffff16815260200190815260200160002060006101000a81548160ff0219169083151502179055508173ffffffffffffffffffffffffffffffffffffffff168373ffffffffffffffffffffffffffffffffffffffff167f17307eab39ab6107e8899845ad3d59bd9653f200f220920489ca2b5937696c31836040516122919190612b05565b60405180910390a3505050565b6122af6122a9611b60565b8361247d565b6122ee576040517f08c379a00000000000000000000000000000000000000000000000000000000081526004016122e5906141d5565b60405180910390fd5b6122fa848484846127b7565b50505050565b606060405180602001604052806000815250905090565b6060600082141561235f576040518060400160405280600181526020017f30000000000000000000000000000000000000000000000000000000000000008152509050612473565b600082905060005b6000821461239157808061237a90613f89565b915050600a8261238a9190614290565b9150612367565b60008167ffffffffffffffff8111156123ad576123ac612e5d565b5b6040519080825280601f01601f1916602001820160405280156123df5781602001600182028036833780820191505090505b5090505b6000851461246c576001826123f89190613fd2565b9150600a8561240791906142c1565b6030612413919061410d565b60f81b81838151811061242957612428613f2b565b5b60200101907effffffffffffffffffffffffffffffffffffffffffffffffffffffffffffff1916908160001a905350600a856124659190614290565b94506123e3565b8093505050505b919050565b505050565b600061248882611af4565b6124c7576040517f08c379a00000000000000000000000000000000000000000000000000000000081526004016124be90614364565b60405180910390fd5b60006124d283611263565b90508073ffffffffffffffffffffffffffffffffffffffff168473ffffffffffffffffffffffffffffffffffffffff16148061254157508373ffffffffffffffffffffffffffffffffffffffff1661252984610605565b73ffffffffffffffffffffffffffffffffffffffff16145b80612552575061255181856119cc565b5b91505092915050565b8273ffffffffffffffffffffffffffffffffffffffff1661257b82611263565b73ffffffffffffffffffffffffffffffffffffffff16146125d1576040517f08c379a00000000000000000000000000000000000000000000000000000000081526004016125c8906143f6565b60405180910390fd5b600073ffffffffffffffffffffffffffffffffffffffff168273ffffffffffffffffffffffffffffffffffffffff161415612641576040517f08c379a000000000000000000000000000000000000000000000000000000000815260040161263890614488565b60405180910390fd5b61264c838383612478565b612657600082611b68565b6001600360008573ffffffffffffffffffffffffffffffffffffffff1673ffffffffffffffffffffffffffffffffffffffff16815260200190815260200160002060008282546126a79190613fd2565b925050819055506001600360008473ffffffffffffffffffffffffffffffffffffffff1673ffffffffffffffffffffffffffffffffffffffff16815260200190815260200160002060008282546126fe919061410d565b92505081905550816002600083815260200190815260200160002060006101000a81548173ffffffffffffffffffffffffffffffffffffffff021916908373ffffffffffffffffffffffffffffffffffffffff160217905550808273ffffffffffffffffffffffffffffffffffffffff168473ffffffffffffffffffffffffffffffffffffffff167fddf252ad1be2c89b69c2b068fc378daa952ba7f163c4a11628f55a4df523b3ef60405160405180910390a4505050565b6127c284848461255b565b6127ce84848484612813565b61280d576040517f08c379a00000000000000000000000000000000000000000000000000000000081526004016128049061451a565b60405180910390fd5b50505050565b60006128348473ffffffffffffffffffffffffffffffffffffffff1661299b565b1561298e578373ffffffffffffffffffffffffffffffffffffffff1663150b7a0261285d611b60565b8786866040518563ffffffff1660e01b815260040161287f949392919061458f565b6020604051808303816000875af19250505080156128bb57506040513d601f19601f820116820180604052508101906128b891906145f0565b60015b61293e573d80600081146128eb576040519150601f19603f3d011682016040523d82523d6000602084013e6128f0565b606091505b50600081511415612936576040517f08c379a000000000000000000000000000000000000000000000000000000000815260040161292d9061451a565b60405180910390fd5b805181602001fd5b63150b7a0260e01b7bffffffffffffffffffffffffffffffffffffffffffffffffffffffff1916817bffffffffffffffffffffffffffffffffffffffffffffffffffffffff191614915050612993565b600190505b949350505050565b600080823b905060008111915050919050565b8280546129ba9061346e565b90600052602060002090601f0160209004810192826129dc5760008555612a23565b82601f106129f557805160ff1916838001178555612a23565b82800160010185558215612a23579182015b82811115612a22578251825591602001919060010190612a07565b5b509050612a309190612a34565b5090565b5b80821115612a4d576000816000905550600101612a35565b5090565b6000604051905090565b600080fd5b600080fd5b60007fffffffff0000000000000000000000000000000000000000000000000000000082169050919050565b612a9a81612a65565b8114612aa557600080fd5b50565b600081359050612ab781612a91565b92915050565b600060208284031215612ad357612ad2612a5b565b5b6000612ae184828501612aa8565b91505092915050565b60008115159050919050565b612aff81612aea565b82525050565b6000602082019050612b1a6000830184612af6565b92915050565b600081519050919050565b600082825260208201905092915050565b60005b83811015612b5a578082015181840152602081019050612b3f565b83811115612b69576000848401525b50505050565b6000601f19601f8301169050919050565b6000612b8b82612b20565b612b958185612b2b565b9350612ba5818560208601612b3c565b612bae81612b6f565b840191505092915050565b60006020820190508181036000830152612bd38184612b80565b905092915050565b6000819050919050565b612bee81612bdb565b8114612bf957600080fd5b50565b600081359050612c0b81612be5565b92915050565b600060208284031215612c2757612c26612a5b565b5b6000612c3584828501612bfc565b91505092915050565b600073ffffffffffffffffffffffffffffffffffffffff82169050919050565b6000612c6982612c3e565b9050919050565b612c7981612c5e565b82525050565b6000602082019050612c946000830184612c70565b92915050565b612ca381612c5e565b8114612cae57600080fd5b50565b600081359050612cc081612c9a565b92915050565b60008060408385031215612cdd57612cdc612a5b565b5b6000612ceb85828601612cb1565b9250506020612cfc85828601612bfc565b9150509250929050565b600060208284031215612d1c57612d1b612a5b565b5b6000612d2a84828501612cb1565b91505092915050565b600081519050919050565b600082825260208201905092915050565b6000819050602082019050919050565b612d6881612bdb565b82525050565b6000612d7a8383612d5f565b60208301905092915050565b6000602082019050919050565b6000612d9e82612d33565b612da88185612d3e565b9350612db383612d4f565b8060005b83811015612de4578151612dcb8882612d6e565b9750612dd683612d86565b925050600181019050612db7565b5085935050505092915050565b60006020820190508181036000830152612e0b8184612d93565b905092915050565b60008060408385031215612e2a57612e29612a5b565b5b6000612e3885828601612bfc565b9250506020612e4985828601612cb1565b9150509250929050565b600080fd5b600080fd5b7f4e487b7100000000000000000000000000000000000000000000000000000000600052604160045260246000fd5b612e9582612b6f565b810181811067ffffffffffffffff82111715612eb457612eb3612e5d565b5b80604052505050565b6000612ec7612a51565b9050612ed38282612e8c565b919050565b600067ffffffffffffffff821115612ef357612ef2612e5d565b5b612efc82612b6f565b9050602081019050919050565b82818337600083830152505050565b6000612f2b612f2684612ed8565b612ebd565b905082815260208101848484011115612f4757612f46612e58565b5b612f52848285612f09565b509392505050565b600082601f830112612f6f57612f6e612e53565b5b8135612f7f848260208601612f18565b91505092915050565b60008060408385031215612f9f57612f9e612a5b565b5b600083013567ffffffffffffffff811115612fbd57612fbc612a60565b5b612fc985828601612f5a565b9250506020612fda85828601612cb1565b9150509250929050565b600080600060608486031215612ffd57612ffc612a5b565b5b600061300b86828701612cb1565b935050602061301c86828701612cb1565b925050604061302d86828701612bfc565b9150509250925092565b600081519050919050565b600082825260208201905092915050565b6000819050602082019050919050565b61306c81612c5e565b82525050565b600061307e8383613063565b60208301905092915050565b6000602082019050919050565b60006130a282613037565b6130ac8185613042565b93506130b783613053565b8060005b838110156130e85781516130cf8882613072565b97506130da8361308a565b9250506001810190506130bb565b5085935050505092915050565b6000602082019050818103600083015261310f8184613097565b905092915050565b61312081612bdb565b82525050565b600060208201905061313b6000830184613117565b92915050565b61314a81612aea565b811461315557600080fd5b50565b60008135905061316781613141565b92915050565b6000806040838503121561318457613183612a5b565b5b600061319285828601612cb1565b92505060206131a385828601613158565b9150509250929050565b600081519050919050565b600082825260208201905092915050565b6000819050602082019050919050565b600082825260208201905092915050565b60006131f582612b20565b6131ff81856131d9565b935061320f818560208601612b3c565b61321881612b6f565b840191505092915050565b600061322f83836131ea565b905092915050565b6000602082019050919050565b600061324f826131ad565b61325981856131b8565b93508360208202850161326b856131c9565b8060005b858110156132a757848403895281516132888582613223565b945061329383613237565b925060208a0199505060018101905061326f565b50829750879550505050505092915050565b600060208201905081810360008301526132d38184613244565b905092915050565b600067ffffffffffffffff8211156132f6576132f5612e5d565b5b6132ff82612b6f565b9050602081019050919050565b600061331f61331a846132db565b612ebd565b90508281526020810184848401111561333b5761333a612e58565b5b613346848285612f09565b509392505050565b600082601f83011261336357613362612e53565b5b813561337384826020860161330c565b91505092915050565b6000806000806080858703121561339657613395612a5b565b5b60006133a487828801612cb1565b94505060206133b587828801612cb1565b93505060406133c687828801612bfc565b925050606085013567ffffffffffffffff8111156133e7576133e6612a60565b5b6133f38782880161334e565b91505092959194509250565b6000806040838503121561341657613415612a5b565b5b600061342485828601612cb1565b925050602061343585828601612cb1565b9150509250929050565b7f4e487b7100000000000000000000000000000000000000000000000000000000600052602260045260246000fd5b6000600282049050600182168061348657607f821691505b6020821081141561349a5761349961343f565b5b50919050565b7f4552433732313a20617070726f76656420717565727920666f72206e6f6e657860008201527f697374656e7420746f6b656e0000000000000000000000000000000000000000602082015250565b60006134fc602c83612b2b565b9150613507826134a0565b604082019050919050565b6000602082019050818103600083015261352b816134ef565b9050919050565b7f4552433732313a20617070726f76616c20746f2063757272656e74206f776e6560008201527f7200000000000000000000000000000000000000000000000000000000000000602082015250565b600061358e602183612b2b565b915061359982613532565b604082019050919050565b600060208201905081810360008301526135bd81613581565b9050919050565b7f4552433732313a20617070726f76652063616c6c6572206973206e6f74206f7760008201527f6e6572206e6f7220617070726f76656420666f7220616c6c0000000000000000602082015250565b6000613620603883612b2b565b915061362b826135c4565b604082019050919050565b6000602082019050818103600083015261364f81613613565b9050919050565b60008151905061366581613141565b92915050565b60006020828403121561368157613680612a5b565b5b600061368f84828501613656565b91505092915050565b7f54686973206163636f756e7420646f6573206e6f74206861766520496e73747260008201527f7563746f72205065726d697373696f6e73000000000000000000000000000000602082015250565b60006136f4603183612b2b565b91506136ff82613698565b604082019050919050565b60006020820190508181036000830152613723816136e7565b9050919050565b7f546869732061646472657373206973206e6f7420612073747564656e74000000600082015250565b6000613760601d83612b2b565b915061376b8261372a565b602082019050919050565b6000602082019050818103600083015261378f81613753565b9050919050565b7f5468697320636f7572736520646f6573206e6f74206578697374000000000000600082015250565b60006137cc601a83612b2b565b91506137d782613796565b602082019050919050565b600060208201905081810360008301526137fb816137bf565b9050919050565b7f5468697320636f7572736520697320636c6f7365642062792074686520496e7360008201527f74727563746f7200000000000000000000000000000000000000000000000000602082015250565b600061385e602783612b2b565b915061386982613802565b604082019050919050565b6000602082019050818103600083015261388d81613851565b9050919050565b7f546869732073747564656e7420616c726561647920617070726f76656420666f60008201527f72207468697320636f7572736500000000000000000000000000000000000000602082015250565b60006138f0602d83612b2b565b91506138fb82613894565b604082019050919050565b6000602082019050818103600083015261391f816138e3565b9050919050565b7f546869732073747564656e7420686173206e6f74206170706c69656420666f7260008201527f207468697320636f757273650000000000000000000000000000000000000000602082015250565b6000613982602c83612b2b565b915061398d82613926565b604082019050919050565b600060208201905081810360008301526139b181613975565b9050919050565b7f54686973206163636f756e7420646f6573206e6f74206861766520746865205260008201527f6563746f72205065726d697373696f6e73000000000000000000000000000000602082015250565b6000613a14603183612b2b565b9150613a1f826139b8565b604082019050919050565b60006020820190508181036000830152613a4381613a07565b9050919050565b7f546869732061646472657373206973206e6f7420616e20696e7374727563746f60008201527f7200000000000000000000000000000000000000000000000000000000000000602082015250565b6000613aa6602183612b2b565b9150613ab182613a4a565b604082019050919050565b60006020820190508181036000830152613ad581613a99565b9050919050565b600081905092915050565b6000613af282612b20565b613afc8185613adc565b9350613b0c818560208601612b3c565b80840191505092915050565b6000613b248284613ae7565b915081905092915050565b7f54686973206c696e6b20697320616c7265616479206d696e7465640000000000600082015250565b6000613b65601b83612b2b565b9150613b7082613b2f565b602082019050919050565b60006020820190508181036000830152613b9481613b58565b9050919050565b7f5472616e73666572206166746572206d696e742069732070726f68696269746560008201527f6400000000000000000000000000000000000000000000000000000000000000602082015250565b6000613bf7602183612b2b565b9150613c0282613b9b565b604082019050919050565b60006020820190508181036000830152613c2681613bea565b9050919050565b7f4552433732313a206f776e657220717565727920666f72206e6f6e657869737460008201527f656e7420746f6b656e0000000000000000000000000000000000000000000000602082015250565b6000613c89602983612b2b565b9150613c9482613c2d565b604082019050919050565b60006020820190508181036000830152613cb881613c7c565b9050919050565b7f4552433732313a2062616c616e636520717565727920666f7220746865207a6560008201527f726f206164647265737300000000000000000000000000000000000000000000602082015250565b6000613d1b602a83612b2b565b9150613d2682613cbf565b604082019050919050565b60006020820190508181036000830152613d4a81613d0e565b9050919050565b7f4552433732314d657461646174613a2055524920717565727920666f72206e6f60008201527f6e6578697374656e7420746f6b656e0000000000000000000000000000000000602082015250565b6000613dad602f83612b2b565b9150613db882613d51565b604082019050919050565b60006020820190508181036000830152613ddc81613da0565b9050919050565b6000613def8285613ae7565b9150613dfb8284613ae7565b91508190509392505050565b7f54686973206163636f756e7420646f6573206e6f74206861766520746865205360008201527f747564656e74205065726d697373696f6e730000000000000000000000000000602082015250565b6000613e63603283612b2b565b9150613e6e82613e07565b604082019050919050565b60006020820190508181036000830152613e9281613e56565b9050919050565b7f546869732073747564656e7420616c7265616479206170706c69656420666f7260008201527f207468697320636f757273650000000000000000000000000000000000000000602082015250565b6000613ef5602c83612b2b565b9150613f0082613e99565b604082019050919050565b60006020820190508181036000830152613f2481613ee8565b9050919050565b7f4e487b7100000000000000000000000000000000000000000000000000000000600052603260045260246000fd5b7f4e487b7100000000000000000000000000000000000000000000000000000000600052601160045260246000fd5b6000613f9482612bdb565b91507fffffffffffffffffffffffffffffffffffffffffffffffffffffffffffffffff821415613fc757613fc6613f5a565b5b600182019050919050565b6000613fdd82612bdb565b9150613fe883612bdb565b925082821015613ffb57613ffa613f5a565b5b828203905092915050565b7f4e487b7100000000000000000000000000000000000000000000000000000000600052603160045260246000fd5b7f4552433732313a206d696e7420746f20746865207a65726f2061646472657373600082015250565b600061406b602083612b2b565b915061407682614035565b602082019050919050565b6000602082019050818103600083015261409a8161405e565b9050919050565b7f4552433732313a20746f6b656e20616c7265616479206d696e74656400000000600082015250565b60006140d7601c83612b2b565b91506140e2826140a1565b602082019050919050565b60006020820190508181036000830152614106816140ca565b9050919050565b600061411882612bdb565b915061412383612bdb565b9250827fffffffffffffffffffffffffffffffffffffffffffffffffffffffffffffffff0382111561415857614157613f5a565b5b828201905092915050565b7f4552433732313a207472616e736665722063616c6c6572206973206e6f74206f60008201527f776e6572206e6f7220617070726f766564000000000000000000000000000000602082015250565b60006141bf603183612b2b565b91506141ca82614163565b604082019050919050565b600060208201905081810360008301526141ee816141b2565b9050919050565b7f4552433732313a20617070726f766520746f2063616c6c657200000000000000600082015250565b600061422b601983612b2b565b9150614236826141f5565b602082019050919050565b6000602082019050818103600083015261425a8161421e565b9050919050565b7f4e487b7100000000000000000000000000000000000000000000000000000000600052601260045260246000fd5b600061429b82612bdb565b91506142a683612bdb565b9250826142b6576142b5614261565b5b828204905092915050565b60006142cc82612bdb565b91506142d783612bdb565b9250826142e7576142e6614261565b5b828206905092915050565b7f4552433732313a206f70657261746f7220717565727920666f72206e6f6e657860008201527f697374656e7420746f6b656e0000000000000000000000000000000000000000602082015250565b600061434e602c83612b2b565b9150614359826142f2565b604082019050919050565b6000602082019050818103600083015261437d81614341565b9050919050565b7f4552433732313a207472616e73666572206f6620746f6b656e2074686174206960008201527f73206e6f74206f776e0000000000000000000000000000000000000000000000602082015250565b60006143e0602983612b2b565b91506143eb82614384565b604082019050919050565b6000602082019050818103600083015261440f816143d3565b9050919050565b7f4552433732313a207472616e7366657220746f20746865207a65726f2061646460008201527f7265737300000000000000000000000000000000000000000000000000000000602082015250565b6000614472602483612b2b565b915061447d82614416565b604082019050919050565b600060208201905081810360008301526144a181614465565b9050919050565b7f4552433732313a207472616e7366657220746f206e6f6e20455243373231526560008201527f63656976657220696d706c656d656e7465720000000000000000000000000000602082015250565b6000614504603283612b2b565b915061450f826144a8565b604082019050919050565b60006020820190508181036000830152614533816144f7565b9050919050565b600081519050919050565b600082825260208201905092915050565b60006145618261453a565b61456b8185614545565b935061457b818560208601612b3c565b61458481612b6f565b840191505092915050565b60006080820190506145a46000830187612c70565b6145b16020830186612c70565b6145be6040830185613117565b81810360608301526145d08184614556565b905095945050505050565b6000815190506145ea81612a91565b92915050565b60006020828403121561460657614605612a5b565b5b6000614614848285016145db565b9150509291505056fea2646970667358221220f289c72ee9d53453696c040179b148b3d530c4714b02b281cad386fd6aa3adc464736f6c634300080a0033",
  "immutableReferences": {},
  "source": "pragma solidity ^0.8.10;\r\n\r\nimport \"@openzeppelin/contracts/token/ERC721/ERC721.sol\";\r\nimport \"./Roles.sol\";\r\nimport \"./Request.sol\";\r\n\r\ncontract Course is ERC721{\r\n\r\n    address rolesContractAddress;\r\n    address requestContractAddress;\r\n\r\n    //Mapping of the instructor to the tokenIDs\r\n    mapping(address => uint256[]) _givesCourses;//array starts from 0th index\r\n    //Mapping of the tokenID to the owner is defined in ERC721.sol\r\n\r\n    //TODO///////////////////////////////////////////\r\n    //Mapping of the student to the tokenIDs\r\n    mapping(address => uint256[]) _takesCourses;//array starts from 0th index\r\n    //Mapping of the tokenID to the request of students\r\n    mapping(uint256 => address[]) _requestOfStudents;//array starts from 0th index\r\n    //Mapping of the tokenID to the approved students\r\n    mapping(uint256 => address[]) _approvedStudents;//array starts from 0th index\r\n    //Mapping of the tokenID to frozen or not\r\n    mapping(uint256 => bool) _frozen;//TODO when you froze a course reset the correlated _requestOfStudents data\r\n    //TODO///////////////////////////////////////////\r\n\r\n    //is Course link exist\r\n    mapping(string => bool) _courseExist;\r\n    //List of Course Links\r\n    string[] _courseLinks;//starts from 0th index\r\n\r\n    constructor(address _rolesContractAddress, address _requestContractAddress) ERC721(\"Course\", \"CRS\"){\r\n        rolesContractAddress =_rolesContractAddress;\r\n        requestContractAddress = _requestContractAddress;\r\n    }\r\n    function mint(string memory _courseLink, address _instructorAddress) public{\r\n        require(Roles(rolesContractAddress).hasRectorRole(msg.sender), \"This account does not have the Rector Permissions\");\r\n        require(Roles(rolesContractAddress).hasInstructorRole(_instructorAddress), \"This address is not an instructor\");\r\n        require(!_courseExist[_courseLink], \"This link is already minted\");\r\n        //_courseLinks - add\r\n        _courseLinks.push(_courseLink);\r\n        uint _id = _courseLinks.length;\r\n        //tokenID's start from 1 because default uint256 value is 0\r\n        //Call mint of ERC721\r\n        _mint(_instructorAddress, _id);\r\n        //Trace it\r\n        _courseExist[_courseLink] = true;\r\n        _givesCourses[_instructorAddress].push(_id);\r\n        _frozen[_id] = false;\r\n\r\n        //Make request minted\r\n        Request(requestContractAddress).courseMinted(_courseLink);\r\n    }\r\n    function applyCourse(uint256 _id) public{\r\n        //Requirements\r\n        require(Roles(rolesContractAddress).hasStudentRole(msg.sender), \"This account does not have the Student Permissions\");\r\n        require(_id<=_courseLinks.length && _id>0, \"This course does not exist\");\r\n        require(!_frozen[_id],\"This course is closed by the Instructor\");\r\n        require(!isExist(_approvedStudents[_id], msg.sender), \"This student already approved for this course\");\r\n        require(!isExist(_requestOfStudents[_id], msg.sender), \"This student already applied for this course\");\r\n\r\n        //Push it\r\n        _requestOfStudents[_id].push(msg.sender);\r\n    }\r\n    function approveApplication(uint256 _id, address studentAddress) public{\r\n        //Requirements\r\n        require(Roles(rolesContractAddress).hasInstructorRole(msg.sender), \"This account does not have Instructor Permissions\");\r\n        require(Roles(rolesContractAddress).hasStudentRole(studentAddress), \"This address is not a student\");\r\n        require(_id<=_courseLinks.length && _id>0, \"This course does not exist\");\r\n        require(!_frozen[_id],\"This course is closed by the Instructor\");\r\n        require(!isExist(_approvedStudents[_id], studentAddress), \"This student already approved for this course\");\r\n        require(isExist(_requestOfStudents[_id], studentAddress), \"This student has not applied for this course\");\r\n\r\n        //Trace - it\r\n        removeElement(studentAddress, _requestOfStudents[_id]);\r\n        _takesCourses[studentAddress].push(_id);\r\n        _approvedStudents[_id].push(studentAddress);\r\n    }\r\n    function getCourseLinks() public view returns(string[] memory courseLinks){\r\n        return _courseLinks;\r\n    }\r\n    function getGivesCourses(address instructorAddress) public view returns (uint[] memory givesCourses){\r\n        return _givesCourses[instructorAddress];\r\n    }\r\n    function getTakesCourses(address studentAddress)public view returns(uint256[] memory){\r\n        return _takesCourses[studentAddress];\r\n    }\r\n    function getRequestOfStudents(uint _id)public view returns(address[] memory){\r\n        return _requestOfStudents[_id];\r\n    }\r\n    function getApprovedStudents(uint _id)public view returns(address[] memory){\r\n        return _approvedStudents[_id];\r\n    }\r\n    function getFrozen(uint256 _id) public view returns(bool){\r\n        return _frozen[_id];\r\n    }\r\n\r\n    function isExist(address[] storage list, address element) private view returns(bool){\r\n        for(uint256 i = 0; i<list.length; i++){\r\n            if(list[i] == element){\r\n                return true;\r\n            }\r\n        }\r\n        return false;\r\n    }\r\n    function removeElement(address element, address[] storage arr) private returns(address[] memory){\r\n        for(uint i = 0; i<arr.length; i++){\r\n            if(arr[i] == element){\r\n                arr[i] = arr[arr.length-1];\r\n                arr.pop();\r\n            }\r\n        }\r\n        return arr;\r\n    }\r\n    //TODO Contract Owner can make mistakes when minting. Token should be somewhat editable for contract owner\r\n    function transferFrom(//Only callable when minted\r\n        address from,\r\n        address to,\r\n        uint256 tokenId\r\n    ) public virtual override {\r\n        require(msg.sender == 0x0000000000000000000000000000000000000000, \"Transfer after mint is prohibited\");\r\n        super.transferFrom(from,to,tokenId);\r\n    }\r\n    function safeTransferFrom(//Only callable when minted\r\n        address from,\r\n        address to,\r\n        uint256 tokenId\r\n    ) public virtual override {\r\n        require(msg.sender == 0x0000000000000000000000000000000000000000, \"Transfer after mint is prohibited\");\r\n        super.safeTransferFrom(from,to,tokenId);\r\n    }\r\n    function safeTransferFrom(//Only callable when minted\r\n        address from,\r\n        address to,\r\n        uint256 tokenId,\r\n        bytes memory _data\r\n    ) public virtual override {\r\n        require(msg.sender == 0x0000000000000000000000000000000000000000, \"Transfer after mint is prohibited\");\r\n        super.safeTransferFrom(from, to, tokenId, _data);\r\n    }\r\n}\r\n",
  "sourcePath": "C:\\Users\\asus\\Desktop\\Dersler\\CMPE492\\certification-project\\contracts\\Course.sol",
  "compiler": {
    "name": "solc",
    "version": "0.8.10+commit.fc410830.Emscripten.clang"
  },
  "schemaVersion": "3.4.4",
  "updatedAt": "2022-01-20T23:08:11.311Z",
  "devdoc": {
    "kind": "dev",
    "methods": {
      "approve(address,uint256)": {
        "details": "See {IERC721-approve}."
      },
      "balanceOf(address)": {
        "details": "See {IERC721-balanceOf}."
      },
      "getApproved(uint256)": {
        "details": "See {IERC721-getApproved}."
      },
      "isApprovedForAll(address,address)": {
        "details": "See {IERC721-isApprovedForAll}."
      },
      "name()": {
        "details": "See {IERC721Metadata-name}."
      },
      "ownerOf(uint256)": {
        "details": "See {IERC721-ownerOf}."
      },
      "safeTransferFrom(address,address,uint256)": {
        "details": "See {IERC721-safeTransferFrom}."
      },
      "safeTransferFrom(address,address,uint256,bytes)": {
        "details": "See {IERC721-safeTransferFrom}."
      },
      "setApprovalForAll(address,bool)": {
        "details": "See {IERC721-setApprovalForAll}."
      },
      "supportsInterface(bytes4)": {
        "details": "See {IERC165-supportsInterface}."
      },
      "symbol()": {
        "details": "See {IERC721Metadata-symbol}."
      },
      "tokenURI(uint256)": {
        "details": "See {IERC721Metadata-tokenURI}."
      },
      "transferFrom(address,address,uint256)": {
        "details": "See {IERC721-transferFrom}."
      }
    },
    "version": 1
  },
  "userdoc": {
    "kind": "user",
    "methods": {},
    "version": 1
  }
}