{
  "contractName": "Course",
  "abi": [
    {
      "inputs": [],
      "stateMutability": "nonpayable",
      "type": "constructor"
    },
    {
      "anonymous": false,
      "inputs": [
        {
          "indexed": true,
          "internalType": "address",
          "name": "owner",
          "type": "address"
        },
        {
          "indexed": true,
          "internalType": "address",
          "name": "approved",
          "type": "address"
        },
        {
          "indexed": true,
          "internalType": "uint256",
          "name": "tokenId",
          "type": "uint256"
        }
      ],
      "name": "Approval",
      "type": "event"
    },
    {
      "anonymous": false,
      "inputs": [
        {
          "indexed": true,
          "internalType": "address",
          "name": "owner",
          "type": "address"
        },
        {
          "indexed": true,
          "internalType": "address",
          "name": "operator",
          "type": "address"
        },
        {
          "indexed": false,
          "internalType": "bool",
          "name": "approved",
          "type": "bool"
        }
      ],
      "name": "ApprovalForAll",
      "type": "event"
    },
    {
      "anonymous": false,
      "inputs": [
        {
          "indexed": true,
          "internalType": "bytes32",
          "name": "role",
          "type": "bytes32"
        },
        {
          "indexed": true,
          "internalType": "bytes32",
          "name": "previousAdminRole",
          "type": "bytes32"
        },
        {
          "indexed": true,
          "internalType": "bytes32",
          "name": "newAdminRole",
          "type": "bytes32"
        }
      ],
      "name": "RoleAdminChanged",
      "type": "event"
    },
    {
      "anonymous": false,
      "inputs": [
        {
          "indexed": true,
          "internalType": "bytes32",
          "name": "role",
          "type": "bytes32"
        },
        {
          "indexed": true,
          "internalType": "address",
          "name": "account",
          "type": "address"
        },
        {
          "indexed": true,
          "internalType": "address",
          "name": "sender",
          "type": "address"
        }
      ],
      "name": "RoleGranted",
      "type": "event"
    },
    {
      "anonymous": false,
      "inputs": [
        {
          "indexed": true,
          "internalType": "bytes32",
          "name": "role",
          "type": "bytes32"
        },
        {
          "indexed": true,
          "internalType": "address",
          "name": "account",
          "type": "address"
        },
        {
          "indexed": true,
          "internalType": "address",
          "name": "sender",
          "type": "address"
        }
      ],
      "name": "RoleRevoked",
      "type": "event"
    },
    {
      "anonymous": false,
      "inputs": [
        {
          "indexed": true,
          "internalType": "address",
          "name": "from",
          "type": "address"
        },
        {
          "indexed": true,
          "internalType": "address",
          "name": "to",
          "type": "address"
        },
        {
          "indexed": true,
          "internalType": "uint256",
          "name": "tokenId",
          "type": "uint256"
        }
      ],
      "name": "Transfer",
      "type": "event"
    },
    {
      "inputs": [],
      "name": "DEFAULT_ADMIN_ROLE",
      "outputs": [
        {
          "internalType": "bytes32",
          "name": "",
          "type": "bytes32"
        }
      ],
      "stateMutability": "view",
      "type": "function",
      "constant": true
    },
    {
      "inputs": [],
      "name": "DEPARTMENT_ROLE",
      "outputs": [
        {
          "internalType": "bytes32",
          "name": "",
          "type": "bytes32"
        }
      ],
      "stateMutability": "view",
      "type": "function",
      "constant": true
    },
    {
      "inputs": [],
      "name": "FACULTY_ROLE",
      "outputs": [
        {
          "internalType": "bytes32",
          "name": "",
          "type": "bytes32"
        }
      ],
      "stateMutability": "view",
      "type": "function",
      "constant": true
    },
    {
      "inputs": [],
      "name": "GRADUATED_ROLE",
      "outputs": [
        {
          "internalType": "bytes32",
          "name": "",
          "type": "bytes32"
        }
      ],
      "stateMutability": "view",
      "type": "function",
      "constant": true
    },
    {
      "inputs": [],
      "name": "INSTRUCTOR_ROLE",
      "outputs": [
        {
          "internalType": "bytes32",
          "name": "",
          "type": "bytes32"
        }
      ],
      "stateMutability": "view",
      "type": "function",
      "constant": true
    },
    {
      "inputs": [],
      "name": "RECTOR_ROLE",
      "outputs": [
        {
          "internalType": "bytes32",
          "name": "",
          "type": "bytes32"
        }
      ],
      "stateMutability": "view",
      "type": "function",
      "constant": true
    },
    {
      "inputs": [],
      "name": "STUDENT_ROLE",
      "outputs": [
        {
          "internalType": "bytes32",
          "name": "",
          "type": "bytes32"
        }
      ],
      "stateMutability": "view",
      "type": "function",
      "constant": true
    },
    {
      "inputs": [
        {
          "internalType": "address",
          "name": "to",
          "type": "address"
        },
        {
          "internalType": "uint256",
          "name": "tokenId",
          "type": "uint256"
        }
      ],
      "name": "approve",
      "outputs": [],
      "stateMutability": "nonpayable",
      "type": "function"
    },
    {
      "inputs": [
        {
          "internalType": "address",
          "name": "owner",
          "type": "address"
        }
      ],
      "name": "balanceOf",
      "outputs": [
        {
          "internalType": "uint256",
          "name": "",
          "type": "uint256"
        }
      ],
      "stateMutability": "view",
      "type": "function",
      "constant": true
    },
    {
      "inputs": [
        {
          "internalType": "uint256",
          "name": "tokenId",
          "type": "uint256"
        }
      ],
      "name": "getApproved",
      "outputs": [
        {
          "internalType": "address",
          "name": "",
          "type": "address"
        }
      ],
      "stateMutability": "view",
      "type": "function",
      "constant": true
    },
    {
      "inputs": [
        {
          "internalType": "bytes32",
          "name": "role",
          "type": "bytes32"
        }
      ],
      "name": "getRoleAdmin",
      "outputs": [
        {
          "internalType": "bytes32",
          "name": "",
          "type": "bytes32"
        }
      ],
      "stateMutability": "view",
      "type": "function",
      "constant": true
    },
    {
      "inputs": [
        {
          "internalType": "bytes32",
          "name": "role",
          "type": "bytes32"
        },
        {
          "internalType": "uint256",
          "name": "index",
          "type": "uint256"
        }
      ],
      "name": "getRoleMember",
      "outputs": [
        {
          "internalType": "address",
          "name": "",
          "type": "address"
        }
      ],
      "stateMutability": "view",
      "type": "function",
      "constant": true
    },
    {
      "inputs": [
        {
          "internalType": "bytes32",
          "name": "role",
          "type": "bytes32"
        }
      ],
      "name": "getRoleMemberCount",
      "outputs": [
        {
          "internalType": "uint256",
          "name": "",
          "type": "uint256"
        }
      ],
      "stateMutability": "view",
      "type": "function",
      "constant": true
    },
    {
      "inputs": [
        {
          "internalType": "address",
          "name": "account",
          "type": "address"
        }
      ],
      "name": "grantGraduatedRole",
      "outputs": [],
      "stateMutability": "nonpayable",
      "type": "function"
    },
    {
      "inputs": [
        {
          "internalType": "address",
          "name": "account",
          "type": "address"
        }
      ],
      "name": "grantInstructorRole",
      "outputs": [],
      "stateMutability": "nonpayable",
      "type": "function"
    },
    {
      "inputs": [
        {
          "internalType": "address",
          "name": "account",
          "type": "address"
        }
      ],
      "name": "grantRectorRole",
      "outputs": [],
      "stateMutability": "nonpayable",
      "type": "function"
    },
    {
      "inputs": [
        {
          "internalType": "bytes32",
          "name": "role",
          "type": "bytes32"
        },
        {
          "internalType": "address",
          "name": "account",
          "type": "address"
        }
      ],
      "name": "grantRole",
      "outputs": [],
      "stateMutability": "nonpayable",
      "type": "function"
    },
    {
      "inputs": [
        {
          "internalType": "address",
          "name": "account",
          "type": "address"
        }
      ],
      "name": "grantStudentRole",
      "outputs": [],
      "stateMutability": "nonpayable",
      "type": "function"
    },
    {
      "inputs": [
        {
          "internalType": "bytes32",
          "name": "role",
          "type": "bytes32"
        },
        {
          "internalType": "address",
          "name": "account",
          "type": "address"
        }
      ],
      "name": "hasRole",
      "outputs": [
        {
          "internalType": "bool",
          "name": "",
          "type": "bool"
        }
      ],
      "stateMutability": "view",
      "type": "function",
      "constant": true
    },
    {
      "inputs": [
        {
          "internalType": "address",
          "name": "owner",
          "type": "address"
        },
        {
          "internalType": "address",
          "name": "operator",
          "type": "address"
        }
      ],
      "name": "isApprovedForAll",
      "outputs": [
        {
          "internalType": "bool",
          "name": "",
          "type": "bool"
        }
      ],
      "stateMutability": "view",
      "type": "function",
      "constant": true
    },
    {
      "inputs": [],
      "name": "name",
      "outputs": [
        {
          "internalType": "string",
          "name": "",
          "type": "string"
        }
      ],
      "stateMutability": "view",
      "type": "function",
      "constant": true
    },
    {
      "inputs": [
        {
          "internalType": "uint256",
          "name": "tokenId",
          "type": "uint256"
        }
      ],
      "name": "ownerOf",
      "outputs": [
        {
          "internalType": "address",
          "name": "",
          "type": "address"
        }
      ],
      "stateMutability": "view",
      "type": "function",
      "constant": true
    },
    {
      "inputs": [
        {
          "internalType": "bytes32",
          "name": "role",
          "type": "bytes32"
        },
        {
          "internalType": "address",
          "name": "account",
          "type": "address"
        }
      ],
      "name": "renounceRole",
      "outputs": [],
      "stateMutability": "nonpayable",
      "type": "function"
    },
    {
      "inputs": [
        {
          "internalType": "address",
          "name": "account",
          "type": "address"
        }
      ],
      "name": "revokeInstructorRole",
      "outputs": [],
      "stateMutability": "nonpayable",
      "type": "function"
    },
    {
      "inputs": [
        {
          "internalType": "bytes32",
          "name": "role",
          "type": "bytes32"
        },
        {
          "internalType": "address",
          "name": "account",
          "type": "address"
        }
      ],
      "name": "revokeRole",
      "outputs": [],
      "stateMutability": "nonpayable",
      "type": "function"
    },
    {
      "inputs": [
        {
          "internalType": "address",
          "name": "account",
          "type": "address"
        }
      ],
      "name": "revokeStudentRole",
      "outputs": [],
      "stateMutability": "nonpayable",
      "type": "function"
    },
    {
      "inputs": [
        {
          "internalType": "address",
          "name": "operator",
          "type": "address"
        },
        {
          "internalType": "bool",
          "name": "approved",
          "type": "bool"
        }
      ],
      "name": "setApprovalForAll",
      "outputs": [],
      "stateMutability": "nonpayable",
      "type": "function"
    },
    {
      "inputs": [],
      "name": "symbol",
      "outputs": [
        {
          "internalType": "string",
          "name": "",
          "type": "string"
        }
      ],
      "stateMutability": "view",
      "type": "function",
      "constant": true
    },
    {
      "inputs": [
        {
          "internalType": "uint256",
          "name": "tokenId",
          "type": "uint256"
        }
      ],
      "name": "tokenURI",
      "outputs": [
        {
          "internalType": "string",
          "name": "",
          "type": "string"
        }
      ],
      "stateMutability": "view",
      "type": "function",
      "constant": true
    },
    {
      "inputs": [
        {
          "internalType": "string",
          "name": "_courseLink",
          "type": "string"
        },
        {
          "internalType": "address",
          "name": "instructorAddress",
          "type": "address"
        }
      ],
      "name": "mint",
      "outputs": [],
      "stateMutability": "nonpayable",
      "type": "function"
    },
    {
      "inputs": [],
      "name": "getCourseLinks",
      "outputs": [
        {
          "internalType": "string[]",
          "name": "courseLinks",
          "type": "string[]"
        }
      ],
      "stateMutability": "view",
      "type": "function",
      "constant": true
    },
    {
      "inputs": [
        {
          "internalType": "address",
          "name": "instructorAddress",
          "type": "address"
        }
      ],
      "name": "getGivesCourses",
      "outputs": [
        {
          "internalType": "uint256[]",
          "name": "givesCourses",
          "type": "uint256[]"
        }
      ],
      "stateMutability": "view",
      "type": "function",
      "constant": true
    },
    {
      "inputs": [
        {
          "internalType": "address",
          "name": "from",
          "type": "address"
        },
        {
          "internalType": "address",
          "name": "to",
          "type": "address"
        },
        {
          "internalType": "uint256",
          "name": "tokenId",
          "type": "uint256"
        }
      ],
      "name": "transferFrom",
      "outputs": [],
      "stateMutability": "nonpayable",
      "type": "function"
    },
    {
      "inputs": [
        {
          "internalType": "address",
          "name": "from",
          "type": "address"
        },
        {
          "internalType": "address",
          "name": "to",
          "type": "address"
        },
        {
          "internalType": "uint256",
          "name": "tokenId",
          "type": "uint256"
        }
      ],
      "name": "safeTransferFrom",
      "outputs": [],
      "stateMutability": "nonpayable",
      "type": "function"
    },
    {
      "inputs": [
        {
          "internalType": "address",
          "name": "from",
          "type": "address"
        },
        {
          "internalType": "address",
          "name": "to",
          "type": "address"
        },
        {
          "internalType": "uint256",
          "name": "tokenId",
          "type": "uint256"
        },
        {
          "internalType": "bytes",
          "name": "_data",
          "type": "bytes"
        }
      ],
      "name": "safeTransferFrom",
      "outputs": [],
      "stateMutability": "nonpayable",
      "type": "function"
    },
    {
      "inputs": [
        {
          "internalType": "bytes4",
          "name": "interfaceId",
          "type": "bytes4"
        }
      ],
      "name": "supportsInterface",
      "outputs": [
        {
          "internalType": "bool",
          "name": "",
          "type": "bool"
        }
      ],
      "stateMutability": "view",
      "type": "function",
      "constant": true
    }
  ],
  "bytecode": "0x60806040523480156200001157600080fd5b506040518060400160405280600681526020017f436f7572736500000000000000000000000000000000000000000000000000008152506040518060400160405280600381526020017f435253000000000000000000000000000000000000000000000000000000000081525081600090805190602001906200009692919062000397565b508060019080519060200190620000af92919062000397565b505050620000c76000801b33620000ff60201b60201c565b620000f97f5f1d1e303f9c0a1801dd708bdc4239781d66c88ca6cb941c5769ba09b5c1b28533620000ff60201b60201c565b620004ac565b6200011182826200011560201b60201c565b5050565b6200012c82826200015d60201b620016b81760201c565b6200015881600760008581526020019081526020016000206200024f60201b620017991790919060201c565b505050565b6200016f82826200028760201b60201c565b6200024b5760016006600084815260200190815260200160002060000160008373ffffffffffffffffffffffffffffffffffffffff1673ffffffffffffffffffffffffffffffffffffffff16815260200190815260200160002060006101000a81548160ff021916908315150217905550620001f0620002f260201b60201c565b73ffffffffffffffffffffffffffffffffffffffff168173ffffffffffffffffffffffffffffffffffffffff16837f2f8788117e7eff1d82e926ec794901d17c78024a50270940304540a733656f0d60405160405180910390a45b5050565b60006200027f836000018373ffffffffffffffffffffffffffffffffffffffff1660001b620002fa60201b60201c565b905092915050565b60006006600084815260200190815260200160002060000160008373ffffffffffffffffffffffffffffffffffffffff1673ffffffffffffffffffffffffffffffffffffffff16815260200190815260200160002060009054906101000a900460ff16905092915050565b600033905090565b60006200030e83836200037460201b60201c565b620003695782600001829080600181540180825580915050600190039060005260206000200160009091909190915055826000018054905083600101600084815260200190815260200160002081905550600190506200036e565b600090505b92915050565b600080836001016000848152602001908152602001600020541415905092915050565b828054620003a59062000476565b90600052602060002090601f016020900481019282620003c9576000855562000415565b82601f10620003e457805160ff191683800117855562000415565b8280016001018555821562000415579182015b8281111562000414578251825591602001919060010190620003f7565b5b50905062000424919062000428565b5090565b5b808211156200044357600081600090555060010162000429565b5090565b7f4e487b7100000000000000000000000000000000000000000000000000000000600052602260045260246000fd5b600060028204905060018216806200048f57607f821691505b60208210811415620004a657620004a562000447565b5b50919050565b61463480620004bc6000396000f3fe608060405234801561001057600080fd5b506004361061021c5760003560e01c806386f8e92c11610125578063a6faa962116100ad578063c94d10ad1161007c578063c94d10ad1461064b578063ca15c87314610667578063d547741f14610697578063e985e9c5146106b3578063f7be43fb146106e35761021c565b8063a6faa962146105c3578063ad7be93a146105e1578063b88d4fde146105ff578063c87b56dd1461061b5761021c565b806391d14854116100f457806391d148541461051d57806395d89b411461054d578063996dc0221461056b578063a217fddf14610589578063a22cb465146105a75761021c565b806386f8e92c146104975780638bcf979c146104b35780638df6674a146104d15780639010d07c146104ed5761021c565b80632f2ff15d116101a85780635ea07b1c116101775780635ea07b1c146103e15780635f1d514e146103fd5780636352211e146104195780636fe3ceb81461044957806370a08231146104675761021c565b80632f2ff15d1461037157806332b3c8461461038d57806336568abe146103a957806342842e0e146103c55761021c565b80630baf40e3116101ef5780630baf40e3146102bb5780631c351a9d146102eb57806323b872dd14610307578063248a9ca31461032357806324d42a37146103535761021c565b806301ffc9a71461022157806306fdde0314610251578063081812fc1461026f578063095ea7b31461029f575b600080fd5b61023b60048036038101906102369190612d75565b610701565b6040516102489190612dbd565b60405180910390f35b610259610713565b6040516102669190612e71565b60405180910390f35b61028960048036038101906102849190612ec9565b6107a5565b6040516102969190612f37565b60405180910390f35b6102b960048036038101906102b49190612f7e565b61082a565b005b6102d560048036038101906102d09190612fbe565b610942565b6040516102e291906130a9565b60405180910390f35b61030560048036038101906103009190613200565b6109d9565b005b610321600480360381019061031c919061325c565b610ba0565b005b61033d600480360381019061033891906132e5565b610c1f565b60405161034a9190613321565b60405180910390f35b61035b610c3f565b6040516103689190613321565b60405180910390f35b61038b6004803603810190610386919061333c565b610c63565b005b6103a760048036038101906103a29190612fbe565b610c8c565b005b6103c360048036038101906103be919061333c565b610cec565b005b6103df60048036038101906103da919061325c565b610d6f565b005b6103fb60048036038101906103f69190612fbe565b610dee565b005b61041760048036038101906104129190612fbe565b610eab565b005b610433600480360381019061042e9190612ec9565b610f0b565b6040516104409190612f37565b60405180910390f35b610451610fbd565b60405161045e9190613321565b60405180910390f35b610481600480360381019061047c9190612fbe565b610fe1565b60405161048e919061338b565b60405180910390f35b6104b160048036038101906104ac9190612fbe565b611099565b005b6104bb6110f9565b6040516104c89190613321565b60405180910390f35b6104eb60048036038101906104e69190612fbe565b61111d565b005b610507600480360381019061050291906133a6565b6111c1565b6040516105149190612f37565b60405180910390f35b6105376004803603810190610532919061333c565b6111f0565b6040516105449190612dbd565b60405180910390f35b61055561125b565b6040516105629190612e71565b60405180910390f35b6105736112ed565b6040516105809190613321565b60405180910390f35b610591611311565b60405161059e9190613321565b60405180910390f35b6105c160048036038101906105bc9190613412565b611318565b005b6105cb61132e565b6040516105d8919061355e565b60405180910390f35b6105e9611407565b6040516105f69190613321565b60405180910390f35b61061960048036038101906106149190613621565b61142b565b005b61063560048036038101906106309190612ec9565b6114ac565b6040516106429190612e71565b60405180910390f35b61066560048036038101906106609190612fbe565b611553565b005b610681600480360381019061067c91906132e5565b6115b3565b60405161068e919061338b565b60405180910390f35b6106b160048036038101906106ac919061333c565b6115d7565b005b6106cd60048036038101906106c891906136a4565b611600565b6040516106da9190612dbd565b60405180910390f35b6106eb611694565b6040516106f89190613321565b60405180910390f35b600061070c826117c9565b9050919050565b60606000805461072290613713565b80601f016020809104026020016040519081016040528092919081815260200182805461074e90613713565b801561079b5780601f106107705761010080835404028352916020019161079b565b820191906000526020600020905b81548152906001019060200180831161077e57829003601f168201915b5050505050905090565b60006107b082611843565b6107ef576040517f08c379a00000000000000000000000000000000000000000000000000000000081526004016107e6906137b7565b60405180910390fd5b6004600083815260200190815260200160002060009054906101000a900473ffffffffffffffffffffffffffffffffffffffff169050919050565b600061083582610f0b565b90508073ffffffffffffffffffffffffffffffffffffffff168373ffffffffffffffffffffffffffffffffffffffff1614156108a6576040517f08c379a000000000000000000000000000000000000000000000000000000000815260040161089d90613849565b60405180910390fd5b8073ffffffffffffffffffffffffffffffffffffffff166108c56118af565b73ffffffffffffffffffffffffffffffffffffffff1614806108f457506108f3816108ee6118af565b611600565b5b610933576040517f08c379a000000000000000000000000000000000000000000000000000000000815260040161092a906138db565b60405180910390fd5b61093d83836118b7565b505050565b6060600860008373ffffffffffffffffffffffffffffffffffffffff1673ffffffffffffffffffffffffffffffffffffffff1681526020019081526020016000208054806020026020016040519081016040528092919081815260200182805480156109cd57602002820191906000526020600020905b8154815260200190600101908083116109b9575b50505050509050919050565b600b826040516109e99190613937565b908152602001604051809103902060009054906101000a900460ff1615610a45576040517f08c379a0000000000000000000000000000000000000000000000000000000008152600401610a3c9061399a565b60405180910390fd5b610a6f7fae4a0595970935aa5495afbbb72e5f1f6ff1062766b4a3028c0c9b7d5cf7e345826111f0565b610aae576040517f08c379a0000000000000000000000000000000000000000000000000000000008152600401610aa590613a2c565b60405180910390fd5b600c82908060018154018082558091505060019003906000526020600020016000909190919091509080519060200190610ae9929190612c66565b506000600c805490509050610afe8282611970565b6001600b84604051610b109190613937565b908152602001604051809103902060006101000a81548160ff021916908315150217905550600860008373ffffffffffffffffffffffffffffffffffffffff1673ffffffffffffffffffffffffffffffffffffffff168152602001908152602001600020819080600181540180825580915050600190039060005260206000200160009091909190915055505050565b600073ffffffffffffffffffffffffffffffffffffffff163373ffffffffffffffffffffffffffffffffffffffff1614610c0f576040517f08c379a0000000000000000000000000000000000000000000000000000000008152600401610c0690613abe565b60405180910390fd5b610c1a838383611b3e565b505050565b600060066000838152602001908152602001600020600101549050919050565b7f5f1d1e303f9c0a1801dd708bdc4239781d66c88ca6cb941c5769ba09b5c1b28581565b610c6c82610c1f565b610c7d81610c786118af565b611b9e565b610c878383611c3b565b505050565b7f5f1d1e303f9c0a1801dd708bdc4239781d66c88ca6cb941c5769ba09b5c1b285610cbe81610cb96118af565b611b9e565b610ce87f36a5c4aaacb6b388bbd448bf11096b7dafc5652bcc9046084fd0e95b1fb0b2cc836115d7565b5050565b610cf46118af565b73ffffffffffffffffffffffffffffffffffffffff168173ffffffffffffffffffffffffffffffffffffffff1614610d61576040517f08c379a0000000000000000000000000000000000000000000000000000000008152600401610d5890613b50565b60405180910390fd5b610d6b8282611c6f565b5050565b600073ffffffffffffffffffffffffffffffffffffffff163373ffffffffffffffffffffffffffffffffffffffff1614610dde576040517f08c379a0000000000000000000000000000000000000000000000000000000008152600401610dd590613abe565b60405180910390fd5b610de9838383611ca3565b505050565b7f5f1d1e303f9c0a1801dd708bdc4239781d66c88ca6cb941c5769ba09b5c1b285610e2081610e1b6118af565b611b9e565b610e4a7f36a5c4aaacb6b388bbd448bf11096b7dafc5652bcc9046084fd0e95b1fb0b2cc836111f0565b610e5357600080fd5b610e7d7f36a5c4aaacb6b388bbd448bf11096b7dafc5652bcc9046084fd0e95b1fb0b2cc836115d7565b610ea77f4758f7d70d6088cbfad5c79861ac6457ba2af02adf5ea419e97879ae24459cb683610c63565b5050565b7f5f1d1e303f9c0a1801dd708bdc4239781d66c88ca6cb941c5769ba09b5c1b285610edd81610ed86118af565b611b9e565b610f077fae4a0595970935aa5495afbbb72e5f1f6ff1062766b4a3028c0c9b7d5cf7e34583610c63565b5050565b6000806002600084815260200190815260200160002060009054906101000a900473ffffffffffffffffffffffffffffffffffffffff169050600073ffffffffffffffffffffffffffffffffffffffff168173ffffffffffffffffffffffffffffffffffffffff161415610fb4576040517f08c379a0000000000000000000000000000000000000000000000000000000008152600401610fab90613be2565b60405180910390fd5b80915050919050565b7ff3f9cfff7b46f415da5a492b1718971da203f87c6aae9299e7b408eb83ef8bee81565b60008073ffffffffffffffffffffffffffffffffffffffff168273ffffffffffffffffffffffffffffffffffffffff161415611052576040517f08c379a000000000000000000000000000000000000000000000000000000000815260040161104990613c74565b60405180910390fd5b600360008373ffffffffffffffffffffffffffffffffffffffff1673ffffffffffffffffffffffffffffffffffffffff168152602001908152602001600020549050919050565b7f5f1d1e303f9c0a1801dd708bdc4239781d66c88ca6cb941c5769ba09b5c1b2856110cb816110c66118af565b611b9e565b6110f57fae4a0595970935aa5495afbbb72e5f1f6ff1062766b4a3028c0c9b7d5cf7e345836115d7565b5050565b7fae4a0595970935aa5495afbbb72e5f1f6ff1062766b4a3028c0c9b7d5cf7e34581565b7f5f1d1e303f9c0a1801dd708bdc4239781d66c88ca6cb941c5769ba09b5c1b28561114f8161114a6118af565b611b9e565b6111797f5f1d1e303f9c0a1801dd708bdc4239781d66c88ca6cb941c5769ba09b5c1b28583610c63565b6111866000801b83610c63565b6111936000801b33610cec565b6111bd7f5f1d1e303f9c0a1801dd708bdc4239781d66c88ca6cb941c5769ba09b5c1b28533610cec565b5050565b60006111e88260076000868152602001908152602001600020611cc390919063ffffffff16565b905092915050565b60006006600084815260200190815260200160002060000160008373ffffffffffffffffffffffffffffffffffffffff1673ffffffffffffffffffffffffffffffffffffffff16815260200190815260200160002060009054906101000a900460ff16905092915050565b60606001805461126a90613713565b80601f016020809104026020016040519081016040528092919081815260200182805461129690613713565b80156112e35780601f106112b8576101008083540402835291602001916112e3565b820191906000526020600020905b8154815290600101906020018083116112c657829003601f168201915b5050505050905090565b7fe7837d04f36ce0b2f3cc662bf1b2b632a7fbd12ae95199e8bd3dcfbcc440b66b81565b6000801b81565b61132a6113236118af565b8383611cdd565b5050565b6060600c805480602002602001604051908101604052809291908181526020016000905b828210156113fe57838290600052602060002001805461137190613713565b80601f016020809104026020016040519081016040528092919081815260200182805461139d90613713565b80156113ea5780601f106113bf576101008083540402835291602001916113ea565b820191906000526020600020905b8154815290600101906020018083116113cd57829003601f168201915b505050505081526020019060010190611352565b50505050905090565b7f4758f7d70d6088cbfad5c79861ac6457ba2af02adf5ea419e97879ae24459cb681565b600073ffffffffffffffffffffffffffffffffffffffff163373ffffffffffffffffffffffffffffffffffffffff161461149a576040517f08c379a000000000000000000000000000000000000000000000000000000000815260040161149190613abe565b60405180910390fd5b6114a684848484611e4a565b50505050565b60606114b782611843565b6114f6576040517f08c379a00000000000000000000000000000000000000000000000000000000081526004016114ed90613d06565b60405180910390fd5b6000611500611eac565b90506000815111611520576040518060200160405280600081525061154b565b8061152a84611ec3565b60405160200161153b929190613d26565b6040516020818303038152906040525b915050919050565b7f5f1d1e303f9c0a1801dd708bdc4239781d66c88ca6cb941c5769ba09b5c1b285611585816115806118af565b611b9e565b6115af7f36a5c4aaacb6b388bbd448bf11096b7dafc5652bcc9046084fd0e95b1fb0b2cc83610c63565b5050565b60006115d060076000848152602001908152602001600020612024565b9050919050565b6115e082610c1f565b6115f1816115ec6118af565b611b9e565b6115fb8383611c6f565b505050565b6000600560008473ffffffffffffffffffffffffffffffffffffffff1673ffffffffffffffffffffffffffffffffffffffff16815260200190815260200160002060008373ffffffffffffffffffffffffffffffffffffffff1673ffffffffffffffffffffffffffffffffffffffff16815260200190815260200160002060009054906101000a900460ff16905092915050565b7f36a5c4aaacb6b388bbd448bf11096b7dafc5652bcc9046084fd0e95b1fb0b2cc81565b6116c282826111f0565b6117955760016006600084815260200190815260200160002060000160008373ffffffffffffffffffffffffffffffffffffffff1673ffffffffffffffffffffffffffffffffffffffff16815260200190815260200160002060006101000a81548160ff02191690831515021790555061173a6118af565b73ffffffffffffffffffffffffffffffffffffffff168173ffffffffffffffffffffffffffffffffffffffff16837f2f8788117e7eff1d82e926ec794901d17c78024a50270940304540a733656f0d60405160405180910390a45b5050565b60006117c1836000018373ffffffffffffffffffffffffffffffffffffffff1660001b612039565b905092915050565b60007f5a05180f000000000000000000000000000000000000000000000000000000007bffffffffffffffffffffffffffffffffffffffffffffffffffffffff1916827bffffffffffffffffffffffffffffffffffffffffffffffffffffffff1916148061183c575061183b826120a9565b5b9050919050565b60008073ffffffffffffffffffffffffffffffffffffffff166002600084815260200190815260200160002060009054906101000a900473ffffffffffffffffffffffffffffffffffffffff1673ffffffffffffffffffffffffffffffffffffffff1614159050919050565b600033905090565b816004600083815260200190815260200160002060006101000a81548173ffffffffffffffffffffffffffffffffffffffff021916908373ffffffffffffffffffffffffffffffffffffffff160217905550808273ffffffffffffffffffffffffffffffffffffffff1661192a83610f0b565b73ffffffffffffffffffffffffffffffffffffffff167f8c5be1e5ebec7d5bd14f71427d1e84f3dd0314c0f7b2291e5b200ac8c7c3b92560405160405180910390a45050565b600073ffffffffffffffffffffffffffffffffffffffff168273ffffffffffffffffffffffffffffffffffffffff1614156119e0576040517f08c379a00000000000000000000000000000000000000000000000000000000081526004016119d790613d96565b60405180910390fd5b6119e981611843565b15611a29576040517f08c379a0000000000000000000000000000000000000000000000000000000008152600401611a2090613e02565b60405180910390fd5b611a3560008383612123565b6001600360008473ffffffffffffffffffffffffffffffffffffffff1673ffffffffffffffffffffffffffffffffffffffff1681526020019081526020016000206000828254611a859190613e51565b92505081905550816002600083815260200190815260200160002060006101000a81548173ffffffffffffffffffffffffffffffffffffffff021916908373ffffffffffffffffffffffffffffffffffffffff160217905550808273ffffffffffffffffffffffffffffffffffffffff16600073ffffffffffffffffffffffffffffffffffffffff167fddf252ad1be2c89b69c2b068fc378daa952ba7f163c4a11628f55a4df523b3ef60405160405180910390a45050565b611b4f611b496118af565b82612128565b611b8e576040517f08c379a0000000000000000000000000000000000000000000000000000000008152600401611b8590613f19565b60405180910390fd5b611b99838383612206565b505050565b611ba882826111f0565b611c3757611bcd8173ffffffffffffffffffffffffffffffffffffffff166014612462565b611bdb8360001c6020612462565b604051602001611bec929190613fd1565b6040516020818303038152906040526040517f08c379a0000000000000000000000000000000000000000000000000000000008152600401611c2e9190612e71565b60405180910390fd5b5050565b611c4582826116b8565b611c6a816007600085815260200190815260200160002061179990919063ffffffff16565b505050565b611c79828261269e565b611c9e816007600085815260200190815260200160002061278090919063ffffffff16565b505050565b611cbe8383836040518060200160405280600081525061142b565b505050565b6000611cd283600001836127b0565b60001c905092915050565b8173ffffffffffffffffffffffffffffffffffffffff168373ffffffffffffffffffffffffffffffffffffffff161415611d4c576040517f08c379a0000000000000000000000000000000000000000000000000000000008152600401611d4390614057565b60405180910390fd5b80600560008573ffffffffffffffffffffffffffffffffffffffff1673ffffffffffffffffffffffffffffffffffffffff16815260200190815260200160002060008473ffffffffffffffffffffffffffffffffffffffff1673ffffffffffffffffffffffffffffffffffffffff16815260200190815260200160002060006101000a81548160ff0219169083151502179055508173ffffffffffffffffffffffffffffffffffffffff168373ffffffffffffffffffffffffffffffffffffffff167f17307eab39ab6107e8899845ad3d59bd9653f200f220920489ca2b5937696c3183604051611e3d9190612dbd565b60405180910390a3505050565b611e5b611e556118af565b83612128565b611e9a576040517f08c379a0000000000000000000000000000000000000000000000000000000008152600401611e9190613f19565b60405180910390fd5b611ea6848484846127db565b50505050565b606060405180602001604052806000815250905090565b60606000821415611f0b576040518060400160405280600181526020017f3000000000000000000000000000000000000000000000000000000000000000815250905061201f565b600082905060005b60008214611f3d578080611f2690614077565b915050600a82611f3691906140ef565b9150611f13565b60008167ffffffffffffffff811115611f5957611f586130d5565b5b6040519080825280601f01601f191660200182016040528015611f8b5781602001600182028036833780820191505090505b5090505b6000851461201857600182611fa49190614120565b9150600a85611fb39190614154565b6030611fbf9190613e51565b60f81b818381518110611fd557611fd4614185565b5b60200101907effffffffffffffffffffffffffffffffffffffffffffffffffffffffffffff1916908160001a905350600a8561201191906140ef565b9450611f8f565b8093505050505b919050565b600061203282600001612837565b9050919050565b60006120458383612848565b61209e5782600001829080600181540180825580915050600190039060005260206000200160009091909190915055826000018054905083600101600084815260200190815260200160002081905550600190506120a3565b600090505b92915050565b60007f7965db0b000000000000000000000000000000000000000000000000000000007bffffffffffffffffffffffffffffffffffffffffffffffffffffffff1916827bffffffffffffffffffffffffffffffffffffffffffffffffffffffff1916148061211c575061211b8261286b565b5b9050919050565b505050565b600061213382611843565b612172576040517f08c379a000000000000000000000000000000000000000000000000000000000815260040161216990614226565b60405180910390fd5b600061217d83610f0b565b90508073ffffffffffffffffffffffffffffffffffffffff168473ffffffffffffffffffffffffffffffffffffffff1614806121ec57508373ffffffffffffffffffffffffffffffffffffffff166121d4846107a5565b73ffffffffffffffffffffffffffffffffffffffff16145b806121fd57506121fc8185611600565b5b91505092915050565b8273ffffffffffffffffffffffffffffffffffffffff1661222682610f0b565b73ffffffffffffffffffffffffffffffffffffffff161461227c576040517f08c379a0000000000000000000000000000000000000000000000000000000008152600401612273906142b8565b60405180910390fd5b600073ffffffffffffffffffffffffffffffffffffffff168273ffffffffffffffffffffffffffffffffffffffff1614156122ec576040517f08c379a00000000000000000000000000000000000000000000000000000000081526004016122e39061434a565b60405180910390fd5b6122f7838383612123565b6123026000826118b7565b6001600360008573ffffffffffffffffffffffffffffffffffffffff1673ffffffffffffffffffffffffffffffffffffffff16815260200190815260200160002060008282546123529190614120565b925050819055506001600360008473ffffffffffffffffffffffffffffffffffffffff1673ffffffffffffffffffffffffffffffffffffffff16815260200190815260200160002060008282546123a99190613e51565b92505081905550816002600083815260200190815260200160002060006101000a81548173ffffffffffffffffffffffffffffffffffffffff021916908373ffffffffffffffffffffffffffffffffffffffff160217905550808273ffffffffffffffffffffffffffffffffffffffff168473ffffffffffffffffffffffffffffffffffffffff167fddf252ad1be2c89b69c2b068fc378daa952ba7f163c4a11628f55a4df523b3ef60405160405180910390a4505050565b606060006002836002612475919061436a565b61247f9190613e51565b67ffffffffffffffff811115612498576124976130d5565b5b6040519080825280601f01601f1916602001820160405280156124ca5781602001600182028036833780820191505090505b5090507f30000000000000000000000000000000000000000000000000000000000000008160008151811061250257612501614185565b5b60200101907effffffffffffffffffffffffffffffffffffffffffffffffffffffffffffff1916908160001a9053507f78000000000000000000000000000000000000000000000000000000000000008160018151811061256657612565614185565b5b60200101907effffffffffffffffffffffffffffffffffffffffffffffffffffffffffffff1916908160001a905350600060018460026125a6919061436a565b6125b09190613e51565b90505b6001811115612650577f3031323334353637383961626364656600000000000000000000000000000000600f8616601081106125f2576125f1614185565b5b1a60f81b82828151811061260957612608614185565b5b60200101907effffffffffffffffffffffffffffffffffffffffffffffffffffffffffffff1916908160001a905350600485901c945080612649906143c4565b90506125b3565b5060008414612694576040517f08c379a000000000000000000000000000000000000000000000000000000000815260040161268b9061443a565b60405180910390fd5b8091505092915050565b6126a882826111f0565b1561277c5760006006600084815260200190815260200160002060000160008373ffffffffffffffffffffffffffffffffffffffff1673ffffffffffffffffffffffffffffffffffffffff16815260200190815260200160002060006101000a81548160ff0219169083151502179055506127216118af565b73ffffffffffffffffffffffffffffffffffffffff168173ffffffffffffffffffffffffffffffffffffffff16837ff6391f5c32d9c69d2a47ea670b442974b53935d1edc7fd64eb21e047a839171b60405160405180910390a45b5050565b60006127a8836000018373ffffffffffffffffffffffffffffffffffffffff1660001b61294d565b905092915050565b60008260000182815481106127c8576127c7614185565b5b9060005260206000200154905092915050565b6127e6848484612206565b6127f284848484612a61565b612831576040517f08c379a0000000000000000000000000000000000000000000000000000000008152600401612828906144cc565b60405180910390fd5b50505050565b600081600001805490509050919050565b600080836001016000848152602001908152602001600020541415905092915050565b60007f80ac58cd000000000000000000000000000000000000000000000000000000007bffffffffffffffffffffffffffffffffffffffffffffffffffffffff1916827bffffffffffffffffffffffffffffffffffffffffffffffffffffffff1916148061293657507f5b5e139f000000000000000000000000000000000000000000000000000000007bffffffffffffffffffffffffffffffffffffffffffffffffffffffff1916827bffffffffffffffffffffffffffffffffffffffffffffffffffffffff1916145b80612946575061294582612be9565b5b9050919050565b60008083600101600084815260200190815260200160002054905060008114612a5557600060018261297f9190614120565b90506000600186600001805490506129979190614120565b9050818114612a065760008660000182815481106129b8576129b7614185565b5b90600052602060002001549050808760000184815481106129dc576129db614185565b5b90600052602060002001819055508387600101600083815260200190815260200160002081905550505b85600001805480612a1a57612a196144ec565b5b600190038181906000526020600020016000905590558560010160008681526020019081526020016000206000905560019350505050612a5b565b60009150505b92915050565b6000612a828473ffffffffffffffffffffffffffffffffffffffff16612c53565b15612bdc578373ffffffffffffffffffffffffffffffffffffffff1663150b7a02612aab6118af565b8786866040518563ffffffff1660e01b8152600401612acd9493929190614570565b6020604051808303816000875af1925050508015612b0957506040513d601f19601f82011682018060405250810190612b0691906145d1565b60015b612b8c573d8060008114612b39576040519150601f19603f3d011682016040523d82523d6000602084013e612b3e565b606091505b50600081511415612b84576040517f08c379a0000000000000000000000000000000000000000000000000000000008152600401612b7b906144cc565b60405180910390fd5b805181602001fd5b63150b7a0260e01b7bffffffffffffffffffffffffffffffffffffffffffffffffffffffff1916817bffffffffffffffffffffffffffffffffffffffffffffffffffffffff191614915050612be1565b600190505b949350505050565b60007f01ffc9a7000000000000000000000000000000000000000000000000000000007bffffffffffffffffffffffffffffffffffffffffffffffffffffffff1916827bffffffffffffffffffffffffffffffffffffffffffffffffffffffff1916149050919050565b600080823b905060008111915050919050565b828054612c7290613713565b90600052602060002090601f016020900481019282612c945760008555612cdb565b82601f10612cad57805160ff1916838001178555612cdb565b82800160010185558215612cdb579182015b82811115612cda578251825591602001919060010190612cbf565b5b509050612ce89190612cec565b5090565b5b80821115612d05576000816000905550600101612ced565b5090565b6000604051905090565b600080fd5b600080fd5b60007fffffffff0000000000000000000000000000000000000000000000000000000082169050919050565b612d5281612d1d565b8114612d5d57600080fd5b50565b600081359050612d6f81612d49565b92915050565b600060208284031215612d8b57612d8a612d13565b5b6000612d9984828501612d60565b91505092915050565b60008115159050919050565b612db781612da2565b82525050565b6000602082019050612dd26000830184612dae565b92915050565b600081519050919050565b600082825260208201905092915050565b60005b83811015612e12578082015181840152602081019050612df7565b83811115612e21576000848401525b50505050565b6000601f19601f8301169050919050565b6000612e4382612dd8565b612e4d8185612de3565b9350612e5d818560208601612df4565b612e6681612e27565b840191505092915050565b60006020820190508181036000830152612e8b8184612e38565b905092915050565b6000819050919050565b612ea681612e93565b8114612eb157600080fd5b50565b600081359050612ec381612e9d565b92915050565b600060208284031215612edf57612ede612d13565b5b6000612eed84828501612eb4565b91505092915050565b600073ffffffffffffffffffffffffffffffffffffffff82169050919050565b6000612f2182612ef6565b9050919050565b612f3181612f16565b82525050565b6000602082019050612f4c6000830184612f28565b92915050565b612f5b81612f16565b8114612f6657600080fd5b50565b600081359050612f7881612f52565b92915050565b60008060408385031215612f9557612f94612d13565b5b6000612fa385828601612f69565b9250506020612fb485828601612eb4565b9150509250929050565b600060208284031215612fd457612fd3612d13565b5b6000612fe284828501612f69565b91505092915050565b600081519050919050565b600082825260208201905092915050565b6000819050602082019050919050565b61302081612e93565b82525050565b60006130328383613017565b60208301905092915050565b6000602082019050919050565b600061305682612feb565b6130608185612ff6565b935061306b83613007565b8060005b8381101561309c5781516130838882613026565b975061308e8361303e565b92505060018101905061306f565b5085935050505092915050565b600060208201905081810360008301526130c3818461304b565b905092915050565b600080fd5b600080fd5b7f4e487b7100000000000000000000000000000000000000000000000000000000600052604160045260246000fd5b61310d82612e27565b810181811067ffffffffffffffff8211171561312c5761312b6130d5565b5b80604052505050565b600061313f612d09565b905061314b8282613104565b919050565b600067ffffffffffffffff82111561316b5761316a6130d5565b5b61317482612e27565b9050602081019050919050565b82818337600083830152505050565b60006131a361319e84613150565b613135565b9050828152602081018484840111156131bf576131be6130d0565b5b6131ca848285613181565b509392505050565b600082601f8301126131e7576131e66130cb565b5b81356131f7848260208601613190565b91505092915050565b6000806040838503121561321757613216612d13565b5b600083013567ffffffffffffffff81111561323557613234612d18565b5b613241858286016131d2565b925050602061325285828601612f69565b9150509250929050565b60008060006060848603121561327557613274612d13565b5b600061328386828701612f69565b935050602061329486828701612f69565b92505060406132a586828701612eb4565b9150509250925092565b6000819050919050565b6132c2816132af565b81146132cd57600080fd5b50565b6000813590506132df816132b9565b92915050565b6000602082840312156132fb576132fa612d13565b5b6000613309848285016132d0565b91505092915050565b61331b816132af565b82525050565b60006020820190506133366000830184613312565b92915050565b6000806040838503121561335357613352612d13565b5b6000613361858286016132d0565b925050602061337285828601612f69565b9150509250929050565b61338581612e93565b82525050565b60006020820190506133a0600083018461337c565b92915050565b600080604083850312156133bd576133bc612d13565b5b60006133cb858286016132d0565b92505060206133dc85828601612eb4565b9150509250929050565b6133ef81612da2565b81146133fa57600080fd5b50565b60008135905061340c816133e6565b92915050565b6000806040838503121561342957613428612d13565b5b600061343785828601612f69565b9250506020613448858286016133fd565b9150509250929050565b600081519050919050565b600082825260208201905092915050565b6000819050602082019050919050565b600082825260208201905092915050565b600061349a82612dd8565b6134a4818561347e565b93506134b4818560208601612df4565b6134bd81612e27565b840191505092915050565b60006134d4838361348f565b905092915050565b6000602082019050919050565b60006134f482613452565b6134fe818561345d565b9350836020820285016135108561346e565b8060005b8581101561354c578484038952815161352d85826134c8565b9450613538836134dc565b925060208a01995050600181019050613514565b50829750879550505050505092915050565b6000602082019050818103600083015261357881846134e9565b905092915050565b600067ffffffffffffffff82111561359b5761359a6130d5565b5b6135a482612e27565b9050602081019050919050565b60006135c46135bf84613580565b613135565b9050828152602081018484840111156135e0576135df6130d0565b5b6135eb848285613181565b509392505050565b600082601f830112613608576136076130cb565b5b81356136188482602086016135b1565b91505092915050565b6000806000806080858703121561363b5761363a612d13565b5b600061364987828801612f69565b945050602061365a87828801612f69565b935050604061366b87828801612eb4565b925050606085013567ffffffffffffffff81111561368c5761368b612d18565b5b613698878288016135f3565b91505092959194509250565b600080604083850312156136bb576136ba612d13565b5b60006136c985828601612f69565b92505060206136da85828601612f69565b9150509250929050565b7f4e487b7100000000000000000000000000000000000000000000000000000000600052602260045260246000fd5b6000600282049050600182168061372b57607f821691505b6020821081141561373f5761373e6136e4565b5b50919050565b7f4552433732313a20617070726f76656420717565727920666f72206e6f6e657860008201527f697374656e7420746f6b656e0000000000000000000000000000000000000000602082015250565b60006137a1602c83612de3565b91506137ac82613745565b604082019050919050565b600060208201905081810360008301526137d081613794565b9050919050565b7f4552433732313a20617070726f76616c20746f2063757272656e74206f776e6560008201527f7200000000000000000000000000000000000000000000000000000000000000602082015250565b6000613833602183612de3565b915061383e826137d7565b604082019050919050565b6000602082019050818103600083015261386281613826565b9050919050565b7f4552433732313a20617070726f76652063616c6c6572206973206e6f74206f7760008201527f6e6572206e6f7220617070726f76656420666f7220616c6c0000000000000000602082015250565b60006138c5603883612de3565b91506138d082613869565b604082019050919050565b600060208201905081810360008301526138f4816138b8565b9050919050565b600081905092915050565b600061391182612dd8565b61391b81856138fb565b935061392b818560208601612df4565b80840191505092915050565b60006139438284613906565b915081905092915050565b7f54686973206c696e6b20697320616c7265616479206d696e7465640000000000600082015250565b6000613984601b83612de3565b915061398f8261394e565b602082019050919050565b600060208201905081810360008301526139b381613977565b9050919050565b7f546869732061646472657373206973206e6f7420616e20696e7374727563746f60008201527f7200000000000000000000000000000000000000000000000000000000000000602082015250565b6000613a16602183612de3565b9150613a21826139ba565b604082019050919050565b60006020820190508181036000830152613a4581613a09565b9050919050565b7f5472616e73666572206166746572206d696e742069732070726f68696269746560008201527f6400000000000000000000000000000000000000000000000000000000000000602082015250565b6000613aa8602183612de3565b9150613ab382613a4c565b604082019050919050565b60006020820190508181036000830152613ad781613a9b565b9050919050565b7f416363657373436f6e74726f6c3a2063616e206f6e6c792072656e6f756e636560008201527f20726f6c657320666f722073656c660000000000000000000000000000000000602082015250565b6000613b3a602f83612de3565b9150613b4582613ade565b604082019050919050565b60006020820190508181036000830152613b6981613b2d565b9050919050565b7f4552433732313a206f776e657220717565727920666f72206e6f6e657869737460008201527f656e7420746f6b656e0000000000000000000000000000000000000000000000602082015250565b6000613bcc602983612de3565b9150613bd782613b70565b604082019050919050565b60006020820190508181036000830152613bfb81613bbf565b9050919050565b7f4552433732313a2062616c616e636520717565727920666f7220746865207a6560008201527f726f206164647265737300000000000000000000000000000000000000000000602082015250565b6000613c5e602a83612de3565b9150613c6982613c02565b604082019050919050565b60006020820190508181036000830152613c8d81613c51565b9050919050565b7f4552433732314d657461646174613a2055524920717565727920666f72206e6f60008201527f6e6578697374656e7420746f6b656e0000000000000000000000000000000000602082015250565b6000613cf0602f83612de3565b9150613cfb82613c94565b604082019050919050565b60006020820190508181036000830152613d1f81613ce3565b9050919050565b6000613d328285613906565b9150613d3e8284613906565b91508190509392505050565b7f4552433732313a206d696e7420746f20746865207a65726f2061646472657373600082015250565b6000613d80602083612de3565b9150613d8b82613d4a565b602082019050919050565b60006020820190508181036000830152613daf81613d73565b9050919050565b7f4552433732313a20746f6b656e20616c7265616479206d696e74656400000000600082015250565b6000613dec601c83612de3565b9150613df782613db6565b602082019050919050565b60006020820190508181036000830152613e1b81613ddf565b9050919050565b7f4e487b7100000000000000000000000000000000000000000000000000000000600052601160045260246000fd5b6000613e5c82612e93565b9150613e6783612e93565b9250827fffffffffffffffffffffffffffffffffffffffffffffffffffffffffffffffff03821115613e9c57613e9b613e22565b5b828201905092915050565b7f4552433732313a207472616e736665722063616c6c6572206973206e6f74206f60008201527f776e6572206e6f7220617070726f766564000000000000000000000000000000602082015250565b6000613f03603183612de3565b9150613f0e82613ea7565b604082019050919050565b60006020820190508181036000830152613f3281613ef6565b9050919050565b7f416363657373436f6e74726f6c3a206163636f756e7420000000000000000000600082015250565b6000613f6f6017836138fb565b9150613f7a82613f39565b601782019050919050565b7f206973206d697373696e6720726f6c6520000000000000000000000000000000600082015250565b6000613fbb6011836138fb565b9150613fc682613f85565b601182019050919050565b6000613fdc82613f62565b9150613fe88285613906565b9150613ff382613fae565b9150613fff8284613906565b91508190509392505050565b7f4552433732313a20617070726f766520746f2063616c6c657200000000000000600082015250565b6000614041601983612de3565b915061404c8261400b565b602082019050919050565b6000602082019050818103600083015261407081614034565b9050919050565b600061408282612e93565b91507fffffffffffffffffffffffffffffffffffffffffffffffffffffffffffffffff8214156140b5576140b4613e22565b5b600182019050919050565b7f4e487b7100000000000000000000000000000000000000000000000000000000600052601260045260246000fd5b60006140fa82612e93565b915061410583612e93565b925082614115576141146140c0565b5b828204905092915050565b600061412b82612e93565b915061413683612e93565b92508282101561414957614148613e22565b5b828203905092915050565b600061415f82612e93565b915061416a83612e93565b92508261417a576141796140c0565b5b828206905092915050565b7f4e487b7100000000000000000000000000000000000000000000000000000000600052603260045260246000fd5b7f4552433732313a206f70657261746f7220717565727920666f72206e6f6e657860008201527f697374656e7420746f6b656e0000000000000000000000000000000000000000602082015250565b6000614210602c83612de3565b915061421b826141b4565b604082019050919050565b6000602082019050818103600083015261423f81614203565b9050919050565b7f4552433732313a207472616e73666572206f6620746f6b656e2074686174206960008201527f73206e6f74206f776e0000000000000000000000000000000000000000000000602082015250565b60006142a2602983612de3565b91506142ad82614246565b604082019050919050565b600060208201905081810360008301526142d181614295565b9050919050565b7f4552433732313a207472616e7366657220746f20746865207a65726f2061646460008201527f7265737300000000000000000000000000000000000000000000000000000000602082015250565b6000614334602483612de3565b915061433f826142d8565b604082019050919050565b6000602082019050818103600083015261436381614327565b9050919050565b600061437582612e93565b915061438083612e93565b9250817fffffffffffffffffffffffffffffffffffffffffffffffffffffffffffffffff04831182151516156143b9576143b8613e22565b5b828202905092915050565b60006143cf82612e93565b915060008214156143e3576143e2613e22565b5b600182039050919050565b7f537472696e67733a20686578206c656e67746820696e73756666696369656e74600082015250565b6000614424602083612de3565b915061442f826143ee565b602082019050919050565b6000602082019050818103600083015261445381614417565b9050919050565b7f4552433732313a207472616e7366657220746f206e6f6e20455243373231526560008201527f63656976657220696d706c656d656e7465720000000000000000000000000000602082015250565b60006144b6603283612de3565b91506144c18261445a565b604082019050919050565b600060208201905081810360008301526144e5816144a9565b9050919050565b7f4e487b7100000000000000000000000000000000000000000000000000000000600052603160045260246000fd5b600081519050919050565b600082825260208201905092915050565b60006145428261451b565b61454c8185614526565b935061455c818560208601612df4565b61456581612e27565b840191505092915050565b60006080820190506145856000830187612f28565b6145926020830186612f28565b61459f604083018561337c565b81810360608301526145b18184614537565b905095945050505050565b6000815190506145cb81612d49565b92915050565b6000602082840312156145e7576145e6612d13565b5b60006145f5848285016145bc565b9150509291505056fea264697066735822122078cff04250c640e1563196c281f5ca9fca0bc6a26f8c9f35ee20adef184cc0ef64736f6c634300080a0033",
  "immutableReferences": {},
  "source": "pragma solidity ^0.8.10;\r\n\r\nimport \"@openzeppelin/contracts/token/ERC721/ERC721.sol\";\r\nimport \"./Roles.sol\";\r\n\r\ncontract Course is ERC721, Roles{\r\n\r\n    //Mapping of the instructor to the tokenIDs\r\n    mapping(address => uint256[]) _givesCourses;\r\n    //Mapping of the tokenID to the owner is defined in ERC721.sol\r\n    //Mapping of the student to the tokenIDs\r\n\r\n    //TODO///////////////////////////////////////////\r\n    mapping(address => uint256[]) _takesCourses;\r\n    //Mapping of the tokenID to the students\r\n    mapping(uint256 => address[]) _studentsOf;\r\n    //is Course link exist\r\n    //TODO///////////////////////////////////////////\r\n\r\n    mapping(string => bool) _courseExist;\r\n    //List of Course Links\r\n    string[] _courseLinks;\r\n\r\n    constructor() ERC721(\"Course\", \"CRS\"){\r\n        _setupRole(DEFAULT_ADMIN_ROLE, msg.sender);\r\n        _setupRole(RECTOR_ROLE, msg.sender);\r\n    }\r\n\r\n    //TODO Change It To Role Based Ownership From Public\r\n    function mint(string memory _courseLink, address instructorAddress) public{\r\n        require(!_courseExist[_courseLink], \"This link is already minted\");\r\n        require(hasRole(INSTRUCTOR_ROLE, instructorAddress), \"This address is not an instructor\");\r\n        //diplomaLinks - add\r\n        _courseLinks.push(_courseLink);\r\n        uint _id = _courseLinks.length; //tokenID's start from 1 because default uint256 value is 0\r\n        //Call mint of ERC721\r\n        _mint(instructorAddress, _id);\r\n        //Trace it\r\n        _courseExist[_courseLink] = true;\r\n        _givesCourses[instructorAddress].push(_id);\r\n    }\r\n    function getCourseLinks() public view returns(string[] memory courseLinks){\r\n        return _courseLinks;\r\n    }\r\n    function getGivesCourses(address instructorAddress) public view returns (uint[] memory givesCourses){\r\n        return _givesCourses[instructorAddress];\r\n    }\r\n\r\n    //TODO Contract Owner can make mistakes when minting. Token should be somewhat editable for contract owner\r\n    function transferFrom(//Only callable when minted\r\n        address from,\r\n        address to,\r\n        uint256 tokenId\r\n    ) public virtual override {\r\n        require(msg.sender == 0x0000000000000000000000000000000000000000, \"Transfer after mint is prohibited\");\r\n        super.transferFrom(from,to,tokenId);\r\n    }\r\n    function safeTransferFrom(//Only callable when minted\r\n        address from,\r\n        address to,\r\n        uint256 tokenId\r\n    ) public virtual override {\r\n        require(msg.sender == 0x0000000000000000000000000000000000000000, \"Transfer after mint is prohibited\");\r\n        super.safeTransferFrom(from,to,tokenId);\r\n    }\r\n    function safeTransferFrom(//Only callable when minted\r\n        address from,\r\n        address to,\r\n        uint256 tokenId,\r\n        bytes memory _data\r\n    ) public virtual override {\r\n        require(msg.sender == 0x0000000000000000000000000000000000000000, \"Transfer after mint is prohibited\");\r\n        super.safeTransferFrom(from, to, tokenId, _data);\r\n    }\r\n    function supportsInterface(bytes4 interfaceId) public view virtual override(ERC721, AccessControlEnumerable) returns (bool) {\r\n        return super.supportsInterface(interfaceId);\r\n    }\r\n}\r\n",
  "sourcePath": "C:\\Users\\asus\\Desktop\\Dersler\\CMPE492\\certification-project\\contracts\\Course.sol",
  "compiler": {
    "name": "solc",
    "version": "0.8.10+commit.fc410830.Emscripten.clang"
  },
  "schemaVersion": "3.4.4",
  "updatedAt": "2022-01-11T23:00:58.751Z",
  "networkType": "ethereum",
  "devdoc": {
    "kind": "dev",
    "methods": {
      "approve(address,uint256)": {
        "details": "See {IERC721-approve}."
      },
      "balanceOf(address)": {
        "details": "See {IERC721-balanceOf}."
      },
      "getApproved(uint256)": {
        "details": "See {IERC721-getApproved}."
      },
      "getRoleAdmin(bytes32)": {
        "details": "Returns the admin role that controls `role`. See {grantRole} and {revokeRole}. To change a role's admin, use {_setRoleAdmin}."
      },
      "getRoleMember(bytes32,uint256)": {
        "details": "Returns one of the accounts that have `role`. `index` must be a value between 0 and {getRoleMemberCount}, non-inclusive. Role bearers are not sorted in any particular way, and their ordering may change at any point. WARNING: When using {getRoleMember} and {getRoleMemberCount}, make sure you perform all queries on the same block. See the following https://forum.openzeppelin.com/t/iterating-over-elements-on-enumerableset-in-openzeppelin-contracts/2296[forum post] for more information."
      },
      "getRoleMemberCount(bytes32)": {
        "details": "Returns the number of accounts that have `role`. Can be used together with {getRoleMember} to enumerate all bearers of a role."
      },
      "grantRole(bytes32,address)": {
        "details": "Grants `role` to `account`. If `account` had not been already granted `role`, emits a {RoleGranted} event. Requirements: - the caller must have ``role``'s admin role."
      },
      "hasRole(bytes32,address)": {
        "details": "Returns `true` if `account` has been granted `role`."
      },
      "isApprovedForAll(address,address)": {
        "details": "See {IERC721-isApprovedForAll}."
      },
      "name()": {
        "details": "See {IERC721Metadata-name}."
      },
      "ownerOf(uint256)": {
        "details": "See {IERC721-ownerOf}."
      },
      "renounceRole(bytes32,address)": {
        "details": "Revokes `role` from the calling account. Roles are often managed via {grantRole} and {revokeRole}: this function's purpose is to provide a mechanism for accounts to lose their privileges if they are compromised (such as when a trusted device is misplaced). If the calling account had been revoked `role`, emits a {RoleRevoked} event. Requirements: - the caller must be `account`."
      },
      "revokeRole(bytes32,address)": {
        "details": "Revokes `role` from `account`. If `account` had been granted `role`, emits a {RoleRevoked} event. Requirements: - the caller must have ``role``'s admin role."
      },
      "safeTransferFrom(address,address,uint256)": {
        "details": "See {IERC721-safeTransferFrom}."
      },
      "safeTransferFrom(address,address,uint256,bytes)": {
        "details": "See {IERC721-safeTransferFrom}."
      },
      "setApprovalForAll(address,bool)": {
        "details": "See {IERC721-setApprovalForAll}."
      },
      "symbol()": {
        "details": "See {IERC721Metadata-symbol}."
      },
      "tokenURI(uint256)": {
        "details": "See {IERC721Metadata-tokenURI}."
      },
      "transferFrom(address,address,uint256)": {
        "details": "See {IERC721-transferFrom}."
      }
    },
    "version": 1
  },
  "userdoc": {
    "kind": "user",
    "methods": {},
    "version": 1
  }
}