{
  "contractName": "Department",
  "abi": [
    {
      "inputs": [
        {
          "internalType": "address",
          "name": "_rolesContractAddress",
          "type": "address"
        }
      ],
      "stateMutability": "nonpayable",
      "type": "constructor"
    },
    {
      "anonymous": false,
      "inputs": [
        {
          "indexed": true,
          "internalType": "address",
          "name": "owner",
          "type": "address"
        },
        {
          "indexed": true,
          "internalType": "address",
          "name": "approved",
          "type": "address"
        },
        {
          "indexed": true,
          "internalType": "uint256",
          "name": "tokenId",
          "type": "uint256"
        }
      ],
      "name": "Approval",
      "type": "event"
    },
    {
      "anonymous": false,
      "inputs": [
        {
          "indexed": true,
          "internalType": "address",
          "name": "owner",
          "type": "address"
        },
        {
          "indexed": true,
          "internalType": "address",
          "name": "operator",
          "type": "address"
        },
        {
          "indexed": false,
          "internalType": "bool",
          "name": "approved",
          "type": "bool"
        }
      ],
      "name": "ApprovalForAll",
      "type": "event"
    },
    {
      "anonymous": false,
      "inputs": [
        {
          "indexed": true,
          "internalType": "bytes32",
          "name": "role",
          "type": "bytes32"
        },
        {
          "indexed": true,
          "internalType": "bytes32",
          "name": "previousAdminRole",
          "type": "bytes32"
        },
        {
          "indexed": true,
          "internalType": "bytes32",
          "name": "newAdminRole",
          "type": "bytes32"
        }
      ],
      "name": "RoleAdminChanged",
      "type": "event"
    },
    {
      "anonymous": false,
      "inputs": [
        {
          "indexed": true,
          "internalType": "bytes32",
          "name": "role",
          "type": "bytes32"
        },
        {
          "indexed": true,
          "internalType": "address",
          "name": "account",
          "type": "address"
        },
        {
          "indexed": true,
          "internalType": "address",
          "name": "sender",
          "type": "address"
        }
      ],
      "name": "RoleGranted",
      "type": "event"
    },
    {
      "anonymous": false,
      "inputs": [
        {
          "indexed": true,
          "internalType": "bytes32",
          "name": "role",
          "type": "bytes32"
        },
        {
          "indexed": true,
          "internalType": "address",
          "name": "account",
          "type": "address"
        },
        {
          "indexed": true,
          "internalType": "address",
          "name": "sender",
          "type": "address"
        }
      ],
      "name": "RoleRevoked",
      "type": "event"
    },
    {
      "anonymous": false,
      "inputs": [
        {
          "indexed": true,
          "internalType": "address",
          "name": "from",
          "type": "address"
        },
        {
          "indexed": true,
          "internalType": "address",
          "name": "to",
          "type": "address"
        },
        {
          "indexed": true,
          "internalType": "uint256",
          "name": "tokenId",
          "type": "uint256"
        }
      ],
      "name": "Transfer",
      "type": "event"
    },
    {
      "inputs": [],
      "name": "DEFAULT_ADMIN_ROLE",
      "outputs": [
        {
          "internalType": "bytes32",
          "name": "",
          "type": "bytes32"
        }
      ],
      "stateMutability": "view",
      "type": "function",
      "constant": true
    },
    {
      "inputs": [],
      "name": "DEPARTMENT_ROLE",
      "outputs": [
        {
          "internalType": "bytes32",
          "name": "",
          "type": "bytes32"
        }
      ],
      "stateMutability": "view",
      "type": "function",
      "constant": true
    },
    {
      "inputs": [],
      "name": "FACULTY_ROLE",
      "outputs": [
        {
          "internalType": "bytes32",
          "name": "",
          "type": "bytes32"
        }
      ],
      "stateMutability": "view",
      "type": "function",
      "constant": true
    },
    {
      "inputs": [],
      "name": "GRADUATED_ROLE",
      "outputs": [
        {
          "internalType": "bytes32",
          "name": "",
          "type": "bytes32"
        }
      ],
      "stateMutability": "view",
      "type": "function",
      "constant": true
    },
    {
      "inputs": [],
      "name": "INSTRUCTOR_ROLE",
      "outputs": [
        {
          "internalType": "bytes32",
          "name": "",
          "type": "bytes32"
        }
      ],
      "stateMutability": "view",
      "type": "function",
      "constant": true
    },
    {
      "inputs": [],
      "name": "RECTOR_ROLE",
      "outputs": [
        {
          "internalType": "bytes32",
          "name": "",
          "type": "bytes32"
        }
      ],
      "stateMutability": "view",
      "type": "function",
      "constant": true
    },
    {
      "inputs": [],
      "name": "STUDENT_ROLE",
      "outputs": [
        {
          "internalType": "bytes32",
          "name": "",
          "type": "bytes32"
        }
      ],
      "stateMutability": "view",
      "type": "function",
      "constant": true
    },
    {
      "inputs": [
        {
          "internalType": "address",
          "name": "to",
          "type": "address"
        },
        {
          "internalType": "uint256",
          "name": "tokenId",
          "type": "uint256"
        }
      ],
      "name": "approve",
      "outputs": [],
      "stateMutability": "nonpayable",
      "type": "function"
    },
    {
      "inputs": [
        {
          "internalType": "address",
          "name": "owner",
          "type": "address"
        }
      ],
      "name": "balanceOf",
      "outputs": [
        {
          "internalType": "uint256",
          "name": "",
          "type": "uint256"
        }
      ],
      "stateMutability": "view",
      "type": "function",
      "constant": true
    },
    {
      "inputs": [
        {
          "internalType": "uint256",
          "name": "tokenId",
          "type": "uint256"
        }
      ],
      "name": "getApproved",
      "outputs": [
        {
          "internalType": "address",
          "name": "",
          "type": "address"
        }
      ],
      "stateMutability": "view",
      "type": "function",
      "constant": true
    },
    {
      "inputs": [],
      "name": "getDepartmentRoles",
      "outputs": [
        {
          "internalType": "address[]",
          "name": "",
          "type": "address[]"
        }
      ],
      "stateMutability": "view",
      "type": "function",
      "constant": true
    },
    {
      "inputs": [],
      "name": "getFacultyRoles",
      "outputs": [
        {
          "internalType": "address[]",
          "name": "",
          "type": "address[]"
        }
      ],
      "stateMutability": "view",
      "type": "function",
      "constant": true
    },
    {
      "inputs": [],
      "name": "getGraduatedRoles",
      "outputs": [
        {
          "internalType": "address[]",
          "name": "",
          "type": "address[]"
        }
      ],
      "stateMutability": "view",
      "type": "function",
      "constant": true
    },
    {
      "inputs": [],
      "name": "getInstructorRoles",
      "outputs": [
        {
          "internalType": "address[]",
          "name": "",
          "type": "address[]"
        }
      ],
      "stateMutability": "view",
      "type": "function",
      "constant": true
    },
    {
      "inputs": [],
      "name": "getRectorRole",
      "outputs": [
        {
          "internalType": "address",
          "name": "",
          "type": "address"
        }
      ],
      "stateMutability": "view",
      "type": "function",
      "constant": true
    },
    {
      "inputs": [
        {
          "internalType": "bytes32",
          "name": "role",
          "type": "bytes32"
        }
      ],
      "name": "getRoleAdmin",
      "outputs": [
        {
          "internalType": "bytes32",
          "name": "",
          "type": "bytes32"
        }
      ],
      "stateMutability": "view",
      "type": "function",
      "constant": true
    },
    {
      "inputs": [
        {
          "internalType": "bytes32",
          "name": "role",
          "type": "bytes32"
        },
        {
          "internalType": "uint256",
          "name": "index",
          "type": "uint256"
        }
      ],
      "name": "getRoleMember",
      "outputs": [
        {
          "internalType": "address",
          "name": "",
          "type": "address"
        }
      ],
      "stateMutability": "view",
      "type": "function",
      "constant": true
    },
    {
      "inputs": [
        {
          "internalType": "bytes32",
          "name": "role",
          "type": "bytes32"
        }
      ],
      "name": "getRoleMemberCount",
      "outputs": [
        {
          "internalType": "uint256",
          "name": "",
          "type": "uint256"
        }
      ],
      "stateMutability": "view",
      "type": "function",
      "constant": true
    },
    {
      "inputs": [],
      "name": "getStudentRoles",
      "outputs": [
        {
          "internalType": "address[]",
          "name": "",
          "type": "address[]"
        }
      ],
      "stateMutability": "view",
      "type": "function",
      "constant": true
    },
    {
      "inputs": [
        {
          "internalType": "address",
          "name": "account",
          "type": "address"
        }
      ],
      "name": "grantDepartmentRole",
      "outputs": [],
      "stateMutability": "nonpayable",
      "type": "function"
    },
    {
      "inputs": [
        {
          "internalType": "address",
          "name": "account",
          "type": "address"
        }
      ],
      "name": "grantFacultyRole",
      "outputs": [],
      "stateMutability": "nonpayable",
      "type": "function"
    },
    {
      "inputs": [
        {
          "internalType": "address",
          "name": "account",
          "type": "address"
        }
      ],
      "name": "grantGraduatedRole",
      "outputs": [],
      "stateMutability": "nonpayable",
      "type": "function"
    },
    {
      "inputs": [
        {
          "internalType": "address",
          "name": "account",
          "type": "address"
        }
      ],
      "name": "grantInstructorRole",
      "outputs": [],
      "stateMutability": "nonpayable",
      "type": "function"
    },
    {
      "inputs": [
        {
          "internalType": "address",
          "name": "account",
          "type": "address"
        }
      ],
      "name": "grantRectorRole",
      "outputs": [],
      "stateMutability": "nonpayable",
      "type": "function"
    },
    {
      "inputs": [
        {
          "internalType": "bytes32",
          "name": "role",
          "type": "bytes32"
        },
        {
          "internalType": "address",
          "name": "account",
          "type": "address"
        }
      ],
      "name": "grantRole",
      "outputs": [],
      "stateMutability": "nonpayable",
      "type": "function"
    },
    {
      "inputs": [
        {
          "internalType": "address",
          "name": "account",
          "type": "address"
        }
      ],
      "name": "grantStudentRole",
      "outputs": [],
      "stateMutability": "nonpayable",
      "type": "function"
    },
    {
      "inputs": [
        {
          "internalType": "address",
          "name": "account",
          "type": "address"
        }
      ],
      "name": "hasDepartmentRole",
      "outputs": [
        {
          "internalType": "bool",
          "name": "",
          "type": "bool"
        }
      ],
      "stateMutability": "view",
      "type": "function",
      "constant": true
    },
    {
      "inputs": [
        {
          "internalType": "address",
          "name": "account",
          "type": "address"
        }
      ],
      "name": "hasFacultyRole",
      "outputs": [
        {
          "internalType": "bool",
          "name": "",
          "type": "bool"
        }
      ],
      "stateMutability": "view",
      "type": "function",
      "constant": true
    },
    {
      "inputs": [
        {
          "internalType": "address",
          "name": "account",
          "type": "address"
        }
      ],
      "name": "hasGraduatedRole",
      "outputs": [
        {
          "internalType": "bool",
          "name": "",
          "type": "bool"
        }
      ],
      "stateMutability": "view",
      "type": "function",
      "constant": true
    },
    {
      "inputs": [
        {
          "internalType": "address",
          "name": "account",
          "type": "address"
        }
      ],
      "name": "hasInstructorRole",
      "outputs": [
        {
          "internalType": "bool",
          "name": "",
          "type": "bool"
        }
      ],
      "stateMutability": "view",
      "type": "function",
      "constant": true
    },
    {
      "inputs": [
        {
          "internalType": "address",
          "name": "account",
          "type": "address"
        }
      ],
      "name": "hasRectorRole",
      "outputs": [
        {
          "internalType": "bool",
          "name": "",
          "type": "bool"
        }
      ],
      "stateMutability": "view",
      "type": "function",
      "constant": true
    },
    {
      "inputs": [
        {
          "internalType": "bytes32",
          "name": "role",
          "type": "bytes32"
        },
        {
          "internalType": "address",
          "name": "account",
          "type": "address"
        }
      ],
      "name": "hasRole",
      "outputs": [
        {
          "internalType": "bool",
          "name": "",
          "type": "bool"
        }
      ],
      "stateMutability": "view",
      "type": "function",
      "constant": true
    },
    {
      "inputs": [
        {
          "internalType": "address",
          "name": "account",
          "type": "address"
        }
      ],
      "name": "hasStudentRole",
      "outputs": [
        {
          "internalType": "bool",
          "name": "",
          "type": "bool"
        }
      ],
      "stateMutability": "view",
      "type": "function",
      "constant": true
    },
    {
      "inputs": [
        {
          "internalType": "address",
          "name": "_courseContractAddress",
          "type": "address"
        },
        {
          "internalType": "address",
          "name": "_departmentContractAddress",
          "type": "address"
        },
        {
          "internalType": "address",
          "name": "_diplomaContractAddress",
          "type": "address"
        },
        {
          "internalType": "address",
          "name": "_facultyContractAddress",
          "type": "address"
        }
      ],
      "name": "init",
      "outputs": [],
      "stateMutability": "nonpayable",
      "type": "function"
    },
    {
      "inputs": [
        {
          "internalType": "address",
          "name": "owner",
          "type": "address"
        },
        {
          "internalType": "address",
          "name": "operator",
          "type": "address"
        }
      ],
      "name": "isApprovedForAll",
      "outputs": [
        {
          "internalType": "bool",
          "name": "",
          "type": "bool"
        }
      ],
      "stateMutability": "view",
      "type": "function",
      "constant": true
    },
    {
      "inputs": [],
      "name": "name",
      "outputs": [
        {
          "internalType": "string",
          "name": "",
          "type": "string"
        }
      ],
      "stateMutability": "view",
      "type": "function",
      "constant": true
    },
    {
      "inputs": [
        {
          "internalType": "uint256",
          "name": "tokenId",
          "type": "uint256"
        }
      ],
      "name": "ownerOf",
      "outputs": [
        {
          "internalType": "address",
          "name": "",
          "type": "address"
        }
      ],
      "stateMutability": "view",
      "type": "function",
      "constant": true
    },
    {
      "inputs": [
        {
          "internalType": "bytes32",
          "name": "role",
          "type": "bytes32"
        },
        {
          "internalType": "address",
          "name": "account",
          "type": "address"
        }
      ],
      "name": "renounceRole",
      "outputs": [],
      "stateMutability": "nonpayable",
      "type": "function"
    },
    {
      "inputs": [
        {
          "internalType": "address",
          "name": "account",
          "type": "address"
        }
      ],
      "name": "revokeDepartmentRole",
      "outputs": [],
      "stateMutability": "nonpayable",
      "type": "function"
    },
    {
      "inputs": [
        {
          "internalType": "address",
          "name": "account",
          "type": "address"
        }
      ],
      "name": "revokeFacultyRole",
      "outputs": [],
      "stateMutability": "nonpayable",
      "type": "function"
    },
    {
      "inputs": [
        {
          "internalType": "address",
          "name": "account",
          "type": "address"
        }
      ],
      "name": "revokeInstructorRole",
      "outputs": [],
      "stateMutability": "nonpayable",
      "type": "function"
    },
    {
      "inputs": [
        {
          "internalType": "bytes32",
          "name": "role",
          "type": "bytes32"
        },
        {
          "internalType": "address",
          "name": "account",
          "type": "address"
        }
      ],
      "name": "revokeRole",
      "outputs": [],
      "stateMutability": "nonpayable",
      "type": "function"
    },
    {
      "inputs": [
        {
          "internalType": "address",
          "name": "account",
          "type": "address"
        }
      ],
      "name": "revokeStudentRole",
      "outputs": [],
      "stateMutability": "nonpayable",
      "type": "function"
    },
    {
      "inputs": [
        {
          "internalType": "address",
          "name": "operator",
          "type": "address"
        },
        {
          "internalType": "bool",
          "name": "approved",
          "type": "bool"
        }
      ],
      "name": "setApprovalForAll",
      "outputs": [],
      "stateMutability": "nonpayable",
      "type": "function"
    },
    {
      "inputs": [],
      "name": "symbol",
      "outputs": [
        {
          "internalType": "string",
          "name": "",
          "type": "string"
        }
      ],
      "stateMutability": "view",
      "type": "function",
      "constant": true
    },
    {
      "inputs": [
        {
          "internalType": "uint256",
          "name": "tokenId",
          "type": "uint256"
        }
      ],
      "name": "tokenURI",
      "outputs": [
        {
          "internalType": "string",
          "name": "",
          "type": "string"
        }
      ],
      "stateMutability": "view",
      "type": "function",
      "constant": true
    },
    {
      "inputs": [
        {
          "internalType": "string",
          "name": "_departmentName",
          "type": "string"
        },
        {
          "internalType": "address",
          "name": "departmentAddress",
          "type": "address"
        },
        {
          "internalType": "address",
          "name": "facultyAddress",
          "type": "address"
        }
      ],
      "name": "mint",
      "outputs": [],
      "stateMutability": "nonpayable",
      "type": "function"
    },
    {
      "inputs": [
        {
          "internalType": "uint256",
          "name": "id",
          "type": "uint256"
        }
      ],
      "name": "getDepartmentName",
      "outputs": [
        {
          "internalType": "string",
          "name": "departmentName",
          "type": "string"
        }
      ],
      "stateMutability": "view",
      "type": "function",
      "constant": true
    },
    {
      "inputs": [
        {
          "internalType": "string",
          "name": "departmentName",
          "type": "string"
        }
      ],
      "name": "getDepartmentID",
      "outputs": [
        {
          "internalType": "uint256",
          "name": "departmentID",
          "type": "uint256"
        }
      ],
      "stateMutability": "view",
      "type": "function",
      "constant": true
    },
    {
      "inputs": [],
      "name": "getTotalSupply",
      "outputs": [
        {
          "internalType": "uint256",
          "name": "totalSupply",
          "type": "uint256"
        }
      ],
      "stateMutability": "view",
      "type": "function",
      "constant": true
    },
    {
      "inputs": [
        {
          "internalType": "uint256",
          "name": "id",
          "type": "uint256"
        }
      ],
      "name": "getFaculty",
      "outputs": [
        {
          "internalType": "address",
          "name": "",
          "type": "address"
        }
      ],
      "stateMutability": "view",
      "type": "function",
      "constant": true
    },
    {
      "inputs": [
        {
          "internalType": "uint256",
          "name": "id",
          "type": "uint256"
        }
      ],
      "name": "getInstructors",
      "outputs": [
        {
          "internalType": "address[]",
          "name": "",
          "type": "address[]"
        }
      ],
      "stateMutability": "view",
      "type": "function",
      "constant": true
    },
    {
      "inputs": [
        {
          "internalType": "uint256",
          "name": "id",
          "type": "uint256"
        },
        {
          "internalType": "address[]",
          "name": "instructors",
          "type": "address[]"
        }
      ],
      "name": "setInstructors",
      "outputs": [],
      "stateMutability": "nonpayable",
      "type": "function"
    },
    {
      "inputs": [
        {
          "internalType": "uint256",
          "name": "id",
          "type": "uint256"
        }
      ],
      "name": "getStudents",
      "outputs": [
        {
          "internalType": "address[]",
          "name": "",
          "type": "address[]"
        }
      ],
      "stateMutability": "view",
      "type": "function",
      "constant": true
    },
    {
      "inputs": [
        {
          "internalType": "uint256",
          "name": "id",
          "type": "uint256"
        },
        {
          "internalType": "address[]",
          "name": "students",
          "type": "address[]"
        }
      ],
      "name": "setStudents",
      "outputs": [],
      "stateMutability": "nonpayable",
      "type": "function"
    },
    {
      "inputs": [
        {
          "internalType": "address",
          "name": "from",
          "type": "address"
        },
        {
          "internalType": "address",
          "name": "to",
          "type": "address"
        },
        {
          "internalType": "uint256",
          "name": "tokenId",
          "type": "uint256"
        }
      ],
      "name": "transferFrom",
      "outputs": [],
      "stateMutability": "nonpayable",
      "type": "function"
    },
    {
      "inputs": [
        {
          "internalType": "address",
          "name": "from",
          "type": "address"
        },
        {
          "internalType": "address",
          "name": "to",
          "type": "address"
        },
        {
          "internalType": "uint256",
          "name": "tokenId",
          "type": "uint256"
        }
      ],
      "name": "safeTransferFrom",
      "outputs": [],
      "stateMutability": "nonpayable",
      "type": "function"
    },
    {
      "inputs": [
        {
          "internalType": "address",
          "name": "from",
          "type": "address"
        },
        {
          "internalType": "address",
          "name": "to",
          "type": "address"
        },
        {
          "internalType": "uint256",
          "name": "tokenId",
          "type": "uint256"
        },
        {
          "internalType": "bytes",
          "name": "_data",
          "type": "bytes"
        }
      ],
      "name": "safeTransferFrom",
      "outputs": [],
      "stateMutability": "nonpayable",
      "type": "function"
    },
    {
      "inputs": [
        {
          "internalType": "bytes4",
          "name": "interfaceId",
          "type": "bytes4"
        }
      ],
      "name": "supportsInterface",
      "outputs": [
        {
          "internalType": "bool",
          "name": "",
          "type": "bool"
        }
      ],
      "stateMutability": "view",
      "type": "function",
      "constant": true
    }
  ],
  "bytecode": "0x60806040526000600f553480156200001657600080fd5b50604051620061a7380380620061a783398181016040528101906200003c919062000564565b6040518060400160405280600a81526020017f4465706172746d656e74000000000000000000000000000000000000000000008152506040518060400160405280600381526020017f44455000000000000000000000000000000000000000000000000000000000008152508160009080519060200190620000c09291906200044a565b508060019080519060200190620000d99291906200044a565b505050620000f16000801b33620001b260201b60201c565b620001237f5f1d1e303f9c0a1801dd708bdc4239781d66c88ca6cb941c5769ba09b5c1b28533620001b260201b60201c565b620001386000801b33620001b260201b60201c565b6200016a7f5f1d1e303f9c0a1801dd708bdc4239781d66c88ca6cb941c5769ba09b5c1b28533620001b260201b60201c565b80600e60006101000a81548173ffffffffffffffffffffffffffffffffffffffff021916908373ffffffffffffffffffffffffffffffffffffffff16021790555050620005fb565b620001c48282620001c860201b60201c565b5050565b620001df82826200021060201b620027161760201c565b6200020b81600760008581526020019081526020016000206200030260201b620027f71790919060201c565b505050565b6200022282826200033a60201b60201c565b620002fe5760016006600084815260200190815260200160002060000160008373ffffffffffffffffffffffffffffffffffffffff1673ffffffffffffffffffffffffffffffffffffffff16815260200190815260200160002060006101000a81548160ff021916908315150217905550620002a3620003a560201b60201c565b73ffffffffffffffffffffffffffffffffffffffff168173ffffffffffffffffffffffffffffffffffffffff16837f2f8788117e7eff1d82e926ec794901d17c78024a50270940304540a733656f0d60405160405180910390a45b5050565b600062000332836000018373ffffffffffffffffffffffffffffffffffffffff1660001b620003ad60201b60201c565b905092915050565b60006006600084815260200190815260200160002060000160008373ffffffffffffffffffffffffffffffffffffffff1673ffffffffffffffffffffffffffffffffffffffff16815260200190815260200160002060009054906101000a900460ff16905092915050565b600033905090565b6000620003c183836200042760201b60201c565b6200041c57826000018290806001815401808255809150506001900390600052602060002001600090919091909150558260000180549050836001016000848152602001908152602001600020819055506001905062000421565b600090505b92915050565b600080836001016000848152602001908152602001600020541415905092915050565b8280546200045890620005c5565b90600052602060002090601f0160209004810192826200047c5760008555620004c8565b82601f106200049757805160ff1916838001178555620004c8565b82800160010185558215620004c8579182015b82811115620004c7578251825591602001919060010190620004aa565b5b509050620004d79190620004db565b5090565b5b80821115620004f6576000816000905550600101620004dc565b5090565b600080fd5b600073ffffffffffffffffffffffffffffffffffffffff82169050919050565b60006200052c82620004ff565b9050919050565b6200053e816200051f565b81146200054a57600080fd5b50565b6000815190506200055e8162000533565b92915050565b6000602082840312156200057d576200057c620004fa565b5b60006200058d848285016200054d565b91505092915050565b7f4e487b7100000000000000000000000000000000000000000000000000000000600052602260045260246000fd5b60006002820490506001821680620005de57607f821691505b60208210811415620005f557620005f462000596565b5b50919050565b615b9c806200060b6000396000f3fe608060405234801561001057600080fd5b50600436106103995760003560e01c80637e6d945e116101e9578063b82076ec1161010f578063ca15c873116100ad578063e78af7c51161007c578063e78af7c514610b28578063e985e9c514610b58578063f7be43fb14610b88578063fc3ba6b414610ba657610399565b8063ca15c87314610a8e578063d547741f14610abe578063db0b1fee14610ada578063e17f6b2c14610af857610399565b8063ba5adbd1116100e9578063ba5adbd114610a06578063c4e41b2214610a24578063c87b56dd14610a42578063c94d10ad14610a7257610399565b8063b82076ec146109b2578063b88d4fde146109ce578063b9447051146109ea57610399565b806395d89b4111610187578063a217fddf11610156578063a217fddf1461092a578063a22cb46514610948578063ac88aa4b14610964578063ad7be93a1461099457610399565b806395d89b41146108a0578063973c4b6c146108be5780639822a599146108dc578063996dc0221461090c57610399565b80638bcf979c116101c35780638bcf979c146108065780638df6674a146108245780639010d07c1461084057806391d148541461087057610399565b80637e6d945e1461079e57806384443dce146107ba57806386f8e92c146107ea57610399565b80632f2ff15d116102ce5780635e3c7e8e1161026c5780636fe3ceb81161023b5780636fe3ceb8146106f057806370a082311461070e5780637168c27d1461073e57806375c2f8f01461076e57610399565b80635e3c7e8e1461066a5780635ea07b1c146106885780635f1d514e146106a45780636352211e146106c057610399565b806342842e0e116102a857806342842e0e146105e657806344d199731461060257806347519ab71461061e578063529f790c1461064e57610399565b80632f2ff15d1461059257806332b3c846146105ae57806336568abe146105ca57610399565b806316bec7811161033b578063248a9ca311610315578063248a9ca3146104f657806324d42a37146105265780632b1533c4146105445780632be7dc441461056257610399565b806316bec7811461048c5780631fd76cfb146104aa57806323b872dd146104da57610399565b806306fdde031161037757806306fdde0314610406578063081812fc14610424578063095ea7b31461045457806312fb59f21461047057610399565b806301ffc9a71461039e5780630252dffc146103ce57806306552ff3146103ea575b600080fd5b6103b860048036038101906103b3919061407f565b610bd6565b6040516103c591906140c7565b60405180910390f35b6103e860048036038101906103e39190614140565b610be8565b005b61040460048036038101906103ff919061416d565b610c54565b005b61040e610d69565b60405161041b919061426d565b60405180910390f35b61043e600480360381019061043991906142c5565b610dfb565b60405161044b9190614301565b60405180910390f35b61046e6004803603810190610469919061431c565b610e80565b005b61048a60048036038101906104859190614140565b610f98565b005b61049461105b565b6040516104a1919061441a565b60405180910390f35b6104c460048036038101906104bf91906142c5565b6110e9565b6040516104d19190614301565b60405180910390f35b6104f460048036038101906104ef919061443c565b611126565b005b610510600480360381019061050b91906144c5565b6111a5565b60405161051d9190614501565b60405180910390f35b61052e6111c5565b60405161053b9190614501565b60405180910390f35b61054c6111e9565b604051610559919061441a565b60405180910390f35b61057c60048036038101906105779190614140565b611277565b60405161058991906140c7565b60405180910390f35b6105ac60048036038101906105a7919061451c565b6112aa565b005b6105c860048036038101906105c39190614140565b6112d3565b005b6105e460048036038101906105df919061451c565b61133f565b005b61060060048036038101906105fb919061443c565b6113c2565b005b61061c600480360381019061061791906146a4565b611441565b005b610638600480360381019061063391906142c5565b61146d565b604051610645919061441a565b60405180910390f35b61066860048036038101906106639190614140565b61150e565b005b6106726115d1565b60405161067f919061441a565b60405180910390f35b6106a2600480360381019061069d9190614140565b61165f565b005b6106be60048036038101906106b99190614140565b6117b5565b005b6106da60048036038101906106d591906142c5565b611878565b6040516106e79190614301565b60405180910390f35b6106f861192a565b6040516107059190614501565b60405180910390f35b61072860048036038101906107239190614140565b61194e565b604051610735919061470f565b60405180910390f35b61075860048036038101906107539190614140565b611a06565b60405161076591906140c7565b60405180910390f35b610788600480360381019061078391906142c5565b611a39565b604051610795919061441a565b60405180910390f35b6107b860048036038101906107b391906147df565b611ada565b005b6107d460048036038101906107cf91906142c5565b611d9f565b6040516107e1919061426d565b60405180910390f35b61080460048036038101906107ff9190614140565b611e44565b005b61080e611eb0565b60405161081b9190614501565b60405180910390f35b61083e60048036038101906108399190614140565b611ed4565b005b61085a6004803603810190610855919061484e565b611fb9565b6040516108679190614301565b60405180910390f35b61088a6004803603810190610885919061451c565b611fe8565b60405161089791906140c7565b60405180910390f35b6108a8612053565b6040516108b5919061426d565b60405180910390f35b6108c66120e5565b6040516108d39190614301565b60405180910390f35b6108f660048036038101906108f19190614140565b61210f565b60405161090391906140c7565b60405180910390f35b610914612142565b6040516109219190614501565b60405180910390f35b610932612166565b60405161093f9190614501565b60405180910390f35b610962600480360381019061095d91906148ba565b61216d565b005b61097e600480360381019061097991906148fa565b612183565b60405161098b919061470f565b60405180910390f35b61099c6121ab565b6040516109a99190614501565b60405180910390f35b6109cc60048036038101906109c791906146a4565b6121cf565b005b6109e860048036038101906109e391906149e4565b6121fb565b005b610a0460048036038101906109ff9190614140565b61227c565b005b610a0e6122e8565b604051610a1b919061441a565b60405180910390f35b610a2c612376565b604051610a39919061470f565b60405180910390f35b610a5c6004803603810190610a5791906142c5565b612380565b604051610a69919061426d565b60405180910390f35b610a8c6004803603810190610a879190614140565b612427565b005b610aa86004803603810190610aa391906144c5565b6124ea565b604051610ab5919061470f565b60405180910390f35b610ad86004803603810190610ad3919061451c565b61250e565b005b610ae2612537565b604051610aef919061441a565b60405180910390f35b610b126004803603810190610b0d9190614140565b6125c5565b604051610b1f91906140c7565b60405180910390f35b610b426004803603810190610b3d9190614140565b6125f8565b604051610b4f91906140c7565b60405180910390f35b610b726004803603810190610b6d9190614a67565b61262b565b604051610b7f91906140c7565b60405180910390f35b610b906126bf565b604051610b9d9190614501565b60405180910390f35b610bc06004803603810190610bbb9190614140565b6126e3565b604051610bcd91906140c7565b60405180910390f35b6000610be182612827565b9050919050565b7f5f1d1e303f9c0a1801dd708bdc4239781d66c88ca6cb941c5769ba09b5c1b285610c1a81610c156128a1565b6128a9565b610c447fe7837d04f36ce0b2f3cc662bf1b2b632a7fbd12ae95199e8bd3dcfbcc440b66b8361250e565b610c4f82600a612946565b505050565b7f5f1d1e303f9c0a1801dd708bdc4239781d66c88ca6cb941c5769ba09b5c1b285610c8681610c816128a1565b6128a9565b610c936000801b86612b5a565b610cbd7f5f1d1e303f9c0a1801dd708bdc4239781d66c88ca6cb941c5769ba09b5c1b28586612b5a565b610cca6000801b85612b5a565b610cf47f5f1d1e303f9c0a1801dd708bdc4239781d66c88ca6cb941c5769ba09b5c1b28585612b5a565b610d016000801b84612b5a565b610d2b7f5f1d1e303f9c0a1801dd708bdc4239781d66c88ca6cb941c5769ba09b5c1b28584612b5a565b610d386000801b83612b5a565b610d627f5f1d1e303f9c0a1801dd708bdc4239781d66c88ca6cb941c5769ba09b5c1b28583612b5a565b5050505050565b606060008054610d7890614ad6565b80601f0160208091040260200160405190810160405280929190818152602001828054610da490614ad6565b8015610df15780601f10610dc657610100808354040283529160200191610df1565b820191906000526020600020905b815481529060010190602001808311610dd457829003601f168201915b5050505050905090565b6000610e0682612b68565b610e45576040517f08c379a0000000000000000000000000000000000000000000000000000000008152600401610e3c90614b7a565b60405180910390fd5b6004600083815260200190815260200160002060009054906101000a900473ffffffffffffffffffffffffffffffffffffffff169050919050565b6000610e8b82611878565b90508073ffffffffffffffffffffffffffffffffffffffff168373ffffffffffffffffffffffffffffffffffffffff161415610efc576040517f08c379a0000000000000000000000000000000000000000000000000000000008152600401610ef390614c0c565b60405180910390fd5b8073ffffffffffffffffffffffffffffffffffffffff16610f1b6128a1565b73ffffffffffffffffffffffffffffffffffffffff161480610f4a5750610f4981610f446128a1565b61262b565b5b610f89576040517f08c379a0000000000000000000000000000000000000000000000000000000008152600401610f8090614c9e565b60405180910390fd5b610f938383612bd4565b505050565b7f5f1d1e303f9c0a1801dd708bdc4239781d66c88ca6cb941c5769ba09b5c1b285610fca81610fc56128a1565b6128a9565b610ff47fe7837d04f36ce0b2f3cc662bf1b2b632a7fbd12ae95199e8bd3dcfbcc440b66b836112aa565b600a829080600181540180825580915050600190039060005260206000200160009091909190916101000a81548173ffffffffffffffffffffffffffffffffffffffff021916908373ffffffffffffffffffffffffffffffffffffffff1602179055505050565b6060600a8054806020026020016040519081016040528092919081815260200182805480156110df57602002820191906000526020600020905b8160009054906101000a900473ffffffffffffffffffffffffffffffffffffffff1673ffffffffffffffffffffffffffffffffffffffff1681526020019060010190808311611095575b5050505050905090565b60006012600083815260200190815260200160002060009054906101000a900473ffffffffffffffffffffffffffffffffffffffff169050919050565b600073ffffffffffffffffffffffffffffffffffffffff163373ffffffffffffffffffffffffffffffffffffffff1614611195576040517f08c379a000000000000000000000000000000000000000000000000000000000815260040161118c90614d30565b60405180910390fd5b6111a0838383612c8d565b505050565b600060066000838152602001908152602001600020600101549050919050565b7f5f1d1e303f9c0a1801dd708bdc4239781d66c88ca6cb941c5769ba09b5c1b28581565b6060600980548060200260200160405190810160405280929190818152602001828054801561126d57602002820191906000526020600020905b8160009054906101000a900473ffffffffffffffffffffffffffffffffffffffff1673ffffffffffffffffffffffffffffffffffffffff1681526020019060010190808311611223575b5050505050905090565b60006112a37f5f1d1e303f9c0a1801dd708bdc4239781d66c88ca6cb941c5769ba09b5c1b28583611fe8565b9050919050565b6112b3826111a5565b6112c4816112bf6128a1565b6128a9565b6112ce8383612ced565b505050565b7f5f1d1e303f9c0a1801dd708bdc4239781d66c88ca6cb941c5769ba09b5c1b285611305816113006128a1565b6128a9565b61132f7f36a5c4aaacb6b388bbd448bf11096b7dafc5652bcc9046084fd0e95b1fb0b2cc8361250e565b61133a82600c612946565b505050565b6113476128a1565b73ffffffffffffffffffffffffffffffffffffffff168173ffffffffffffffffffffffffffffffffffffffff16146113b4576040517f08c379a00000000000000000000000000000000000000000000000000000000081526004016113ab90614dc2565b60405180910390fd5b6113be8282612d21565b5050565b600073ffffffffffffffffffffffffffffffffffffffff163373ffffffffffffffffffffffffffffffffffffffff1614611431576040517f08c379a000000000000000000000000000000000000000000000000000000000815260040161142890614d30565b60405180910390fd5b61143c838383612d55565b505050565b80601460008481526020019081526020016000209080519060200190611468929190613ee6565b505050565b60606013600083815260200190815260200160002080548060200260200160405190810160405280929190818152602001828054801561150257602002820191906000526020600020905b8160009054906101000a900473ffffffffffffffffffffffffffffffffffffffff1673ffffffffffffffffffffffffffffffffffffffff16815260200190600101908083116114b8575b50505050509050919050565b7f5f1d1e303f9c0a1801dd708bdc4239781d66c88ca6cb941c5769ba09b5c1b2856115408161153b6128a1565b6128a9565b61156a7ff3f9cfff7b46f415da5a492b1718971da203f87c6aae9299e7b408eb83ef8bee836112aa565b6009829080600181540180825580915050600190039060005260206000200160009091909190916101000a81548173ffffffffffffffffffffffffffffffffffffffff021916908373ffffffffffffffffffffffffffffffffffffffff1602179055505050565b6060600b80548060200260200160405190810160405280929190818152602001828054801561165557602002820191906000526020600020905b8160009054906101000a900473ffffffffffffffffffffffffffffffffffffffff1673ffffffffffffffffffffffffffffffffffffffff168152602001906001019080831161160b575b5050505050905090565b7f5f1d1e303f9c0a1801dd708bdc4239781d66c88ca6cb941c5769ba09b5c1b2856116918161168c6128a1565b6128a9565b6116bb7f36a5c4aaacb6b388bbd448bf11096b7dafc5652bcc9046084fd0e95b1fb0b2cc83611fe8565b6116fa576040517f08c379a00000000000000000000000000000000000000000000000000000000081526004016116f190614e2e565b60405180910390fd5b6117247f36a5c4aaacb6b388bbd448bf11096b7dafc5652bcc9046084fd0e95b1fb0b2cc8361250e565b61174e7f4758f7d70d6088cbfad5c79861ac6457ba2af02adf5ea419e97879ae24459cb6836112aa565b600d829080600181540180825580915050600190039060005260206000200160009091909190916101000a81548173ffffffffffffffffffffffffffffffffffffffff021916908373ffffffffffffffffffffffffffffffffffffffff1602179055505050565b7f5f1d1e303f9c0a1801dd708bdc4239781d66c88ca6cb941c5769ba09b5c1b2856117e7816117e26128a1565b6128a9565b6118117fae4a0595970935aa5495afbbb72e5f1f6ff1062766b4a3028c0c9b7d5cf7e345836112aa565b600b829080600181540180825580915050600190039060005260206000200160009091909190916101000a81548173ffffffffffffffffffffffffffffffffffffffff021916908373ffffffffffffffffffffffffffffffffffffffff1602179055505050565b6000806002600084815260200190815260200160002060009054906101000a900473ffffffffffffffffffffffffffffffffffffffff169050600073ffffffffffffffffffffffffffffffffffffffff168173ffffffffffffffffffffffffffffffffffffffff161415611921576040517f08c379a000000000000000000000000000000000000000000000000000000000815260040161191890614ec0565b60405180910390fd5b80915050919050565b7ff3f9cfff7b46f415da5a492b1718971da203f87c6aae9299e7b408eb83ef8bee81565b60008073ffffffffffffffffffffffffffffffffffffffff168273ffffffffffffffffffffffffffffffffffffffff1614156119bf576040517f08c379a00000000000000000000000000000000000000000000000000000000081526004016119b690614f52565b60405180910390fd5b600360008373ffffffffffffffffffffffffffffffffffffffff1673ffffffffffffffffffffffffffffffffffffffff168152602001908152602001600020549050919050565b6000611a327f4758f7d70d6088cbfad5c79861ac6457ba2af02adf5ea419e97879ae24459cb683611fe8565b9050919050565b606060146000838152602001908152602001600020805480602002602001604051908101604052809291908181526020018280548015611ace57602002820191906000526020600020905b8160009054906101000a900473ffffffffffffffffffffffffffffffffffffffff1673ffffffffffffffffffffffffffffffffffffffff1681526020019060010190808311611a84575b50505050509050919050565b7f5f1d1e303f9c0a1801dd708bdc4239781d66c88ca6cb941c5769ba09b5c1b285611b0c81611b076128a1565b6128a9565b6000601185604051611b1e9190614fae565b90815260200160405180910390205414611b6d576040517f08c379a0000000000000000000000000000000000000000000000000000000008152600401611b6490615011565b60405180910390fd5b611b7683610f98565b611ba07fe7837d04f36ce0b2f3cc662bf1b2b632a7fbd12ae95199e8bd3dcfbcc440b66b84611fe8565b611bdf576040517f08c379a0000000000000000000000000000000000000000000000000000000008152600401611bd6906150a3565b60405180910390fd5b604051602001611bee906150e9565b6040516020818303038152906040528051906020012084604051602001611c159190614fae565b604051602081830303815290604052805190602001201415611c6c576040517f08c379a0000000000000000000000000000000000000000000000000000000008152600401611c639061514a565b60405180910390fd5b611c967ff3f9cfff7b46f415da5a492b1718971da203f87c6aae9299e7b408eb83ef8bee83611fe8565b611cd5576040517f08c379a0000000000000000000000000000000000000000000000000000000008152600401611ccc906151dc565b60405180910390fd5b6001600f54611ce4919061522b565b600f819055506000600f549050611cfb8482612d75565b80601186604051611d0c9190614fae565b90815260200160405180910390208190555084601060008381526020019081526020016000209080519060200190611d45929190613f70565b50826012600083815260200190815260200160002060006101000a81548173ffffffffffffffffffffffffffffffffffffffff021916908373ffffffffffffffffffffffffffffffffffffffff1602179055505050505050565b6060601060008381526020019081526020016000208054611dbf90614ad6565b80601f0160208091040260200160405190810160405280929190818152602001828054611deb90614ad6565b8015611e385780601f10611e0d57610100808354040283529160200191611e38565b820191906000526020600020905b815481529060010190602001808311611e1b57829003601f168201915b50505050509050919050565b7f5f1d1e303f9c0a1801dd708bdc4239781d66c88ca6cb941c5769ba09b5c1b285611e7681611e716128a1565b6128a9565b611ea07fae4a0595970935aa5495afbbb72e5f1f6ff1062766b4a3028c0c9b7d5cf7e3458361250e565b611eab82600b612946565b505050565b7fae4a0595970935aa5495afbbb72e5f1f6ff1062766b4a3028c0c9b7d5cf7e34581565b7f5f1d1e303f9c0a1801dd708bdc4239781d66c88ca6cb941c5769ba09b5c1b285611f0681611f016128a1565b6128a9565b611f307f5f1d1e303f9c0a1801dd708bdc4239781d66c88ca6cb941c5769ba09b5c1b285836112aa565b611f3d6000801b836112aa565b611f4a6000801b3361133f565b611f747f5f1d1e303f9c0a1801dd708bdc4239781d66c88ca6cb941c5769ba09b5c1b2853361133f565b81600860006101000a81548173ffffffffffffffffffffffffffffffffffffffff021916908373ffffffffffffffffffffffffffffffffffffffff1602179055505050565b6000611fe08260076000868152602001908152602001600020612f4390919063ffffffff16565b905092915050565b60006006600084815260200190815260200160002060000160008373ffffffffffffffffffffffffffffffffffffffff1673ffffffffffffffffffffffffffffffffffffffff16815260200190815260200160002060009054906101000a900460ff16905092915050565b60606001805461206290614ad6565b80601f016020809104026020016040519081016040528092919081815260200182805461208e90614ad6565b80156120db5780601f106120b0576101008083540402835291602001916120db565b820191906000526020600020905b8154815290600101906020018083116120be57829003601f168201915b5050505050905090565b6000600860009054906101000a900473ffffffffffffffffffffffffffffffffffffffff16905090565b600061213b7fae4a0595970935aa5495afbbb72e5f1f6ff1062766b4a3028c0c9b7d5cf7e34583611fe8565b9050919050565b7fe7837d04f36ce0b2f3cc662bf1b2b632a7fbd12ae95199e8bd3dcfbcc440b66b81565b6000801b81565b61217f6121786128a1565b8383612f5d565b5050565b60006011826040516121959190614fae565b9081526020016040518091039020549050919050565b7f4758f7d70d6088cbfad5c79861ac6457ba2af02adf5ea419e97879ae24459cb681565b806013600084815260200190815260200160002090805190602001906121f6929190613ee6565b505050565b600073ffffffffffffffffffffffffffffffffffffffff163373ffffffffffffffffffffffffffffffffffffffff161461226a576040517f08c379a000000000000000000000000000000000000000000000000000000000815260040161226190614d30565b60405180910390fd5b612276848484846130ca565b50505050565b7f5f1d1e303f9c0a1801dd708bdc4239781d66c88ca6cb941c5769ba09b5c1b2856122ae816122a96128a1565b6128a9565b6122d87ff3f9cfff7b46f415da5a492b1718971da203f87c6aae9299e7b408eb83ef8bee8361250e565b6122e3826009612946565b505050565b6060600c80548060200260200160405190810160405280929190818152602001828054801561236c57602002820191906000526020600020905b8160009054906101000a900473ffffffffffffffffffffffffffffffffffffffff1673ffffffffffffffffffffffffffffffffffffffff1681526020019060010190808311612322575b5050505050905090565b6000600f54905090565b606061238b82612b68565b6123ca576040517f08c379a00000000000000000000000000000000000000000000000000000000081526004016123c1906152f3565b60405180910390fd5b60006123d461312c565b905060008151116123f4576040518060200160405280600081525061241f565b806123fe84613143565b60405160200161240f929190615313565b6040516020818303038152906040525b915050919050565b7f5f1d1e303f9c0a1801dd708bdc4239781d66c88ca6cb941c5769ba09b5c1b285612459816124546128a1565b6128a9565b6124837f36a5c4aaacb6b388bbd448bf11096b7dafc5652bcc9046084fd0e95b1fb0b2cc836112aa565b600c829080600181540180825580915050600190039060005260206000200160009091909190916101000a81548173ffffffffffffffffffffffffffffffffffffffff021916908373ffffffffffffffffffffffffffffffffffffffff1602179055505050565b6000612507600760008481526020019081526020016000206132a4565b9050919050565b612517826111a5565b612528816125236128a1565b6128a9565b6125328383612d21565b505050565b6060600d8054806020026020016040519081016040528092919081815260200182805480156125bb57602002820191906000526020600020905b8160009054906101000a900473ffffffffffffffffffffffffffffffffffffffff1673ffffffffffffffffffffffffffffffffffffffff1681526020019060010190808311612571575b5050505050905090565b60006125f17fe7837d04f36ce0b2f3cc662bf1b2b632a7fbd12ae95199e8bd3dcfbcc440b66b83611fe8565b9050919050565b60006126247ff3f9cfff7b46f415da5a492b1718971da203f87c6aae9299e7b408eb83ef8bee83611fe8565b9050919050565b6000600560008473ffffffffffffffffffffffffffffffffffffffff1673ffffffffffffffffffffffffffffffffffffffff16815260200190815260200160002060008373ffffffffffffffffffffffffffffffffffffffff1673ffffffffffffffffffffffffffffffffffffffff16815260200190815260200160002060009054906101000a900460ff16905092915050565b7f36a5c4aaacb6b388bbd448bf11096b7dafc5652bcc9046084fd0e95b1fb0b2cc81565b600061270f7f36a5c4aaacb6b388bbd448bf11096b7dafc5652bcc9046084fd0e95b1fb0b2cc83611fe8565b9050919050565b6127208282611fe8565b6127f35760016006600084815260200190815260200160002060000160008373ffffffffffffffffffffffffffffffffffffffff1673ffffffffffffffffffffffffffffffffffffffff16815260200190815260200160002060006101000a81548160ff0219169083151502179055506127986128a1565b73ffffffffffffffffffffffffffffffffffffffff168173ffffffffffffffffffffffffffffffffffffffff16837f2f8788117e7eff1d82e926ec794901d17c78024a50270940304540a733656f0d60405160405180910390a45b5050565b600061281f836000018373ffffffffffffffffffffffffffffffffffffffff1660001b6132b9565b905092915050565b60007f5a05180f000000000000000000000000000000000000000000000000000000007bffffffffffffffffffffffffffffffffffffffffffffffffffffffff1916827bffffffffffffffffffffffffffffffffffffffffffffffffffffffff1916148061289a575061289982613329565b5b9050919050565b600033905090565b6128b38282611fe8565b612942576128d88173ffffffffffffffffffffffffffffffffffffffff1660146133a3565b6128e68360001c60206133a3565b6040516020016128f79291906153cf565b6040516020818303038152906040526040517f08c379a0000000000000000000000000000000000000000000000000000000008152600401612939919061426d565b60405180910390fd5b5050565b606060005b8280549050811015612acb578373ffffffffffffffffffffffffffffffffffffffff1683828154811061298157612980615409565b5b9060005260206000200160009054906101000a900473ffffffffffffffffffffffffffffffffffffffff1673ffffffffffffffffffffffffffffffffffffffff161415612ab85782600184805490506129da9190615438565b815481106129eb576129ea615409565b5b9060005260206000200160009054906101000a900473ffffffffffffffffffffffffffffffffffffffff16838281548110612a2957612a28615409565b5b9060005260206000200160006101000a81548173ffffffffffffffffffffffffffffffffffffffff021916908373ffffffffffffffffffffffffffffffffffffffff16021790555082805480612a8257612a8161546c565b5b6001900381819060005260206000200160006101000a81549073ffffffffffffffffffffffffffffffffffffffff021916905590555b8080612ac39061549b565b91505061294b565b5081805480602002602001604051908101604052809291908181526020018280548015612b4d57602002820191906000526020600020905b8160009054906101000a900473ffffffffffffffffffffffffffffffffffffffff1673ffffffffffffffffffffffffffffffffffffffff1681526020019060010190808311612b03575b5050505050905092915050565b612b648282612ced565b5050565b60008073ffffffffffffffffffffffffffffffffffffffff166002600084815260200190815260200160002060009054906101000a900473ffffffffffffffffffffffffffffffffffffffff1673ffffffffffffffffffffffffffffffffffffffff1614159050919050565b816004600083815260200190815260200160002060006101000a81548173ffffffffffffffffffffffffffffffffffffffff021916908373ffffffffffffffffffffffffffffffffffffffff160217905550808273ffffffffffffffffffffffffffffffffffffffff16612c4783611878565b73ffffffffffffffffffffffffffffffffffffffff167f8c5be1e5ebec7d5bd14f71427d1e84f3dd0314c0f7b2291e5b200ac8c7c3b92560405160405180910390a45050565b612c9e612c986128a1565b826135df565b612cdd576040517f08c379a0000000000000000000000000000000000000000000000000000000008152600401612cd490615556565b60405180910390fd5b612ce88383836136bd565b505050565b612cf78282612716565b612d1c81600760008581526020019081526020016000206127f790919063ffffffff16565b505050565b612d2b8282613919565b612d5081600760008581526020019081526020016000206139fb90919063ffffffff16565b505050565b612d70838383604051806020016040528060008152506121fb565b505050565b600073ffffffffffffffffffffffffffffffffffffffff168273ffffffffffffffffffffffffffffffffffffffff161415612de5576040517f08c379a0000000000000000000000000000000000000000000000000000000008152600401612ddc906155c2565b60405180910390fd5b612dee81612b68565b15612e2e576040517f08c379a0000000000000000000000000000000000000000000000000000000008152600401612e259061562e565b60405180910390fd5b612e3a60008383613a2b565b6001600360008473ffffffffffffffffffffffffffffffffffffffff1673ffffffffffffffffffffffffffffffffffffffff1681526020019081526020016000206000828254612e8a919061522b565b92505081905550816002600083815260200190815260200160002060006101000a81548173ffffffffffffffffffffffffffffffffffffffff021916908373ffffffffffffffffffffffffffffffffffffffff160217905550808273ffffffffffffffffffffffffffffffffffffffff16600073ffffffffffffffffffffffffffffffffffffffff167fddf252ad1be2c89b69c2b068fc378daa952ba7f163c4a11628f55a4df523b3ef60405160405180910390a45050565b6000612f528360000183613a30565b60001c905092915050565b8173ffffffffffffffffffffffffffffffffffffffff168373ffffffffffffffffffffffffffffffffffffffff161415612fcc576040517f08c379a0000000000000000000000000000000000000000000000000000000008152600401612fc39061569a565b60405180910390fd5b80600560008573ffffffffffffffffffffffffffffffffffffffff1673ffffffffffffffffffffffffffffffffffffffff16815260200190815260200160002060008473ffffffffffffffffffffffffffffffffffffffff1673ffffffffffffffffffffffffffffffffffffffff16815260200190815260200160002060006101000a81548160ff0219169083151502179055508173ffffffffffffffffffffffffffffffffffffffff168373ffffffffffffffffffffffffffffffffffffffff167f17307eab39ab6107e8899845ad3d59bd9653f200f220920489ca2b5937696c31836040516130bd91906140c7565b60405180910390a3505050565b6130db6130d56128a1565b836135df565b61311a576040517f08c379a000000000000000000000000000000000000000000000000000000000815260040161311190615556565b60405180910390fd5b61312684848484613a5b565b50505050565b606060405180602001604052806000815250905090565b6060600082141561318b576040518060400160405280600181526020017f3000000000000000000000000000000000000000000000000000000000000000815250905061329f565b600082905060005b600082146131bd5780806131a69061549b565b915050600a826131b691906156e9565b9150613193565b60008167ffffffffffffffff8111156131d9576131d8614561565b5b6040519080825280601f01601f19166020018201604052801561320b5781602001600182028036833780820191505090505b5090505b60008514613298576001826132249190615438565b9150600a85613233919061571a565b603061323f919061522b565b60f81b81838151811061325557613254615409565b5b60200101907effffffffffffffffffffffffffffffffffffffffffffffffffffffffffffff1916908160001a905350600a8561329191906156e9565b945061320f565b8093505050505b919050565b60006132b282600001613ab7565b9050919050565b60006132c58383613ac8565b61331e578260000182908060018154018082558091505060019003906000526020600020016000909190919091505582600001805490508360010160008481526020019081526020016000208190555060019050613323565b600090505b92915050565b60007f7965db0b000000000000000000000000000000000000000000000000000000007bffffffffffffffffffffffffffffffffffffffffffffffffffffffff1916827bffffffffffffffffffffffffffffffffffffffffffffffffffffffff1916148061339c575061339b82613aeb565b5b9050919050565b6060600060028360026133b6919061574b565b6133c0919061522b565b67ffffffffffffffff8111156133d9576133d8614561565b5b6040519080825280601f01601f19166020018201604052801561340b5781602001600182028036833780820191505090505b5090507f30000000000000000000000000000000000000000000000000000000000000008160008151811061344357613442615409565b5b60200101907effffffffffffffffffffffffffffffffffffffffffffffffffffffffffffff1916908160001a9053507f7800000000000000000000000000000000000000000000000000000000000000816001815181106134a7576134a6615409565b5b60200101907effffffffffffffffffffffffffffffffffffffffffffffffffffffffffffff1916908160001a905350600060018460026134e7919061574b565b6134f1919061522b565b90505b6001811115613591577f3031323334353637383961626364656600000000000000000000000000000000600f86166010811061353357613532615409565b5b1a60f81b82828151811061354a57613549615409565b5b60200101907effffffffffffffffffffffffffffffffffffffffffffffffffffffffffffff1916908160001a905350600485901c94508061358a906157a5565b90506134f4565b50600084146135d5576040517f08c379a00000000000000000000000000000000000000000000000000000000081526004016135cc9061581b565b60405180910390fd5b8091505092915050565b60006135ea82612b68565b613629576040517f08c379a0000000000000000000000000000000000000000000000000000000008152600401613620906158ad565b60405180910390fd5b600061363483611878565b90508073ffffffffffffffffffffffffffffffffffffffff168473ffffffffffffffffffffffffffffffffffffffff1614806136a357508373ffffffffffffffffffffffffffffffffffffffff1661368b84610dfb565b73ffffffffffffffffffffffffffffffffffffffff16145b806136b457506136b3818561262b565b5b91505092915050565b8273ffffffffffffffffffffffffffffffffffffffff166136dd82611878565b73ffffffffffffffffffffffffffffffffffffffff1614613733576040517f08c379a000000000000000000000000000000000000000000000000000000000815260040161372a9061593f565b60405180910390fd5b600073ffffffffffffffffffffffffffffffffffffffff168273ffffffffffffffffffffffffffffffffffffffff1614156137a3576040517f08c379a000000000000000000000000000000000000000000000000000000000815260040161379a906159d1565b60405180910390fd5b6137ae838383613a2b565b6137b9600082612bd4565b6001600360008573ffffffffffffffffffffffffffffffffffffffff1673ffffffffffffffffffffffffffffffffffffffff16815260200190815260200160002060008282546138099190615438565b925050819055506001600360008473ffffffffffffffffffffffffffffffffffffffff1673ffffffffffffffffffffffffffffffffffffffff1681526020019081526020016000206000828254613860919061522b565b92505081905550816002600083815260200190815260200160002060006101000a81548173ffffffffffffffffffffffffffffffffffffffff021916908373ffffffffffffffffffffffffffffffffffffffff160217905550808273ffffffffffffffffffffffffffffffffffffffff168473ffffffffffffffffffffffffffffffffffffffff167fddf252ad1be2c89b69c2b068fc378daa952ba7f163c4a11628f55a4df523b3ef60405160405180910390a4505050565b6139238282611fe8565b156139f75760006006600084815260200190815260200160002060000160008373ffffffffffffffffffffffffffffffffffffffff1673ffffffffffffffffffffffffffffffffffffffff16815260200190815260200160002060006101000a81548160ff02191690831515021790555061399c6128a1565b73ffffffffffffffffffffffffffffffffffffffff168173ffffffffffffffffffffffffffffffffffffffff16837ff6391f5c32d9c69d2a47ea670b442974b53935d1edc7fd64eb21e047a839171b60405160405180910390a45b5050565b6000613a23836000018373ffffffffffffffffffffffffffffffffffffffff1660001b613bcd565b905092915050565b505050565b6000826000018281548110613a4857613a47615409565b5b9060005260206000200154905092915050565b613a668484846136bd565b613a7284848484613ce1565b613ab1576040517f08c379a0000000000000000000000000000000000000000000000000000000008152600401613aa890615a63565b60405180910390fd5b50505050565b600081600001805490509050919050565b600080836001016000848152602001908152602001600020541415905092915050565b60007f80ac58cd000000000000000000000000000000000000000000000000000000007bffffffffffffffffffffffffffffffffffffffffffffffffffffffff1916827bffffffffffffffffffffffffffffffffffffffffffffffffffffffff19161480613bb657507f5b5e139f000000000000000000000000000000000000000000000000000000007bffffffffffffffffffffffffffffffffffffffffffffffffffffffff1916827bffffffffffffffffffffffffffffffffffffffffffffffffffffffff1916145b80613bc65750613bc582613e69565b5b9050919050565b60008083600101600084815260200190815260200160002054905060008114613cd5576000600182613bff9190615438565b9050600060018660000180549050613c179190615438565b9050818114613c86576000866000018281548110613c3857613c37615409565b5b9060005260206000200154905080876000018481548110613c5c57613c5b615409565b5b90600052602060002001819055508387600101600083815260200190815260200160002081905550505b85600001805480613c9a57613c9961546c565b5b600190038181906000526020600020016000905590558560010160008681526020019081526020016000206000905560019350505050613cdb565b60009150505b92915050565b6000613d028473ffffffffffffffffffffffffffffffffffffffff16613ed3565b15613e5c578373ffffffffffffffffffffffffffffffffffffffff1663150b7a02613d2b6128a1565b8786866040518563ffffffff1660e01b8152600401613d4d9493929190615ad8565b6020604051808303816000875af1925050508015613d8957506040513d601f19601f82011682018060405250810190613d869190615b39565b60015b613e0c573d8060008114613db9576040519150601f19603f3d011682016040523d82523d6000602084013e613dbe565b606091505b50600081511415613e04576040517f08c379a0000000000000000000000000000000000000000000000000000000008152600401613dfb90615a63565b60405180910390fd5b805181602001fd5b63150b7a0260e01b7bffffffffffffffffffffffffffffffffffffffffffffffffffffffff1916817bffffffffffffffffffffffffffffffffffffffffffffffffffffffff191614915050613e61565b600190505b949350505050565b60007f01ffc9a7000000000000000000000000000000000000000000000000000000007bffffffffffffffffffffffffffffffffffffffffffffffffffffffff1916827bffffffffffffffffffffffffffffffffffffffffffffffffffffffff1916149050919050565b600080823b905060008111915050919050565b828054828255906000526020600020908101928215613f5f579160200282015b82811115613f5e5782518260006101000a81548173ffffffffffffffffffffffffffffffffffffffff021916908373ffffffffffffffffffffffffffffffffffffffff16021790555091602001919060010190613f06565b5b509050613f6c9190613ff6565b5090565b828054613f7c90614ad6565b90600052602060002090601f016020900481019282613f9e5760008555613fe5565b82601f10613fb757805160ff1916838001178555613fe5565b82800160010185558215613fe5579182015b82811115613fe4578251825591602001919060010190613fc9565b5b509050613ff29190613ff6565b5090565b5b8082111561400f576000816000905550600101613ff7565b5090565b6000604051905090565b600080fd5b600080fd5b60007fffffffff0000000000000000000000000000000000000000000000000000000082169050919050565b61405c81614027565b811461406757600080fd5b50565b60008135905061407981614053565b92915050565b6000602082840312156140955761409461401d565b5b60006140a38482850161406a565b91505092915050565b60008115159050919050565b6140c1816140ac565b82525050565b60006020820190506140dc60008301846140b8565b92915050565b600073ffffffffffffffffffffffffffffffffffffffff82169050919050565b600061410d826140e2565b9050919050565b61411d81614102565b811461412857600080fd5b50565b60008135905061413a81614114565b92915050565b6000602082840312156141565761415561401d565b5b60006141648482850161412b565b91505092915050565b600080600080608085870312156141875761418661401d565b5b60006141958782880161412b565b94505060206141a68782880161412b565b93505060406141b78782880161412b565b92505060606141c88782880161412b565b91505092959194509250565b600081519050919050565b600082825260208201905092915050565b60005b8381101561420e5780820151818401526020810190506141f3565b8381111561421d576000848401525b50505050565b6000601f19601f8301169050919050565b600061423f826141d4565b61424981856141df565b93506142598185602086016141f0565b61426281614223565b840191505092915050565b600060208201905081810360008301526142878184614234565b905092915050565b6000819050919050565b6142a28161428f565b81146142ad57600080fd5b50565b6000813590506142bf81614299565b92915050565b6000602082840312156142db576142da61401d565b5b60006142e9848285016142b0565b91505092915050565b6142fb81614102565b82525050565b600060208201905061431660008301846142f2565b92915050565b600080604083850312156143335761433261401d565b5b60006143418582860161412b565b9250506020614352858286016142b0565b9150509250929050565b600081519050919050565b600082825260208201905092915050565b6000819050602082019050919050565b61439181614102565b82525050565b60006143a38383614388565b60208301905092915050565b6000602082019050919050565b60006143c78261435c565b6143d18185614367565b93506143dc83614378565b8060005b8381101561440d5781516143f48882614397565b97506143ff836143af565b9250506001810190506143e0565b5085935050505092915050565b6000602082019050818103600083015261443481846143bc565b905092915050565b6000806000606084860312156144555761445461401d565b5b60006144638682870161412b565b93505060206144748682870161412b565b9250506040614485868287016142b0565b9150509250925092565b6000819050919050565b6144a28161448f565b81146144ad57600080fd5b50565b6000813590506144bf81614499565b92915050565b6000602082840312156144db576144da61401d565b5b60006144e9848285016144b0565b91505092915050565b6144fb8161448f565b82525050565b600060208201905061451660008301846144f2565b92915050565b600080604083850312156145335761453261401d565b5b6000614541858286016144b0565b92505060206145528582860161412b565b9150509250929050565b600080fd5b7f4e487b7100000000000000000000000000000000000000000000000000000000600052604160045260246000fd5b61459982614223565b810181811067ffffffffffffffff821117156145b8576145b7614561565b5b80604052505050565b60006145cb614013565b90506145d78282614590565b919050565b600067ffffffffffffffff8211156145f7576145f6614561565b5b602082029050602081019050919050565b600080fd5b600061462061461b846145dc565b6145c1565b9050808382526020820190506020840283018581111561464357614642614608565b5b835b8181101561466c5780614658888261412b565b845260208401935050602081019050614645565b5050509392505050565b600082601f83011261468b5761468a61455c565b5b813561469b84826020860161460d565b91505092915050565b600080604083850312156146bb576146ba61401d565b5b60006146c9858286016142b0565b925050602083013567ffffffffffffffff8111156146ea576146e9614022565b5b6146f685828601614676565b9150509250929050565b6147098161428f565b82525050565b60006020820190506147246000830184614700565b92915050565b600080fd5b600067ffffffffffffffff82111561474a57614749614561565b5b61475382614223565b9050602081019050919050565b82818337600083830152505050565b600061478261477d8461472f565b6145c1565b90508281526020810184848401111561479e5761479d61472a565b5b6147a9848285614760565b509392505050565b600082601f8301126147c6576147c561455c565b5b81356147d684826020860161476f565b91505092915050565b6000806000606084860312156147f8576147f761401d565b5b600084013567ffffffffffffffff81111561481657614815614022565b5b614822868287016147b1565b93505060206148338682870161412b565b92505060406148448682870161412b565b9150509250925092565b600080604083850312156148655761486461401d565b5b6000614873858286016144b0565b9250506020614884858286016142b0565b9150509250929050565b614897816140ac565b81146148a257600080fd5b50565b6000813590506148b48161488e565b92915050565b600080604083850312156148d1576148d061401d565b5b60006148df8582860161412b565b92505060206148f0858286016148a5565b9150509250929050565b6000602082840312156149105761490f61401d565b5b600082013567ffffffffffffffff81111561492e5761492d614022565b5b61493a848285016147b1565b91505092915050565b600067ffffffffffffffff82111561495e5761495d614561565b5b61496782614223565b9050602081019050919050565b600061498761498284614943565b6145c1565b9050828152602081018484840111156149a3576149a261472a565b5b6149ae848285614760565b509392505050565b600082601f8301126149cb576149ca61455c565b5b81356149db848260208601614974565b91505092915050565b600080600080608085870312156149fe576149fd61401d565b5b6000614a0c8782880161412b565b9450506020614a1d8782880161412b565b9350506040614a2e878288016142b0565b925050606085013567ffffffffffffffff811115614a4f57614a4e614022565b5b614a5b878288016149b6565b91505092959194509250565b60008060408385031215614a7e57614a7d61401d565b5b6000614a8c8582860161412b565b9250506020614a9d8582860161412b565b9150509250929050565b7f4e487b7100000000000000000000000000000000000000000000000000000000600052602260045260246000fd5b60006002820490506001821680614aee57607f821691505b60208210811415614b0257614b01614aa7565b5b50919050565b7f4552433732313a20617070726f76656420717565727920666f72206e6f6e657860008201527f697374656e7420746f6b656e0000000000000000000000000000000000000000602082015250565b6000614b64602c836141df565b9150614b6f82614b08565b604082019050919050565b60006020820190508181036000830152614b9381614b57565b9050919050565b7f4552433732313a20617070726f76616c20746f2063757272656e74206f776e6560008201527f7200000000000000000000000000000000000000000000000000000000000000602082015250565b6000614bf66021836141df565b9150614c0182614b9a565b604082019050919050565b60006020820190508181036000830152614c2581614be9565b9050919050565b7f4552433732313a20617070726f76652063616c6c6572206973206e6f74206f7760008201527f6e6572206e6f7220617070726f76656420666f7220616c6c0000000000000000602082015250565b6000614c886038836141df565b9150614c9382614c2c565b604082019050919050565b60006020820190508181036000830152614cb781614c7b565b9050919050565b7f5472616e73666572206166746572206d696e742069732070726f68696269746560008201527f6400000000000000000000000000000000000000000000000000000000000000602082015250565b6000614d1a6021836141df565b9150614d2582614cbe565b604082019050919050565b60006020820190508181036000830152614d4981614d0d565b9050919050565b7f416363657373436f6e74726f6c3a2063616e206f6e6c792072656e6f756e636560008201527f20726f6c657320666f722073656c660000000000000000000000000000000000602082015250565b6000614dac602f836141df565b9150614db782614d50565b604082019050919050565b60006020820190508181036000830152614ddb81614d9f565b9050919050565b7f5468652061646472657373206973206e6f7420612073747564656e7400000000600082015250565b6000614e18601c836141df565b9150614e2382614de2565b602082019050919050565b60006020820190508181036000830152614e4781614e0b565b9050919050565b7f4552433732313a206f776e657220717565727920666f72206e6f6e657869737460008201527f656e7420746f6b656e0000000000000000000000000000000000000000000000602082015250565b6000614eaa6029836141df565b9150614eb582614e4e565b604082019050919050565b60006020820190508181036000830152614ed981614e9d565b9050919050565b7f4552433732313a2062616c616e636520717565727920666f7220746865207a6560008201527f726f206164647265737300000000000000000000000000000000000000000000602082015250565b6000614f3c602a836141df565b9150614f4782614ee0565b604082019050919050565b60006020820190508181036000830152614f6b81614f2f565b9050919050565b600081905092915050565b6000614f88826141d4565b614f928185614f72565b9350614fa28185602086016141f0565b80840191505092915050565b6000614fba8284614f7d565b915081905092915050565b7f54686973204465706172746d656e7420697320616c7265616479206578697374600082015250565b6000614ffb6020836141df565b915061500682614fc5565b602082019050919050565b6000602082019050818103600083015261502a81614fee565b9050919050565b7f54686973206465706172746d656e7441646472657373206973206e6f7420696e60008201527f204445504152544d454e545f524f4c4500000000000000000000000000000000602082015250565b600061508d6030836141df565b915061509882615031565b604082019050919050565b600060208201905081810360008301526150bc81615080565b9050919050565b50565b60006150d3600083614f72565b91506150de826150c3565b600082019050919050565b60006150f4826150c6565b9150819050919050565b7f4465706172746d656e74206e616d652063616e6e6f7420626520656d70747900600082015250565b6000615134601f836141df565b915061513f826150fe565b602082019050919050565b6000602082019050818103600083015261516381615127565b9050919050565b7f5468697320666163756c747941646472657373206973206e6f7420696e20464160008201527f43554c54595f524f4c4500000000000000000000000000000000000000000000602082015250565b60006151c6602a836141df565b91506151d18261516a565b604082019050919050565b600060208201905081810360008301526151f5816151b9565b9050919050565b7f4e487b7100000000000000000000000000000000000000000000000000000000600052601160045260246000fd5b60006152368261428f565b91506152418361428f565b9250827fffffffffffffffffffffffffffffffffffffffffffffffffffffffffffffffff03821115615276576152756151fc565b5b828201905092915050565b7f4552433732314d657461646174613a2055524920717565727920666f72206e6f60008201527f6e6578697374656e7420746f6b656e0000000000000000000000000000000000602082015250565b60006152dd602f836141df565b91506152e882615281565b604082019050919050565b6000602082019050818103600083015261530c816152d0565b9050919050565b600061531f8285614f7d565b915061532b8284614f7d565b91508190509392505050565b7f416363657373436f6e74726f6c3a206163636f756e7420000000000000000000600082015250565b600061536d601783614f72565b915061537882615337565b601782019050919050565b7f206973206d697373696e6720726f6c6520000000000000000000000000000000600082015250565b60006153b9601183614f72565b91506153c482615383565b601182019050919050565b60006153da82615360565b91506153e68285614f7d565b91506153f1826153ac565b91506153fd8284614f7d565b91508190509392505050565b7f4e487b7100000000000000000000000000000000000000000000000000000000600052603260045260246000fd5b60006154438261428f565b915061544e8361428f565b925082821015615461576154606151fc565b5b828203905092915050565b7f4e487b7100000000000000000000000000000000000000000000000000000000600052603160045260246000fd5b60006154a68261428f565b91507fffffffffffffffffffffffffffffffffffffffffffffffffffffffffffffffff8214156154d9576154d86151fc565b5b600182019050919050565b7f4552433732313a207472616e736665722063616c6c6572206973206e6f74206f60008201527f776e6572206e6f7220617070726f766564000000000000000000000000000000602082015250565b60006155406031836141df565b915061554b826154e4565b604082019050919050565b6000602082019050818103600083015261556f81615533565b9050919050565b7f4552433732313a206d696e7420746f20746865207a65726f2061646472657373600082015250565b60006155ac6020836141df565b91506155b782615576565b602082019050919050565b600060208201905081810360008301526155db8161559f565b9050919050565b7f4552433732313a20746f6b656e20616c7265616479206d696e74656400000000600082015250565b6000615618601c836141df565b9150615623826155e2565b602082019050919050565b600060208201905081810360008301526156478161560b565b9050919050565b7f4552433732313a20617070726f766520746f2063616c6c657200000000000000600082015250565b60006156846019836141df565b915061568f8261564e565b602082019050919050565b600060208201905081810360008301526156b381615677565b9050919050565b7f4e487b7100000000000000000000000000000000000000000000000000000000600052601260045260246000fd5b60006156f48261428f565b91506156ff8361428f565b92508261570f5761570e6156ba565b5b828204905092915050565b60006157258261428f565b91506157308361428f565b9250826157405761573f6156ba565b5b828206905092915050565b60006157568261428f565b91506157618361428f565b9250817fffffffffffffffffffffffffffffffffffffffffffffffffffffffffffffffff048311821515161561579a576157996151fc565b5b828202905092915050565b60006157b08261428f565b915060008214156157c4576157c36151fc565b5b600182039050919050565b7f537472696e67733a20686578206c656e67746820696e73756666696369656e74600082015250565b60006158056020836141df565b9150615810826157cf565b602082019050919050565b60006020820190508181036000830152615834816157f8565b9050919050565b7f4552433732313a206f70657261746f7220717565727920666f72206e6f6e657860008201527f697374656e7420746f6b656e0000000000000000000000000000000000000000602082015250565b6000615897602c836141df565b91506158a28261583b565b604082019050919050565b600060208201905081810360008301526158c68161588a565b9050919050565b7f4552433732313a207472616e73666572206f6620746f6b656e2074686174206960008201527f73206e6f74206f776e0000000000000000000000000000000000000000000000602082015250565b60006159296029836141df565b9150615934826158cd565b604082019050919050565b600060208201905081810360008301526159588161591c565b9050919050565b7f4552433732313a207472616e7366657220746f20746865207a65726f2061646460008201527f7265737300000000000000000000000000000000000000000000000000000000602082015250565b60006159bb6024836141df565b91506159c68261595f565b604082019050919050565b600060208201905081810360008301526159ea816159ae565b9050919050565b7f4552433732313a207472616e7366657220746f206e6f6e20455243373231526560008201527f63656976657220696d706c656d656e7465720000000000000000000000000000602082015250565b6000615a4d6032836141df565b9150615a58826159f1565b604082019050919050565b60006020820190508181036000830152615a7c81615a40565b9050919050565b600081519050919050565b600082825260208201905092915050565b6000615aaa82615a83565b615ab48185615a8e565b9350615ac48185602086016141f0565b615acd81614223565b840191505092915050565b6000608082019050615aed60008301876142f2565b615afa60208301866142f2565b615b076040830185614700565b8181036060830152615b198184615a9f565b905095945050505050565b600081519050615b3381614053565b92915050565b600060208284031215615b4f57615b4e61401d565b5b6000615b5d84828501615b24565b9150509291505056fea26469706673582212208c6e2827c388a084e03963ab45a2176cf9d8bd60bfe99af5af6d095930dbe91c64736f6c634300080a0033",
  "immutableReferences": {},
  "source": "pragma solidity ^0.8.10;\r\n\r\nimport \"@openzeppelin/contracts/token/ERC721/ERC721.sol\";\r\nimport \"./Roles.sol\";\r\n\r\ncontract Department is ERC721, Roles{\r\n\r\n    address rolesContractAddress;\r\n\r\n    uint256 _totalSupply = 0;\r\n    //mapping from tokenID to departmentName\r\n    mapping(uint256 => string) _departmentNameOfID;\r\n    //mapping from departmentName to tokenID\r\n    mapping(string => uint256) _IDOfDepartmentName;\r\n\r\n    //TODO test below\r\n    //mapping from tokenID to its Faculty Address\r\n    mapping(uint256 => address) _faculty;\r\n    //mapping from tokenID to its Instructor Addresses\r\n    mapping(uint256 => address[]) _instructors;\r\n    //mapping from tokenID to its Student Addresses\r\n    mapping(uint256 => address[]) _students;\r\n\r\n    constructor(address _rolesContractAddress) ERC721(\"Department\", \"DEP\"){\r\n        _setupRole(DEFAULT_ADMIN_ROLE, msg.sender);\r\n        _setupRole(RECTOR_ROLE, msg.sender);\r\n//        grantRectorRole(msg.sender);\r\n        rolesContractAddress =_rolesContractAddress;\r\n    }\r\n\r\n    function mint(string memory _departmentName, address departmentAddress, address facultyAddress) public onlyRole(RECTOR_ROLE){\r\n        require(_IDOfDepartmentName[_departmentName] == 0, \"This Department is already exist\");\r\n        grantDepartmentRole(departmentAddress);\r\n        require(hasRole(DEPARTMENT_ROLE, departmentAddress), \"This departmentAddress is not in DEPARTMENT_ROLE\");\r\n        require(keccak256(abi.encodePacked(_departmentName)) != keccak256(abi.encodePacked(\"\")), \"Department name cannot be empty\");\r\n        require(hasRole(FACULTY_ROLE, facultyAddress), \"This facultyAddress is not in FACULTY_ROLE\");\r\n        // Department - add\r\n        _totalSupply = _totalSupply + 1;\r\n        uint _id = _totalSupply; //tokenID's start from 1 because default uint256 value is 0\r\n        // Call the mint function of ERC721\r\n        _mint(departmentAddress, _id);\r\n        // Department - track it\r\n        _IDOfDepartmentName[_departmentName] = _id;\r\n        _departmentNameOfID[_id] = _departmentName;\r\n        _faculty[_id] = facultyAddress;\r\n    }\r\n//    function burn(string memory _departmentName) public onlyRole(RECTOR_ROLE){\r\n//        uint _id = _IDOfDepartmentName[_departmentName];\r\n//        require(_id != 0, \"This Department is not exist\");\r\n//        require(keccak256(abi.encodePacked(_departmentNameOfID[_id])) == keccak256(abi.encodePacked(_departmentName)), \"Department names do not match\");\r\n//        //Revoke Role\r\n//        address owner = ownerOf(_id);\r\n//        revokeDepartmentRole(owner);\r\n//        _burn(_id);\r\n//        _departmentNameOfID[_id] = \"\";\r\n//        _IDOfDepartmentName[_departmentName] = 0;\r\n//    }\r\n    function getDepartmentName(uint256 id) public view returns(string memory departmentName){\r\n        return _departmentNameOfID[id];\r\n    }\r\n    function getDepartmentID(string memory departmentName) public view returns(uint256 departmentID){\r\n        return _IDOfDepartmentName[departmentName];\r\n    }\r\n    function getTotalSupply() public view returns(uint256 totalSupply){\r\n        return _totalSupply;\r\n    }\r\n    function getFaculty(uint256 id) public view returns(address){\r\n        return _faculty[id];\r\n    }\r\n    function getInstructors(uint256 id) public view returns(address[] memory){\r\n        return _instructors[id];\r\n    }\r\n    //TODO handle publicity with roles\r\n    function setInstructors(uint256 id, address[] memory instructors) public{\r\n        _instructors[id] = instructors;\r\n    }\r\n    function getStudents(uint256 id) public view returns(address[] memory){\r\n        return _students[id];\r\n    }\r\n    //TODO handle publicity with roles\r\n    function setStudents(uint256 id, address[] memory students) public{\r\n        _students[id] = students;\r\n    }\r\n    function transferFrom(//Only callable when minted\r\n        address from,\r\n        address to,\r\n        uint256 tokenId\r\n    ) public virtual override {\r\n        require(msg.sender == 0x0000000000000000000000000000000000000000, \"Transfer after mint is prohibited\");\r\n        super.transferFrom(from,to,tokenId);\r\n    }\r\n    function safeTransferFrom(//Only callable when minted\r\n        address from,\r\n        address to,\r\n        uint256 tokenId\r\n    ) public virtual override {\r\n        require(msg.sender == 0x0000000000000000000000000000000000000000, \"Transfer after mint is prohibited\");\r\n        super.safeTransferFrom(from,to,tokenId);\r\n    }\r\n    function safeTransferFrom(//Only callable when minted\r\n        address from,\r\n        address to,\r\n        uint256 tokenId,\r\n        bytes memory _data\r\n    ) public virtual override {\r\n        require(msg.sender == 0x0000000000000000000000000000000000000000, \"Transfer after mint is prohibited\");\r\n        super.safeTransferFrom(from, to, tokenId, _data);\r\n    }\r\n    function supportsInterface(bytes4 interfaceId) public view virtual override(ERC721, AccessControlEnumerable) returns (bool) {\r\n        return super.supportsInterface(interfaceId);\r\n    }\r\n}\r\n",
  "sourcePath": "C:\\Users\\asus\\Desktop\\Dersler\\CMPE492\\certification-project\\contracts\\Department.sol",
  "compiler": {
    "name": "solc",
    "version": "0.8.10+commit.fc410830.Emscripten.clang"
  },
  "schemaVersion": "3.4.4",
  "updatedAt": "2022-01-18T21:05:26.168Z",
  "networkType": "ethereum",
  "devdoc": {
    "kind": "dev",
    "methods": {
      "approve(address,uint256)": {
        "details": "See {IERC721-approve}."
      },
      "balanceOf(address)": {
        "details": "See {IERC721-balanceOf}."
      },
      "getApproved(uint256)": {
        "details": "See {IERC721-getApproved}."
      },
      "getRoleAdmin(bytes32)": {
        "details": "Returns the admin role that controls `role`. See {grantRole} and {revokeRole}. To change a role's admin, use {_setRoleAdmin}."
      },
      "getRoleMember(bytes32,uint256)": {
        "details": "Returns one of the accounts that have `role`. `index` must be a value between 0 and {getRoleMemberCount}, non-inclusive. Role bearers are not sorted in any particular way, and their ordering may change at any point. WARNING: When using {getRoleMember} and {getRoleMemberCount}, make sure you perform all queries on the same block. See the following https://forum.openzeppelin.com/t/iterating-over-elements-on-enumerableset-in-openzeppelin-contracts/2296[forum post] for more information."
      },
      "getRoleMemberCount(bytes32)": {
        "details": "Returns the number of accounts that have `role`. Can be used together with {getRoleMember} to enumerate all bearers of a role."
      },
      "grantRole(bytes32,address)": {
        "details": "Grants `role` to `account`. If `account` had not been already granted `role`, emits a {RoleGranted} event. Requirements: - the caller must have ``role``'s admin role."
      },
      "hasRole(bytes32,address)": {
        "details": "Returns `true` if `account` has been granted `role`."
      },
      "isApprovedForAll(address,address)": {
        "details": "See {IERC721-isApprovedForAll}."
      },
      "name()": {
        "details": "See {IERC721Metadata-name}."
      },
      "ownerOf(uint256)": {
        "details": "See {IERC721-ownerOf}."
      },
      "renounceRole(bytes32,address)": {
        "details": "Revokes `role` from the calling account. Roles are often managed via {grantRole} and {revokeRole}: this function's purpose is to provide a mechanism for accounts to lose their privileges if they are compromised (such as when a trusted device is misplaced). If the calling account had been revoked `role`, emits a {RoleRevoked} event. Requirements: - the caller must be `account`."
      },
      "revokeRole(bytes32,address)": {
        "details": "Revokes `role` from `account`. If `account` had been granted `role`, emits a {RoleRevoked} event. Requirements: - the caller must have ``role``'s admin role."
      },
      "safeTransferFrom(address,address,uint256)": {
        "details": "See {IERC721-safeTransferFrom}."
      },
      "safeTransferFrom(address,address,uint256,bytes)": {
        "details": "See {IERC721-safeTransferFrom}."
      },
      "setApprovalForAll(address,bool)": {
        "details": "See {IERC721-setApprovalForAll}."
      },
      "symbol()": {
        "details": "See {IERC721Metadata-symbol}."
      },
      "tokenURI(uint256)": {
        "details": "See {IERC721Metadata-tokenURI}."
      },
      "transferFrom(address,address,uint256)": {
        "details": "See {IERC721-transferFrom}."
      }
    },
    "version": 1
  },
  "userdoc": {
    "kind": "user",
    "methods": {},
    "version": 1
  }
}