{
  "contractName": "Department",
  "abi": [
    {
      "inputs": [
        {
          "internalType": "address",
          "name": "_rolesContractAddress",
          "type": "address"
        },
        {
          "internalType": "address",
          "name": "_facultyContractAddress",
          "type": "address"
        }
      ],
      "stateMutability": "nonpayable",
      "type": "constructor"
    },
    {
      "anonymous": false,
      "inputs": [
        {
          "indexed": true,
          "internalType": "address",
          "name": "owner",
          "type": "address"
        },
        {
          "indexed": true,
          "internalType": "address",
          "name": "approved",
          "type": "address"
        },
        {
          "indexed": true,
          "internalType": "uint256",
          "name": "tokenId",
          "type": "uint256"
        }
      ],
      "name": "Approval",
      "type": "event"
    },
    {
      "anonymous": false,
      "inputs": [
        {
          "indexed": true,
          "internalType": "address",
          "name": "owner",
          "type": "address"
        },
        {
          "indexed": true,
          "internalType": "address",
          "name": "operator",
          "type": "address"
        },
        {
          "indexed": false,
          "internalType": "bool",
          "name": "approved",
          "type": "bool"
        }
      ],
      "name": "ApprovalForAll",
      "type": "event"
    },
    {
      "anonymous": false,
      "inputs": [
        {
          "indexed": true,
          "internalType": "address",
          "name": "from",
          "type": "address"
        },
        {
          "indexed": true,
          "internalType": "address",
          "name": "to",
          "type": "address"
        },
        {
          "indexed": true,
          "internalType": "uint256",
          "name": "tokenId",
          "type": "uint256"
        }
      ],
      "name": "Transfer",
      "type": "event"
    },
    {
      "inputs": [
        {
          "internalType": "address",
          "name": "to",
          "type": "address"
        },
        {
          "internalType": "uint256",
          "name": "tokenId",
          "type": "uint256"
        }
      ],
      "name": "approve",
      "outputs": [],
      "stateMutability": "nonpayable",
      "type": "function"
    },
    {
      "inputs": [
        {
          "internalType": "address",
          "name": "owner",
          "type": "address"
        }
      ],
      "name": "balanceOf",
      "outputs": [
        {
          "internalType": "uint256",
          "name": "",
          "type": "uint256"
        }
      ],
      "stateMutability": "view",
      "type": "function"
    },
    {
      "inputs": [
        {
          "internalType": "uint256",
          "name": "tokenId",
          "type": "uint256"
        }
      ],
      "name": "getApproved",
      "outputs": [
        {
          "internalType": "address",
          "name": "",
          "type": "address"
        }
      ],
      "stateMutability": "view",
      "type": "function"
    },
    {
      "inputs": [
        {
          "internalType": "address",
          "name": "owner",
          "type": "address"
        },
        {
          "internalType": "address",
          "name": "operator",
          "type": "address"
        }
      ],
      "name": "isApprovedForAll",
      "outputs": [
        {
          "internalType": "bool",
          "name": "",
          "type": "bool"
        }
      ],
      "stateMutability": "view",
      "type": "function"
    },
    {
      "inputs": [],
      "name": "name",
      "outputs": [
        {
          "internalType": "string",
          "name": "",
          "type": "string"
        }
      ],
      "stateMutability": "view",
      "type": "function"
    },
    {
      "inputs": [
        {
          "internalType": "uint256",
          "name": "tokenId",
          "type": "uint256"
        }
      ],
      "name": "ownerOf",
      "outputs": [
        {
          "internalType": "address",
          "name": "",
          "type": "address"
        }
      ],
      "stateMutability": "view",
      "type": "function"
    },
    {
      "inputs": [
        {
          "internalType": "address",
          "name": "operator",
          "type": "address"
        },
        {
          "internalType": "bool",
          "name": "approved",
          "type": "bool"
        }
      ],
      "name": "setApprovalForAll",
      "outputs": [],
      "stateMutability": "nonpayable",
      "type": "function"
    },
    {
      "inputs": [
        {
          "internalType": "bytes4",
          "name": "interfaceId",
          "type": "bytes4"
        }
      ],
      "name": "supportsInterface",
      "outputs": [
        {
          "internalType": "bool",
          "name": "",
          "type": "bool"
        }
      ],
      "stateMutability": "view",
      "type": "function"
    },
    {
      "inputs": [],
      "name": "symbol",
      "outputs": [
        {
          "internalType": "string",
          "name": "",
          "type": "string"
        }
      ],
      "stateMutability": "view",
      "type": "function"
    },
    {
      "inputs": [
        {
          "internalType": "uint256",
          "name": "tokenId",
          "type": "uint256"
        }
      ],
      "name": "tokenURI",
      "outputs": [
        {
          "internalType": "string",
          "name": "",
          "type": "string"
        }
      ],
      "stateMutability": "view",
      "type": "function"
    },
    {
      "inputs": [
        {
          "internalType": "string",
          "name": "_departmentName",
          "type": "string"
        },
        {
          "internalType": "address",
          "name": "departmentAddress",
          "type": "address"
        },
        {
          "internalType": "address",
          "name": "facultyAddress",
          "type": "address"
        }
      ],
      "name": "mint",
      "outputs": [],
      "stateMutability": "nonpayable",
      "type": "function"
    },
    {
      "inputs": [
        {
          "internalType": "uint256",
          "name": "id",
          "type": "uint256"
        }
      ],
      "name": "getDepartmentName",
      "outputs": [
        {
          "internalType": "string",
          "name": "departmentName",
          "type": "string"
        }
      ],
      "stateMutability": "view",
      "type": "function"
    },
    {
      "inputs": [
        {
          "internalType": "string",
          "name": "departmentName",
          "type": "string"
        }
      ],
      "name": "getDepartmentID",
      "outputs": [
        {
          "internalType": "uint256",
          "name": "departmentID",
          "type": "uint256"
        }
      ],
      "stateMutability": "view",
      "type": "function"
    },
    {
      "inputs": [],
      "name": "getTotalSupply",
      "outputs": [
        {
          "internalType": "uint256",
          "name": "totalSupply",
          "type": "uint256"
        }
      ],
      "stateMutability": "view",
      "type": "function"
    },
    {
      "inputs": [
        {
          "internalType": "uint256",
          "name": "id",
          "type": "uint256"
        }
      ],
      "name": "getFaculty",
      "outputs": [
        {
          "internalType": "address",
          "name": "",
          "type": "address"
        }
      ],
      "stateMutability": "view",
      "type": "function"
    },
    {
      "inputs": [
        {
          "internalType": "uint256",
          "name": "id",
          "type": "uint256"
        }
      ],
      "name": "getInstructors",
      "outputs": [
        {
          "internalType": "address[]",
          "name": "",
          "type": "address[]"
        }
      ],
      "stateMutability": "view",
      "type": "function"
    },
    {
      "inputs": [
        {
          "internalType": "uint256",
          "name": "_id",
          "type": "uint256"
        },
        {
          "internalType": "address[]",
          "name": "instructors",
          "type": "address[]"
        },
        {
          "internalType": "address",
          "name": "revoked",
          "type": "address"
        }
      ],
      "name": "setInstructors",
      "outputs": [],
      "stateMutability": "nonpayable",
      "type": "function"
    },
    {
      "inputs": [
        {
          "internalType": "uint256",
          "name": "id",
          "type": "uint256"
        }
      ],
      "name": "getStudents",
      "outputs": [
        {
          "internalType": "address[]",
          "name": "",
          "type": "address[]"
        }
      ],
      "stateMutability": "view",
      "type": "function"
    },
    {
      "inputs": [
        {
          "internalType": "uint256",
          "name": "_id",
          "type": "uint256"
        },
        {
          "internalType": "address[]",
          "name": "students",
          "type": "address[]"
        },
        {
          "internalType": "address",
          "name": "revoked",
          "type": "address"
        }
      ],
      "name": "setStudents",
      "outputs": [],
      "stateMutability": "nonpayable",
      "type": "function"
    },
    {
      "inputs": [
        {
          "internalType": "address",
          "name": "from",
          "type": "address"
        },
        {
          "internalType": "address",
          "name": "to",
          "type": "address"
        },
        {
          "internalType": "uint256",
          "name": "tokenId",
          "type": "uint256"
        }
      ],
      "name": "transferFrom",
      "outputs": [],
      "stateMutability": "nonpayable",
      "type": "function"
    },
    {
      "inputs": [
        {
          "internalType": "address",
          "name": "from",
          "type": "address"
        },
        {
          "internalType": "address",
          "name": "to",
          "type": "address"
        },
        {
          "internalType": "uint256",
          "name": "tokenId",
          "type": "uint256"
        }
      ],
      "name": "safeTransferFrom",
      "outputs": [],
      "stateMutability": "nonpayable",
      "type": "function"
    },
    {
      "inputs": [
        {
          "internalType": "address",
          "name": "from",
          "type": "address"
        },
        {
          "internalType": "address",
          "name": "to",
          "type": "address"
        },
        {
          "internalType": "uint256",
          "name": "tokenId",
          "type": "uint256"
        },
        {
          "internalType": "bytes",
          "name": "_data",
          "type": "bytes"
        }
      ],
      "name": "safeTransferFrom",
      "outputs": [],
      "stateMutability": "nonpayable",
      "type": "function"
    }
  ],
  "bytecode": "0x608060405260006008553480156200001657600080fd5b50604051620049603803806200496083398181016040528101906200003c919062000280565b6040518060400160405280600a81526020017f4465706172746d656e74000000000000000000000000000000000000000000008152506040518060400160405280600381526020017f44455000000000000000000000000000000000000000000000000000000000008152508160009080519060200190620000c092919062000166565b508060019080519060200190620000d992919062000166565b50505081600660006101000a81548173ffffffffffffffffffffffffffffffffffffffff021916908373ffffffffffffffffffffffffffffffffffffffff16021790555080600760006101000a81548173ffffffffffffffffffffffffffffffffffffffff021916908373ffffffffffffffffffffffffffffffffffffffff16021790555050506200032c565b8280546200017490620002f6565b90600052602060002090601f016020900481019282620001985760008555620001e4565b82601f10620001b357805160ff1916838001178555620001e4565b82800160010185558215620001e4579182015b82811115620001e3578251825591602001919060010190620001c6565b5b509050620001f39190620001f7565b5090565b5b8082111562000212576000816000905550600101620001f8565b5090565b600080fd5b600073ffffffffffffffffffffffffffffffffffffffff82169050919050565b600062000248826200021b565b9050919050565b6200025a816200023b565b81146200026657600080fd5b50565b6000815190506200027a816200024f565b92915050565b600080604083850312156200029a576200029962000216565b5b6000620002aa8582860162000269565b9250506020620002bd8582860162000269565b9150509250929050565b7f4e487b7100000000000000000000000000000000000000000000000000000000600052602260045260246000fd5b600060028204905060018216806200030f57607f821691505b60208210811415620003265762000325620002c7565b5b50919050565b614624806200033c6000396000f3fe608060405234801561001057600080fd5b50600436106101425760003560e01c806375c2f8f0116100b8578063ac88aa4b1161007c578063ac88aa4b146103ab578063b88d4fde146103db578063c4e41b22146103f7578063c87b56dd14610415578063de8289c114610445578063e985e9c51461046157610142565b806375c2f8f0146102f55780637e6d945e1461032557806384443dce1461034157806395d89b4114610371578063a22cb4651461038f57610142565b806323b872dd1161010a57806323b872dd1461021157806342842e0e1461022d57806347519ab71461024957806355bd1b4d146102795780636352211e1461029557806370a08231146102c557610142565b806301ffc9a71461014757806306fdde0314610177578063081812fc14610195578063095ea7b3146101c55780631fd76cfb146101e1575b600080fd5b610161600480360381019061015c9190612b85565b610491565b60405161016e9190612bcd565b60405180910390f35b61017f610573565b60405161018c9190612c81565b60405180910390f35b6101af60048036038101906101aa9190612cd9565b610605565b6040516101bc9190612d47565b60405180910390f35b6101df60048036038101906101da9190612d8e565b61068a565b005b6101fb60048036038101906101f69190612cd9565b6107a2565b6040516102089190612d47565b60405180910390f35b61022b60048036038101906102269190612dce565b6107df565b005b61024760048036038101906102429190612dce565b61085e565b005b610263600480360381019061025e9190612cd9565b6108dd565b6040516102709190612edf565b60405180910390f35b610293600480360381019061028e9190613049565b61097e565b005b6102af60048036038101906102aa9190612cd9565b610c53565b6040516102bc9190612d47565b60405180910390f35b6102df60048036038101906102da91906130b8565b610d05565b6040516102ec91906130f4565b60405180910390f35b61030f600480360381019061030a9190612cd9565b610dbd565b60405161031c9190612edf565b60405180910390f35b61033f600480360381019061033a91906131c4565b610e5e565b005b61035b60048036038101906103569190612cd9565b61177a565b6040516103689190612c81565b60405180910390f35b61037961181f565b6040516103869190612c81565b60405180910390f35b6103a960048036038101906103a4919061325f565b6118b1565b005b6103c560048036038101906103c0919061329f565b6118c7565b6040516103d291906130f4565b60405180910390f35b6103f560048036038101906103f09190613389565b6118ef565b005b6103ff611970565b60405161040c91906130f4565b60405180910390f35b61042f600480360381019061042a9190612cd9565b61197a565b60405161043c9190612c81565b60405180910390f35b61045f600480360381019061045a9190613049565b611a21565b005b61047b6004803603810190610476919061340c565b611cf6565b6040516104889190612bcd565b60405180910390f35b60007f80ac58cd000000000000000000000000000000000000000000000000000000007bffffffffffffffffffffffffffffffffffffffffffffffffffffffff1916827bffffffffffffffffffffffffffffffffffffffffffffffffffffffff1916148061055c57507f5b5e139f000000000000000000000000000000000000000000000000000000007bffffffffffffffffffffffffffffffffffffffffffffffffffffffff1916827bffffffffffffffffffffffffffffffffffffffffffffffffffffffff1916145b8061056c575061056b82611d8a565b5b9050919050565b6060600080546105829061347b565b80601f01602080910402602001604051908101604052809291908181526020018280546105ae9061347b565b80156105fb5780601f106105d0576101008083540402835291602001916105fb565b820191906000526020600020905b8154815290600101906020018083116105de57829003601f168201915b5050505050905090565b600061061082611df4565b61064f576040517f08c379a00000000000000000000000000000000000000000000000000000000081526004016106469061351f565b60405180910390fd5b6004600083815260200190815260200160002060009054906101000a900473ffffffffffffffffffffffffffffffffffffffff169050919050565b600061069582610c53565b90508073ffffffffffffffffffffffffffffffffffffffff168373ffffffffffffffffffffffffffffffffffffffff161415610706576040517f08c379a00000000000000000000000000000000000000000000000000000000081526004016106fd906135b1565b60405180910390fd5b8073ffffffffffffffffffffffffffffffffffffffff16610725611e60565b73ffffffffffffffffffffffffffffffffffffffff16148061075457506107538161074e611e60565b611cf6565b5b610793576040517f08c379a000000000000000000000000000000000000000000000000000000000815260040161078a90613643565b60405180910390fd5b61079d8383611e68565b505050565b6000600b600083815260200190815260200160002060009054906101000a900473ffffffffffffffffffffffffffffffffffffffff169050919050565b600073ffffffffffffffffffffffffffffffffffffffff163373ffffffffffffffffffffffffffffffffffffffff161461084e576040517f08c379a0000000000000000000000000000000000000000000000000000000008152600401610845906136d5565b60405180910390fd5b610859838383611f21565b505050565b600073ffffffffffffffffffffffffffffffffffffffff163373ffffffffffffffffffffffffffffffffffffffff16146108cd576040517f08c379a00000000000000000000000000000000000000000000000000000000081526004016108c4906136d5565b60405180910390fd5b6108d8838383611f81565b505050565b6060600c600083815260200190815260200160002080548060200260200160405190810160405280929190818152602001828054801561097257602002820191906000526020600020905b8160009054906101000a900473ffffffffffffffffffffffffffffffffffffffff1673ffffffffffffffffffffffffffffffffffffffff1681526020019060010190808311610928575b50505050509050919050565b600660009054906101000a900473ffffffffffffffffffffffffffffffffffffffff1673ffffffffffffffffffffffffffffffffffffffff16632be7dc44336040518263ffffffff1660e01b81526004016109d99190612d47565b602060405180830381865afa1580156109f6573d6000803e3d6000fd5b505050506040513d601f19601f82011682018060405250810190610a1a919061370a565b610a59576040517f08c379a0000000000000000000000000000000000000000000000000000000008152600401610a50906137a9565b60405180910390fd5b600083118015610a6b57506008548311155b610aaa576040517f08c379a0000000000000000000000000000000000000000000000000000000008152600401610aa190613815565b60405180910390fd5b81600c60008581526020019081526020016000209080519060200190610ad19291906129ec565b50600073ffffffffffffffffffffffffffffffffffffffff168173ffffffffffffffffffffffffffffffffffffffff161415610bc057600660009054906101000a900473ffffffffffffffffffffffffffffffffffffffff1673ffffffffffffffffffffffffffffffffffffffff16635f1d514e8360018551610b549190613864565b81518110610b6557610b64613898565b5b60200260200101516040518263ffffffff1660e01b8152600401610b899190612d47565b600060405180830381600087803b158015610ba357600080fd5b505af1158015610bb7573d6000803e3d6000fd5b50505050610c4e565b600660009054906101000a900473ffffffffffffffffffffffffffffffffffffffff1673ffffffffffffffffffffffffffffffffffffffff166386f8e92c826040518263ffffffff1660e01b8152600401610c1b9190612d47565b600060405180830381600087803b158015610c3557600080fd5b505af1158015610c49573d6000803e3d6000fd5b505050505b505050565b6000806002600084815260200190815260200160002060009054906101000a900473ffffffffffffffffffffffffffffffffffffffff169050600073ffffffffffffffffffffffffffffffffffffffff168173ffffffffffffffffffffffffffffffffffffffff161415610cfc576040517f08c379a0000000000000000000000000000000000000000000000000000000008152600401610cf390613939565b60405180910390fd5b80915050919050565b60008073ffffffffffffffffffffffffffffffffffffffff168273ffffffffffffffffffffffffffffffffffffffff161415610d76576040517f08c379a0000000000000000000000000000000000000000000000000000000008152600401610d6d906139cb565b60405180910390fd5b600360008373ffffffffffffffffffffffffffffffffffffffff1673ffffffffffffffffffffffffffffffffffffffff168152602001908152602001600020549050919050565b6060600d6000838152602001908152602001600020805480602002602001604051908101604052809291908181526020018280548015610e5257602002820191906000526020600020905b8160009054906101000a900473ffffffffffffffffffffffffffffffffffffffff1673ffffffffffffffffffffffffffffffffffffffff1681526020019060010190808311610e08575b50505050509050919050565b600660009054906101000a900473ffffffffffffffffffffffffffffffffffffffff1673ffffffffffffffffffffffffffffffffffffffff16632be7dc44336040518263ffffffff1660e01b8152600401610eb99190612d47565b602060405180830381865afa158015610ed6573d6000803e3d6000fd5b505050506040513d601f19601f82011682018060405250810190610efa919061370a565b610f39576040517f08c379a0000000000000000000000000000000000000000000000000000000008152600401610f3090613a5d565b60405180910390fd5b6000600a84604051610f4b9190613ab9565b90815260200160405180910390205414610f9a576040517f08c379a0000000000000000000000000000000000000000000000000000000008152600401610f9190613b1c565b60405180910390fd5b600660009054906101000a900473ffffffffffffffffffffffffffffffffffffffff1673ffffffffffffffffffffffffffffffffffffffff166312fb59f2836040518263ffffffff1660e01b8152600401610ff59190612d47565b600060405180830381600087803b15801561100f57600080fd5b505af1158015611023573d6000803e3d6000fd5b50505050600660009054906101000a900473ffffffffffffffffffffffffffffffffffffffff1673ffffffffffffffffffffffffffffffffffffffff1663e17f6b2c836040518263ffffffff1660e01b81526004016110829190612d47565b602060405180830381865afa15801561109f573d6000803e3d6000fd5b505050506040513d601f19601f820116820180604052508101906110c3919061370a565b611102576040517f08c379a00000000000000000000000000000000000000000000000000000000081526004016110f990613bae565b60405180910390fd5b60405160200161111190613bf4565b60405160208183030381529060405280519060200120836040516020016111389190613ab9565b60405160208183030381529060405280519060200120141561118f576040517f08c379a000000000000000000000000000000000000000000000000000000000815260040161118690613c55565b60405180910390fd5b600660009054906101000a900473ffffffffffffffffffffffffffffffffffffffff1673ffffffffffffffffffffffffffffffffffffffff1663e78af7c5826040518263ffffffff1660e01b81526004016111ea9190612d47565b602060405180830381865afa158015611207573d6000803e3d6000fd5b505050506040513d601f19601f8201168201806040525081019061122b919061370a565b61126a576040517f08c379a000000000000000000000000000000000000000000000000000000000815260040161126190613ce7565b60405180910390fd5b60016008546112799190613d07565b600881905550600060085490506112908382611fa1565b80600a856040516112a19190613ab9565b908152602001604051809103902081905550836009600083815260200190815260200160002090805190602001906112da929190612a76565b5081600b600083815260200190815260200160002060006101000a81548173ffffffffffffffffffffffffffffffffffffffff021916908373ffffffffffffffffffffffffffffffffffffffff1602179055506000600760009054906101000a900473ffffffffffffffffffffffffffffffffffffffff1673ffffffffffffffffffffffffffffffffffffffff1663c4e41b226040518163ffffffff1660e01b8152600401602060405180830381865afa15801561139c573d6000803e3d6000fd5b505050506040513d601f19601f820116820180604052508101906113c09190613d72565b9050600080600190505b8281116114bb578473ffffffffffffffffffffffffffffffffffffffff16600760009054906101000a900473ffffffffffffffffffffffffffffffffffffffff1673ffffffffffffffffffffffffffffffffffffffff16636352211e836040518263ffffffff1660e01b815260040161144391906130f4565b602060405180830381865afa158015611460573d6000803e3d6000fd5b505050506040513d601f19601f820116820180604052508101906114849190613db4565b73ffffffffffffffffffffffffffffffffffffffff1614156114a8578091506114bb565b80806114b390613de1565b9150506113ca565b50600081116114ff576040517f08c379a00000000000000000000000000000000000000000000000000000000081526004016114f690613e76565b60405180910390fd5b6000600760009054906101000a900473ffffffffffffffffffffffffffffffffffffffff1673ffffffffffffffffffffffffffffffffffffffff166326970179836040518263ffffffff1660e01b815260040161155c91906130f4565b600060405180830381865afa158015611579573d6000803e3d6000fd5b505050506040513d6000823e3d601f19601f820116820180604052508101906115a29190613f2d565b90506000600182516115b49190613d07565b67ffffffffffffffff8111156115cd576115cc612f06565b5b6040519080825280602002602001820160405280156115fb5781602001602082028036833780820191505090505b50905060005b82518110156116855782818151811061161d5761161c613898565b5b602002602001015182828151811061163857611637613898565b5b602002602001019073ffffffffffffffffffffffffffffffffffffffff16908173ffffffffffffffffffffffffffffffffffffffff1681525050808061167d90613de1565b915050611601565b508681600183516116969190613864565b815181106116a7576116a6613898565b5b602002602001019073ffffffffffffffffffffffffffffffffffffffff16908173ffffffffffffffffffffffffffffffffffffffff1681525050600760009054906101000a900473ffffffffffffffffffffffffffffffffffffffff1673ffffffffffffffffffffffffffffffffffffffff1663b9837a0084836040518363ffffffff1660e01b815260040161173e929190613f76565b600060405180830381600087803b15801561175857600080fd5b505af115801561176c573d6000803e3d6000fd5b505050505050505050505050565b606060096000838152602001908152602001600020805461179a9061347b565b80601f01602080910402602001604051908101604052809291908181526020018280546117c69061347b565b80156118135780601f106117e857610100808354040283529160200191611813565b820191906000526020600020905b8154815290600101906020018083116117f657829003601f168201915b50505050509050919050565b60606001805461182e9061347b565b80601f016020809104026020016040519081016040528092919081815260200182805461185a9061347b565b80156118a75780601f1061187c576101008083540402835291602001916118a7565b820191906000526020600020905b81548152906001019060200180831161188a57829003601f168201915b5050505050905090565b6118c36118bc611e60565b838361216f565b5050565b6000600a826040516118d99190613ab9565b9081526020016040518091039020549050919050565b600073ffffffffffffffffffffffffffffffffffffffff163373ffffffffffffffffffffffffffffffffffffffff161461195e576040517f08c379a0000000000000000000000000000000000000000000000000000000008152600401611955906136d5565b60405180910390fd5b61196a848484846122dc565b50505050565b6000600854905090565b606061198582611df4565b6119c4576040517f08c379a00000000000000000000000000000000000000000000000000000000081526004016119bb90614018565b60405180910390fd5b60006119ce61233e565b905060008151116119ee5760405180602001604052806000815250611a19565b806119f884612355565b604051602001611a09929190614038565b6040516020818303038152906040525b915050919050565b600660009054906101000a900473ffffffffffffffffffffffffffffffffffffffff1673ffffffffffffffffffffffffffffffffffffffff16632be7dc44336040518263ffffffff1660e01b8152600401611a7c9190612d47565b602060405180830381865afa158015611a99573d6000803e3d6000fd5b505050506040513d601f19601f82011682018060405250810190611abd919061370a565b611afc576040517f08c379a0000000000000000000000000000000000000000000000000000000008152600401611af3906137a9565b60405180910390fd5b600083118015611b0e57506008548311155b611b4d576040517f08c379a0000000000000000000000000000000000000000000000000000000008152600401611b4490613815565b60405180910390fd5b81600d60008581526020019081526020016000209080519060200190611b749291906129ec565b50600073ffffffffffffffffffffffffffffffffffffffff168173ffffffffffffffffffffffffffffffffffffffff161415611c6357600660009054906101000a900473ffffffffffffffffffffffffffffffffffffffff1673ffffffffffffffffffffffffffffffffffffffff1663c94d10ad8360018551611bf79190613864565b81518110611c0857611c07613898565b5b60200260200101516040518263ffffffff1660e01b8152600401611c2c9190612d47565b600060405180830381600087803b158015611c4657600080fd5b505af1158015611c5a573d6000803e3d6000fd5b50505050611cf1565b600660009054906101000a900473ffffffffffffffffffffffffffffffffffffffff1673ffffffffffffffffffffffffffffffffffffffff166332b3c846826040518263ffffffff1660e01b8152600401611cbe9190612d47565b600060405180830381600087803b158015611cd857600080fd5b505af1158015611cec573d6000803e3d6000fd5b505050505b505050565b6000600560008473ffffffffffffffffffffffffffffffffffffffff1673ffffffffffffffffffffffffffffffffffffffff16815260200190815260200160002060008373ffffffffffffffffffffffffffffffffffffffff1673ffffffffffffffffffffffffffffffffffffffff16815260200190815260200160002060009054906101000a900460ff16905092915050565b60007f01ffc9a7000000000000000000000000000000000000000000000000000000007bffffffffffffffffffffffffffffffffffffffffffffffffffffffff1916827bffffffffffffffffffffffffffffffffffffffffffffffffffffffff1916149050919050565b60008073ffffffffffffffffffffffffffffffffffffffff166002600084815260200190815260200160002060009054906101000a900473ffffffffffffffffffffffffffffffffffffffff1673ffffffffffffffffffffffffffffffffffffffff1614159050919050565b600033905090565b816004600083815260200190815260200160002060006101000a81548173ffffffffffffffffffffffffffffffffffffffff021916908373ffffffffffffffffffffffffffffffffffffffff160217905550808273ffffffffffffffffffffffffffffffffffffffff16611edb83610c53565b73ffffffffffffffffffffffffffffffffffffffff167f8c5be1e5ebec7d5bd14f71427d1e84f3dd0314c0f7b2291e5b200ac8c7c3b92560405160405180910390a45050565b611f32611f2c611e60565b826124b6565b611f71576040517f08c379a0000000000000000000000000000000000000000000000000000000008152600401611f68906140ce565b60405180910390fd5b611f7c838383612594565b505050565b611f9c838383604051806020016040528060008152506118ef565b505050565b600073ffffffffffffffffffffffffffffffffffffffff168273ffffffffffffffffffffffffffffffffffffffff161415612011576040517f08c379a00000000000000000000000000000000000000000000000000000000081526004016120089061413a565b60405180910390fd5b61201a81611df4565b1561205a576040517f08c379a0000000000000000000000000000000000000000000000000000000008152600401612051906141a6565b60405180910390fd5b612066600083836127f0565b6001600360008473ffffffffffffffffffffffffffffffffffffffff1673ffffffffffffffffffffffffffffffffffffffff16815260200190815260200160002060008282546120b69190613d07565b92505081905550816002600083815260200190815260200160002060006101000a81548173ffffffffffffffffffffffffffffffffffffffff021916908373ffffffffffffffffffffffffffffffffffffffff160217905550808273ffffffffffffffffffffffffffffffffffffffff16600073ffffffffffffffffffffffffffffffffffffffff167fddf252ad1be2c89b69c2b068fc378daa952ba7f163c4a11628f55a4df523b3ef60405160405180910390a45050565b8173ffffffffffffffffffffffffffffffffffffffff168373ffffffffffffffffffffffffffffffffffffffff1614156121de576040517f08c379a00000000000000000000000000000000000000000000000000000000081526004016121d590614212565b60405180910390fd5b80600560008573ffffffffffffffffffffffffffffffffffffffff1673ffffffffffffffffffffffffffffffffffffffff16815260200190815260200160002060008473ffffffffffffffffffffffffffffffffffffffff1673ffffffffffffffffffffffffffffffffffffffff16815260200190815260200160002060006101000a81548160ff0219169083151502179055508173ffffffffffffffffffffffffffffffffffffffff168373ffffffffffffffffffffffffffffffffffffffff167f17307eab39ab6107e8899845ad3d59bd9653f200f220920489ca2b5937696c31836040516122cf9190612bcd565b60405180910390a3505050565b6122ed6122e7611e60565b836124b6565b61232c576040517f08c379a0000000000000000000000000000000000000000000000000000000008152600401612323906140ce565b60405180910390fd5b612338848484846127f5565b50505050565b606060405180602001604052806000815250905090565b6060600082141561239d576040518060400160405280600181526020017f300000000000000000000000000000000000000000000000000000000000000081525090506124b1565b600082905060005b600082146123cf5780806123b890613de1565b915050600a826123c89190614261565b91506123a5565b60008167ffffffffffffffff8111156123eb576123ea612f06565b5b6040519080825280601f01601f19166020018201604052801561241d5781602001600182028036833780820191505090505b5090505b600085146124aa576001826124369190613864565b9150600a856124459190614292565b60306124519190613d07565b60f81b81838151811061246757612466613898565b5b60200101907effffffffffffffffffffffffffffffffffffffffffffffffffffffffffffff1916908160001a905350600a856124a39190614261565b9450612421565b8093505050505b919050565b60006124c182611df4565b612500576040517f08c379a00000000000000000000000000000000000000000000000000000000081526004016124f790614335565b60405180910390fd5b600061250b83610c53565b90508073ffffffffffffffffffffffffffffffffffffffff168473ffffffffffffffffffffffffffffffffffffffff16148061257a57508373ffffffffffffffffffffffffffffffffffffffff1661256284610605565b73ffffffffffffffffffffffffffffffffffffffff16145b8061258b575061258a8185611cf6565b5b91505092915050565b8273ffffffffffffffffffffffffffffffffffffffff166125b482610c53565b73ffffffffffffffffffffffffffffffffffffffff161461260a576040517f08c379a0000000000000000000000000000000000000000000000000000000008152600401612601906143c7565b60405180910390fd5b600073ffffffffffffffffffffffffffffffffffffffff168273ffffffffffffffffffffffffffffffffffffffff16141561267a576040517f08c379a000000000000000000000000000000000000000000000000000000000815260040161267190614459565b60405180910390fd5b6126858383836127f0565b612690600082611e68565b6001600360008573ffffffffffffffffffffffffffffffffffffffff1673ffffffffffffffffffffffffffffffffffffffff16815260200190815260200160002060008282546126e09190613864565b925050819055506001600360008473ffffffffffffffffffffffffffffffffffffffff1673ffffffffffffffffffffffffffffffffffffffff16815260200190815260200160002060008282546127379190613d07565b92505081905550816002600083815260200190815260200160002060006101000a81548173ffffffffffffffffffffffffffffffffffffffff021916908373ffffffffffffffffffffffffffffffffffffffff160217905550808273ffffffffffffffffffffffffffffffffffffffff168473ffffffffffffffffffffffffffffffffffffffff167fddf252ad1be2c89b69c2b068fc378daa952ba7f163c4a11628f55a4df523b3ef60405160405180910390a4505050565b505050565b612800848484612594565b61280c84848484612851565b61284b576040517f08c379a0000000000000000000000000000000000000000000000000000000008152600401612842906144eb565b60405180910390fd5b50505050565b60006128728473ffffffffffffffffffffffffffffffffffffffff166129d9565b156129cc578373ffffffffffffffffffffffffffffffffffffffff1663150b7a0261289b611e60565b8786866040518563ffffffff1660e01b81526004016128bd9493929190614560565b6020604051808303816000875af19250505080156128f957506040513d601f19601f820116820180604052508101906128f691906145c1565b60015b61297c573d8060008114612929576040519150601f19603f3d011682016040523d82523d6000602084013e61292e565b606091505b50600081511415612974576040517f08c379a000000000000000000000000000000000000000000000000000000000815260040161296b906144eb565b60405180910390fd5b805181602001fd5b63150b7a0260e01b7bffffffffffffffffffffffffffffffffffffffffffffffffffffffff1916817bffffffffffffffffffffffffffffffffffffffffffffffffffffffff1916149150506129d1565b600190505b949350505050565b600080823b905060008111915050919050565b828054828255906000526020600020908101928215612a65579160200282015b82811115612a645782518260006101000a81548173ffffffffffffffffffffffffffffffffffffffff021916908373ffffffffffffffffffffffffffffffffffffffff16021790555091602001919060010190612a0c565b5b509050612a729190612afc565b5090565b828054612a829061347b565b90600052602060002090601f016020900481019282612aa45760008555612aeb565b82601f10612abd57805160ff1916838001178555612aeb565b82800160010185558215612aeb579182015b82811115612aea578251825591602001919060010190612acf565b5b509050612af89190612afc565b5090565b5b80821115612b15576000816000905550600101612afd565b5090565b6000604051905090565b600080fd5b600080fd5b60007fffffffff0000000000000000000000000000000000000000000000000000000082169050919050565b612b6281612b2d565b8114612b6d57600080fd5b50565b600081359050612b7f81612b59565b92915050565b600060208284031215612b9b57612b9a612b23565b5b6000612ba984828501612b70565b91505092915050565b60008115159050919050565b612bc781612bb2565b82525050565b6000602082019050612be26000830184612bbe565b92915050565b600081519050919050565b600082825260208201905092915050565b60005b83811015612c22578082015181840152602081019050612c07565b83811115612c31576000848401525b50505050565b6000601f19601f8301169050919050565b6000612c5382612be8565b612c5d8185612bf3565b9350612c6d818560208601612c04565b612c7681612c37565b840191505092915050565b60006020820190508181036000830152612c9b8184612c48565b905092915050565b6000819050919050565b612cb681612ca3565b8114612cc157600080fd5b50565b600081359050612cd381612cad565b92915050565b600060208284031215612cef57612cee612b23565b5b6000612cfd84828501612cc4565b91505092915050565b600073ffffffffffffffffffffffffffffffffffffffff82169050919050565b6000612d3182612d06565b9050919050565b612d4181612d26565b82525050565b6000602082019050612d5c6000830184612d38565b92915050565b612d6b81612d26565b8114612d7657600080fd5b50565b600081359050612d8881612d62565b92915050565b60008060408385031215612da557612da4612b23565b5b6000612db385828601612d79565b9250506020612dc485828601612cc4565b9150509250929050565b600080600060608486031215612de757612de6612b23565b5b6000612df586828701612d79565b9350506020612e0686828701612d79565b9250506040612e1786828701612cc4565b9150509250925092565b600081519050919050565b600082825260208201905092915050565b6000819050602082019050919050565b612e5681612d26565b82525050565b6000612e688383612e4d565b60208301905092915050565b6000602082019050919050565b6000612e8c82612e21565b612e968185612e2c565b9350612ea183612e3d565b8060005b83811015612ed2578151612eb98882612e5c565b9750612ec483612e74565b925050600181019050612ea5565b5085935050505092915050565b60006020820190508181036000830152612ef98184612e81565b905092915050565b600080fd5b7f4e487b7100000000000000000000000000000000000000000000000000000000600052604160045260246000fd5b612f3e82612c37565b810181811067ffffffffffffffff82111715612f5d57612f5c612f06565b5b80604052505050565b6000612f70612b19565b9050612f7c8282612f35565b919050565b600067ffffffffffffffff821115612f9c57612f9b612f06565b5b602082029050602081019050919050565b600080fd5b6000612fc5612fc084612f81565b612f66565b90508083825260208201905060208402830185811115612fe857612fe7612fad565b5b835b818110156130115780612ffd8882612d79565b845260208401935050602081019050612fea565b5050509392505050565b600082601f8301126130305761302f612f01565b5b8135613040848260208601612fb2565b91505092915050565b60008060006060848603121561306257613061612b23565b5b600061307086828701612cc4565b935050602084013567ffffffffffffffff81111561309157613090612b28565b5b61309d8682870161301b565b92505060406130ae86828701612d79565b9150509250925092565b6000602082840312156130ce576130cd612b23565b5b60006130dc84828501612d79565b91505092915050565b6130ee81612ca3565b82525050565b600060208201905061310960008301846130e5565b92915050565b600080fd5b600067ffffffffffffffff82111561312f5761312e612f06565b5b61313882612c37565b9050602081019050919050565b82818337600083830152505050565b600061316761316284613114565b612f66565b9050828152602081018484840111156131835761318261310f565b5b61318e848285613145565b509392505050565b600082601f8301126131ab576131aa612f01565b5b81356131bb848260208601613154565b91505092915050565b6000806000606084860312156131dd576131dc612b23565b5b600084013567ffffffffffffffff8111156131fb576131fa612b28565b5b61320786828701613196565b935050602061321886828701612d79565b925050604061322986828701612d79565b9150509250925092565b61323c81612bb2565b811461324757600080fd5b50565b60008135905061325981613233565b92915050565b6000806040838503121561327657613275612b23565b5b600061328485828601612d79565b92505060206132958582860161324a565b9150509250929050565b6000602082840312156132b5576132b4612b23565b5b600082013567ffffffffffffffff8111156132d3576132d2612b28565b5b6132df84828501613196565b91505092915050565b600067ffffffffffffffff82111561330357613302612f06565b5b61330c82612c37565b9050602081019050919050565b600061332c613327846132e8565b612f66565b9050828152602081018484840111156133485761334761310f565b5b613353848285613145565b509392505050565b600082601f8301126133705761336f612f01565b5b8135613380848260208601613319565b91505092915050565b600080600080608085870312156133a3576133a2612b23565b5b60006133b187828801612d79565b94505060206133c287828801612d79565b93505060406133d387828801612cc4565b925050606085013567ffffffffffffffff8111156133f4576133f3612b28565b5b6134008782880161335b565b91505092959194509250565b6000806040838503121561342357613422612b23565b5b600061343185828601612d79565b925050602061344285828601612d79565b9150509250929050565b7f4e487b7100000000000000000000000000000000000000000000000000000000600052602260045260246000fd5b6000600282049050600182168061349357607f821691505b602082108114156134a7576134a661344c565b5b50919050565b7f4552433732313a20617070726f76656420717565727920666f72206e6f6e657860008201527f697374656e7420746f6b656e0000000000000000000000000000000000000000602082015250565b6000613509602c83612bf3565b9150613514826134ad565b604082019050919050565b60006020820190508181036000830152613538816134fc565b9050919050565b7f4552433732313a20617070726f76616c20746f2063757272656e74206f776e6560008201527f7200000000000000000000000000000000000000000000000000000000000000602082015250565b600061359b602183612bf3565b91506135a68261353f565b604082019050919050565b600060208201905081810360008301526135ca8161358e565b9050919050565b7f4552433732313a20617070726f76652063616c6c6572206973206e6f74206f7760008201527f6e6572206e6f7220617070726f76656420666f7220616c6c0000000000000000602082015250565b600061362d603883612bf3565b9150613638826135d1565b604082019050919050565b6000602082019050818103600083015261365c81613620565b9050919050565b7f5472616e73666572206166746572206d696e742069732070726f68696269746560008201527f6400000000000000000000000000000000000000000000000000000000000000602082015250565b60006136bf602183612bf3565b91506136ca82613663565b604082019050919050565b600060208201905081810360008301526136ee816136b2565b9050919050565b60008151905061370481613233565b92915050565b6000602082840312156137205761371f612b23565b5b600061372e848285016136f5565b91505092915050565b7f54686973206164647265737320646f6573206e6f74206861766520526563746f60008201527f72205065726d697373696f6e7300000000000000000000000000000000000000602082015250565b6000613793602d83612bf3565b915061379e82613737565b604082019050919050565b600060208201905081810360008301526137c281613786565b9050919050565b7f54686973204465706172746d656e7420646f6573206e6f742065786973740000600082015250565b60006137ff601e83612bf3565b915061380a826137c9565b602082019050919050565b6000602082019050818103600083015261382e816137f2565b9050919050565b7f4e487b7100000000000000000000000000000000000000000000000000000000600052601160045260246000fd5b600061386f82612ca3565b915061387a83612ca3565b92508282101561388d5761388c613835565b5b828203905092915050565b7f4e487b7100000000000000000000000000000000000000000000000000000000600052603260045260246000fd5b7f4552433732313a206f776e657220717565727920666f72206e6f6e657869737460008201527f656e7420746f6b656e0000000000000000000000000000000000000000000000602082015250565b6000613923602983612bf3565b915061392e826138c7565b604082019050919050565b6000602082019050818103600083015261395281613916565b9050919050565b7f4552433732313a2062616c616e636520717565727920666f7220746865207a6560008201527f726f206164647265737300000000000000000000000000000000000000000000602082015250565b60006139b5602a83612bf3565b91506139c082613959565b604082019050919050565b600060208201905081810360008301526139e4816139a8565b9050919050565b7f54686973206163636f756e7420646f6573206e6f74206861766520526563746f60008201527f72205065726d697373696f6e7300000000000000000000000000000000000000602082015250565b6000613a47602d83612bf3565b9150613a52826139eb565b604082019050919050565b60006020820190508181036000830152613a7681613a3a565b9050919050565b600081905092915050565b6000613a9382612be8565b613a9d8185613a7d565b9350613aad818560208601612c04565b80840191505092915050565b6000613ac58284613a88565b915081905092915050565b7f54686973204465706172746d656e7420697320616c7265616479206578697374600082015250565b6000613b06602083612bf3565b9150613b1182613ad0565b602082019050919050565b60006020820190508181036000830152613b3581613af9565b9050919050565b7f54686973206465706172746d656e7441646472657373206973206e6f7420696e60008201527f204445504152544d454e545f524f4c4500000000000000000000000000000000602082015250565b6000613b98603083612bf3565b9150613ba382613b3c565b604082019050919050565b60006020820190508181036000830152613bc781613b8b565b9050919050565b50565b6000613bde600083613a7d565b9150613be982613bce565b600082019050919050565b6000613bff82613bd1565b9150819050919050565b7f4465706172746d656e74206e616d652063616e6e6f7420626520656d70747900600082015250565b6000613c3f601f83612bf3565b9150613c4a82613c09565b602082019050919050565b60006020820190508181036000830152613c6e81613c32565b9050919050565b7f5468697320666163756c747941646472657373206973206e6f7420696e20464160008201527f43554c54595f524f4c4500000000000000000000000000000000000000000000602082015250565b6000613cd1602a83612bf3565b9150613cdc82613c75565b604082019050919050565b60006020820190508181036000830152613d0081613cc4565b9050919050565b6000613d1282612ca3565b9150613d1d83612ca3565b9250827fffffffffffffffffffffffffffffffffffffffffffffffffffffffffffffffff03821115613d5257613d51613835565b5b828201905092915050565b600081519050613d6c81612cad565b92915050565b600060208284031215613d8857613d87612b23565b5b6000613d9684828501613d5d565b91505092915050565b600081519050613dae81612d62565b92915050565b600060208284031215613dca57613dc9612b23565b5b6000613dd884828501613d9f565b91505092915050565b6000613dec82612ca3565b91507fffffffffffffffffffffffffffffffffffffffffffffffffffffffffffffffff821415613e1f57613e1e613835565b5b600182019050919050565b7f466163756c74792063616e6e6f7420666f756e64000000000000000000000000600082015250565b6000613e60601483612bf3565b9150613e6b82613e2a565b602082019050919050565b60006020820190508181036000830152613e8f81613e53565b9050919050565b6000613ea9613ea484612f81565b612f66565b90508083825260208201905060208402830185811115613ecc57613ecb612fad565b5b835b81811015613ef55780613ee18882613d9f565b845260208401935050602081019050613ece565b5050509392505050565b600082601f830112613f1457613f13612f01565b5b8151613f24848260208601613e96565b91505092915050565b600060208284031215613f4357613f42612b23565b5b600082015167ffffffffffffffff811115613f6157613f60612b28565b5b613f6d84828501613eff565b91505092915050565b6000604082019050613f8b60008301856130e5565b8181036020830152613f9d8184612e81565b90509392505050565b7f4552433732314d657461646174613a2055524920717565727920666f72206e6f60008201527f6e6578697374656e7420746f6b656e0000000000000000000000000000000000602082015250565b6000614002602f83612bf3565b915061400d82613fa6565b604082019050919050565b6000602082019050818103600083015261403181613ff5565b9050919050565b60006140448285613a88565b91506140508284613a88565b91508190509392505050565b7f4552433732313a207472616e736665722063616c6c6572206973206e6f74206f60008201527f776e6572206e6f7220617070726f766564000000000000000000000000000000602082015250565b60006140b8603183612bf3565b91506140c38261405c565b604082019050919050565b600060208201905081810360008301526140e7816140ab565b9050919050565b7f4552433732313a206d696e7420746f20746865207a65726f2061646472657373600082015250565b6000614124602083612bf3565b915061412f826140ee565b602082019050919050565b6000602082019050818103600083015261415381614117565b9050919050565b7f4552433732313a20746f6b656e20616c7265616479206d696e74656400000000600082015250565b6000614190601c83612bf3565b915061419b8261415a565b602082019050919050565b600060208201905081810360008301526141bf81614183565b9050919050565b7f4552433732313a20617070726f766520746f2063616c6c657200000000000000600082015250565b60006141fc601983612bf3565b9150614207826141c6565b602082019050919050565b6000602082019050818103600083015261422b816141ef565b9050919050565b7f4e487b7100000000000000000000000000000000000000000000000000000000600052601260045260246000fd5b600061426c82612ca3565b915061427783612ca3565b92508261428757614286614232565b5b828204905092915050565b600061429d82612ca3565b91506142a883612ca3565b9250826142b8576142b7614232565b5b828206905092915050565b7f4552433732313a206f70657261746f7220717565727920666f72206e6f6e657860008201527f697374656e7420746f6b656e0000000000000000000000000000000000000000602082015250565b600061431f602c83612bf3565b915061432a826142c3565b604082019050919050565b6000602082019050818103600083015261434e81614312565b9050919050565b7f4552433732313a207472616e73666572206f6620746f6b656e2074686174206960008201527f73206e6f74206f776e0000000000000000000000000000000000000000000000602082015250565b60006143b1602983612bf3565b91506143bc82614355565b604082019050919050565b600060208201905081810360008301526143e0816143a4565b9050919050565b7f4552433732313a207472616e7366657220746f20746865207a65726f2061646460008201527f7265737300000000000000000000000000000000000000000000000000000000602082015250565b6000614443602483612bf3565b915061444e826143e7565b604082019050919050565b6000602082019050818103600083015261447281614436565b9050919050565b7f4552433732313a207472616e7366657220746f206e6f6e20455243373231526560008201527f63656976657220696d706c656d656e7465720000000000000000000000000000602082015250565b60006144d5603283612bf3565b91506144e082614479565b604082019050919050565b60006020820190508181036000830152614504816144c8565b9050919050565b600081519050919050565b600082825260208201905092915050565b60006145328261450b565b61453c8185614516565b935061454c818560208601612c04565b61455581612c37565b840191505092915050565b60006080820190506145756000830187612d38565b6145826020830186612d38565b61458f60408301856130e5565b81810360608301526145a18184614527565b905095945050505050565b6000815190506145bb81612b59565b92915050565b6000602082840312156145d7576145d6612b23565b5b60006145e5848285016145ac565b9150509291505056fea2646970667358221220f96a6d4d33938d42933eb934c3c1c1e4edef9148ecfe712a47270f96ce539fc764736f6c634300080a0033",
  "immutableReferences": {},
  "source": "pragma solidity ^0.8.10;\r\n\r\nimport \"@openzeppelin/contracts/token/ERC721/ERC721.sol\";\r\nimport \"./Roles.sol\";\r\nimport \"./Faculty.sol\";\r\n\r\ncontract Department is ERC721{\r\n\r\n    address rolesContractAddress;\r\n    address facultyContractAddress;\r\n\r\n    uint256 _totalSupply = 0;\r\n    //mapping from tokenID to departmentName\r\n    mapping(uint256 => string) _departmentNameOfID;\r\n    //mapping from departmentName to tokenID\r\n    mapping(string => uint256) _IDOfDepartmentName;\r\n\r\n    //mapping from tokenID to its Faculty Address\r\n    mapping(uint256 => address) _faculty;\r\n    //mapping from tokenID to its Instructor Addresses\r\n    mapping(uint256 => address[]) _instructors;\r\n    //mapping from tokenID to its Student Addresses\r\n    mapping(uint256 => address[]) _students;\r\n\r\n    constructor(address _rolesContractAddress, address _facultyContractAddress) ERC721(\"Department\", \"DEP\"){\r\n        rolesContractAddress =_rolesContractAddress;\r\n        facultyContractAddress = _facultyContractAddress;\r\n    }\r\n\r\n    function mint(string memory _departmentName, address departmentAddress, address facultyAddress) public{\r\n        require(Roles(rolesContractAddress).hasRectorRole(msg.sender), \"This account does not have Rector Permissions\");\r\n        require(_IDOfDepartmentName[_departmentName] == 0, \"This Department is already exist\");\r\n        Roles(rolesContractAddress).grantDepartmentRole(departmentAddress);\r\n        require(Roles(rolesContractAddress).hasDepartmentRole(departmentAddress), \"This departmentAddress is not in DEPARTMENT_ROLE\");\r\n        require(keccak256(abi.encodePacked(_departmentName)) != keccak256(abi.encodePacked(\"\")), \"Department name cannot be empty\");\r\n        require(Roles(rolesContractAddress).hasFacultyRole(facultyAddress), \"This facultyAddress is not in FACULTY_ROLE\");\r\n        // Department - add\r\n        _totalSupply = _totalSupply + 1;\r\n        uint _id = _totalSupply; //tokenID's start from 1 because default uint256 value is 0\r\n        // Call the mint function of ERC721\r\n        _mint(departmentAddress, _id);\r\n        // Department - track it\r\n        _IDOfDepartmentName[_departmentName] = _id;\r\n        _departmentNameOfID[_id] = _departmentName;\r\n        _faculty[_id] = facultyAddress;\r\n        //Add to Faculty's Departments List\r\n        uint256 totalSupply = Faculty(facultyContractAddress).getTotalSupply();\r\n        uint256 facultyID = 0;\r\n        for(uint i = 1; i<=totalSupply; i++){\r\n            if(Faculty(facultyContractAddress).ownerOf(i) == facultyAddress){\r\n                facultyID = i;\r\n                break;\r\n            }\r\n        }\r\n        require(facultyID>0, \"Faculty cannot found\");\r\n        address[] memory departments = Faculty(facultyContractAddress).getDepartments(facultyID);\r\n        address[] memory newDepartments = new address[](departments.length+1);\r\n        for(uint i = 0; i<departments.length; i++){\r\n            newDepartments[i] = departments[i];\r\n        }\r\n        newDepartments[newDepartments.length-1] = departmentAddress;\r\n        Faculty(facultyContractAddress).setDepartments(facultyID,newDepartments);\r\n    }\r\n    function getDepartmentName(uint256 id) public view returns(string memory departmentName){\r\n        return _departmentNameOfID[id];\r\n    }\r\n    function getDepartmentID(string memory departmentName) public view returns(uint256 departmentID){\r\n        return _IDOfDepartmentName[departmentName];\r\n    }\r\n    function getTotalSupply() public view returns(uint256 totalSupply){\r\n        return _totalSupply;\r\n    }\r\n    function getFaculty(uint256 id) public view returns(address){\r\n        return _faculty[id];\r\n    }\r\n    function getInstructors(uint256 id) public view returns(address[] memory){\r\n        return _instructors[id];\r\n    }\r\n    function setInstructors(uint256 _id, address[] memory instructors, address revoked) public{\r\n        require(Roles(rolesContractAddress).hasRectorRole(msg.sender), \"This address does not have Rector Permissions\");\r\n        require(_id>0 && _id<=_totalSupply, \"This Department does not exist\");\r\n        _instructors[_id] = instructors;\r\n        if(revoked == 0x0000000000000000000000000000000000000000){\r\n            Roles(rolesContractAddress).grantInstructorRole(instructors[instructors.length - 1]);\r\n        }else{\r\n            Roles(rolesContractAddress).revokeInstructorRole(revoked);\r\n        }\r\n    }\r\n    function getStudents(uint256 id) public view returns(address[] memory){\r\n        return _students[id];\r\n    }\r\n    function setStudents(uint256 _id, address[] memory students, address revoked) public{\r\n        require(Roles(rolesContractAddress).hasRectorRole(msg.sender), \"This address does not have Rector Permissions\");\r\n        require(_id>0 && _id<=_totalSupply, \"This Department does not exist\");\r\n        _students[_id] = students;\r\n        if(revoked == 0x0000000000000000000000000000000000000000){\r\n            Roles(rolesContractAddress).grantStudentRole(students[students.length - 1]);\r\n        }else{\r\n            Roles(rolesContractAddress).revokeStudentRole(revoked);\r\n        }\r\n    }\r\n    function transferFrom(//Only callable when minted\r\n        address from,\r\n        address to,\r\n        uint256 tokenId\r\n    ) public virtual override {\r\n        require(msg.sender == 0x0000000000000000000000000000000000000000, \"Transfer after mint is prohibited\");\r\n        super.transferFrom(from,to,tokenId);\r\n    }\r\n    function safeTransferFrom(//Only callable when minted\r\n        address from,\r\n        address to,\r\n        uint256 tokenId\r\n    ) public virtual override {\r\n        require(msg.sender == 0x0000000000000000000000000000000000000000, \"Transfer after mint is prohibited\");\r\n        super.safeTransferFrom(from,to,tokenId);\r\n    }\r\n    function safeTransferFrom(//Only callable when minted\r\n        address from,\r\n        address to,\r\n        uint256 tokenId,\r\n        bytes memory _data\r\n    ) public virtual override {\r\n        require(msg.sender == 0x0000000000000000000000000000000000000000, \"Transfer after mint is prohibited\");\r\n        super.safeTransferFrom(from, to, tokenId, _data);\r\n    }\r\n}",
  "sourcePath": "C:\\Users\\asus\\Desktop\\Dersler\\CMPE492\\certification-project\\contracts\\Department.sol",
  "compiler": {
    "name": "solc",
    "version": "0.8.10+commit.fc410830.Emscripten.clang"
  },
  "schemaVersion": "3.4.4",
  "updatedAt": "2022-01-23T18:41:48.715Z",
  "devdoc": {
    "kind": "dev",
    "methods": {
      "approve(address,uint256)": {
        "details": "See {IERC721-approve}."
      },
      "balanceOf(address)": {
        "details": "See {IERC721-balanceOf}."
      },
      "getApproved(uint256)": {
        "details": "See {IERC721-getApproved}."
      },
      "isApprovedForAll(address,address)": {
        "details": "See {IERC721-isApprovedForAll}."
      },
      "name()": {
        "details": "See {IERC721Metadata-name}."
      },
      "ownerOf(uint256)": {
        "details": "See {IERC721-ownerOf}."
      },
      "safeTransferFrom(address,address,uint256)": {
        "details": "See {IERC721-safeTransferFrom}."
      },
      "safeTransferFrom(address,address,uint256,bytes)": {
        "details": "See {IERC721-safeTransferFrom}."
      },
      "setApprovalForAll(address,bool)": {
        "details": "See {IERC721-setApprovalForAll}."
      },
      "supportsInterface(bytes4)": {
        "details": "See {IERC165-supportsInterface}."
      },
      "symbol()": {
        "details": "See {IERC721Metadata-symbol}."
      },
      "tokenURI(uint256)": {
        "details": "See {IERC721Metadata-tokenURI}."
      },
      "transferFrom(address,address,uint256)": {
        "details": "See {IERC721-transferFrom}."
      }
    },
    "version": 1
  },
  "userdoc": {
    "kind": "user",
    "methods": {},
    "version": 1
  }
}