{
  "contractName": "Department",
  "abi": [
    {
      "inputs": [],
      "stateMutability": "nonpayable",
      "type": "constructor"
    },
    {
      "anonymous": false,
      "inputs": [
        {
          "indexed": true,
          "internalType": "address",
          "name": "owner",
          "type": "address"
        },
        {
          "indexed": true,
          "internalType": "address",
          "name": "approved",
          "type": "address"
        },
        {
          "indexed": true,
          "internalType": "uint256",
          "name": "tokenId",
          "type": "uint256"
        }
      ],
      "name": "Approval",
      "type": "event"
    },
    {
      "anonymous": false,
      "inputs": [
        {
          "indexed": true,
          "internalType": "address",
          "name": "owner",
          "type": "address"
        },
        {
          "indexed": true,
          "internalType": "address",
          "name": "operator",
          "type": "address"
        },
        {
          "indexed": false,
          "internalType": "bool",
          "name": "approved",
          "type": "bool"
        }
      ],
      "name": "ApprovalForAll",
      "type": "event"
    },
    {
      "anonymous": false,
      "inputs": [
        {
          "indexed": true,
          "internalType": "bytes32",
          "name": "role",
          "type": "bytes32"
        },
        {
          "indexed": true,
          "internalType": "bytes32",
          "name": "previousAdminRole",
          "type": "bytes32"
        },
        {
          "indexed": true,
          "internalType": "bytes32",
          "name": "newAdminRole",
          "type": "bytes32"
        }
      ],
      "name": "RoleAdminChanged",
      "type": "event"
    },
    {
      "anonymous": false,
      "inputs": [
        {
          "indexed": true,
          "internalType": "bytes32",
          "name": "role",
          "type": "bytes32"
        },
        {
          "indexed": true,
          "internalType": "address",
          "name": "account",
          "type": "address"
        },
        {
          "indexed": true,
          "internalType": "address",
          "name": "sender",
          "type": "address"
        }
      ],
      "name": "RoleGranted",
      "type": "event"
    },
    {
      "anonymous": false,
      "inputs": [
        {
          "indexed": true,
          "internalType": "bytes32",
          "name": "role",
          "type": "bytes32"
        },
        {
          "indexed": true,
          "internalType": "address",
          "name": "account",
          "type": "address"
        },
        {
          "indexed": true,
          "internalType": "address",
          "name": "sender",
          "type": "address"
        }
      ],
      "name": "RoleRevoked",
      "type": "event"
    },
    {
      "anonymous": false,
      "inputs": [
        {
          "indexed": true,
          "internalType": "address",
          "name": "from",
          "type": "address"
        },
        {
          "indexed": true,
          "internalType": "address",
          "name": "to",
          "type": "address"
        },
        {
          "indexed": true,
          "internalType": "uint256",
          "name": "tokenId",
          "type": "uint256"
        }
      ],
      "name": "Transfer",
      "type": "event"
    },
    {
      "inputs": [],
      "name": "DEFAULT_ADMIN_ROLE",
      "outputs": [
        {
          "internalType": "bytes32",
          "name": "",
          "type": "bytes32"
        }
      ],
      "stateMutability": "view",
      "type": "function",
      "constant": true
    },
    {
      "inputs": [],
      "name": "DEPARTMENT_ROLE",
      "outputs": [
        {
          "internalType": "bytes32",
          "name": "",
          "type": "bytes32"
        }
      ],
      "stateMutability": "view",
      "type": "function",
      "constant": true
    },
    {
      "inputs": [],
      "name": "FACULTY_ROLE",
      "outputs": [
        {
          "internalType": "bytes32",
          "name": "",
          "type": "bytes32"
        }
      ],
      "stateMutability": "view",
      "type": "function",
      "constant": true
    },
    {
      "inputs": [],
      "name": "GRADUATED_ROLE",
      "outputs": [
        {
          "internalType": "bytes32",
          "name": "",
          "type": "bytes32"
        }
      ],
      "stateMutability": "view",
      "type": "function",
      "constant": true
    },
    {
      "inputs": [],
      "name": "INSTRUCTOR_ROLE",
      "outputs": [
        {
          "internalType": "bytes32",
          "name": "",
          "type": "bytes32"
        }
      ],
      "stateMutability": "view",
      "type": "function",
      "constant": true
    },
    {
      "inputs": [],
      "name": "RECTOR_ROLE",
      "outputs": [
        {
          "internalType": "bytes32",
          "name": "",
          "type": "bytes32"
        }
      ],
      "stateMutability": "view",
      "type": "function",
      "constant": true
    },
    {
      "inputs": [],
      "name": "STUDENT_ROLE",
      "outputs": [
        {
          "internalType": "bytes32",
          "name": "",
          "type": "bytes32"
        }
      ],
      "stateMutability": "view",
      "type": "function",
      "constant": true
    },
    {
      "inputs": [
        {
          "internalType": "address",
          "name": "to",
          "type": "address"
        },
        {
          "internalType": "uint256",
          "name": "tokenId",
          "type": "uint256"
        }
      ],
      "name": "approve",
      "outputs": [],
      "stateMutability": "nonpayable",
      "type": "function"
    },
    {
      "inputs": [
        {
          "internalType": "address",
          "name": "owner",
          "type": "address"
        }
      ],
      "name": "balanceOf",
      "outputs": [
        {
          "internalType": "uint256",
          "name": "",
          "type": "uint256"
        }
      ],
      "stateMutability": "view",
      "type": "function",
      "constant": true
    },
    {
      "inputs": [
        {
          "internalType": "uint256",
          "name": "tokenId",
          "type": "uint256"
        }
      ],
      "name": "getApproved",
      "outputs": [
        {
          "internalType": "address",
          "name": "",
          "type": "address"
        }
      ],
      "stateMutability": "view",
      "type": "function",
      "constant": true
    },
    {
      "inputs": [],
      "name": "getDepartmentRoles",
      "outputs": [
        {
          "internalType": "address[]",
          "name": "",
          "type": "address[]"
        }
      ],
      "stateMutability": "view",
      "type": "function",
      "constant": true
    },
    {
      "inputs": [],
      "name": "getFacultyRoles",
      "outputs": [
        {
          "internalType": "address[]",
          "name": "",
          "type": "address[]"
        }
      ],
      "stateMutability": "view",
      "type": "function",
      "constant": true
    },
    {
      "inputs": [],
      "name": "getGraduatedRoles",
      "outputs": [
        {
          "internalType": "address[]",
          "name": "",
          "type": "address[]"
        }
      ],
      "stateMutability": "view",
      "type": "function",
      "constant": true
    },
    {
      "inputs": [],
      "name": "getInstructorRoles",
      "outputs": [
        {
          "internalType": "address[]",
          "name": "",
          "type": "address[]"
        }
      ],
      "stateMutability": "view",
      "type": "function",
      "constant": true
    },
    {
      "inputs": [],
      "name": "getRectorRole",
      "outputs": [
        {
          "internalType": "address",
          "name": "",
          "type": "address"
        }
      ],
      "stateMutability": "view",
      "type": "function",
      "constant": true
    },
    {
      "inputs": [
        {
          "internalType": "bytes32",
          "name": "role",
          "type": "bytes32"
        }
      ],
      "name": "getRoleAdmin",
      "outputs": [
        {
          "internalType": "bytes32",
          "name": "",
          "type": "bytes32"
        }
      ],
      "stateMutability": "view",
      "type": "function",
      "constant": true
    },
    {
      "inputs": [
        {
          "internalType": "bytes32",
          "name": "role",
          "type": "bytes32"
        },
        {
          "internalType": "uint256",
          "name": "index",
          "type": "uint256"
        }
      ],
      "name": "getRoleMember",
      "outputs": [
        {
          "internalType": "address",
          "name": "",
          "type": "address"
        }
      ],
      "stateMutability": "view",
      "type": "function",
      "constant": true
    },
    {
      "inputs": [
        {
          "internalType": "bytes32",
          "name": "role",
          "type": "bytes32"
        }
      ],
      "name": "getRoleMemberCount",
      "outputs": [
        {
          "internalType": "uint256",
          "name": "",
          "type": "uint256"
        }
      ],
      "stateMutability": "view",
      "type": "function",
      "constant": true
    },
    {
      "inputs": [],
      "name": "getStudentRoles",
      "outputs": [
        {
          "internalType": "address[]",
          "name": "",
          "type": "address[]"
        }
      ],
      "stateMutability": "view",
      "type": "function",
      "constant": true
    },
    {
      "inputs": [
        {
          "internalType": "address",
          "name": "account",
          "type": "address"
        }
      ],
      "name": "grantDepartmentRole",
      "outputs": [],
      "stateMutability": "nonpayable",
      "type": "function"
    },
    {
      "inputs": [
        {
          "internalType": "address",
          "name": "account",
          "type": "address"
        }
      ],
      "name": "grantFacultyRole",
      "outputs": [],
      "stateMutability": "nonpayable",
      "type": "function"
    },
    {
      "inputs": [
        {
          "internalType": "address",
          "name": "account",
          "type": "address"
        }
      ],
      "name": "grantGraduatedRole",
      "outputs": [],
      "stateMutability": "nonpayable",
      "type": "function"
    },
    {
      "inputs": [
        {
          "internalType": "address",
          "name": "account",
          "type": "address"
        }
      ],
      "name": "grantInstructorRole",
      "outputs": [],
      "stateMutability": "nonpayable",
      "type": "function"
    },
    {
      "inputs": [
        {
          "internalType": "address",
          "name": "account",
          "type": "address"
        }
      ],
      "name": "grantRectorRole",
      "outputs": [],
      "stateMutability": "nonpayable",
      "type": "function"
    },
    {
      "inputs": [
        {
          "internalType": "bytes32",
          "name": "role",
          "type": "bytes32"
        },
        {
          "internalType": "address",
          "name": "account",
          "type": "address"
        }
      ],
      "name": "grantRole",
      "outputs": [],
      "stateMutability": "nonpayable",
      "type": "function"
    },
    {
      "inputs": [
        {
          "internalType": "address",
          "name": "account",
          "type": "address"
        }
      ],
      "name": "grantStudentRole",
      "outputs": [],
      "stateMutability": "nonpayable",
      "type": "function"
    },
    {
      "inputs": [
        {
          "internalType": "address",
          "name": "account",
          "type": "address"
        }
      ],
      "name": "hasDepartmentRole",
      "outputs": [
        {
          "internalType": "bool",
          "name": "",
          "type": "bool"
        }
      ],
      "stateMutability": "view",
      "type": "function",
      "constant": true
    },
    {
      "inputs": [
        {
          "internalType": "address",
          "name": "account",
          "type": "address"
        }
      ],
      "name": "hasFacultyRole",
      "outputs": [
        {
          "internalType": "bool",
          "name": "",
          "type": "bool"
        }
      ],
      "stateMutability": "view",
      "type": "function",
      "constant": true
    },
    {
      "inputs": [
        {
          "internalType": "address",
          "name": "account",
          "type": "address"
        }
      ],
      "name": "hasGraduatedRole",
      "outputs": [
        {
          "internalType": "bool",
          "name": "",
          "type": "bool"
        }
      ],
      "stateMutability": "view",
      "type": "function",
      "constant": true
    },
    {
      "inputs": [
        {
          "internalType": "address",
          "name": "account",
          "type": "address"
        }
      ],
      "name": "hasInstructorRole",
      "outputs": [
        {
          "internalType": "bool",
          "name": "",
          "type": "bool"
        }
      ],
      "stateMutability": "view",
      "type": "function",
      "constant": true
    },
    {
      "inputs": [
        {
          "internalType": "address",
          "name": "account",
          "type": "address"
        }
      ],
      "name": "hasRectorRole",
      "outputs": [
        {
          "internalType": "bool",
          "name": "",
          "type": "bool"
        }
      ],
      "stateMutability": "view",
      "type": "function",
      "constant": true
    },
    {
      "inputs": [
        {
          "internalType": "bytes32",
          "name": "role",
          "type": "bytes32"
        },
        {
          "internalType": "address",
          "name": "account",
          "type": "address"
        }
      ],
      "name": "hasRole",
      "outputs": [
        {
          "internalType": "bool",
          "name": "",
          "type": "bool"
        }
      ],
      "stateMutability": "view",
      "type": "function",
      "constant": true
    },
    {
      "inputs": [
        {
          "internalType": "address",
          "name": "account",
          "type": "address"
        }
      ],
      "name": "hasStudentRole",
      "outputs": [
        {
          "internalType": "bool",
          "name": "",
          "type": "bool"
        }
      ],
      "stateMutability": "view",
      "type": "function",
      "constant": true
    },
    {
      "inputs": [
        {
          "internalType": "address",
          "name": "owner",
          "type": "address"
        },
        {
          "internalType": "address",
          "name": "operator",
          "type": "address"
        }
      ],
      "name": "isApprovedForAll",
      "outputs": [
        {
          "internalType": "bool",
          "name": "",
          "type": "bool"
        }
      ],
      "stateMutability": "view",
      "type": "function",
      "constant": true
    },
    {
      "inputs": [],
      "name": "name",
      "outputs": [
        {
          "internalType": "string",
          "name": "",
          "type": "string"
        }
      ],
      "stateMutability": "view",
      "type": "function",
      "constant": true
    },
    {
      "inputs": [
        {
          "internalType": "uint256",
          "name": "tokenId",
          "type": "uint256"
        }
      ],
      "name": "ownerOf",
      "outputs": [
        {
          "internalType": "address",
          "name": "",
          "type": "address"
        }
      ],
      "stateMutability": "view",
      "type": "function",
      "constant": true
    },
    {
      "inputs": [
        {
          "internalType": "bytes32",
          "name": "role",
          "type": "bytes32"
        },
        {
          "internalType": "address",
          "name": "account",
          "type": "address"
        }
      ],
      "name": "renounceRole",
      "outputs": [],
      "stateMutability": "nonpayable",
      "type": "function"
    },
    {
      "inputs": [
        {
          "internalType": "address",
          "name": "account",
          "type": "address"
        }
      ],
      "name": "revokeDepartmentRole",
      "outputs": [],
      "stateMutability": "nonpayable",
      "type": "function"
    },
    {
      "inputs": [
        {
          "internalType": "address",
          "name": "account",
          "type": "address"
        }
      ],
      "name": "revokeFacultyRole",
      "outputs": [],
      "stateMutability": "nonpayable",
      "type": "function"
    },
    {
      "inputs": [
        {
          "internalType": "address",
          "name": "account",
          "type": "address"
        }
      ],
      "name": "revokeInstructorRole",
      "outputs": [],
      "stateMutability": "nonpayable",
      "type": "function"
    },
    {
      "inputs": [
        {
          "internalType": "bytes32",
          "name": "role",
          "type": "bytes32"
        },
        {
          "internalType": "address",
          "name": "account",
          "type": "address"
        }
      ],
      "name": "revokeRole",
      "outputs": [],
      "stateMutability": "nonpayable",
      "type": "function"
    },
    {
      "inputs": [
        {
          "internalType": "address",
          "name": "account",
          "type": "address"
        }
      ],
      "name": "revokeStudentRole",
      "outputs": [],
      "stateMutability": "nonpayable",
      "type": "function"
    },
    {
      "inputs": [
        {
          "internalType": "address",
          "name": "operator",
          "type": "address"
        },
        {
          "internalType": "bool",
          "name": "approved",
          "type": "bool"
        }
      ],
      "name": "setApprovalForAll",
      "outputs": [],
      "stateMutability": "nonpayable",
      "type": "function"
    },
    {
      "inputs": [],
      "name": "symbol",
      "outputs": [
        {
          "internalType": "string",
          "name": "",
          "type": "string"
        }
      ],
      "stateMutability": "view",
      "type": "function",
      "constant": true
    },
    {
      "inputs": [
        {
          "internalType": "uint256",
          "name": "tokenId",
          "type": "uint256"
        }
      ],
      "name": "tokenURI",
      "outputs": [
        {
          "internalType": "string",
          "name": "",
          "type": "string"
        }
      ],
      "stateMutability": "view",
      "type": "function",
      "constant": true
    },
    {
      "inputs": [
        {
          "internalType": "string",
          "name": "_departmentName",
          "type": "string"
        },
        {
          "internalType": "address",
          "name": "departmentAddress",
          "type": "address"
        },
        {
          "internalType": "address",
          "name": "facultyAddress",
          "type": "address"
        }
      ],
      "name": "mint",
      "outputs": [],
      "stateMutability": "nonpayable",
      "type": "function"
    },
    {
      "inputs": [
        {
          "internalType": "uint256",
          "name": "id",
          "type": "uint256"
        }
      ],
      "name": "getDepartmentName",
      "outputs": [
        {
          "internalType": "string",
          "name": "departmentName",
          "type": "string"
        }
      ],
      "stateMutability": "view",
      "type": "function",
      "constant": true
    },
    {
      "inputs": [
        {
          "internalType": "string",
          "name": "departmentName",
          "type": "string"
        }
      ],
      "name": "getDepartmentID",
      "outputs": [
        {
          "internalType": "uint256",
          "name": "departmentID",
          "type": "uint256"
        }
      ],
      "stateMutability": "view",
      "type": "function",
      "constant": true
    },
    {
      "inputs": [],
      "name": "getTotalSupply",
      "outputs": [
        {
          "internalType": "uint256",
          "name": "totalSupply",
          "type": "uint256"
        }
      ],
      "stateMutability": "view",
      "type": "function",
      "constant": true
    },
    {
      "inputs": [
        {
          "internalType": "uint256",
          "name": "id",
          "type": "uint256"
        }
      ],
      "name": "getFaculty",
      "outputs": [
        {
          "internalType": "address",
          "name": "",
          "type": "address"
        }
      ],
      "stateMutability": "view",
      "type": "function",
      "constant": true
    },
    {
      "inputs": [
        {
          "internalType": "uint256",
          "name": "id",
          "type": "uint256"
        }
      ],
      "name": "getInstructors",
      "outputs": [
        {
          "internalType": "address[]",
          "name": "",
          "type": "address[]"
        }
      ],
      "stateMutability": "view",
      "type": "function",
      "constant": true
    },
    {
      "inputs": [
        {
          "internalType": "uint256",
          "name": "id",
          "type": "uint256"
        },
        {
          "internalType": "address[]",
          "name": "instructors",
          "type": "address[]"
        }
      ],
      "name": "setInstructors",
      "outputs": [],
      "stateMutability": "nonpayable",
      "type": "function"
    },
    {
      "inputs": [
        {
          "internalType": "uint256",
          "name": "id",
          "type": "uint256"
        }
      ],
      "name": "getStudents",
      "outputs": [
        {
          "internalType": "address[]",
          "name": "",
          "type": "address[]"
        }
      ],
      "stateMutability": "view",
      "type": "function",
      "constant": true
    },
    {
      "inputs": [
        {
          "internalType": "uint256",
          "name": "id",
          "type": "uint256"
        },
        {
          "internalType": "address[]",
          "name": "students",
          "type": "address[]"
        }
      ],
      "name": "setStudents",
      "outputs": [],
      "stateMutability": "nonpayable",
      "type": "function"
    },
    {
      "inputs": [
        {
          "internalType": "address",
          "name": "from",
          "type": "address"
        },
        {
          "internalType": "address",
          "name": "to",
          "type": "address"
        },
        {
          "internalType": "uint256",
          "name": "tokenId",
          "type": "uint256"
        }
      ],
      "name": "transferFrom",
      "outputs": [],
      "stateMutability": "nonpayable",
      "type": "function"
    },
    {
      "inputs": [
        {
          "internalType": "address",
          "name": "from",
          "type": "address"
        },
        {
          "internalType": "address",
          "name": "to",
          "type": "address"
        },
        {
          "internalType": "uint256",
          "name": "tokenId",
          "type": "uint256"
        }
      ],
      "name": "safeTransferFrom",
      "outputs": [],
      "stateMutability": "nonpayable",
      "type": "function"
    },
    {
      "inputs": [
        {
          "internalType": "address",
          "name": "from",
          "type": "address"
        },
        {
          "internalType": "address",
          "name": "to",
          "type": "address"
        },
        {
          "internalType": "uint256",
          "name": "tokenId",
          "type": "uint256"
        },
        {
          "internalType": "bytes",
          "name": "_data",
          "type": "bytes"
        }
      ],
      "name": "safeTransferFrom",
      "outputs": [],
      "stateMutability": "nonpayable",
      "type": "function"
    },
    {
      "inputs": [
        {
          "internalType": "bytes4",
          "name": "interfaceId",
          "type": "bytes4"
        }
      ],
      "name": "supportsInterface",
      "outputs": [
        {
          "internalType": "bool",
          "name": "",
          "type": "bool"
        }
      ],
      "stateMutability": "view",
      "type": "function",
      "constant": true
    }
  ],
  "bytecode": "0x60806040526000600e553480156200001657600080fd5b506040518060400160405280600a81526020017f4465706172746d656e74000000000000000000000000000000000000000000008152506040518060400160405280600381526020017f444550000000000000000000000000000000000000000000000000000000000081525081600090805190602001906200009b92919062000b77565b508060019080519060200190620000b492919062000b77565b505050620000cc6000801b336200011560201b60201c565b620000fe7f5f1d1e303f9c0a1801dd708bdc4239781d66c88ca6cb941c5769ba09b5c1b285336200011560201b60201c565b6200010f336200012b60201b60201c565b62001170565b6200012782826200024060201b60201c565b5050565b7f5f1d1e303f9c0a1801dd708bdc4239781d66c88ca6cb941c5769ba09b5c1b2856200016d81620001616200028860201b60201c565b6200029060201b60201c565b6200019f7f5f1d1e303f9c0a1801dd708bdc4239781d66c88ca6cb941c5769ba09b5c1b285836200035460201b60201c565b620001b46000801b836200035460201b60201c565b620001c96000801b336200039d60201b60201c565b620001fb7f5f1d1e303f9c0a1801dd708bdc4239781d66c88ca6cb941c5769ba09b5c1b285336200039d60201b60201c565b81600860006101000a81548173ffffffffffffffffffffffffffffffffffffffff021916908373ffffffffffffffffffffffffffffffffffffffff1602179055505050565b6200025782826200043360201b620025da1760201c565b6200028381600760008581526020019081526020016000206200052560201b620026bb1790919060201c565b505050565b600033905090565b620002a282826200055d60201b60201c565b6200035057620002d58173ffffffffffffffffffffffffffffffffffffffff166014620005c860201b620026eb1760201c565b620002f08360001c6020620005c860201b620026eb1760201c565b6040516020016200030392919062000d4a565b6040516020818303038152906040526040517f08c379a000000000000000000000000000000000000000000000000000000000815260040162000347919062000def565b60405180910390fd5b5050565b62000365826200082360201b60201c565b62000386816200037a6200028860201b60201c565b6200029060201b60201c565b6200039883836200024060201b60201c565b505050565b620003ad6200028860201b60201c565b73ffffffffffffffffffffffffffffffffffffffff168173ffffffffffffffffffffffffffffffffffffffff16146200041d576040517f08c379a0000000000000000000000000000000000000000000000000000000008152600401620004149062000e89565b60405180910390fd5b6200042f82826200084360201b60201c565b5050565b6200044582826200055d60201b60201c565b620005215760016006600084815260200190815260200160002060000160008373ffffffffffffffffffffffffffffffffffffffff1673ffffffffffffffffffffffffffffffffffffffff16815260200190815260200160002060006101000a81548160ff021916908315150217905550620004c66200028860201b60201c565b73ffffffffffffffffffffffffffffffffffffffff168173ffffffffffffffffffffffffffffffffffffffff16837f2f8788117e7eff1d82e926ec794901d17c78024a50270940304540a733656f0d60405160405180910390a45b5050565b600062000555836000018373ffffffffffffffffffffffffffffffffffffffff1660001b6200088b60201b60201c565b905092915050565b60006006600084815260200190815260200160002060000160008373ffffffffffffffffffffffffffffffffffffffff1673ffffffffffffffffffffffffffffffffffffffff16815260200190815260200160002060009054906101000a900460ff16905092915050565b606060006002836002620005dd919062000ee4565b620005e9919062000f45565b67ffffffffffffffff81111562000605576200060462000fa2565b5b6040519080825280601f01601f191660200182016040528015620006385781602001600182028036833780820191505090505b5090507f30000000000000000000000000000000000000000000000000000000000000008160008151811062000673576200067262000fd1565b5b60200101907effffffffffffffffffffffffffffffffffffffffffffffffffffffffffffff1916908160001a9053507f780000000000000000000000000000000000000000000000000000000000000081600181518110620006da57620006d962000fd1565b5b60200101907effffffffffffffffffffffffffffffffffffffffffffffffffffffffffffff1916908160001a905350600060018460026200071c919062000ee4565b62000728919062000f45565b90505b6001811115620007d2577f3031323334353637383961626364656600000000000000000000000000000000600f8616601081106200076e576200076d62000fd1565b5b1a60f81b82828151811062000788576200078762000fd1565b5b60200101907effffffffffffffffffffffffffffffffffffffffffffffffffffffffffffff1916908160001a905350600485901c945080620007ca9062001000565b90506200072b565b506000841462000819576040517f08c379a000000000000000000000000000000000000000000000000000000000815260040162000810906200107f565b60405180910390fd5b8091505092915050565b600060066000838152602001908152602001600020600101549050919050565b6200085a82826200090560201b620029271760201c565b620008868160076000858152602001908152602001600020620009f860201b62002a091790919060201c565b505050565b60006200089f838362000a3060201b60201c565b620008fa578260000182908060018154018082558091505060019003906000526020600020016000909190919091505582600001805490508360010160008481526020019081526020016000208190555060019050620008ff565b600090505b92915050565b6200091782826200055d60201b60201c565b15620009f45760006006600084815260200190815260200160002060000160008373ffffffffffffffffffffffffffffffffffffffff1673ffffffffffffffffffffffffffffffffffffffff16815260200190815260200160002060006101000a81548160ff021916908315150217905550620009996200028860201b60201c565b73ffffffffffffffffffffffffffffffffffffffff168173ffffffffffffffffffffffffffffffffffffffff16837ff6391f5c32d9c69d2a47ea670b442974b53935d1edc7fd64eb21e047a839171b60405160405180910390a45b5050565b600062000a28836000018373ffffffffffffffffffffffffffffffffffffffff1660001b62000a5360201b60201c565b905092915050565b600080836001016000848152602001908152602001600020541415905092915050565b6000808360010160008481526020019081526020016000205490506000811462000b6b57600060018262000a889190620010a1565b905060006001866000018054905062000aa29190620010a1565b905081811462000b1857600086600001828154811062000ac75762000ac662000fd1565b5b906000526020600020015490508087600001848154811062000aee5762000aed62000fd1565b5b90600052602060002001819055508387600101600083815260200190815260200160002081905550505b8560000180548062000b2f5762000b2e620010dc565b5b60019003818190600052602060002001600090559055856001016000868152602001908152602001600020600090556001935050505062000b71565b60009150505b92915050565b82805462000b85906200113a565b90600052602060002090601f01602090048101928262000ba9576000855562000bf5565b82601f1062000bc457805160ff191683800117855562000bf5565b8280016001018555821562000bf5579182015b8281111562000bf457825182559160200191906001019062000bd7565b5b50905062000c04919062000c08565b5090565b5b8082111562000c2357600081600090555060010162000c09565b5090565b600081905092915050565b7f416363657373436f6e74726f6c3a206163636f756e7420000000000000000000600082015250565b600062000c6a60178362000c27565b915062000c778262000c32565b601782019050919050565b600081519050919050565b60005b8381101562000cad57808201518184015260208101905062000c90565b8381111562000cbd576000848401525b50505050565b600062000cd08262000c82565b62000cdc818562000c27565b935062000cee81856020860162000c8d565b80840191505092915050565b7f206973206d697373696e6720726f6c6520000000000000000000000000000000600082015250565b600062000d3260118362000c27565b915062000d3f8262000cfa565b601182019050919050565b600062000d578262000c5b565b915062000d65828562000cc3565b915062000d728262000d23565b915062000d80828462000cc3565b91508190509392505050565b600082825260208201905092915050565b6000601f19601f8301169050919050565b600062000dbb8262000c82565b62000dc7818562000d8c565b935062000dd981856020860162000c8d565b62000de48162000d9d565b840191505092915050565b6000602082019050818103600083015262000e0b818462000dae565b905092915050565b7f416363657373436f6e74726f6c3a2063616e206f6e6c792072656e6f756e636560008201527f20726f6c657320666f722073656c660000000000000000000000000000000000602082015250565b600062000e71602f8362000d8c565b915062000e7e8262000e13565b604082019050919050565b6000602082019050818103600083015262000ea48162000e62565b9050919050565b6000819050919050565b7f4e487b7100000000000000000000000000000000000000000000000000000000600052601160045260246000fd5b600062000ef18262000eab565b915062000efe8362000eab565b9250817fffffffffffffffffffffffffffffffffffffffffffffffffffffffffffffffff048311821515161562000f3a5762000f3962000eb5565b5b828202905092915050565b600062000f528262000eab565b915062000f5f8362000eab565b9250827fffffffffffffffffffffffffffffffffffffffffffffffffffffffffffffffff0382111562000f975762000f9662000eb5565b5b828201905092915050565b7f4e487b7100000000000000000000000000000000000000000000000000000000600052604160045260246000fd5b7f4e487b7100000000000000000000000000000000000000000000000000000000600052603260045260246000fd5b60006200100d8262000eab565b9150600082141562001024576200102362000eb5565b5b600182039050919050565b7f537472696e67733a20686578206c656e67746820696e73756666696369656e74600082015250565b60006200106760208362000d8c565b915062001074826200102f565b602082019050919050565b600060208201905081810360008301526200109a8162001058565b9050919050565b6000620010ae8262000eab565b9150620010bb8362000eab565b925082821015620010d157620010d062000eb5565b5b828203905092915050565b7f4e487b7100000000000000000000000000000000000000000000000000000000600052603160045260246000fd5b7f4e487b7100000000000000000000000000000000000000000000000000000000600052602260045260246000fd5b600060028204905060018216806200115357607f821691505b602082108114156200116a57620011696200110b565b5b50919050565b6159eb80620011806000396000f3fe608060405234801561001057600080fd5b506004361061038e5760003560e01c806384443dce116101de578063b82076ec1161010f578063ca15c873116100ad578063e78af7c51161007c578063e78af7c514610b01578063e985e9c514610b31578063f7be43fb14610b61578063fc3ba6b414610b7f5761038e565b8063ca15c87314610a67578063d547741f14610a97578063db0b1fee14610ab3578063e17f6b2c14610ad15761038e565b8063ba5adbd1116100e9578063ba5adbd1146109df578063c4e41b22146109fd578063c87b56dd14610a1b578063c94d10ad14610a4b5761038e565b8063b82076ec1461098b578063b88d4fde146109a7578063b9447051146109c35761038e565b8063973c4b6c1161017c578063a217fddf11610156578063a217fddf14610903578063a22cb46514610921578063ac88aa4b1461093d578063ad7be93a1461096d5761038e565b8063973c4b6c146108975780639822a599146108b5578063996dc022146108e55761038e565b80638df6674a116101b85780638df6674a146107fd5780639010d07c1461081957806391d148541461084957806395d89b41146108795761038e565b806384443dce1461079357806386f8e92c146107c35780638bcf979c146107df5761038e565b806332b3c846116102c35780635ea07b1c1161026157806370a082311161023057806370a08231146106e75780637168c27d1461071757806375c2f8f0146107475780637e6d945e146107775761038e565b80635ea07b1c146106615780635f1d514e1461067d5780636352211e146106995780636fe3ceb8146106c95761038e565b806344d199731161029d57806344d19973146105db57806347519ab7146105f7578063529f790c146106275780635e3c7e8e146106435761038e565b806332b3c8461461058757806336568abe146105a357806342842e0e146105bf5761038e565b80631fd76cfb1161033057806324d42a371161030a57806324d42a37146104ff5780632b1533c41461051d5780632be7dc441461053b5780632f2ff15d1461056b5761038e565b80631fd76cfb1461048357806323b872dd146104b3578063248a9ca3146104cf5761038e565b8063081812fc1161036c578063081812fc146103fd578063095ea7b31461042d57806312fb59f21461044957806316bec781146104655761038e565b806301ffc9a7146103935780630252dffc146103c357806306fdde03146103df575b600080fd5b6103ad60048036038101906103a89190613f35565b610baf565b6040516103ba9190613f7d565b60405180910390f35b6103dd60048036038101906103d89190613ff6565b610bc1565b005b6103e7610c2d565b6040516103f491906140bc565b60405180910390f35b61041760048036038101906104129190614114565b610cbf565b6040516104249190614150565b60405180910390f35b6104476004803603810190610442919061416b565b610d44565b005b610463600480360381019061045e9190613ff6565b610e5c565b005b61046d610f1f565b60405161047a9190614269565b60405180910390f35b61049d60048036038101906104989190614114565b610fad565b6040516104aa9190614150565b60405180910390f35b6104cd60048036038101906104c8919061428b565b610fea565b005b6104e960048036038101906104e49190614314565b611069565b6040516104f69190614350565b60405180910390f35b610507611089565b6040516105149190614350565b60405180910390f35b6105256110ad565b6040516105329190614269565b60405180910390f35b61055560048036038101906105509190613ff6565b61113b565b6040516105629190613f7d565b60405180910390f35b6105856004803603810190610580919061436b565b61116e565b005b6105a1600480360381019061059c9190613ff6565b611197565b005b6105bd60048036038101906105b8919061436b565b611203565b005b6105d960048036038101906105d4919061428b565b611286565b005b6105f560048036038101906105f091906144f3565b611305565b005b610611600480360381019061060c9190614114565b611331565b60405161061e9190614269565b60405180910390f35b610641600480360381019061063c9190613ff6565b6113d2565b005b61064b611495565b6040516106589190614269565b60405180910390f35b61067b60048036038101906106769190613ff6565b611523565b005b61069760048036038101906106929190613ff6565b611679565b005b6106b360048036038101906106ae9190614114565b61173c565b6040516106c09190614150565b60405180910390f35b6106d16117ee565b6040516106de9190614350565b60405180910390f35b61070160048036038101906106fc9190613ff6565b611812565b60405161070e919061455e565b60405180910390f35b610731600480360381019061072c9190613ff6565b6118ca565b60405161073e9190613f7d565b60405180910390f35b610761600480360381019061075c9190614114565b6118fd565b60405161076e9190614269565b60405180910390f35b610791600480360381019061078c919061462e565b61199e565b005b6107ad60048036038101906107a89190614114565b611c63565b6040516107ba91906140bc565b60405180910390f35b6107dd60048036038101906107d89190613ff6565b611d08565b005b6107e7611d74565b6040516107f49190614350565b60405180910390f35b61081760048036038101906108129190613ff6565b611d98565b005b610833600480360381019061082e919061469d565b611e7d565b6040516108409190614150565b60405180910390f35b610863600480360381019061085e919061436b565b611eac565b6040516108709190613f7d565b60405180910390f35b610881611f17565b60405161088e91906140bc565b60405180910390f35b61089f611fa9565b6040516108ac9190614150565b60405180910390f35b6108cf60048036038101906108ca9190613ff6565b611fd3565b6040516108dc9190613f7d565b60405180910390f35b6108ed612006565b6040516108fa9190614350565b60405180910390f35b61090b61202a565b6040516109189190614350565b60405180910390f35b61093b60048036038101906109369190614709565b612031565b005b61095760048036038101906109529190614749565b612047565b604051610964919061455e565b60405180910390f35b61097561206f565b6040516109829190614350565b60405180910390f35b6109a560048036038101906109a091906144f3565b612093565b005b6109c160048036038101906109bc9190614833565b6120bf565b005b6109dd60048036038101906109d89190613ff6565b612140565b005b6109e76121ac565b6040516109f49190614269565b60405180910390f35b610a0561223a565b604051610a12919061455e565b60405180910390f35b610a356004803603810190610a309190614114565b612244565b604051610a4291906140bc565b60405180910390f35b610a656004803603810190610a609190613ff6565b6122eb565b005b610a816004803603810190610a7c9190614314565b6123ae565b604051610a8e919061455e565b60405180910390f35b610ab16004803603810190610aac919061436b565b6123d2565b005b610abb6123fb565b604051610ac89190614269565b60405180910390f35b610aeb6004803603810190610ae69190613ff6565b612489565b604051610af89190613f7d565b60405180910390f35b610b1b6004803603810190610b169190613ff6565b6124bc565b604051610b289190613f7d565b60405180910390f35b610b4b6004803603810190610b4691906148b6565b6124ef565b604051610b589190613f7d565b60405180910390f35b610b69612583565b604051610b769190614350565b60405180910390f35b610b996004803603810190610b949190613ff6565b6125a7565b604051610ba69190613f7d565b60405180910390f35b6000610bba82612a39565b9050919050565b7f5f1d1e303f9c0a1801dd708bdc4239781d66c88ca6cb941c5769ba09b5c1b285610bf381610bee612ab3565b612abb565b610c1d7fe7837d04f36ce0b2f3cc662bf1b2b632a7fbd12ae95199e8bd3dcfbcc440b66b836123d2565b610c2882600a612b58565b505050565b606060008054610c3c90614925565b80601f0160208091040260200160405190810160405280929190818152602001828054610c6890614925565b8015610cb55780601f10610c8a57610100808354040283529160200191610cb5565b820191906000526020600020905b815481529060010190602001808311610c9857829003601f168201915b5050505050905090565b6000610cca82612d6c565b610d09576040517f08c379a0000000000000000000000000000000000000000000000000000000008152600401610d00906149c9565b60405180910390fd5b6004600083815260200190815260200160002060009054906101000a900473ffffffffffffffffffffffffffffffffffffffff169050919050565b6000610d4f8261173c565b90508073ffffffffffffffffffffffffffffffffffffffff168373ffffffffffffffffffffffffffffffffffffffff161415610dc0576040517f08c379a0000000000000000000000000000000000000000000000000000000008152600401610db790614a5b565b60405180910390fd5b8073ffffffffffffffffffffffffffffffffffffffff16610ddf612ab3565b73ffffffffffffffffffffffffffffffffffffffff161480610e0e5750610e0d81610e08612ab3565b6124ef565b5b610e4d576040517f08c379a0000000000000000000000000000000000000000000000000000000008152600401610e4490614aed565b60405180910390fd5b610e578383612dd8565b505050565b7f5f1d1e303f9c0a1801dd708bdc4239781d66c88ca6cb941c5769ba09b5c1b285610e8e81610e89612ab3565b612abb565b610eb87fe7837d04f36ce0b2f3cc662bf1b2b632a7fbd12ae95199e8bd3dcfbcc440b66b8361116e565b600a829080600181540180825580915050600190039060005260206000200160009091909190916101000a81548173ffffffffffffffffffffffffffffffffffffffff021916908373ffffffffffffffffffffffffffffffffffffffff1602179055505050565b6060600a805480602002602001604051908101604052809291908181526020018280548015610fa357602002820191906000526020600020905b8160009054906101000a900473ffffffffffffffffffffffffffffffffffffffff1673ffffffffffffffffffffffffffffffffffffffff1681526020019060010190808311610f59575b5050505050905090565b60006011600083815260200190815260200160002060009054906101000a900473ffffffffffffffffffffffffffffffffffffffff169050919050565b600073ffffffffffffffffffffffffffffffffffffffff163373ffffffffffffffffffffffffffffffffffffffff1614611059576040517f08c379a000000000000000000000000000000000000000000000000000000000815260040161105090614b7f565b60405180910390fd5b611064838383612e91565b505050565b600060066000838152602001908152602001600020600101549050919050565b7f5f1d1e303f9c0a1801dd708bdc4239781d66c88ca6cb941c5769ba09b5c1b28581565b6060600980548060200260200160405190810160405280929190818152602001828054801561113157602002820191906000526020600020905b8160009054906101000a900473ffffffffffffffffffffffffffffffffffffffff1673ffffffffffffffffffffffffffffffffffffffff16815260200190600101908083116110e7575b5050505050905090565b60006111677f5f1d1e303f9c0a1801dd708bdc4239781d66c88ca6cb941c5769ba09b5c1b28583611eac565b9050919050565b61117782611069565b61118881611183612ab3565b612abb565b6111928383612ef1565b505050565b7f5f1d1e303f9c0a1801dd708bdc4239781d66c88ca6cb941c5769ba09b5c1b2856111c9816111c4612ab3565b612abb565b6111f37f36a5c4aaacb6b388bbd448bf11096b7dafc5652bcc9046084fd0e95b1fb0b2cc836123d2565b6111fe82600c612b58565b505050565b61120b612ab3565b73ffffffffffffffffffffffffffffffffffffffff168173ffffffffffffffffffffffffffffffffffffffff1614611278576040517f08c379a000000000000000000000000000000000000000000000000000000000815260040161126f90614c11565b60405180910390fd5b6112828282612f25565b5050565b600073ffffffffffffffffffffffffffffffffffffffff163373ffffffffffffffffffffffffffffffffffffffff16146112f5576040517f08c379a00000000000000000000000000000000000000000000000000000000081526004016112ec90614b7f565b60405180910390fd5b611300838383612f59565b505050565b8060136000848152602001908152602001600020908051906020019061132c929190613d9c565b505050565b6060601260008381526020019081526020016000208054806020026020016040519081016040528092919081815260200182805480156113c657602002820191906000526020600020905b8160009054906101000a900473ffffffffffffffffffffffffffffffffffffffff1673ffffffffffffffffffffffffffffffffffffffff168152602001906001019080831161137c575b50505050509050919050565b7f5f1d1e303f9c0a1801dd708bdc4239781d66c88ca6cb941c5769ba09b5c1b285611404816113ff612ab3565b612abb565b61142e7ff3f9cfff7b46f415da5a492b1718971da203f87c6aae9299e7b408eb83ef8bee8361116e565b6009829080600181540180825580915050600190039060005260206000200160009091909190916101000a81548173ffffffffffffffffffffffffffffffffffffffff021916908373ffffffffffffffffffffffffffffffffffffffff1602179055505050565b6060600b80548060200260200160405190810160405280929190818152602001828054801561151957602002820191906000526020600020905b8160009054906101000a900473ffffffffffffffffffffffffffffffffffffffff1673ffffffffffffffffffffffffffffffffffffffff16815260200190600101908083116114cf575b5050505050905090565b7f5f1d1e303f9c0a1801dd708bdc4239781d66c88ca6cb941c5769ba09b5c1b28561155581611550612ab3565b612abb565b61157f7f36a5c4aaacb6b388bbd448bf11096b7dafc5652bcc9046084fd0e95b1fb0b2cc83611eac565b6115be576040517f08c379a00000000000000000000000000000000000000000000000000000000081526004016115b590614c7d565b60405180910390fd5b6115e87f36a5c4aaacb6b388bbd448bf11096b7dafc5652bcc9046084fd0e95b1fb0b2cc836123d2565b6116127f4758f7d70d6088cbfad5c79861ac6457ba2af02adf5ea419e97879ae24459cb68361116e565b600d829080600181540180825580915050600190039060005260206000200160009091909190916101000a81548173ffffffffffffffffffffffffffffffffffffffff021916908373ffffffffffffffffffffffffffffffffffffffff1602179055505050565b7f5f1d1e303f9c0a1801dd708bdc4239781d66c88ca6cb941c5769ba09b5c1b2856116ab816116a6612ab3565b612abb565b6116d57fae4a0595970935aa5495afbbb72e5f1f6ff1062766b4a3028c0c9b7d5cf7e3458361116e565b600b829080600181540180825580915050600190039060005260206000200160009091909190916101000a81548173ffffffffffffffffffffffffffffffffffffffff021916908373ffffffffffffffffffffffffffffffffffffffff1602179055505050565b6000806002600084815260200190815260200160002060009054906101000a900473ffffffffffffffffffffffffffffffffffffffff169050600073ffffffffffffffffffffffffffffffffffffffff168173ffffffffffffffffffffffffffffffffffffffff1614156117e5576040517f08c379a00000000000000000000000000000000000000000000000000000000081526004016117dc90614d0f565b60405180910390fd5b80915050919050565b7ff3f9cfff7b46f415da5a492b1718971da203f87c6aae9299e7b408eb83ef8bee81565b60008073ffffffffffffffffffffffffffffffffffffffff168273ffffffffffffffffffffffffffffffffffffffff161415611883576040517f08c379a000000000000000000000000000000000000000000000000000000000815260040161187a90614da1565b60405180910390fd5b600360008373ffffffffffffffffffffffffffffffffffffffff1673ffffffffffffffffffffffffffffffffffffffff168152602001908152602001600020549050919050565b60006118f67f4758f7d70d6088cbfad5c79861ac6457ba2af02adf5ea419e97879ae24459cb683611eac565b9050919050565b60606013600083815260200190815260200160002080548060200260200160405190810160405280929190818152602001828054801561199257602002820191906000526020600020905b8160009054906101000a900473ffffffffffffffffffffffffffffffffffffffff1673ffffffffffffffffffffffffffffffffffffffff1681526020019060010190808311611948575b50505050509050919050565b7f5f1d1e303f9c0a1801dd708bdc4239781d66c88ca6cb941c5769ba09b5c1b2856119d0816119cb612ab3565b612abb565b60006010856040516119e29190614dfd565b90815260200160405180910390205414611a31576040517f08c379a0000000000000000000000000000000000000000000000000000000008152600401611a2890614e60565b60405180910390fd5b611a3a83610e5c565b611a647fe7837d04f36ce0b2f3cc662bf1b2b632a7fbd12ae95199e8bd3dcfbcc440b66b84611eac565b611aa3576040517f08c379a0000000000000000000000000000000000000000000000000000000008152600401611a9a90614ef2565b60405180910390fd5b604051602001611ab290614f38565b6040516020818303038152906040528051906020012084604051602001611ad99190614dfd565b604051602081830303815290604052805190602001201415611b30576040517f08c379a0000000000000000000000000000000000000000000000000000000008152600401611b2790614f99565b60405180910390fd5b611b5a7ff3f9cfff7b46f415da5a492b1718971da203f87c6aae9299e7b408eb83ef8bee83611eac565b611b99576040517f08c379a0000000000000000000000000000000000000000000000000000000008152600401611b909061502b565b60405180910390fd5b6001600e54611ba8919061507a565b600e819055506000600e549050611bbf8482612f79565b80601086604051611bd09190614dfd565b90815260200160405180910390208190555084600f60008381526020019081526020016000209080519060200190611c09929190613e26565b50826011600083815260200190815260200160002060006101000a81548173ffffffffffffffffffffffffffffffffffffffff021916908373ffffffffffffffffffffffffffffffffffffffff1602179055505050505050565b6060600f60008381526020019081526020016000208054611c8390614925565b80601f0160208091040260200160405190810160405280929190818152602001828054611caf90614925565b8015611cfc5780601f10611cd157610100808354040283529160200191611cfc565b820191906000526020600020905b815481529060010190602001808311611cdf57829003601f168201915b50505050509050919050565b7f5f1d1e303f9c0a1801dd708bdc4239781d66c88ca6cb941c5769ba09b5c1b285611d3a81611d35612ab3565b612abb565b611d647fae4a0595970935aa5495afbbb72e5f1f6ff1062766b4a3028c0c9b7d5cf7e345836123d2565b611d6f82600b612b58565b505050565b7fae4a0595970935aa5495afbbb72e5f1f6ff1062766b4a3028c0c9b7d5cf7e34581565b7f5f1d1e303f9c0a1801dd708bdc4239781d66c88ca6cb941c5769ba09b5c1b285611dca81611dc5612ab3565b612abb565b611df47f5f1d1e303f9c0a1801dd708bdc4239781d66c88ca6cb941c5769ba09b5c1b2858361116e565b611e016000801b8361116e565b611e0e6000801b33611203565b611e387f5f1d1e303f9c0a1801dd708bdc4239781d66c88ca6cb941c5769ba09b5c1b28533611203565b81600860006101000a81548173ffffffffffffffffffffffffffffffffffffffff021916908373ffffffffffffffffffffffffffffffffffffffff1602179055505050565b6000611ea4826007600086815260200190815260200160002061314790919063ffffffff16565b905092915050565b60006006600084815260200190815260200160002060000160008373ffffffffffffffffffffffffffffffffffffffff1673ffffffffffffffffffffffffffffffffffffffff16815260200190815260200160002060009054906101000a900460ff16905092915050565b606060018054611f2690614925565b80601f0160208091040260200160405190810160405280929190818152602001828054611f5290614925565b8015611f9f5780601f10611f7457610100808354040283529160200191611f9f565b820191906000526020600020905b815481529060010190602001808311611f8257829003601f168201915b5050505050905090565b6000600860009054906101000a900473ffffffffffffffffffffffffffffffffffffffff16905090565b6000611fff7fae4a0595970935aa5495afbbb72e5f1f6ff1062766b4a3028c0c9b7d5cf7e34583611eac565b9050919050565b7fe7837d04f36ce0b2f3cc662bf1b2b632a7fbd12ae95199e8bd3dcfbcc440b66b81565b6000801b81565b61204361203c612ab3565b8383613161565b5050565b60006010826040516120599190614dfd565b9081526020016040518091039020549050919050565b7f4758f7d70d6088cbfad5c79861ac6457ba2af02adf5ea419e97879ae24459cb681565b806012600084815260200190815260200160002090805190602001906120ba929190613d9c565b505050565b600073ffffffffffffffffffffffffffffffffffffffff163373ffffffffffffffffffffffffffffffffffffffff161461212e576040517f08c379a000000000000000000000000000000000000000000000000000000000815260040161212590614b7f565b60405180910390fd5b61213a848484846132ce565b50505050565b7f5f1d1e303f9c0a1801dd708bdc4239781d66c88ca6cb941c5769ba09b5c1b2856121728161216d612ab3565b612abb565b61219c7ff3f9cfff7b46f415da5a492b1718971da203f87c6aae9299e7b408eb83ef8bee836123d2565b6121a7826009612b58565b505050565b6060600c80548060200260200160405190810160405280929190818152602001828054801561223057602002820191906000526020600020905b8160009054906101000a900473ffffffffffffffffffffffffffffffffffffffff1673ffffffffffffffffffffffffffffffffffffffff16815260200190600101908083116121e6575b5050505050905090565b6000600e54905090565b606061224f82612d6c565b61228e576040517f08c379a000000000000000000000000000000000000000000000000000000000815260040161228590615142565b60405180910390fd5b6000612298613330565b905060008151116122b857604051806020016040528060008152506122e3565b806122c284613347565b6040516020016122d3929190615162565b6040516020818303038152906040525b915050919050565b7f5f1d1e303f9c0a1801dd708bdc4239781d66c88ca6cb941c5769ba09b5c1b28561231d81612318612ab3565b612abb565b6123477f36a5c4aaacb6b388bbd448bf11096b7dafc5652bcc9046084fd0e95b1fb0b2cc8361116e565b600c829080600181540180825580915050600190039060005260206000200160009091909190916101000a81548173ffffffffffffffffffffffffffffffffffffffff021916908373ffffffffffffffffffffffffffffffffffffffff1602179055505050565b60006123cb600760008481526020019081526020016000206134a8565b9050919050565b6123db82611069565b6123ec816123e7612ab3565b612abb565b6123f68383612f25565b505050565b6060600d80548060200260200160405190810160405280929190818152602001828054801561247f57602002820191906000526020600020905b8160009054906101000a900473ffffffffffffffffffffffffffffffffffffffff1673ffffffffffffffffffffffffffffffffffffffff1681526020019060010190808311612435575b5050505050905090565b60006124b57fe7837d04f36ce0b2f3cc662bf1b2b632a7fbd12ae95199e8bd3dcfbcc440b66b83611eac565b9050919050565b60006124e87ff3f9cfff7b46f415da5a492b1718971da203f87c6aae9299e7b408eb83ef8bee83611eac565b9050919050565b6000600560008473ffffffffffffffffffffffffffffffffffffffff1673ffffffffffffffffffffffffffffffffffffffff16815260200190815260200160002060008373ffffffffffffffffffffffffffffffffffffffff1673ffffffffffffffffffffffffffffffffffffffff16815260200190815260200160002060009054906101000a900460ff16905092915050565b7f36a5c4aaacb6b388bbd448bf11096b7dafc5652bcc9046084fd0e95b1fb0b2cc81565b60006125d37f36a5c4aaacb6b388bbd448bf11096b7dafc5652bcc9046084fd0e95b1fb0b2cc83611eac565b9050919050565b6125e48282611eac565b6126b75760016006600084815260200190815260200160002060000160008373ffffffffffffffffffffffffffffffffffffffff1673ffffffffffffffffffffffffffffffffffffffff16815260200190815260200160002060006101000a81548160ff02191690831515021790555061265c612ab3565b73ffffffffffffffffffffffffffffffffffffffff168173ffffffffffffffffffffffffffffffffffffffff16837f2f8788117e7eff1d82e926ec794901d17c78024a50270940304540a733656f0d60405160405180910390a45b5050565b60006126e3836000018373ffffffffffffffffffffffffffffffffffffffff1660001b6134bd565b905092915050565b6060600060028360026126fe9190615186565b612708919061507a565b67ffffffffffffffff811115612721576127206143b0565b5b6040519080825280601f01601f1916602001820160405280156127535781602001600182028036833780820191505090505b5090507f30000000000000000000000000000000000000000000000000000000000000008160008151811061278b5761278a6151e0565b5b60200101907effffffffffffffffffffffffffffffffffffffffffffffffffffffffffffff1916908160001a9053507f7800000000000000000000000000000000000000000000000000000000000000816001815181106127ef576127ee6151e0565b5b60200101907effffffffffffffffffffffffffffffffffffffffffffffffffffffffffffff1916908160001a9053506000600184600261282f9190615186565b612839919061507a565b90505b60018111156128d9577f3031323334353637383961626364656600000000000000000000000000000000600f86166010811061287b5761287a6151e0565b5b1a60f81b828281518110612892576128916151e0565b5b60200101907effffffffffffffffffffffffffffffffffffffffffffffffffffffffffffff1916908160001a905350600485901c9450806128d29061520f565b905061283c565b506000841461291d576040517f08c379a000000000000000000000000000000000000000000000000000000000815260040161291490615285565b60405180910390fd5b8091505092915050565b6129318282611eac565b15612a055760006006600084815260200190815260200160002060000160008373ffffffffffffffffffffffffffffffffffffffff1673ffffffffffffffffffffffffffffffffffffffff16815260200190815260200160002060006101000a81548160ff0219169083151502179055506129aa612ab3565b73ffffffffffffffffffffffffffffffffffffffff168173ffffffffffffffffffffffffffffffffffffffff16837ff6391f5c32d9c69d2a47ea670b442974b53935d1edc7fd64eb21e047a839171b60405160405180910390a45b5050565b6000612a31836000018373ffffffffffffffffffffffffffffffffffffffff1660001b61352d565b905092915050565b60007f5a05180f000000000000000000000000000000000000000000000000000000007bffffffffffffffffffffffffffffffffffffffffffffffffffffffff1916827bffffffffffffffffffffffffffffffffffffffffffffffffffffffff19161480612aac5750612aab82613641565b5b9050919050565b600033905090565b612ac58282611eac565b612b5457612aea8173ffffffffffffffffffffffffffffffffffffffff1660146126eb565b612af88360001c60206126eb565b604051602001612b0992919061533d565b6040516020818303038152906040526040517f08c379a0000000000000000000000000000000000000000000000000000000008152600401612b4b91906140bc565b60405180910390fd5b5050565b606060005b8280549050811015612cdd578373ffffffffffffffffffffffffffffffffffffffff16838281548110612b9357612b926151e0565b5b9060005260206000200160009054906101000a900473ffffffffffffffffffffffffffffffffffffffff1673ffffffffffffffffffffffffffffffffffffffff161415612cca578260018480549050612bec9190615377565b81548110612bfd57612bfc6151e0565b5b9060005260206000200160009054906101000a900473ffffffffffffffffffffffffffffffffffffffff16838281548110612c3b57612c3a6151e0565b5b9060005260206000200160006101000a81548173ffffffffffffffffffffffffffffffffffffffff021916908373ffffffffffffffffffffffffffffffffffffffff16021790555082805480612c9457612c936153ab565b5b6001900381819060005260206000200160006101000a81549073ffffffffffffffffffffffffffffffffffffffff021916905590555b8080612cd5906153da565b915050612b5d565b5081805480602002602001604051908101604052809291908181526020018280548015612d5f57602002820191906000526020600020905b8160009054906101000a900473ffffffffffffffffffffffffffffffffffffffff1673ffffffffffffffffffffffffffffffffffffffff1681526020019060010190808311612d15575b5050505050905092915050565b60008073ffffffffffffffffffffffffffffffffffffffff166002600084815260200190815260200160002060009054906101000a900473ffffffffffffffffffffffffffffffffffffffff1673ffffffffffffffffffffffffffffffffffffffff1614159050919050565b816004600083815260200190815260200160002060006101000a81548173ffffffffffffffffffffffffffffffffffffffff021916908373ffffffffffffffffffffffffffffffffffffffff160217905550808273ffffffffffffffffffffffffffffffffffffffff16612e4b8361173c565b73ffffffffffffffffffffffffffffffffffffffff167f8c5be1e5ebec7d5bd14f71427d1e84f3dd0314c0f7b2291e5b200ac8c7c3b92560405160405180910390a45050565b612ea2612e9c612ab3565b826136bb565b612ee1576040517f08c379a0000000000000000000000000000000000000000000000000000000008152600401612ed890615495565b60405180910390fd5b612eec838383613799565b505050565b612efb82826125da565b612f2081600760008581526020019081526020016000206126bb90919063ffffffff16565b505050565b612f2f8282612927565b612f548160076000858152602001908152602001600020612a0990919063ffffffff16565b505050565b612f74838383604051806020016040528060008152506120bf565b505050565b600073ffffffffffffffffffffffffffffffffffffffff168273ffffffffffffffffffffffffffffffffffffffff161415612fe9576040517f08c379a0000000000000000000000000000000000000000000000000000000008152600401612fe090615501565b60405180910390fd5b612ff281612d6c565b15613032576040517f08c379a00000000000000000000000000000000000000000000000000000000081526004016130299061556d565b60405180910390fd5b61303e600083836139f5565b6001600360008473ffffffffffffffffffffffffffffffffffffffff1673ffffffffffffffffffffffffffffffffffffffff168152602001908152602001600020600082825461308e919061507a565b92505081905550816002600083815260200190815260200160002060006101000a81548173ffffffffffffffffffffffffffffffffffffffff021916908373ffffffffffffffffffffffffffffffffffffffff160217905550808273ffffffffffffffffffffffffffffffffffffffff16600073ffffffffffffffffffffffffffffffffffffffff167fddf252ad1be2c89b69c2b068fc378daa952ba7f163c4a11628f55a4df523b3ef60405160405180910390a45050565b600061315683600001836139fa565b60001c905092915050565b8173ffffffffffffffffffffffffffffffffffffffff168373ffffffffffffffffffffffffffffffffffffffff1614156131d0576040517f08c379a00000000000000000000000000000000000000000000000000000000081526004016131c7906155d9565b60405180910390fd5b80600560008573ffffffffffffffffffffffffffffffffffffffff1673ffffffffffffffffffffffffffffffffffffffff16815260200190815260200160002060008473ffffffffffffffffffffffffffffffffffffffff1673ffffffffffffffffffffffffffffffffffffffff16815260200190815260200160002060006101000a81548160ff0219169083151502179055508173ffffffffffffffffffffffffffffffffffffffff168373ffffffffffffffffffffffffffffffffffffffff167f17307eab39ab6107e8899845ad3d59bd9653f200f220920489ca2b5937696c31836040516132c19190613f7d565b60405180910390a3505050565b6132df6132d9612ab3565b836136bb565b61331e576040517f08c379a000000000000000000000000000000000000000000000000000000000815260040161331590615495565b60405180910390fd5b61332a84848484613a25565b50505050565b606060405180602001604052806000815250905090565b6060600082141561338f576040518060400160405280600181526020017f300000000000000000000000000000000000000000000000000000000000000081525090506134a3565b600082905060005b600082146133c15780806133aa906153da565b915050600a826133ba9190615628565b9150613397565b60008167ffffffffffffffff8111156133dd576133dc6143b0565b5b6040519080825280601f01601f19166020018201604052801561340f5781602001600182028036833780820191505090505b5090505b6000851461349c576001826134289190615377565b9150600a856134379190615659565b6030613443919061507a565b60f81b818381518110613459576134586151e0565b5b60200101907effffffffffffffffffffffffffffffffffffffffffffffffffffffffffffff1916908160001a905350600a856134959190615628565b9450613413565b8093505050505b919050565b60006134b682600001613a81565b9050919050565b60006134c98383613a92565b613522578260000182908060018154018082558091505060019003906000526020600020016000909190919091505582600001805490508360010160008481526020019081526020016000208190555060019050613527565b600090505b92915050565b6000808360010160008481526020019081526020016000205490506000811461363557600060018261355f9190615377565b90506000600186600001805490506135779190615377565b90508181146135e6576000866000018281548110613598576135976151e0565b5b90600052602060002001549050808760000184815481106135bc576135bb6151e0565b5b90600052602060002001819055508387600101600083815260200190815260200160002081905550505b856000018054806135fa576135f96153ab565b5b60019003818190600052602060002001600090559055856001016000868152602001908152602001600020600090556001935050505061363b565b60009150505b92915050565b60007f7965db0b000000000000000000000000000000000000000000000000000000007bffffffffffffffffffffffffffffffffffffffffffffffffffffffff1916827bffffffffffffffffffffffffffffffffffffffffffffffffffffffff191614806136b457506136b382613ab5565b5b9050919050565b60006136c682612d6c565b613705576040517f08c379a00000000000000000000000000000000000000000000000000000000081526004016136fc906156fc565b60405180910390fd5b60006137108361173c565b90508073ffffffffffffffffffffffffffffffffffffffff168473ffffffffffffffffffffffffffffffffffffffff16148061377f57508373ffffffffffffffffffffffffffffffffffffffff1661376784610cbf565b73ffffffffffffffffffffffffffffffffffffffff16145b80613790575061378f81856124ef565b5b91505092915050565b8273ffffffffffffffffffffffffffffffffffffffff166137b98261173c565b73ffffffffffffffffffffffffffffffffffffffff161461380f576040517f08c379a00000000000000000000000000000000000000000000000000000000081526004016138069061578e565b60405180910390fd5b600073ffffffffffffffffffffffffffffffffffffffff168273ffffffffffffffffffffffffffffffffffffffff16141561387f576040517f08c379a000000000000000000000000000000000000000000000000000000000815260040161387690615820565b60405180910390fd5b61388a8383836139f5565b613895600082612dd8565b6001600360008573ffffffffffffffffffffffffffffffffffffffff1673ffffffffffffffffffffffffffffffffffffffff16815260200190815260200160002060008282546138e59190615377565b925050819055506001600360008473ffffffffffffffffffffffffffffffffffffffff1673ffffffffffffffffffffffffffffffffffffffff168152602001908152602001600020600082825461393c919061507a565b92505081905550816002600083815260200190815260200160002060006101000a81548173ffffffffffffffffffffffffffffffffffffffff021916908373ffffffffffffffffffffffffffffffffffffffff160217905550808273ffffffffffffffffffffffffffffffffffffffff168473ffffffffffffffffffffffffffffffffffffffff167fddf252ad1be2c89b69c2b068fc378daa952ba7f163c4a11628f55a4df523b3ef60405160405180910390a4505050565b505050565b6000826000018281548110613a1257613a116151e0565b5b9060005260206000200154905092915050565b613a30848484613799565b613a3c84848484613b97565b613a7b576040517f08c379a0000000000000000000000000000000000000000000000000000000008152600401613a72906158b2565b60405180910390fd5b50505050565b600081600001805490509050919050565b600080836001016000848152602001908152602001600020541415905092915050565b60007f80ac58cd000000000000000000000000000000000000000000000000000000007bffffffffffffffffffffffffffffffffffffffffffffffffffffffff1916827bffffffffffffffffffffffffffffffffffffffffffffffffffffffff19161480613b8057507f5b5e139f000000000000000000000000000000000000000000000000000000007bffffffffffffffffffffffffffffffffffffffffffffffffffffffff1916827bffffffffffffffffffffffffffffffffffffffffffffffffffffffff1916145b80613b905750613b8f82613d1f565b5b9050919050565b6000613bb88473ffffffffffffffffffffffffffffffffffffffff16613d89565b15613d12578373ffffffffffffffffffffffffffffffffffffffff1663150b7a02613be1612ab3565b8786866040518563ffffffff1660e01b8152600401613c039493929190615927565b6020604051808303816000875af1925050508015613c3f57506040513d601f19601f82011682018060405250810190613c3c9190615988565b60015b613cc2573d8060008114613c6f576040519150601f19603f3d011682016040523d82523d6000602084013e613c74565b606091505b50600081511415613cba576040517f08c379a0000000000000000000000000000000000000000000000000000000008152600401613cb1906158b2565b60405180910390fd5b805181602001fd5b63150b7a0260e01b7bffffffffffffffffffffffffffffffffffffffffffffffffffffffff1916817bffffffffffffffffffffffffffffffffffffffffffffffffffffffff191614915050613d17565b600190505b949350505050565b60007f01ffc9a7000000000000000000000000000000000000000000000000000000007bffffffffffffffffffffffffffffffffffffffffffffffffffffffff1916827bffffffffffffffffffffffffffffffffffffffffffffffffffffffff1916149050919050565b600080823b905060008111915050919050565b828054828255906000526020600020908101928215613e15579160200282015b82811115613e145782518260006101000a81548173ffffffffffffffffffffffffffffffffffffffff021916908373ffffffffffffffffffffffffffffffffffffffff16021790555091602001919060010190613dbc565b5b509050613e229190613eac565b5090565b828054613e3290614925565b90600052602060002090601f016020900481019282613e545760008555613e9b565b82601f10613e6d57805160ff1916838001178555613e9b565b82800160010185558215613e9b579182015b82811115613e9a578251825591602001919060010190613e7f565b5b509050613ea89190613eac565b5090565b5b80821115613ec5576000816000905550600101613ead565b5090565b6000604051905090565b600080fd5b600080fd5b60007fffffffff0000000000000000000000000000000000000000000000000000000082169050919050565b613f1281613edd565b8114613f1d57600080fd5b50565b600081359050613f2f81613f09565b92915050565b600060208284031215613f4b57613f4a613ed3565b5b6000613f5984828501613f20565b91505092915050565b60008115159050919050565b613f7781613f62565b82525050565b6000602082019050613f926000830184613f6e565b92915050565b600073ffffffffffffffffffffffffffffffffffffffff82169050919050565b6000613fc382613f98565b9050919050565b613fd381613fb8565b8114613fde57600080fd5b50565b600081359050613ff081613fca565b92915050565b60006020828403121561400c5761400b613ed3565b5b600061401a84828501613fe1565b91505092915050565b600081519050919050565b600082825260208201905092915050565b60005b8381101561405d578082015181840152602081019050614042565b8381111561406c576000848401525b50505050565b6000601f19601f8301169050919050565b600061408e82614023565b614098818561402e565b93506140a881856020860161403f565b6140b181614072565b840191505092915050565b600060208201905081810360008301526140d68184614083565b905092915050565b6000819050919050565b6140f1816140de565b81146140fc57600080fd5b50565b60008135905061410e816140e8565b92915050565b60006020828403121561412a57614129613ed3565b5b6000614138848285016140ff565b91505092915050565b61414a81613fb8565b82525050565b60006020820190506141656000830184614141565b92915050565b6000806040838503121561418257614181613ed3565b5b600061419085828601613fe1565b92505060206141a1858286016140ff565b9150509250929050565b600081519050919050565b600082825260208201905092915050565b6000819050602082019050919050565b6141e081613fb8565b82525050565b60006141f283836141d7565b60208301905092915050565b6000602082019050919050565b6000614216826141ab565b61422081856141b6565b935061422b836141c7565b8060005b8381101561425c57815161424388826141e6565b975061424e836141fe565b92505060018101905061422f565b5085935050505092915050565b60006020820190508181036000830152614283818461420b565b905092915050565b6000806000606084860312156142a4576142a3613ed3565b5b60006142b286828701613fe1565b93505060206142c386828701613fe1565b92505060406142d4868287016140ff565b9150509250925092565b6000819050919050565b6142f1816142de565b81146142fc57600080fd5b50565b60008135905061430e816142e8565b92915050565b60006020828403121561432a57614329613ed3565b5b6000614338848285016142ff565b91505092915050565b61434a816142de565b82525050565b60006020820190506143656000830184614341565b92915050565b6000806040838503121561438257614381613ed3565b5b6000614390858286016142ff565b92505060206143a185828601613fe1565b9150509250929050565b600080fd5b7f4e487b7100000000000000000000000000000000000000000000000000000000600052604160045260246000fd5b6143e882614072565b810181811067ffffffffffffffff82111715614407576144066143b0565b5b80604052505050565b600061441a613ec9565b905061442682826143df565b919050565b600067ffffffffffffffff821115614446576144456143b0565b5b602082029050602081019050919050565b600080fd5b600061446f61446a8461442b565b614410565b9050808382526020820190506020840283018581111561449257614491614457565b5b835b818110156144bb57806144a78882613fe1565b845260208401935050602081019050614494565b5050509392505050565b600082601f8301126144da576144d96143ab565b5b81356144ea84826020860161445c565b91505092915050565b6000806040838503121561450a57614509613ed3565b5b6000614518858286016140ff565b925050602083013567ffffffffffffffff81111561453957614538613ed8565b5b614545858286016144c5565b9150509250929050565b614558816140de565b82525050565b6000602082019050614573600083018461454f565b92915050565b600080fd5b600067ffffffffffffffff821115614599576145986143b0565b5b6145a282614072565b9050602081019050919050565b82818337600083830152505050565b60006145d16145cc8461457e565b614410565b9050828152602081018484840111156145ed576145ec614579565b5b6145f88482856145af565b509392505050565b600082601f830112614615576146146143ab565b5b81356146258482602086016145be565b91505092915050565b60008060006060848603121561464757614646613ed3565b5b600084013567ffffffffffffffff81111561466557614664613ed8565b5b61467186828701614600565b935050602061468286828701613fe1565b925050604061469386828701613fe1565b9150509250925092565b600080604083850312156146b4576146b3613ed3565b5b60006146c2858286016142ff565b92505060206146d3858286016140ff565b9150509250929050565b6146e681613f62565b81146146f157600080fd5b50565b600081359050614703816146dd565b92915050565b600080604083850312156147205761471f613ed3565b5b600061472e85828601613fe1565b925050602061473f858286016146f4565b9150509250929050565b60006020828403121561475f5761475e613ed3565b5b600082013567ffffffffffffffff81111561477d5761477c613ed8565b5b61478984828501614600565b91505092915050565b600067ffffffffffffffff8211156147ad576147ac6143b0565b5b6147b682614072565b9050602081019050919050565b60006147d66147d184614792565b614410565b9050828152602081018484840111156147f2576147f1614579565b5b6147fd8482856145af565b509392505050565b600082601f83011261481a576148196143ab565b5b813561482a8482602086016147c3565b91505092915050565b6000806000806080858703121561484d5761484c613ed3565b5b600061485b87828801613fe1565b945050602061486c87828801613fe1565b935050604061487d878288016140ff565b925050606085013567ffffffffffffffff81111561489e5761489d613ed8565b5b6148aa87828801614805565b91505092959194509250565b600080604083850312156148cd576148cc613ed3565b5b60006148db85828601613fe1565b92505060206148ec85828601613fe1565b9150509250929050565b7f4e487b7100000000000000000000000000000000000000000000000000000000600052602260045260246000fd5b6000600282049050600182168061493d57607f821691505b60208210811415614951576149506148f6565b5b50919050565b7f4552433732313a20617070726f76656420717565727920666f72206e6f6e657860008201527f697374656e7420746f6b656e0000000000000000000000000000000000000000602082015250565b60006149b3602c8361402e565b91506149be82614957565b604082019050919050565b600060208201905081810360008301526149e2816149a6565b9050919050565b7f4552433732313a20617070726f76616c20746f2063757272656e74206f776e6560008201527f7200000000000000000000000000000000000000000000000000000000000000602082015250565b6000614a4560218361402e565b9150614a50826149e9565b604082019050919050565b60006020820190508181036000830152614a7481614a38565b9050919050565b7f4552433732313a20617070726f76652063616c6c6572206973206e6f74206f7760008201527f6e6572206e6f7220617070726f76656420666f7220616c6c0000000000000000602082015250565b6000614ad760388361402e565b9150614ae282614a7b565b604082019050919050565b60006020820190508181036000830152614b0681614aca565b9050919050565b7f5472616e73666572206166746572206d696e742069732070726f68696269746560008201527f6400000000000000000000000000000000000000000000000000000000000000602082015250565b6000614b6960218361402e565b9150614b7482614b0d565b604082019050919050565b60006020820190508181036000830152614b9881614b5c565b9050919050565b7f416363657373436f6e74726f6c3a2063616e206f6e6c792072656e6f756e636560008201527f20726f6c657320666f722073656c660000000000000000000000000000000000602082015250565b6000614bfb602f8361402e565b9150614c0682614b9f565b604082019050919050565b60006020820190508181036000830152614c2a81614bee565b9050919050565b7f5468652061646472657373206973206e6f7420612073747564656e7400000000600082015250565b6000614c67601c8361402e565b9150614c7282614c31565b602082019050919050565b60006020820190508181036000830152614c9681614c5a565b9050919050565b7f4552433732313a206f776e657220717565727920666f72206e6f6e657869737460008201527f656e7420746f6b656e0000000000000000000000000000000000000000000000602082015250565b6000614cf960298361402e565b9150614d0482614c9d565b604082019050919050565b60006020820190508181036000830152614d2881614cec565b9050919050565b7f4552433732313a2062616c616e636520717565727920666f7220746865207a6560008201527f726f206164647265737300000000000000000000000000000000000000000000602082015250565b6000614d8b602a8361402e565b9150614d9682614d2f565b604082019050919050565b60006020820190508181036000830152614dba81614d7e565b9050919050565b600081905092915050565b6000614dd782614023565b614de18185614dc1565b9350614df181856020860161403f565b80840191505092915050565b6000614e098284614dcc565b915081905092915050565b7f54686973204465706172746d656e7420697320616c7265616479206578697374600082015250565b6000614e4a60208361402e565b9150614e5582614e14565b602082019050919050565b60006020820190508181036000830152614e7981614e3d565b9050919050565b7f54686973206465706172746d656e7441646472657373206973206e6f7420696e60008201527f204445504152544d454e545f524f4c4500000000000000000000000000000000602082015250565b6000614edc60308361402e565b9150614ee782614e80565b604082019050919050565b60006020820190508181036000830152614f0b81614ecf565b9050919050565b50565b6000614f22600083614dc1565b9150614f2d82614f12565b600082019050919050565b6000614f4382614f15565b9150819050919050565b7f4465706172746d656e74206e616d652063616e6e6f7420626520656d70747900600082015250565b6000614f83601f8361402e565b9150614f8e82614f4d565b602082019050919050565b60006020820190508181036000830152614fb281614f76565b9050919050565b7f5468697320666163756c747941646472657373206973206e6f7420696e20464160008201527f43554c54595f524f4c4500000000000000000000000000000000000000000000602082015250565b6000615015602a8361402e565b915061502082614fb9565b604082019050919050565b6000602082019050818103600083015261504481615008565b9050919050565b7f4e487b7100000000000000000000000000000000000000000000000000000000600052601160045260246000fd5b6000615085826140de565b9150615090836140de565b9250827fffffffffffffffffffffffffffffffffffffffffffffffffffffffffffffffff038211156150c5576150c461504b565b5b828201905092915050565b7f4552433732314d657461646174613a2055524920717565727920666f72206e6f60008201527f6e6578697374656e7420746f6b656e0000000000000000000000000000000000602082015250565b600061512c602f8361402e565b9150615137826150d0565b604082019050919050565b6000602082019050818103600083015261515b8161511f565b9050919050565b600061516e8285614dcc565b915061517a8284614dcc565b91508190509392505050565b6000615191826140de565b915061519c836140de565b9250817fffffffffffffffffffffffffffffffffffffffffffffffffffffffffffffffff04831182151516156151d5576151d461504b565b5b828202905092915050565b7f4e487b7100000000000000000000000000000000000000000000000000000000600052603260045260246000fd5b600061521a826140de565b9150600082141561522e5761522d61504b565b5b600182039050919050565b7f537472696e67733a20686578206c656e67746820696e73756666696369656e74600082015250565b600061526f60208361402e565b915061527a82615239565b602082019050919050565b6000602082019050818103600083015261529e81615262565b9050919050565b7f416363657373436f6e74726f6c3a206163636f756e7420000000000000000000600082015250565b60006152db601783614dc1565b91506152e6826152a5565b601782019050919050565b7f206973206d697373696e6720726f6c6520000000000000000000000000000000600082015250565b6000615327601183614dc1565b9150615332826152f1565b601182019050919050565b6000615348826152ce565b91506153548285614dcc565b915061535f8261531a565b915061536b8284614dcc565b91508190509392505050565b6000615382826140de565b915061538d836140de565b9250828210156153a05761539f61504b565b5b828203905092915050565b7f4e487b7100000000000000000000000000000000000000000000000000000000600052603160045260246000fd5b60006153e5826140de565b91507fffffffffffffffffffffffffffffffffffffffffffffffffffffffffffffffff8214156154185761541761504b565b5b600182019050919050565b7f4552433732313a207472616e736665722063616c6c6572206973206e6f74206f60008201527f776e6572206e6f7220617070726f766564000000000000000000000000000000602082015250565b600061547f60318361402e565b915061548a82615423565b604082019050919050565b600060208201905081810360008301526154ae81615472565b9050919050565b7f4552433732313a206d696e7420746f20746865207a65726f2061646472657373600082015250565b60006154eb60208361402e565b91506154f6826154b5565b602082019050919050565b6000602082019050818103600083015261551a816154de565b9050919050565b7f4552433732313a20746f6b656e20616c7265616479206d696e74656400000000600082015250565b6000615557601c8361402e565b915061556282615521565b602082019050919050565b600060208201905081810360008301526155868161554a565b9050919050565b7f4552433732313a20617070726f766520746f2063616c6c657200000000000000600082015250565b60006155c360198361402e565b91506155ce8261558d565b602082019050919050565b600060208201905081810360008301526155f2816155b6565b9050919050565b7f4e487b7100000000000000000000000000000000000000000000000000000000600052601260045260246000fd5b6000615633826140de565b915061563e836140de565b92508261564e5761564d6155f9565b5b828204905092915050565b6000615664826140de565b915061566f836140de565b92508261567f5761567e6155f9565b5b828206905092915050565b7f4552433732313a206f70657261746f7220717565727920666f72206e6f6e657860008201527f697374656e7420746f6b656e0000000000000000000000000000000000000000602082015250565b60006156e6602c8361402e565b91506156f18261568a565b604082019050919050565b60006020820190508181036000830152615715816156d9565b9050919050565b7f4552433732313a207472616e73666572206f6620746f6b656e2074686174206960008201527f73206e6f74206f776e0000000000000000000000000000000000000000000000602082015250565b600061577860298361402e565b91506157838261571c565b604082019050919050565b600060208201905081810360008301526157a78161576b565b9050919050565b7f4552433732313a207472616e7366657220746f20746865207a65726f2061646460008201527f7265737300000000000000000000000000000000000000000000000000000000602082015250565b600061580a60248361402e565b9150615815826157ae565b604082019050919050565b60006020820190508181036000830152615839816157fd565b9050919050565b7f4552433732313a207472616e7366657220746f206e6f6e20455243373231526560008201527f63656976657220696d706c656d656e7465720000000000000000000000000000602082015250565b600061589c60328361402e565b91506158a782615840565b604082019050919050565b600060208201905081810360008301526158cb8161588f565b9050919050565b600081519050919050565b600082825260208201905092915050565b60006158f9826158d2565b61590381856158dd565b935061591381856020860161403f565b61591c81614072565b840191505092915050565b600060808201905061593c6000830187614141565b6159496020830186614141565b615956604083018561454f565b818103606083015261596881846158ee565b905095945050505050565b60008151905061598281613f09565b92915050565b60006020828403121561599e5761599d613ed3565b5b60006159ac84828501615973565b9150509291505056fea2646970667358221220b990920c59cfeb9b5963aaae22c6ffb35fbd275731213f80dac6bcf0e604e0e764736f6c634300080a0033",
  "immutableReferences": {},
  "source": "pragma solidity ^0.8.10;\r\n\r\nimport \"@openzeppelin/contracts/token/ERC721/ERC721.sol\";\r\nimport \"./Roles.sol\";\r\n\r\ncontract Department is ERC721, Roles{\r\n    uint256 _totalSupply = 0;\r\n    //mapping from tokenID to departmentName\r\n    mapping(uint256 => string) _departmentNameOfID;\r\n    //mapping from departmentName to tokenID\r\n    mapping(string => uint256) _IDOfDepartmentName;\r\n\r\n    //TODO test below\r\n    //mapping from tokenID to its Faculty Address\r\n    mapping(uint256 => address) _faculty;\r\n    //mapping from tokenID to its Instructor Addresses\r\n    mapping(uint256 => address[]) _instructors;\r\n    //mapping from tokenID to its Student Addresses\r\n    mapping(uint256 => address[]) _students;\r\n\r\n    constructor() ERC721(\"Department\", \"DEP\") public{\r\n        _setupRole(DEFAULT_ADMIN_ROLE, msg.sender);\r\n        _setupRole(RECTOR_ROLE, msg.sender);\r\n        grantRectorRole(msg.sender);\r\n    }\r\n\r\n    function mint(string memory _departmentName, address departmentAddress, address facultyAddress) public onlyRole(RECTOR_ROLE){\r\n        require(_IDOfDepartmentName[_departmentName] == 0, \"This Department is already exist\");\r\n        grantDepartmentRole(departmentAddress);\r\n        require(hasRole(DEPARTMENT_ROLE, departmentAddress), \"This departmentAddress is not in DEPARTMENT_ROLE\");\r\n        require(keccak256(abi.encodePacked(_departmentName)) != keccak256(abi.encodePacked(\"\")), \"Department name cannot be empty\");\r\n        require(hasRole(FACULTY_ROLE, facultyAddress), \"This facultyAddress is not in FACULTY_ROLE\");\r\n        // Department - add\r\n        _totalSupply = _totalSupply + 1;\r\n        uint _id = _totalSupply; //tokenID's start from 1 because default uint256 value is 0\r\n        // Call the mint function of ERC721\r\n        _mint(departmentAddress, _id);\r\n        // Department - track it\r\n        _IDOfDepartmentName[_departmentName] = _id;\r\n        _departmentNameOfID[_id] = _departmentName;\r\n        _faculty[_id] = facultyAddress;\r\n    }\r\n//    function burn(string memory _departmentName) public onlyRole(RECTOR_ROLE){\r\n//        uint _id = _IDOfDepartmentName[_departmentName];\r\n//        require(_id != 0, \"This Department is not exist\");\r\n//        require(keccak256(abi.encodePacked(_departmentNameOfID[_id])) == keccak256(abi.encodePacked(_departmentName)), \"Department names do not match\");\r\n//        //Revoke Role\r\n//        address owner = ownerOf(_id);\r\n//        revokeDepartmentRole(owner);\r\n//        _burn(_id);\r\n//        _departmentNameOfID[_id] = \"\";\r\n//        _IDOfDepartmentName[_departmentName] = 0;\r\n//    }\r\n    function getDepartmentName(uint256 id) public view returns(string memory departmentName){\r\n        return _departmentNameOfID[id];\r\n    }\r\n    function getDepartmentID(string memory departmentName) public view returns(uint256 departmentID){\r\n        return _IDOfDepartmentName[departmentName];\r\n    }\r\n    function getTotalSupply() public view returns(uint256 totalSupply){\r\n        return _totalSupply;\r\n    }\r\n    function getFaculty(uint256 id) public view returns(address){\r\n        return _faculty[id];\r\n    }\r\n    function getInstructors(uint256 id) public view returns(address[] memory){\r\n        return _instructors[id];\r\n    }\r\n    //TODO handle publicity with roles\r\n    function setInstructors(uint256 id, address[] memory instructors) public{\r\n        _instructors[id] = instructors;\r\n    }\r\n    function getStudents(uint256 id) public view returns(address[] memory){\r\n        return _students[id];\r\n    }\r\n    //TODO handle publicity with roles\r\n    function setStudents(uint256 id, address[] memory students) public{\r\n        _students[id] = students;\r\n    }\r\n    function transferFrom(//Only callable when minted\r\n        address from,\r\n        address to,\r\n        uint256 tokenId\r\n    ) public virtual override {\r\n        require(msg.sender == 0x0000000000000000000000000000000000000000, \"Transfer after mint is prohibited\");\r\n        super.transferFrom(from,to,tokenId);\r\n    }\r\n    function safeTransferFrom(//Only callable when minted\r\n        address from,\r\n        address to,\r\n        uint256 tokenId\r\n    ) public virtual override {\r\n        require(msg.sender == 0x0000000000000000000000000000000000000000, \"Transfer after mint is prohibited\");\r\n        super.safeTransferFrom(from,to,tokenId);\r\n    }\r\n    function safeTransferFrom(//Only callable when minted\r\n        address from,\r\n        address to,\r\n        uint256 tokenId,\r\n        bytes memory _data\r\n    ) public virtual override {\r\n        require(msg.sender == 0x0000000000000000000000000000000000000000, \"Transfer after mint is prohibited\");\r\n        super.safeTransferFrom(from, to, tokenId, _data);\r\n    }\r\n    function supportsInterface(bytes4 interfaceId) public view virtual override(ERC721, AccessControlEnumerable) returns (bool) {\r\n        return super.supportsInterface(interfaceId);\r\n    }\r\n}\r\n",
  "sourcePath": "C:\\Users\\asus\\Desktop\\Dersler\\CMPE492\\certification-project\\contracts\\Department.sol",
  "compiler": {
    "name": "solc",
    "version": "0.8.10+commit.fc410830.Emscripten.clang"
  },
  "schemaVersion": "3.4.4",
  "updatedAt": "2022-01-15T15:50:46.827Z",
  "networkType": "ethereum",
  "devdoc": {
    "kind": "dev",
    "methods": {
      "approve(address,uint256)": {
        "details": "See {IERC721-approve}."
      },
      "balanceOf(address)": {
        "details": "See {IERC721-balanceOf}."
      },
      "getApproved(uint256)": {
        "details": "See {IERC721-getApproved}."
      },
      "getRoleAdmin(bytes32)": {
        "details": "Returns the admin role that controls `role`. See {grantRole} and {revokeRole}. To change a role's admin, use {_setRoleAdmin}."
      },
      "getRoleMember(bytes32,uint256)": {
        "details": "Returns one of the accounts that have `role`. `index` must be a value between 0 and {getRoleMemberCount}, non-inclusive. Role bearers are not sorted in any particular way, and their ordering may change at any point. WARNING: When using {getRoleMember} and {getRoleMemberCount}, make sure you perform all queries on the same block. See the following https://forum.openzeppelin.com/t/iterating-over-elements-on-enumerableset-in-openzeppelin-contracts/2296[forum post] for more information."
      },
      "getRoleMemberCount(bytes32)": {
        "details": "Returns the number of accounts that have `role`. Can be used together with {getRoleMember} to enumerate all bearers of a role."
      },
      "grantRole(bytes32,address)": {
        "details": "Grants `role` to `account`. If `account` had not been already granted `role`, emits a {RoleGranted} event. Requirements: - the caller must have ``role``'s admin role."
      },
      "hasRole(bytes32,address)": {
        "details": "Returns `true` if `account` has been granted `role`."
      },
      "isApprovedForAll(address,address)": {
        "details": "See {IERC721-isApprovedForAll}."
      },
      "name()": {
        "details": "See {IERC721Metadata-name}."
      },
      "ownerOf(uint256)": {
        "details": "See {IERC721-ownerOf}."
      },
      "renounceRole(bytes32,address)": {
        "details": "Revokes `role` from the calling account. Roles are often managed via {grantRole} and {revokeRole}: this function's purpose is to provide a mechanism for accounts to lose their privileges if they are compromised (such as when a trusted device is misplaced). If the calling account had been revoked `role`, emits a {RoleRevoked} event. Requirements: - the caller must be `account`."
      },
      "revokeRole(bytes32,address)": {
        "details": "Revokes `role` from `account`. If `account` had been granted `role`, emits a {RoleRevoked} event. Requirements: - the caller must have ``role``'s admin role."
      },
      "safeTransferFrom(address,address,uint256)": {
        "details": "See {IERC721-safeTransferFrom}."
      },
      "safeTransferFrom(address,address,uint256,bytes)": {
        "details": "See {IERC721-safeTransferFrom}."
      },
      "setApprovalForAll(address,bool)": {
        "details": "See {IERC721-setApprovalForAll}."
      },
      "symbol()": {
        "details": "See {IERC721Metadata-symbol}."
      },
      "tokenURI(uint256)": {
        "details": "See {IERC721Metadata-tokenURI}."
      },
      "transferFrom(address,address,uint256)": {
        "details": "See {IERC721-transferFrom}."
      }
    },
    "version": 1
  },
  "userdoc": {
    "kind": "user",
    "methods": {},
    "version": 1
  }
}