{
  "contractName": "Department",
  "abi": [
    {
      "inputs": [
        {
          "internalType": "address",
          "name": "_rolesContractAddress",
          "type": "address"
        },
        {
          "internalType": "address",
          "name": "_facultyContractAddress",
          "type": "address"
        }
      ],
      "stateMutability": "nonpayable",
      "type": "constructor"
    },
    {
      "anonymous": false,
      "inputs": [
        {
          "indexed": true,
          "internalType": "address",
          "name": "owner",
          "type": "address"
        },
        {
          "indexed": true,
          "internalType": "address",
          "name": "approved",
          "type": "address"
        },
        {
          "indexed": true,
          "internalType": "uint256",
          "name": "tokenId",
          "type": "uint256"
        }
      ],
      "name": "Approval",
      "type": "event"
    },
    {
      "anonymous": false,
      "inputs": [
        {
          "indexed": true,
          "internalType": "address",
          "name": "owner",
          "type": "address"
        },
        {
          "indexed": true,
          "internalType": "address",
          "name": "operator",
          "type": "address"
        },
        {
          "indexed": false,
          "internalType": "bool",
          "name": "approved",
          "type": "bool"
        }
      ],
      "name": "ApprovalForAll",
      "type": "event"
    },
    {
      "anonymous": false,
      "inputs": [
        {
          "indexed": true,
          "internalType": "address",
          "name": "from",
          "type": "address"
        },
        {
          "indexed": true,
          "internalType": "address",
          "name": "to",
          "type": "address"
        },
        {
          "indexed": true,
          "internalType": "uint256",
          "name": "tokenId",
          "type": "uint256"
        }
      ],
      "name": "Transfer",
      "type": "event"
    },
    {
      "inputs": [
        {
          "internalType": "address",
          "name": "to",
          "type": "address"
        },
        {
          "internalType": "uint256",
          "name": "tokenId",
          "type": "uint256"
        }
      ],
      "name": "approve",
      "outputs": [],
      "stateMutability": "nonpayable",
      "type": "function"
    },
    {
      "inputs": [
        {
          "internalType": "address",
          "name": "owner",
          "type": "address"
        }
      ],
      "name": "balanceOf",
      "outputs": [
        {
          "internalType": "uint256",
          "name": "",
          "type": "uint256"
        }
      ],
      "stateMutability": "view",
      "type": "function",
      "constant": true
    },
    {
      "inputs": [
        {
          "internalType": "uint256",
          "name": "tokenId",
          "type": "uint256"
        }
      ],
      "name": "getApproved",
      "outputs": [
        {
          "internalType": "address",
          "name": "",
          "type": "address"
        }
      ],
      "stateMutability": "view",
      "type": "function",
      "constant": true
    },
    {
      "inputs": [
        {
          "internalType": "address",
          "name": "owner",
          "type": "address"
        },
        {
          "internalType": "address",
          "name": "operator",
          "type": "address"
        }
      ],
      "name": "isApprovedForAll",
      "outputs": [
        {
          "internalType": "bool",
          "name": "",
          "type": "bool"
        }
      ],
      "stateMutability": "view",
      "type": "function",
      "constant": true
    },
    {
      "inputs": [],
      "name": "name",
      "outputs": [
        {
          "internalType": "string",
          "name": "",
          "type": "string"
        }
      ],
      "stateMutability": "view",
      "type": "function",
      "constant": true
    },
    {
      "inputs": [
        {
          "internalType": "uint256",
          "name": "tokenId",
          "type": "uint256"
        }
      ],
      "name": "ownerOf",
      "outputs": [
        {
          "internalType": "address",
          "name": "",
          "type": "address"
        }
      ],
      "stateMutability": "view",
      "type": "function",
      "constant": true
    },
    {
      "inputs": [
        {
          "internalType": "address",
          "name": "operator",
          "type": "address"
        },
        {
          "internalType": "bool",
          "name": "approved",
          "type": "bool"
        }
      ],
      "name": "setApprovalForAll",
      "outputs": [],
      "stateMutability": "nonpayable",
      "type": "function"
    },
    {
      "inputs": [
        {
          "internalType": "bytes4",
          "name": "interfaceId",
          "type": "bytes4"
        }
      ],
      "name": "supportsInterface",
      "outputs": [
        {
          "internalType": "bool",
          "name": "",
          "type": "bool"
        }
      ],
      "stateMutability": "view",
      "type": "function",
      "constant": true
    },
    {
      "inputs": [],
      "name": "symbol",
      "outputs": [
        {
          "internalType": "string",
          "name": "",
          "type": "string"
        }
      ],
      "stateMutability": "view",
      "type": "function",
      "constant": true
    },
    {
      "inputs": [
        {
          "internalType": "uint256",
          "name": "tokenId",
          "type": "uint256"
        }
      ],
      "name": "tokenURI",
      "outputs": [
        {
          "internalType": "string",
          "name": "",
          "type": "string"
        }
      ],
      "stateMutability": "view",
      "type": "function",
      "constant": true
    },
    {
      "inputs": [
        {
          "internalType": "string",
          "name": "_departmentName",
          "type": "string"
        },
        {
          "internalType": "address",
          "name": "departmentAddress",
          "type": "address"
        },
        {
          "internalType": "address",
          "name": "facultyAddress",
          "type": "address"
        }
      ],
      "name": "mint",
      "outputs": [],
      "stateMutability": "nonpayable",
      "type": "function"
    },
    {
      "inputs": [
        {
          "internalType": "uint256",
          "name": "id",
          "type": "uint256"
        }
      ],
      "name": "getDepartmentName",
      "outputs": [
        {
          "internalType": "string",
          "name": "departmentName",
          "type": "string"
        }
      ],
      "stateMutability": "view",
      "type": "function",
      "constant": true
    },
    {
      "inputs": [
        {
          "internalType": "string",
          "name": "departmentName",
          "type": "string"
        }
      ],
      "name": "getDepartmentID",
      "outputs": [
        {
          "internalType": "uint256",
          "name": "departmentID",
          "type": "uint256"
        }
      ],
      "stateMutability": "view",
      "type": "function",
      "constant": true
    },
    {
      "inputs": [],
      "name": "getTotalSupply",
      "outputs": [
        {
          "internalType": "uint256",
          "name": "totalSupply",
          "type": "uint256"
        }
      ],
      "stateMutability": "view",
      "type": "function",
      "constant": true
    },
    {
      "inputs": [
        {
          "internalType": "uint256",
          "name": "id",
          "type": "uint256"
        }
      ],
      "name": "getFaculty",
      "outputs": [
        {
          "internalType": "address",
          "name": "",
          "type": "address"
        }
      ],
      "stateMutability": "view",
      "type": "function",
      "constant": true
    },
    {
      "inputs": [
        {
          "internalType": "uint256",
          "name": "id",
          "type": "uint256"
        }
      ],
      "name": "getInstructors",
      "outputs": [
        {
          "internalType": "address[]",
          "name": "",
          "type": "address[]"
        }
      ],
      "stateMutability": "view",
      "type": "function",
      "constant": true
    },
    {
      "inputs": [
        {
          "internalType": "uint256",
          "name": "id",
          "type": "uint256"
        },
        {
          "internalType": "address[]",
          "name": "instructors",
          "type": "address[]"
        }
      ],
      "name": "setInstructors",
      "outputs": [],
      "stateMutability": "nonpayable",
      "type": "function"
    },
    {
      "inputs": [
        {
          "internalType": "uint256",
          "name": "id",
          "type": "uint256"
        }
      ],
      "name": "getStudents",
      "outputs": [
        {
          "internalType": "address[]",
          "name": "",
          "type": "address[]"
        }
      ],
      "stateMutability": "view",
      "type": "function",
      "constant": true
    },
    {
      "inputs": [
        {
          "internalType": "uint256",
          "name": "id",
          "type": "uint256"
        },
        {
          "internalType": "address[]",
          "name": "students",
          "type": "address[]"
        }
      ],
      "name": "setStudents",
      "outputs": [],
      "stateMutability": "nonpayable",
      "type": "function"
    },
    {
      "inputs": [
        {
          "internalType": "address",
          "name": "from",
          "type": "address"
        },
        {
          "internalType": "address",
          "name": "to",
          "type": "address"
        },
        {
          "internalType": "uint256",
          "name": "tokenId",
          "type": "uint256"
        }
      ],
      "name": "transferFrom",
      "outputs": [],
      "stateMutability": "nonpayable",
      "type": "function"
    },
    {
      "inputs": [
        {
          "internalType": "address",
          "name": "from",
          "type": "address"
        },
        {
          "internalType": "address",
          "name": "to",
          "type": "address"
        },
        {
          "internalType": "uint256",
          "name": "tokenId",
          "type": "uint256"
        }
      ],
      "name": "safeTransferFrom",
      "outputs": [],
      "stateMutability": "nonpayable",
      "type": "function"
    },
    {
      "inputs": [
        {
          "internalType": "address",
          "name": "from",
          "type": "address"
        },
        {
          "internalType": "address",
          "name": "to",
          "type": "address"
        },
        {
          "internalType": "uint256",
          "name": "tokenId",
          "type": "uint256"
        },
        {
          "internalType": "bytes",
          "name": "_data",
          "type": "bytes"
        }
      ],
      "name": "safeTransferFrom",
      "outputs": [],
      "stateMutability": "nonpayable",
      "type": "function"
    }
  ],
  "bytecode": "0x608060405260006008553480156200001657600080fd5b50604051620042653803806200426583398181016040528101906200003c9190620002a2565b6040518060400160405280600a81526020017f4465706172746d656e74000000000000000000000000000000000000000000008152506040518060400160405280600381526020017f44455000000000000000000000000000000000000000000000000000000000008152508160009080519060200190620000c092919062000188565b508060019080519060200190620000d992919062000188565b50505081600660006101000a81548173ffffffffffffffffffffffffffffffffffffffff021916908373ffffffffffffffffffffffffffffffffffffffff160217905550600760009054906101000a900473ffffffffffffffffffffffffffffffffffffffff16600760006101000a81548173ffffffffffffffffffffffffffffffffffffffff021916908373ffffffffffffffffffffffffffffffffffffffff16021790555050506200034e565b828054620001969062000318565b90600052602060002090601f016020900481019282620001ba576000855562000206565b82601f10620001d557805160ff191683800117855562000206565b8280016001018555821562000206579182015b8281111562000205578251825591602001919060010190620001e8565b5b50905062000215919062000219565b5090565b5b80821115620002345760008160009055506001016200021a565b5090565b600080fd5b600073ffffffffffffffffffffffffffffffffffffffff82169050919050565b60006200026a826200023d565b9050919050565b6200027c816200025d565b81146200028857600080fd5b50565b6000815190506200029c8162000271565b92915050565b60008060408385031215620002bc57620002bb62000238565b5b6000620002cc858286016200028b565b9250506020620002df858286016200028b565b9150509250929050565b7f4e487b7100000000000000000000000000000000000000000000000000000000600052602260045260246000fd5b600060028204905060018216806200033157607f821691505b60208210811415620003485762000347620002e9565b5b50919050565b613f07806200035e6000396000f3fe608060405234801561001057600080fd5b50600436106101425760003560e01c806375c2f8f0116100b8578063ac88aa4b1161007c578063ac88aa4b146103ab578063b82076ec146103db578063b88d4fde146103f7578063c4e41b2214610413578063c87b56dd14610431578063e985e9c51461046157610142565b806375c2f8f0146102f55780637e6d945e1461032557806384443dce1461034157806395d89b4114610371578063a22cb4651461038f57610142565b806323b872dd1161010a57806323b872dd1461021157806342842e0e1461022d57806344d199731461024957806347519ab7146102655780636352211e1461029557806370a08231146102c557610142565b806301ffc9a71461014757806306fdde0314610177578063081812fc14610195578063095ea7b3146101c55780631fd76cfb146101e1575b600080fd5b610161600480360381019061015c91906125e5565b610491565b60405161016e919061262d565b60405180910390f35b61017f610573565b60405161018c91906126e1565b60405180910390f35b6101af60048036038101906101aa9190612739565b610605565b6040516101bc91906127a7565b60405180910390f35b6101df60048036038101906101da91906127ee565b61068a565b005b6101fb60048036038101906101f69190612739565b6107a2565b60405161020891906127a7565b60405180910390f35b61022b6004803603810190610226919061282e565b6107df565b005b6102476004803603810190610242919061282e565b61085e565b005b610263600480360381019061025e91906129c9565b6108dd565b005b61027f600480360381019061027a9190612739565b610909565b60405161028c9190612ae3565b60405180910390f35b6102af60048036038101906102aa9190612739565b6109aa565b6040516102bc91906127a7565b60405180910390f35b6102df60048036038101906102da9190612b05565b610a5c565b6040516102ec9190612b41565b60405180910390f35b61030f600480360381019061030a9190612739565b610b14565b60405161031c9190612ae3565b60405180910390f35b61033f600480360381019061033a9190612c11565b610bb5565b005b61035b60048036038101906103569190612739565b611483565b60405161036891906126e1565b60405180910390f35b610379611528565b60405161038691906126e1565b60405180910390f35b6103a960048036038101906103a49190612cac565b6115ba565b005b6103c560048036038101906103c09190612cec565b6115d0565b6040516103d29190612b41565b60405180910390f35b6103f560048036038101906103f091906129c9565b6115f8565b005b610411600480360381019061040c9190612dd6565b611624565b005b61041b6116a5565b6040516104289190612b41565b60405180910390f35b61044b60048036038101906104469190612739565b6116af565b60405161045891906126e1565b60405180910390f35b61047b60048036038101906104769190612e59565b611756565b604051610488919061262d565b60405180910390f35b60007f80ac58cd000000000000000000000000000000000000000000000000000000007bffffffffffffffffffffffffffffffffffffffffffffffffffffffff1916827bffffffffffffffffffffffffffffffffffffffffffffffffffffffff1916148061055c57507f5b5e139f000000000000000000000000000000000000000000000000000000007bffffffffffffffffffffffffffffffffffffffffffffffffffffffff1916827bffffffffffffffffffffffffffffffffffffffffffffffffffffffff1916145b8061056c575061056b826117ea565b5b9050919050565b60606000805461058290612ec8565b80601f01602080910402602001604051908101604052809291908181526020018280546105ae90612ec8565b80156105fb5780601f106105d0576101008083540402835291602001916105fb565b820191906000526020600020905b8154815290600101906020018083116105de57829003601f168201915b5050505050905090565b600061061082611854565b61064f576040517f08c379a000000000000000000000000000000000000000000000000000000000815260040161064690612f6c565b60405180910390fd5b6004600083815260200190815260200160002060009054906101000a900473ffffffffffffffffffffffffffffffffffffffff169050919050565b6000610695826109aa565b90508073ffffffffffffffffffffffffffffffffffffffff168373ffffffffffffffffffffffffffffffffffffffff161415610706576040517f08c379a00000000000000000000000000000000000000000000000000000000081526004016106fd90612ffe565b60405180910390fd5b8073ffffffffffffffffffffffffffffffffffffffff166107256118c0565b73ffffffffffffffffffffffffffffffffffffffff16148061075457506107538161074e6118c0565b611756565b5b610793576040517f08c379a000000000000000000000000000000000000000000000000000000000815260040161078a90613090565b60405180910390fd5b61079d83836118c8565b505050565b6000600b600083815260200190815260200160002060009054906101000a900473ffffffffffffffffffffffffffffffffffffffff169050919050565b600073ffffffffffffffffffffffffffffffffffffffff163373ffffffffffffffffffffffffffffffffffffffff161461084e576040517f08c379a000000000000000000000000000000000000000000000000000000000815260040161084590613122565b60405180910390fd5b610859838383611981565b505050565b600073ffffffffffffffffffffffffffffffffffffffff163373ffffffffffffffffffffffffffffffffffffffff16146108cd576040517f08c379a00000000000000000000000000000000000000000000000000000000081526004016108c490613122565b60405180910390fd5b6108d88383836119e1565b505050565b80600d6000848152602001908152602001600020908051906020019061090492919061244c565b505050565b6060600c600083815260200190815260200160002080548060200260200160405190810160405280929190818152602001828054801561099e57602002820191906000526020600020905b8160009054906101000a900473ffffffffffffffffffffffffffffffffffffffff1673ffffffffffffffffffffffffffffffffffffffff1681526020019060010190808311610954575b50505050509050919050565b6000806002600084815260200190815260200160002060009054906101000a900473ffffffffffffffffffffffffffffffffffffffff169050600073ffffffffffffffffffffffffffffffffffffffff168173ffffffffffffffffffffffffffffffffffffffff161415610a53576040517f08c379a0000000000000000000000000000000000000000000000000000000008152600401610a4a906131b4565b60405180910390fd5b80915050919050565b60008073ffffffffffffffffffffffffffffffffffffffff168273ffffffffffffffffffffffffffffffffffffffff161415610acd576040517f08c379a0000000000000000000000000000000000000000000000000000000008152600401610ac490613246565b60405180910390fd5b600360008373ffffffffffffffffffffffffffffffffffffffff1673ffffffffffffffffffffffffffffffffffffffff168152602001908152602001600020549050919050565b6060600d6000838152602001908152602001600020805480602002602001604051908101604052809291908181526020018280548015610ba957602002820191906000526020600020905b8160009054906101000a900473ffffffffffffffffffffffffffffffffffffffff1673ffffffffffffffffffffffffffffffffffffffff1681526020019060010190808311610b5f575b50505050509050919050565b600660009054906101000a900473ffffffffffffffffffffffffffffffffffffffff1673ffffffffffffffffffffffffffffffffffffffff16632be7dc44336040518263ffffffff1660e01b8152600401610c1091906127a7565b602060405180830381865afa158015610c2d573d6000803e3d6000fd5b505050506040513d601f19601f82011682018060405250810190610c51919061327b565b610c90576040517f08c379a0000000000000000000000000000000000000000000000000000000008152600401610c879061331a565b60405180910390fd5b6000600a84604051610ca29190613376565b90815260200160405180910390205414610cf1576040517f08c379a0000000000000000000000000000000000000000000000000000000008152600401610ce8906133d9565b60405180910390fd5b600660009054906101000a900473ffffffffffffffffffffffffffffffffffffffff1673ffffffffffffffffffffffffffffffffffffffff166312fb59f2836040518263ffffffff1660e01b8152600401610d4c91906127a7565b600060405180830381600087803b158015610d6657600080fd5b505af1158015610d7a573d6000803e3d6000fd5b50505050600660009054906101000a900473ffffffffffffffffffffffffffffffffffffffff1673ffffffffffffffffffffffffffffffffffffffff1663e17f6b2c836040518263ffffffff1660e01b8152600401610dd991906127a7565b602060405180830381865afa158015610df6573d6000803e3d6000fd5b505050506040513d601f19601f82011682018060405250810190610e1a919061327b565b610e59576040517f08c379a0000000000000000000000000000000000000000000000000000000008152600401610e509061346b565b60405180910390fd5b604051602001610e68906134b1565b6040516020818303038152906040528051906020012083604051602001610e8f9190613376565b604051602081830303815290604052805190602001201415610ee6576040517f08c379a0000000000000000000000000000000000000000000000000000000008152600401610edd90613512565b60405180910390fd5b600660009054906101000a900473ffffffffffffffffffffffffffffffffffffffff1673ffffffffffffffffffffffffffffffffffffffff1663e78af7c5826040518263ffffffff1660e01b8152600401610f4191906127a7565b602060405180830381865afa158015610f5e573d6000803e3d6000fd5b505050506040513d601f19601f82011682018060405250810190610f82919061327b565b610fc1576040517f08c379a0000000000000000000000000000000000000000000000000000000008152600401610fb8906135a4565b60405180910390fd5b6001600854610fd091906135f3565b60088190555060006008549050610fe78382611a01565b80600a85604051610ff89190613376565b908152602001604051809103902081905550836009600083815260200190815260200160002090805190602001906110319291906124d6565b5081600b600083815260200190815260200160002060006101000a81548173ffffffffffffffffffffffffffffffffffffffff021916908373ffffffffffffffffffffffffffffffffffffffff1602179055506000600760009054906101000a900473ffffffffffffffffffffffffffffffffffffffff1673ffffffffffffffffffffffffffffffffffffffff1663c4e41b226040518163ffffffff1660e01b8152600401602060405180830381865afa1580156110f3573d6000803e3d6000fd5b505050506040513d601f19601f82011682018060405250810190611117919061365e565b9050600080600190505b82811015611213578473ffffffffffffffffffffffffffffffffffffffff16600760009054906101000a900473ffffffffffffffffffffffffffffffffffffffff1673ffffffffffffffffffffffffffffffffffffffff16636352211e836040518263ffffffff1660e01b815260040161119b9190612b41565b602060405180830381865afa1580156111b8573d6000803e3d6000fd5b505050506040513d601f19601f820116820180604052508101906111dc91906136a0565b73ffffffffffffffffffffffffffffffffffffffff16141561120057809150611213565b808061120b906136cd565b915050611121565b506000600760009054906101000a900473ffffffffffffffffffffffffffffffffffffffff1673ffffffffffffffffffffffffffffffffffffffff166326970179836040518263ffffffff1660e01b81526004016112719190612b41565b600060405180830381865afa15801561128e573d6000803e3d6000fd5b505050506040513d6000823e3d601f19601f820116820180604052508101906112b791906137ad565b90506000815167ffffffffffffffff8111156112d6576112d5612886565b5b6040519080825280602002602001820160405280156113045781602001602082028036833780820191505090505b50905060005b825181101561138e57828181518110611326576113256137f6565b5b6020026020010151828281518110611341576113406137f6565b5b602002602001019073ffffffffffffffffffffffffffffffffffffffff16908173ffffffffffffffffffffffffffffffffffffffff16815250508080611386906136cd565b91505061130a565b5086816001835161139f9190613825565b815181106113b0576113af6137f6565b5b602002602001019073ffffffffffffffffffffffffffffffffffffffff16908173ffffffffffffffffffffffffffffffffffffffff1681525050600760009054906101000a900473ffffffffffffffffffffffffffffffffffffffff1673ffffffffffffffffffffffffffffffffffffffff1663b9837a0084836040518363ffffffff1660e01b8152600401611447929190613859565b600060405180830381600087803b15801561146157600080fd5b505af1158015611475573d6000803e3d6000fd5b505050505050505050505050565b60606009600083815260200190815260200160002080546114a390612ec8565b80601f01602080910402602001604051908101604052809291908181526020018280546114cf90612ec8565b801561151c5780601f106114f15761010080835404028352916020019161151c565b820191906000526020600020905b8154815290600101906020018083116114ff57829003601f168201915b50505050509050919050565b60606001805461153790612ec8565b80601f016020809104026020016040519081016040528092919081815260200182805461156390612ec8565b80156115b05780601f10611585576101008083540402835291602001916115b0565b820191906000526020600020905b81548152906001019060200180831161159357829003601f168201915b5050505050905090565b6115cc6115c56118c0565b8383611bcf565b5050565b6000600a826040516115e29190613376565b9081526020016040518091039020549050919050565b80600c6000848152602001908152602001600020908051906020019061161f92919061244c565b505050565b600073ffffffffffffffffffffffffffffffffffffffff163373ffffffffffffffffffffffffffffffffffffffff1614611693576040517f08c379a000000000000000000000000000000000000000000000000000000000815260040161168a90613122565b60405180910390fd5b61169f84848484611d3c565b50505050565b6000600854905090565b60606116ba82611854565b6116f9576040517f08c379a00000000000000000000000000000000000000000000000000000000081526004016116f0906138fb565b60405180910390fd5b6000611703611d9e565b90506000815111611723576040518060200160405280600081525061174e565b8061172d84611db5565b60405160200161173e92919061391b565b6040516020818303038152906040525b915050919050565b6000600560008473ffffffffffffffffffffffffffffffffffffffff1673ffffffffffffffffffffffffffffffffffffffff16815260200190815260200160002060008373ffffffffffffffffffffffffffffffffffffffff1673ffffffffffffffffffffffffffffffffffffffff16815260200190815260200160002060009054906101000a900460ff16905092915050565b60007f01ffc9a7000000000000000000000000000000000000000000000000000000007bffffffffffffffffffffffffffffffffffffffffffffffffffffffff1916827bffffffffffffffffffffffffffffffffffffffffffffffffffffffff1916149050919050565b60008073ffffffffffffffffffffffffffffffffffffffff166002600084815260200190815260200160002060009054906101000a900473ffffffffffffffffffffffffffffffffffffffff1673ffffffffffffffffffffffffffffffffffffffff1614159050919050565b600033905090565b816004600083815260200190815260200160002060006101000a81548173ffffffffffffffffffffffffffffffffffffffff021916908373ffffffffffffffffffffffffffffffffffffffff160217905550808273ffffffffffffffffffffffffffffffffffffffff1661193b836109aa565b73ffffffffffffffffffffffffffffffffffffffff167f8c5be1e5ebec7d5bd14f71427d1e84f3dd0314c0f7b2291e5b200ac8c7c3b92560405160405180910390a45050565b61199261198c6118c0565b82611f16565b6119d1576040517f08c379a00000000000000000000000000000000000000000000000000000000081526004016119c8906139b1565b60405180910390fd5b6119dc838383611ff4565b505050565b6119fc83838360405180602001604052806000815250611624565b505050565b600073ffffffffffffffffffffffffffffffffffffffff168273ffffffffffffffffffffffffffffffffffffffff161415611a71576040517f08c379a0000000000000000000000000000000000000000000000000000000008152600401611a6890613a1d565b60405180910390fd5b611a7a81611854565b15611aba576040517f08c379a0000000000000000000000000000000000000000000000000000000008152600401611ab190613a89565b60405180910390fd5b611ac660008383612250565b6001600360008473ffffffffffffffffffffffffffffffffffffffff1673ffffffffffffffffffffffffffffffffffffffff1681526020019081526020016000206000828254611b1691906135f3565b92505081905550816002600083815260200190815260200160002060006101000a81548173ffffffffffffffffffffffffffffffffffffffff021916908373ffffffffffffffffffffffffffffffffffffffff160217905550808273ffffffffffffffffffffffffffffffffffffffff16600073ffffffffffffffffffffffffffffffffffffffff167fddf252ad1be2c89b69c2b068fc378daa952ba7f163c4a11628f55a4df523b3ef60405160405180910390a45050565b8173ffffffffffffffffffffffffffffffffffffffff168373ffffffffffffffffffffffffffffffffffffffff161415611c3e576040517f08c379a0000000000000000000000000000000000000000000000000000000008152600401611c3590613af5565b60405180910390fd5b80600560008573ffffffffffffffffffffffffffffffffffffffff1673ffffffffffffffffffffffffffffffffffffffff16815260200190815260200160002060008473ffffffffffffffffffffffffffffffffffffffff1673ffffffffffffffffffffffffffffffffffffffff16815260200190815260200160002060006101000a81548160ff0219169083151502179055508173ffffffffffffffffffffffffffffffffffffffff168373ffffffffffffffffffffffffffffffffffffffff167f17307eab39ab6107e8899845ad3d59bd9653f200f220920489ca2b5937696c3183604051611d2f919061262d565b60405180910390a3505050565b611d4d611d476118c0565b83611f16565b611d8c576040517f08c379a0000000000000000000000000000000000000000000000000000000008152600401611d83906139b1565b60405180910390fd5b611d9884848484612255565b50505050565b606060405180602001604052806000815250905090565b60606000821415611dfd576040518060400160405280600181526020017f30000000000000000000000000000000000000000000000000000000000000008152509050611f11565b600082905060005b60008214611e2f578080611e18906136cd565b915050600a82611e289190613b44565b9150611e05565b60008167ffffffffffffffff811115611e4b57611e4a612886565b5b6040519080825280601f01601f191660200182016040528015611e7d5781602001600182028036833780820191505090505b5090505b60008514611f0a57600182611e969190613825565b9150600a85611ea59190613b75565b6030611eb191906135f3565b60f81b818381518110611ec757611ec66137f6565b5b60200101907effffffffffffffffffffffffffffffffffffffffffffffffffffffffffffff1916908160001a905350600a85611f039190613b44565b9450611e81565b8093505050505b919050565b6000611f2182611854565b611f60576040517f08c379a0000000000000000000000000000000000000000000000000000000008152600401611f5790613c18565b60405180910390fd5b6000611f6b836109aa565b90508073ffffffffffffffffffffffffffffffffffffffff168473ffffffffffffffffffffffffffffffffffffffff161480611fda57508373ffffffffffffffffffffffffffffffffffffffff16611fc284610605565b73ffffffffffffffffffffffffffffffffffffffff16145b80611feb5750611fea8185611756565b5b91505092915050565b8273ffffffffffffffffffffffffffffffffffffffff16612014826109aa565b73ffffffffffffffffffffffffffffffffffffffff161461206a576040517f08c379a000000000000000000000000000000000000000000000000000000000815260040161206190613caa565b60405180910390fd5b600073ffffffffffffffffffffffffffffffffffffffff168273ffffffffffffffffffffffffffffffffffffffff1614156120da576040517f08c379a00000000000000000000000000000000000000000000000000000000081526004016120d190613d3c565b60405180910390fd5b6120e5838383612250565b6120f06000826118c8565b6001600360008573ffffffffffffffffffffffffffffffffffffffff1673ffffffffffffffffffffffffffffffffffffffff16815260200190815260200160002060008282546121409190613825565b925050819055506001600360008473ffffffffffffffffffffffffffffffffffffffff1673ffffffffffffffffffffffffffffffffffffffff168152602001908152602001600020600082825461219791906135f3565b92505081905550816002600083815260200190815260200160002060006101000a81548173ffffffffffffffffffffffffffffffffffffffff021916908373ffffffffffffffffffffffffffffffffffffffff160217905550808273ffffffffffffffffffffffffffffffffffffffff168473ffffffffffffffffffffffffffffffffffffffff167fddf252ad1be2c89b69c2b068fc378daa952ba7f163c4a11628f55a4df523b3ef60405160405180910390a4505050565b505050565b612260848484611ff4565b61226c848484846122b1565b6122ab576040517f08c379a00000000000000000000000000000000000000000000000000000000081526004016122a290613dce565b60405180910390fd5b50505050565b60006122d28473ffffffffffffffffffffffffffffffffffffffff16612439565b1561242c578373ffffffffffffffffffffffffffffffffffffffff1663150b7a026122fb6118c0565b8786866040518563ffffffff1660e01b815260040161231d9493929190613e43565b6020604051808303816000875af192505050801561235957506040513d601f19601f820116820180604052508101906123569190613ea4565b60015b6123dc573d8060008114612389576040519150601f19603f3d011682016040523d82523d6000602084013e61238e565b606091505b506000815114156123d4576040517f08c379a00000000000000000000000000000000000000000000000000000000081526004016123cb90613dce565b60405180910390fd5b805181602001fd5b63150b7a0260e01b7bffffffffffffffffffffffffffffffffffffffffffffffffffffffff1916817bffffffffffffffffffffffffffffffffffffffffffffffffffffffff191614915050612431565b600190505b949350505050565b600080823b905060008111915050919050565b8280548282559060005260206000209081019282156124c5579160200282015b828111156124c45782518260006101000a81548173ffffffffffffffffffffffffffffffffffffffff021916908373ffffffffffffffffffffffffffffffffffffffff1602179055509160200191906001019061246c565b5b5090506124d2919061255c565b5090565b8280546124e290612ec8565b90600052602060002090601f016020900481019282612504576000855561254b565b82601f1061251d57805160ff191683800117855561254b565b8280016001018555821561254b579182015b8281111561254a57825182559160200191906001019061252f565b5b509050612558919061255c565b5090565b5b8082111561257557600081600090555060010161255d565b5090565b6000604051905090565b600080fd5b600080fd5b60007fffffffff0000000000000000000000000000000000000000000000000000000082169050919050565b6125c28161258d565b81146125cd57600080fd5b50565b6000813590506125df816125b9565b92915050565b6000602082840312156125fb576125fa612583565b5b6000612609848285016125d0565b91505092915050565b60008115159050919050565b61262781612612565b82525050565b6000602082019050612642600083018461261e565b92915050565b600081519050919050565b600082825260208201905092915050565b60005b83811015612682578082015181840152602081019050612667565b83811115612691576000848401525b50505050565b6000601f19601f8301169050919050565b60006126b382612648565b6126bd8185612653565b93506126cd818560208601612664565b6126d681612697565b840191505092915050565b600060208201905081810360008301526126fb81846126a8565b905092915050565b6000819050919050565b61271681612703565b811461272157600080fd5b50565b6000813590506127338161270d565b92915050565b60006020828403121561274f5761274e612583565b5b600061275d84828501612724565b91505092915050565b600073ffffffffffffffffffffffffffffffffffffffff82169050919050565b600061279182612766565b9050919050565b6127a181612786565b82525050565b60006020820190506127bc6000830184612798565b92915050565b6127cb81612786565b81146127d657600080fd5b50565b6000813590506127e8816127c2565b92915050565b6000806040838503121561280557612804612583565b5b6000612813858286016127d9565b925050602061282485828601612724565b9150509250929050565b60008060006060848603121561284757612846612583565b5b6000612855868287016127d9565b9350506020612866868287016127d9565b925050604061287786828701612724565b9150509250925092565b600080fd5b7f4e487b7100000000000000000000000000000000000000000000000000000000600052604160045260246000fd5b6128be82612697565b810181811067ffffffffffffffff821117156128dd576128dc612886565b5b80604052505050565b60006128f0612579565b90506128fc82826128b5565b919050565b600067ffffffffffffffff82111561291c5761291b612886565b5b602082029050602081019050919050565b600080fd5b600061294561294084612901565b6128e6565b905080838252602082019050602084028301858111156129685761296761292d565b5b835b81811015612991578061297d88826127d9565b84526020840193505060208101905061296a565b5050509392505050565b600082601f8301126129b0576129af612881565b5b81356129c0848260208601612932565b91505092915050565b600080604083850312156129e0576129df612583565b5b60006129ee85828601612724565b925050602083013567ffffffffffffffff811115612a0f57612a0e612588565b5b612a1b8582860161299b565b9150509250929050565b600081519050919050565b600082825260208201905092915050565b6000819050602082019050919050565b612a5a81612786565b82525050565b6000612a6c8383612a51565b60208301905092915050565b6000602082019050919050565b6000612a9082612a25565b612a9a8185612a30565b9350612aa583612a41565b8060005b83811015612ad6578151612abd8882612a60565b9750612ac883612a78565b925050600181019050612aa9565b5085935050505092915050565b60006020820190508181036000830152612afd8184612a85565b905092915050565b600060208284031215612b1b57612b1a612583565b5b6000612b29848285016127d9565b91505092915050565b612b3b81612703565b82525050565b6000602082019050612b566000830184612b32565b92915050565b600080fd5b600067ffffffffffffffff821115612b7c57612b7b612886565b5b612b8582612697565b9050602081019050919050565b82818337600083830152505050565b6000612bb4612baf84612b61565b6128e6565b905082815260208101848484011115612bd057612bcf612b5c565b5b612bdb848285612b92565b509392505050565b600082601f830112612bf857612bf7612881565b5b8135612c08848260208601612ba1565b91505092915050565b600080600060608486031215612c2a57612c29612583565b5b600084013567ffffffffffffffff811115612c4857612c47612588565b5b612c5486828701612be3565b9350506020612c65868287016127d9565b9250506040612c76868287016127d9565b9150509250925092565b612c8981612612565b8114612c9457600080fd5b50565b600081359050612ca681612c80565b92915050565b60008060408385031215612cc357612cc2612583565b5b6000612cd1858286016127d9565b9250506020612ce285828601612c97565b9150509250929050565b600060208284031215612d0257612d01612583565b5b600082013567ffffffffffffffff811115612d2057612d1f612588565b5b612d2c84828501612be3565b91505092915050565b600067ffffffffffffffff821115612d5057612d4f612886565b5b612d5982612697565b9050602081019050919050565b6000612d79612d7484612d35565b6128e6565b905082815260208101848484011115612d9557612d94612b5c565b5b612da0848285612b92565b509392505050565b600082601f830112612dbd57612dbc612881565b5b8135612dcd848260208601612d66565b91505092915050565b60008060008060808587031215612df057612def612583565b5b6000612dfe878288016127d9565b9450506020612e0f878288016127d9565b9350506040612e2087828801612724565b925050606085013567ffffffffffffffff811115612e4157612e40612588565b5b612e4d87828801612da8565b91505092959194509250565b60008060408385031215612e7057612e6f612583565b5b6000612e7e858286016127d9565b9250506020612e8f858286016127d9565b9150509250929050565b7f4e487b7100000000000000000000000000000000000000000000000000000000600052602260045260246000fd5b60006002820490506001821680612ee057607f821691505b60208210811415612ef457612ef3612e99565b5b50919050565b7f4552433732313a20617070726f76656420717565727920666f72206e6f6e657860008201527f697374656e7420746f6b656e0000000000000000000000000000000000000000602082015250565b6000612f56602c83612653565b9150612f6182612efa565b604082019050919050565b60006020820190508181036000830152612f8581612f49565b9050919050565b7f4552433732313a20617070726f76616c20746f2063757272656e74206f776e6560008201527f7200000000000000000000000000000000000000000000000000000000000000602082015250565b6000612fe8602183612653565b9150612ff382612f8c565b604082019050919050565b6000602082019050818103600083015261301781612fdb565b9050919050565b7f4552433732313a20617070726f76652063616c6c6572206973206e6f74206f7760008201527f6e6572206e6f7220617070726f76656420666f7220616c6c0000000000000000602082015250565b600061307a603883612653565b91506130858261301e565b604082019050919050565b600060208201905081810360008301526130a98161306d565b9050919050565b7f5472616e73666572206166746572206d696e742069732070726f68696269746560008201527f6400000000000000000000000000000000000000000000000000000000000000602082015250565b600061310c602183612653565b9150613117826130b0565b604082019050919050565b6000602082019050818103600083015261313b816130ff565b9050919050565b7f4552433732313a206f776e657220717565727920666f72206e6f6e657869737460008201527f656e7420746f6b656e0000000000000000000000000000000000000000000000602082015250565b600061319e602983612653565b91506131a982613142565b604082019050919050565b600060208201905081810360008301526131cd81613191565b9050919050565b7f4552433732313a2062616c616e636520717565727920666f7220746865207a6560008201527f726f206164647265737300000000000000000000000000000000000000000000602082015250565b6000613230602a83612653565b915061323b826131d4565b604082019050919050565b6000602082019050818103600083015261325f81613223565b9050919050565b60008151905061327581612c80565b92915050565b60006020828403121561329157613290612583565b5b600061329f84828501613266565b91505092915050565b7f54686973206163636f756e7420646f6573206e6f74206861766520526563746f60008201527f72205065726d697373696f6e7300000000000000000000000000000000000000602082015250565b6000613304602d83612653565b915061330f826132a8565b604082019050919050565b60006020820190508181036000830152613333816132f7565b9050919050565b600081905092915050565b600061335082612648565b61335a818561333a565b935061336a818560208601612664565b80840191505092915050565b60006133828284613345565b915081905092915050565b7f54686973204465706172746d656e7420697320616c7265616479206578697374600082015250565b60006133c3602083612653565b91506133ce8261338d565b602082019050919050565b600060208201905081810360008301526133f2816133b6565b9050919050565b7f54686973206465706172746d656e7441646472657373206973206e6f7420696e60008201527f204445504152544d454e545f524f4c4500000000000000000000000000000000602082015250565b6000613455603083612653565b9150613460826133f9565b604082019050919050565b6000602082019050818103600083015261348481613448565b9050919050565b50565b600061349b60008361333a565b91506134a68261348b565b600082019050919050565b60006134bc8261348e565b9150819050919050565b7f4465706172746d656e74206e616d652063616e6e6f7420626520656d70747900600082015250565b60006134fc601f83612653565b9150613507826134c6565b602082019050919050565b6000602082019050818103600083015261352b816134ef565b9050919050565b7f5468697320666163756c747941646472657373206973206e6f7420696e20464160008201527f43554c54595f524f4c4500000000000000000000000000000000000000000000602082015250565b600061358e602a83612653565b915061359982613532565b604082019050919050565b600060208201905081810360008301526135bd81613581565b9050919050565b7f4e487b7100000000000000000000000000000000000000000000000000000000600052601160045260246000fd5b60006135fe82612703565b915061360983612703565b9250827fffffffffffffffffffffffffffffffffffffffffffffffffffffffffffffffff0382111561363e5761363d6135c4565b5b828201905092915050565b6000815190506136588161270d565b92915050565b60006020828403121561367457613673612583565b5b600061368284828501613649565b91505092915050565b60008151905061369a816127c2565b92915050565b6000602082840312156136b6576136b5612583565b5b60006136c48482850161368b565b91505092915050565b60006136d882612703565b91507fffffffffffffffffffffffffffffffffffffffffffffffffffffffffffffffff82141561370b5761370a6135c4565b5b600182019050919050565b600061372961372484612901565b6128e6565b9050808382526020820190506020840283018581111561374c5761374b61292d565b5b835b818110156137755780613761888261368b565b84526020840193505060208101905061374e565b5050509392505050565b600082601f83011261379457613793612881565b5b81516137a4848260208601613716565b91505092915050565b6000602082840312156137c3576137c2612583565b5b600082015167ffffffffffffffff8111156137e1576137e0612588565b5b6137ed8482850161377f565b91505092915050565b7f4e487b7100000000000000000000000000000000000000000000000000000000600052603260045260246000fd5b600061383082612703565b915061383b83612703565b92508282101561384e5761384d6135c4565b5b828203905092915050565b600060408201905061386e6000830185612b32565b81810360208301526138808184612a85565b90509392505050565b7f4552433732314d657461646174613a2055524920717565727920666f72206e6f60008201527f6e6578697374656e7420746f6b656e0000000000000000000000000000000000602082015250565b60006138e5602f83612653565b91506138f082613889565b604082019050919050565b60006020820190508181036000830152613914816138d8565b9050919050565b60006139278285613345565b91506139338284613345565b91508190509392505050565b7f4552433732313a207472616e736665722063616c6c6572206973206e6f74206f60008201527f776e6572206e6f7220617070726f766564000000000000000000000000000000602082015250565b600061399b603183612653565b91506139a68261393f565b604082019050919050565b600060208201905081810360008301526139ca8161398e565b9050919050565b7f4552433732313a206d696e7420746f20746865207a65726f2061646472657373600082015250565b6000613a07602083612653565b9150613a12826139d1565b602082019050919050565b60006020820190508181036000830152613a36816139fa565b9050919050565b7f4552433732313a20746f6b656e20616c7265616479206d696e74656400000000600082015250565b6000613a73601c83612653565b9150613a7e82613a3d565b602082019050919050565b60006020820190508181036000830152613aa281613a66565b9050919050565b7f4552433732313a20617070726f766520746f2063616c6c657200000000000000600082015250565b6000613adf601983612653565b9150613aea82613aa9565b602082019050919050565b60006020820190508181036000830152613b0e81613ad2565b9050919050565b7f4e487b7100000000000000000000000000000000000000000000000000000000600052601260045260246000fd5b6000613b4f82612703565b9150613b5a83612703565b925082613b6a57613b69613b15565b5b828204905092915050565b6000613b8082612703565b9150613b8b83612703565b925082613b9b57613b9a613b15565b5b828206905092915050565b7f4552433732313a206f70657261746f7220717565727920666f72206e6f6e657860008201527f697374656e7420746f6b656e0000000000000000000000000000000000000000602082015250565b6000613c02602c83612653565b9150613c0d82613ba6565b604082019050919050565b60006020820190508181036000830152613c3181613bf5565b9050919050565b7f4552433732313a207472616e73666572206f6620746f6b656e2074686174206960008201527f73206e6f74206f776e0000000000000000000000000000000000000000000000602082015250565b6000613c94602983612653565b9150613c9f82613c38565b604082019050919050565b60006020820190508181036000830152613cc381613c87565b9050919050565b7f4552433732313a207472616e7366657220746f20746865207a65726f2061646460008201527f7265737300000000000000000000000000000000000000000000000000000000602082015250565b6000613d26602483612653565b9150613d3182613cca565b604082019050919050565b60006020820190508181036000830152613d5581613d19565b9050919050565b7f4552433732313a207472616e7366657220746f206e6f6e20455243373231526560008201527f63656976657220696d706c656d656e7465720000000000000000000000000000602082015250565b6000613db8603283612653565b9150613dc382613d5c565b604082019050919050565b60006020820190508181036000830152613de781613dab565b9050919050565b600081519050919050565b600082825260208201905092915050565b6000613e1582613dee565b613e1f8185613df9565b9350613e2f818560208601612664565b613e3881612697565b840191505092915050565b6000608082019050613e586000830187612798565b613e656020830186612798565b613e726040830185612b32565b8181036060830152613e848184613e0a565b905095945050505050565b600081519050613e9e816125b9565b92915050565b600060208284031215613eba57613eb9612583565b5b6000613ec884828501613e8f565b9150509291505056fea2646970667358221220866411aa9f744bb4d01d8c03c318a735a16f61b71215f1940c6c7c6b981c809a64736f6c634300080a0033",
  "immutableReferences": {},
  "source": "pragma solidity ^0.8.10;\r\n\r\nimport \"@openzeppelin/contracts/token/ERC721/ERC721.sol\";\r\nimport \"./Roles.sol\";\r\nimport \"./Faculty.sol\";\r\n\r\ncontract Department is ERC721{\r\n\r\n    address rolesContractAddress;\r\n    address facultyContractAddress;\r\n\r\n    uint256 _totalSupply = 0;\r\n    //mapping from tokenID to departmentName\r\n    mapping(uint256 => string) _departmentNameOfID;\r\n    //mapping from departmentName to tokenID\r\n    mapping(string => uint256) _IDOfDepartmentName;\r\n\r\n    //TODO test below\r\n    //mapping from tokenID to its Faculty Address\r\n    mapping(uint256 => address) _faculty;\r\n    //mapping from tokenID to its Instructor Addresses\r\n    mapping(uint256 => address[]) _instructors;\r\n    //mapping from tokenID to its Student Addresses\r\n    mapping(uint256 => address[]) _students;\r\n\r\n    constructor(address _rolesContractAddress, address _facultyContractAddress) ERC721(\"Department\", \"DEP\"){\r\n        rolesContractAddress =_rolesContractAddress;\r\n        facultyContractAddress = facultyContractAddress;\r\n    }\r\n\r\n    function mint(string memory _departmentName, address departmentAddress, address facultyAddress) public{\r\n        require(Roles(rolesContractAddress).hasRectorRole(msg.sender), \"This account does not have Rector Permissions\");\r\n        require(_IDOfDepartmentName[_departmentName] == 0, \"This Department is already exist\");\r\n        Roles(rolesContractAddress).grantDepartmentRole(departmentAddress);\r\n        require(Roles(rolesContractAddress).hasDepartmentRole(departmentAddress), \"This departmentAddress is not in DEPARTMENT_ROLE\");\r\n        require(keccak256(abi.encodePacked(_departmentName)) != keccak256(abi.encodePacked(\"\")), \"Department name cannot be empty\");\r\n        require(Roles(rolesContractAddress).hasFacultyRole(facultyAddress), \"This facultyAddress is not in FACULTY_ROLE\");\r\n        // Department - add\r\n        _totalSupply = _totalSupply + 1;\r\n        uint _id = _totalSupply; //tokenID's start from 1 because default uint256 value is 0\r\n        // Call the mint function of ERC721\r\n        _mint(departmentAddress, _id);\r\n        // Department - track it\r\n        _IDOfDepartmentName[_departmentName] = _id;\r\n        _departmentNameOfID[_id] = _departmentName;\r\n        _faculty[_id] = facultyAddress;\r\n        //Add to Faculty's Departments List\r\n        uint totalSupply = Faculty(facultyContractAddress).getTotalSupply();\r\n        uint facultyID = 0;\r\n        for(uint i = 1; i<totalSupply; i++){\r\n            if(Faculty(facultyContractAddress).ownerOf(i) == facultyAddress){\r\n                facultyID = i;\r\n                break;\r\n            }\r\n        }\r\n        address[] memory departments = Faculty(facultyContractAddress).getDepartments(facultyID);\r\n        address[] memory newDepartments = new address[](departments.length);\r\n        for(uint i = 0; i<departments.length; i++){\r\n            newDepartments[i] = departments[i];\r\n        }\r\n        newDepartments[newDepartments.length-1] = departmentAddress;\r\n        Faculty(facultyContractAddress).setDepartments(facultyID,newDepartments);\r\n    }\r\n    function getDepartmentName(uint256 id) public view returns(string memory departmentName){\r\n        return _departmentNameOfID[id];\r\n    }\r\n    function getDepartmentID(string memory departmentName) public view returns(uint256 departmentID){\r\n        return _IDOfDepartmentName[departmentName];\r\n    }\r\n    function getTotalSupply() public view returns(uint256 totalSupply){\r\n        return _totalSupply;\r\n    }\r\n    function getFaculty(uint256 id) public view returns(address){\r\n        return _faculty[id];\r\n    }\r\n    function getInstructors(uint256 id) public view returns(address[] memory){\r\n        return _instructors[id];\r\n    }\r\n    //TODO handle publicity with roles\r\n    function setInstructors(uint256 id, address[] memory instructors) public{\r\n        _instructors[id] = instructors;\r\n    }\r\n    function getStudents(uint256 id) public view returns(address[] memory){\r\n        return _students[id];\r\n    }\r\n    //TODO handle publicity with roles\r\n    function setStudents(uint256 id, address[] memory students) public{\r\n        _students[id] = students;\r\n    }\r\n    function transferFrom(//Only callable when minted\r\n        address from,\r\n        address to,\r\n        uint256 tokenId\r\n    ) public virtual override {\r\n        require(msg.sender == 0x0000000000000000000000000000000000000000, \"Transfer after mint is prohibited\");\r\n        super.transferFrom(from,to,tokenId);\r\n    }\r\n    function safeTransferFrom(//Only callable when minted\r\n        address from,\r\n        address to,\r\n        uint256 tokenId\r\n    ) public virtual override {\r\n        require(msg.sender == 0x0000000000000000000000000000000000000000, \"Transfer after mint is prohibited\");\r\n        super.safeTransferFrom(from,to,tokenId);\r\n    }\r\n    function safeTransferFrom(//Only callable when minted\r\n        address from,\r\n        address to,\r\n        uint256 tokenId,\r\n        bytes memory _data\r\n    ) public virtual override {\r\n        require(msg.sender == 0x0000000000000000000000000000000000000000, \"Transfer after mint is prohibited\");\r\n        super.safeTransferFrom(from, to, tokenId, _data);\r\n    }\r\n}\r\n",
  "sourcePath": "C:\\Users\\asus\\Desktop\\Dersler\\CMPE492\\certification-project\\contracts\\Department.sol",
  "compiler": {
    "name": "solc",
    "version": "0.8.10+commit.fc410830.Emscripten.clang"
  },
  "schemaVersion": "3.4.4",
  "updatedAt": "2022-01-18T22:06:34.695Z",
  "networkType": "ethereum",
  "devdoc": {
    "kind": "dev",
    "methods": {
      "approve(address,uint256)": {
        "details": "See {IERC721-approve}."
      },
      "balanceOf(address)": {
        "details": "See {IERC721-balanceOf}."
      },
      "getApproved(uint256)": {
        "details": "See {IERC721-getApproved}."
      },
      "isApprovedForAll(address,address)": {
        "details": "See {IERC721-isApprovedForAll}."
      },
      "name()": {
        "details": "See {IERC721Metadata-name}."
      },
      "ownerOf(uint256)": {
        "details": "See {IERC721-ownerOf}."
      },
      "safeTransferFrom(address,address,uint256)": {
        "details": "See {IERC721-safeTransferFrom}."
      },
      "safeTransferFrom(address,address,uint256,bytes)": {
        "details": "See {IERC721-safeTransferFrom}."
      },
      "setApprovalForAll(address,bool)": {
        "details": "See {IERC721-setApprovalForAll}."
      },
      "supportsInterface(bytes4)": {
        "details": "See {IERC165-supportsInterface}."
      },
      "symbol()": {
        "details": "See {IERC721Metadata-symbol}."
      },
      "tokenURI(uint256)": {
        "details": "See {IERC721Metadata-tokenURI}."
      },
      "transferFrom(address,address,uint256)": {
        "details": "See {IERC721-transferFrom}."
      }
    },
    "version": 1
  },
  "userdoc": {
    "kind": "user",
    "methods": {},
    "version": 1
  }
}