{
  "contractName": "Department",
  "abi": [
    {
      "inputs": [
        {
          "internalType": "address",
          "name": "_rolesContractAddress",
          "type": "address"
        },
        {
          "internalType": "address",
          "name": "_facultyContractAddress",
          "type": "address"
        }
      ],
      "stateMutability": "nonpayable",
      "type": "constructor"
    },
    {
      "anonymous": false,
      "inputs": [
        {
          "indexed": true,
          "internalType": "address",
          "name": "owner",
          "type": "address"
        },
        {
          "indexed": true,
          "internalType": "address",
          "name": "approved",
          "type": "address"
        },
        {
          "indexed": true,
          "internalType": "uint256",
          "name": "tokenId",
          "type": "uint256"
        }
      ],
      "name": "Approval",
      "type": "event"
    },
    {
      "anonymous": false,
      "inputs": [
        {
          "indexed": true,
          "internalType": "address",
          "name": "owner",
          "type": "address"
        },
        {
          "indexed": true,
          "internalType": "address",
          "name": "operator",
          "type": "address"
        },
        {
          "indexed": false,
          "internalType": "bool",
          "name": "approved",
          "type": "bool"
        }
      ],
      "name": "ApprovalForAll",
      "type": "event"
    },
    {
      "anonymous": false,
      "inputs": [
        {
          "indexed": true,
          "internalType": "address",
          "name": "from",
          "type": "address"
        },
        {
          "indexed": true,
          "internalType": "address",
          "name": "to",
          "type": "address"
        },
        {
          "indexed": true,
          "internalType": "uint256",
          "name": "tokenId",
          "type": "uint256"
        }
      ],
      "name": "Transfer",
      "type": "event"
    },
    {
      "inputs": [
        {
          "internalType": "address",
          "name": "to",
          "type": "address"
        },
        {
          "internalType": "uint256",
          "name": "tokenId",
          "type": "uint256"
        }
      ],
      "name": "approve",
      "outputs": [],
      "stateMutability": "nonpayable",
      "type": "function"
    },
    {
      "inputs": [
        {
          "internalType": "address",
          "name": "owner",
          "type": "address"
        }
      ],
      "name": "balanceOf",
      "outputs": [
        {
          "internalType": "uint256",
          "name": "",
          "type": "uint256"
        }
      ],
      "stateMutability": "view",
      "type": "function"
    },
    {
      "inputs": [
        {
          "internalType": "uint256",
          "name": "tokenId",
          "type": "uint256"
        }
      ],
      "name": "getApproved",
      "outputs": [
        {
          "internalType": "address",
          "name": "",
          "type": "address"
        }
      ],
      "stateMutability": "view",
      "type": "function"
    },
    {
      "inputs": [
        {
          "internalType": "address",
          "name": "owner",
          "type": "address"
        },
        {
          "internalType": "address",
          "name": "operator",
          "type": "address"
        }
      ],
      "name": "isApprovedForAll",
      "outputs": [
        {
          "internalType": "bool",
          "name": "",
          "type": "bool"
        }
      ],
      "stateMutability": "view",
      "type": "function"
    },
    {
      "inputs": [],
      "name": "name",
      "outputs": [
        {
          "internalType": "string",
          "name": "",
          "type": "string"
        }
      ],
      "stateMutability": "view",
      "type": "function"
    },
    {
      "inputs": [
        {
          "internalType": "uint256",
          "name": "tokenId",
          "type": "uint256"
        }
      ],
      "name": "ownerOf",
      "outputs": [
        {
          "internalType": "address",
          "name": "",
          "type": "address"
        }
      ],
      "stateMutability": "view",
      "type": "function"
    },
    {
      "inputs": [
        {
          "internalType": "address",
          "name": "operator",
          "type": "address"
        },
        {
          "internalType": "bool",
          "name": "approved",
          "type": "bool"
        }
      ],
      "name": "setApprovalForAll",
      "outputs": [],
      "stateMutability": "nonpayable",
      "type": "function"
    },
    {
      "inputs": [
        {
          "internalType": "bytes4",
          "name": "interfaceId",
          "type": "bytes4"
        }
      ],
      "name": "supportsInterface",
      "outputs": [
        {
          "internalType": "bool",
          "name": "",
          "type": "bool"
        }
      ],
      "stateMutability": "view",
      "type": "function"
    },
    {
      "inputs": [],
      "name": "symbol",
      "outputs": [
        {
          "internalType": "string",
          "name": "",
          "type": "string"
        }
      ],
      "stateMutability": "view",
      "type": "function"
    },
    {
      "inputs": [
        {
          "internalType": "uint256",
          "name": "tokenId",
          "type": "uint256"
        }
      ],
      "name": "tokenURI",
      "outputs": [
        {
          "internalType": "string",
          "name": "",
          "type": "string"
        }
      ],
      "stateMutability": "view",
      "type": "function"
    },
    {
      "inputs": [
        {
          "internalType": "string",
          "name": "_departmentName",
          "type": "string"
        },
        {
          "internalType": "address",
          "name": "departmentAddress",
          "type": "address"
        },
        {
          "internalType": "address",
          "name": "facultyAddress",
          "type": "address"
        }
      ],
      "name": "mint",
      "outputs": [],
      "stateMutability": "nonpayable",
      "type": "function"
    },
    {
      "inputs": [
        {
          "internalType": "uint256",
          "name": "id",
          "type": "uint256"
        }
      ],
      "name": "getDepartmentName",
      "outputs": [
        {
          "internalType": "string",
          "name": "departmentName",
          "type": "string"
        }
      ],
      "stateMutability": "view",
      "type": "function"
    },
    {
      "inputs": [
        {
          "internalType": "string",
          "name": "departmentName",
          "type": "string"
        }
      ],
      "name": "getDepartmentID",
      "outputs": [
        {
          "internalType": "uint256",
          "name": "departmentID",
          "type": "uint256"
        }
      ],
      "stateMutability": "view",
      "type": "function"
    },
    {
      "inputs": [],
      "name": "getTotalSupply",
      "outputs": [
        {
          "internalType": "uint256",
          "name": "totalSupply",
          "type": "uint256"
        }
      ],
      "stateMutability": "view",
      "type": "function"
    },
    {
      "inputs": [
        {
          "internalType": "uint256",
          "name": "id",
          "type": "uint256"
        }
      ],
      "name": "getFaculty",
      "outputs": [
        {
          "internalType": "address",
          "name": "",
          "type": "address"
        }
      ],
      "stateMutability": "view",
      "type": "function"
    },
    {
      "inputs": [
        {
          "internalType": "uint256",
          "name": "id",
          "type": "uint256"
        }
      ],
      "name": "getInstructors",
      "outputs": [
        {
          "internalType": "address[]",
          "name": "",
          "type": "address[]"
        }
      ],
      "stateMutability": "view",
      "type": "function"
    },
    {
      "inputs": [
        {
          "internalType": "uint256",
          "name": "id",
          "type": "uint256"
        },
        {
          "internalType": "address[]",
          "name": "instructors",
          "type": "address[]"
        },
        {
          "internalType": "address",
          "name": "revoked",
          "type": "address"
        }
      ],
      "name": "setInstructors",
      "outputs": [],
      "stateMutability": "nonpayable",
      "type": "function"
    },
    {
      "inputs": [
        {
          "internalType": "uint256",
          "name": "id",
          "type": "uint256"
        }
      ],
      "name": "getStudents",
      "outputs": [
        {
          "internalType": "address[]",
          "name": "",
          "type": "address[]"
        }
      ],
      "stateMutability": "view",
      "type": "function"
    },
    {
      "inputs": [
        {
          "internalType": "uint256",
          "name": "id",
          "type": "uint256"
        },
        {
          "internalType": "address[]",
          "name": "students",
          "type": "address[]"
        },
        {
          "internalType": "address",
          "name": "revoked",
          "type": "address"
        }
      ],
      "name": "setStudents",
      "outputs": [],
      "stateMutability": "nonpayable",
      "type": "function"
    },
    {
      "inputs": [
        {
          "internalType": "address",
          "name": "from",
          "type": "address"
        },
        {
          "internalType": "address",
          "name": "to",
          "type": "address"
        },
        {
          "internalType": "uint256",
          "name": "tokenId",
          "type": "uint256"
        }
      ],
      "name": "transferFrom",
      "outputs": [],
      "stateMutability": "nonpayable",
      "type": "function"
    },
    {
      "inputs": [
        {
          "internalType": "address",
          "name": "from",
          "type": "address"
        },
        {
          "internalType": "address",
          "name": "to",
          "type": "address"
        },
        {
          "internalType": "uint256",
          "name": "tokenId",
          "type": "uint256"
        }
      ],
      "name": "safeTransferFrom",
      "outputs": [],
      "stateMutability": "nonpayable",
      "type": "function"
    },
    {
      "inputs": [
        {
          "internalType": "address",
          "name": "from",
          "type": "address"
        },
        {
          "internalType": "address",
          "name": "to",
          "type": "address"
        },
        {
          "internalType": "uint256",
          "name": "tokenId",
          "type": "uint256"
        },
        {
          "internalType": "bytes",
          "name": "_data",
          "type": "bytes"
        }
      ],
      "name": "safeTransferFrom",
      "outputs": [],
      "stateMutability": "nonpayable",
      "type": "function"
    }
  ],
  "bytecode": "0x608060405260006008553480156200001657600080fd5b50604051620048523803806200485283398181016040528101906200003c919062000280565b6040518060400160405280600a81526020017f4465706172746d656e74000000000000000000000000000000000000000000008152506040518060400160405280600381526020017f44455000000000000000000000000000000000000000000000000000000000008152508160009080519060200190620000c092919062000166565b508060019080519060200190620000d992919062000166565b50505081600660006101000a81548173ffffffffffffffffffffffffffffffffffffffff021916908373ffffffffffffffffffffffffffffffffffffffff16021790555080600760006101000a81548173ffffffffffffffffffffffffffffffffffffffff021916908373ffffffffffffffffffffffffffffffffffffffff16021790555050506200032c565b8280546200017490620002f6565b90600052602060002090601f016020900481019282620001985760008555620001e4565b82601f10620001b357805160ff1916838001178555620001e4565b82800160010185558215620001e4579182015b82811115620001e3578251825591602001919060010190620001c6565b5b509050620001f39190620001f7565b5090565b5b8082111562000212576000816000905550600101620001f8565b5090565b600080fd5b600073ffffffffffffffffffffffffffffffffffffffff82169050919050565b600062000248826200021b565b9050919050565b6200025a816200023b565b81146200026657600080fd5b50565b6000815190506200027a816200024f565b92915050565b600080604083850312156200029a576200029962000216565b5b6000620002aa8582860162000269565b9250506020620002bd8582860162000269565b9150509250929050565b7f4e487b7100000000000000000000000000000000000000000000000000000000600052602260045260246000fd5b600060028204905060018216806200030f57607f821691505b60208210811415620003265762000325620002c7565b5b50919050565b614516806200033c6000396000f3fe608060405234801561001057600080fd5b50600436106101425760003560e01c806375c2f8f0116100b8578063ac88aa4b1161007c578063ac88aa4b146103ab578063b88d4fde146103db578063c4e41b22146103f7578063c87b56dd14610415578063de8289c114610445578063e985e9c51461046157610142565b806375c2f8f0146102f55780637e6d945e1461032557806384443dce1461034157806395d89b4114610371578063a22cb4651461038f57610142565b806323b872dd1161010a57806323b872dd1461021157806342842e0e1461022d57806347519ab71461024957806355bd1b4d146102795780636352211e1461029557806370a08231146102c557610142565b806301ffc9a71461014757806306fdde0314610177578063081812fc14610195578063095ea7b3146101c55780631fd76cfb146101e1575b600080fd5b610161600480360381019061015c9190612ae3565b610491565b60405161016e9190612b2b565b60405180910390f35b61017f610573565b60405161018c9190612bdf565b60405180910390f35b6101af60048036038101906101aa9190612c37565b610605565b6040516101bc9190612ca5565b60405180910390f35b6101df60048036038101906101da9190612cec565b61068a565b005b6101fb60048036038101906101f69190612c37565b6107a2565b6040516102089190612ca5565b60405180910390f35b61022b60048036038101906102269190612d2c565b6107df565b005b61024760048036038101906102429190612d2c565b61085e565b005b610263600480360381019061025e9190612c37565b6108dd565b6040516102709190612e3d565b60405180910390f35b610293600480360381019061028e9190612fa7565b61097e565b005b6102af60048036038101906102aa9190612c37565b610c02565b6040516102bc9190612ca5565b60405180910390f35b6102df60048036038101906102da9190613016565b610cb4565b6040516102ec9190613052565b60405180910390f35b61030f600480360381019061030a9190612c37565b610d6c565b60405161031c9190612e3d565b60405180910390f35b61033f600480360381019061033a9190613122565b610e0d565b005b61035b60048036038101906103569190612c37565b611729565b6040516103689190612bdf565b60405180910390f35b6103796117ce565b6040516103869190612bdf565b60405180910390f35b6103a960048036038101906103a491906131bd565b611860565b005b6103c560048036038101906103c091906131fd565b611876565b6040516103d29190613052565b60405180910390f35b6103f560048036038101906103f091906132e7565b61189e565b005b6103ff61191f565b60405161040c9190613052565b60405180910390f35b61042f600480360381019061042a9190612c37565b611929565b60405161043c9190612bdf565b60405180910390f35b61045f600480360381019061045a9190612fa7565b6119d0565b005b61047b6004803603810190610476919061336a565b611c54565b6040516104889190612b2b565b60405180910390f35b60007f80ac58cd000000000000000000000000000000000000000000000000000000007bffffffffffffffffffffffffffffffffffffffffffffffffffffffff1916827bffffffffffffffffffffffffffffffffffffffffffffffffffffffff1916148061055c57507f5b5e139f000000000000000000000000000000000000000000000000000000007bffffffffffffffffffffffffffffffffffffffffffffffffffffffff1916827bffffffffffffffffffffffffffffffffffffffffffffffffffffffff1916145b8061056c575061056b82611ce8565b5b9050919050565b606060008054610582906133d9565b80601f01602080910402602001604051908101604052809291908181526020018280546105ae906133d9565b80156105fb5780601f106105d0576101008083540402835291602001916105fb565b820191906000526020600020905b8154815290600101906020018083116105de57829003601f168201915b5050505050905090565b600061061082611d52565b61064f576040517f08c379a00000000000000000000000000000000000000000000000000000000081526004016106469061347d565b60405180910390fd5b6004600083815260200190815260200160002060009054906101000a900473ffffffffffffffffffffffffffffffffffffffff169050919050565b600061069582610c02565b90508073ffffffffffffffffffffffffffffffffffffffff168373ffffffffffffffffffffffffffffffffffffffff161415610706576040517f08c379a00000000000000000000000000000000000000000000000000000000081526004016106fd9061350f565b60405180910390fd5b8073ffffffffffffffffffffffffffffffffffffffff16610725611dbe565b73ffffffffffffffffffffffffffffffffffffffff16148061075457506107538161074e611dbe565b611c54565b5b610793576040517f08c379a000000000000000000000000000000000000000000000000000000000815260040161078a906135a1565b60405180910390fd5b61079d8383611dc6565b505050565b6000600b600083815260200190815260200160002060009054906101000a900473ffffffffffffffffffffffffffffffffffffffff169050919050565b600073ffffffffffffffffffffffffffffffffffffffff163373ffffffffffffffffffffffffffffffffffffffff161461084e576040517f08c379a000000000000000000000000000000000000000000000000000000000815260040161084590613633565b60405180910390fd5b610859838383611e7f565b505050565b600073ffffffffffffffffffffffffffffffffffffffff163373ffffffffffffffffffffffffffffffffffffffff16146108cd576040517f08c379a00000000000000000000000000000000000000000000000000000000081526004016108c490613633565b60405180910390fd5b6108d8838383611edf565b505050565b6060600c600083815260200190815260200160002080548060200260200160405190810160405280929190818152602001828054801561097257602002820191906000526020600020905b8160009054906101000a900473ffffffffffffffffffffffffffffffffffffffff1673ffffffffffffffffffffffffffffffffffffffff1681526020019060010190808311610928575b50505050509050919050565b600660009054906101000a900473ffffffffffffffffffffffffffffffffffffffff1673ffffffffffffffffffffffffffffffffffffffff16632be7dc44336040518263ffffffff1660e01b81526004016109d99190612ca5565b602060405180830381865afa1580156109f6573d6000803e3d6000fd5b505050506040513d601f19601f82011682018060405250810190610a1a9190613668565b610a59576040517f08c379a0000000000000000000000000000000000000000000000000000000008152600401610a5090613707565b60405180910390fd5b81600c60008581526020019081526020016000209080519060200190610a8092919061294a565b50600073ffffffffffffffffffffffffffffffffffffffff168173ffffffffffffffffffffffffffffffffffffffff161415610b6f57600660009054906101000a900473ffffffffffffffffffffffffffffffffffffffff1673ffffffffffffffffffffffffffffffffffffffff16635f1d514e8360018551610b039190613756565b81518110610b1457610b1361378a565b5b60200260200101516040518263ffffffff1660e01b8152600401610b389190612ca5565b600060405180830381600087803b158015610b5257600080fd5b505af1158015610b66573d6000803e3d6000fd5b50505050610bfd565b600660009054906101000a900473ffffffffffffffffffffffffffffffffffffffff1673ffffffffffffffffffffffffffffffffffffffff166386f8e92c826040518263ffffffff1660e01b8152600401610bca9190612ca5565b600060405180830381600087803b158015610be457600080fd5b505af1158015610bf8573d6000803e3d6000fd5b505050505b505050565b6000806002600084815260200190815260200160002060009054906101000a900473ffffffffffffffffffffffffffffffffffffffff169050600073ffffffffffffffffffffffffffffffffffffffff168173ffffffffffffffffffffffffffffffffffffffff161415610cab576040517f08c379a0000000000000000000000000000000000000000000000000000000008152600401610ca29061382b565b60405180910390fd5b80915050919050565b60008073ffffffffffffffffffffffffffffffffffffffff168273ffffffffffffffffffffffffffffffffffffffff161415610d25576040517f08c379a0000000000000000000000000000000000000000000000000000000008152600401610d1c906138bd565b60405180910390fd5b600360008373ffffffffffffffffffffffffffffffffffffffff1673ffffffffffffffffffffffffffffffffffffffff168152602001908152602001600020549050919050565b6060600d6000838152602001908152602001600020805480602002602001604051908101604052809291908181526020018280548015610e0157602002820191906000526020600020905b8160009054906101000a900473ffffffffffffffffffffffffffffffffffffffff1673ffffffffffffffffffffffffffffffffffffffff1681526020019060010190808311610db7575b50505050509050919050565b600660009054906101000a900473ffffffffffffffffffffffffffffffffffffffff1673ffffffffffffffffffffffffffffffffffffffff16632be7dc44336040518263ffffffff1660e01b8152600401610e689190612ca5565b602060405180830381865afa158015610e85573d6000803e3d6000fd5b505050506040513d601f19601f82011682018060405250810190610ea99190613668565b610ee8576040517f08c379a0000000000000000000000000000000000000000000000000000000008152600401610edf9061394f565b60405180910390fd5b6000600a84604051610efa91906139ab565b90815260200160405180910390205414610f49576040517f08c379a0000000000000000000000000000000000000000000000000000000008152600401610f4090613a0e565b60405180910390fd5b600660009054906101000a900473ffffffffffffffffffffffffffffffffffffffff1673ffffffffffffffffffffffffffffffffffffffff166312fb59f2836040518263ffffffff1660e01b8152600401610fa49190612ca5565b600060405180830381600087803b158015610fbe57600080fd5b505af1158015610fd2573d6000803e3d6000fd5b50505050600660009054906101000a900473ffffffffffffffffffffffffffffffffffffffff1673ffffffffffffffffffffffffffffffffffffffff1663e17f6b2c836040518263ffffffff1660e01b81526004016110319190612ca5565b602060405180830381865afa15801561104e573d6000803e3d6000fd5b505050506040513d601f19601f820116820180604052508101906110729190613668565b6110b1576040517f08c379a00000000000000000000000000000000000000000000000000000000081526004016110a890613aa0565b60405180910390fd5b6040516020016110c090613ae6565b60405160208183030381529060405280519060200120836040516020016110e791906139ab565b60405160208183030381529060405280519060200120141561113e576040517f08c379a000000000000000000000000000000000000000000000000000000000815260040161113590613b47565b60405180910390fd5b600660009054906101000a900473ffffffffffffffffffffffffffffffffffffffff1673ffffffffffffffffffffffffffffffffffffffff1663e78af7c5826040518263ffffffff1660e01b81526004016111999190612ca5565b602060405180830381865afa1580156111b6573d6000803e3d6000fd5b505050506040513d601f19601f820116820180604052508101906111da9190613668565b611219576040517f08c379a000000000000000000000000000000000000000000000000000000000815260040161121090613bd9565b60405180910390fd5b60016008546112289190613bf9565b6008819055506000600854905061123f8382611eff565b80600a8560405161125091906139ab565b908152602001604051809103902081905550836009600083815260200190815260200160002090805190602001906112899291906129d4565b5081600b600083815260200190815260200160002060006101000a81548173ffffffffffffffffffffffffffffffffffffffff021916908373ffffffffffffffffffffffffffffffffffffffff1602179055506000600760009054906101000a900473ffffffffffffffffffffffffffffffffffffffff1673ffffffffffffffffffffffffffffffffffffffff1663c4e41b226040518163ffffffff1660e01b8152600401602060405180830381865afa15801561134b573d6000803e3d6000fd5b505050506040513d601f19601f8201168201806040525081019061136f9190613c64565b9050600080600190505b82811161146a578473ffffffffffffffffffffffffffffffffffffffff16600760009054906101000a900473ffffffffffffffffffffffffffffffffffffffff1673ffffffffffffffffffffffffffffffffffffffff16636352211e836040518263ffffffff1660e01b81526004016113f29190613052565b602060405180830381865afa15801561140f573d6000803e3d6000fd5b505050506040513d601f19601f820116820180604052508101906114339190613ca6565b73ffffffffffffffffffffffffffffffffffffffff1614156114575780915061146a565b808061146290613cd3565b915050611379565b50600081116114ae576040517f08c379a00000000000000000000000000000000000000000000000000000000081526004016114a590613d68565b60405180910390fd5b6000600760009054906101000a900473ffffffffffffffffffffffffffffffffffffffff1673ffffffffffffffffffffffffffffffffffffffff166326970179836040518263ffffffff1660e01b815260040161150b9190613052565b600060405180830381865afa158015611528573d6000803e3d6000fd5b505050506040513d6000823e3d601f19601f820116820180604052508101906115519190613e1f565b90506000600182516115639190613bf9565b67ffffffffffffffff81111561157c5761157b612e64565b5b6040519080825280602002602001820160405280156115aa5781602001602082028036833780820191505090505b50905060005b8251811015611634578281815181106115cc576115cb61378a565b5b60200260200101518282815181106115e7576115e661378a565b5b602002602001019073ffffffffffffffffffffffffffffffffffffffff16908173ffffffffffffffffffffffffffffffffffffffff1681525050808061162c90613cd3565b9150506115b0565b508681600183516116459190613756565b815181106116565761165561378a565b5b602002602001019073ffffffffffffffffffffffffffffffffffffffff16908173ffffffffffffffffffffffffffffffffffffffff1681525050600760009054906101000a900473ffffffffffffffffffffffffffffffffffffffff1673ffffffffffffffffffffffffffffffffffffffff1663b9837a0084836040518363ffffffff1660e01b81526004016116ed929190613e68565b600060405180830381600087803b15801561170757600080fd5b505af115801561171b573d6000803e3d6000fd5b505050505050505050505050565b6060600960008381526020019081526020016000208054611749906133d9565b80601f0160208091040260200160405190810160405280929190818152602001828054611775906133d9565b80156117c25780601f10611797576101008083540402835291602001916117c2565b820191906000526020600020905b8154815290600101906020018083116117a557829003601f168201915b50505050509050919050565b6060600180546117dd906133d9565b80601f0160208091040260200160405190810160405280929190818152602001828054611809906133d9565b80156118565780601f1061182b57610100808354040283529160200191611856565b820191906000526020600020905b81548152906001019060200180831161183957829003601f168201915b5050505050905090565b61187261186b611dbe565b83836120cd565b5050565b6000600a8260405161188891906139ab565b9081526020016040518091039020549050919050565b600073ffffffffffffffffffffffffffffffffffffffff163373ffffffffffffffffffffffffffffffffffffffff161461190d576040517f08c379a000000000000000000000000000000000000000000000000000000000815260040161190490613633565b60405180910390fd5b6119198484848461223a565b50505050565b6000600854905090565b606061193482611d52565b611973576040517f08c379a000000000000000000000000000000000000000000000000000000000815260040161196a90613f0a565b60405180910390fd5b600061197d61229c565b9050600081511161199d57604051806020016040528060008152506119c8565b806119a7846122b3565b6040516020016119b8929190613f2a565b6040516020818303038152906040525b915050919050565b600660009054906101000a900473ffffffffffffffffffffffffffffffffffffffff1673ffffffffffffffffffffffffffffffffffffffff16632be7dc44336040518263ffffffff1660e01b8152600401611a2b9190612ca5565b602060405180830381865afa158015611a48573d6000803e3d6000fd5b505050506040513d601f19601f82011682018060405250810190611a6c9190613668565b611aab576040517f08c379a0000000000000000000000000000000000000000000000000000000008152600401611aa290613707565b60405180910390fd5b81600d60008581526020019081526020016000209080519060200190611ad292919061294a565b50600073ffffffffffffffffffffffffffffffffffffffff168173ffffffffffffffffffffffffffffffffffffffff161415611bc157600660009054906101000a900473ffffffffffffffffffffffffffffffffffffffff1673ffffffffffffffffffffffffffffffffffffffff1663c94d10ad8360018551611b559190613756565b81518110611b6657611b6561378a565b5b60200260200101516040518263ffffffff1660e01b8152600401611b8a9190612ca5565b600060405180830381600087803b158015611ba457600080fd5b505af1158015611bb8573d6000803e3d6000fd5b50505050611c4f565b600660009054906101000a900473ffffffffffffffffffffffffffffffffffffffff1673ffffffffffffffffffffffffffffffffffffffff166332b3c846826040518263ffffffff1660e01b8152600401611c1c9190612ca5565b600060405180830381600087803b158015611c3657600080fd5b505af1158015611c4a573d6000803e3d6000fd5b505050505b505050565b6000600560008473ffffffffffffffffffffffffffffffffffffffff1673ffffffffffffffffffffffffffffffffffffffff16815260200190815260200160002060008373ffffffffffffffffffffffffffffffffffffffff1673ffffffffffffffffffffffffffffffffffffffff16815260200190815260200160002060009054906101000a900460ff16905092915050565b60007f01ffc9a7000000000000000000000000000000000000000000000000000000007bffffffffffffffffffffffffffffffffffffffffffffffffffffffff1916827bffffffffffffffffffffffffffffffffffffffffffffffffffffffff1916149050919050565b60008073ffffffffffffffffffffffffffffffffffffffff166002600084815260200190815260200160002060009054906101000a900473ffffffffffffffffffffffffffffffffffffffff1673ffffffffffffffffffffffffffffffffffffffff1614159050919050565b600033905090565b816004600083815260200190815260200160002060006101000a81548173ffffffffffffffffffffffffffffffffffffffff021916908373ffffffffffffffffffffffffffffffffffffffff160217905550808273ffffffffffffffffffffffffffffffffffffffff16611e3983610c02565b73ffffffffffffffffffffffffffffffffffffffff167f8c5be1e5ebec7d5bd14f71427d1e84f3dd0314c0f7b2291e5b200ac8c7c3b92560405160405180910390a45050565b611e90611e8a611dbe565b82612414565b611ecf576040517f08c379a0000000000000000000000000000000000000000000000000000000008152600401611ec690613fc0565b60405180910390fd5b611eda8383836124f2565b505050565b611efa8383836040518060200160405280600081525061189e565b505050565b600073ffffffffffffffffffffffffffffffffffffffff168273ffffffffffffffffffffffffffffffffffffffff161415611f6f576040517f08c379a0000000000000000000000000000000000000000000000000000000008152600401611f669061402c565b60405180910390fd5b611f7881611d52565b15611fb8576040517f08c379a0000000000000000000000000000000000000000000000000000000008152600401611faf90614098565b60405180910390fd5b611fc46000838361274e565b6001600360008473ffffffffffffffffffffffffffffffffffffffff1673ffffffffffffffffffffffffffffffffffffffff16815260200190815260200160002060008282546120149190613bf9565b92505081905550816002600083815260200190815260200160002060006101000a81548173ffffffffffffffffffffffffffffffffffffffff021916908373ffffffffffffffffffffffffffffffffffffffff160217905550808273ffffffffffffffffffffffffffffffffffffffff16600073ffffffffffffffffffffffffffffffffffffffff167fddf252ad1be2c89b69c2b068fc378daa952ba7f163c4a11628f55a4df523b3ef60405160405180910390a45050565b8173ffffffffffffffffffffffffffffffffffffffff168373ffffffffffffffffffffffffffffffffffffffff16141561213c576040517f08c379a000000000000000000000000000000000000000000000000000000000815260040161213390614104565b60405180910390fd5b80600560008573ffffffffffffffffffffffffffffffffffffffff1673ffffffffffffffffffffffffffffffffffffffff16815260200190815260200160002060008473ffffffffffffffffffffffffffffffffffffffff1673ffffffffffffffffffffffffffffffffffffffff16815260200190815260200160002060006101000a81548160ff0219169083151502179055508173ffffffffffffffffffffffffffffffffffffffff168373ffffffffffffffffffffffffffffffffffffffff167f17307eab39ab6107e8899845ad3d59bd9653f200f220920489ca2b5937696c318360405161222d9190612b2b565b60405180910390a3505050565b61224b612245611dbe565b83612414565b61228a576040517f08c379a000000000000000000000000000000000000000000000000000000000815260040161228190613fc0565b60405180910390fd5b61229684848484612753565b50505050565b606060405180602001604052806000815250905090565b606060008214156122fb576040518060400160405280600181526020017f3000000000000000000000000000000000000000000000000000000000000000815250905061240f565b600082905060005b6000821461232d57808061231690613cd3565b915050600a826123269190614153565b9150612303565b60008167ffffffffffffffff81111561234957612348612e64565b5b6040519080825280601f01601f19166020018201604052801561237b5781602001600182028036833780820191505090505b5090505b60008514612408576001826123949190613756565b9150600a856123a39190614184565b60306123af9190613bf9565b60f81b8183815181106123c5576123c461378a565b5b60200101907effffffffffffffffffffffffffffffffffffffffffffffffffffffffffffff1916908160001a905350600a856124019190614153565b945061237f565b8093505050505b919050565b600061241f82611d52565b61245e576040517f08c379a000000000000000000000000000000000000000000000000000000000815260040161245590614227565b60405180910390fd5b600061246983610c02565b90508073ffffffffffffffffffffffffffffffffffffffff168473ffffffffffffffffffffffffffffffffffffffff1614806124d857508373ffffffffffffffffffffffffffffffffffffffff166124c084610605565b73ffffffffffffffffffffffffffffffffffffffff16145b806124e957506124e88185611c54565b5b91505092915050565b8273ffffffffffffffffffffffffffffffffffffffff1661251282610c02565b73ffffffffffffffffffffffffffffffffffffffff1614612568576040517f08c379a000000000000000000000000000000000000000000000000000000000815260040161255f906142b9565b60405180910390fd5b600073ffffffffffffffffffffffffffffffffffffffff168273ffffffffffffffffffffffffffffffffffffffff1614156125d8576040517f08c379a00000000000000000000000000000000000000000000000000000000081526004016125cf9061434b565b60405180910390fd5b6125e383838361274e565b6125ee600082611dc6565b6001600360008573ffffffffffffffffffffffffffffffffffffffff1673ffffffffffffffffffffffffffffffffffffffff168152602001908152602001600020600082825461263e9190613756565b925050819055506001600360008473ffffffffffffffffffffffffffffffffffffffff1673ffffffffffffffffffffffffffffffffffffffff16815260200190815260200160002060008282546126959190613bf9565b92505081905550816002600083815260200190815260200160002060006101000a81548173ffffffffffffffffffffffffffffffffffffffff021916908373ffffffffffffffffffffffffffffffffffffffff160217905550808273ffffffffffffffffffffffffffffffffffffffff168473ffffffffffffffffffffffffffffffffffffffff167fddf252ad1be2c89b69c2b068fc378daa952ba7f163c4a11628f55a4df523b3ef60405160405180910390a4505050565b505050565b61275e8484846124f2565b61276a848484846127af565b6127a9576040517f08c379a00000000000000000000000000000000000000000000000000000000081526004016127a0906143dd565b60405180910390fd5b50505050565b60006127d08473ffffffffffffffffffffffffffffffffffffffff16612937565b1561292a578373ffffffffffffffffffffffffffffffffffffffff1663150b7a026127f9611dbe565b8786866040518563ffffffff1660e01b815260040161281b9493929190614452565b6020604051808303816000875af192505050801561285757506040513d601f19601f8201168201806040525081019061285491906144b3565b60015b6128da573d8060008114612887576040519150601f19603f3d011682016040523d82523d6000602084013e61288c565b606091505b506000815114156128d2576040517f08c379a00000000000000000000000000000000000000000000000000000000081526004016128c9906143dd565b60405180910390fd5b805181602001fd5b63150b7a0260e01b7bffffffffffffffffffffffffffffffffffffffffffffffffffffffff1916817bffffffffffffffffffffffffffffffffffffffffffffffffffffffff19161491505061292f565b600190505b949350505050565b600080823b905060008111915050919050565b8280548282559060005260206000209081019282156129c3579160200282015b828111156129c25782518260006101000a81548173ffffffffffffffffffffffffffffffffffffffff021916908373ffffffffffffffffffffffffffffffffffffffff1602179055509160200191906001019061296a565b5b5090506129d09190612a5a565b5090565b8280546129e0906133d9565b90600052602060002090601f016020900481019282612a025760008555612a49565b82601f10612a1b57805160ff1916838001178555612a49565b82800160010185558215612a49579182015b82811115612a48578251825591602001919060010190612a2d565b5b509050612a569190612a5a565b5090565b5b80821115612a73576000816000905550600101612a5b565b5090565b6000604051905090565b600080fd5b600080fd5b60007fffffffff0000000000000000000000000000000000000000000000000000000082169050919050565b612ac081612a8b565b8114612acb57600080fd5b50565b600081359050612add81612ab7565b92915050565b600060208284031215612af957612af8612a81565b5b6000612b0784828501612ace565b91505092915050565b60008115159050919050565b612b2581612b10565b82525050565b6000602082019050612b406000830184612b1c565b92915050565b600081519050919050565b600082825260208201905092915050565b60005b83811015612b80578082015181840152602081019050612b65565b83811115612b8f576000848401525b50505050565b6000601f19601f8301169050919050565b6000612bb182612b46565b612bbb8185612b51565b9350612bcb818560208601612b62565b612bd481612b95565b840191505092915050565b60006020820190508181036000830152612bf98184612ba6565b905092915050565b6000819050919050565b612c1481612c01565b8114612c1f57600080fd5b50565b600081359050612c3181612c0b565b92915050565b600060208284031215612c4d57612c4c612a81565b5b6000612c5b84828501612c22565b91505092915050565b600073ffffffffffffffffffffffffffffffffffffffff82169050919050565b6000612c8f82612c64565b9050919050565b612c9f81612c84565b82525050565b6000602082019050612cba6000830184612c96565b92915050565b612cc981612c84565b8114612cd457600080fd5b50565b600081359050612ce681612cc0565b92915050565b60008060408385031215612d0357612d02612a81565b5b6000612d1185828601612cd7565b9250506020612d2285828601612c22565b9150509250929050565b600080600060608486031215612d4557612d44612a81565b5b6000612d5386828701612cd7565b9350506020612d6486828701612cd7565b9250506040612d7586828701612c22565b9150509250925092565b600081519050919050565b600082825260208201905092915050565b6000819050602082019050919050565b612db481612c84565b82525050565b6000612dc68383612dab565b60208301905092915050565b6000602082019050919050565b6000612dea82612d7f565b612df48185612d8a565b9350612dff83612d9b565b8060005b83811015612e30578151612e178882612dba565b9750612e2283612dd2565b925050600181019050612e03565b5085935050505092915050565b60006020820190508181036000830152612e578184612ddf565b905092915050565b600080fd5b7f4e487b7100000000000000000000000000000000000000000000000000000000600052604160045260246000fd5b612e9c82612b95565b810181811067ffffffffffffffff82111715612ebb57612eba612e64565b5b80604052505050565b6000612ece612a77565b9050612eda8282612e93565b919050565b600067ffffffffffffffff821115612efa57612ef9612e64565b5b602082029050602081019050919050565b600080fd5b6000612f23612f1e84612edf565b612ec4565b90508083825260208201905060208402830185811115612f4657612f45612f0b565b5b835b81811015612f6f5780612f5b8882612cd7565b845260208401935050602081019050612f48565b5050509392505050565b600082601f830112612f8e57612f8d612e5f565b5b8135612f9e848260208601612f10565b91505092915050565b600080600060608486031215612fc057612fbf612a81565b5b6000612fce86828701612c22565b935050602084013567ffffffffffffffff811115612fef57612fee612a86565b5b612ffb86828701612f79565b925050604061300c86828701612cd7565b9150509250925092565b60006020828403121561302c5761302b612a81565b5b600061303a84828501612cd7565b91505092915050565b61304c81612c01565b82525050565b60006020820190506130676000830184613043565b92915050565b600080fd5b600067ffffffffffffffff82111561308d5761308c612e64565b5b61309682612b95565b9050602081019050919050565b82818337600083830152505050565b60006130c56130c084613072565b612ec4565b9050828152602081018484840111156130e1576130e061306d565b5b6130ec8482856130a3565b509392505050565b600082601f83011261310957613108612e5f565b5b81356131198482602086016130b2565b91505092915050565b60008060006060848603121561313b5761313a612a81565b5b600084013567ffffffffffffffff81111561315957613158612a86565b5b613165868287016130f4565b935050602061317686828701612cd7565b925050604061318786828701612cd7565b9150509250925092565b61319a81612b10565b81146131a557600080fd5b50565b6000813590506131b781613191565b92915050565b600080604083850312156131d4576131d3612a81565b5b60006131e285828601612cd7565b92505060206131f3858286016131a8565b9150509250929050565b60006020828403121561321357613212612a81565b5b600082013567ffffffffffffffff81111561323157613230612a86565b5b61323d848285016130f4565b91505092915050565b600067ffffffffffffffff82111561326157613260612e64565b5b61326a82612b95565b9050602081019050919050565b600061328a61328584613246565b612ec4565b9050828152602081018484840111156132a6576132a561306d565b5b6132b18482856130a3565b509392505050565b600082601f8301126132ce576132cd612e5f565b5b81356132de848260208601613277565b91505092915050565b6000806000806080858703121561330157613300612a81565b5b600061330f87828801612cd7565b945050602061332087828801612cd7565b935050604061333187828801612c22565b925050606085013567ffffffffffffffff81111561335257613351612a86565b5b61335e878288016132b9565b91505092959194509250565b6000806040838503121561338157613380612a81565b5b600061338f85828601612cd7565b92505060206133a085828601612cd7565b9150509250929050565b7f4e487b7100000000000000000000000000000000000000000000000000000000600052602260045260246000fd5b600060028204905060018216806133f157607f821691505b60208210811415613405576134046133aa565b5b50919050565b7f4552433732313a20617070726f76656420717565727920666f72206e6f6e657860008201527f697374656e7420746f6b656e0000000000000000000000000000000000000000602082015250565b6000613467602c83612b51565b91506134728261340b565b604082019050919050565b600060208201905081810360008301526134968161345a565b9050919050565b7f4552433732313a20617070726f76616c20746f2063757272656e74206f776e6560008201527f7200000000000000000000000000000000000000000000000000000000000000602082015250565b60006134f9602183612b51565b91506135048261349d565b604082019050919050565b60006020820190508181036000830152613528816134ec565b9050919050565b7f4552433732313a20617070726f76652063616c6c6572206973206e6f74206f7760008201527f6e6572206e6f7220617070726f76656420666f7220616c6c0000000000000000602082015250565b600061358b603883612b51565b91506135968261352f565b604082019050919050565b600060208201905081810360008301526135ba8161357e565b9050919050565b7f5472616e73666572206166746572206d696e742069732070726f68696269746560008201527f6400000000000000000000000000000000000000000000000000000000000000602082015250565b600061361d602183612b51565b9150613628826135c1565b604082019050919050565b6000602082019050818103600083015261364c81613610565b9050919050565b60008151905061366281613191565b92915050565b60006020828403121561367e5761367d612a81565b5b600061368c84828501613653565b91505092915050565b7f54686973206164647265737320646f6573206e6f74206861766520526563746f60008201527f72205065726d697373696f6e7300000000000000000000000000000000000000602082015250565b60006136f1602d83612b51565b91506136fc82613695565b604082019050919050565b60006020820190508181036000830152613720816136e4565b9050919050565b7f4e487b7100000000000000000000000000000000000000000000000000000000600052601160045260246000fd5b600061376182612c01565b915061376c83612c01565b92508282101561377f5761377e613727565b5b828203905092915050565b7f4e487b7100000000000000000000000000000000000000000000000000000000600052603260045260246000fd5b7f4552433732313a206f776e657220717565727920666f72206e6f6e657869737460008201527f656e7420746f6b656e0000000000000000000000000000000000000000000000602082015250565b6000613815602983612b51565b9150613820826137b9565b604082019050919050565b6000602082019050818103600083015261384481613808565b9050919050565b7f4552433732313a2062616c616e636520717565727920666f7220746865207a6560008201527f726f206164647265737300000000000000000000000000000000000000000000602082015250565b60006138a7602a83612b51565b91506138b28261384b565b604082019050919050565b600060208201905081810360008301526138d68161389a565b9050919050565b7f54686973206163636f756e7420646f6573206e6f74206861766520526563746f60008201527f72205065726d697373696f6e7300000000000000000000000000000000000000602082015250565b6000613939602d83612b51565b9150613944826138dd565b604082019050919050565b600060208201905081810360008301526139688161392c565b9050919050565b600081905092915050565b600061398582612b46565b61398f818561396f565b935061399f818560208601612b62565b80840191505092915050565b60006139b7828461397a565b915081905092915050565b7f54686973204465706172746d656e7420697320616c7265616479206578697374600082015250565b60006139f8602083612b51565b9150613a03826139c2565b602082019050919050565b60006020820190508181036000830152613a27816139eb565b9050919050565b7f54686973206465706172746d656e7441646472657373206973206e6f7420696e60008201527f204445504152544d454e545f524f4c4500000000000000000000000000000000602082015250565b6000613a8a603083612b51565b9150613a9582613a2e565b604082019050919050565b60006020820190508181036000830152613ab981613a7d565b9050919050565b50565b6000613ad060008361396f565b9150613adb82613ac0565b600082019050919050565b6000613af182613ac3565b9150819050919050565b7f4465706172746d656e74206e616d652063616e6e6f7420626520656d70747900600082015250565b6000613b31601f83612b51565b9150613b3c82613afb565b602082019050919050565b60006020820190508181036000830152613b6081613b24565b9050919050565b7f5468697320666163756c747941646472657373206973206e6f7420696e20464160008201527f43554c54595f524f4c4500000000000000000000000000000000000000000000602082015250565b6000613bc3602a83612b51565b9150613bce82613b67565b604082019050919050565b60006020820190508181036000830152613bf281613bb6565b9050919050565b6000613c0482612c01565b9150613c0f83612c01565b9250827fffffffffffffffffffffffffffffffffffffffffffffffffffffffffffffffff03821115613c4457613c43613727565b5b828201905092915050565b600081519050613c5e81612c0b565b92915050565b600060208284031215613c7a57613c79612a81565b5b6000613c8884828501613c4f565b91505092915050565b600081519050613ca081612cc0565b92915050565b600060208284031215613cbc57613cbb612a81565b5b6000613cca84828501613c91565b91505092915050565b6000613cde82612c01565b91507fffffffffffffffffffffffffffffffffffffffffffffffffffffffffffffffff821415613d1157613d10613727565b5b600182019050919050565b7f466163756c74792063616e6e6f7420666f756e64000000000000000000000000600082015250565b6000613d52601483612b51565b9150613d5d82613d1c565b602082019050919050565b60006020820190508181036000830152613d8181613d45565b9050919050565b6000613d9b613d9684612edf565b612ec4565b90508083825260208201905060208402830185811115613dbe57613dbd612f0b565b5b835b81811015613de75780613dd38882613c91565b845260208401935050602081019050613dc0565b5050509392505050565b600082601f830112613e0657613e05612e5f565b5b8151613e16848260208601613d88565b91505092915050565b600060208284031215613e3557613e34612a81565b5b600082015167ffffffffffffffff811115613e5357613e52612a86565b5b613e5f84828501613df1565b91505092915050565b6000604082019050613e7d6000830185613043565b8181036020830152613e8f8184612ddf565b90509392505050565b7f4552433732314d657461646174613a2055524920717565727920666f72206e6f60008201527f6e6578697374656e7420746f6b656e0000000000000000000000000000000000602082015250565b6000613ef4602f83612b51565b9150613eff82613e98565b604082019050919050565b60006020820190508181036000830152613f2381613ee7565b9050919050565b6000613f36828561397a565b9150613f42828461397a565b91508190509392505050565b7f4552433732313a207472616e736665722063616c6c6572206973206e6f74206f60008201527f776e6572206e6f7220617070726f766564000000000000000000000000000000602082015250565b6000613faa603183612b51565b9150613fb582613f4e565b604082019050919050565b60006020820190508181036000830152613fd981613f9d565b9050919050565b7f4552433732313a206d696e7420746f20746865207a65726f2061646472657373600082015250565b6000614016602083612b51565b915061402182613fe0565b602082019050919050565b6000602082019050818103600083015261404581614009565b9050919050565b7f4552433732313a20746f6b656e20616c7265616479206d696e74656400000000600082015250565b6000614082601c83612b51565b915061408d8261404c565b602082019050919050565b600060208201905081810360008301526140b181614075565b9050919050565b7f4552433732313a20617070726f766520746f2063616c6c657200000000000000600082015250565b60006140ee601983612b51565b91506140f9826140b8565b602082019050919050565b6000602082019050818103600083015261411d816140e1565b9050919050565b7f4e487b7100000000000000000000000000000000000000000000000000000000600052601260045260246000fd5b600061415e82612c01565b915061416983612c01565b92508261417957614178614124565b5b828204905092915050565b600061418f82612c01565b915061419a83612c01565b9250826141aa576141a9614124565b5b828206905092915050565b7f4552433732313a206f70657261746f7220717565727920666f72206e6f6e657860008201527f697374656e7420746f6b656e0000000000000000000000000000000000000000602082015250565b6000614211602c83612b51565b915061421c826141b5565b604082019050919050565b6000602082019050818103600083015261424081614204565b9050919050565b7f4552433732313a207472616e73666572206f6620746f6b656e2074686174206960008201527f73206e6f74206f776e0000000000000000000000000000000000000000000000602082015250565b60006142a3602983612b51565b91506142ae82614247565b604082019050919050565b600060208201905081810360008301526142d281614296565b9050919050565b7f4552433732313a207472616e7366657220746f20746865207a65726f2061646460008201527f7265737300000000000000000000000000000000000000000000000000000000602082015250565b6000614335602483612b51565b9150614340826142d9565b604082019050919050565b6000602082019050818103600083015261436481614328565b9050919050565b7f4552433732313a207472616e7366657220746f206e6f6e20455243373231526560008201527f63656976657220696d706c656d656e7465720000000000000000000000000000602082015250565b60006143c7603283612b51565b91506143d28261436b565b604082019050919050565b600060208201905081810360008301526143f6816143ba565b9050919050565b600081519050919050565b600082825260208201905092915050565b6000614424826143fd565b61442e8185614408565b935061443e818560208601612b62565b61444781612b95565b840191505092915050565b60006080820190506144676000830187612c96565b6144746020830186612c96565b6144816040830185613043565b81810360608301526144938184614419565b905095945050505050565b6000815190506144ad81612ab7565b92915050565b6000602082840312156144c9576144c8612a81565b5b60006144d78482850161449e565b9150509291505056fea26469706673582212202b95cdd2d9d236913e79ebb25eed779d3a7b13fbd3526138e4128ffc39f75ddd64736f6c634300080a0033",
  "immutableReferences": {},
  "source": "pragma solidity ^0.8.10;\r\n\r\nimport \"@openzeppelin/contracts/token/ERC721/ERC721.sol\";\r\nimport \"./Roles.sol\";\r\nimport \"./Faculty.sol\";\r\n\r\ncontract Department is ERC721{\r\n\r\n    address rolesContractAddress;\r\n    address facultyContractAddress;\r\n\r\n    uint256 _totalSupply = 0;\r\n    //mapping from tokenID to departmentName\r\n    mapping(uint256 => string) _departmentNameOfID;\r\n    //mapping from departmentName to tokenID\r\n    mapping(string => uint256) _IDOfDepartmentName;\r\n\r\n    //mapping from tokenID to its Faculty Address\r\n    mapping(uint256 => address) _faculty;\r\n    //mapping from tokenID to its Instructor Addresses\r\n    mapping(uint256 => address[]) _instructors;\r\n    //mapping from tokenID to its Student Addresses\r\n    mapping(uint256 => address[]) _students;\r\n\r\n    constructor(address _rolesContractAddress, address _facultyContractAddress) ERC721(\"Department\", \"DEP\"){\r\n        rolesContractAddress =_rolesContractAddress;\r\n        facultyContractAddress = _facultyContractAddress;\r\n    }\r\n\r\n    function mint(string memory _departmentName, address departmentAddress, address facultyAddress) public{\r\n        require(Roles(rolesContractAddress).hasRectorRole(msg.sender), \"This account does not have Rector Permissions\");\r\n        require(_IDOfDepartmentName[_departmentName] == 0, \"This Department is already exist\");\r\n        Roles(rolesContractAddress).grantDepartmentRole(departmentAddress);\r\n        require(Roles(rolesContractAddress).hasDepartmentRole(departmentAddress), \"This departmentAddress is not in DEPARTMENT_ROLE\");\r\n        require(keccak256(abi.encodePacked(_departmentName)) != keccak256(abi.encodePacked(\"\")), \"Department name cannot be empty\");\r\n        require(Roles(rolesContractAddress).hasFacultyRole(facultyAddress), \"This facultyAddress is not in FACULTY_ROLE\");\r\n        // Department - add\r\n        _totalSupply = _totalSupply + 1;\r\n        uint _id = _totalSupply; //tokenID's start from 1 because default uint256 value is 0\r\n        // Call the mint function of ERC721\r\n        _mint(departmentAddress, _id);\r\n        // Department - track it\r\n        _IDOfDepartmentName[_departmentName] = _id;\r\n        _departmentNameOfID[_id] = _departmentName;\r\n        _faculty[_id] = facultyAddress;\r\n        //Add to Faculty's Departments List\r\n        uint256 totalSupply = Faculty(facultyContractAddress).getTotalSupply();\r\n        uint256 facultyID = 0;\r\n        for(uint i = 1; i<=totalSupply; i++){\r\n            if(Faculty(facultyContractAddress).ownerOf(i) == facultyAddress){\r\n                facultyID = i;\r\n                break;\r\n            }\r\n        }\r\n        require(facultyID>0, \"Faculty cannot found\");\r\n        address[] memory departments = Faculty(facultyContractAddress).getDepartments(facultyID);\r\n        address[] memory newDepartments = new address[](departments.length+1);\r\n        for(uint i = 0; i<departments.length; i++){\r\n            newDepartments[i] = departments[i];\r\n        }\r\n        newDepartments[newDepartments.length-1] = departmentAddress;\r\n        Faculty(facultyContractAddress).setDepartments(facultyID,newDepartments);\r\n    }\r\n    function getDepartmentName(uint256 id) public view returns(string memory departmentName){\r\n        return _departmentNameOfID[id];\r\n    }\r\n    function getDepartmentID(string memory departmentName) public view returns(uint256 departmentID){\r\n        return _IDOfDepartmentName[departmentName];\r\n    }\r\n    function getTotalSupply() public view returns(uint256 totalSupply){\r\n        return _totalSupply;\r\n    }\r\n    function getFaculty(uint256 id) public view returns(address){\r\n        return _faculty[id];\r\n    }\r\n    function getInstructors(uint256 id) public view returns(address[] memory){\r\n        return _instructors[id];\r\n    }\r\n    function setInstructors(uint256 id, address[] memory instructors, address revoked) public{\r\n        require(Roles(rolesContractAddress).hasRectorRole(msg.sender), \"This address does not have Rector Permissions\");\r\n        _instructors[id] = instructors;\r\n        if(revoked == 0x0000000000000000000000000000000000000000){\r\n            Roles(rolesContractAddress).grantInstructorRole(instructors[instructors.length - 1]);\r\n        }else{\r\n            Roles(rolesContractAddress).revokeInstructorRole(revoked);\r\n        }\r\n    }\r\n    function getStudents(uint256 id) public view returns(address[] memory){\r\n        return _students[id];\r\n    }\r\n    function setStudents(uint256 id, address[] memory students, address revoked) public{\r\n        require(Roles(rolesContractAddress).hasRectorRole(msg.sender), \"This address does not have Rector Permissions\");\r\n        _students[id] = students;\r\n        if(revoked == 0x0000000000000000000000000000000000000000){\r\n            Roles(rolesContractAddress).grantStudentRole(students[students.length - 1]);\r\n        }else{\r\n            Roles(rolesContractAddress).revokeStudentRole(revoked);\r\n        }\r\n    }\r\n    function transferFrom(//Only callable when minted\r\n        address from,\r\n        address to,\r\n        uint256 tokenId\r\n    ) public virtual override {\r\n        require(msg.sender == 0x0000000000000000000000000000000000000000, \"Transfer after mint is prohibited\");\r\n        super.transferFrom(from,to,tokenId);\r\n    }\r\n    function safeTransferFrom(//Only callable when minted\r\n        address from,\r\n        address to,\r\n        uint256 tokenId\r\n    ) public virtual override {\r\n        require(msg.sender == 0x0000000000000000000000000000000000000000, \"Transfer after mint is prohibited\");\r\n        super.safeTransferFrom(from,to,tokenId);\r\n    }\r\n    function safeTransferFrom(//Only callable when minted\r\n        address from,\r\n        address to,\r\n        uint256 tokenId,\r\n        bytes memory _data\r\n    ) public virtual override {\r\n        require(msg.sender == 0x0000000000000000000000000000000000000000, \"Transfer after mint is prohibited\");\r\n        super.safeTransferFrom(from, to, tokenId, _data);\r\n    }\r\n}",
  "sourcePath": "C:\\Users\\asus\\Desktop\\Dersler\\CMPE492\\certification-project\\contracts\\Department.sol",
  "compiler": {
    "name": "solc",
    "version": "0.8.10+commit.fc410830.Emscripten.clang"
  },
  "schemaVersion": "3.4.4",
  "updatedAt": "2022-01-20T23:08:11.349Z",
  "devdoc": {
    "kind": "dev",
    "methods": {
      "approve(address,uint256)": {
        "details": "See {IERC721-approve}."
      },
      "balanceOf(address)": {
        "details": "See {IERC721-balanceOf}."
      },
      "getApproved(uint256)": {
        "details": "See {IERC721-getApproved}."
      },
      "isApprovedForAll(address,address)": {
        "details": "See {IERC721-isApprovedForAll}."
      },
      "name()": {
        "details": "See {IERC721Metadata-name}."
      },
      "ownerOf(uint256)": {
        "details": "See {IERC721-ownerOf}."
      },
      "safeTransferFrom(address,address,uint256)": {
        "details": "See {IERC721-safeTransferFrom}."
      },
      "safeTransferFrom(address,address,uint256,bytes)": {
        "details": "See {IERC721-safeTransferFrom}."
      },
      "setApprovalForAll(address,bool)": {
        "details": "See {IERC721-setApprovalForAll}."
      },
      "supportsInterface(bytes4)": {
        "details": "See {IERC165-supportsInterface}."
      },
      "symbol()": {
        "details": "See {IERC721Metadata-symbol}."
      },
      "tokenURI(uint256)": {
        "details": "See {IERC721Metadata-tokenURI}."
      },
      "transferFrom(address,address,uint256)": {
        "details": "See {IERC721-transferFrom}."
      }
    },
    "version": 1
  },
  "userdoc": {
    "kind": "user",
    "methods": {},
    "version": 1
  }
}