{
  "contractName": "Department",
  "abi": [
    {
      "inputs": [],
      "stateMutability": "nonpayable",
      "type": "constructor"
    },
    {
      "anonymous": false,
      "inputs": [
        {
          "indexed": true,
          "internalType": "address",
          "name": "owner",
          "type": "address"
        },
        {
          "indexed": true,
          "internalType": "address",
          "name": "approved",
          "type": "address"
        },
        {
          "indexed": true,
          "internalType": "uint256",
          "name": "tokenId",
          "type": "uint256"
        }
      ],
      "name": "Approval",
      "type": "event"
    },
    {
      "anonymous": false,
      "inputs": [
        {
          "indexed": true,
          "internalType": "address",
          "name": "owner",
          "type": "address"
        },
        {
          "indexed": true,
          "internalType": "address",
          "name": "operator",
          "type": "address"
        },
        {
          "indexed": false,
          "internalType": "bool",
          "name": "approved",
          "type": "bool"
        }
      ],
      "name": "ApprovalForAll",
      "type": "event"
    },
    {
      "anonymous": false,
      "inputs": [
        {
          "indexed": true,
          "internalType": "bytes32",
          "name": "role",
          "type": "bytes32"
        },
        {
          "indexed": true,
          "internalType": "bytes32",
          "name": "previousAdminRole",
          "type": "bytes32"
        },
        {
          "indexed": true,
          "internalType": "bytes32",
          "name": "newAdminRole",
          "type": "bytes32"
        }
      ],
      "name": "RoleAdminChanged",
      "type": "event"
    },
    {
      "anonymous": false,
      "inputs": [
        {
          "indexed": true,
          "internalType": "bytes32",
          "name": "role",
          "type": "bytes32"
        },
        {
          "indexed": true,
          "internalType": "address",
          "name": "account",
          "type": "address"
        },
        {
          "indexed": true,
          "internalType": "address",
          "name": "sender",
          "type": "address"
        }
      ],
      "name": "RoleGranted",
      "type": "event"
    },
    {
      "anonymous": false,
      "inputs": [
        {
          "indexed": true,
          "internalType": "bytes32",
          "name": "role",
          "type": "bytes32"
        },
        {
          "indexed": true,
          "internalType": "address",
          "name": "account",
          "type": "address"
        },
        {
          "indexed": true,
          "internalType": "address",
          "name": "sender",
          "type": "address"
        }
      ],
      "name": "RoleRevoked",
      "type": "event"
    },
    {
      "anonymous": false,
      "inputs": [
        {
          "indexed": true,
          "internalType": "address",
          "name": "from",
          "type": "address"
        },
        {
          "indexed": true,
          "internalType": "address",
          "name": "to",
          "type": "address"
        },
        {
          "indexed": true,
          "internalType": "uint256",
          "name": "tokenId",
          "type": "uint256"
        }
      ],
      "name": "Transfer",
      "type": "event"
    },
    {
      "anonymous": false,
      "inputs": [
        {
          "indexed": false,
          "internalType": "uint256",
          "name": "",
          "type": "uint256"
        }
      ],
      "name": "showUint",
      "type": "event"
    },
    {
      "inputs": [],
      "name": "DEFAULT_ADMIN_ROLE",
      "outputs": [
        {
          "internalType": "bytes32",
          "name": "",
          "type": "bytes32"
        }
      ],
      "stateMutability": "view",
      "type": "function",
      "constant": true
    },
    {
      "inputs": [],
      "name": "DEPARTMENT_ROLE",
      "outputs": [
        {
          "internalType": "bytes32",
          "name": "",
          "type": "bytes32"
        }
      ],
      "stateMutability": "view",
      "type": "function",
      "constant": true
    },
    {
      "inputs": [],
      "name": "FACULTY_ROLE",
      "outputs": [
        {
          "internalType": "bytes32",
          "name": "",
          "type": "bytes32"
        }
      ],
      "stateMutability": "view",
      "type": "function",
      "constant": true
    },
    {
      "inputs": [],
      "name": "GRADUATED_ROLE",
      "outputs": [
        {
          "internalType": "bytes32",
          "name": "",
          "type": "bytes32"
        }
      ],
      "stateMutability": "view",
      "type": "function",
      "constant": true
    },
    {
      "inputs": [],
      "name": "INSTRUCTOR_ROLE",
      "outputs": [
        {
          "internalType": "bytes32",
          "name": "",
          "type": "bytes32"
        }
      ],
      "stateMutability": "view",
      "type": "function",
      "constant": true
    },
    {
      "inputs": [],
      "name": "RECTOR_ROLE",
      "outputs": [
        {
          "internalType": "bytes32",
          "name": "",
          "type": "bytes32"
        }
      ],
      "stateMutability": "view",
      "type": "function",
      "constant": true
    },
    {
      "inputs": [],
      "name": "STUDENT_ROLE",
      "outputs": [
        {
          "internalType": "bytes32",
          "name": "",
          "type": "bytes32"
        }
      ],
      "stateMutability": "view",
      "type": "function",
      "constant": true
    },
    {
      "inputs": [
        {
          "internalType": "address",
          "name": "to",
          "type": "address"
        },
        {
          "internalType": "uint256",
          "name": "tokenId",
          "type": "uint256"
        }
      ],
      "name": "approve",
      "outputs": [],
      "stateMutability": "nonpayable",
      "type": "function"
    },
    {
      "inputs": [
        {
          "internalType": "address",
          "name": "owner",
          "type": "address"
        }
      ],
      "name": "balanceOf",
      "outputs": [
        {
          "internalType": "uint256",
          "name": "",
          "type": "uint256"
        }
      ],
      "stateMutability": "view",
      "type": "function",
      "constant": true
    },
    {
      "inputs": [
        {
          "internalType": "uint256",
          "name": "tokenId",
          "type": "uint256"
        }
      ],
      "name": "getApproved",
      "outputs": [
        {
          "internalType": "address",
          "name": "",
          "type": "address"
        }
      ],
      "stateMutability": "view",
      "type": "function",
      "constant": true
    },
    {
      "inputs": [
        {
          "internalType": "bytes32",
          "name": "role",
          "type": "bytes32"
        }
      ],
      "name": "getRoleAdmin",
      "outputs": [
        {
          "internalType": "bytes32",
          "name": "",
          "type": "bytes32"
        }
      ],
      "stateMutability": "view",
      "type": "function",
      "constant": true
    },
    {
      "inputs": [
        {
          "internalType": "bytes32",
          "name": "role",
          "type": "bytes32"
        },
        {
          "internalType": "uint256",
          "name": "index",
          "type": "uint256"
        }
      ],
      "name": "getRoleMember",
      "outputs": [
        {
          "internalType": "address",
          "name": "",
          "type": "address"
        }
      ],
      "stateMutability": "view",
      "type": "function",
      "constant": true
    },
    {
      "inputs": [
        {
          "internalType": "bytes32",
          "name": "role",
          "type": "bytes32"
        }
      ],
      "name": "getRoleMemberCount",
      "outputs": [
        {
          "internalType": "uint256",
          "name": "",
          "type": "uint256"
        }
      ],
      "stateMutability": "view",
      "type": "function",
      "constant": true
    },
    {
      "inputs": [
        {
          "internalType": "address",
          "name": "account",
          "type": "address"
        }
      ],
      "name": "grantDepartmentRole",
      "outputs": [],
      "stateMutability": "nonpayable",
      "type": "function"
    },
    {
      "inputs": [
        {
          "internalType": "address",
          "name": "account",
          "type": "address"
        }
      ],
      "name": "grantFacultyRole",
      "outputs": [],
      "stateMutability": "nonpayable",
      "type": "function"
    },
    {
      "inputs": [
        {
          "internalType": "address",
          "name": "account",
          "type": "address"
        }
      ],
      "name": "grantGraduatedRole",
      "outputs": [],
      "stateMutability": "nonpayable",
      "type": "function"
    },
    {
      "inputs": [
        {
          "internalType": "address",
          "name": "account",
          "type": "address"
        }
      ],
      "name": "grantInstructorRole",
      "outputs": [],
      "stateMutability": "nonpayable",
      "type": "function"
    },
    {
      "inputs": [
        {
          "internalType": "address",
          "name": "account",
          "type": "address"
        }
      ],
      "name": "grantRectorRole",
      "outputs": [],
      "stateMutability": "nonpayable",
      "type": "function"
    },
    {
      "inputs": [
        {
          "internalType": "bytes32",
          "name": "role",
          "type": "bytes32"
        },
        {
          "internalType": "address",
          "name": "account",
          "type": "address"
        }
      ],
      "name": "grantRole",
      "outputs": [],
      "stateMutability": "nonpayable",
      "type": "function"
    },
    {
      "inputs": [
        {
          "internalType": "address",
          "name": "account",
          "type": "address"
        }
      ],
      "name": "grantStudentRole",
      "outputs": [],
      "stateMutability": "nonpayable",
      "type": "function"
    },
    {
      "inputs": [
        {
          "internalType": "address",
          "name": "account",
          "type": "address"
        }
      ],
      "name": "hasDepartmentRole",
      "outputs": [
        {
          "internalType": "bool",
          "name": "",
          "type": "bool"
        }
      ],
      "stateMutability": "view",
      "type": "function",
      "constant": true
    },
    {
      "inputs": [
        {
          "internalType": "address",
          "name": "account",
          "type": "address"
        }
      ],
      "name": "hasFacultyRole",
      "outputs": [
        {
          "internalType": "bool",
          "name": "",
          "type": "bool"
        }
      ],
      "stateMutability": "view",
      "type": "function",
      "constant": true
    },
    {
      "inputs": [
        {
          "internalType": "address",
          "name": "account",
          "type": "address"
        }
      ],
      "name": "hasGraduatedRole",
      "outputs": [
        {
          "internalType": "bool",
          "name": "",
          "type": "bool"
        }
      ],
      "stateMutability": "view",
      "type": "function",
      "constant": true
    },
    {
      "inputs": [
        {
          "internalType": "address",
          "name": "account",
          "type": "address"
        }
      ],
      "name": "hasInstructorRole",
      "outputs": [
        {
          "internalType": "bool",
          "name": "",
          "type": "bool"
        }
      ],
      "stateMutability": "view",
      "type": "function",
      "constant": true
    },
    {
      "inputs": [
        {
          "internalType": "address",
          "name": "account",
          "type": "address"
        }
      ],
      "name": "hasRectorRole",
      "outputs": [
        {
          "internalType": "bool",
          "name": "",
          "type": "bool"
        }
      ],
      "stateMutability": "view",
      "type": "function",
      "constant": true
    },
    {
      "inputs": [
        {
          "internalType": "bytes32",
          "name": "role",
          "type": "bytes32"
        },
        {
          "internalType": "address",
          "name": "account",
          "type": "address"
        }
      ],
      "name": "hasRole",
      "outputs": [
        {
          "internalType": "bool",
          "name": "",
          "type": "bool"
        }
      ],
      "stateMutability": "view",
      "type": "function",
      "constant": true
    },
    {
      "inputs": [
        {
          "internalType": "address",
          "name": "account",
          "type": "address"
        }
      ],
      "name": "hasStudentRole",
      "outputs": [
        {
          "internalType": "bool",
          "name": "",
          "type": "bool"
        }
      ],
      "stateMutability": "view",
      "type": "function",
      "constant": true
    },
    {
      "inputs": [
        {
          "internalType": "address",
          "name": "owner",
          "type": "address"
        },
        {
          "internalType": "address",
          "name": "operator",
          "type": "address"
        }
      ],
      "name": "isApprovedForAll",
      "outputs": [
        {
          "internalType": "bool",
          "name": "",
          "type": "bool"
        }
      ],
      "stateMutability": "view",
      "type": "function",
      "constant": true
    },
    {
      "inputs": [],
      "name": "name",
      "outputs": [
        {
          "internalType": "string",
          "name": "",
          "type": "string"
        }
      ],
      "stateMutability": "view",
      "type": "function",
      "constant": true
    },
    {
      "inputs": [
        {
          "internalType": "uint256",
          "name": "tokenId",
          "type": "uint256"
        }
      ],
      "name": "ownerOf",
      "outputs": [
        {
          "internalType": "address",
          "name": "",
          "type": "address"
        }
      ],
      "stateMutability": "view",
      "type": "function",
      "constant": true
    },
    {
      "inputs": [
        {
          "internalType": "bytes32",
          "name": "role",
          "type": "bytes32"
        },
        {
          "internalType": "address",
          "name": "account",
          "type": "address"
        }
      ],
      "name": "renounceRole",
      "outputs": [],
      "stateMutability": "nonpayable",
      "type": "function"
    },
    {
      "inputs": [
        {
          "internalType": "address",
          "name": "account",
          "type": "address"
        }
      ],
      "name": "revokeDepartmentRole",
      "outputs": [],
      "stateMutability": "nonpayable",
      "type": "function"
    },
    {
      "inputs": [
        {
          "internalType": "address",
          "name": "account",
          "type": "address"
        }
      ],
      "name": "revokeFacultyRole",
      "outputs": [],
      "stateMutability": "nonpayable",
      "type": "function"
    },
    {
      "inputs": [
        {
          "internalType": "address",
          "name": "account",
          "type": "address"
        }
      ],
      "name": "revokeInstructorRole",
      "outputs": [],
      "stateMutability": "nonpayable",
      "type": "function"
    },
    {
      "inputs": [
        {
          "internalType": "bytes32",
          "name": "role",
          "type": "bytes32"
        },
        {
          "internalType": "address",
          "name": "account",
          "type": "address"
        }
      ],
      "name": "revokeRole",
      "outputs": [],
      "stateMutability": "nonpayable",
      "type": "function"
    },
    {
      "inputs": [
        {
          "internalType": "address",
          "name": "account",
          "type": "address"
        }
      ],
      "name": "revokeStudentRole",
      "outputs": [],
      "stateMutability": "nonpayable",
      "type": "function"
    },
    {
      "inputs": [
        {
          "internalType": "address",
          "name": "operator",
          "type": "address"
        },
        {
          "internalType": "bool",
          "name": "approved",
          "type": "bool"
        }
      ],
      "name": "setApprovalForAll",
      "outputs": [],
      "stateMutability": "nonpayable",
      "type": "function"
    },
    {
      "inputs": [],
      "name": "symbol",
      "outputs": [
        {
          "internalType": "string",
          "name": "",
          "type": "string"
        }
      ],
      "stateMutability": "view",
      "type": "function",
      "constant": true
    },
    {
      "inputs": [
        {
          "internalType": "uint256",
          "name": "tokenId",
          "type": "uint256"
        }
      ],
      "name": "tokenURI",
      "outputs": [
        {
          "internalType": "string",
          "name": "",
          "type": "string"
        }
      ],
      "stateMutability": "view",
      "type": "function",
      "constant": true
    },
    {
      "inputs": [
        {
          "internalType": "string",
          "name": "_departmentName",
          "type": "string"
        },
        {
          "internalType": "address",
          "name": "departmentAddress",
          "type": "address"
        }
      ],
      "name": "mint",
      "outputs": [],
      "stateMutability": "nonpayable",
      "type": "function"
    },
    {
      "inputs": [
        {
          "internalType": "string",
          "name": "_departmentName",
          "type": "string"
        }
      ],
      "name": "burn",
      "outputs": [],
      "stateMutability": "nonpayable",
      "type": "function"
    },
    {
      "inputs": [
        {
          "internalType": "uint256",
          "name": "id",
          "type": "uint256"
        }
      ],
      "name": "getDepartmentName",
      "outputs": [
        {
          "internalType": "string",
          "name": "departmentName",
          "type": "string"
        }
      ],
      "stateMutability": "view",
      "type": "function",
      "constant": true
    },
    {
      "inputs": [
        {
          "internalType": "string",
          "name": "departmentName",
          "type": "string"
        }
      ],
      "name": "getDepartmentID",
      "outputs": [],
      "stateMutability": "nonpayable",
      "type": "function"
    },
    {
      "inputs": [
        {
          "internalType": "address",
          "name": "from",
          "type": "address"
        },
        {
          "internalType": "address",
          "name": "to",
          "type": "address"
        },
        {
          "internalType": "uint256",
          "name": "tokenId",
          "type": "uint256"
        }
      ],
      "name": "transferFrom",
      "outputs": [],
      "stateMutability": "nonpayable",
      "type": "function"
    },
    {
      "inputs": [
        {
          "internalType": "address",
          "name": "from",
          "type": "address"
        },
        {
          "internalType": "address",
          "name": "to",
          "type": "address"
        },
        {
          "internalType": "uint256",
          "name": "tokenId",
          "type": "uint256"
        }
      ],
      "name": "safeTransferFrom",
      "outputs": [],
      "stateMutability": "nonpayable",
      "type": "function"
    },
    {
      "inputs": [
        {
          "internalType": "address",
          "name": "from",
          "type": "address"
        },
        {
          "internalType": "address",
          "name": "to",
          "type": "address"
        },
        {
          "internalType": "uint256",
          "name": "tokenId",
          "type": "uint256"
        },
        {
          "internalType": "bytes",
          "name": "_data",
          "type": "bytes"
        }
      ],
      "name": "safeTransferFrom",
      "outputs": [],
      "stateMutability": "nonpayable",
      "type": "function"
    },
    {
      "inputs": [
        {
          "internalType": "bytes4",
          "name": "interfaceId",
          "type": "bytes4"
        }
      ],
      "name": "supportsInterface",
      "outputs": [
        {
          "internalType": "bool",
          "name": "",
          "type": "bool"
        }
      ],
      "stateMutability": "view",
      "type": "function",
      "constant": true
    }
  ],
  "bytecode": "0x608060405260006008553480156200001657600080fd5b506040518060400160405280600a81526020017f4465706172746d656e74000000000000000000000000000000000000000000008152506040518060400160405280600381526020017f444550000000000000000000000000000000000000000000000000000000000081525081600090805190602001906200009b9291906200039c565b508060019080519060200190620000b49291906200039c565b505050620000cc6000801b336200010460201b60201c565b620000fe7f5f1d1e303f9c0a1801dd708bdc4239781d66c88ca6cb941c5769ba09b5c1b285336200010460201b60201c565b620004b1565b6200011682826200011a60201b60201c565b5050565b6200013182826200016260201b62001d4b1760201c565b6200015d81600760008581526020019081526020016000206200025460201b62001e2c1790919060201c565b505050565b6200017482826200028c60201b60201c565b620002505760016006600084815260200190815260200160002060000160008373ffffffffffffffffffffffffffffffffffffffff1673ffffffffffffffffffffffffffffffffffffffff16815260200190815260200160002060006101000a81548160ff021916908315150217905550620001f5620002f760201b60201c565b73ffffffffffffffffffffffffffffffffffffffff168173ffffffffffffffffffffffffffffffffffffffff16837f2f8788117e7eff1d82e926ec794901d17c78024a50270940304540a733656f0d60405160405180910390a45b5050565b600062000284836000018373ffffffffffffffffffffffffffffffffffffffff1660001b620002ff60201b60201c565b905092915050565b60006006600084815260200190815260200160002060000160008373ffffffffffffffffffffffffffffffffffffffff1673ffffffffffffffffffffffffffffffffffffffff16815260200190815260200160002060009054906101000a900460ff16905092915050565b600033905090565b60006200031383836200037960201b60201c565b6200036e57826000018290806001815401808255809150506001900390600052602060002001600090919091909150558260000180549050836001016000848152602001908152602001600020819055506001905062000373565b600090505b92915050565b600080836001016000848152602001908152602001600020541415905092915050565b828054620003aa906200047b565b90600052602060002090601f016020900481019282620003ce57600085556200041a565b82601f10620003e957805160ff19168380011785556200041a565b828001600101855582156200041a579182015b8281111562000419578251825591602001919060010190620003fc565b5b5090506200042991906200042d565b5090565b5b80821115620004485760008160009055506001016200042e565b5090565b7f4e487b7100000000000000000000000000000000000000000000000000000000600052602260045260246000fd5b600060028204905060018216806200049457607f821691505b60208210811415620004ab57620004aa6200044c565b5b50919050565b614ea980620004c16000396000f3fe608060405234801561001057600080fd5b50600436106102955760003560e01c806386f8e92c11610167578063b88d4fde116100ce578063dafa1d2d11610087578063dafa1d2d1461082a578063e17f6b2c14610846578063e78af7c514610876578063e985e9c5146108a6578063f7be43fb146108d6578063fc3ba6b4146108f457610295565b8063b88d4fde1461075a578063b944705114610776578063c87b56dd14610792578063c94d10ad146107c2578063ca15c873146107de578063d547741f1461080e57610295565b80639822a599116101205780639822a59914610698578063996dc022146106c8578063a217fddf146106e6578063a22cb46514610704578063ac88aa4b14610720578063ad7be93a1461073c57610295565b806386f8e92c146105c45780638bcf979c146105e05780638df6674a146105fe5780639010d07c1461061a57806391d148541461064a57806395d89b411461067a57610295565b80632f2ff15d1161020b5780635f1d514e116101c45780635f1d514e146104ca5780636352211e146104e65780636fe3ceb81461051657806370a08231146105345780637168c27d1461056457806384443dce1461059457610295565b80632f2ff15d1461042257806332b3c8461461043e57806336568abe1461045a57806342842e0e14610476578063529f790c146104925780635ea07b1c146104ae57610295565b806312fb59f21161025d57806312fb59f2146103505780631c351a9d1461036c57806323b872dd14610388578063248a9ca3146103a457806324d42a37146103d45780632be7dc44146103f257610295565b806301ffc9a71461029a5780630252dffc146102ca57806306fdde03146102e6578063081812fc14610304578063095ea7b314610334575b600080fd5b6102b460048036038101906102af9190613519565b610924565b6040516102c19190613561565b60405180910390f35b6102e460048036038101906102df91906135da565b610936565b005b6102ee610996565b6040516102fb91906136a0565b60405180910390f35b61031e600480360381019061031991906136f8565b610a28565b60405161032b9190613734565b60405180910390f35b61034e6004803603810190610349919061374f565b610aad565b005b61036a600480360381019061036591906135da565b610bc5565b005b610386600480360381019061038191906138c4565b610c25565b005b6103a2600480360381019061039d9190613920565b610e2e565b005b6103be60048036038101906103b991906139a9565b610ead565b6040516103cb91906139e5565b60405180910390f35b6103dc610ecd565b6040516103e991906139e5565b60405180910390f35b61040c600480360381019061040791906135da565b610ef1565b6040516104199190613561565b60405180910390f35b61043c60048036038101906104379190613a00565b610f24565b005b610458600480360381019061045391906135da565b610f4d565b005b610474600480360381019061046f9190613a00565b610fad565b005b610490600480360381019061048b9190613920565b611030565b005b6104ac60048036038101906104a791906135da565b6110af565b005b6104c860048036038101906104c391906135da565b61110f565b005b6104e460048036038101906104df91906135da565b611202565b005b61050060048036038101906104fb91906136f8565b611262565b60405161050d9190613734565b60405180910390f35b61051e611314565b60405161052b91906139e5565b60405180910390f35b61054e600480360381019061054991906135da565b611338565b60405161055b9190613a4f565b60405180910390f35b61057e600480360381019061057991906135da565b6113f0565b60405161058b9190613561565b60405180910390f35b6105ae60048036038101906105a991906136f8565b611423565b6040516105bb91906136a0565b60405180910390f35b6105de60048036038101906105d991906135da565b6114c8565b005b6105e8611528565b6040516105f591906139e5565b60405180910390f35b610618600480360381019061061391906135da565b61154c565b005b610634600480360381019061062f9190613a6a565b6115f0565b6040516106419190613734565b60405180910390f35b610664600480360381019061065f9190613a00565b61161f565b6040516106719190613561565b60405180910390f35b61068261168a565b60405161068f91906136a0565b60405180910390f35b6106b260048036038101906106ad91906135da565b61171c565b6040516106bf9190613561565b60405180910390f35b6106d061174f565b6040516106dd91906139e5565b60405180910390f35b6106ee611773565b6040516106fb91906139e5565b60405180910390f35b61071e60048036038101906107199190613ad6565b61177a565b005b61073a60048036038101906107359190613b16565b611790565b005b6107446117e8565b60405161075191906139e5565b60405180910390f35b610774600480360381019061076f9190613c00565b61180c565b005b610790600480360381019061078b91906135da565b61188d565b005b6107ac60048036038101906107a791906136f8565b6118ed565b6040516107b991906136a0565b60405180910390f35b6107dc60048036038101906107d791906135da565b611994565b005b6107f860048036038101906107f391906139a9565b6119f4565b6040516108059190613a4f565b60405180910390f35b61082860048036038101906108239190613a00565b611a18565b005b610844600480360381019061083f9190613b16565b611a41565b005b610860600480360381019061085b91906135da565b611bfa565b60405161086d9190613561565b60405180910390f35b610890600480360381019061088b91906135da565b611c2d565b60405161089d9190613561565b60405180910390f35b6108c060048036038101906108bb9190613c83565b611c60565b6040516108cd9190613561565b60405180910390f35b6108de611cf4565b6040516108eb91906139e5565b60405180910390f35b61090e600480360381019061090991906135da565b611d18565b60405161091b9190613561565b60405180910390f35b600061092f82611e5c565b9050919050565b7f5f1d1e303f9c0a1801dd708bdc4239781d66c88ca6cb941c5769ba09b5c1b28561096881610963611ed6565b611ede565b6109927fe7837d04f36ce0b2f3cc662bf1b2b632a7fbd12ae95199e8bd3dcfbcc440b66b83611a18565b5050565b6060600080546109a590613cf2565b80601f01602080910402602001604051908101604052809291908181526020018280546109d190613cf2565b8015610a1e5780601f106109f357610100808354040283529160200191610a1e565b820191906000526020600020905b815481529060010190602001808311610a0157829003601f168201915b5050505050905090565b6000610a3382611f7b565b610a72576040517f08c379a0000000000000000000000000000000000000000000000000000000008152600401610a6990613d96565b60405180910390fd5b6004600083815260200190815260200160002060009054906101000a900473ffffffffffffffffffffffffffffffffffffffff169050919050565b6000610ab882611262565b90508073ffffffffffffffffffffffffffffffffffffffff168373ffffffffffffffffffffffffffffffffffffffff161415610b29576040517f08c379a0000000000000000000000000000000000000000000000000000000008152600401610b2090613e28565b60405180910390fd5b8073ffffffffffffffffffffffffffffffffffffffff16610b48611ed6565b73ffffffffffffffffffffffffffffffffffffffff161480610b775750610b7681610b71611ed6565b611c60565b5b610bb6576040517f08c379a0000000000000000000000000000000000000000000000000000000008152600401610bad90613eba565b60405180910390fd5b610bc08383611fe7565b505050565b7f5f1d1e303f9c0a1801dd708bdc4239781d66c88ca6cb941c5769ba09b5c1b285610bf781610bf2611ed6565b611ede565b610c217fe7837d04f36ce0b2f3cc662bf1b2b632a7fbd12ae95199e8bd3dcfbcc440b66b83610f24565b5050565b7f5f1d1e303f9c0a1801dd708bdc4239781d66c88ca6cb941c5769ba09b5c1b285610c5781610c52611ed6565b611ede565b6000600a84604051610c699190613f16565b90815260200160405180910390205414610cb8576040517f08c379a0000000000000000000000000000000000000000000000000000000008152600401610caf90613f79565b60405180910390fd5b610cc182610bc5565b610ceb7fe7837d04f36ce0b2f3cc662bf1b2b632a7fbd12ae95199e8bd3dcfbcc440b66b8361161f565b610d2a576040517f08c379a0000000000000000000000000000000000000000000000000000000008152600401610d219061400b565b60405180910390fd5b604051602001610d3990614051565b6040516020818303038152906040528051906020012083604051602001610d609190613f16565b604051602081830303815290604052805190602001201415610db7576040517f08c379a0000000000000000000000000000000000000000000000000000000008152600401610dae906140b2565b60405180910390fd5b6001600854610dc69190614101565b60088190555060006008549050610ddd83826120a0565b80600a85604051610dee9190613f16565b90815260200160405180910390208190555083600960008381526020019081526020016000209080519060200190610e2792919061340a565b5050505050565b600073ffffffffffffffffffffffffffffffffffffffff163373ffffffffffffffffffffffffffffffffffffffff1614610e9d576040517f08c379a0000000000000000000000000000000000000000000000000000000008152600401610e94906141c9565b60405180910390fd5b610ea883838361226e565b505050565b600060066000838152602001908152602001600020600101549050919050565b7f5f1d1e303f9c0a1801dd708bdc4239781d66c88ca6cb941c5769ba09b5c1b28581565b6000610f1d7f5f1d1e303f9c0a1801dd708bdc4239781d66c88ca6cb941c5769ba09b5c1b2858361161f565b9050919050565b610f2d82610ead565b610f3e81610f39611ed6565b611ede565b610f4883836122ce565b505050565b7f5f1d1e303f9c0a1801dd708bdc4239781d66c88ca6cb941c5769ba09b5c1b285610f7f81610f7a611ed6565b611ede565b610fa97f36a5c4aaacb6b388bbd448bf11096b7dafc5652bcc9046084fd0e95b1fb0b2cc83611a18565b5050565b610fb5611ed6565b73ffffffffffffffffffffffffffffffffffffffff168173ffffffffffffffffffffffffffffffffffffffff1614611022576040517f08c379a00000000000000000000000000000000000000000000000000000000081526004016110199061425b565b60405180910390fd5b61102c8282612302565b5050565b600073ffffffffffffffffffffffffffffffffffffffff163373ffffffffffffffffffffffffffffffffffffffff161461109f576040517f08c379a0000000000000000000000000000000000000000000000000000000008152600401611096906141c9565b60405180910390fd5b6110aa838383612336565b505050565b7f5f1d1e303f9c0a1801dd708bdc4239781d66c88ca6cb941c5769ba09b5c1b2856110e1816110dc611ed6565b611ede565b61110b7ff3f9cfff7b46f415da5a492b1718971da203f87c6aae9299e7b408eb83ef8bee83610f24565b5050565b7f5f1d1e303f9c0a1801dd708bdc4239781d66c88ca6cb941c5769ba09b5c1b2856111418161113c611ed6565b611ede565b61116b7f36a5c4aaacb6b388bbd448bf11096b7dafc5652bcc9046084fd0e95b1fb0b2cc8361161f565b6111aa576040517f08c379a00000000000000000000000000000000000000000000000000000000081526004016111a1906142c7565b60405180910390fd5b6111d47f36a5c4aaacb6b388bbd448bf11096b7dafc5652bcc9046084fd0e95b1fb0b2cc83611a18565b6111fe7f4758f7d70d6088cbfad5c79861ac6457ba2af02adf5ea419e97879ae24459cb683610f24565b5050565b7f5f1d1e303f9c0a1801dd708bdc4239781d66c88ca6cb941c5769ba09b5c1b2856112348161122f611ed6565b611ede565b61125e7fae4a0595970935aa5495afbbb72e5f1f6ff1062766b4a3028c0c9b7d5cf7e34583610f24565b5050565b6000806002600084815260200190815260200160002060009054906101000a900473ffffffffffffffffffffffffffffffffffffffff169050600073ffffffffffffffffffffffffffffffffffffffff168173ffffffffffffffffffffffffffffffffffffffff16141561130b576040517f08c379a000000000000000000000000000000000000000000000000000000000815260040161130290614359565b60405180910390fd5b80915050919050565b7ff3f9cfff7b46f415da5a492b1718971da203f87c6aae9299e7b408eb83ef8bee81565b60008073ffffffffffffffffffffffffffffffffffffffff168273ffffffffffffffffffffffffffffffffffffffff1614156113a9576040517f08c379a00000000000000000000000000000000000000000000000000000000081526004016113a0906143eb565b60405180910390fd5b600360008373ffffffffffffffffffffffffffffffffffffffff1673ffffffffffffffffffffffffffffffffffffffff168152602001908152602001600020549050919050565b600061141c7f4758f7d70d6088cbfad5c79861ac6457ba2af02adf5ea419e97879ae24459cb68361161f565b9050919050565b606060096000838152602001908152602001600020805461144390613cf2565b80601f016020809104026020016040519081016040528092919081815260200182805461146f90613cf2565b80156114bc5780601f10611491576101008083540402835291602001916114bc565b820191906000526020600020905b81548152906001019060200180831161149f57829003601f168201915b50505050509050919050565b7f5f1d1e303f9c0a1801dd708bdc4239781d66c88ca6cb941c5769ba09b5c1b2856114fa816114f5611ed6565b611ede565b6115247fae4a0595970935aa5495afbbb72e5f1f6ff1062766b4a3028c0c9b7d5cf7e34583611a18565b5050565b7fae4a0595970935aa5495afbbb72e5f1f6ff1062766b4a3028c0c9b7d5cf7e34581565b7f5f1d1e303f9c0a1801dd708bdc4239781d66c88ca6cb941c5769ba09b5c1b28561157e81611579611ed6565b611ede565b6115a87f5f1d1e303f9c0a1801dd708bdc4239781d66c88ca6cb941c5769ba09b5c1b28583610f24565b6115b56000801b83610f24565b6115c26000801b33610fad565b6115ec7f5f1d1e303f9c0a1801dd708bdc4239781d66c88ca6cb941c5769ba09b5c1b28533610fad565b5050565b6000611617826007600086815260200190815260200160002061235690919063ffffffff16565b905092915050565b60006006600084815260200190815260200160002060000160008373ffffffffffffffffffffffffffffffffffffffff1673ffffffffffffffffffffffffffffffffffffffff16815260200190815260200160002060009054906101000a900460ff16905092915050565b60606001805461169990613cf2565b80601f01602080910402602001604051908101604052809291908181526020018280546116c590613cf2565b80156117125780601f106116e757610100808354040283529160200191611712565b820191906000526020600020905b8154815290600101906020018083116116f557829003601f168201915b5050505050905090565b60006117487fae4a0595970935aa5495afbbb72e5f1f6ff1062766b4a3028c0c9b7d5cf7e3458361161f565b9050919050565b7fe7837d04f36ce0b2f3cc662bf1b2b632a7fbd12ae95199e8bd3dcfbcc440b66b81565b6000801b81565b61178c611785611ed6565b8383612370565b5050565b7f790d0346f1ef8fe924b777511b00450bc606713b77bd7328f0ef750745cfa9dd600a826040516117c19190613f16565b9081526020016040518091039020546040516117dd9190613a4f565b60405180910390a150565b7f4758f7d70d6088cbfad5c79861ac6457ba2af02adf5ea419e97879ae24459cb681565b600073ffffffffffffffffffffffffffffffffffffffff163373ffffffffffffffffffffffffffffffffffffffff161461187b576040517f08c379a0000000000000000000000000000000000000000000000000000000008152600401611872906141c9565b60405180910390fd5b611887848484846124dd565b50505050565b7f5f1d1e303f9c0a1801dd708bdc4239781d66c88ca6cb941c5769ba09b5c1b2856118bf816118ba611ed6565b611ede565b6118e97ff3f9cfff7b46f415da5a492b1718971da203f87c6aae9299e7b408eb83ef8bee83611a18565b5050565b60606118f882611f7b565b611937576040517f08c379a000000000000000000000000000000000000000000000000000000000815260040161192e9061447d565b60405180910390fd5b600061194161253f565b90506000815111611961576040518060200160405280600081525061198c565b8061196b84612556565b60405160200161197c92919061449d565b6040516020818303038152906040525b915050919050565b7f5f1d1e303f9c0a1801dd708bdc4239781d66c88ca6cb941c5769ba09b5c1b2856119c6816119c1611ed6565b611ede565b6119f07f36a5c4aaacb6b388bbd448bf11096b7dafc5652bcc9046084fd0e95b1fb0b2cc83610f24565b5050565b6000611a11600760008481526020019081526020016000206126b7565b9050919050565b611a2182610ead565b611a3281611a2d611ed6565b611ede565b611a3c8383612302565b505050565b7f5f1d1e303f9c0a1801dd708bdc4239781d66c88ca6cb941c5769ba09b5c1b285611a7381611a6e611ed6565b611ede565b6000600a83604051611a859190613f16565b90815260200160405180910390205490506000811415611ada576040517f08c379a0000000000000000000000000000000000000000000000000000000008152600401611ad19061450d565b60405180910390fd5b82604051602001611aeb9190613f16565b6040516020818303038152906040528051906020012060096000838152602001908152602001600020604051602001611b2491906145c1565b6040516020818303038152906040528051906020012014611b7a576040517f08c379a0000000000000000000000000000000000000000000000000000000008152600401611b7190614624565b60405180910390fd5b6000611b8582611262565b9050611b9081610936565b611b99826126cc565b60405180602001604052806000815250600960008481526020019081526020016000209080519060200190611bcf92919061340a565b506000600a85604051611be29190613f16565b90815260200160405180910390208190555050505050565b6000611c267fe7837d04f36ce0b2f3cc662bf1b2b632a7fbd12ae95199e8bd3dcfbcc440b66b8361161f565b9050919050565b6000611c597ff3f9cfff7b46f415da5a492b1718971da203f87c6aae9299e7b408eb83ef8bee8361161f565b9050919050565b6000600560008473ffffffffffffffffffffffffffffffffffffffff1673ffffffffffffffffffffffffffffffffffffffff16815260200190815260200160002060008373ffffffffffffffffffffffffffffffffffffffff1673ffffffffffffffffffffffffffffffffffffffff16815260200190815260200160002060009054906101000a900460ff16905092915050565b7f36a5c4aaacb6b388bbd448bf11096b7dafc5652bcc9046084fd0e95b1fb0b2cc81565b6000611d447f36a5c4aaacb6b388bbd448bf11096b7dafc5652bcc9046084fd0e95b1fb0b2cc8361161f565b9050919050565b611d55828261161f565b611e285760016006600084815260200190815260200160002060000160008373ffffffffffffffffffffffffffffffffffffffff1673ffffffffffffffffffffffffffffffffffffffff16815260200190815260200160002060006101000a81548160ff021916908315150217905550611dcd611ed6565b73ffffffffffffffffffffffffffffffffffffffff168173ffffffffffffffffffffffffffffffffffffffff16837f2f8788117e7eff1d82e926ec794901d17c78024a50270940304540a733656f0d60405160405180910390a45b5050565b6000611e54836000018373ffffffffffffffffffffffffffffffffffffffff1660001b6127dd565b905092915050565b60007f5a05180f000000000000000000000000000000000000000000000000000000007bffffffffffffffffffffffffffffffffffffffffffffffffffffffff1916827bffffffffffffffffffffffffffffffffffffffffffffffffffffffff19161480611ecf5750611ece8261284d565b5b9050919050565b600033905090565b611ee8828261161f565b611f7757611f0d8173ffffffffffffffffffffffffffffffffffffffff1660146128c7565b611f1b8360001c60206128c7565b604051602001611f2c9291906146dc565b6040516020818303038152906040526040517f08c379a0000000000000000000000000000000000000000000000000000000008152600401611f6e91906136a0565b60405180910390fd5b5050565b60008073ffffffffffffffffffffffffffffffffffffffff166002600084815260200190815260200160002060009054906101000a900473ffffffffffffffffffffffffffffffffffffffff1673ffffffffffffffffffffffffffffffffffffffff1614159050919050565b816004600083815260200190815260200160002060006101000a81548173ffffffffffffffffffffffffffffffffffffffff021916908373ffffffffffffffffffffffffffffffffffffffff160217905550808273ffffffffffffffffffffffffffffffffffffffff1661205a83611262565b73ffffffffffffffffffffffffffffffffffffffff167f8c5be1e5ebec7d5bd14f71427d1e84f3dd0314c0f7b2291e5b200ac8c7c3b92560405160405180910390a45050565b600073ffffffffffffffffffffffffffffffffffffffff168273ffffffffffffffffffffffffffffffffffffffff161415612110576040517f08c379a000000000000000000000000000000000000000000000000000000000815260040161210790614762565b60405180910390fd5b61211981611f7b565b15612159576040517f08c379a0000000000000000000000000000000000000000000000000000000008152600401612150906147ce565b60405180910390fd5b61216560008383612b03565b6001600360008473ffffffffffffffffffffffffffffffffffffffff1673ffffffffffffffffffffffffffffffffffffffff16815260200190815260200160002060008282546121b59190614101565b92505081905550816002600083815260200190815260200160002060006101000a81548173ffffffffffffffffffffffffffffffffffffffff021916908373ffffffffffffffffffffffffffffffffffffffff160217905550808273ffffffffffffffffffffffffffffffffffffffff16600073ffffffffffffffffffffffffffffffffffffffff167fddf252ad1be2c89b69c2b068fc378daa952ba7f163c4a11628f55a4df523b3ef60405160405180910390a45050565b61227f612279611ed6565b82612b08565b6122be576040517f08c379a00000000000000000000000000000000000000000000000000000000081526004016122b590614860565b60405180910390fd5b6122c9838383612be6565b505050565b6122d88282611d4b565b6122fd8160076000858152602001908152602001600020611e2c90919063ffffffff16565b505050565b61230c8282612e42565b6123318160076000858152602001908152602001600020612f2490919063ffffffff16565b505050565b6123518383836040518060200160405280600081525061180c565b505050565b60006123658360000183612f54565b60001c905092915050565b8173ffffffffffffffffffffffffffffffffffffffff168373ffffffffffffffffffffffffffffffffffffffff1614156123df576040517f08c379a00000000000000000000000000000000000000000000000000000000081526004016123d6906148cc565b60405180910390fd5b80600560008573ffffffffffffffffffffffffffffffffffffffff1673ffffffffffffffffffffffffffffffffffffffff16815260200190815260200160002060008473ffffffffffffffffffffffffffffffffffffffff1673ffffffffffffffffffffffffffffffffffffffff16815260200190815260200160002060006101000a81548160ff0219169083151502179055508173ffffffffffffffffffffffffffffffffffffffff168373ffffffffffffffffffffffffffffffffffffffff167f17307eab39ab6107e8899845ad3d59bd9653f200f220920489ca2b5937696c31836040516124d09190613561565b60405180910390a3505050565b6124ee6124e8611ed6565b83612b08565b61252d576040517f08c379a000000000000000000000000000000000000000000000000000000000815260040161252490614860565b60405180910390fd5b61253984848484612f7f565b50505050565b606060405180602001604052806000815250905090565b6060600082141561259e576040518060400160405280600181526020017f300000000000000000000000000000000000000000000000000000000000000081525090506126b2565b600082905060005b600082146125d05780806125b9906148ec565b915050600a826125c99190614964565b91506125a6565b60008167ffffffffffffffff8111156125ec576125eb613799565b5b6040519080825280601f01601f19166020018201604052801561261e5781602001600182028036833780820191505090505b5090505b600085146126ab576001826126379190614995565b9150600a8561264691906149c9565b60306126529190614101565b60f81b818381518110612668576126676149fa565b5b60200101907effffffffffffffffffffffffffffffffffffffffffffffffffffffffffffff1916908160001a905350600a856126a49190614964565b9450612622565b8093505050505b919050565b60006126c582600001612fdb565b9050919050565b60006126d782611262565b90506126e581600084612b03565b6126f0600083611fe7565b6001600360008373ffffffffffffffffffffffffffffffffffffffff1673ffffffffffffffffffffffffffffffffffffffff16815260200190815260200160002060008282546127409190614995565b925050819055506002600083815260200190815260200160002060006101000a81549073ffffffffffffffffffffffffffffffffffffffff021916905581600073ffffffffffffffffffffffffffffffffffffffff168273ffffffffffffffffffffffffffffffffffffffff167fddf252ad1be2c89b69c2b068fc378daa952ba7f163c4a11628f55a4df523b3ef60405160405180910390a45050565b60006127e98383612fec565b612842578260000182908060018154018082558091505060019003906000526020600020016000909190919091505582600001805490508360010160008481526020019081526020016000208190555060019050612847565b600090505b92915050565b60007f7965db0b000000000000000000000000000000000000000000000000000000007bffffffffffffffffffffffffffffffffffffffffffffffffffffffff1916827bffffffffffffffffffffffffffffffffffffffffffffffffffffffff191614806128c057506128bf8261300f565b5b9050919050565b6060600060028360026128da9190614a29565b6128e49190614101565b67ffffffffffffffff8111156128fd576128fc613799565b5b6040519080825280601f01601f19166020018201604052801561292f5781602001600182028036833780820191505090505b5090507f300000000000000000000000000000000000000000000000000000000000000081600081518110612967576129666149fa565b5b60200101907effffffffffffffffffffffffffffffffffffffffffffffffffffffffffffff1916908160001a9053507f7800000000000000000000000000000000000000000000000000000000000000816001815181106129cb576129ca6149fa565b5b60200101907effffffffffffffffffffffffffffffffffffffffffffffffffffffffffffff1916908160001a90535060006001846002612a0b9190614a29565b612a159190614101565b90505b6001811115612ab5577f3031323334353637383961626364656600000000000000000000000000000000600f861660108110612a5757612a566149fa565b5b1a60f81b828281518110612a6e57612a6d6149fa565b5b60200101907effffffffffffffffffffffffffffffffffffffffffffffffffffffffffffff1916908160001a905350600485901c945080612aae90614a83565b9050612a18565b5060008414612af9576040517f08c379a0000000000000000000000000000000000000000000000000000000008152600401612af090614af9565b60405180910390fd5b8091505092915050565b505050565b6000612b1382611f7b565b612b52576040517f08c379a0000000000000000000000000000000000000000000000000000000008152600401612b4990614b8b565b60405180910390fd5b6000612b5d83611262565b90508073ffffffffffffffffffffffffffffffffffffffff168473ffffffffffffffffffffffffffffffffffffffff161480612bcc57508373ffffffffffffffffffffffffffffffffffffffff16612bb484610a28565b73ffffffffffffffffffffffffffffffffffffffff16145b80612bdd5750612bdc8185611c60565b5b91505092915050565b8273ffffffffffffffffffffffffffffffffffffffff16612c0682611262565b73ffffffffffffffffffffffffffffffffffffffff1614612c5c576040517f08c379a0000000000000000000000000000000000000000000000000000000008152600401612c5390614c1d565b60405180910390fd5b600073ffffffffffffffffffffffffffffffffffffffff168273ffffffffffffffffffffffffffffffffffffffff161415612ccc576040517f08c379a0000000000000000000000000000000000000000000000000000000008152600401612cc390614caf565b60405180910390fd5b612cd7838383612b03565b612ce2600082611fe7565b6001600360008573ffffffffffffffffffffffffffffffffffffffff1673ffffffffffffffffffffffffffffffffffffffff1681526020019081526020016000206000828254612d329190614995565b925050819055506001600360008473ffffffffffffffffffffffffffffffffffffffff1673ffffffffffffffffffffffffffffffffffffffff1681526020019081526020016000206000828254612d899190614101565b92505081905550816002600083815260200190815260200160002060006101000a81548173ffffffffffffffffffffffffffffffffffffffff021916908373ffffffffffffffffffffffffffffffffffffffff160217905550808273ffffffffffffffffffffffffffffffffffffffff168473ffffffffffffffffffffffffffffffffffffffff167fddf252ad1be2c89b69c2b068fc378daa952ba7f163c4a11628f55a4df523b3ef60405160405180910390a4505050565b612e4c828261161f565b15612f205760006006600084815260200190815260200160002060000160008373ffffffffffffffffffffffffffffffffffffffff1673ffffffffffffffffffffffffffffffffffffffff16815260200190815260200160002060006101000a81548160ff021916908315150217905550612ec5611ed6565b73ffffffffffffffffffffffffffffffffffffffff168173ffffffffffffffffffffffffffffffffffffffff16837ff6391f5c32d9c69d2a47ea670b442974b53935d1edc7fd64eb21e047a839171b60405160405180910390a45b5050565b6000612f4c836000018373ffffffffffffffffffffffffffffffffffffffff1660001b6130f1565b905092915050565b6000826000018281548110612f6c57612f6b6149fa565b5b9060005260206000200154905092915050565b612f8a848484612be6565b612f9684848484613205565b612fd5576040517f08c379a0000000000000000000000000000000000000000000000000000000008152600401612fcc90614d41565b60405180910390fd5b50505050565b600081600001805490509050919050565b600080836001016000848152602001908152602001600020541415905092915050565b60007f80ac58cd000000000000000000000000000000000000000000000000000000007bffffffffffffffffffffffffffffffffffffffffffffffffffffffff1916827bffffffffffffffffffffffffffffffffffffffffffffffffffffffff191614806130da57507f5b5e139f000000000000000000000000000000000000000000000000000000007bffffffffffffffffffffffffffffffffffffffffffffffffffffffff1916827bffffffffffffffffffffffffffffffffffffffffffffffffffffffff1916145b806130ea57506130e98261338d565b5b9050919050565b600080836001016000848152602001908152602001600020549050600081146131f95760006001826131239190614995565b905060006001866000018054905061313b9190614995565b90508181146131aa57600086600001828154811061315c5761315b6149fa565b5b90600052602060002001549050808760000184815481106131805761317f6149fa565b5b90600052602060002001819055508387600101600083815260200190815260200160002081905550505b856000018054806131be576131bd614d61565b5b6001900381819060005260206000200160009055905585600101600086815260200190815260200160002060009055600193505050506131ff565b60009150505b92915050565b60006132268473ffffffffffffffffffffffffffffffffffffffff166133f7565b15613380578373ffffffffffffffffffffffffffffffffffffffff1663150b7a0261324f611ed6565b8786866040518563ffffffff1660e01b81526004016132719493929190614de5565b6020604051808303816000875af19250505080156132ad57506040513d601f19601f820116820180604052508101906132aa9190614e46565b60015b613330573d80600081146132dd576040519150601f19603f3d011682016040523d82523d6000602084013e6132e2565b606091505b50600081511415613328576040517f08c379a000000000000000000000000000000000000000000000000000000000815260040161331f90614d41565b60405180910390fd5b805181602001fd5b63150b7a0260e01b7bffffffffffffffffffffffffffffffffffffffffffffffffffffffff1916817bffffffffffffffffffffffffffffffffffffffffffffffffffffffff191614915050613385565b600190505b949350505050565b60007f01ffc9a7000000000000000000000000000000000000000000000000000000007bffffffffffffffffffffffffffffffffffffffffffffffffffffffff1916827bffffffffffffffffffffffffffffffffffffffffffffffffffffffff1916149050919050565b600080823b905060008111915050919050565b82805461341690613cf2565b90600052602060002090601f016020900481019282613438576000855561347f565b82601f1061345157805160ff191683800117855561347f565b8280016001018555821561347f579182015b8281111561347e578251825591602001919060010190613463565b5b50905061348c9190613490565b5090565b5b808211156134a9576000816000905550600101613491565b5090565b6000604051905090565b600080fd5b600080fd5b60007fffffffff0000000000000000000000000000000000000000000000000000000082169050919050565b6134f6816134c1565b811461350157600080fd5b50565b600081359050613513816134ed565b92915050565b60006020828403121561352f5761352e6134b7565b5b600061353d84828501613504565b91505092915050565b60008115159050919050565b61355b81613546565b82525050565b60006020820190506135766000830184613552565b92915050565b600073ffffffffffffffffffffffffffffffffffffffff82169050919050565b60006135a78261357c565b9050919050565b6135b78161359c565b81146135c257600080fd5b50565b6000813590506135d4816135ae565b92915050565b6000602082840312156135f0576135ef6134b7565b5b60006135fe848285016135c5565b91505092915050565b600081519050919050565b600082825260208201905092915050565b60005b83811015613641578082015181840152602081019050613626565b83811115613650576000848401525b50505050565b6000601f19601f8301169050919050565b600061367282613607565b61367c8185613612565b935061368c818560208601613623565b61369581613656565b840191505092915050565b600060208201905081810360008301526136ba8184613667565b905092915050565b6000819050919050565b6136d5816136c2565b81146136e057600080fd5b50565b6000813590506136f2816136cc565b92915050565b60006020828403121561370e5761370d6134b7565b5b600061371c848285016136e3565b91505092915050565b61372e8161359c565b82525050565b60006020820190506137496000830184613725565b92915050565b60008060408385031215613766576137656134b7565b5b6000613774858286016135c5565b9250506020613785858286016136e3565b9150509250929050565b600080fd5b600080fd5b7f4e487b7100000000000000000000000000000000000000000000000000000000600052604160045260246000fd5b6137d182613656565b810181811067ffffffffffffffff821117156137f0576137ef613799565b5b80604052505050565b60006138036134ad565b905061380f82826137c8565b919050565b600067ffffffffffffffff82111561382f5761382e613799565b5b61383882613656565b9050602081019050919050565b82818337600083830152505050565b600061386761386284613814565b6137f9565b90508281526020810184848401111561388357613882613794565b5b61388e848285613845565b509392505050565b600082601f8301126138ab576138aa61378f565b5b81356138bb848260208601613854565b91505092915050565b600080604083850312156138db576138da6134b7565b5b600083013567ffffffffffffffff8111156138f9576138f86134bc565b5b61390585828601613896565b9250506020613916858286016135c5565b9150509250929050565b600080600060608486031215613939576139386134b7565b5b6000613947868287016135c5565b9350506020613958868287016135c5565b9250506040613969868287016136e3565b9150509250925092565b6000819050919050565b61398681613973565b811461399157600080fd5b50565b6000813590506139a38161397d565b92915050565b6000602082840312156139bf576139be6134b7565b5b60006139cd84828501613994565b91505092915050565b6139df81613973565b82525050565b60006020820190506139fa60008301846139d6565b92915050565b60008060408385031215613a1757613a166134b7565b5b6000613a2585828601613994565b9250506020613a36858286016135c5565b9150509250929050565b613a49816136c2565b82525050565b6000602082019050613a646000830184613a40565b92915050565b60008060408385031215613a8157613a806134b7565b5b6000613a8f85828601613994565b9250506020613aa0858286016136e3565b9150509250929050565b613ab381613546565b8114613abe57600080fd5b50565b600081359050613ad081613aaa565b92915050565b60008060408385031215613aed57613aec6134b7565b5b6000613afb858286016135c5565b9250506020613b0c85828601613ac1565b9150509250929050565b600060208284031215613b2c57613b2b6134b7565b5b600082013567ffffffffffffffff811115613b4a57613b496134bc565b5b613b5684828501613896565b91505092915050565b600067ffffffffffffffff821115613b7a57613b79613799565b5b613b8382613656565b9050602081019050919050565b6000613ba3613b9e84613b5f565b6137f9565b905082815260208101848484011115613bbf57613bbe613794565b5b613bca848285613845565b509392505050565b600082601f830112613be757613be661378f565b5b8135613bf7848260208601613b90565b91505092915050565b60008060008060808587031215613c1a57613c196134b7565b5b6000613c28878288016135c5565b9450506020613c39878288016135c5565b9350506040613c4a878288016136e3565b925050606085013567ffffffffffffffff811115613c6b57613c6a6134bc565b5b613c7787828801613bd2565b91505092959194509250565b60008060408385031215613c9a57613c996134b7565b5b6000613ca8858286016135c5565b9250506020613cb9858286016135c5565b9150509250929050565b7f4e487b7100000000000000000000000000000000000000000000000000000000600052602260045260246000fd5b60006002820490506001821680613d0a57607f821691505b60208210811415613d1e57613d1d613cc3565b5b50919050565b7f4552433732313a20617070726f76656420717565727920666f72206e6f6e657860008201527f697374656e7420746f6b656e0000000000000000000000000000000000000000602082015250565b6000613d80602c83613612565b9150613d8b82613d24565b604082019050919050565b60006020820190508181036000830152613daf81613d73565b9050919050565b7f4552433732313a20617070726f76616c20746f2063757272656e74206f776e6560008201527f7200000000000000000000000000000000000000000000000000000000000000602082015250565b6000613e12602183613612565b9150613e1d82613db6565b604082019050919050565b60006020820190508181036000830152613e4181613e05565b9050919050565b7f4552433732313a20617070726f76652063616c6c6572206973206e6f74206f7760008201527f6e6572206e6f7220617070726f76656420666f7220616c6c0000000000000000602082015250565b6000613ea4603883613612565b9150613eaf82613e48565b604082019050919050565b60006020820190508181036000830152613ed381613e97565b9050919050565b600081905092915050565b6000613ef082613607565b613efa8185613eda565b9350613f0a818560208601613623565b80840191505092915050565b6000613f228284613ee5565b915081905092915050565b7f54686973204465706172746d656e7420697320616c7265616479206578697374600082015250565b6000613f63602083613612565b9150613f6e82613f2d565b602082019050919050565b60006020820190508181036000830152613f9281613f56565b9050919050565b7f546869732061646472657373206973206e6f7420696e204445504152544d454e60008201527f545f524f4c450000000000000000000000000000000000000000000000000000602082015250565b6000613ff5602683613612565b915061400082613f99565b604082019050919050565b6000602082019050818103600083015261402481613fe8565b9050919050565b50565b600061403b600083613eda565b91506140468261402b565b600082019050919050565b600061405c8261402e565b9150819050919050565b7f4465706172746d656e74206e616d652063616e6e6f7420626520656d70747900600082015250565b600061409c601f83613612565b91506140a782614066565b602082019050919050565b600060208201905081810360008301526140cb8161408f565b9050919050565b7f4e487b7100000000000000000000000000000000000000000000000000000000600052601160045260246000fd5b600061410c826136c2565b9150614117836136c2565b9250827fffffffffffffffffffffffffffffffffffffffffffffffffffffffffffffffff0382111561414c5761414b6140d2565b5b828201905092915050565b7f5472616e73666572206166746572206d696e742069732070726f68696269746560008201527f6400000000000000000000000000000000000000000000000000000000000000602082015250565b60006141b3602183613612565b91506141be82614157565b604082019050919050565b600060208201905081810360008301526141e2816141a6565b9050919050565b7f416363657373436f6e74726f6c3a2063616e206f6e6c792072656e6f756e636560008201527f20726f6c657320666f722073656c660000000000000000000000000000000000602082015250565b6000614245602f83613612565b9150614250826141e9565b604082019050919050565b6000602082019050818103600083015261427481614238565b9050919050565b7f5468652061646472657373206973206e6f7420612073747564656e7400000000600082015250565b60006142b1601c83613612565b91506142bc8261427b565b602082019050919050565b600060208201905081810360008301526142e0816142a4565b9050919050565b7f4552433732313a206f776e657220717565727920666f72206e6f6e657869737460008201527f656e7420746f6b656e0000000000000000000000000000000000000000000000602082015250565b6000614343602983613612565b915061434e826142e7565b604082019050919050565b6000602082019050818103600083015261437281614336565b9050919050565b7f4552433732313a2062616c616e636520717565727920666f7220746865207a6560008201527f726f206164647265737300000000000000000000000000000000000000000000602082015250565b60006143d5602a83613612565b91506143e082614379565b604082019050919050565b60006020820190508181036000830152614404816143c8565b9050919050565b7f4552433732314d657461646174613a2055524920717565727920666f72206e6f60008201527f6e6578697374656e7420746f6b656e0000000000000000000000000000000000602082015250565b6000614467602f83613612565b91506144728261440b565b604082019050919050565b600060208201905081810360008301526144968161445a565b9050919050565b60006144a98285613ee5565b91506144b58284613ee5565b91508190509392505050565b7f54686973204465706172746d656e74206973206e6f7420657869737400000000600082015250565b60006144f7601c83613612565b9150614502826144c1565b602082019050919050565b60006020820190508181036000830152614526816144ea565b9050919050565b60008190508160005260206000209050919050565b6000815461454f81613cf2565b6145598186613eda565b945060018216600081146145745760018114614585576145b8565b60ff198316865281860193506145b8565b61458e8561452d565b60005b838110156145b057815481890152600182019150602081019050614591565b838801955050505b50505092915050565b60006145cd8284614542565b915081905092915050565b7f4465706172746d656e74206e616d657320646f206e6f74206d61746368000000600082015250565b600061460e601d83613612565b9150614619826145d8565b602082019050919050565b6000602082019050818103600083015261463d81614601565b9050919050565b7f416363657373436f6e74726f6c3a206163636f756e7420000000000000000000600082015250565b600061467a601783613eda565b915061468582614644565b601782019050919050565b7f206973206d697373696e6720726f6c6520000000000000000000000000000000600082015250565b60006146c6601183613eda565b91506146d182614690565b601182019050919050565b60006146e78261466d565b91506146f38285613ee5565b91506146fe826146b9565b915061470a8284613ee5565b91508190509392505050565b7f4552433732313a206d696e7420746f20746865207a65726f2061646472657373600082015250565b600061474c602083613612565b915061475782614716565b602082019050919050565b6000602082019050818103600083015261477b8161473f565b9050919050565b7f4552433732313a20746f6b656e20616c7265616479206d696e74656400000000600082015250565b60006147b8601c83613612565b91506147c382614782565b602082019050919050565b600060208201905081810360008301526147e7816147ab565b9050919050565b7f4552433732313a207472616e736665722063616c6c6572206973206e6f74206f60008201527f776e6572206e6f7220617070726f766564000000000000000000000000000000602082015250565b600061484a603183613612565b9150614855826147ee565b604082019050919050565b600060208201905081810360008301526148798161483d565b9050919050565b7f4552433732313a20617070726f766520746f2063616c6c657200000000000000600082015250565b60006148b6601983613612565b91506148c182614880565b602082019050919050565b600060208201905081810360008301526148e5816148a9565b9050919050565b60006148f7826136c2565b91507fffffffffffffffffffffffffffffffffffffffffffffffffffffffffffffffff82141561492a576149296140d2565b5b600182019050919050565b7f4e487b7100000000000000000000000000000000000000000000000000000000600052601260045260246000fd5b600061496f826136c2565b915061497a836136c2565b92508261498a57614989614935565b5b828204905092915050565b60006149a0826136c2565b91506149ab836136c2565b9250828210156149be576149bd6140d2565b5b828203905092915050565b60006149d4826136c2565b91506149df836136c2565b9250826149ef576149ee614935565b5b828206905092915050565b7f4e487b7100000000000000000000000000000000000000000000000000000000600052603260045260246000fd5b6000614a34826136c2565b9150614a3f836136c2565b9250817fffffffffffffffffffffffffffffffffffffffffffffffffffffffffffffffff0483118215151615614a7857614a776140d2565b5b828202905092915050565b6000614a8e826136c2565b91506000821415614aa257614aa16140d2565b5b600182039050919050565b7f537472696e67733a20686578206c656e67746820696e73756666696369656e74600082015250565b6000614ae3602083613612565b9150614aee82614aad565b602082019050919050565b60006020820190508181036000830152614b1281614ad6565b9050919050565b7f4552433732313a206f70657261746f7220717565727920666f72206e6f6e657860008201527f697374656e7420746f6b656e0000000000000000000000000000000000000000602082015250565b6000614b75602c83613612565b9150614b8082614b19565b604082019050919050565b60006020820190508181036000830152614ba481614b68565b9050919050565b7f4552433732313a207472616e73666572206f6620746f6b656e2074686174206960008201527f73206e6f74206f776e0000000000000000000000000000000000000000000000602082015250565b6000614c07602983613612565b9150614c1282614bab565b604082019050919050565b60006020820190508181036000830152614c3681614bfa565b9050919050565b7f4552433732313a207472616e7366657220746f20746865207a65726f2061646460008201527f7265737300000000000000000000000000000000000000000000000000000000602082015250565b6000614c99602483613612565b9150614ca482614c3d565b604082019050919050565b60006020820190508181036000830152614cc881614c8c565b9050919050565b7f4552433732313a207472616e7366657220746f206e6f6e20455243373231526560008201527f63656976657220696d706c656d656e7465720000000000000000000000000000602082015250565b6000614d2b603283613612565b9150614d3682614ccf565b604082019050919050565b60006020820190508181036000830152614d5a81614d1e565b9050919050565b7f4e487b7100000000000000000000000000000000000000000000000000000000600052603160045260246000fd5b600081519050919050565b600082825260208201905092915050565b6000614db782614d90565b614dc18185614d9b565b9350614dd1818560208601613623565b614dda81613656565b840191505092915050565b6000608082019050614dfa6000830187613725565b614e076020830186613725565b614e146040830185613a40565b8181036060830152614e268184614dac565b905095945050505050565b600081519050614e40816134ed565b92915050565b600060208284031215614e5c57614e5b6134b7565b5b6000614e6a84828501614e31565b9150509291505056fea264697066735822122058c8175344e5917550c76c095286e2e1566845d27506739edc2d0b128ca4058f64736f6c634300080a0033",
  "immutableReferences": {},
  "source": "pragma solidity ^0.8.10;\r\n\r\nimport \"@openzeppelin/contracts/token/ERC721/ERC721.sol\";\r\nimport \"./Roles.sol\";\r\n\r\ncontract Department is ERC721, Roles{\r\n    uint256 _totalSupply = 0;\r\n    //mapping from tokenID to departmentName\r\n    mapping(uint256 => string) _departmentNameOfID;\r\n    //mapping from departmentName to tokenID\r\n    mapping(string => uint256) _IDOfDepartmentName;\r\n\r\n    constructor() ERC721(\"Department\", \"DEP\") public{\r\n        _setupRole(DEFAULT_ADMIN_ROLE, msg.sender);\r\n        _setupRole(RECTOR_ROLE, msg.sender);\r\n    }\r\n\r\n    function mint(string memory _departmentName, address departmentAddress) public onlyRole(RECTOR_ROLE){\r\n        require(_IDOfDepartmentName[_departmentName] == 0, \"This Department is already exist\");\r\n        grantDepartmentRole(departmentAddress);\r\n        require(hasRole(DEPARTMENT_ROLE, departmentAddress), \"This address is not in DEPARTMENT_ROLE\");\r\n        require(keccak256(abi.encodePacked(_departmentName)) != keccak256(abi.encodePacked(\"\")), \"Department name cannot be empty\");\r\n        // Department - add\r\n        _totalSupply = _totalSupply + 1;\r\n        uint _id = _totalSupply; //tokenID's start from 1 because default uint256 value is 0\r\n        // Call the mint function of ERC721\r\n        _mint(departmentAddress, _id);\r\n        // Department - track it\r\n        _IDOfDepartmentName[_departmentName] = _id;\r\n        _departmentNameOfID[_id] = _departmentName;\r\n    }\r\n    function burn(string memory _departmentName) public onlyRole(RECTOR_ROLE){\r\n        uint _id = _IDOfDepartmentName[_departmentName];\r\n        require(_id != 0, \"This Department is not exist\");\r\n        require(keccak256(abi.encodePacked(_departmentNameOfID[_id])) == keccak256(abi.encodePacked(_departmentName)), \"Department names do not match\");\r\n        //Revoke Role\r\n        address owner = ownerOf(_id);\r\n        revokeDepartmentRole(owner);\r\n        _burn(_id);\r\n        _departmentNameOfID[_id] = \"\";\r\n        _IDOfDepartmentName[_departmentName] = 0;\r\n    }\r\n    function getDepartmentName(uint256 id) public view returns(string memory departmentName){\r\n        return _departmentNameOfID[id];\r\n    }\r\n    function getDepartmentID(string memory departmentName) public{\r\n        emit showUint(_IDOfDepartmentName[departmentName]);\r\n    }\r\n\r\n    function transferFrom(//Only callable when minted\r\n        address from,\r\n        address to,\r\n        uint256 tokenId\r\n    ) public virtual override {\r\n        require(msg.sender == 0x0000000000000000000000000000000000000000, \"Transfer after mint is prohibited\");\r\n        super.transferFrom(from,to,tokenId);\r\n    }\r\n    function safeTransferFrom(//Only callable when minted\r\n        address from,\r\n        address to,\r\n        uint256 tokenId\r\n    ) public virtual override {\r\n        require(msg.sender == 0x0000000000000000000000000000000000000000, \"Transfer after mint is prohibited\");\r\n        super.safeTransferFrom(from,to,tokenId);\r\n    }\r\n    function safeTransferFrom(//Only callable when minted\r\n        address from,\r\n        address to,\r\n        uint256 tokenId,\r\n        bytes memory _data\r\n    ) public virtual override {\r\n        require(msg.sender == 0x0000000000000000000000000000000000000000, \"Transfer after mint is prohibited\");\r\n        super.safeTransferFrom(from, to, tokenId, _data);\r\n    }\r\n    function supportsInterface(bytes4 interfaceId) public view virtual override(ERC721, AccessControlEnumerable) returns (bool) {\r\n        return super.supportsInterface(interfaceId);\r\n    }\r\n    event showUint(uint256);\r\n}\r\n",
  "sourcePath": "C:\\Users\\asus\\Desktop\\Dersler\\CMPE492\\certification-project\\contracts\\Department.sol",
  "compiler": {
    "name": "solc",
    "version": "0.8.10+commit.fc410830.Emscripten.clang"
  },
  "schemaVersion": "3.4.4",
  "updatedAt": "2022-01-14T18:18:06.974Z",
  "networkType": "ethereum",
  "devdoc": {
    "kind": "dev",
    "methods": {
      "approve(address,uint256)": {
        "details": "See {IERC721-approve}."
      },
      "balanceOf(address)": {
        "details": "See {IERC721-balanceOf}."
      },
      "getApproved(uint256)": {
        "details": "See {IERC721-getApproved}."
      },
      "getRoleAdmin(bytes32)": {
        "details": "Returns the admin role that controls `role`. See {grantRole} and {revokeRole}. To change a role's admin, use {_setRoleAdmin}."
      },
      "getRoleMember(bytes32,uint256)": {
        "details": "Returns one of the accounts that have `role`. `index` must be a value between 0 and {getRoleMemberCount}, non-inclusive. Role bearers are not sorted in any particular way, and their ordering may change at any point. WARNING: When using {getRoleMember} and {getRoleMemberCount}, make sure you perform all queries on the same block. See the following https://forum.openzeppelin.com/t/iterating-over-elements-on-enumerableset-in-openzeppelin-contracts/2296[forum post] for more information."
      },
      "getRoleMemberCount(bytes32)": {
        "details": "Returns the number of accounts that have `role`. Can be used together with {getRoleMember} to enumerate all bearers of a role."
      },
      "grantRole(bytes32,address)": {
        "details": "Grants `role` to `account`. If `account` had not been already granted `role`, emits a {RoleGranted} event. Requirements: - the caller must have ``role``'s admin role."
      },
      "hasRole(bytes32,address)": {
        "details": "Returns `true` if `account` has been granted `role`."
      },
      "isApprovedForAll(address,address)": {
        "details": "See {IERC721-isApprovedForAll}."
      },
      "name()": {
        "details": "See {IERC721Metadata-name}."
      },
      "ownerOf(uint256)": {
        "details": "See {IERC721-ownerOf}."
      },
      "renounceRole(bytes32,address)": {
        "details": "Revokes `role` from the calling account. Roles are often managed via {grantRole} and {revokeRole}: this function's purpose is to provide a mechanism for accounts to lose their privileges if they are compromised (such as when a trusted device is misplaced). If the calling account had been revoked `role`, emits a {RoleRevoked} event. Requirements: - the caller must be `account`."
      },
      "revokeRole(bytes32,address)": {
        "details": "Revokes `role` from `account`. If `account` had been granted `role`, emits a {RoleRevoked} event. Requirements: - the caller must have ``role``'s admin role."
      },
      "safeTransferFrom(address,address,uint256)": {
        "details": "See {IERC721-safeTransferFrom}."
      },
      "safeTransferFrom(address,address,uint256,bytes)": {
        "details": "See {IERC721-safeTransferFrom}."
      },
      "setApprovalForAll(address,bool)": {
        "details": "See {IERC721-setApprovalForAll}."
      },
      "symbol()": {
        "details": "See {IERC721Metadata-symbol}."
      },
      "tokenURI(uint256)": {
        "details": "See {IERC721Metadata-tokenURI}."
      },
      "transferFrom(address,address,uint256)": {
        "details": "See {IERC721-transferFrom}."
      }
    },
    "version": 1
  },
  "userdoc": {
    "kind": "user",
    "methods": {},
    "version": 1
  }
}