{
  "contractName": "Diploma",
  "abi": [
    {
      "inputs": [],
      "stateMutability": "nonpayable",
      "type": "constructor"
    },
    {
      "anonymous": false,
      "inputs": [
        {
          "indexed": true,
          "internalType": "address",
          "name": "owner",
          "type": "address"
        },
        {
          "indexed": true,
          "internalType": "address",
          "name": "approved",
          "type": "address"
        },
        {
          "indexed": true,
          "internalType": "uint256",
          "name": "tokenId",
          "type": "uint256"
        }
      ],
      "name": "Approval",
      "type": "event"
    },
    {
      "anonymous": false,
      "inputs": [
        {
          "indexed": true,
          "internalType": "address",
          "name": "owner",
          "type": "address"
        },
        {
          "indexed": true,
          "internalType": "address",
          "name": "operator",
          "type": "address"
        },
        {
          "indexed": false,
          "internalType": "bool",
          "name": "approved",
          "type": "bool"
        }
      ],
      "name": "ApprovalForAll",
      "type": "event"
    },
    {
      "anonymous": false,
      "inputs": [
        {
          "indexed": true,
          "internalType": "bytes32",
          "name": "role",
          "type": "bytes32"
        },
        {
          "indexed": true,
          "internalType": "bytes32",
          "name": "previousAdminRole",
          "type": "bytes32"
        },
        {
          "indexed": true,
          "internalType": "bytes32",
          "name": "newAdminRole",
          "type": "bytes32"
        }
      ],
      "name": "RoleAdminChanged",
      "type": "event"
    },
    {
      "anonymous": false,
      "inputs": [
        {
          "indexed": true,
          "internalType": "bytes32",
          "name": "role",
          "type": "bytes32"
        },
        {
          "indexed": true,
          "internalType": "address",
          "name": "account",
          "type": "address"
        },
        {
          "indexed": true,
          "internalType": "address",
          "name": "sender",
          "type": "address"
        }
      ],
      "name": "RoleGranted",
      "type": "event"
    },
    {
      "anonymous": false,
      "inputs": [
        {
          "indexed": true,
          "internalType": "bytes32",
          "name": "role",
          "type": "bytes32"
        },
        {
          "indexed": true,
          "internalType": "address",
          "name": "account",
          "type": "address"
        },
        {
          "indexed": true,
          "internalType": "address",
          "name": "sender",
          "type": "address"
        }
      ],
      "name": "RoleRevoked",
      "type": "event"
    },
    {
      "anonymous": false,
      "inputs": [
        {
          "indexed": true,
          "internalType": "address",
          "name": "from",
          "type": "address"
        },
        {
          "indexed": true,
          "internalType": "address",
          "name": "to",
          "type": "address"
        },
        {
          "indexed": true,
          "internalType": "uint256",
          "name": "tokenId",
          "type": "uint256"
        }
      ],
      "name": "Transfer",
      "type": "event"
    },
    {
      "inputs": [],
      "name": "DEFAULT_ADMIN_ROLE",
      "outputs": [
        {
          "internalType": "bytes32",
          "name": "",
          "type": "bytes32"
        }
      ],
      "stateMutability": "view",
      "type": "function",
      "constant": true
    },
    {
      "inputs": [],
      "name": "DEPARTMENT_ROLE",
      "outputs": [
        {
          "internalType": "bytes32",
          "name": "",
          "type": "bytes32"
        }
      ],
      "stateMutability": "view",
      "type": "function",
      "constant": true
    },
    {
      "inputs": [],
      "name": "FACULTY_ROLE",
      "outputs": [
        {
          "internalType": "bytes32",
          "name": "",
          "type": "bytes32"
        }
      ],
      "stateMutability": "view",
      "type": "function",
      "constant": true
    },
    {
      "inputs": [],
      "name": "GRADUATED_ROLE",
      "outputs": [
        {
          "internalType": "bytes32",
          "name": "",
          "type": "bytes32"
        }
      ],
      "stateMutability": "view",
      "type": "function",
      "constant": true
    },
    {
      "inputs": [],
      "name": "INSTRUCTOR_ROLE",
      "outputs": [
        {
          "internalType": "bytes32",
          "name": "",
          "type": "bytes32"
        }
      ],
      "stateMutability": "view",
      "type": "function",
      "constant": true
    },
    {
      "inputs": [],
      "name": "RECTOR_ROLE",
      "outputs": [
        {
          "internalType": "bytes32",
          "name": "",
          "type": "bytes32"
        }
      ],
      "stateMutability": "view",
      "type": "function",
      "constant": true
    },
    {
      "inputs": [],
      "name": "STUDENT_ROLE",
      "outputs": [
        {
          "internalType": "bytes32",
          "name": "",
          "type": "bytes32"
        }
      ],
      "stateMutability": "view",
      "type": "function",
      "constant": true
    },
    {
      "inputs": [
        {
          "internalType": "address",
          "name": "to",
          "type": "address"
        },
        {
          "internalType": "uint256",
          "name": "tokenId",
          "type": "uint256"
        }
      ],
      "name": "approve",
      "outputs": [],
      "stateMutability": "nonpayable",
      "type": "function"
    },
    {
      "inputs": [
        {
          "internalType": "address",
          "name": "owner",
          "type": "address"
        }
      ],
      "name": "balanceOf",
      "outputs": [
        {
          "internalType": "uint256",
          "name": "",
          "type": "uint256"
        }
      ],
      "stateMutability": "view",
      "type": "function",
      "constant": true
    },
    {
      "inputs": [
        {
          "internalType": "uint256",
          "name": "tokenId",
          "type": "uint256"
        }
      ],
      "name": "getApproved",
      "outputs": [
        {
          "internalType": "address",
          "name": "",
          "type": "address"
        }
      ],
      "stateMutability": "view",
      "type": "function",
      "constant": true
    },
    {
      "inputs": [],
      "name": "getDepartmentRoles",
      "outputs": [
        {
          "internalType": "address[]",
          "name": "",
          "type": "address[]"
        }
      ],
      "stateMutability": "view",
      "type": "function",
      "constant": true
    },
    {
      "inputs": [],
      "name": "getFacultyRoles",
      "outputs": [
        {
          "internalType": "address[]",
          "name": "",
          "type": "address[]"
        }
      ],
      "stateMutability": "view",
      "type": "function",
      "constant": true
    },
    {
      "inputs": [],
      "name": "getGraduatedRoles",
      "outputs": [
        {
          "internalType": "address[]",
          "name": "",
          "type": "address[]"
        }
      ],
      "stateMutability": "view",
      "type": "function",
      "constant": true
    },
    {
      "inputs": [],
      "name": "getInstructorRoles",
      "outputs": [
        {
          "internalType": "address[]",
          "name": "",
          "type": "address[]"
        }
      ],
      "stateMutability": "view",
      "type": "function",
      "constant": true
    },
    {
      "inputs": [],
      "name": "getRectorRole",
      "outputs": [
        {
          "internalType": "address",
          "name": "",
          "type": "address"
        }
      ],
      "stateMutability": "view",
      "type": "function",
      "constant": true
    },
    {
      "inputs": [
        {
          "internalType": "bytes32",
          "name": "role",
          "type": "bytes32"
        }
      ],
      "name": "getRoleAdmin",
      "outputs": [
        {
          "internalType": "bytes32",
          "name": "",
          "type": "bytes32"
        }
      ],
      "stateMutability": "view",
      "type": "function",
      "constant": true
    },
    {
      "inputs": [
        {
          "internalType": "bytes32",
          "name": "role",
          "type": "bytes32"
        },
        {
          "internalType": "uint256",
          "name": "index",
          "type": "uint256"
        }
      ],
      "name": "getRoleMember",
      "outputs": [
        {
          "internalType": "address",
          "name": "",
          "type": "address"
        }
      ],
      "stateMutability": "view",
      "type": "function",
      "constant": true
    },
    {
      "inputs": [
        {
          "internalType": "bytes32",
          "name": "role",
          "type": "bytes32"
        }
      ],
      "name": "getRoleMemberCount",
      "outputs": [
        {
          "internalType": "uint256",
          "name": "",
          "type": "uint256"
        }
      ],
      "stateMutability": "view",
      "type": "function",
      "constant": true
    },
    {
      "inputs": [],
      "name": "getStudentRoles",
      "outputs": [
        {
          "internalType": "address[]",
          "name": "",
          "type": "address[]"
        }
      ],
      "stateMutability": "view",
      "type": "function",
      "constant": true
    },
    {
      "inputs": [
        {
          "internalType": "address",
          "name": "account",
          "type": "address"
        }
      ],
      "name": "grantDepartmentRole",
      "outputs": [],
      "stateMutability": "nonpayable",
      "type": "function"
    },
    {
      "inputs": [
        {
          "internalType": "address",
          "name": "account",
          "type": "address"
        }
      ],
      "name": "grantFacultyRole",
      "outputs": [],
      "stateMutability": "nonpayable",
      "type": "function"
    },
    {
      "inputs": [
        {
          "internalType": "address",
          "name": "account",
          "type": "address"
        }
      ],
      "name": "grantGraduatedRole",
      "outputs": [],
      "stateMutability": "nonpayable",
      "type": "function"
    },
    {
      "inputs": [
        {
          "internalType": "address",
          "name": "account",
          "type": "address"
        }
      ],
      "name": "grantInstructorRole",
      "outputs": [],
      "stateMutability": "nonpayable",
      "type": "function"
    },
    {
      "inputs": [
        {
          "internalType": "address",
          "name": "account",
          "type": "address"
        }
      ],
      "name": "grantRectorRole",
      "outputs": [],
      "stateMutability": "nonpayable",
      "type": "function"
    },
    {
      "inputs": [
        {
          "internalType": "bytes32",
          "name": "role",
          "type": "bytes32"
        },
        {
          "internalType": "address",
          "name": "account",
          "type": "address"
        }
      ],
      "name": "grantRole",
      "outputs": [],
      "stateMutability": "nonpayable",
      "type": "function"
    },
    {
      "inputs": [
        {
          "internalType": "address",
          "name": "account",
          "type": "address"
        }
      ],
      "name": "grantStudentRole",
      "outputs": [],
      "stateMutability": "nonpayable",
      "type": "function"
    },
    {
      "inputs": [
        {
          "internalType": "address",
          "name": "account",
          "type": "address"
        }
      ],
      "name": "hasDepartmentRole",
      "outputs": [
        {
          "internalType": "bool",
          "name": "",
          "type": "bool"
        }
      ],
      "stateMutability": "view",
      "type": "function",
      "constant": true
    },
    {
      "inputs": [
        {
          "internalType": "address",
          "name": "account",
          "type": "address"
        }
      ],
      "name": "hasFacultyRole",
      "outputs": [
        {
          "internalType": "bool",
          "name": "",
          "type": "bool"
        }
      ],
      "stateMutability": "view",
      "type": "function",
      "constant": true
    },
    {
      "inputs": [
        {
          "internalType": "address",
          "name": "account",
          "type": "address"
        }
      ],
      "name": "hasGraduatedRole",
      "outputs": [
        {
          "internalType": "bool",
          "name": "",
          "type": "bool"
        }
      ],
      "stateMutability": "view",
      "type": "function",
      "constant": true
    },
    {
      "inputs": [
        {
          "internalType": "address",
          "name": "account",
          "type": "address"
        }
      ],
      "name": "hasInstructorRole",
      "outputs": [
        {
          "internalType": "bool",
          "name": "",
          "type": "bool"
        }
      ],
      "stateMutability": "view",
      "type": "function",
      "constant": true
    },
    {
      "inputs": [
        {
          "internalType": "address",
          "name": "account",
          "type": "address"
        }
      ],
      "name": "hasRectorRole",
      "outputs": [
        {
          "internalType": "bool",
          "name": "",
          "type": "bool"
        }
      ],
      "stateMutability": "view",
      "type": "function",
      "constant": true
    },
    {
      "inputs": [
        {
          "internalType": "bytes32",
          "name": "role",
          "type": "bytes32"
        },
        {
          "internalType": "address",
          "name": "account",
          "type": "address"
        }
      ],
      "name": "hasRole",
      "outputs": [
        {
          "internalType": "bool",
          "name": "",
          "type": "bool"
        }
      ],
      "stateMutability": "view",
      "type": "function",
      "constant": true
    },
    {
      "inputs": [
        {
          "internalType": "address",
          "name": "account",
          "type": "address"
        }
      ],
      "name": "hasStudentRole",
      "outputs": [
        {
          "internalType": "bool",
          "name": "",
          "type": "bool"
        }
      ],
      "stateMutability": "view",
      "type": "function",
      "constant": true
    },
    {
      "inputs": [
        {
          "internalType": "address",
          "name": "owner",
          "type": "address"
        },
        {
          "internalType": "address",
          "name": "operator",
          "type": "address"
        }
      ],
      "name": "isApprovedForAll",
      "outputs": [
        {
          "internalType": "bool",
          "name": "",
          "type": "bool"
        }
      ],
      "stateMutability": "view",
      "type": "function",
      "constant": true
    },
    {
      "inputs": [],
      "name": "name",
      "outputs": [
        {
          "internalType": "string",
          "name": "",
          "type": "string"
        }
      ],
      "stateMutability": "view",
      "type": "function",
      "constant": true
    },
    {
      "inputs": [
        {
          "internalType": "uint256",
          "name": "tokenId",
          "type": "uint256"
        }
      ],
      "name": "ownerOf",
      "outputs": [
        {
          "internalType": "address",
          "name": "",
          "type": "address"
        }
      ],
      "stateMutability": "view",
      "type": "function",
      "constant": true
    },
    {
      "inputs": [
        {
          "internalType": "bytes32",
          "name": "role",
          "type": "bytes32"
        },
        {
          "internalType": "address",
          "name": "account",
          "type": "address"
        }
      ],
      "name": "renounceRole",
      "outputs": [],
      "stateMutability": "nonpayable",
      "type": "function"
    },
    {
      "inputs": [
        {
          "internalType": "address",
          "name": "account",
          "type": "address"
        }
      ],
      "name": "revokeDepartmentRole",
      "outputs": [],
      "stateMutability": "nonpayable",
      "type": "function"
    },
    {
      "inputs": [
        {
          "internalType": "address",
          "name": "account",
          "type": "address"
        }
      ],
      "name": "revokeFacultyRole",
      "outputs": [],
      "stateMutability": "nonpayable",
      "type": "function"
    },
    {
      "inputs": [
        {
          "internalType": "address",
          "name": "account",
          "type": "address"
        }
      ],
      "name": "revokeInstructorRole",
      "outputs": [],
      "stateMutability": "nonpayable",
      "type": "function"
    },
    {
      "inputs": [
        {
          "internalType": "bytes32",
          "name": "role",
          "type": "bytes32"
        },
        {
          "internalType": "address",
          "name": "account",
          "type": "address"
        }
      ],
      "name": "revokeRole",
      "outputs": [],
      "stateMutability": "nonpayable",
      "type": "function"
    },
    {
      "inputs": [
        {
          "internalType": "address",
          "name": "account",
          "type": "address"
        }
      ],
      "name": "revokeStudentRole",
      "outputs": [],
      "stateMutability": "nonpayable",
      "type": "function"
    },
    {
      "inputs": [
        {
          "internalType": "address",
          "name": "operator",
          "type": "address"
        },
        {
          "internalType": "bool",
          "name": "approved",
          "type": "bool"
        }
      ],
      "name": "setApprovalForAll",
      "outputs": [],
      "stateMutability": "nonpayable",
      "type": "function"
    },
    {
      "inputs": [],
      "name": "symbol",
      "outputs": [
        {
          "internalType": "string",
          "name": "",
          "type": "string"
        }
      ],
      "stateMutability": "view",
      "type": "function",
      "constant": true
    },
    {
      "inputs": [
        {
          "internalType": "uint256",
          "name": "tokenId",
          "type": "uint256"
        }
      ],
      "name": "tokenURI",
      "outputs": [
        {
          "internalType": "string",
          "name": "",
          "type": "string"
        }
      ],
      "stateMutability": "view",
      "type": "function",
      "constant": true
    },
    {
      "inputs": [
        {
          "internalType": "string",
          "name": "_diplomaLink",
          "type": "string"
        },
        {
          "internalType": "address",
          "name": "_graduatedAddress",
          "type": "address"
        }
      ],
      "name": "mint",
      "outputs": [],
      "stateMutability": "nonpayable",
      "type": "function"
    },
    {
      "inputs": [],
      "name": "getDiplomaLinks",
      "outputs": [
        {
          "internalType": "string[]",
          "name": "diplomaLinks",
          "type": "string[]"
        }
      ],
      "stateMutability": "view",
      "type": "function",
      "constant": true
    },
    {
      "inputs": [
        {
          "internalType": "address",
          "name": "from",
          "type": "address"
        },
        {
          "internalType": "address",
          "name": "to",
          "type": "address"
        },
        {
          "internalType": "uint256",
          "name": "tokenId",
          "type": "uint256"
        }
      ],
      "name": "transferFrom",
      "outputs": [],
      "stateMutability": "nonpayable",
      "type": "function"
    },
    {
      "inputs": [
        {
          "internalType": "address",
          "name": "from",
          "type": "address"
        },
        {
          "internalType": "address",
          "name": "to",
          "type": "address"
        },
        {
          "internalType": "uint256",
          "name": "tokenId",
          "type": "uint256"
        }
      ],
      "name": "safeTransferFrom",
      "outputs": [],
      "stateMutability": "nonpayable",
      "type": "function"
    },
    {
      "inputs": [
        {
          "internalType": "address",
          "name": "from",
          "type": "address"
        },
        {
          "internalType": "address",
          "name": "to",
          "type": "address"
        },
        {
          "internalType": "uint256",
          "name": "tokenId",
          "type": "uint256"
        },
        {
          "internalType": "bytes",
          "name": "_data",
          "type": "bytes"
        }
      ],
      "name": "safeTransferFrom",
      "outputs": [],
      "stateMutability": "nonpayable",
      "type": "function"
    },
    {
      "inputs": [
        {
          "internalType": "bytes4",
          "name": "interfaceId",
          "type": "bytes4"
        }
      ],
      "name": "supportsInterface",
      "outputs": [
        {
          "internalType": "bool",
          "name": "",
          "type": "bool"
        }
      ],
      "stateMutability": "view",
      "type": "function",
      "constant": true
    }
  ],
  "bytecode": "0x60806040523480156200001157600080fd5b506040518060400160405280600781526020017f4469706c6f6d61000000000000000000000000000000000000000000000000008152506040518060400160405280600481526020017f44504c4d0000000000000000000000000000000000000000000000000000000081525081600090805190602001906200009692919062000397565b508060019080519060200190620000af92919062000397565b505050620000c76000801b33620000ff60201b60201c565b620000f97f5f1d1e303f9c0a1801dd708bdc4239781d66c88ca6cb941c5769ba09b5c1b28533620000ff60201b60201c565b620004ac565b6200011182826200011560201b60201c565b5050565b6200012c82826200015d60201b620021de1760201c565b6200015881600760008581526020019081526020016000206200024f60201b620022bf1790919060201c565b505050565b6200016f82826200028760201b60201c565b6200024b5760016006600084815260200190815260200160002060000160008373ffffffffffffffffffffffffffffffffffffffff1673ffffffffffffffffffffffffffffffffffffffff16815260200190815260200160002060006101000a81548160ff021916908315150217905550620001f0620002f260201b60201c565b73ffffffffffffffffffffffffffffffffffffffff168173ffffffffffffffffffffffffffffffffffffffff16837f2f8788117e7eff1d82e926ec794901d17c78024a50270940304540a733656f0d60405160405180910390a45b5050565b60006200027f836000018373ffffffffffffffffffffffffffffffffffffffff1660001b620002fa60201b60201c565b905092915050565b60006006600084815260200190815260200160002060000160008373ffffffffffffffffffffffffffffffffffffffff1673ffffffffffffffffffffffffffffffffffffffff16815260200190815260200160002060009054906101000a900460ff16905092915050565b600033905090565b60006200030e83836200037460201b60201c565b620003695782600001829080600181540180825580915050600190039060005260206000200160009091909190915055826000018054905083600101600084815260200190815260200160002081905550600190506200036e565b600090505b92915050565b600080836001016000848152602001908152602001600020541415905092915050565b828054620003a59062000476565b90600052602060002090601f016020900481019282620003c9576000855562000415565b82601f10620003e457805160ff191683800117855562000415565b8280016001018555821562000415579182015b8281111562000414578251825591602001919060010190620003f7565b5b50905062000424919062000428565b5090565b5b808211156200044357600081600090555060010162000429565b5090565b7f4e487b7100000000000000000000000000000000000000000000000000000000600052602260045260246000fd5b600060028204905060018216806200048f57607f821691505b60208210811415620004a657620004a562000447565b5b50919050565b61546c80620004bc6000396000f3fe608060405234801561001057600080fd5b50600436106102f15760003560e01c80637ab08b801161019d578063b88d4fde116100e9578063d547741f116100a2578063e78af7c51161007c578063e78af7c51461093c578063e985e9c51461096c578063f7be43fb1461099c578063fc3ba6b4146109ba576102f1565b8063d547741f146108d2578063db0b1fee146108ee578063e17f6b2c1461090c576102f1565b8063b88d4fde14610800578063b94470511461081c578063ba5adbd114610838578063c87b56dd14610856578063c94d10ad14610886578063ca15c873146108a2576102f1565b806395d89b4111610156578063996dc02211610130578063996dc0221461078a578063a217fddf146107a8578063a22cb465146107c6578063ad7be93a146107e2576102f1565b806395d89b411461071e578063973c4b6c1461073c5780639822a5991461075a576102f1565b80637ab08b801461064a57806386f8e92c146106685780638bcf979c146106845780638df6674a146106a25780639010d07c146106be57806391d14854146106ee576102f1565b80632be7dc441161025c5780635e3c7e8e116102155780636352211e116101ef5780636352211e1461059c5780636fe3ceb8146105cc57806370a08231146105ea5780637168c27d1461061a576102f1565b80635e3c7e8e146105465780635ea07b1c146105645780635f1d514e14610580576102f1565b80632be7dc441461048a5780632f2ff15d146104ba57806332b3c846146104d657806336568abe146104f257806342842e0e1461050e578063529f790c1461052a576102f1565b806316bec781116102ae57806316bec781146103c85780631c351a9d146103e657806323b872dd14610402578063248a9ca31461041e57806324d42a371461044e5780632b1533c41461046c576102f1565b806301ffc9a7146102f65780630252dffc1461032657806306fdde0314610342578063081812fc14610360578063095ea7b31461039057806312fb59f2146103ac575b600080fd5b610310600480360381019061030b9190613aaf565b6109ea565b60405161031d9190613af7565b60405180910390f35b610340600480360381019061033b9190613b70565b6109fc565b005b61034a610a68565b6040516103579190613c36565b60405180910390f35b61037a60048036038101906103759190613c8e565b610afa565b6040516103879190613cca565b60405180910390f35b6103aa60048036038101906103a59190613ce5565b610b7f565b005b6103c660048036038101906103c19190613b70565b610c97565b005b6103d0610d5a565b6040516103dd9190613de3565b60405180910390f35b61040060048036038101906103fb9190613f3a565b610de8565b005b61041c60048036038101906104179190613f96565b61104b565b005b6104386004803603810190610433919061401f565b6110ca565b604051610445919061405b565b60405180910390f35b6104566110ea565b604051610463919061405b565b60405180910390f35b61047461110e565b6040516104819190613de3565b60405180910390f35b6104a4600480360381019061049f9190613b70565b61119c565b6040516104b19190613af7565b60405180910390f35b6104d460048036038101906104cf9190614076565b6111cf565b005b6104f060048036038101906104eb9190613b70565b6111f8565b005b61050c60048036038101906105079190614076565b611264565b005b61052860048036038101906105239190613f96565b6112e7565b005b610544600480360381019061053f9190613b70565b611366565b005b61054e611429565b60405161055b9190613de3565b60405180910390f35b61057e60048036038101906105799190613b70565b6114b7565b005b61059a60048036038101906105959190613b70565b61160d565b005b6105b660048036038101906105b19190613c8e565b6116d0565b6040516105c39190613cca565b60405180910390f35b6105d4611782565b6040516105e1919061405b565b60405180910390f35b61060460048036038101906105ff9190613b70565b6117a6565b60405161061191906140c5565b60405180910390f35b610634600480360381019061062f9190613b70565b61185e565b6040516106419190613af7565b60405180910390f35b610652611891565b60405161065f91906141ec565b60405180910390f35b610682600480360381019061067d9190613b70565b61196a565b005b61068c6119d6565b604051610699919061405b565b60405180910390f35b6106bc60048036038101906106b79190613b70565b6119fa565b005b6106d860048036038101906106d3919061420e565b611adf565b6040516106e59190613cca565b60405180910390f35b61070860048036038101906107039190614076565b611b0e565b6040516107159190613af7565b60405180910390f35b610726611b79565b6040516107339190613c36565b60405180910390f35b610744611c0b565b6040516107519190613cca565b60405180910390f35b610774600480360381019061076f9190613b70565b611c35565b6040516107819190613af7565b60405180910390f35b610792611c68565b60405161079f919061405b565b60405180910390f35b6107b0611c8c565b6040516107bd919061405b565b60405180910390f35b6107e060048036038101906107db919061427a565b611c93565b005b6107ea611ca9565b6040516107f7919061405b565b60405180910390f35b61081a6004803603810190610815919061435b565b611ccd565b005b61083660048036038101906108319190613b70565b611d4e565b005b610840611dba565b60405161084d9190613de3565b60405180910390f35b610870600480360381019061086b9190613c8e565b611e48565b60405161087d9190613c36565b60405180910390f35b6108a0600480360381019061089b9190613b70565b611eef565b005b6108bc60048036038101906108b7919061401f565b611fb2565b6040516108c991906140c5565b60405180910390f35b6108ec60048036038101906108e79190614076565b611fd6565b005b6108f6611fff565b6040516109039190613de3565b60405180910390f35b61092660048036038101906109219190613b70565b61208d565b6040516109339190613af7565b60405180910390f35b61095660048036038101906109519190613b70565b6120c0565b6040516109639190613af7565b60405180910390f35b610986600480360381019061098191906143de565b6120f3565b6040516109939190613af7565b60405180910390f35b6109a4612187565b6040516109b1919061405b565b60405180910390f35b6109d460048036038101906109cf9190613b70565b6121ab565b6040516109e19190613af7565b60405180910390f35b60006109f5826122ef565b9050919050565b7f5f1d1e303f9c0a1801dd708bdc4239781d66c88ca6cb941c5769ba09b5c1b285610a2e81610a29612369565b612371565b610a587fe7837d04f36ce0b2f3cc662bf1b2b632a7fbd12ae95199e8bd3dcfbcc440b66b83611fd6565b610a6382600a61240e565b505050565b606060008054610a779061444d565b80601f0160208091040260200160405190810160405280929190818152602001828054610aa39061444d565b8015610af05780601f10610ac557610100808354040283529160200191610af0565b820191906000526020600020905b815481529060010190602001808311610ad357829003601f168201915b5050505050905090565b6000610b0582612622565b610b44576040517f08c379a0000000000000000000000000000000000000000000000000000000008152600401610b3b906144f1565b60405180910390fd5b6004600083815260200190815260200160002060009054906101000a900473ffffffffffffffffffffffffffffffffffffffff169050919050565b6000610b8a826116d0565b90508073ffffffffffffffffffffffffffffffffffffffff168373ffffffffffffffffffffffffffffffffffffffff161415610bfb576040517f08c379a0000000000000000000000000000000000000000000000000000000008152600401610bf290614583565b60405180910390fd5b8073ffffffffffffffffffffffffffffffffffffffff16610c1a612369565b73ffffffffffffffffffffffffffffffffffffffff161480610c495750610c4881610c43612369565b6120f3565b5b610c88576040517f08c379a0000000000000000000000000000000000000000000000000000000008152600401610c7f90614615565b60405180910390fd5b610c92838361268e565b505050565b7f5f1d1e303f9c0a1801dd708bdc4239781d66c88ca6cb941c5769ba09b5c1b285610cc981610cc4612369565b612371565b610cf37fe7837d04f36ce0b2f3cc662bf1b2b632a7fbd12ae95199e8bd3dcfbcc440b66b836111cf565b600a829080600181540180825580915050600190039060005260206000200160009091909190916101000a81548173ffffffffffffffffffffffffffffffffffffffff021916908373ffffffffffffffffffffffffffffffffffffffff1602179055505050565b6060600a805480602002602001604051908101604052809291908181526020018280548015610dde57602002820191906000526020600020905b8160009054906101000a900473ffffffffffffffffffffffffffffffffffffffff1673ffffffffffffffffffffffffffffffffffffffff1681526020019060010190808311610d94575b5050505050905090565b7f5f1d1e303f9c0a1801dd708bdc4239781d66c88ca6cb941c5769ba09b5c1b285610e1a81610e15612369565b612371565b610e447f36a5c4aaacb6b388bbd448bf11096b7dafc5652bcc9046084fd0e95b1fb0b2cc83611b0e565b610e83576040517f08c379a0000000000000000000000000000000000000000000000000000000008152600401610e7a906146a7565b60405180910390fd5b600f83604051610e939190614703565b908152602001604051809103902060009054906101000a900460ff1615610eef576040517f08c379a0000000000000000000000000000000000000000000000000000000008152600401610ee690614766565b60405180910390fd5b6000600e60008473ffffffffffffffffffffffffffffffffffffffff1673ffffffffffffffffffffffffffffffffffffffff1681526020019081526020016000205414610f71576040517f08c379a0000000000000000000000000000000000000000000000000000000008152600401610f68906147f8565b60405180910390fd5b610f7a826114b7565b601083908060018154018082558091505060019003906000526020600020016000909190919091509080519060200190610fb59291906139a0565b5060006010805490509050610fca8382612747565b6001600f85604051610fdc9190614703565b908152602001604051809103902060006101000a81548160ff02191690831515021790555080600e60008573ffffffffffffffffffffffffffffffffffffffff1673ffffffffffffffffffffffffffffffffffffffff1681526020019081526020016000208190555050505050565b600073ffffffffffffffffffffffffffffffffffffffff163373ffffffffffffffffffffffffffffffffffffffff16146110ba576040517f08c379a00000000000000000000000000000000000000000000000000000000081526004016110b19061488a565b60405180910390fd5b6110c5838383612915565b505050565b600060066000838152602001908152602001600020600101549050919050565b7f5f1d1e303f9c0a1801dd708bdc4239781d66c88ca6cb941c5769ba09b5c1b28581565b6060600980548060200260200160405190810160405280929190818152602001828054801561119257602002820191906000526020600020905b8160009054906101000a900473ffffffffffffffffffffffffffffffffffffffff1673ffffffffffffffffffffffffffffffffffffffff1681526020019060010190808311611148575b5050505050905090565b60006111c87f5f1d1e303f9c0a1801dd708bdc4239781d66c88ca6cb941c5769ba09b5c1b28583611b0e565b9050919050565b6111d8826110ca565b6111e9816111e4612369565b612371565b6111f38383612975565b505050565b7f5f1d1e303f9c0a1801dd708bdc4239781d66c88ca6cb941c5769ba09b5c1b28561122a81611225612369565b612371565b6112547f36a5c4aaacb6b388bbd448bf11096b7dafc5652bcc9046084fd0e95b1fb0b2cc83611fd6565b61125f82600c61240e565b505050565b61126c612369565b73ffffffffffffffffffffffffffffffffffffffff168173ffffffffffffffffffffffffffffffffffffffff16146112d9576040517f08c379a00000000000000000000000000000000000000000000000000000000081526004016112d09061491c565b60405180910390fd5b6112e382826129a9565b5050565b600073ffffffffffffffffffffffffffffffffffffffff163373ffffffffffffffffffffffffffffffffffffffff1614611356576040517f08c379a000000000000000000000000000000000000000000000000000000000815260040161134d9061488a565b60405180910390fd5b6113618383836129dd565b505050565b7f5f1d1e303f9c0a1801dd708bdc4239781d66c88ca6cb941c5769ba09b5c1b28561139881611393612369565b612371565b6113c27ff3f9cfff7b46f415da5a492b1718971da203f87c6aae9299e7b408eb83ef8bee836111cf565b6009829080600181540180825580915050600190039060005260206000200160009091909190916101000a81548173ffffffffffffffffffffffffffffffffffffffff021916908373ffffffffffffffffffffffffffffffffffffffff1602179055505050565b6060600b8054806020026020016040519081016040528092919081815260200182805480156114ad57602002820191906000526020600020905b8160009054906101000a900473ffffffffffffffffffffffffffffffffffffffff1673ffffffffffffffffffffffffffffffffffffffff1681526020019060010190808311611463575b5050505050905090565b7f5f1d1e303f9c0a1801dd708bdc4239781d66c88ca6cb941c5769ba09b5c1b2856114e9816114e4612369565b612371565b6115137f36a5c4aaacb6b388bbd448bf11096b7dafc5652bcc9046084fd0e95b1fb0b2cc83611b0e565b611552576040517f08c379a000000000000000000000000000000000000000000000000000000000815260040161154990614988565b60405180910390fd5b61157c7f36a5c4aaacb6b388bbd448bf11096b7dafc5652bcc9046084fd0e95b1fb0b2cc83611fd6565b6115a67f4758f7d70d6088cbfad5c79861ac6457ba2af02adf5ea419e97879ae24459cb6836111cf565b600d829080600181540180825580915050600190039060005260206000200160009091909190916101000a81548173ffffffffffffffffffffffffffffffffffffffff021916908373ffffffffffffffffffffffffffffffffffffffff1602179055505050565b7f5f1d1e303f9c0a1801dd708bdc4239781d66c88ca6cb941c5769ba09b5c1b28561163f8161163a612369565b612371565b6116697fae4a0595970935aa5495afbbb72e5f1f6ff1062766b4a3028c0c9b7d5cf7e345836111cf565b600b829080600181540180825580915050600190039060005260206000200160009091909190916101000a81548173ffffffffffffffffffffffffffffffffffffffff021916908373ffffffffffffffffffffffffffffffffffffffff1602179055505050565b6000806002600084815260200190815260200160002060009054906101000a900473ffffffffffffffffffffffffffffffffffffffff169050600073ffffffffffffffffffffffffffffffffffffffff168173ffffffffffffffffffffffffffffffffffffffff161415611779576040517f08c379a000000000000000000000000000000000000000000000000000000000815260040161177090614a1a565b60405180910390fd5b80915050919050565b7ff3f9cfff7b46f415da5a492b1718971da203f87c6aae9299e7b408eb83ef8bee81565b60008073ffffffffffffffffffffffffffffffffffffffff168273ffffffffffffffffffffffffffffffffffffffff161415611817576040517f08c379a000000000000000000000000000000000000000000000000000000000815260040161180e90614aac565b60405180910390fd5b600360008373ffffffffffffffffffffffffffffffffffffffff1673ffffffffffffffffffffffffffffffffffffffff168152602001908152602001600020549050919050565b600061188a7f4758f7d70d6088cbfad5c79861ac6457ba2af02adf5ea419e97879ae24459cb683611b0e565b9050919050565b60606010805480602002602001604051908101604052809291908181526020016000905b828210156119615783829060005260206000200180546118d49061444d565b80601f01602080910402602001604051908101604052809291908181526020018280546119009061444d565b801561194d5780601f106119225761010080835404028352916020019161194d565b820191906000526020600020905b81548152906001019060200180831161193057829003601f168201915b5050505050815260200190600101906118b5565b50505050905090565b7f5f1d1e303f9c0a1801dd708bdc4239781d66c88ca6cb941c5769ba09b5c1b28561199c81611997612369565b612371565b6119c67fae4a0595970935aa5495afbbb72e5f1f6ff1062766b4a3028c0c9b7d5cf7e34583611fd6565b6119d182600b61240e565b505050565b7fae4a0595970935aa5495afbbb72e5f1f6ff1062766b4a3028c0c9b7d5cf7e34581565b7f5f1d1e303f9c0a1801dd708bdc4239781d66c88ca6cb941c5769ba09b5c1b285611a2c81611a27612369565b612371565b611a567f5f1d1e303f9c0a1801dd708bdc4239781d66c88ca6cb941c5769ba09b5c1b285836111cf565b611a636000801b836111cf565b611a706000801b33611264565b611a9a7f5f1d1e303f9c0a1801dd708bdc4239781d66c88ca6cb941c5769ba09b5c1b28533611264565b81600860006101000a81548173ffffffffffffffffffffffffffffffffffffffff021916908373ffffffffffffffffffffffffffffffffffffffff1602179055505050565b6000611b0682600760008681526020019081526020016000206129fd90919063ffffffff16565b905092915050565b60006006600084815260200190815260200160002060000160008373ffffffffffffffffffffffffffffffffffffffff1673ffffffffffffffffffffffffffffffffffffffff16815260200190815260200160002060009054906101000a900460ff16905092915050565b606060018054611b889061444d565b80601f0160208091040260200160405190810160405280929190818152602001828054611bb49061444d565b8015611c015780601f10611bd657610100808354040283529160200191611c01565b820191906000526020600020905b815481529060010190602001808311611be457829003601f168201915b5050505050905090565b6000600860009054906101000a900473ffffffffffffffffffffffffffffffffffffffff16905090565b6000611c617fae4a0595970935aa5495afbbb72e5f1f6ff1062766b4a3028c0c9b7d5cf7e34583611b0e565b9050919050565b7fe7837d04f36ce0b2f3cc662bf1b2b632a7fbd12ae95199e8bd3dcfbcc440b66b81565b6000801b81565b611ca5611c9e612369565b8383612a17565b5050565b7f4758f7d70d6088cbfad5c79861ac6457ba2af02adf5ea419e97879ae24459cb681565b600073ffffffffffffffffffffffffffffffffffffffff163373ffffffffffffffffffffffffffffffffffffffff1614611d3c576040517f08c379a0000000000000000000000000000000000000000000000000000000008152600401611d339061488a565b60405180910390fd5b611d4884848484612b84565b50505050565b7f5f1d1e303f9c0a1801dd708bdc4239781d66c88ca6cb941c5769ba09b5c1b285611d8081611d7b612369565b612371565b611daa7ff3f9cfff7b46f415da5a492b1718971da203f87c6aae9299e7b408eb83ef8bee83611fd6565b611db582600961240e565b505050565b6060600c805480602002602001604051908101604052809291908181526020018280548015611e3e57602002820191906000526020600020905b8160009054906101000a900473ffffffffffffffffffffffffffffffffffffffff1673ffffffffffffffffffffffffffffffffffffffff1681526020019060010190808311611df4575b5050505050905090565b6060611e5382612622565b611e92576040517f08c379a0000000000000000000000000000000000000000000000000000000008152600401611e8990614b3e565b60405180910390fd5b6000611e9c612be6565b90506000815111611ebc5760405180602001604052806000815250611ee7565b80611ec684612bfd565b604051602001611ed7929190614b5e565b6040516020818303038152906040525b915050919050565b7f5f1d1e303f9c0a1801dd708bdc4239781d66c88ca6cb941c5769ba09b5c1b285611f2181611f1c612369565b612371565b611f4b7f36a5c4aaacb6b388bbd448bf11096b7dafc5652bcc9046084fd0e95b1fb0b2cc836111cf565b600c829080600181540180825580915050600190039060005260206000200160009091909190916101000a81548173ffffffffffffffffffffffffffffffffffffffff021916908373ffffffffffffffffffffffffffffffffffffffff1602179055505050565b6000611fcf60076000848152602001908152602001600020612d5e565b9050919050565b611fdf826110ca565b611ff081611feb612369565b612371565b611ffa83836129a9565b505050565b6060600d80548060200260200160405190810160405280929190818152602001828054801561208357602002820191906000526020600020905b8160009054906101000a900473ffffffffffffffffffffffffffffffffffffffff1673ffffffffffffffffffffffffffffffffffffffff1681526020019060010190808311612039575b5050505050905090565b60006120b97fe7837d04f36ce0b2f3cc662bf1b2b632a7fbd12ae95199e8bd3dcfbcc440b66b83611b0e565b9050919050565b60006120ec7ff3f9cfff7b46f415da5a492b1718971da203f87c6aae9299e7b408eb83ef8bee83611b0e565b9050919050565b6000600560008473ffffffffffffffffffffffffffffffffffffffff1673ffffffffffffffffffffffffffffffffffffffff16815260200190815260200160002060008373ffffffffffffffffffffffffffffffffffffffff1673ffffffffffffffffffffffffffffffffffffffff16815260200190815260200160002060009054906101000a900460ff16905092915050565b7f36a5c4aaacb6b388bbd448bf11096b7dafc5652bcc9046084fd0e95b1fb0b2cc81565b60006121d77f36a5c4aaacb6b388bbd448bf11096b7dafc5652bcc9046084fd0e95b1fb0b2cc83611b0e565b9050919050565b6121e88282611b0e565b6122bb5760016006600084815260200190815260200160002060000160008373ffffffffffffffffffffffffffffffffffffffff1673ffffffffffffffffffffffffffffffffffffffff16815260200190815260200160002060006101000a81548160ff021916908315150217905550612260612369565b73ffffffffffffffffffffffffffffffffffffffff168173ffffffffffffffffffffffffffffffffffffffff16837f2f8788117e7eff1d82e926ec794901d17c78024a50270940304540a733656f0d60405160405180910390a45b5050565b60006122e7836000018373ffffffffffffffffffffffffffffffffffffffff1660001b612d73565b905092915050565b60007f5a05180f000000000000000000000000000000000000000000000000000000007bffffffffffffffffffffffffffffffffffffffffffffffffffffffff1916827bffffffffffffffffffffffffffffffffffffffffffffffffffffffff19161480612362575061236182612de3565b5b9050919050565b600033905090565b61237b8282611b0e565b61240a576123a08173ffffffffffffffffffffffffffffffffffffffff166014612e5d565b6123ae8360001c6020612e5d565b6040516020016123bf929190614c1a565b6040516020818303038152906040526040517f08c379a00000000000000000000000000000000000000000000000000000000081526004016124019190613c36565b60405180910390fd5b5050565b606060005b8280549050811015612593578373ffffffffffffffffffffffffffffffffffffffff1683828154811061244957612448614c54565b5b9060005260206000200160009054906101000a900473ffffffffffffffffffffffffffffffffffffffff1673ffffffffffffffffffffffffffffffffffffffff1614156125805782600184805490506124a29190614cb2565b815481106124b3576124b2614c54565b5b9060005260206000200160009054906101000a900473ffffffffffffffffffffffffffffffffffffffff168382815481106124f1576124f0614c54565b5b9060005260206000200160006101000a81548173ffffffffffffffffffffffffffffffffffffffff021916908373ffffffffffffffffffffffffffffffffffffffff1602179055508280548061254a57612549614ce6565b5b6001900381819060005260206000200160006101000a81549073ffffffffffffffffffffffffffffffffffffffff021916905590555b808061258b90614d15565b915050612413565b508180548060200260200160405190810160405280929190818152602001828054801561261557602002820191906000526020600020905b8160009054906101000a900473ffffffffffffffffffffffffffffffffffffffff1673ffffffffffffffffffffffffffffffffffffffff16815260200190600101908083116125cb575b5050505050905092915050565b60008073ffffffffffffffffffffffffffffffffffffffff166002600084815260200190815260200160002060009054906101000a900473ffffffffffffffffffffffffffffffffffffffff1673ffffffffffffffffffffffffffffffffffffffff1614159050919050565b816004600083815260200190815260200160002060006101000a81548173ffffffffffffffffffffffffffffffffffffffff021916908373ffffffffffffffffffffffffffffffffffffffff160217905550808273ffffffffffffffffffffffffffffffffffffffff16612701836116d0565b73ffffffffffffffffffffffffffffffffffffffff167f8c5be1e5ebec7d5bd14f71427d1e84f3dd0314c0f7b2291e5b200ac8c7c3b92560405160405180910390a45050565b600073ffffffffffffffffffffffffffffffffffffffff168273ffffffffffffffffffffffffffffffffffffffff1614156127b7576040517f08c379a00000000000000000000000000000000000000000000000000000000081526004016127ae90614daa565b60405180910390fd5b6127c081612622565b15612800576040517f08c379a00000000000000000000000000000000000000000000000000000000081526004016127f790614e16565b60405180910390fd5b61280c60008383613099565b6001600360008473ffffffffffffffffffffffffffffffffffffffff1673ffffffffffffffffffffffffffffffffffffffff168152602001908152602001600020600082825461285c9190614e36565b92505081905550816002600083815260200190815260200160002060006101000a81548173ffffffffffffffffffffffffffffffffffffffff021916908373ffffffffffffffffffffffffffffffffffffffff160217905550808273ffffffffffffffffffffffffffffffffffffffff16600073ffffffffffffffffffffffffffffffffffffffff167fddf252ad1be2c89b69c2b068fc378daa952ba7f163c4a11628f55a4df523b3ef60405160405180910390a45050565b612926612920612369565b8261309e565b612965576040517f08c379a000000000000000000000000000000000000000000000000000000000815260040161295c90614efe565b60405180910390fd5b61297083838361317c565b505050565b61297f82826121de565b6129a481600760008581526020019081526020016000206122bf90919063ffffffff16565b505050565b6129b382826133d8565b6129d881600760008581526020019081526020016000206134ba90919063ffffffff16565b505050565b6129f883838360405180602001604052806000815250611ccd565b505050565b6000612a0c83600001836134ea565b60001c905092915050565b8173ffffffffffffffffffffffffffffffffffffffff168373ffffffffffffffffffffffffffffffffffffffff161415612a86576040517f08c379a0000000000000000000000000000000000000000000000000000000008152600401612a7d90614f6a565b60405180910390fd5b80600560008573ffffffffffffffffffffffffffffffffffffffff1673ffffffffffffffffffffffffffffffffffffffff16815260200190815260200160002060008473ffffffffffffffffffffffffffffffffffffffff1673ffffffffffffffffffffffffffffffffffffffff16815260200190815260200160002060006101000a81548160ff0219169083151502179055508173ffffffffffffffffffffffffffffffffffffffff168373ffffffffffffffffffffffffffffffffffffffff167f17307eab39ab6107e8899845ad3d59bd9653f200f220920489ca2b5937696c3183604051612b779190613af7565b60405180910390a3505050565b612b95612b8f612369565b8361309e565b612bd4576040517f08c379a0000000000000000000000000000000000000000000000000000000008152600401612bcb90614efe565b60405180910390fd5b612be084848484613515565b50505050565b606060405180602001604052806000815250905090565b60606000821415612c45576040518060400160405280600181526020017f30000000000000000000000000000000000000000000000000000000000000008152509050612d59565b600082905060005b60008214612c77578080612c6090614d15565b915050600a82612c709190614fb9565b9150612c4d565b60008167ffffffffffffffff811115612c9357612c92613e0f565b5b6040519080825280601f01601f191660200182016040528015612cc55781602001600182028036833780820191505090505b5090505b60008514612d5257600182612cde9190614cb2565b9150600a85612ced9190614fea565b6030612cf99190614e36565b60f81b818381518110612d0f57612d0e614c54565b5b60200101907effffffffffffffffffffffffffffffffffffffffffffffffffffffffffffff1916908160001a905350600a85612d4b9190614fb9565b9450612cc9565b8093505050505b919050565b6000612d6c82600001613571565b9050919050565b6000612d7f8383613582565b612dd8578260000182908060018154018082558091505060019003906000526020600020016000909190919091505582600001805490508360010160008481526020019081526020016000208190555060019050612ddd565b600090505b92915050565b60007f7965db0b000000000000000000000000000000000000000000000000000000007bffffffffffffffffffffffffffffffffffffffffffffffffffffffff1916827bffffffffffffffffffffffffffffffffffffffffffffffffffffffff19161480612e565750612e55826135a5565b5b9050919050565b606060006002836002612e70919061501b565b612e7a9190614e36565b67ffffffffffffffff811115612e9357612e92613e0f565b5b6040519080825280601f01601f191660200182016040528015612ec55781602001600182028036833780820191505090505b5090507f300000000000000000000000000000000000000000000000000000000000000081600081518110612efd57612efc614c54565b5b60200101907effffffffffffffffffffffffffffffffffffffffffffffffffffffffffffff1916908160001a9053507f780000000000000000000000000000000000000000000000000000000000000081600181518110612f6157612f60614c54565b5b60200101907effffffffffffffffffffffffffffffffffffffffffffffffffffffffffffff1916908160001a90535060006001846002612fa1919061501b565b612fab9190614e36565b90505b600181111561304b577f3031323334353637383961626364656600000000000000000000000000000000600f861660108110612fed57612fec614c54565b5b1a60f81b82828151811061300457613003614c54565b5b60200101907effffffffffffffffffffffffffffffffffffffffffffffffffffffffffffff1916908160001a905350600485901c94508061304490615075565b9050612fae565b506000841461308f576040517f08c379a0000000000000000000000000000000000000000000000000000000008152600401613086906150eb565b60405180910390fd5b8091505092915050565b505050565b60006130a982612622565b6130e8576040517f08c379a00000000000000000000000000000000000000000000000000000000081526004016130df9061517d565b60405180910390fd5b60006130f3836116d0565b90508073ffffffffffffffffffffffffffffffffffffffff168473ffffffffffffffffffffffffffffffffffffffff16148061316257508373ffffffffffffffffffffffffffffffffffffffff1661314a84610afa565b73ffffffffffffffffffffffffffffffffffffffff16145b80613173575061317281856120f3565b5b91505092915050565b8273ffffffffffffffffffffffffffffffffffffffff1661319c826116d0565b73ffffffffffffffffffffffffffffffffffffffff16146131f2576040517f08c379a00000000000000000000000000000000000000000000000000000000081526004016131e99061520f565b60405180910390fd5b600073ffffffffffffffffffffffffffffffffffffffff168273ffffffffffffffffffffffffffffffffffffffff161415613262576040517f08c379a0000000000000000000000000000000000000000000000000000000008152600401613259906152a1565b60405180910390fd5b61326d838383613099565b61327860008261268e565b6001600360008573ffffffffffffffffffffffffffffffffffffffff1673ffffffffffffffffffffffffffffffffffffffff16815260200190815260200160002060008282546132c89190614cb2565b925050819055506001600360008473ffffffffffffffffffffffffffffffffffffffff1673ffffffffffffffffffffffffffffffffffffffff168152602001908152602001600020600082825461331f9190614e36565b92505081905550816002600083815260200190815260200160002060006101000a81548173ffffffffffffffffffffffffffffffffffffffff021916908373ffffffffffffffffffffffffffffffffffffffff160217905550808273ffffffffffffffffffffffffffffffffffffffff168473ffffffffffffffffffffffffffffffffffffffff167fddf252ad1be2c89b69c2b068fc378daa952ba7f163c4a11628f55a4df523b3ef60405160405180910390a4505050565b6133e28282611b0e565b156134b65760006006600084815260200190815260200160002060000160008373ffffffffffffffffffffffffffffffffffffffff1673ffffffffffffffffffffffffffffffffffffffff16815260200190815260200160002060006101000a81548160ff02191690831515021790555061345b612369565b73ffffffffffffffffffffffffffffffffffffffff168173ffffffffffffffffffffffffffffffffffffffff16837ff6391f5c32d9c69d2a47ea670b442974b53935d1edc7fd64eb21e047a839171b60405160405180910390a45b5050565b60006134e2836000018373ffffffffffffffffffffffffffffffffffffffff1660001b613687565b905092915050565b600082600001828154811061350257613501614c54565b5b9060005260206000200154905092915050565b61352084848461317c565b61352c8484848461379b565b61356b576040517f08c379a000000000000000000000000000000000000000000000000000000000815260040161356290615333565b60405180910390fd5b50505050565b600081600001805490509050919050565b600080836001016000848152602001908152602001600020541415905092915050565b60007f80ac58cd000000000000000000000000000000000000000000000000000000007bffffffffffffffffffffffffffffffffffffffffffffffffffffffff1916827bffffffffffffffffffffffffffffffffffffffffffffffffffffffff1916148061367057507f5b5e139f000000000000000000000000000000000000000000000000000000007bffffffffffffffffffffffffffffffffffffffffffffffffffffffff1916827bffffffffffffffffffffffffffffffffffffffffffffffffffffffff1916145b80613680575061367f82613923565b5b9050919050565b6000808360010160008481526020019081526020016000205490506000811461378f5760006001826136b99190614cb2565b90506000600186600001805490506136d19190614cb2565b90508181146137405760008660000182815481106136f2576136f1614c54565b5b906000526020600020015490508087600001848154811061371657613715614c54565b5b90600052602060002001819055508387600101600083815260200190815260200160002081905550505b8560000180548061375457613753614ce6565b5b600190038181906000526020600020016000905590558560010160008681526020019081526020016000206000905560019350505050613795565b60009150505b92915050565b60006137bc8473ffffffffffffffffffffffffffffffffffffffff1661398d565b15613916578373ffffffffffffffffffffffffffffffffffffffff1663150b7a026137e5612369565b8786866040518563ffffffff1660e01b815260040161380794939291906153a8565b6020604051808303816000875af192505050801561384357506040513d601f19601f820116820180604052508101906138409190615409565b60015b6138c6573d8060008114613873576040519150601f19603f3d011682016040523d82523d6000602084013e613878565b606091505b506000815114156138be576040517f08c379a00000000000000000000000000000000000000000000000000000000081526004016138b590615333565b60405180910390fd5b805181602001fd5b63150b7a0260e01b7bffffffffffffffffffffffffffffffffffffffffffffffffffffffff1916817bffffffffffffffffffffffffffffffffffffffffffffffffffffffff19161491505061391b565b600190505b949350505050565b60007f01ffc9a7000000000000000000000000000000000000000000000000000000007bffffffffffffffffffffffffffffffffffffffffffffffffffffffff1916827bffffffffffffffffffffffffffffffffffffffffffffffffffffffff1916149050919050565b600080823b905060008111915050919050565b8280546139ac9061444d565b90600052602060002090601f0160209004810192826139ce5760008555613a15565b82601f106139e757805160ff1916838001178555613a15565b82800160010185558215613a15579182015b82811115613a145782518255916020019190600101906139f9565b5b509050613a229190613a26565b5090565b5b80821115613a3f576000816000905550600101613a27565b5090565b6000604051905090565b600080fd5b600080fd5b60007fffffffff0000000000000000000000000000000000000000000000000000000082169050919050565b613a8c81613a57565b8114613a9757600080fd5b50565b600081359050613aa981613a83565b92915050565b600060208284031215613ac557613ac4613a4d565b5b6000613ad384828501613a9a565b91505092915050565b60008115159050919050565b613af181613adc565b82525050565b6000602082019050613b0c6000830184613ae8565b92915050565b600073ffffffffffffffffffffffffffffffffffffffff82169050919050565b6000613b3d82613b12565b9050919050565b613b4d81613b32565b8114613b5857600080fd5b50565b600081359050613b6a81613b44565b92915050565b600060208284031215613b8657613b85613a4d565b5b6000613b9484828501613b5b565b91505092915050565b600081519050919050565b600082825260208201905092915050565b60005b83811015613bd7578082015181840152602081019050613bbc565b83811115613be6576000848401525b50505050565b6000601f19601f8301169050919050565b6000613c0882613b9d565b613c128185613ba8565b9350613c22818560208601613bb9565b613c2b81613bec565b840191505092915050565b60006020820190508181036000830152613c508184613bfd565b905092915050565b6000819050919050565b613c6b81613c58565b8114613c7657600080fd5b50565b600081359050613c8881613c62565b92915050565b600060208284031215613ca457613ca3613a4d565b5b6000613cb284828501613c79565b91505092915050565b613cc481613b32565b82525050565b6000602082019050613cdf6000830184613cbb565b92915050565b60008060408385031215613cfc57613cfb613a4d565b5b6000613d0a85828601613b5b565b9250506020613d1b85828601613c79565b9150509250929050565b600081519050919050565b600082825260208201905092915050565b6000819050602082019050919050565b613d5a81613b32565b82525050565b6000613d6c8383613d51565b60208301905092915050565b6000602082019050919050565b6000613d9082613d25565b613d9a8185613d30565b9350613da583613d41565b8060005b83811015613dd6578151613dbd8882613d60565b9750613dc883613d78565b925050600181019050613da9565b5085935050505092915050565b60006020820190508181036000830152613dfd8184613d85565b905092915050565b600080fd5b600080fd5b7f4e487b7100000000000000000000000000000000000000000000000000000000600052604160045260246000fd5b613e4782613bec565b810181811067ffffffffffffffff82111715613e6657613e65613e0f565b5b80604052505050565b6000613e79613a43565b9050613e858282613e3e565b919050565b600067ffffffffffffffff821115613ea557613ea4613e0f565b5b613eae82613bec565b9050602081019050919050565b82818337600083830152505050565b6000613edd613ed884613e8a565b613e6f565b905082815260208101848484011115613ef957613ef8613e0a565b5b613f04848285613ebb565b509392505050565b600082601f830112613f2157613f20613e05565b5b8135613f31848260208601613eca565b91505092915050565b60008060408385031215613f5157613f50613a4d565b5b600083013567ffffffffffffffff811115613f6f57613f6e613a52565b5b613f7b85828601613f0c565b9250506020613f8c85828601613b5b565b9150509250929050565b600080600060608486031215613faf57613fae613a4d565b5b6000613fbd86828701613b5b565b9350506020613fce86828701613b5b565b9250506040613fdf86828701613c79565b9150509250925092565b6000819050919050565b613ffc81613fe9565b811461400757600080fd5b50565b60008135905061401981613ff3565b92915050565b60006020828403121561403557614034613a4d565b5b60006140438482850161400a565b91505092915050565b61405581613fe9565b82525050565b6000602082019050614070600083018461404c565b92915050565b6000806040838503121561408d5761408c613a4d565b5b600061409b8582860161400a565b92505060206140ac85828601613b5b565b9150509250929050565b6140bf81613c58565b82525050565b60006020820190506140da60008301846140b6565b92915050565b600081519050919050565b600082825260208201905092915050565b6000819050602082019050919050565b600082825260208201905092915050565b600061412882613b9d565b614132818561410c565b9350614142818560208601613bb9565b61414b81613bec565b840191505092915050565b6000614162838361411d565b905092915050565b6000602082019050919050565b6000614182826140e0565b61418c81856140eb565b93508360208202850161419e856140fc565b8060005b858110156141da57848403895281516141bb8582614156565b94506141c68361416a565b925060208a019950506001810190506141a2565b50829750879550505050505092915050565b600060208201905081810360008301526142068184614177565b905092915050565b6000806040838503121561422557614224613a4d565b5b60006142338582860161400a565b925050602061424485828601613c79565b9150509250929050565b61425781613adc565b811461426257600080fd5b50565b6000813590506142748161424e565b92915050565b6000806040838503121561429157614290613a4d565b5b600061429f85828601613b5b565b92505060206142b085828601614265565b9150509250929050565b600067ffffffffffffffff8211156142d5576142d4613e0f565b5b6142de82613bec565b9050602081019050919050565b60006142fe6142f9846142ba565b613e6f565b90508281526020810184848401111561431a57614319613e0a565b5b614325848285613ebb565b509392505050565b600082601f83011261434257614341613e05565b5b81356143528482602086016142eb565b91505092915050565b6000806000806080858703121561437557614374613a4d565b5b600061438387828801613b5b565b945050602061439487828801613b5b565b93505060406143a587828801613c79565b925050606085013567ffffffffffffffff8111156143c6576143c5613a52565b5b6143d28782880161432d565b91505092959194509250565b600080604083850312156143f5576143f4613a4d565b5b600061440385828601613b5b565b925050602061441485828601613b5b565b9150509250929050565b7f4e487b7100000000000000000000000000000000000000000000000000000000600052602260045260246000fd5b6000600282049050600182168061446557607f821691505b602082108114156144795761447861441e565b5b50919050565b7f4552433732313a20617070726f76656420717565727920666f72206e6f6e657860008201527f697374656e7420746f6b656e0000000000000000000000000000000000000000602082015250565b60006144db602c83613ba8565b91506144e68261447f565b604082019050919050565b6000602082019050818103600083015261450a816144ce565b9050919050565b7f4552433732313a20617070726f76616c20746f2063757272656e74206f776e6560008201527f7200000000000000000000000000000000000000000000000000000000000000602082015250565b600061456d602183613ba8565b915061457882614511565b604082019050919050565b6000602082019050818103600083015261459c81614560565b9050919050565b7f4552433732313a20617070726f76652063616c6c6572206973206e6f74206f7760008201527f6e6572206e6f7220617070726f76656420666f7220616c6c0000000000000000602082015250565b60006145ff603883613ba8565b915061460a826145a3565b604082019050919050565b6000602082019050818103600083015261462e816145f2565b9050919050565b7f546869732061646472657373206973206e6f7420696e2053545544454e545f5260008201527f4f4c450000000000000000000000000000000000000000000000000000000000602082015250565b6000614691602383613ba8565b915061469c82614635565b604082019050919050565b600060208201905081810360008301526146c081614684565b9050919050565b600081905092915050565b60006146dd82613b9d565b6146e781856146c7565b93506146f7818560208601613bb9565b80840191505092915050565b600061470f82846146d2565b915081905092915050565b7f54686973206c696e6b20697320616c7265616479206d696e7465640000000000600082015250565b6000614750601b83613ba8565b915061475b8261471a565b602082019050919050565b6000602082019050818103600083015261477f81614743565b9050919050565b7f5468697320677261647561746520616c7265616479206861732061204469706c60008201527f6f6d610000000000000000000000000000000000000000000000000000000000602082015250565b60006147e2602383613ba8565b91506147ed82614786565b604082019050919050565b60006020820190508181036000830152614811816147d5565b9050919050565b7f5472616e73666572206166746572206d696e742069732070726f68696269746560008201527f6400000000000000000000000000000000000000000000000000000000000000602082015250565b6000614874602183613ba8565b915061487f82614818565b604082019050919050565b600060208201905081810360008301526148a381614867565b9050919050565b7f416363657373436f6e74726f6c3a2063616e206f6e6c792072656e6f756e636560008201527f20726f6c657320666f722073656c660000000000000000000000000000000000602082015250565b6000614906602f83613ba8565b9150614911826148aa565b604082019050919050565b60006020820190508181036000830152614935816148f9565b9050919050565b7f5468652061646472657373206973206e6f7420612073747564656e7400000000600082015250565b6000614972601c83613ba8565b915061497d8261493c565b602082019050919050565b600060208201905081810360008301526149a181614965565b9050919050565b7f4552433732313a206f776e657220717565727920666f72206e6f6e657869737460008201527f656e7420746f6b656e0000000000000000000000000000000000000000000000602082015250565b6000614a04602983613ba8565b9150614a0f826149a8565b604082019050919050565b60006020820190508181036000830152614a33816149f7565b9050919050565b7f4552433732313a2062616c616e636520717565727920666f7220746865207a6560008201527f726f206164647265737300000000000000000000000000000000000000000000602082015250565b6000614a96602a83613ba8565b9150614aa182614a3a565b604082019050919050565b60006020820190508181036000830152614ac581614a89565b9050919050565b7f4552433732314d657461646174613a2055524920717565727920666f72206e6f60008201527f6e6578697374656e7420746f6b656e0000000000000000000000000000000000602082015250565b6000614b28602f83613ba8565b9150614b3382614acc565b604082019050919050565b60006020820190508181036000830152614b5781614b1b565b9050919050565b6000614b6a82856146d2565b9150614b7682846146d2565b91508190509392505050565b7f416363657373436f6e74726f6c3a206163636f756e7420000000000000000000600082015250565b6000614bb86017836146c7565b9150614bc382614b82565b601782019050919050565b7f206973206d697373696e6720726f6c6520000000000000000000000000000000600082015250565b6000614c046011836146c7565b9150614c0f82614bce565b601182019050919050565b6000614c2582614bab565b9150614c3182856146d2565b9150614c3c82614bf7565b9150614c4882846146d2565b91508190509392505050565b7f4e487b7100000000000000000000000000000000000000000000000000000000600052603260045260246000fd5b7f4e487b7100000000000000000000000000000000000000000000000000000000600052601160045260246000fd5b6000614cbd82613c58565b9150614cc883613c58565b925082821015614cdb57614cda614c83565b5b828203905092915050565b7f4e487b7100000000000000000000000000000000000000000000000000000000600052603160045260246000fd5b6000614d2082613c58565b91507fffffffffffffffffffffffffffffffffffffffffffffffffffffffffffffffff821415614d5357614d52614c83565b5b600182019050919050565b7f4552433732313a206d696e7420746f20746865207a65726f2061646472657373600082015250565b6000614d94602083613ba8565b9150614d9f82614d5e565b602082019050919050565b60006020820190508181036000830152614dc381614d87565b9050919050565b7f4552433732313a20746f6b656e20616c7265616479206d696e74656400000000600082015250565b6000614e00601c83613ba8565b9150614e0b82614dca565b602082019050919050565b60006020820190508181036000830152614e2f81614df3565b9050919050565b6000614e4182613c58565b9150614e4c83613c58565b9250827fffffffffffffffffffffffffffffffffffffffffffffffffffffffffffffffff03821115614e8157614e80614c83565b5b828201905092915050565b7f4552433732313a207472616e736665722063616c6c6572206973206e6f74206f60008201527f776e6572206e6f7220617070726f766564000000000000000000000000000000602082015250565b6000614ee8603183613ba8565b9150614ef382614e8c565b604082019050919050565b60006020820190508181036000830152614f1781614edb565b9050919050565b7f4552433732313a20617070726f766520746f2063616c6c657200000000000000600082015250565b6000614f54601983613ba8565b9150614f5f82614f1e565b602082019050919050565b60006020820190508181036000830152614f8381614f47565b9050919050565b7f4e487b7100000000000000000000000000000000000000000000000000000000600052601260045260246000fd5b6000614fc482613c58565b9150614fcf83613c58565b925082614fdf57614fde614f8a565b5b828204905092915050565b6000614ff582613c58565b915061500083613c58565b9250826150105761500f614f8a565b5b828206905092915050565b600061502682613c58565b915061503183613c58565b9250817fffffffffffffffffffffffffffffffffffffffffffffffffffffffffffffffff048311821515161561506a57615069614c83565b5b828202905092915050565b600061508082613c58565b9150600082141561509457615093614c83565b5b600182039050919050565b7f537472696e67733a20686578206c656e67746820696e73756666696369656e74600082015250565b60006150d5602083613ba8565b91506150e08261509f565b602082019050919050565b60006020820190508181036000830152615104816150c8565b9050919050565b7f4552433732313a206f70657261746f7220717565727920666f72206e6f6e657860008201527f697374656e7420746f6b656e0000000000000000000000000000000000000000602082015250565b6000615167602c83613ba8565b91506151728261510b565b604082019050919050565b600060208201905081810360008301526151968161515a565b9050919050565b7f4552433732313a207472616e73666572206f6620746f6b656e2074686174206960008201527f73206e6f74206f776e0000000000000000000000000000000000000000000000602082015250565b60006151f9602983613ba8565b91506152048261519d565b604082019050919050565b60006020820190508181036000830152615228816151ec565b9050919050565b7f4552433732313a207472616e7366657220746f20746865207a65726f2061646460008201527f7265737300000000000000000000000000000000000000000000000000000000602082015250565b600061528b602483613ba8565b91506152968261522f565b604082019050919050565b600060208201905081810360008301526152ba8161527e565b9050919050565b7f4552433732313a207472616e7366657220746f206e6f6e20455243373231526560008201527f63656976657220696d706c656d656e7465720000000000000000000000000000602082015250565b600061531d603283613ba8565b9150615328826152c1565b604082019050919050565b6000602082019050818103600083015261534c81615310565b9050919050565b600081519050919050565b600082825260208201905092915050565b600061537a82615353565b615384818561535e565b9350615394818560208601613bb9565b61539d81613bec565b840191505092915050565b60006080820190506153bd6000830187613cbb565b6153ca6020830186613cbb565b6153d760408301856140b6565b81810360608301526153e9818461536f565b905095945050505050565b60008151905061540381613a83565b92915050565b60006020828403121561541f5761541e613a4d565b5b600061542d848285016153f4565b9150509291505056fea264697066735822122063fa134349fb62f399f96f97b186ec1016a3d7c65ef90398606d5e6f8fb80da664736f6c634300080a0033",
  "immutableReferences": {},
  "source": "pragma solidity ^0.8.10;\r\n\r\nimport \"@openzeppelin/contracts/token/ERC721/ERC721.sol\";\r\nimport \"./Roles.sol\";\r\nimport \"./Department.sol\";\r\n\r\ncontract Diploma is ERC721, Roles {\r\n\r\n    //Mapping owner to the tokenID\r\n    mapping(address => uint256) _hasCertificate;\r\n    //Mapping tokenID to the owner is defined in ERC721.sol as ownerOf\r\n    //is Diploma link exist\r\n    mapping(string => bool) _diplomaExist;\r\n    //List of Diploma Links\r\n    string[] _diplomaLinks;\r\n\r\n    constructor() ERC721(\"Diploma\", \"DPLM\"){\r\n        _setupRole(DEFAULT_ADMIN_ROLE, msg.sender);\r\n        _setupRole(RECTOR_ROLE, msg.sender);\r\n//        grantRectorRole(msg.sender);\r\n    }\r\n    function mint(string memory _diplomaLink, address _graduatedAddress) public onlyRole(RECTOR_ROLE){\r\n        require(hasRole(STUDENT_ROLE, _graduatedAddress), \"This address is not in STUDENT_ROLE\");\r\n        require(!_diplomaExist[_diplomaLink], \"This link is already minted\");\r\n        require(_hasCertificate[_graduatedAddress] == 0, \"This graduate already has a Diploma\");\r\n        grantGraduatedRole(_graduatedAddress);\r\n        //diplomaLinks - add\r\n        _diplomaLinks.push(_diplomaLink);\r\n        uint _id = _diplomaLinks.length; //tokenID's start from 1 because default uint256 value is 0\r\n        //Call mint of ERC721\r\n        _mint(_graduatedAddress, _id);\r\n        //Trace it\r\n        _diplomaExist[_diplomaLink] = true;\r\n        _hasCertificate[_graduatedAddress] = _id;\r\n    }\r\n\r\n    function getDiplomaLinks() public view returns(string[] memory diplomaLinks){\r\n        return _diplomaLinks;\r\n    }\r\n\r\n\r\n    //TODO Contract Owner can make mistakes when minting. Token should be somewhat editable for contract owner\r\n    function transferFrom(//Only callable when minted\r\n        address from,\r\n        address to,\r\n        uint256 tokenId\r\n    ) public virtual override {\r\n        require(msg.sender == 0x0000000000000000000000000000000000000000, \"Transfer after mint is prohibited\");\r\n        super.transferFrom(from,to,tokenId);\r\n    }\r\n    function safeTransferFrom(//Only callable when minted\r\n        address from,\r\n        address to,\r\n        uint256 tokenId\r\n    ) public virtual override {\r\n        require(msg.sender == 0x0000000000000000000000000000000000000000, \"Transfer after mint is prohibited\");\r\n        super.safeTransferFrom(from,to,tokenId);\r\n    }\r\n    function safeTransferFrom(//Only callable when minted\r\n        address from,\r\n        address to,\r\n        uint256 tokenId,\r\n        bytes memory _data\r\n    ) public virtual override {\r\n        require(msg.sender == 0x0000000000000000000000000000000000000000, \"Transfer after mint is prohibited\");\r\n        super.safeTransferFrom(from, to, tokenId, _data);\r\n    }\r\n    function supportsInterface(bytes4 interfaceId) public view virtual override(ERC721, AccessControlEnumerable) returns (bool) {\r\n        return super.supportsInterface(interfaceId);\r\n    }\r\n\r\n}\r\n",
  "sourcePath": "C:\\Users\\asus\\Desktop\\Dersler\\CMPE492\\certification-project\\contracts\\Diploma.sol",
  "compiler": {
    "name": "solc",
    "version": "0.8.10+commit.fc410830.Emscripten.clang"
  },
  "schemaVersion": "3.4.4",
  "updatedAt": "2022-01-18T10:13:03.398Z",
  "networkType": "ethereum",
  "devdoc": {
    "kind": "dev",
    "methods": {
      "approve(address,uint256)": {
        "details": "See {IERC721-approve}."
      },
      "balanceOf(address)": {
        "details": "See {IERC721-balanceOf}."
      },
      "getApproved(uint256)": {
        "details": "See {IERC721-getApproved}."
      },
      "getRoleAdmin(bytes32)": {
        "details": "Returns the admin role that controls `role`. See {grantRole} and {revokeRole}. To change a role's admin, use {_setRoleAdmin}."
      },
      "getRoleMember(bytes32,uint256)": {
        "details": "Returns one of the accounts that have `role`. `index` must be a value between 0 and {getRoleMemberCount}, non-inclusive. Role bearers are not sorted in any particular way, and their ordering may change at any point. WARNING: When using {getRoleMember} and {getRoleMemberCount}, make sure you perform all queries on the same block. See the following https://forum.openzeppelin.com/t/iterating-over-elements-on-enumerableset-in-openzeppelin-contracts/2296[forum post] for more information."
      },
      "getRoleMemberCount(bytes32)": {
        "details": "Returns the number of accounts that have `role`. Can be used together with {getRoleMember} to enumerate all bearers of a role."
      },
      "grantRole(bytes32,address)": {
        "details": "Grants `role` to `account`. If `account` had not been already granted `role`, emits a {RoleGranted} event. Requirements: - the caller must have ``role``'s admin role."
      },
      "hasRole(bytes32,address)": {
        "details": "Returns `true` if `account` has been granted `role`."
      },
      "isApprovedForAll(address,address)": {
        "details": "See {IERC721-isApprovedForAll}."
      },
      "name()": {
        "details": "See {IERC721Metadata-name}."
      },
      "ownerOf(uint256)": {
        "details": "See {IERC721-ownerOf}."
      },
      "renounceRole(bytes32,address)": {
        "details": "Revokes `role` from the calling account. Roles are often managed via {grantRole} and {revokeRole}: this function's purpose is to provide a mechanism for accounts to lose their privileges if they are compromised (such as when a trusted device is misplaced). If the calling account had been revoked `role`, emits a {RoleRevoked} event. Requirements: - the caller must be `account`."
      },
      "revokeRole(bytes32,address)": {
        "details": "Revokes `role` from `account`. If `account` had been granted `role`, emits a {RoleRevoked} event. Requirements: - the caller must have ``role``'s admin role."
      },
      "safeTransferFrom(address,address,uint256)": {
        "details": "See {IERC721-safeTransferFrom}."
      },
      "safeTransferFrom(address,address,uint256,bytes)": {
        "details": "See {IERC721-safeTransferFrom}."
      },
      "setApprovalForAll(address,bool)": {
        "details": "See {IERC721-setApprovalForAll}."
      },
      "symbol()": {
        "details": "See {IERC721Metadata-symbol}."
      },
      "tokenURI(uint256)": {
        "details": "See {IERC721Metadata-tokenURI}."
      },
      "transferFrom(address,address,uint256)": {
        "details": "See {IERC721-transferFrom}."
      }
    },
    "version": 1
  },
  "userdoc": {
    "kind": "user",
    "methods": {},
    "version": 1
  }
}