{
  "contractName": "Diploma",
  "abi": [
    {
      "inputs": [],
      "stateMutability": "nonpayable",
      "type": "constructor"
    },
    {
      "anonymous": false,
      "inputs": [
        {
          "indexed": true,
          "internalType": "address",
          "name": "owner",
          "type": "address"
        },
        {
          "indexed": true,
          "internalType": "address",
          "name": "approved",
          "type": "address"
        },
        {
          "indexed": true,
          "internalType": "uint256",
          "name": "tokenId",
          "type": "uint256"
        }
      ],
      "name": "Approval",
      "type": "event"
    },
    {
      "anonymous": false,
      "inputs": [
        {
          "indexed": true,
          "internalType": "address",
          "name": "owner",
          "type": "address"
        },
        {
          "indexed": true,
          "internalType": "address",
          "name": "operator",
          "type": "address"
        },
        {
          "indexed": false,
          "internalType": "bool",
          "name": "approved",
          "type": "bool"
        }
      ],
      "name": "ApprovalForAll",
      "type": "event"
    },
    {
      "anonymous": false,
      "inputs": [
        {
          "indexed": true,
          "internalType": "bytes32",
          "name": "role",
          "type": "bytes32"
        },
        {
          "indexed": true,
          "internalType": "bytes32",
          "name": "previousAdminRole",
          "type": "bytes32"
        },
        {
          "indexed": true,
          "internalType": "bytes32",
          "name": "newAdminRole",
          "type": "bytes32"
        }
      ],
      "name": "RoleAdminChanged",
      "type": "event"
    },
    {
      "anonymous": false,
      "inputs": [
        {
          "indexed": true,
          "internalType": "bytes32",
          "name": "role",
          "type": "bytes32"
        },
        {
          "indexed": true,
          "internalType": "address",
          "name": "account",
          "type": "address"
        },
        {
          "indexed": true,
          "internalType": "address",
          "name": "sender",
          "type": "address"
        }
      ],
      "name": "RoleGranted",
      "type": "event"
    },
    {
      "anonymous": false,
      "inputs": [
        {
          "indexed": true,
          "internalType": "bytes32",
          "name": "role",
          "type": "bytes32"
        },
        {
          "indexed": true,
          "internalType": "address",
          "name": "account",
          "type": "address"
        },
        {
          "indexed": true,
          "internalType": "address",
          "name": "sender",
          "type": "address"
        }
      ],
      "name": "RoleRevoked",
      "type": "event"
    },
    {
      "anonymous": false,
      "inputs": [
        {
          "indexed": true,
          "internalType": "address",
          "name": "from",
          "type": "address"
        },
        {
          "indexed": true,
          "internalType": "address",
          "name": "to",
          "type": "address"
        },
        {
          "indexed": true,
          "internalType": "uint256",
          "name": "tokenId",
          "type": "uint256"
        }
      ],
      "name": "Transfer",
      "type": "event"
    },
    {
      "inputs": [],
      "name": "DEFAULT_ADMIN_ROLE",
      "outputs": [
        {
          "internalType": "bytes32",
          "name": "",
          "type": "bytes32"
        }
      ],
      "stateMutability": "view",
      "type": "function",
      "constant": true
    },
    {
      "inputs": [],
      "name": "DEPARTMENT_ROLE",
      "outputs": [
        {
          "internalType": "bytes32",
          "name": "",
          "type": "bytes32"
        }
      ],
      "stateMutability": "view",
      "type": "function",
      "constant": true
    },
    {
      "inputs": [],
      "name": "FACULTY_ROLE",
      "outputs": [
        {
          "internalType": "bytes32",
          "name": "",
          "type": "bytes32"
        }
      ],
      "stateMutability": "view",
      "type": "function",
      "constant": true
    },
    {
      "inputs": [],
      "name": "GRADUATED_ROLE",
      "outputs": [
        {
          "internalType": "bytes32",
          "name": "",
          "type": "bytes32"
        }
      ],
      "stateMutability": "view",
      "type": "function",
      "constant": true
    },
    {
      "inputs": [],
      "name": "INSTRUCTOR_ROLE",
      "outputs": [
        {
          "internalType": "bytes32",
          "name": "",
          "type": "bytes32"
        }
      ],
      "stateMutability": "view",
      "type": "function",
      "constant": true
    },
    {
      "inputs": [],
      "name": "RECTOR_ROLE",
      "outputs": [
        {
          "internalType": "bytes32",
          "name": "",
          "type": "bytes32"
        }
      ],
      "stateMutability": "view",
      "type": "function",
      "constant": true
    },
    {
      "inputs": [],
      "name": "STUDENT_ROLE",
      "outputs": [
        {
          "internalType": "bytes32",
          "name": "",
          "type": "bytes32"
        }
      ],
      "stateMutability": "view",
      "type": "function",
      "constant": true
    },
    {
      "inputs": [
        {
          "internalType": "address",
          "name": "to",
          "type": "address"
        },
        {
          "internalType": "uint256",
          "name": "tokenId",
          "type": "uint256"
        }
      ],
      "name": "approve",
      "outputs": [],
      "stateMutability": "nonpayable",
      "type": "function"
    },
    {
      "inputs": [
        {
          "internalType": "address",
          "name": "owner",
          "type": "address"
        }
      ],
      "name": "balanceOf",
      "outputs": [
        {
          "internalType": "uint256",
          "name": "",
          "type": "uint256"
        }
      ],
      "stateMutability": "view",
      "type": "function",
      "constant": true
    },
    {
      "inputs": [
        {
          "internalType": "uint256",
          "name": "tokenId",
          "type": "uint256"
        }
      ],
      "name": "getApproved",
      "outputs": [
        {
          "internalType": "address",
          "name": "",
          "type": "address"
        }
      ],
      "stateMutability": "view",
      "type": "function",
      "constant": true
    },
    {
      "inputs": [],
      "name": "getDepartments",
      "outputs": [
        {
          "internalType": "address[]",
          "name": "",
          "type": "address[]"
        }
      ],
      "stateMutability": "view",
      "type": "function",
      "constant": true
    },
    {
      "inputs": [],
      "name": "getFaculties",
      "outputs": [
        {
          "internalType": "address[]",
          "name": "",
          "type": "address[]"
        }
      ],
      "stateMutability": "view",
      "type": "function",
      "constant": true
    },
    {
      "inputs": [],
      "name": "getGraduateds",
      "outputs": [
        {
          "internalType": "address[]",
          "name": "",
          "type": "address[]"
        }
      ],
      "stateMutability": "view",
      "type": "function",
      "constant": true
    },
    {
      "inputs": [],
      "name": "getInstructors",
      "outputs": [
        {
          "internalType": "address[]",
          "name": "",
          "type": "address[]"
        }
      ],
      "stateMutability": "view",
      "type": "function",
      "constant": true
    },
    {
      "inputs": [],
      "name": "getRector",
      "outputs": [
        {
          "internalType": "address",
          "name": "",
          "type": "address"
        }
      ],
      "stateMutability": "view",
      "type": "function",
      "constant": true
    },
    {
      "inputs": [
        {
          "internalType": "bytes32",
          "name": "role",
          "type": "bytes32"
        }
      ],
      "name": "getRoleAdmin",
      "outputs": [
        {
          "internalType": "bytes32",
          "name": "",
          "type": "bytes32"
        }
      ],
      "stateMutability": "view",
      "type": "function",
      "constant": true
    },
    {
      "inputs": [
        {
          "internalType": "bytes32",
          "name": "role",
          "type": "bytes32"
        },
        {
          "internalType": "uint256",
          "name": "index",
          "type": "uint256"
        }
      ],
      "name": "getRoleMember",
      "outputs": [
        {
          "internalType": "address",
          "name": "",
          "type": "address"
        }
      ],
      "stateMutability": "view",
      "type": "function",
      "constant": true
    },
    {
      "inputs": [
        {
          "internalType": "bytes32",
          "name": "role",
          "type": "bytes32"
        }
      ],
      "name": "getRoleMemberCount",
      "outputs": [
        {
          "internalType": "uint256",
          "name": "",
          "type": "uint256"
        }
      ],
      "stateMutability": "view",
      "type": "function",
      "constant": true
    },
    {
      "inputs": [],
      "name": "getStudents",
      "outputs": [
        {
          "internalType": "address[]",
          "name": "",
          "type": "address[]"
        }
      ],
      "stateMutability": "view",
      "type": "function",
      "constant": true
    },
    {
      "inputs": [
        {
          "internalType": "address",
          "name": "account",
          "type": "address"
        }
      ],
      "name": "grantDepartmentRole",
      "outputs": [],
      "stateMutability": "nonpayable",
      "type": "function"
    },
    {
      "inputs": [
        {
          "internalType": "address",
          "name": "account",
          "type": "address"
        }
      ],
      "name": "grantFacultyRole",
      "outputs": [],
      "stateMutability": "nonpayable",
      "type": "function"
    },
    {
      "inputs": [
        {
          "internalType": "address",
          "name": "account",
          "type": "address"
        }
      ],
      "name": "grantGraduatedRole",
      "outputs": [],
      "stateMutability": "nonpayable",
      "type": "function"
    },
    {
      "inputs": [
        {
          "internalType": "address",
          "name": "account",
          "type": "address"
        }
      ],
      "name": "grantInstructorRole",
      "outputs": [],
      "stateMutability": "nonpayable",
      "type": "function"
    },
    {
      "inputs": [
        {
          "internalType": "address",
          "name": "account",
          "type": "address"
        }
      ],
      "name": "grantRectorRole",
      "outputs": [],
      "stateMutability": "nonpayable",
      "type": "function"
    },
    {
      "inputs": [
        {
          "internalType": "bytes32",
          "name": "role",
          "type": "bytes32"
        },
        {
          "internalType": "address",
          "name": "account",
          "type": "address"
        }
      ],
      "name": "grantRole",
      "outputs": [],
      "stateMutability": "nonpayable",
      "type": "function"
    },
    {
      "inputs": [
        {
          "internalType": "address",
          "name": "account",
          "type": "address"
        }
      ],
      "name": "grantStudentRole",
      "outputs": [],
      "stateMutability": "nonpayable",
      "type": "function"
    },
    {
      "inputs": [
        {
          "internalType": "address",
          "name": "account",
          "type": "address"
        }
      ],
      "name": "hasDepartmentRole",
      "outputs": [
        {
          "internalType": "bool",
          "name": "",
          "type": "bool"
        }
      ],
      "stateMutability": "view",
      "type": "function",
      "constant": true
    },
    {
      "inputs": [
        {
          "internalType": "address",
          "name": "account",
          "type": "address"
        }
      ],
      "name": "hasFacultyRole",
      "outputs": [
        {
          "internalType": "bool",
          "name": "",
          "type": "bool"
        }
      ],
      "stateMutability": "view",
      "type": "function",
      "constant": true
    },
    {
      "inputs": [
        {
          "internalType": "address",
          "name": "account",
          "type": "address"
        }
      ],
      "name": "hasGraduatedRole",
      "outputs": [
        {
          "internalType": "bool",
          "name": "",
          "type": "bool"
        }
      ],
      "stateMutability": "view",
      "type": "function",
      "constant": true
    },
    {
      "inputs": [
        {
          "internalType": "address",
          "name": "account",
          "type": "address"
        }
      ],
      "name": "hasInstructorRole",
      "outputs": [
        {
          "internalType": "bool",
          "name": "",
          "type": "bool"
        }
      ],
      "stateMutability": "view",
      "type": "function",
      "constant": true
    },
    {
      "inputs": [
        {
          "internalType": "address",
          "name": "account",
          "type": "address"
        }
      ],
      "name": "hasRectorRole",
      "outputs": [
        {
          "internalType": "bool",
          "name": "",
          "type": "bool"
        }
      ],
      "stateMutability": "view",
      "type": "function",
      "constant": true
    },
    {
      "inputs": [
        {
          "internalType": "bytes32",
          "name": "role",
          "type": "bytes32"
        },
        {
          "internalType": "address",
          "name": "account",
          "type": "address"
        }
      ],
      "name": "hasRole",
      "outputs": [
        {
          "internalType": "bool",
          "name": "",
          "type": "bool"
        }
      ],
      "stateMutability": "view",
      "type": "function",
      "constant": true
    },
    {
      "inputs": [
        {
          "internalType": "address",
          "name": "account",
          "type": "address"
        }
      ],
      "name": "hasStudentRole",
      "outputs": [
        {
          "internalType": "bool",
          "name": "",
          "type": "bool"
        }
      ],
      "stateMutability": "view",
      "type": "function",
      "constant": true
    },
    {
      "inputs": [
        {
          "internalType": "address",
          "name": "owner",
          "type": "address"
        },
        {
          "internalType": "address",
          "name": "operator",
          "type": "address"
        }
      ],
      "name": "isApprovedForAll",
      "outputs": [
        {
          "internalType": "bool",
          "name": "",
          "type": "bool"
        }
      ],
      "stateMutability": "view",
      "type": "function",
      "constant": true
    },
    {
      "inputs": [],
      "name": "name",
      "outputs": [
        {
          "internalType": "string",
          "name": "",
          "type": "string"
        }
      ],
      "stateMutability": "view",
      "type": "function",
      "constant": true
    },
    {
      "inputs": [
        {
          "internalType": "uint256",
          "name": "tokenId",
          "type": "uint256"
        }
      ],
      "name": "ownerOf",
      "outputs": [
        {
          "internalType": "address",
          "name": "",
          "type": "address"
        }
      ],
      "stateMutability": "view",
      "type": "function",
      "constant": true
    },
    {
      "inputs": [
        {
          "internalType": "bytes32",
          "name": "role",
          "type": "bytes32"
        },
        {
          "internalType": "address",
          "name": "account",
          "type": "address"
        }
      ],
      "name": "renounceRole",
      "outputs": [],
      "stateMutability": "nonpayable",
      "type": "function"
    },
    {
      "inputs": [
        {
          "internalType": "address",
          "name": "account",
          "type": "address"
        }
      ],
      "name": "revokeDepartmentRole",
      "outputs": [],
      "stateMutability": "nonpayable",
      "type": "function"
    },
    {
      "inputs": [
        {
          "internalType": "address",
          "name": "account",
          "type": "address"
        }
      ],
      "name": "revokeFacultyRole",
      "outputs": [],
      "stateMutability": "nonpayable",
      "type": "function"
    },
    {
      "inputs": [
        {
          "internalType": "address",
          "name": "account",
          "type": "address"
        }
      ],
      "name": "revokeInstructorRole",
      "outputs": [],
      "stateMutability": "nonpayable",
      "type": "function"
    },
    {
      "inputs": [
        {
          "internalType": "bytes32",
          "name": "role",
          "type": "bytes32"
        },
        {
          "internalType": "address",
          "name": "account",
          "type": "address"
        }
      ],
      "name": "revokeRole",
      "outputs": [],
      "stateMutability": "nonpayable",
      "type": "function"
    },
    {
      "inputs": [
        {
          "internalType": "address",
          "name": "account",
          "type": "address"
        }
      ],
      "name": "revokeStudentRole",
      "outputs": [],
      "stateMutability": "nonpayable",
      "type": "function"
    },
    {
      "inputs": [
        {
          "internalType": "address",
          "name": "operator",
          "type": "address"
        },
        {
          "internalType": "bool",
          "name": "approved",
          "type": "bool"
        }
      ],
      "name": "setApprovalForAll",
      "outputs": [],
      "stateMutability": "nonpayable",
      "type": "function"
    },
    {
      "inputs": [],
      "name": "symbol",
      "outputs": [
        {
          "internalType": "string",
          "name": "",
          "type": "string"
        }
      ],
      "stateMutability": "view",
      "type": "function",
      "constant": true
    },
    {
      "inputs": [
        {
          "internalType": "uint256",
          "name": "tokenId",
          "type": "uint256"
        }
      ],
      "name": "tokenURI",
      "outputs": [
        {
          "internalType": "string",
          "name": "",
          "type": "string"
        }
      ],
      "stateMutability": "view",
      "type": "function",
      "constant": true
    },
    {
      "inputs": [
        {
          "internalType": "string",
          "name": "_diplomaLink",
          "type": "string"
        },
        {
          "internalType": "address",
          "name": "graduatedAddress",
          "type": "address"
        }
      ],
      "name": "mint",
      "outputs": [],
      "stateMutability": "nonpayable",
      "type": "function"
    },
    {
      "inputs": [],
      "name": "getDiplomaLinks",
      "outputs": [
        {
          "internalType": "string[]",
          "name": "diplomaLinks",
          "type": "string[]"
        }
      ],
      "stateMutability": "view",
      "type": "function",
      "constant": true
    },
    {
      "inputs": [
        {
          "internalType": "address",
          "name": "from",
          "type": "address"
        },
        {
          "internalType": "address",
          "name": "to",
          "type": "address"
        },
        {
          "internalType": "uint256",
          "name": "tokenId",
          "type": "uint256"
        }
      ],
      "name": "transferFrom",
      "outputs": [],
      "stateMutability": "nonpayable",
      "type": "function"
    },
    {
      "inputs": [
        {
          "internalType": "address",
          "name": "from",
          "type": "address"
        },
        {
          "internalType": "address",
          "name": "to",
          "type": "address"
        },
        {
          "internalType": "uint256",
          "name": "tokenId",
          "type": "uint256"
        }
      ],
      "name": "safeTransferFrom",
      "outputs": [],
      "stateMutability": "nonpayable",
      "type": "function"
    },
    {
      "inputs": [
        {
          "internalType": "address",
          "name": "from",
          "type": "address"
        },
        {
          "internalType": "address",
          "name": "to",
          "type": "address"
        },
        {
          "internalType": "uint256",
          "name": "tokenId",
          "type": "uint256"
        },
        {
          "internalType": "bytes",
          "name": "_data",
          "type": "bytes"
        }
      ],
      "name": "safeTransferFrom",
      "outputs": [],
      "stateMutability": "nonpayable",
      "type": "function"
    },
    {
      "inputs": [
        {
          "internalType": "bytes4",
          "name": "interfaceId",
          "type": "bytes4"
        }
      ],
      "name": "supportsInterface",
      "outputs": [
        {
          "internalType": "bool",
          "name": "",
          "type": "bool"
        }
      ],
      "stateMutability": "view",
      "type": "function",
      "constant": true
    }
  ],
  "bytecode": "0x60806040523480156200001157600080fd5b506040518060400160405280600781526020017f4469706c6f6d61000000000000000000000000000000000000000000000000008152506040518060400160405280600481526020017f44504c4d0000000000000000000000000000000000000000000000000000000081525081600090805190602001906200009692919062000397565b508060019080519060200190620000af92919062000397565b505050620000c76000801b33620000ff60201b60201c565b620000f97f5f1d1e303f9c0a1801dd708bdc4239781d66c88ca6cb941c5769ba09b5c1b28533620000ff60201b60201c565b620004ac565b6200011182826200011560201b60201c565b5050565b6200012c82826200015d60201b620021751760201c565b6200015881600760008581526020019081526020016000206200024f60201b620022561790919060201c565b505050565b6200016f82826200028760201b60201c565b6200024b5760016006600084815260200190815260200160002060000160008373ffffffffffffffffffffffffffffffffffffffff1673ffffffffffffffffffffffffffffffffffffffff16815260200190815260200160002060006101000a81548160ff021916908315150217905550620001f0620002f260201b60201c565b73ffffffffffffffffffffffffffffffffffffffff168173ffffffffffffffffffffffffffffffffffffffff16837f2f8788117e7eff1d82e926ec794901d17c78024a50270940304540a733656f0d60405160405180910390a45b5050565b60006200027f836000018373ffffffffffffffffffffffffffffffffffffffff1660001b620002fa60201b60201c565b905092915050565b60006006600084815260200190815260200160002060000160008373ffffffffffffffffffffffffffffffffffffffff1673ffffffffffffffffffffffffffffffffffffffff16815260200190815260200160002060009054906101000a900460ff16905092915050565b600033905090565b60006200030e83836200037460201b60201c565b620003695782600001829080600181540180825580915050600190039060005260206000200160009091909190915055826000018054905083600101600084815260200190815260200160002081905550600190506200036e565b600090505b92915050565b600080836001016000848152602001908152602001600020541415905092915050565b828054620003a59062000476565b90600052602060002090601f016020900481019282620003c9576000855562000415565b82601f10620003e457805160ff191683800117855562000415565b8280016001018555821562000415579182015b8281111562000414578251825591602001919060010190620003f7565b5b50905062000424919062000428565b5090565b5b808211156200044357600081600090555060010162000429565b5090565b7f4e487b7100000000000000000000000000000000000000000000000000000000600052602260045260246000fd5b600060028204905060018216806200048f57607f821691505b60208210811415620004a657620004a562000447565b5b50919050565b61537180620004bc6000396000f3fe608060405234801561001057600080fd5b50600436106102f15760003560e01c80637ab08b801161019d578063b9447051116100e9578063e17f6b2c116100a2578063f1d064b31161007c578063f1d064b314610960578063f7be43fb1461097e578063f800f1fc1461099c578063fc3ba6b4146109ba576102f1565b8063e17f6b2c146108d0578063e78af7c514610900578063e985e9c514610930576102f1565b8063b9447051146107fe578063c87b56dd1461081a578063c94d10ad1461084a578063ca15c87314610866578063cf19b6f214610896578063d547741f146108b4576102f1565b806395d89b4111610156578063a217fddf11610130578063a217fddf1461078a578063a22cb465146107a8578063ad7be93a146107c4578063b88d4fde146107e2576102f1565b806395d89b411461071e5780639822a5991461073c578063996dc0221461076c576102f1565b80637ab08b801461064a57806386f8e92c146106685780638bcf979c146106845780638df6674a146106a25780639010d07c146106be57806391d14854146106ee576102f1565b80632f2ff15d1161025c5780635ea07b1c116102155780636352211e116101ef5780636352211e1461059c5780636fe3ceb8146105cc57806370a08231146105ea5780637168c27d1461061a576102f1565b80635ea07b1c146105465780635eff7dae146105625780635f1d514e14610580576102f1565b80632f2ff15d1461049c57806332b3c846146104b857806336568abe146104d457806342842e0e146104f0578063529f790c1461050c5780635c26b7ca14610528576102f1565b806312fb59f2116102ae57806312fb59f2146103ca5780631c351a9d146103e657806323b872dd14610402578063248a9ca31461041e57806324d42a371461044e5780632be7dc441461046c576102f1565b806301ffc9a7146102f65780630252dffc1461032657806306fdde0314610342578063081812fc14610360578063095ea7b3146103905780630c6da2f7146103ac575b600080fd5b610310600480360381019061030b9190613a46565b6109ea565b60405161031d9190613a8e565b60405180910390f35b610340600480360381019061033b9190613b07565b6109fc565b005b61034a610a68565b6040516103579190613bcd565b60405180910390f35b61037a60048036038101906103759190613c25565b610afa565b6040516103879190613c61565b60405180910390f35b6103aa60048036038101906103a59190613c7c565b610b7f565b005b6103b4610c97565b6040516103c19190613d7a565b60405180910390f35b6103e460048036038101906103df9190613b07565b610d25565b005b61040060048036038101906103fb9190613ed1565b610de8565b005b61041c60048036038101906104179190613f2d565b610fe2565b005b61043860048036038101906104339190613fb6565b611061565b6040516104459190613ff2565b60405180910390f35b610456611081565b6040516104639190613ff2565b60405180910390f35b61048660048036038101906104819190613b07565b6110a5565b6040516104939190613a8e565b60405180910390f35b6104b660048036038101906104b1919061400d565b6110d8565b005b6104d260048036038101906104cd9190613b07565b611101565b005b6104ee60048036038101906104e9919061400d565b61116d565b005b61050a60048036038101906105059190613f2d565b6111f0565b005b61052660048036038101906105219190613b07565b61126f565b005b610530611332565b60405161053d9190613d7a565b60405180910390f35b610560600480360381019061055b9190613b07565b6113c0565b005b61056a611516565b6040516105779190613d7a565b60405180910390f35b61059a60048036038101906105959190613b07565b6115a4565b005b6105b660048036038101906105b19190613c25565b611667565b6040516105c39190613c61565b60405180910390f35b6105d4611719565b6040516105e19190613ff2565b60405180910390f35b61060460048036038101906105ff9190613b07565b61173d565b604051610611919061405c565b60405180910390f35b610634600480360381019061062f9190613b07565b6117f5565b6040516106419190613a8e565b60405180910390f35b610652611828565b60405161065f9190614183565b60405180910390f35b610682600480360381019061067d9190613b07565b611901565b005b61068c61196d565b6040516106999190613ff2565b60405180910390f35b6106bc60048036038101906106b79190613b07565b611991565b005b6106d860048036038101906106d391906141a5565b611a76565b6040516106e59190613c61565b60405180910390f35b6107086004803603810190610703919061400d565b611aa5565b6040516107159190613a8e565b60405180910390f35b610726611b10565b6040516107339190613bcd565b60405180910390f35b61075660048036038101906107519190613b07565b611ba2565b6040516107639190613a8e565b60405180910390f35b610774611bd5565b6040516107819190613ff2565b60405180910390f35b610792611bf9565b60405161079f9190613ff2565b60405180910390f35b6107c260048036038101906107bd9190614211565b611c00565b005b6107cc611c16565b6040516107d99190613ff2565b60405180910390f35b6107fc60048036038101906107f791906142f2565b611c3a565b005b61081860048036038101906108139190613b07565b611cbb565b005b610834600480360381019061082f9190613c25565b611d27565b6040516108419190613bcd565b60405180910390f35b610864600480360381019061085f9190613b07565b611dce565b005b610880600480360381019061087b9190613fb6565b611e91565b60405161088d919061405c565b60405180910390f35b61089e611eb5565b6040516108ab9190613c61565b60405180910390f35b6108ce60048036038101906108c9919061400d565b611edf565b005b6108ea60048036038101906108e59190613b07565b611f08565b6040516108f79190613a8e565b60405180910390f35b61091a60048036038101906109159190613b07565b611f3b565b6040516109279190613a8e565b60405180910390f35b61094a60048036038101906109459190614375565b611f6e565b6040516109579190613a8e565b60405180910390f35b610968612002565b6040516109759190613d7a565b60405180910390f35b610986612090565b6040516109939190613ff2565b60405180910390f35b6109a46120b4565b6040516109b19190613d7a565b60405180910390f35b6109d460048036038101906109cf9190613b07565b612142565b6040516109e19190613a8e565b60405180910390f35b60006109f582612286565b9050919050565b7f5f1d1e303f9c0a1801dd708bdc4239781d66c88ca6cb941c5769ba09b5c1b285610a2e81610a29612300565b612308565b610a587fe7837d04f36ce0b2f3cc662bf1b2b632a7fbd12ae95199e8bd3dcfbcc440b66b83611edf565b610a6382600a6123a5565b505050565b606060008054610a77906143e4565b80601f0160208091040260200160405190810160405280929190818152602001828054610aa3906143e4565b8015610af05780601f10610ac557610100808354040283529160200191610af0565b820191906000526020600020905b815481529060010190602001808311610ad357829003601f168201915b5050505050905090565b6000610b05826125b9565b610b44576040517f08c379a0000000000000000000000000000000000000000000000000000000008152600401610b3b90614488565b60405180910390fd5b6004600083815260200190815260200160002060009054906101000a900473ffffffffffffffffffffffffffffffffffffffff169050919050565b6000610b8a82611667565b90508073ffffffffffffffffffffffffffffffffffffffff168373ffffffffffffffffffffffffffffffffffffffff161415610bfb576040517f08c379a0000000000000000000000000000000000000000000000000000000008152600401610bf29061451a565b60405180910390fd5b8073ffffffffffffffffffffffffffffffffffffffff16610c1a612300565b73ffffffffffffffffffffffffffffffffffffffff161480610c495750610c4881610c43612300565b611f6e565b5b610c88576040517f08c379a0000000000000000000000000000000000000000000000000000000008152600401610c7f906145ac565b60405180910390fd5b610c928383612625565b505050565b60606009805480602002602001604051908101604052809291908181526020018280548015610d1b57602002820191906000526020600020905b8160009054906101000a900473ffffffffffffffffffffffffffffffffffffffff1673ffffffffffffffffffffffffffffffffffffffff1681526020019060010190808311610cd1575b5050505050905090565b7f5f1d1e303f9c0a1801dd708bdc4239781d66c88ca6cb941c5769ba09b5c1b285610d5781610d52612300565b612308565b610d817fe7837d04f36ce0b2f3cc662bf1b2b632a7fbd12ae95199e8bd3dcfbcc440b66b836110d8565b600a829080600181540180825580915050600190039060005260206000200160009091909190916101000a81548173ffffffffffffffffffffffffffffffffffffffff021916908373ffffffffffffffffffffffffffffffffffffffff1602179055505050565b7f5f1d1e303f9c0a1801dd708bdc4239781d66c88ca6cb941c5769ba09b5c1b285610e1a81610e15612300565b612308565b600f83604051610e2a9190614608565b908152602001604051809103902060009054906101000a900460ff1615610e86576040517f08c379a0000000000000000000000000000000000000000000000000000000008152600401610e7d9061466b565b60405180910390fd5b6000600e60008473ffffffffffffffffffffffffffffffffffffffff1673ffffffffffffffffffffffffffffffffffffffff1681526020019081526020016000205414610f08576040517f08c379a0000000000000000000000000000000000000000000000000000000008152600401610eff906146fd565b60405180910390fd5b610f11826113c0565b601083908060018154018082558091505060019003906000526020600020016000909190919091509080519060200190610f4c929190613937565b5060006010805490509050610f6183826126de565b6001600f85604051610f739190614608565b908152602001604051809103902060006101000a81548160ff02191690831515021790555080600e60008573ffffffffffffffffffffffffffffffffffffffff1673ffffffffffffffffffffffffffffffffffffffff1681526020019081526020016000208190555050505050565b600073ffffffffffffffffffffffffffffffffffffffff163373ffffffffffffffffffffffffffffffffffffffff1614611051576040517f08c379a00000000000000000000000000000000000000000000000000000000081526004016110489061478f565b60405180910390fd5b61105c8383836128ac565b505050565b600060066000838152602001908152602001600020600101549050919050565b7f5f1d1e303f9c0a1801dd708bdc4239781d66c88ca6cb941c5769ba09b5c1b28581565b60006110d17f5f1d1e303f9c0a1801dd708bdc4239781d66c88ca6cb941c5769ba09b5c1b28583611aa5565b9050919050565b6110e182611061565b6110f2816110ed612300565b612308565b6110fc838361290c565b505050565b7f5f1d1e303f9c0a1801dd708bdc4239781d66c88ca6cb941c5769ba09b5c1b2856111338161112e612300565b612308565b61115d7f36a5c4aaacb6b388bbd448bf11096b7dafc5652bcc9046084fd0e95b1fb0b2cc83611edf565b61116882600c6123a5565b505050565b611175612300565b73ffffffffffffffffffffffffffffffffffffffff168173ffffffffffffffffffffffffffffffffffffffff16146111e2576040517f08c379a00000000000000000000000000000000000000000000000000000000081526004016111d990614821565b60405180910390fd5b6111ec8282612940565b5050565b600073ffffffffffffffffffffffffffffffffffffffff163373ffffffffffffffffffffffffffffffffffffffff161461125f576040517f08c379a00000000000000000000000000000000000000000000000000000000081526004016112569061478f565b60405180910390fd5b61126a838383612974565b505050565b7f5f1d1e303f9c0a1801dd708bdc4239781d66c88ca6cb941c5769ba09b5c1b2856112a18161129c612300565b612308565b6112cb7ff3f9cfff7b46f415da5a492b1718971da203f87c6aae9299e7b408eb83ef8bee836110d8565b6009829080600181540180825580915050600190039060005260206000200160009091909190916101000a81548173ffffffffffffffffffffffffffffffffffffffff021916908373ffffffffffffffffffffffffffffffffffffffff1602179055505050565b6060600a8054806020026020016040519081016040528092919081815260200182805480156113b657602002820191906000526020600020905b8160009054906101000a900473ffffffffffffffffffffffffffffffffffffffff1673ffffffffffffffffffffffffffffffffffffffff168152602001906001019080831161136c575b5050505050905090565b7f5f1d1e303f9c0a1801dd708bdc4239781d66c88ca6cb941c5769ba09b5c1b2856113f2816113ed612300565b612308565b61141c7f36a5c4aaacb6b388bbd448bf11096b7dafc5652bcc9046084fd0e95b1fb0b2cc83611aa5565b61145b576040517f08c379a00000000000000000000000000000000000000000000000000000000081526004016114529061488d565b60405180910390fd5b6114857f36a5c4aaacb6b388bbd448bf11096b7dafc5652bcc9046084fd0e95b1fb0b2cc83611edf565b6114af7f4758f7d70d6088cbfad5c79861ac6457ba2af02adf5ea419e97879ae24459cb6836110d8565b600d829080600181540180825580915050600190039060005260206000200160009091909190916101000a81548173ffffffffffffffffffffffffffffffffffffffff021916908373ffffffffffffffffffffffffffffffffffffffff1602179055505050565b6060600b80548060200260200160405190810160405280929190818152602001828054801561159a57602002820191906000526020600020905b8160009054906101000a900473ffffffffffffffffffffffffffffffffffffffff1673ffffffffffffffffffffffffffffffffffffffff1681526020019060010190808311611550575b5050505050905090565b7f5f1d1e303f9c0a1801dd708bdc4239781d66c88ca6cb941c5769ba09b5c1b2856115d6816115d1612300565b612308565b6116007fae4a0595970935aa5495afbbb72e5f1f6ff1062766b4a3028c0c9b7d5cf7e345836110d8565b600b829080600181540180825580915050600190039060005260206000200160009091909190916101000a81548173ffffffffffffffffffffffffffffffffffffffff021916908373ffffffffffffffffffffffffffffffffffffffff1602179055505050565b6000806002600084815260200190815260200160002060009054906101000a900473ffffffffffffffffffffffffffffffffffffffff169050600073ffffffffffffffffffffffffffffffffffffffff168173ffffffffffffffffffffffffffffffffffffffff161415611710576040517f08c379a00000000000000000000000000000000000000000000000000000000081526004016117079061491f565b60405180910390fd5b80915050919050565b7ff3f9cfff7b46f415da5a492b1718971da203f87c6aae9299e7b408eb83ef8bee81565b60008073ffffffffffffffffffffffffffffffffffffffff168273ffffffffffffffffffffffffffffffffffffffff1614156117ae576040517f08c379a00000000000000000000000000000000000000000000000000000000081526004016117a5906149b1565b60405180910390fd5b600360008373ffffffffffffffffffffffffffffffffffffffff1673ffffffffffffffffffffffffffffffffffffffff168152602001908152602001600020549050919050565b60006118217f4758f7d70d6088cbfad5c79861ac6457ba2af02adf5ea419e97879ae24459cb683611aa5565b9050919050565b60606010805480602002602001604051908101604052809291908181526020016000905b828210156118f857838290600052602060002001805461186b906143e4565b80601f0160208091040260200160405190810160405280929190818152602001828054611897906143e4565b80156118e45780601f106118b9576101008083540402835291602001916118e4565b820191906000526020600020905b8154815290600101906020018083116118c757829003601f168201915b50505050508152602001906001019061184c565b50505050905090565b7f5f1d1e303f9c0a1801dd708bdc4239781d66c88ca6cb941c5769ba09b5c1b2856119338161192e612300565b612308565b61195d7fae4a0595970935aa5495afbbb72e5f1f6ff1062766b4a3028c0c9b7d5cf7e34583611edf565b61196882600b6123a5565b505050565b7fae4a0595970935aa5495afbbb72e5f1f6ff1062766b4a3028c0c9b7d5cf7e34581565b7f5f1d1e303f9c0a1801dd708bdc4239781d66c88ca6cb941c5769ba09b5c1b2856119c3816119be612300565b612308565b6119ed7f5f1d1e303f9c0a1801dd708bdc4239781d66c88ca6cb941c5769ba09b5c1b285836110d8565b6119fa6000801b836110d8565b611a076000801b3361116d565b611a317f5f1d1e303f9c0a1801dd708bdc4239781d66c88ca6cb941c5769ba09b5c1b2853361116d565b81600860006101000a81548173ffffffffffffffffffffffffffffffffffffffff021916908373ffffffffffffffffffffffffffffffffffffffff1602179055505050565b6000611a9d826007600086815260200190815260200160002061299490919063ffffffff16565b905092915050565b60006006600084815260200190815260200160002060000160008373ffffffffffffffffffffffffffffffffffffffff1673ffffffffffffffffffffffffffffffffffffffff16815260200190815260200160002060009054906101000a900460ff16905092915050565b606060018054611b1f906143e4565b80601f0160208091040260200160405190810160405280929190818152602001828054611b4b906143e4565b8015611b985780601f10611b6d57610100808354040283529160200191611b98565b820191906000526020600020905b815481529060010190602001808311611b7b57829003601f168201915b5050505050905090565b6000611bce7fae4a0595970935aa5495afbbb72e5f1f6ff1062766b4a3028c0c9b7d5cf7e34583611aa5565b9050919050565b7fe7837d04f36ce0b2f3cc662bf1b2b632a7fbd12ae95199e8bd3dcfbcc440b66b81565b6000801b81565b611c12611c0b612300565b83836129ae565b5050565b7f4758f7d70d6088cbfad5c79861ac6457ba2af02adf5ea419e97879ae24459cb681565b600073ffffffffffffffffffffffffffffffffffffffff163373ffffffffffffffffffffffffffffffffffffffff1614611ca9576040517f08c379a0000000000000000000000000000000000000000000000000000000008152600401611ca09061478f565b60405180910390fd5b611cb584848484612b1b565b50505050565b7f5f1d1e303f9c0a1801dd708bdc4239781d66c88ca6cb941c5769ba09b5c1b285611ced81611ce8612300565b612308565b611d177ff3f9cfff7b46f415da5a492b1718971da203f87c6aae9299e7b408eb83ef8bee83611edf565b611d228260096123a5565b505050565b6060611d32826125b9565b611d71576040517f08c379a0000000000000000000000000000000000000000000000000000000008152600401611d6890614a43565b60405180910390fd5b6000611d7b612b7d565b90506000815111611d9b5760405180602001604052806000815250611dc6565b80611da584612b94565b604051602001611db6929190614a63565b6040516020818303038152906040525b915050919050565b7f5f1d1e303f9c0a1801dd708bdc4239781d66c88ca6cb941c5769ba09b5c1b285611e0081611dfb612300565b612308565b611e2a7f36a5c4aaacb6b388bbd448bf11096b7dafc5652bcc9046084fd0e95b1fb0b2cc836110d8565b600c829080600181540180825580915050600190039060005260206000200160009091909190916101000a81548173ffffffffffffffffffffffffffffffffffffffff021916908373ffffffffffffffffffffffffffffffffffffffff1602179055505050565b6000611eae60076000848152602001908152602001600020612cf5565b9050919050565b6000600860009054906101000a900473ffffffffffffffffffffffffffffffffffffffff16905090565b611ee882611061565b611ef981611ef4612300565b612308565b611f038383612940565b505050565b6000611f347fe7837d04f36ce0b2f3cc662bf1b2b632a7fbd12ae95199e8bd3dcfbcc440b66b83611aa5565b9050919050565b6000611f677ff3f9cfff7b46f415da5a492b1718971da203f87c6aae9299e7b408eb83ef8bee83611aa5565b9050919050565b6000600560008473ffffffffffffffffffffffffffffffffffffffff1673ffffffffffffffffffffffffffffffffffffffff16815260200190815260200160002060008373ffffffffffffffffffffffffffffffffffffffff1673ffffffffffffffffffffffffffffffffffffffff16815260200190815260200160002060009054906101000a900460ff16905092915050565b6060600c80548060200260200160405190810160405280929190818152602001828054801561208657602002820191906000526020600020905b8160009054906101000a900473ffffffffffffffffffffffffffffffffffffffff1673ffffffffffffffffffffffffffffffffffffffff168152602001906001019080831161203c575b5050505050905090565b7f36a5c4aaacb6b388bbd448bf11096b7dafc5652bcc9046084fd0e95b1fb0b2cc81565b6060600d80548060200260200160405190810160405280929190818152602001828054801561213857602002820191906000526020600020905b8160009054906101000a900473ffffffffffffffffffffffffffffffffffffffff1673ffffffffffffffffffffffffffffffffffffffff16815260200190600101908083116120ee575b5050505050905090565b600061216e7f36a5c4aaacb6b388bbd448bf11096b7dafc5652bcc9046084fd0e95b1fb0b2cc83611aa5565b9050919050565b61217f8282611aa5565b6122525760016006600084815260200190815260200160002060000160008373ffffffffffffffffffffffffffffffffffffffff1673ffffffffffffffffffffffffffffffffffffffff16815260200190815260200160002060006101000a81548160ff0219169083151502179055506121f7612300565b73ffffffffffffffffffffffffffffffffffffffff168173ffffffffffffffffffffffffffffffffffffffff16837f2f8788117e7eff1d82e926ec794901d17c78024a50270940304540a733656f0d60405160405180910390a45b5050565b600061227e836000018373ffffffffffffffffffffffffffffffffffffffff1660001b612d0a565b905092915050565b60007f5a05180f000000000000000000000000000000000000000000000000000000007bffffffffffffffffffffffffffffffffffffffffffffffffffffffff1916827bffffffffffffffffffffffffffffffffffffffffffffffffffffffff191614806122f957506122f882612d7a565b5b9050919050565b600033905090565b6123128282611aa5565b6123a1576123378173ffffffffffffffffffffffffffffffffffffffff166014612df4565b6123458360001c6020612df4565b604051602001612356929190614b1f565b6040516020818303038152906040526040517f08c379a00000000000000000000000000000000000000000000000000000000081526004016123989190613bcd565b60405180910390fd5b5050565b606060005b828054905081101561252a578373ffffffffffffffffffffffffffffffffffffffff168382815481106123e0576123df614b59565b5b9060005260206000200160009054906101000a900473ffffffffffffffffffffffffffffffffffffffff1673ffffffffffffffffffffffffffffffffffffffff1614156125175782600184805490506124399190614bb7565b8154811061244a57612449614b59565b5b9060005260206000200160009054906101000a900473ffffffffffffffffffffffffffffffffffffffff1683828154811061248857612487614b59565b5b9060005260206000200160006101000a81548173ffffffffffffffffffffffffffffffffffffffff021916908373ffffffffffffffffffffffffffffffffffffffff160217905550828054806124e1576124e0614beb565b5b6001900381819060005260206000200160006101000a81549073ffffffffffffffffffffffffffffffffffffffff021916905590555b808061252290614c1a565b9150506123aa565b50818054806020026020016040519081016040528092919081815260200182805480156125ac57602002820191906000526020600020905b8160009054906101000a900473ffffffffffffffffffffffffffffffffffffffff1673ffffffffffffffffffffffffffffffffffffffff1681526020019060010190808311612562575b5050505050905092915050565b60008073ffffffffffffffffffffffffffffffffffffffff166002600084815260200190815260200160002060009054906101000a900473ffffffffffffffffffffffffffffffffffffffff1673ffffffffffffffffffffffffffffffffffffffff1614159050919050565b816004600083815260200190815260200160002060006101000a81548173ffffffffffffffffffffffffffffffffffffffff021916908373ffffffffffffffffffffffffffffffffffffffff160217905550808273ffffffffffffffffffffffffffffffffffffffff1661269883611667565b73ffffffffffffffffffffffffffffffffffffffff167f8c5be1e5ebec7d5bd14f71427d1e84f3dd0314c0f7b2291e5b200ac8c7c3b92560405160405180910390a45050565b600073ffffffffffffffffffffffffffffffffffffffff168273ffffffffffffffffffffffffffffffffffffffff16141561274e576040517f08c379a000000000000000000000000000000000000000000000000000000000815260040161274590614caf565b60405180910390fd5b612757816125b9565b15612797576040517f08c379a000000000000000000000000000000000000000000000000000000000815260040161278e90614d1b565b60405180910390fd5b6127a360008383613030565b6001600360008473ffffffffffffffffffffffffffffffffffffffff1673ffffffffffffffffffffffffffffffffffffffff16815260200190815260200160002060008282546127f39190614d3b565b92505081905550816002600083815260200190815260200160002060006101000a81548173ffffffffffffffffffffffffffffffffffffffff021916908373ffffffffffffffffffffffffffffffffffffffff160217905550808273ffffffffffffffffffffffffffffffffffffffff16600073ffffffffffffffffffffffffffffffffffffffff167fddf252ad1be2c89b69c2b068fc378daa952ba7f163c4a11628f55a4df523b3ef60405160405180910390a45050565b6128bd6128b7612300565b82613035565b6128fc576040517f08c379a00000000000000000000000000000000000000000000000000000000081526004016128f390614e03565b60405180910390fd5b612907838383613113565b505050565b6129168282612175565b61293b816007600085815260200190815260200160002061225690919063ffffffff16565b505050565b61294a828261336f565b61296f816007600085815260200190815260200160002061345190919063ffffffff16565b505050565b61298f83838360405180602001604052806000815250611c3a565b505050565b60006129a38360000183613481565b60001c905092915050565b8173ffffffffffffffffffffffffffffffffffffffff168373ffffffffffffffffffffffffffffffffffffffff161415612a1d576040517f08c379a0000000000000000000000000000000000000000000000000000000008152600401612a1490614e6f565b60405180910390fd5b80600560008573ffffffffffffffffffffffffffffffffffffffff1673ffffffffffffffffffffffffffffffffffffffff16815260200190815260200160002060008473ffffffffffffffffffffffffffffffffffffffff1673ffffffffffffffffffffffffffffffffffffffff16815260200190815260200160002060006101000a81548160ff0219169083151502179055508173ffffffffffffffffffffffffffffffffffffffff168373ffffffffffffffffffffffffffffffffffffffff167f17307eab39ab6107e8899845ad3d59bd9653f200f220920489ca2b5937696c3183604051612b0e9190613a8e565b60405180910390a3505050565b612b2c612b26612300565b83613035565b612b6b576040517f08c379a0000000000000000000000000000000000000000000000000000000008152600401612b6290614e03565b60405180910390fd5b612b77848484846134ac565b50505050565b606060405180602001604052806000815250905090565b60606000821415612bdc576040518060400160405280600181526020017f30000000000000000000000000000000000000000000000000000000000000008152509050612cf0565b600082905060005b60008214612c0e578080612bf790614c1a565b915050600a82612c079190614ebe565b9150612be4565b60008167ffffffffffffffff811115612c2a57612c29613da6565b5b6040519080825280601f01601f191660200182016040528015612c5c5781602001600182028036833780820191505090505b5090505b60008514612ce957600182612c759190614bb7565b9150600a85612c849190614eef565b6030612c909190614d3b565b60f81b818381518110612ca657612ca5614b59565b5b60200101907effffffffffffffffffffffffffffffffffffffffffffffffffffffffffffff1916908160001a905350600a85612ce29190614ebe565b9450612c60565b8093505050505b919050565b6000612d0382600001613508565b9050919050565b6000612d168383613519565b612d6f578260000182908060018154018082558091505060019003906000526020600020016000909190919091505582600001805490508360010160008481526020019081526020016000208190555060019050612d74565b600090505b92915050565b60007f7965db0b000000000000000000000000000000000000000000000000000000007bffffffffffffffffffffffffffffffffffffffffffffffffffffffff1916827bffffffffffffffffffffffffffffffffffffffffffffffffffffffff19161480612ded5750612dec8261353c565b5b9050919050565b606060006002836002612e079190614f20565b612e119190614d3b565b67ffffffffffffffff811115612e2a57612e29613da6565b5b6040519080825280601f01601f191660200182016040528015612e5c5781602001600182028036833780820191505090505b5090507f300000000000000000000000000000000000000000000000000000000000000081600081518110612e9457612e93614b59565b5b60200101907effffffffffffffffffffffffffffffffffffffffffffffffffffffffffffff1916908160001a9053507f780000000000000000000000000000000000000000000000000000000000000081600181518110612ef857612ef7614b59565b5b60200101907effffffffffffffffffffffffffffffffffffffffffffffffffffffffffffff1916908160001a90535060006001846002612f389190614f20565b612f429190614d3b565b90505b6001811115612fe2577f3031323334353637383961626364656600000000000000000000000000000000600f861660108110612f8457612f83614b59565b5b1a60f81b828281518110612f9b57612f9a614b59565b5b60200101907effffffffffffffffffffffffffffffffffffffffffffffffffffffffffffff1916908160001a905350600485901c945080612fdb90614f7a565b9050612f45565b5060008414613026576040517f08c379a000000000000000000000000000000000000000000000000000000000815260040161301d90614ff0565b60405180910390fd5b8091505092915050565b505050565b6000613040826125b9565b61307f576040517f08c379a000000000000000000000000000000000000000000000000000000000815260040161307690615082565b60405180910390fd5b600061308a83611667565b90508073ffffffffffffffffffffffffffffffffffffffff168473ffffffffffffffffffffffffffffffffffffffff1614806130f957508373ffffffffffffffffffffffffffffffffffffffff166130e184610afa565b73ffffffffffffffffffffffffffffffffffffffff16145b8061310a57506131098185611f6e565b5b91505092915050565b8273ffffffffffffffffffffffffffffffffffffffff1661313382611667565b73ffffffffffffffffffffffffffffffffffffffff1614613189576040517f08c379a000000000000000000000000000000000000000000000000000000000815260040161318090615114565b60405180910390fd5b600073ffffffffffffffffffffffffffffffffffffffff168273ffffffffffffffffffffffffffffffffffffffff1614156131f9576040517f08c379a00000000000000000000000000000000000000000000000000000000081526004016131f0906151a6565b60405180910390fd5b613204838383613030565b61320f600082612625565b6001600360008573ffffffffffffffffffffffffffffffffffffffff1673ffffffffffffffffffffffffffffffffffffffff168152602001908152602001600020600082825461325f9190614bb7565b925050819055506001600360008473ffffffffffffffffffffffffffffffffffffffff1673ffffffffffffffffffffffffffffffffffffffff16815260200190815260200160002060008282546132b69190614d3b565b92505081905550816002600083815260200190815260200160002060006101000a81548173ffffffffffffffffffffffffffffffffffffffff021916908373ffffffffffffffffffffffffffffffffffffffff160217905550808273ffffffffffffffffffffffffffffffffffffffff168473ffffffffffffffffffffffffffffffffffffffff167fddf252ad1be2c89b69c2b068fc378daa952ba7f163c4a11628f55a4df523b3ef60405160405180910390a4505050565b6133798282611aa5565b1561344d5760006006600084815260200190815260200160002060000160008373ffffffffffffffffffffffffffffffffffffffff1673ffffffffffffffffffffffffffffffffffffffff16815260200190815260200160002060006101000a81548160ff0219169083151502179055506133f2612300565b73ffffffffffffffffffffffffffffffffffffffff168173ffffffffffffffffffffffffffffffffffffffff16837ff6391f5c32d9c69d2a47ea670b442974b53935d1edc7fd64eb21e047a839171b60405160405180910390a45b5050565b6000613479836000018373ffffffffffffffffffffffffffffffffffffffff1660001b61361e565b905092915050565b600082600001828154811061349957613498614b59565b5b9060005260206000200154905092915050565b6134b7848484613113565b6134c384848484613732565b613502576040517f08c379a00000000000000000000000000000000000000000000000000000000081526004016134f990615238565b60405180910390fd5b50505050565b600081600001805490509050919050565b600080836001016000848152602001908152602001600020541415905092915050565b60007f80ac58cd000000000000000000000000000000000000000000000000000000007bffffffffffffffffffffffffffffffffffffffffffffffffffffffff1916827bffffffffffffffffffffffffffffffffffffffffffffffffffffffff1916148061360757507f5b5e139f000000000000000000000000000000000000000000000000000000007bffffffffffffffffffffffffffffffffffffffffffffffffffffffff1916827bffffffffffffffffffffffffffffffffffffffffffffffffffffffff1916145b806136175750613616826138ba565b5b9050919050565b600080836001016000848152602001908152602001600020549050600081146137265760006001826136509190614bb7565b90506000600186600001805490506136689190614bb7565b90508181146136d757600086600001828154811061368957613688614b59565b5b90600052602060002001549050808760000184815481106136ad576136ac614b59565b5b90600052602060002001819055508387600101600083815260200190815260200160002081905550505b856000018054806136eb576136ea614beb565b5b60019003818190600052602060002001600090559055856001016000868152602001908152602001600020600090556001935050505061372c565b60009150505b92915050565b60006137538473ffffffffffffffffffffffffffffffffffffffff16613924565b156138ad578373ffffffffffffffffffffffffffffffffffffffff1663150b7a0261377c612300565b8786866040518563ffffffff1660e01b815260040161379e94939291906152ad565b6020604051808303816000875af19250505080156137da57506040513d601f19601f820116820180604052508101906137d7919061530e565b60015b61385d573d806000811461380a576040519150601f19603f3d011682016040523d82523d6000602084013e61380f565b606091505b50600081511415613855576040517f08c379a000000000000000000000000000000000000000000000000000000000815260040161384c90615238565b60405180910390fd5b805181602001fd5b63150b7a0260e01b7bffffffffffffffffffffffffffffffffffffffffffffffffffffffff1916817bffffffffffffffffffffffffffffffffffffffffffffffffffffffff1916149150506138b2565b600190505b949350505050565b60007f01ffc9a7000000000000000000000000000000000000000000000000000000007bffffffffffffffffffffffffffffffffffffffffffffffffffffffff1916827bffffffffffffffffffffffffffffffffffffffffffffffffffffffff1916149050919050565b600080823b905060008111915050919050565b828054613943906143e4565b90600052602060002090601f01602090048101928261396557600085556139ac565b82601f1061397e57805160ff19168380011785556139ac565b828001600101855582156139ac579182015b828111156139ab578251825591602001919060010190613990565b5b5090506139b991906139bd565b5090565b5b808211156139d65760008160009055506001016139be565b5090565b6000604051905090565b600080fd5b600080fd5b60007fffffffff0000000000000000000000000000000000000000000000000000000082169050919050565b613a23816139ee565b8114613a2e57600080fd5b50565b600081359050613a4081613a1a565b92915050565b600060208284031215613a5c57613a5b6139e4565b5b6000613a6a84828501613a31565b91505092915050565b60008115159050919050565b613a8881613a73565b82525050565b6000602082019050613aa36000830184613a7f565b92915050565b600073ffffffffffffffffffffffffffffffffffffffff82169050919050565b6000613ad482613aa9565b9050919050565b613ae481613ac9565b8114613aef57600080fd5b50565b600081359050613b0181613adb565b92915050565b600060208284031215613b1d57613b1c6139e4565b5b6000613b2b84828501613af2565b91505092915050565b600081519050919050565b600082825260208201905092915050565b60005b83811015613b6e578082015181840152602081019050613b53565b83811115613b7d576000848401525b50505050565b6000601f19601f8301169050919050565b6000613b9f82613b34565b613ba98185613b3f565b9350613bb9818560208601613b50565b613bc281613b83565b840191505092915050565b60006020820190508181036000830152613be78184613b94565b905092915050565b6000819050919050565b613c0281613bef565b8114613c0d57600080fd5b50565b600081359050613c1f81613bf9565b92915050565b600060208284031215613c3b57613c3a6139e4565b5b6000613c4984828501613c10565b91505092915050565b613c5b81613ac9565b82525050565b6000602082019050613c766000830184613c52565b92915050565b60008060408385031215613c9357613c926139e4565b5b6000613ca185828601613af2565b9250506020613cb285828601613c10565b9150509250929050565b600081519050919050565b600082825260208201905092915050565b6000819050602082019050919050565b613cf181613ac9565b82525050565b6000613d038383613ce8565b60208301905092915050565b6000602082019050919050565b6000613d2782613cbc565b613d318185613cc7565b9350613d3c83613cd8565b8060005b83811015613d6d578151613d548882613cf7565b9750613d5f83613d0f565b925050600181019050613d40565b5085935050505092915050565b60006020820190508181036000830152613d948184613d1c565b905092915050565b600080fd5b600080fd5b7f4e487b7100000000000000000000000000000000000000000000000000000000600052604160045260246000fd5b613dde82613b83565b810181811067ffffffffffffffff82111715613dfd57613dfc613da6565b5b80604052505050565b6000613e106139da565b9050613e1c8282613dd5565b919050565b600067ffffffffffffffff821115613e3c57613e3b613da6565b5b613e4582613b83565b9050602081019050919050565b82818337600083830152505050565b6000613e74613e6f84613e21565b613e06565b905082815260208101848484011115613e9057613e8f613da1565b5b613e9b848285613e52565b509392505050565b600082601f830112613eb857613eb7613d9c565b5b8135613ec8848260208601613e61565b91505092915050565b60008060408385031215613ee857613ee76139e4565b5b600083013567ffffffffffffffff811115613f0657613f056139e9565b5b613f1285828601613ea3565b9250506020613f2385828601613af2565b9150509250929050565b600080600060608486031215613f4657613f456139e4565b5b6000613f5486828701613af2565b9350506020613f6586828701613af2565b9250506040613f7686828701613c10565b9150509250925092565b6000819050919050565b613f9381613f80565b8114613f9e57600080fd5b50565b600081359050613fb081613f8a565b92915050565b600060208284031215613fcc57613fcb6139e4565b5b6000613fda84828501613fa1565b91505092915050565b613fec81613f80565b82525050565b60006020820190506140076000830184613fe3565b92915050565b60008060408385031215614024576140236139e4565b5b600061403285828601613fa1565b925050602061404385828601613af2565b9150509250929050565b61405681613bef565b82525050565b6000602082019050614071600083018461404d565b92915050565b600081519050919050565b600082825260208201905092915050565b6000819050602082019050919050565b600082825260208201905092915050565b60006140bf82613b34565b6140c981856140a3565b93506140d9818560208601613b50565b6140e281613b83565b840191505092915050565b60006140f983836140b4565b905092915050565b6000602082019050919050565b600061411982614077565b6141238185614082565b93508360208202850161413585614093565b8060005b85811015614171578484038952815161415285826140ed565b945061415d83614101565b925060208a01995050600181019050614139565b50829750879550505050505092915050565b6000602082019050818103600083015261419d818461410e565b905092915050565b600080604083850312156141bc576141bb6139e4565b5b60006141ca85828601613fa1565b92505060206141db85828601613c10565b9150509250929050565b6141ee81613a73565b81146141f957600080fd5b50565b60008135905061420b816141e5565b92915050565b60008060408385031215614228576142276139e4565b5b600061423685828601613af2565b9250506020614247858286016141fc565b9150509250929050565b600067ffffffffffffffff82111561426c5761426b613da6565b5b61427582613b83565b9050602081019050919050565b600061429561429084614251565b613e06565b9050828152602081018484840111156142b1576142b0613da1565b5b6142bc848285613e52565b509392505050565b600082601f8301126142d9576142d8613d9c565b5b81356142e9848260208601614282565b91505092915050565b6000806000806080858703121561430c5761430b6139e4565b5b600061431a87828801613af2565b945050602061432b87828801613af2565b935050604061433c87828801613c10565b925050606085013567ffffffffffffffff81111561435d5761435c6139e9565b5b614369878288016142c4565b91505092959194509250565b6000806040838503121561438c5761438b6139e4565b5b600061439a85828601613af2565b92505060206143ab85828601613af2565b9150509250929050565b7f4e487b7100000000000000000000000000000000000000000000000000000000600052602260045260246000fd5b600060028204905060018216806143fc57607f821691505b602082108114156144105761440f6143b5565b5b50919050565b7f4552433732313a20617070726f76656420717565727920666f72206e6f6e657860008201527f697374656e7420746f6b656e0000000000000000000000000000000000000000602082015250565b6000614472602c83613b3f565b915061447d82614416565b604082019050919050565b600060208201905081810360008301526144a181614465565b9050919050565b7f4552433732313a20617070726f76616c20746f2063757272656e74206f776e6560008201527f7200000000000000000000000000000000000000000000000000000000000000602082015250565b6000614504602183613b3f565b915061450f826144a8565b604082019050919050565b60006020820190508181036000830152614533816144f7565b9050919050565b7f4552433732313a20617070726f76652063616c6c6572206973206e6f74206f7760008201527f6e6572206e6f7220617070726f76656420666f7220616c6c0000000000000000602082015250565b6000614596603883613b3f565b91506145a18261453a565b604082019050919050565b600060208201905081810360008301526145c581614589565b9050919050565b600081905092915050565b60006145e282613b34565b6145ec81856145cc565b93506145fc818560208601613b50565b80840191505092915050565b600061461482846145d7565b915081905092915050565b7f54686973206c696e6b20697320616c7265616479206d696e7465640000000000600082015250565b6000614655601b83613b3f565b91506146608261461f565b602082019050919050565b6000602082019050818103600083015261468481614648565b9050919050565b7f5468697320677261647561746520616c7265616479206861732061204469706c60008201527f6f6d610000000000000000000000000000000000000000000000000000000000602082015250565b60006146e7602383613b3f565b91506146f28261468b565b604082019050919050565b60006020820190508181036000830152614716816146da565b9050919050565b7f5472616e73666572206166746572206d696e742069732070726f68696269746560008201527f6400000000000000000000000000000000000000000000000000000000000000602082015250565b6000614779602183613b3f565b91506147848261471d565b604082019050919050565b600060208201905081810360008301526147a88161476c565b9050919050565b7f416363657373436f6e74726f6c3a2063616e206f6e6c792072656e6f756e636560008201527f20726f6c657320666f722073656c660000000000000000000000000000000000602082015250565b600061480b602f83613b3f565b9150614816826147af565b604082019050919050565b6000602082019050818103600083015261483a816147fe565b9050919050565b7f5468652061646472657373206973206e6f7420612073747564656e7400000000600082015250565b6000614877601c83613b3f565b915061488282614841565b602082019050919050565b600060208201905081810360008301526148a68161486a565b9050919050565b7f4552433732313a206f776e657220717565727920666f72206e6f6e657869737460008201527f656e7420746f6b656e0000000000000000000000000000000000000000000000602082015250565b6000614909602983613b3f565b9150614914826148ad565b604082019050919050565b60006020820190508181036000830152614938816148fc565b9050919050565b7f4552433732313a2062616c616e636520717565727920666f7220746865207a6560008201527f726f206164647265737300000000000000000000000000000000000000000000602082015250565b600061499b602a83613b3f565b91506149a68261493f565b604082019050919050565b600060208201905081810360008301526149ca8161498e565b9050919050565b7f4552433732314d657461646174613a2055524920717565727920666f72206e6f60008201527f6e6578697374656e7420746f6b656e0000000000000000000000000000000000602082015250565b6000614a2d602f83613b3f565b9150614a38826149d1565b604082019050919050565b60006020820190508181036000830152614a5c81614a20565b9050919050565b6000614a6f82856145d7565b9150614a7b82846145d7565b91508190509392505050565b7f416363657373436f6e74726f6c3a206163636f756e7420000000000000000000600082015250565b6000614abd6017836145cc565b9150614ac882614a87565b601782019050919050565b7f206973206d697373696e6720726f6c6520000000000000000000000000000000600082015250565b6000614b096011836145cc565b9150614b1482614ad3565b601182019050919050565b6000614b2a82614ab0565b9150614b3682856145d7565b9150614b4182614afc565b9150614b4d82846145d7565b91508190509392505050565b7f4e487b7100000000000000000000000000000000000000000000000000000000600052603260045260246000fd5b7f4e487b7100000000000000000000000000000000000000000000000000000000600052601160045260246000fd5b6000614bc282613bef565b9150614bcd83613bef565b925082821015614be057614bdf614b88565b5b828203905092915050565b7f4e487b7100000000000000000000000000000000000000000000000000000000600052603160045260246000fd5b6000614c2582613bef565b91507fffffffffffffffffffffffffffffffffffffffffffffffffffffffffffffffff821415614c5857614c57614b88565b5b600182019050919050565b7f4552433732313a206d696e7420746f20746865207a65726f2061646472657373600082015250565b6000614c99602083613b3f565b9150614ca482614c63565b602082019050919050565b60006020820190508181036000830152614cc881614c8c565b9050919050565b7f4552433732313a20746f6b656e20616c7265616479206d696e74656400000000600082015250565b6000614d05601c83613b3f565b9150614d1082614ccf565b602082019050919050565b60006020820190508181036000830152614d3481614cf8565b9050919050565b6000614d4682613bef565b9150614d5183613bef565b9250827fffffffffffffffffffffffffffffffffffffffffffffffffffffffffffffffff03821115614d8657614d85614b88565b5b828201905092915050565b7f4552433732313a207472616e736665722063616c6c6572206973206e6f74206f60008201527f776e6572206e6f7220617070726f766564000000000000000000000000000000602082015250565b6000614ded603183613b3f565b9150614df882614d91565b604082019050919050565b60006020820190508181036000830152614e1c81614de0565b9050919050565b7f4552433732313a20617070726f766520746f2063616c6c657200000000000000600082015250565b6000614e59601983613b3f565b9150614e6482614e23565b602082019050919050565b60006020820190508181036000830152614e8881614e4c565b9050919050565b7f4e487b7100000000000000000000000000000000000000000000000000000000600052601260045260246000fd5b6000614ec982613bef565b9150614ed483613bef565b925082614ee457614ee3614e8f565b5b828204905092915050565b6000614efa82613bef565b9150614f0583613bef565b925082614f1557614f14614e8f565b5b828206905092915050565b6000614f2b82613bef565b9150614f3683613bef565b9250817fffffffffffffffffffffffffffffffffffffffffffffffffffffffffffffffff0483118215151615614f6f57614f6e614b88565b5b828202905092915050565b6000614f8582613bef565b91506000821415614f9957614f98614b88565b5b600182039050919050565b7f537472696e67733a20686578206c656e67746820696e73756666696369656e74600082015250565b6000614fda602083613b3f565b9150614fe582614fa4565b602082019050919050565b6000602082019050818103600083015261500981614fcd565b9050919050565b7f4552433732313a206f70657261746f7220717565727920666f72206e6f6e657860008201527f697374656e7420746f6b656e0000000000000000000000000000000000000000602082015250565b600061506c602c83613b3f565b915061507782615010565b604082019050919050565b6000602082019050818103600083015261509b8161505f565b9050919050565b7f4552433732313a207472616e73666572206f6620746f6b656e2074686174206960008201527f73206e6f74206f776e0000000000000000000000000000000000000000000000602082015250565b60006150fe602983613b3f565b9150615109826150a2565b604082019050919050565b6000602082019050818103600083015261512d816150f1565b9050919050565b7f4552433732313a207472616e7366657220746f20746865207a65726f2061646460008201527f7265737300000000000000000000000000000000000000000000000000000000602082015250565b6000615190602483613b3f565b915061519b82615134565b604082019050919050565b600060208201905081810360008301526151bf81615183565b9050919050565b7f4552433732313a207472616e7366657220746f206e6f6e20455243373231526560008201527f63656976657220696d706c656d656e7465720000000000000000000000000000602082015250565b6000615222603283613b3f565b915061522d826151c6565b604082019050919050565b6000602082019050818103600083015261525181615215565b9050919050565b600081519050919050565b600082825260208201905092915050565b600061527f82615258565b6152898185615263565b9350615299818560208601613b50565b6152a281613b83565b840191505092915050565b60006080820190506152c26000830187613c52565b6152cf6020830186613c52565b6152dc604083018561404d565b81810360608301526152ee8184615274565b905095945050505050565b60008151905061530881613a1a565b92915050565b600060208284031215615324576153236139e4565b5b6000615332848285016152f9565b9150509291505056fea2646970667358221220bde2bab9646f466562fdb4bcc351f1fe58c9c507ea19584116cdc6fb3448f4e064736f6c634300080a0033",
  "immutableReferences": {},
  "source": "pragma solidity ^0.8.10;\r\n\r\nimport \"@openzeppelin/contracts/token/ERC721/ERC721.sol\";\r\nimport \"./Roles.sol\";\r\n\r\ncontract Diploma is ERC721, Roles {\r\n\r\n    //Mapping owner to the tokenID\r\n    mapping(address => uint256) _hasCertificate;\r\n    //Mapping tokenID to the owner is defined in ERC721.sol as ownerOf\r\n    //is Diploma link exist\r\n    mapping(string => bool) _diplomaExist;\r\n    //List of Diploma Links\r\n    string[] _diplomaLinks;\r\n\r\n    constructor() ERC721(\"Diploma\", \"DPLM\"){\r\n        _setupRole(DEFAULT_ADMIN_ROLE, msg.sender);\r\n        _setupRole(RECTOR_ROLE, msg.sender);\r\n    }\r\n\r\n    function mint(string memory _diplomaLink, address graduatedAddress) public onlyRole(RECTOR_ROLE){\r\n        require(!_diplomaExist[_diplomaLink], \"This link is already minted\");\r\n        require(_hasCertificate[graduatedAddress] == 0, \"This graduate already has a Diploma\");\r\n        grantGraduatedRole(graduatedAddress);\r\n        //diplomaLinks - add\r\n        _diplomaLinks.push(_diplomaLink);\r\n        uint _id = _diplomaLinks.length; //tokenID's start from 1 because default uint256 value is 0\r\n        //Call mint of ERC721\r\n        _mint(graduatedAddress, _id);\r\n        //Trace it\r\n        _diplomaExist[_diplomaLink] = true;\r\n        _hasCertificate[graduatedAddress] = _id;\r\n    }\r\n    function getDiplomaLinks() public view returns(string[] memory diplomaLinks){\r\n        return _diplomaLinks;\r\n    }\r\n\r\n    //TODO Contract Owner can make mistakes when minting. Token should be somewhat editable for contract owner\r\n    function transferFrom(//Only callable when minted\r\n        address from,\r\n        address to,\r\n        uint256 tokenId\r\n    ) public virtual override {\r\n        require(msg.sender == 0x0000000000000000000000000000000000000000, \"Transfer after mint is prohibited\");\r\n        super.transferFrom(from,to,tokenId);\r\n    }\r\n    function safeTransferFrom(//Only callable when minted\r\n        address from,\r\n        address to,\r\n        uint256 tokenId\r\n    ) public virtual override {\r\n        require(msg.sender == 0x0000000000000000000000000000000000000000, \"Transfer after mint is prohibited\");\r\n        super.safeTransferFrom(from,to,tokenId);\r\n    }\r\n    function safeTransferFrom(//Only callable when minted\r\n        address from,\r\n        address to,\r\n        uint256 tokenId,\r\n        bytes memory _data\r\n    ) public virtual override {\r\n        require(msg.sender == 0x0000000000000000000000000000000000000000, \"Transfer after mint is prohibited\");\r\n        super.safeTransferFrom(from, to, tokenId, _data);\r\n    }\r\n    function supportsInterface(bytes4 interfaceId) public view virtual override(ERC721, AccessControlEnumerable) returns (bool) {\r\n        return super.supportsInterface(interfaceId);\r\n    }\r\n\r\n}\r\n",
  "sourcePath": "C:\\Users\\asus\\Desktop\\Dersler\\CMPE492\\certification-project\\contracts\\Diploma.sol",
  "compiler": {
    "name": "solc",
    "version": "0.8.10+commit.fc410830.Emscripten.clang"
  },
  "schemaVersion": "3.4.4",
  "updatedAt": "2022-01-15T00:13:30.783Z",
  "networkType": "ethereum",
  "devdoc": {
    "kind": "dev",
    "methods": {
      "approve(address,uint256)": {
        "details": "See {IERC721-approve}."
      },
      "balanceOf(address)": {
        "details": "See {IERC721-balanceOf}."
      },
      "getApproved(uint256)": {
        "details": "See {IERC721-getApproved}."
      },
      "getRoleAdmin(bytes32)": {
        "details": "Returns the admin role that controls `role`. See {grantRole} and {revokeRole}. To change a role's admin, use {_setRoleAdmin}."
      },
      "getRoleMember(bytes32,uint256)": {
        "details": "Returns one of the accounts that have `role`. `index` must be a value between 0 and {getRoleMemberCount}, non-inclusive. Role bearers are not sorted in any particular way, and their ordering may change at any point. WARNING: When using {getRoleMember} and {getRoleMemberCount}, make sure you perform all queries on the same block. See the following https://forum.openzeppelin.com/t/iterating-over-elements-on-enumerableset-in-openzeppelin-contracts/2296[forum post] for more information."
      },
      "getRoleMemberCount(bytes32)": {
        "details": "Returns the number of accounts that have `role`. Can be used together with {getRoleMember} to enumerate all bearers of a role."
      },
      "grantRole(bytes32,address)": {
        "details": "Grants `role` to `account`. If `account` had not been already granted `role`, emits a {RoleGranted} event. Requirements: - the caller must have ``role``'s admin role."
      },
      "hasRole(bytes32,address)": {
        "details": "Returns `true` if `account` has been granted `role`."
      },
      "isApprovedForAll(address,address)": {
        "details": "See {IERC721-isApprovedForAll}."
      },
      "name()": {
        "details": "See {IERC721Metadata-name}."
      },
      "ownerOf(uint256)": {
        "details": "See {IERC721-ownerOf}."
      },
      "renounceRole(bytes32,address)": {
        "details": "Revokes `role` from the calling account. Roles are often managed via {grantRole} and {revokeRole}: this function's purpose is to provide a mechanism for accounts to lose their privileges if they are compromised (such as when a trusted device is misplaced). If the calling account had been revoked `role`, emits a {RoleRevoked} event. Requirements: - the caller must be `account`."
      },
      "revokeRole(bytes32,address)": {
        "details": "Revokes `role` from `account`. If `account` had been granted `role`, emits a {RoleRevoked} event. Requirements: - the caller must have ``role``'s admin role."
      },
      "safeTransferFrom(address,address,uint256)": {
        "details": "See {IERC721-safeTransferFrom}."
      },
      "safeTransferFrom(address,address,uint256,bytes)": {
        "details": "See {IERC721-safeTransferFrom}."
      },
      "setApprovalForAll(address,bool)": {
        "details": "See {IERC721-setApprovalForAll}."
      },
      "symbol()": {
        "details": "See {IERC721Metadata-symbol}."
      },
      "tokenURI(uint256)": {
        "details": "See {IERC721Metadata-tokenURI}."
      },
      "transferFrom(address,address,uint256)": {
        "details": "See {IERC721-transferFrom}."
      }
    },
    "version": 1
  },
  "userdoc": {
    "kind": "user",
    "methods": {},
    "version": 1
  }
}