{
  "contractName": "Diploma",
  "abi": [
    {
      "inputs": [
        {
          "internalType": "address",
          "name": "_rolesContractAddress",
          "type": "address"
        },
        {
          "internalType": "address",
          "name": "_requestContractAddress",
          "type": "address"
        }
      ],
      "stateMutability": "nonpayable",
      "type": "constructor"
    },
    {
      "anonymous": false,
      "inputs": [
        {
          "indexed": true,
          "internalType": "address",
          "name": "owner",
          "type": "address"
        },
        {
          "indexed": true,
          "internalType": "address",
          "name": "approved",
          "type": "address"
        },
        {
          "indexed": true,
          "internalType": "uint256",
          "name": "tokenId",
          "type": "uint256"
        }
      ],
      "name": "Approval",
      "type": "event"
    },
    {
      "anonymous": false,
      "inputs": [
        {
          "indexed": true,
          "internalType": "address",
          "name": "owner",
          "type": "address"
        },
        {
          "indexed": true,
          "internalType": "address",
          "name": "operator",
          "type": "address"
        },
        {
          "indexed": false,
          "internalType": "bool",
          "name": "approved",
          "type": "bool"
        }
      ],
      "name": "ApprovalForAll",
      "type": "event"
    },
    {
      "anonymous": false,
      "inputs": [
        {
          "indexed": true,
          "internalType": "address",
          "name": "from",
          "type": "address"
        },
        {
          "indexed": true,
          "internalType": "address",
          "name": "to",
          "type": "address"
        },
        {
          "indexed": true,
          "internalType": "uint256",
          "name": "tokenId",
          "type": "uint256"
        }
      ],
      "name": "Transfer",
      "type": "event"
    },
    {
      "inputs": [
        {
          "internalType": "address",
          "name": "to",
          "type": "address"
        },
        {
          "internalType": "uint256",
          "name": "tokenId",
          "type": "uint256"
        }
      ],
      "name": "approve",
      "outputs": [],
      "stateMutability": "nonpayable",
      "type": "function"
    },
    {
      "inputs": [
        {
          "internalType": "address",
          "name": "owner",
          "type": "address"
        }
      ],
      "name": "balanceOf",
      "outputs": [
        {
          "internalType": "uint256",
          "name": "",
          "type": "uint256"
        }
      ],
      "stateMutability": "view",
      "type": "function"
    },
    {
      "inputs": [
        {
          "internalType": "uint256",
          "name": "tokenId",
          "type": "uint256"
        }
      ],
      "name": "getApproved",
      "outputs": [
        {
          "internalType": "address",
          "name": "",
          "type": "address"
        }
      ],
      "stateMutability": "view",
      "type": "function"
    },
    {
      "inputs": [
        {
          "internalType": "address",
          "name": "owner",
          "type": "address"
        },
        {
          "internalType": "address",
          "name": "operator",
          "type": "address"
        }
      ],
      "name": "isApprovedForAll",
      "outputs": [
        {
          "internalType": "bool",
          "name": "",
          "type": "bool"
        }
      ],
      "stateMutability": "view",
      "type": "function"
    },
    {
      "inputs": [],
      "name": "name",
      "outputs": [
        {
          "internalType": "string",
          "name": "",
          "type": "string"
        }
      ],
      "stateMutability": "view",
      "type": "function"
    },
    {
      "inputs": [
        {
          "internalType": "uint256",
          "name": "tokenId",
          "type": "uint256"
        }
      ],
      "name": "ownerOf",
      "outputs": [
        {
          "internalType": "address",
          "name": "",
          "type": "address"
        }
      ],
      "stateMutability": "view",
      "type": "function"
    },
    {
      "inputs": [
        {
          "internalType": "address",
          "name": "operator",
          "type": "address"
        },
        {
          "internalType": "bool",
          "name": "approved",
          "type": "bool"
        }
      ],
      "name": "setApprovalForAll",
      "outputs": [],
      "stateMutability": "nonpayable",
      "type": "function"
    },
    {
      "inputs": [
        {
          "internalType": "bytes4",
          "name": "interfaceId",
          "type": "bytes4"
        }
      ],
      "name": "supportsInterface",
      "outputs": [
        {
          "internalType": "bool",
          "name": "",
          "type": "bool"
        }
      ],
      "stateMutability": "view",
      "type": "function"
    },
    {
      "inputs": [],
      "name": "symbol",
      "outputs": [
        {
          "internalType": "string",
          "name": "",
          "type": "string"
        }
      ],
      "stateMutability": "view",
      "type": "function"
    },
    {
      "inputs": [
        {
          "internalType": "uint256",
          "name": "tokenId",
          "type": "uint256"
        }
      ],
      "name": "tokenURI",
      "outputs": [
        {
          "internalType": "string",
          "name": "",
          "type": "string"
        }
      ],
      "stateMutability": "view",
      "type": "function"
    },
    {
      "inputs": [
        {
          "internalType": "string",
          "name": "_diplomaLink",
          "type": "string"
        },
        {
          "internalType": "address",
          "name": "_graduatedAddress",
          "type": "address"
        }
      ],
      "name": "mint",
      "outputs": [],
      "stateMutability": "nonpayable",
      "type": "function"
    },
    {
      "inputs": [],
      "name": "getDiplomaLinks",
      "outputs": [
        {
          "internalType": "string[]",
          "name": "",
          "type": "string[]"
        }
      ],
      "stateMutability": "view",
      "type": "function"
    },
    {
      "inputs": [
        {
          "internalType": "address",
          "name": "_graduatedAddress",
          "type": "address"
        }
      ],
      "name": "getDiplomaID",
      "outputs": [
        {
          "internalType": "uint256",
          "name": "",
          "type": "uint256"
        }
      ],
      "stateMutability": "view",
      "type": "function"
    },
    {
      "inputs": [
        {
          "internalType": "address",
          "name": "from",
          "type": "address"
        },
        {
          "internalType": "address",
          "name": "to",
          "type": "address"
        },
        {
          "internalType": "uint256",
          "name": "tokenId",
          "type": "uint256"
        }
      ],
      "name": "transferFrom",
      "outputs": [],
      "stateMutability": "nonpayable",
      "type": "function"
    },
    {
      "inputs": [
        {
          "internalType": "address",
          "name": "from",
          "type": "address"
        },
        {
          "internalType": "address",
          "name": "to",
          "type": "address"
        },
        {
          "internalType": "uint256",
          "name": "tokenId",
          "type": "uint256"
        }
      ],
      "name": "safeTransferFrom",
      "outputs": [],
      "stateMutability": "nonpayable",
      "type": "function"
    },
    {
      "inputs": [
        {
          "internalType": "address",
          "name": "from",
          "type": "address"
        },
        {
          "internalType": "address",
          "name": "to",
          "type": "address"
        },
        {
          "internalType": "uint256",
          "name": "tokenId",
          "type": "uint256"
        },
        {
          "internalType": "bytes",
          "name": "_data",
          "type": "bytes"
        }
      ],
      "name": "safeTransferFrom",
      "outputs": [],
      "stateMutability": "nonpayable",
      "type": "function"
    }
  ],
  "bytecode": "0x60806040523480156200001157600080fd5b50604051620037733803806200377383398181016040528101906200003791906200027b565b6040518060400160405280600781526020017f4469706c6f6d61000000000000000000000000000000000000000000000000008152506040518060400160405280600481526020017f44504c4d000000000000000000000000000000000000000000000000000000008152508160009080519060200190620000bb92919062000161565b508060019080519060200190620000d492919062000161565b50505081600660006101000a81548173ffffffffffffffffffffffffffffffffffffffff021916908373ffffffffffffffffffffffffffffffffffffffff16021790555080600760006101000a81548173ffffffffffffffffffffffffffffffffffffffff021916908373ffffffffffffffffffffffffffffffffffffffff160217905550505062000327565b8280546200016f90620002f1565b90600052602060002090601f016020900481019282620001935760008555620001df565b82601f10620001ae57805160ff1916838001178555620001df565b82800160010185558215620001df579182015b82811115620001de578251825591602001919060010190620001c1565b5b509050620001ee9190620001f2565b5090565b5b808211156200020d576000816000905550600101620001f3565b5090565b600080fd5b600073ffffffffffffffffffffffffffffffffffffffff82169050919050565b6000620002438262000216565b9050919050565b620002558162000236565b81146200026157600080fd5b50565b60008151905062000275816200024a565b92915050565b6000806040838503121562000295576200029462000211565b5b6000620002a58582860162000264565b9250506020620002b88582860162000264565b9150509250929050565b7f4e487b7100000000000000000000000000000000000000000000000000000000600052602260045260246000fd5b600060028204905060018216806200030a57607f821691505b60208210811415620003215762000320620002c2565b5b50919050565b61343c80620003376000396000f3fe608060405234801561001057600080fd5b50600436106101005760003560e01c80636352211e11610097578063a22cb46511610066578063a22cb465146102bf578063b88d4fde146102db578063c87b56dd146102f7578063e985e9c51461032757610100565b80636352211e1461022357806370a08231146102535780637ab08b801461028357806395d89b41146102a157610100565b80631c351a9d116100d35780631c351a9d1461019f57806323b872dd146101bb57806342842e0e146101d757806343aea984146101f357610100565b806301ffc9a71461010557806306fdde0314610135578063081812fc14610153578063095ea7b314610183575b600080fd5b61011f600480360381019061011a9190611e57565b610357565b60405161012c9190611e9f565b60405180910390f35b61013d610439565b60405161014a9190611f53565b60405180910390f35b61016d60048036038101906101689190611fab565b6104cb565b60405161017a9190612019565b60405180910390f35b61019d60048036038101906101989190612060565b610550565b005b6101b960048036038101906101b491906121d5565b610668565b005b6101d560048036038101906101d09190612231565b610af8565b005b6101f160048036038101906101ec9190612231565b610b77565b005b61020d60048036038101906102089190612284565b610bf6565b60405161021a91906122c0565b60405180910390f35b61023d60048036038101906102389190611fab565b610c3f565b60405161024a9190612019565b60405180910390f35b61026d60048036038101906102689190612284565b610cf1565b60405161027a91906122c0565b60405180910390f35b61028b610da9565b60405161029891906123e7565b60405180910390f35b6102a9610e82565b6040516102b69190611f53565b60405180910390f35b6102d960048036038101906102d49190612435565b610f14565b005b6102f560048036038101906102f09190612516565b610f2a565b005b610311600480360381019061030c9190611fab565b610fab565b60405161031e9190611f53565b60405180910390f35b610341600480360381019061033c9190612599565b611052565b60405161034e9190611e9f565b60405180910390f35b60007f80ac58cd000000000000000000000000000000000000000000000000000000007bffffffffffffffffffffffffffffffffffffffffffffffffffffffff1916827bffffffffffffffffffffffffffffffffffffffffffffffffffffffff1916148061042257507f5b5e139f000000000000000000000000000000000000000000000000000000007bffffffffffffffffffffffffffffffffffffffffffffffffffffffff1916827bffffffffffffffffffffffffffffffffffffffffffffffffffffffff1916145b806104325750610431826110e6565b5b9050919050565b60606000805461044890612608565b80601f016020809104026020016040519081016040528092919081815260200182805461047490612608565b80156104c15780601f10610496576101008083540402835291602001916104c1565b820191906000526020600020905b8154815290600101906020018083116104a457829003601f168201915b5050505050905090565b60006104d682611150565b610515576040517f08c379a000000000000000000000000000000000000000000000000000000000815260040161050c906126ac565b60405180910390fd5b6004600083815260200190815260200160002060009054906101000a900473ffffffffffffffffffffffffffffffffffffffff169050919050565b600061055b82610c3f565b90508073ffffffffffffffffffffffffffffffffffffffff168373ffffffffffffffffffffffffffffffffffffffff1614156105cc576040517f08c379a00000000000000000000000000000000000000000000000000000000081526004016105c39061273e565b60405180910390fd5b8073ffffffffffffffffffffffffffffffffffffffff166105eb6111bc565b73ffffffffffffffffffffffffffffffffffffffff16148061061a5750610619816106146111bc565b611052565b5b610659576040517f08c379a0000000000000000000000000000000000000000000000000000000008152600401610650906127d0565b60405180910390fd5b61066383836111c4565b505050565b600660009054906101000a900473ffffffffffffffffffffffffffffffffffffffff1673ffffffffffffffffffffffffffffffffffffffff16632be7dc44336040518263ffffffff1660e01b81526004016106c39190612019565b602060405180830381865afa1580156106e0573d6000803e3d6000fd5b505050506040513d601f19601f820116820180604052508101906107049190612805565b610743576040517f08c379a000000000000000000000000000000000000000000000000000000000815260040161073a906128a4565b60405180910390fd5b600660009054906101000a900473ffffffffffffffffffffffffffffffffffffffff1673ffffffffffffffffffffffffffffffffffffffff1663fc3ba6b4826040518263ffffffff1660e01b815260040161079e9190612019565b602060405180830381865afa1580156107bb573d6000803e3d6000fd5b505050506040513d601f19601f820116820180604052508101906107df9190612805565b61081e576040517f08c379a000000000000000000000000000000000000000000000000000000000815260040161081590612936565b60405180910390fd5b60098260405161082e9190612992565b908152602001604051809103902060009054906101000a900460ff161561088a576040517f08c379a0000000000000000000000000000000000000000000000000000000008152600401610881906129f5565b60405180910390fd5b6000600860008373ffffffffffffffffffffffffffffffffffffffff1673ffffffffffffffffffffffffffffffffffffffff168152602001908152602001600020541461090c576040517f08c379a000000000000000000000000000000000000000000000000000000000815260040161090390612a87565b60405180910390fd5b600660009054906101000a900473ffffffffffffffffffffffffffffffffffffffff1673ffffffffffffffffffffffffffffffffffffffff16635ea07b1c826040518263ffffffff1660e01b81526004016109679190612019565b600060405180830381600087803b15801561098157600080fd5b505af1158015610995573d6000803e3d6000fd5b50505050600a829080600181540180825580915050600190039060005260206000200160009091909190915090805190602001906109d4929190611d48565b506000600a8054905090506109e9828261127d565b60016009846040516109fb9190612992565b908152602001604051809103902060006101000a81548160ff02191690831515021790555080600860008473ffffffffffffffffffffffffffffffffffffffff1673ffffffffffffffffffffffffffffffffffffffff16815260200190815260200160002081905550600760009054906101000a900473ffffffffffffffffffffffffffffffffffffffff1673ffffffffffffffffffffffffffffffffffffffff1663851fb47684846040518363ffffffff1660e01b8152600401610ac1929190612aa7565b600060405180830381600087803b158015610adb57600080fd5b505af1158015610aef573d6000803e3d6000fd5b50505050505050565b600073ffffffffffffffffffffffffffffffffffffffff163373ffffffffffffffffffffffffffffffffffffffff1614610b67576040517f08c379a0000000000000000000000000000000000000000000000000000000008152600401610b5e90612b49565b60405180910390fd5b610b7283838361144b565b505050565b600073ffffffffffffffffffffffffffffffffffffffff163373ffffffffffffffffffffffffffffffffffffffff1614610be6576040517f08c379a0000000000000000000000000000000000000000000000000000000008152600401610bdd90612b49565b60405180910390fd5b610bf18383836114ab565b505050565b6000600860008373ffffffffffffffffffffffffffffffffffffffff1673ffffffffffffffffffffffffffffffffffffffff168152602001908152602001600020549050919050565b6000806002600084815260200190815260200160002060009054906101000a900473ffffffffffffffffffffffffffffffffffffffff169050600073ffffffffffffffffffffffffffffffffffffffff168173ffffffffffffffffffffffffffffffffffffffff161415610ce8576040517f08c379a0000000000000000000000000000000000000000000000000000000008152600401610cdf90612bdb565b60405180910390fd5b80915050919050565b60008073ffffffffffffffffffffffffffffffffffffffff168273ffffffffffffffffffffffffffffffffffffffff161415610d62576040517f08c379a0000000000000000000000000000000000000000000000000000000008152600401610d5990612c6d565b60405180910390fd5b600360008373ffffffffffffffffffffffffffffffffffffffff1673ffffffffffffffffffffffffffffffffffffffff168152602001908152602001600020549050919050565b6060600a805480602002602001604051908101604052809291908181526020016000905b82821015610e79578382906000526020600020018054610dec90612608565b80601f0160208091040260200160405190810160405280929190818152602001828054610e1890612608565b8015610e655780601f10610e3a57610100808354040283529160200191610e65565b820191906000526020600020905b815481529060010190602001808311610e4857829003601f168201915b505050505081526020019060010190610dcd565b50505050905090565b606060018054610e9190612608565b80601f0160208091040260200160405190810160405280929190818152602001828054610ebd90612608565b8015610f0a5780601f10610edf57610100808354040283529160200191610f0a565b820191906000526020600020905b815481529060010190602001808311610eed57829003601f168201915b5050505050905090565b610f26610f1f6111bc565b83836114cb565b5050565b600073ffffffffffffffffffffffffffffffffffffffff163373ffffffffffffffffffffffffffffffffffffffff1614610f99576040517f08c379a0000000000000000000000000000000000000000000000000000000008152600401610f9090612b49565b60405180910390fd5b610fa584848484611638565b50505050565b6060610fb682611150565b610ff5576040517f08c379a0000000000000000000000000000000000000000000000000000000008152600401610fec90612cff565b60405180910390fd5b6000610fff61169a565b9050600081511161101f576040518060200160405280600081525061104a565b80611029846116b1565b60405160200161103a929190612d1f565b6040516020818303038152906040525b915050919050565b6000600560008473ffffffffffffffffffffffffffffffffffffffff1673ffffffffffffffffffffffffffffffffffffffff16815260200190815260200160002060008373ffffffffffffffffffffffffffffffffffffffff1673ffffffffffffffffffffffffffffffffffffffff16815260200190815260200160002060009054906101000a900460ff16905092915050565b60007f01ffc9a7000000000000000000000000000000000000000000000000000000007bffffffffffffffffffffffffffffffffffffffffffffffffffffffff1916827bffffffffffffffffffffffffffffffffffffffffffffffffffffffff1916149050919050565b60008073ffffffffffffffffffffffffffffffffffffffff166002600084815260200190815260200160002060009054906101000a900473ffffffffffffffffffffffffffffffffffffffff1673ffffffffffffffffffffffffffffffffffffffff1614159050919050565b600033905090565b816004600083815260200190815260200160002060006101000a81548173ffffffffffffffffffffffffffffffffffffffff021916908373ffffffffffffffffffffffffffffffffffffffff160217905550808273ffffffffffffffffffffffffffffffffffffffff1661123783610c3f565b73ffffffffffffffffffffffffffffffffffffffff167f8c5be1e5ebec7d5bd14f71427d1e84f3dd0314c0f7b2291e5b200ac8c7c3b92560405160405180910390a45050565b600073ffffffffffffffffffffffffffffffffffffffff168273ffffffffffffffffffffffffffffffffffffffff1614156112ed576040517f08c379a00000000000000000000000000000000000000000000000000000000081526004016112e490612d8f565b60405180910390fd5b6112f681611150565b15611336576040517f08c379a000000000000000000000000000000000000000000000000000000000815260040161132d90612dfb565b60405180910390fd5b61134260008383611812565b6001600360008473ffffffffffffffffffffffffffffffffffffffff1673ffffffffffffffffffffffffffffffffffffffff16815260200190815260200160002060008282546113929190612e4a565b92505081905550816002600083815260200190815260200160002060006101000a81548173ffffffffffffffffffffffffffffffffffffffff021916908373ffffffffffffffffffffffffffffffffffffffff160217905550808273ffffffffffffffffffffffffffffffffffffffff16600073ffffffffffffffffffffffffffffffffffffffff167fddf252ad1be2c89b69c2b068fc378daa952ba7f163c4a11628f55a4df523b3ef60405160405180910390a45050565b61145c6114566111bc565b82611817565b61149b576040517f08c379a000000000000000000000000000000000000000000000000000000000815260040161149290612f12565b60405180910390fd5b6114a68383836118f5565b505050565b6114c683838360405180602001604052806000815250610f2a565b505050565b8173ffffffffffffffffffffffffffffffffffffffff168373ffffffffffffffffffffffffffffffffffffffff16141561153a576040517f08c379a000000000000000000000000000000000000000000000000000000000815260040161153190612f7e565b60405180910390fd5b80600560008573ffffffffffffffffffffffffffffffffffffffff1673ffffffffffffffffffffffffffffffffffffffff16815260200190815260200160002060008473ffffffffffffffffffffffffffffffffffffffff1673ffffffffffffffffffffffffffffffffffffffff16815260200190815260200160002060006101000a81548160ff0219169083151502179055508173ffffffffffffffffffffffffffffffffffffffff168373ffffffffffffffffffffffffffffffffffffffff167f17307eab39ab6107e8899845ad3d59bd9653f200f220920489ca2b5937696c318360405161162b9190611e9f565b60405180910390a3505050565b6116496116436111bc565b83611817565b611688576040517f08c379a000000000000000000000000000000000000000000000000000000000815260040161167f90612f12565b60405180910390fd5b61169484848484611b51565b50505050565b606060405180602001604052806000815250905090565b606060008214156116f9576040518060400160405280600181526020017f3000000000000000000000000000000000000000000000000000000000000000815250905061180d565b600082905060005b6000821461172b57808061171490612f9e565b915050600a826117249190613016565b9150611701565b60008167ffffffffffffffff811115611747576117466120aa565b5b6040519080825280601f01601f1916602001820160405280156117795781602001600182028036833780820191505090505b5090505b60008514611806576001826117929190613047565b9150600a856117a1919061307b565b60306117ad9190612e4a565b60f81b8183815181106117c3576117c26130ac565b5b60200101907effffffffffffffffffffffffffffffffffffffffffffffffffffffffffffff1916908160001a905350600a856117ff9190613016565b945061177d565b8093505050505b919050565b505050565b600061182282611150565b611861576040517f08c379a00000000000000000000000000000000000000000000000000000000081526004016118589061314d565b60405180910390fd5b600061186c83610c3f565b90508073ffffffffffffffffffffffffffffffffffffffff168473ffffffffffffffffffffffffffffffffffffffff1614806118db57508373ffffffffffffffffffffffffffffffffffffffff166118c3846104cb565b73ffffffffffffffffffffffffffffffffffffffff16145b806118ec57506118eb8185611052565b5b91505092915050565b8273ffffffffffffffffffffffffffffffffffffffff1661191582610c3f565b73ffffffffffffffffffffffffffffffffffffffff161461196b576040517f08c379a0000000000000000000000000000000000000000000000000000000008152600401611962906131df565b60405180910390fd5b600073ffffffffffffffffffffffffffffffffffffffff168273ffffffffffffffffffffffffffffffffffffffff1614156119db576040517f08c379a00000000000000000000000000000000000000000000000000000000081526004016119d290613271565b60405180910390fd5b6119e6838383611812565b6119f16000826111c4565b6001600360008573ffffffffffffffffffffffffffffffffffffffff1673ffffffffffffffffffffffffffffffffffffffff1681526020019081526020016000206000828254611a419190613047565b925050819055506001600360008473ffffffffffffffffffffffffffffffffffffffff1673ffffffffffffffffffffffffffffffffffffffff1681526020019081526020016000206000828254611a989190612e4a565b92505081905550816002600083815260200190815260200160002060006101000a81548173ffffffffffffffffffffffffffffffffffffffff021916908373ffffffffffffffffffffffffffffffffffffffff160217905550808273ffffffffffffffffffffffffffffffffffffffff168473ffffffffffffffffffffffffffffffffffffffff167fddf252ad1be2c89b69c2b068fc378daa952ba7f163c4a11628f55a4df523b3ef60405160405180910390a4505050565b611b5c8484846118f5565b611b6884848484611bad565b611ba7576040517f08c379a0000000000000000000000000000000000000000000000000000000008152600401611b9e90613303565b60405180910390fd5b50505050565b6000611bce8473ffffffffffffffffffffffffffffffffffffffff16611d35565b15611d28578373ffffffffffffffffffffffffffffffffffffffff1663150b7a02611bf76111bc565b8786866040518563ffffffff1660e01b8152600401611c199493929190613378565b6020604051808303816000875af1925050508015611c5557506040513d601f19601f82011682018060405250810190611c5291906133d9565b60015b611cd8573d8060008114611c85576040519150601f19603f3d011682016040523d82523d6000602084013e611c8a565b606091505b50600081511415611cd0576040517f08c379a0000000000000000000000000000000000000000000000000000000008152600401611cc790613303565b60405180910390fd5b805181602001fd5b63150b7a0260e01b7bffffffffffffffffffffffffffffffffffffffffffffffffffffffff1916817bffffffffffffffffffffffffffffffffffffffffffffffffffffffff191614915050611d2d565b600190505b949350505050565b600080823b905060008111915050919050565b828054611d5490612608565b90600052602060002090601f016020900481019282611d765760008555611dbd565b82601f10611d8f57805160ff1916838001178555611dbd565b82800160010185558215611dbd579182015b82811115611dbc578251825591602001919060010190611da1565b5b509050611dca9190611dce565b5090565b5b80821115611de7576000816000905550600101611dcf565b5090565b6000604051905090565b600080fd5b600080fd5b60007fffffffff0000000000000000000000000000000000000000000000000000000082169050919050565b611e3481611dff565b8114611e3f57600080fd5b50565b600081359050611e5181611e2b565b92915050565b600060208284031215611e6d57611e6c611df5565b5b6000611e7b84828501611e42565b91505092915050565b60008115159050919050565b611e9981611e84565b82525050565b6000602082019050611eb46000830184611e90565b92915050565b600081519050919050565b600082825260208201905092915050565b60005b83811015611ef4578082015181840152602081019050611ed9565b83811115611f03576000848401525b50505050565b6000601f19601f8301169050919050565b6000611f2582611eba565b611f2f8185611ec5565b9350611f3f818560208601611ed6565b611f4881611f09565b840191505092915050565b60006020820190508181036000830152611f6d8184611f1a565b905092915050565b6000819050919050565b611f8881611f75565b8114611f9357600080fd5b50565b600081359050611fa581611f7f565b92915050565b600060208284031215611fc157611fc0611df5565b5b6000611fcf84828501611f96565b91505092915050565b600073ffffffffffffffffffffffffffffffffffffffff82169050919050565b600061200382611fd8565b9050919050565b61201381611ff8565b82525050565b600060208201905061202e600083018461200a565b92915050565b61203d81611ff8565b811461204857600080fd5b50565b60008135905061205a81612034565b92915050565b6000806040838503121561207757612076611df5565b5b60006120858582860161204b565b925050602061209685828601611f96565b9150509250929050565b600080fd5b600080fd5b7f4e487b7100000000000000000000000000000000000000000000000000000000600052604160045260246000fd5b6120e282611f09565b810181811067ffffffffffffffff82111715612101576121006120aa565b5b80604052505050565b6000612114611deb565b905061212082826120d9565b919050565b600067ffffffffffffffff8211156121405761213f6120aa565b5b61214982611f09565b9050602081019050919050565b82818337600083830152505050565b600061217861217384612125565b61210a565b905082815260208101848484011115612194576121936120a5565b5b61219f848285612156565b509392505050565b600082601f8301126121bc576121bb6120a0565b5b81356121cc848260208601612165565b91505092915050565b600080604083850312156121ec576121eb611df5565b5b600083013567ffffffffffffffff81111561220a57612209611dfa565b5b612216858286016121a7565b92505060206122278582860161204b565b9150509250929050565b60008060006060848603121561224a57612249611df5565b5b60006122588682870161204b565b93505060206122698682870161204b565b925050604061227a86828701611f96565b9150509250925092565b60006020828403121561229a57612299611df5565b5b60006122a88482850161204b565b91505092915050565b6122ba81611f75565b82525050565b60006020820190506122d560008301846122b1565b92915050565b600081519050919050565b600082825260208201905092915050565b6000819050602082019050919050565b600082825260208201905092915050565b600061232382611eba565b61232d8185612307565b935061233d818560208601611ed6565b61234681611f09565b840191505092915050565b600061235d8383612318565b905092915050565b6000602082019050919050565b600061237d826122db565b61238781856122e6565b935083602082028501612399856122f7565b8060005b858110156123d557848403895281516123b68582612351565b94506123c183612365565b925060208a0199505060018101905061239d565b50829750879550505050505092915050565b600060208201905081810360008301526124018184612372565b905092915050565b61241281611e84565b811461241d57600080fd5b50565b60008135905061242f81612409565b92915050565b6000806040838503121561244c5761244b611df5565b5b600061245a8582860161204b565b925050602061246b85828601612420565b9150509250929050565b600067ffffffffffffffff8211156124905761248f6120aa565b5b61249982611f09565b9050602081019050919050565b60006124b96124b484612475565b61210a565b9050828152602081018484840111156124d5576124d46120a5565b5b6124e0848285612156565b509392505050565b600082601f8301126124fd576124fc6120a0565b5b813561250d8482602086016124a6565b91505092915050565b600080600080608085870312156125305761252f611df5565b5b600061253e8782880161204b565b945050602061254f8782880161204b565b935050604061256087828801611f96565b925050606085013567ffffffffffffffff81111561258157612580611dfa565b5b61258d878288016124e8565b91505092959194509250565b600080604083850312156125b0576125af611df5565b5b60006125be8582860161204b565b92505060206125cf8582860161204b565b9150509250929050565b7f4e487b7100000000000000000000000000000000000000000000000000000000600052602260045260246000fd5b6000600282049050600182168061262057607f821691505b60208210811415612634576126336125d9565b5b50919050565b7f4552433732313a20617070726f76656420717565727920666f72206e6f6e657860008201527f697374656e7420746f6b656e0000000000000000000000000000000000000000602082015250565b6000612696602c83611ec5565b91506126a18261263a565b604082019050919050565b600060208201905081810360008301526126c581612689565b9050919050565b7f4552433732313a20617070726f76616c20746f2063757272656e74206f776e6560008201527f7200000000000000000000000000000000000000000000000000000000000000602082015250565b6000612728602183611ec5565b9150612733826126cc565b604082019050919050565b600060208201905081810360008301526127578161271b565b9050919050565b7f4552433732313a20617070726f76652063616c6c6572206973206e6f74206f7760008201527f6e6572206e6f7220617070726f76656420666f7220616c6c0000000000000000602082015250565b60006127ba603883611ec5565b91506127c58261275e565b604082019050919050565b600060208201905081810360008301526127e9816127ad565b9050919050565b6000815190506127ff81612409565b92915050565b60006020828403121561281b5761281a611df5565b5b6000612829848285016127f0565b91505092915050565b7f54686973206163636f756e7420686173206e6f7420526563746f72205065726d60008201527f697373696f6e7300000000000000000000000000000000000000000000000000602082015250565b600061288e602783611ec5565b915061289982612832565b604082019050919050565b600060208201905081810360008301526128bd81612881565b9050919050565b7f546869732061646472657373206973206e6f7420696e2053545544454e545f5260008201527f4f4c450000000000000000000000000000000000000000000000000000000000602082015250565b6000612920602383611ec5565b915061292b826128c4565b604082019050919050565b6000602082019050818103600083015261294f81612913565b9050919050565b600081905092915050565b600061296c82611eba565b6129768185612956565b9350612986818560208601611ed6565b80840191505092915050565b600061299e8284612961565b915081905092915050565b7f54686973206c696e6b20697320616c7265616479206d696e7465640000000000600082015250565b60006129df601b83611ec5565b91506129ea826129a9565b602082019050919050565b60006020820190508181036000830152612a0e816129d2565b9050919050565b7f5468697320677261647561746520616c7265616479206861732061204469706c60008201527f6f6d610000000000000000000000000000000000000000000000000000000000602082015250565b6000612a71602383611ec5565b9150612a7c82612a15565b604082019050919050565b60006020820190508181036000830152612aa081612a64565b9050919050565b60006040820190508181036000830152612ac18185611f1a565b9050612ad0602083018461200a565b9392505050565b7f5472616e73666572206166746572206d696e742069732070726f68696269746560008201527f6400000000000000000000000000000000000000000000000000000000000000602082015250565b6000612b33602183611ec5565b9150612b3e82612ad7565b604082019050919050565b60006020820190508181036000830152612b6281612b26565b9050919050565b7f4552433732313a206f776e657220717565727920666f72206e6f6e657869737460008201527f656e7420746f6b656e0000000000000000000000000000000000000000000000602082015250565b6000612bc5602983611ec5565b9150612bd082612b69565b604082019050919050565b60006020820190508181036000830152612bf481612bb8565b9050919050565b7f4552433732313a2062616c616e636520717565727920666f7220746865207a6560008201527f726f206164647265737300000000000000000000000000000000000000000000602082015250565b6000612c57602a83611ec5565b9150612c6282612bfb565b604082019050919050565b60006020820190508181036000830152612c8681612c4a565b9050919050565b7f4552433732314d657461646174613a2055524920717565727920666f72206e6f60008201527f6e6578697374656e7420746f6b656e0000000000000000000000000000000000602082015250565b6000612ce9602f83611ec5565b9150612cf482612c8d565b604082019050919050565b60006020820190508181036000830152612d1881612cdc565b9050919050565b6000612d2b8285612961565b9150612d378284612961565b91508190509392505050565b7f4552433732313a206d696e7420746f20746865207a65726f2061646472657373600082015250565b6000612d79602083611ec5565b9150612d8482612d43565b602082019050919050565b60006020820190508181036000830152612da881612d6c565b9050919050565b7f4552433732313a20746f6b656e20616c7265616479206d696e74656400000000600082015250565b6000612de5601c83611ec5565b9150612df082612daf565b602082019050919050565b60006020820190508181036000830152612e1481612dd8565b9050919050565b7f4e487b7100000000000000000000000000000000000000000000000000000000600052601160045260246000fd5b6000612e5582611f75565b9150612e6083611f75565b9250827fffffffffffffffffffffffffffffffffffffffffffffffffffffffffffffffff03821115612e9557612e94612e1b565b5b828201905092915050565b7f4552433732313a207472616e736665722063616c6c6572206973206e6f74206f60008201527f776e6572206e6f7220617070726f766564000000000000000000000000000000602082015250565b6000612efc603183611ec5565b9150612f0782612ea0565b604082019050919050565b60006020820190508181036000830152612f2b81612eef565b9050919050565b7f4552433732313a20617070726f766520746f2063616c6c657200000000000000600082015250565b6000612f68601983611ec5565b9150612f7382612f32565b602082019050919050565b60006020820190508181036000830152612f9781612f5b565b9050919050565b6000612fa982611f75565b91507fffffffffffffffffffffffffffffffffffffffffffffffffffffffffffffffff821415612fdc57612fdb612e1b565b5b600182019050919050565b7f4e487b7100000000000000000000000000000000000000000000000000000000600052601260045260246000fd5b600061302182611f75565b915061302c83611f75565b92508261303c5761303b612fe7565b5b828204905092915050565b600061305282611f75565b915061305d83611f75565b9250828210156130705761306f612e1b565b5b828203905092915050565b600061308682611f75565b915061309183611f75565b9250826130a1576130a0612fe7565b5b828206905092915050565b7f4e487b7100000000000000000000000000000000000000000000000000000000600052603260045260246000fd5b7f4552433732313a206f70657261746f7220717565727920666f72206e6f6e657860008201527f697374656e7420746f6b656e0000000000000000000000000000000000000000602082015250565b6000613137602c83611ec5565b9150613142826130db565b604082019050919050565b600060208201905081810360008301526131668161312a565b9050919050565b7f4552433732313a207472616e73666572206f6620746f6b656e2074686174206960008201527f73206e6f74206f776e0000000000000000000000000000000000000000000000602082015250565b60006131c9602983611ec5565b91506131d48261316d565b604082019050919050565b600060208201905081810360008301526131f8816131bc565b9050919050565b7f4552433732313a207472616e7366657220746f20746865207a65726f2061646460008201527f7265737300000000000000000000000000000000000000000000000000000000602082015250565b600061325b602483611ec5565b9150613266826131ff565b604082019050919050565b6000602082019050818103600083015261328a8161324e565b9050919050565b7f4552433732313a207472616e7366657220746f206e6f6e20455243373231526560008201527f63656976657220696d706c656d656e7465720000000000000000000000000000602082015250565b60006132ed603283611ec5565b91506132f882613291565b604082019050919050565b6000602082019050818103600083015261331c816132e0565b9050919050565b600081519050919050565b600082825260208201905092915050565b600061334a82613323565b613354818561332e565b9350613364818560208601611ed6565b61336d81611f09565b840191505092915050565b600060808201905061338d600083018761200a565b61339a602083018661200a565b6133a760408301856122b1565b81810360608301526133b9818461333f565b905095945050505050565b6000815190506133d381611e2b565b92915050565b6000602082840312156133ef576133ee611df5565b5b60006133fd848285016133c4565b9150509291505056fea2646970667358221220caf31de88e03d95d1427d9f28f739abbb3e6ec9b9d51b94f593986f511b6fd3a64736f6c634300080a0033",
  "immutableReferences": {},
  "source": "pragma solidity ^0.8.10;\r\n\r\nimport \"@openzeppelin/contracts/token/ERC721/ERC721.sol\";\r\nimport \"./Roles.sol\";\r\nimport \"./Request.sol\";\r\n\r\ncontract Diploma is ERC721 {\r\n\r\n    address rolesContractAddress;\r\n    address requestContractAddress;\r\n\r\n    //Mapping owner to the tokenID\r\n    mapping(address => uint256) _hasCertificate;\r\n    //Mapping tokenID to the owner is defined in ERC721.sol as ownerOf\r\n    //is Diploma link exist\r\n    mapping(string => bool) _diplomaExist;\r\n    //List of Diploma Links\r\n    string[] _diplomaLinks;\r\n\r\n    constructor(address _rolesContractAddress, address _requestContractAddress) ERC721(\"Diploma\", \"DPLM\"){\r\n        rolesContractAddress = _rolesContractAddress;\r\n        requestContractAddress = _requestContractAddress;\r\n    }\r\n    function mint(string memory _diplomaLink, address _graduatedAddress) public {\r\n        require(Roles(rolesContractAddress).hasRectorRole(msg.sender), \"This account has not Rector Permissions\");\r\n        require(Roles(rolesContractAddress).hasStudentRole(_graduatedAddress), \"This address is not in STUDENT_ROLE\");\r\n        require(!_diplomaExist[_diplomaLink], \"This link is already minted\");\r\n        require(_hasCertificate[_graduatedAddress] == 0, \"This graduate already has a Diploma\");\r\n        //Role function calls\r\n        Roles(rolesContractAddress).grantGraduatedRole(_graduatedAddress);\r\n        //diplomaLinks - add\r\n        _diplomaLinks.push(_diplomaLink);\r\n        uint _id = _diplomaLinks.length;\r\n        //tokenID's start from 1 because default uint256 value is 0\r\n        //Call mint of ERC721\r\n        _mint(_graduatedAddress, _id);\r\n        //Trace it\r\n        _diplomaExist[_diplomaLink] = true;\r\n        _hasCertificate[_graduatedAddress] = _id;\r\n\r\n        //Make request minted\r\n        Request(requestContractAddress).diplomaMinted(_diplomaLink, _graduatedAddress);\r\n    }\r\n\r\n    function getDiplomaLinks() public view returns (string[] memory){\r\n        return _diplomaLinks;\r\n    }\r\n    function getDiplomaID(address _graduatedAddress) public view returns (uint256){\r\n        return _hasCertificate[_graduatedAddress];\r\n    }\r\n\r\n    //TODO Contract Owner can make mistakes when minting. Token should be somewhat editable for contract owner\r\n    function transferFrom(//Only callable when minted\r\n        address from,\r\n        address to,\r\n        uint256 tokenId\r\n    ) public virtual override {\r\n        require(msg.sender == 0x0000000000000000000000000000000000000000, \"Transfer after mint is prohibited\");\r\n        super.transferFrom(from, to, tokenId);\r\n    }\r\n\r\n    function safeTransferFrom(//Only callable when minted\r\n        address from,\r\n        address to,\r\n        uint256 tokenId\r\n    ) public virtual override {\r\n        require(msg.sender == 0x0000000000000000000000000000000000000000, \"Transfer after mint is prohibited\");\r\n        super.safeTransferFrom(from, to, tokenId);\r\n    }\r\n\r\n    function safeTransferFrom(//Only callable when minted\r\n        address from,\r\n        address to,\r\n        uint256 tokenId,\r\n        bytes memory _data\r\n    ) public virtual override {\r\n        require(msg.sender == 0x0000000000000000000000000000000000000000, \"Transfer after mint is prohibited\");\r\n        super.safeTransferFrom(from, to, tokenId, _data);\r\n    }\r\n}\r\n",
  "sourcePath": "C:\\Users\\asus\\Desktop\\Dersler\\CMPE492\\certification-project\\contracts\\Diploma.sol",
  "compiler": {
    "name": "solc",
    "version": "0.8.10+commit.fc410830.Emscripten.clang"
  },
  "schemaVersion": "3.4.4",
  "updatedAt": "2022-01-23T18:41:48.765Z",
  "devdoc": {
    "kind": "dev",
    "methods": {
      "approve(address,uint256)": {
        "details": "See {IERC721-approve}."
      },
      "balanceOf(address)": {
        "details": "See {IERC721-balanceOf}."
      },
      "getApproved(uint256)": {
        "details": "See {IERC721-getApproved}."
      },
      "isApprovedForAll(address,address)": {
        "details": "See {IERC721-isApprovedForAll}."
      },
      "name()": {
        "details": "See {IERC721Metadata-name}."
      },
      "ownerOf(uint256)": {
        "details": "See {IERC721-ownerOf}."
      },
      "safeTransferFrom(address,address,uint256)": {
        "details": "See {IERC721-safeTransferFrom}."
      },
      "safeTransferFrom(address,address,uint256,bytes)": {
        "details": "See {IERC721-safeTransferFrom}."
      },
      "setApprovalForAll(address,bool)": {
        "details": "See {IERC721-setApprovalForAll}."
      },
      "supportsInterface(bytes4)": {
        "details": "See {IERC165-supportsInterface}."
      },
      "symbol()": {
        "details": "See {IERC721Metadata-symbol}."
      },
      "tokenURI(uint256)": {
        "details": "See {IERC721Metadata-tokenURI}."
      },
      "transferFrom(address,address,uint256)": {
        "details": "See {IERC721-transferFrom}."
      }
    },
    "version": 1
  },
  "userdoc": {
    "kind": "user",
    "methods": {},
    "version": 1
  }
}