{
  "contractName": "Diploma",
  "abi": [
    {
      "inputs": [],
      "stateMutability": "nonpayable",
      "type": "constructor"
    },
    {
      "anonymous": false,
      "inputs": [
        {
          "indexed": true,
          "internalType": "address",
          "name": "owner",
          "type": "address"
        },
        {
          "indexed": true,
          "internalType": "address",
          "name": "approved",
          "type": "address"
        },
        {
          "indexed": true,
          "internalType": "uint256",
          "name": "tokenId",
          "type": "uint256"
        }
      ],
      "name": "Approval",
      "type": "event"
    },
    {
      "anonymous": false,
      "inputs": [
        {
          "indexed": true,
          "internalType": "address",
          "name": "owner",
          "type": "address"
        },
        {
          "indexed": true,
          "internalType": "address",
          "name": "operator",
          "type": "address"
        },
        {
          "indexed": false,
          "internalType": "bool",
          "name": "approved",
          "type": "bool"
        }
      ],
      "name": "ApprovalForAll",
      "type": "event"
    },
    {
      "anonymous": false,
      "inputs": [
        {
          "indexed": true,
          "internalType": "bytes32",
          "name": "role",
          "type": "bytes32"
        },
        {
          "indexed": true,
          "internalType": "bytes32",
          "name": "previousAdminRole",
          "type": "bytes32"
        },
        {
          "indexed": true,
          "internalType": "bytes32",
          "name": "newAdminRole",
          "type": "bytes32"
        }
      ],
      "name": "RoleAdminChanged",
      "type": "event"
    },
    {
      "anonymous": false,
      "inputs": [
        {
          "indexed": true,
          "internalType": "bytes32",
          "name": "role",
          "type": "bytes32"
        },
        {
          "indexed": true,
          "internalType": "address",
          "name": "account",
          "type": "address"
        },
        {
          "indexed": true,
          "internalType": "address",
          "name": "sender",
          "type": "address"
        }
      ],
      "name": "RoleGranted",
      "type": "event"
    },
    {
      "anonymous": false,
      "inputs": [
        {
          "indexed": true,
          "internalType": "bytes32",
          "name": "role",
          "type": "bytes32"
        },
        {
          "indexed": true,
          "internalType": "address",
          "name": "account",
          "type": "address"
        },
        {
          "indexed": true,
          "internalType": "address",
          "name": "sender",
          "type": "address"
        }
      ],
      "name": "RoleRevoked",
      "type": "event"
    },
    {
      "anonymous": false,
      "inputs": [
        {
          "indexed": true,
          "internalType": "address",
          "name": "from",
          "type": "address"
        },
        {
          "indexed": true,
          "internalType": "address",
          "name": "to",
          "type": "address"
        },
        {
          "indexed": true,
          "internalType": "uint256",
          "name": "tokenId",
          "type": "uint256"
        }
      ],
      "name": "Transfer",
      "type": "event"
    },
    {
      "inputs": [],
      "name": "DEFAULT_ADMIN_ROLE",
      "outputs": [
        {
          "internalType": "bytes32",
          "name": "",
          "type": "bytes32"
        }
      ],
      "stateMutability": "view",
      "type": "function",
      "constant": true
    },
    {
      "inputs": [],
      "name": "DEPARTMENT_ROLE",
      "outputs": [
        {
          "internalType": "bytes32",
          "name": "",
          "type": "bytes32"
        }
      ],
      "stateMutability": "view",
      "type": "function",
      "constant": true
    },
    {
      "inputs": [],
      "name": "FACULTY_ROLE",
      "outputs": [
        {
          "internalType": "bytes32",
          "name": "",
          "type": "bytes32"
        }
      ],
      "stateMutability": "view",
      "type": "function",
      "constant": true
    },
    {
      "inputs": [],
      "name": "GRADUATED_ROLE",
      "outputs": [
        {
          "internalType": "bytes32",
          "name": "",
          "type": "bytes32"
        }
      ],
      "stateMutability": "view",
      "type": "function",
      "constant": true
    },
    {
      "inputs": [],
      "name": "INSTRUCTOR_ROLE",
      "outputs": [
        {
          "internalType": "bytes32",
          "name": "",
          "type": "bytes32"
        }
      ],
      "stateMutability": "view",
      "type": "function",
      "constant": true
    },
    {
      "inputs": [],
      "name": "RECTOR_ROLE",
      "outputs": [
        {
          "internalType": "bytes32",
          "name": "",
          "type": "bytes32"
        }
      ],
      "stateMutability": "view",
      "type": "function",
      "constant": true
    },
    {
      "inputs": [],
      "name": "STUDENT_ROLE",
      "outputs": [
        {
          "internalType": "bytes32",
          "name": "",
          "type": "bytes32"
        }
      ],
      "stateMutability": "view",
      "type": "function",
      "constant": true
    },
    {
      "inputs": [
        {
          "internalType": "address",
          "name": "to",
          "type": "address"
        },
        {
          "internalType": "uint256",
          "name": "tokenId",
          "type": "uint256"
        }
      ],
      "name": "approve",
      "outputs": [],
      "stateMutability": "nonpayable",
      "type": "function"
    },
    {
      "inputs": [
        {
          "internalType": "address",
          "name": "owner",
          "type": "address"
        }
      ],
      "name": "balanceOf",
      "outputs": [
        {
          "internalType": "uint256",
          "name": "",
          "type": "uint256"
        }
      ],
      "stateMutability": "view",
      "type": "function",
      "constant": true
    },
    {
      "inputs": [
        {
          "internalType": "uint256",
          "name": "tokenId",
          "type": "uint256"
        }
      ],
      "name": "getApproved",
      "outputs": [
        {
          "internalType": "address",
          "name": "",
          "type": "address"
        }
      ],
      "stateMutability": "view",
      "type": "function",
      "constant": true
    },
    {
      "inputs": [
        {
          "internalType": "bytes32",
          "name": "role",
          "type": "bytes32"
        }
      ],
      "name": "getRoleAdmin",
      "outputs": [
        {
          "internalType": "bytes32",
          "name": "",
          "type": "bytes32"
        }
      ],
      "stateMutability": "view",
      "type": "function",
      "constant": true
    },
    {
      "inputs": [
        {
          "internalType": "bytes32",
          "name": "role",
          "type": "bytes32"
        },
        {
          "internalType": "uint256",
          "name": "index",
          "type": "uint256"
        }
      ],
      "name": "getRoleMember",
      "outputs": [
        {
          "internalType": "address",
          "name": "",
          "type": "address"
        }
      ],
      "stateMutability": "view",
      "type": "function",
      "constant": true
    },
    {
      "inputs": [
        {
          "internalType": "bytes32",
          "name": "role",
          "type": "bytes32"
        }
      ],
      "name": "getRoleMemberCount",
      "outputs": [
        {
          "internalType": "uint256",
          "name": "",
          "type": "uint256"
        }
      ],
      "stateMutability": "view",
      "type": "function",
      "constant": true
    },
    {
      "inputs": [
        {
          "internalType": "address",
          "name": "account",
          "type": "address"
        }
      ],
      "name": "grantDepartmentRole",
      "outputs": [],
      "stateMutability": "nonpayable",
      "type": "function"
    },
    {
      "inputs": [
        {
          "internalType": "address",
          "name": "account",
          "type": "address"
        }
      ],
      "name": "grantFacultyRole",
      "outputs": [],
      "stateMutability": "nonpayable",
      "type": "function"
    },
    {
      "inputs": [
        {
          "internalType": "address",
          "name": "account",
          "type": "address"
        }
      ],
      "name": "grantGraduatedRole",
      "outputs": [],
      "stateMutability": "nonpayable",
      "type": "function"
    },
    {
      "inputs": [
        {
          "internalType": "address",
          "name": "account",
          "type": "address"
        }
      ],
      "name": "grantInstructorRole",
      "outputs": [],
      "stateMutability": "nonpayable",
      "type": "function"
    },
    {
      "inputs": [
        {
          "internalType": "address",
          "name": "account",
          "type": "address"
        }
      ],
      "name": "grantRectorRole",
      "outputs": [],
      "stateMutability": "nonpayable",
      "type": "function"
    },
    {
      "inputs": [
        {
          "internalType": "bytes32",
          "name": "role",
          "type": "bytes32"
        },
        {
          "internalType": "address",
          "name": "account",
          "type": "address"
        }
      ],
      "name": "grantRole",
      "outputs": [],
      "stateMutability": "nonpayable",
      "type": "function"
    },
    {
      "inputs": [
        {
          "internalType": "address",
          "name": "account",
          "type": "address"
        }
      ],
      "name": "grantStudentRole",
      "outputs": [],
      "stateMutability": "nonpayable",
      "type": "function"
    },
    {
      "inputs": [
        {
          "internalType": "address",
          "name": "account",
          "type": "address"
        }
      ],
      "name": "hasDepartmentRole",
      "outputs": [
        {
          "internalType": "bool",
          "name": "",
          "type": "bool"
        }
      ],
      "stateMutability": "view",
      "type": "function",
      "constant": true
    },
    {
      "inputs": [
        {
          "internalType": "address",
          "name": "account",
          "type": "address"
        }
      ],
      "name": "hasFacultyRole",
      "outputs": [
        {
          "internalType": "bool",
          "name": "",
          "type": "bool"
        }
      ],
      "stateMutability": "view",
      "type": "function",
      "constant": true
    },
    {
      "inputs": [
        {
          "internalType": "address",
          "name": "account",
          "type": "address"
        }
      ],
      "name": "hasGraduatedRole",
      "outputs": [
        {
          "internalType": "bool",
          "name": "",
          "type": "bool"
        }
      ],
      "stateMutability": "view",
      "type": "function",
      "constant": true
    },
    {
      "inputs": [
        {
          "internalType": "address",
          "name": "account",
          "type": "address"
        }
      ],
      "name": "hasInstructorRole",
      "outputs": [
        {
          "internalType": "bool",
          "name": "",
          "type": "bool"
        }
      ],
      "stateMutability": "view",
      "type": "function",
      "constant": true
    },
    {
      "inputs": [
        {
          "internalType": "address",
          "name": "account",
          "type": "address"
        }
      ],
      "name": "hasRectorRole",
      "outputs": [
        {
          "internalType": "bool",
          "name": "",
          "type": "bool"
        }
      ],
      "stateMutability": "view",
      "type": "function",
      "constant": true
    },
    {
      "inputs": [
        {
          "internalType": "bytes32",
          "name": "role",
          "type": "bytes32"
        },
        {
          "internalType": "address",
          "name": "account",
          "type": "address"
        }
      ],
      "name": "hasRole",
      "outputs": [
        {
          "internalType": "bool",
          "name": "",
          "type": "bool"
        }
      ],
      "stateMutability": "view",
      "type": "function",
      "constant": true
    },
    {
      "inputs": [
        {
          "internalType": "address",
          "name": "account",
          "type": "address"
        }
      ],
      "name": "hasStudentRole",
      "outputs": [
        {
          "internalType": "bool",
          "name": "",
          "type": "bool"
        }
      ],
      "stateMutability": "view",
      "type": "function",
      "constant": true
    },
    {
      "inputs": [
        {
          "internalType": "address",
          "name": "owner",
          "type": "address"
        },
        {
          "internalType": "address",
          "name": "operator",
          "type": "address"
        }
      ],
      "name": "isApprovedForAll",
      "outputs": [
        {
          "internalType": "bool",
          "name": "",
          "type": "bool"
        }
      ],
      "stateMutability": "view",
      "type": "function",
      "constant": true
    },
    {
      "inputs": [],
      "name": "name",
      "outputs": [
        {
          "internalType": "string",
          "name": "",
          "type": "string"
        }
      ],
      "stateMutability": "view",
      "type": "function",
      "constant": true
    },
    {
      "inputs": [
        {
          "internalType": "uint256",
          "name": "tokenId",
          "type": "uint256"
        }
      ],
      "name": "ownerOf",
      "outputs": [
        {
          "internalType": "address",
          "name": "",
          "type": "address"
        }
      ],
      "stateMutability": "view",
      "type": "function",
      "constant": true
    },
    {
      "inputs": [
        {
          "internalType": "bytes32",
          "name": "role",
          "type": "bytes32"
        },
        {
          "internalType": "address",
          "name": "account",
          "type": "address"
        }
      ],
      "name": "renounceRole",
      "outputs": [],
      "stateMutability": "nonpayable",
      "type": "function"
    },
    {
      "inputs": [
        {
          "internalType": "address",
          "name": "account",
          "type": "address"
        }
      ],
      "name": "revokeDepartmentRole",
      "outputs": [],
      "stateMutability": "nonpayable",
      "type": "function"
    },
    {
      "inputs": [
        {
          "internalType": "address",
          "name": "account",
          "type": "address"
        }
      ],
      "name": "revokeFacultyRole",
      "outputs": [],
      "stateMutability": "nonpayable",
      "type": "function"
    },
    {
      "inputs": [
        {
          "internalType": "address",
          "name": "account",
          "type": "address"
        }
      ],
      "name": "revokeInstructorRole",
      "outputs": [],
      "stateMutability": "nonpayable",
      "type": "function"
    },
    {
      "inputs": [
        {
          "internalType": "bytes32",
          "name": "role",
          "type": "bytes32"
        },
        {
          "internalType": "address",
          "name": "account",
          "type": "address"
        }
      ],
      "name": "revokeRole",
      "outputs": [],
      "stateMutability": "nonpayable",
      "type": "function"
    },
    {
      "inputs": [
        {
          "internalType": "address",
          "name": "account",
          "type": "address"
        }
      ],
      "name": "revokeStudentRole",
      "outputs": [],
      "stateMutability": "nonpayable",
      "type": "function"
    },
    {
      "inputs": [
        {
          "internalType": "address",
          "name": "operator",
          "type": "address"
        },
        {
          "internalType": "bool",
          "name": "approved",
          "type": "bool"
        }
      ],
      "name": "setApprovalForAll",
      "outputs": [],
      "stateMutability": "nonpayable",
      "type": "function"
    },
    {
      "inputs": [],
      "name": "symbol",
      "outputs": [
        {
          "internalType": "string",
          "name": "",
          "type": "string"
        }
      ],
      "stateMutability": "view",
      "type": "function",
      "constant": true
    },
    {
      "inputs": [
        {
          "internalType": "uint256",
          "name": "tokenId",
          "type": "uint256"
        }
      ],
      "name": "tokenURI",
      "outputs": [
        {
          "internalType": "string",
          "name": "",
          "type": "string"
        }
      ],
      "stateMutability": "view",
      "type": "function",
      "constant": true
    },
    {
      "inputs": [
        {
          "internalType": "string",
          "name": "_diplomaLink",
          "type": "string"
        },
        {
          "internalType": "address",
          "name": "graduatedAddress",
          "type": "address"
        }
      ],
      "name": "mint",
      "outputs": [],
      "stateMutability": "nonpayable",
      "type": "function"
    },
    {
      "inputs": [],
      "name": "getDiplomaLinks",
      "outputs": [
        {
          "internalType": "string[]",
          "name": "diplomaLinks",
          "type": "string[]"
        }
      ],
      "stateMutability": "view",
      "type": "function",
      "constant": true
    },
    {
      "inputs": [
        {
          "internalType": "address",
          "name": "from",
          "type": "address"
        },
        {
          "internalType": "address",
          "name": "to",
          "type": "address"
        },
        {
          "internalType": "uint256",
          "name": "tokenId",
          "type": "uint256"
        }
      ],
      "name": "transferFrom",
      "outputs": [],
      "stateMutability": "nonpayable",
      "type": "function"
    },
    {
      "inputs": [
        {
          "internalType": "address",
          "name": "from",
          "type": "address"
        },
        {
          "internalType": "address",
          "name": "to",
          "type": "address"
        },
        {
          "internalType": "uint256",
          "name": "tokenId",
          "type": "uint256"
        }
      ],
      "name": "safeTransferFrom",
      "outputs": [],
      "stateMutability": "nonpayable",
      "type": "function"
    },
    {
      "inputs": [
        {
          "internalType": "address",
          "name": "from",
          "type": "address"
        },
        {
          "internalType": "address",
          "name": "to",
          "type": "address"
        },
        {
          "internalType": "uint256",
          "name": "tokenId",
          "type": "uint256"
        },
        {
          "internalType": "bytes",
          "name": "_data",
          "type": "bytes"
        }
      ],
      "name": "safeTransferFrom",
      "outputs": [],
      "stateMutability": "nonpayable",
      "type": "function"
    },
    {
      "inputs": [
        {
          "internalType": "bytes4",
          "name": "interfaceId",
          "type": "bytes4"
        }
      ],
      "name": "supportsInterface",
      "outputs": [
        {
          "internalType": "bool",
          "name": "",
          "type": "bool"
        }
      ],
      "stateMutability": "view",
      "type": "function",
      "constant": true
    }
  ],
  "bytecode": "0x60806040523480156200001157600080fd5b506040518060400160405280600781526020017f4469706c6f6d61000000000000000000000000000000000000000000000000008152506040518060400160405280600481526020017f44504c4d0000000000000000000000000000000000000000000000000000000081525081600090805190602001906200009692919062000397565b508060019080519060200190620000af92919062000397565b505050620000c76000801b33620000ff60201b60201c565b620000f97f5f1d1e303f9c0a1801dd708bdc4239781d66c88ca6cb941c5769ba09b5c1b28533620000ff60201b60201c565b620004ac565b6200011182826200011560201b60201c565b5050565b6200012c82826200015d60201b62001aff1760201c565b6200015881600760008581526020019081526020016000206200024f60201b62001be01790919060201c565b505050565b6200016f82826200028760201b60201c565b6200024b5760016006600084815260200190815260200160002060000160008373ffffffffffffffffffffffffffffffffffffffff1673ffffffffffffffffffffffffffffffffffffffff16815260200190815260200160002060006101000a81548160ff021916908315150217905550620001f0620002f260201b60201c565b73ffffffffffffffffffffffffffffffffffffffff168173ffffffffffffffffffffffffffffffffffffffff16837f2f8788117e7eff1d82e926ec794901d17c78024a50270940304540a733656f0d60405160405180910390a45b5050565b60006200027f836000018373ffffffffffffffffffffffffffffffffffffffff1660001b620002fa60201b60201c565b905092915050565b60006006600084815260200190815260200160002060000160008373ffffffffffffffffffffffffffffffffffffffff1673ffffffffffffffffffffffffffffffffffffffff16815260200190815260200160002060009054906101000a900460ff16905092915050565b600033905090565b60006200030e83836200037460201b60201c565b620003695782600001829080600181540180825580915050600190039060005260206000200160009091909190915055826000018054905083600101600084815260200190815260200160002081905550600190506200036e565b600090505b92915050565b600080836001016000848152602001908152602001600020541415905092915050565b828054620003a59062000476565b90600052602060002090601f016020900481019282620003c9576000855562000415565b82601f10620003e457805160ff191683800117855562000415565b8280016001018555821562000415579182015b8281111562000414578251825591602001919060010190620003f7565b5b50905062000424919062000428565b5090565b5b808211156200044357600081600090555060010162000429565b5090565b7f4e487b7100000000000000000000000000000000000000000000000000000000600052602260045260246000fd5b600060028204905060018216806200048f57607f821691505b60208210811415620004a657620004a562000447565b5b50919050565b614a0780620004bc6000396000f3fe608060405234801561001057600080fd5b506004361061027f5760003560e01c80637ab08b801161015c578063ad7be93a116100ce578063d547741f11610087578063d547741f146107ca578063e17f6b2c146107e6578063e78af7c514610816578063e985e9c514610846578063f7be43fb14610876578063fc3ba6b4146108945761027f565b8063ad7be93a146106f8578063b88d4fde14610716578063b944705114610732578063c87b56dd1461074e578063c94d10ad1461077e578063ca15c8731461079a5761027f565b806391d148541161012057806391d148541461062257806395d89b41146106525780639822a59914610670578063996dc022146106a0578063a217fddf146106be578063a22cb465146106dc5761027f565b80637ab08b801461057e57806386f8e92c1461059c5780638bcf979c146105b85780638df6674a146105d65780639010d07c146105f25761027f565b80632f2ff15d116101f55780635ea07b1c116101b95780635ea07b1c146104985780635f1d514e146104b45780636352211e146104d05780636fe3ceb81461050057806370a082311461051e5780637168c27d1461054e5761027f565b80632f2ff15d1461040c57806332b3c8461461042857806336568abe1461044457806342842e0e14610460578063529f790c1461047c5761027f565b806312fb59f21161024757806312fb59f21461033a5780631c351a9d1461035657806323b872dd14610372578063248a9ca31461038e57806324d42a37146103be5780632be7dc44146103dc5761027f565b806301ffc9a7146102845780630252dffc146102b457806306fdde03146102d0578063081812fc146102ee578063095ea7b31461031e575b600080fd5b61029e600480360381019061029991906131bc565b6108c4565b6040516102ab9190613204565b60405180910390f35b6102ce60048036038101906102c9919061327d565b6108d6565b005b6102d8610936565b6040516102e59190613343565b60405180910390f35b6103086004803603810190610303919061339b565b6109c8565b60405161031591906133d7565b60405180910390f35b610338600480360381019061033391906133f2565b610a4d565b005b610354600480360381019061034f919061327d565b610b65565b005b610370600480360381019061036b9190613567565b610bc5565b005b61038c600480360381019061038791906135c3565b610dbf565b005b6103a860048036038101906103a3919061364c565b610e3e565b6040516103b59190613688565b60405180910390f35b6103c6610e5e565b6040516103d39190613688565b60405180910390f35b6103f660048036038101906103f1919061327d565b610e82565b6040516104039190613204565b60405180910390f35b610426600480360381019061042191906136a3565b610eb5565b005b610442600480360381019061043d919061327d565b610ede565b005b61045e600480360381019061045991906136a3565b610f3e565b005b61047a600480360381019061047591906135c3565b610fc1565b005b6104966004803603810190610491919061327d565b611040565b005b6104b260048036038101906104ad919061327d565b6110a0565b005b6104ce60048036038101906104c9919061327d565b611193565b005b6104ea60048036038101906104e5919061339b565b6111f3565b6040516104f791906133d7565b60405180910390f35b6105086112a5565b6040516105159190613688565b60405180910390f35b6105386004803603810190610533919061327d565b6112c9565b60405161054591906136f2565b60405180910390f35b6105686004803603810190610563919061327d565b611381565b6040516105759190613204565b60405180910390f35b6105866113b4565b6040516105939190613819565b60405180910390f35b6105b660048036038101906105b1919061327d565b61148d565b005b6105c06114ed565b6040516105cd9190613688565b60405180910390f35b6105f060048036038101906105eb919061327d565b611511565b005b61060c6004803603810190610607919061383b565b6115b5565b60405161061991906133d7565b60405180910390f35b61063c600480360381019061063791906136a3565b6115e4565b6040516106499190613204565b60405180910390f35b61065a61164f565b6040516106679190613343565b60405180910390f35b61068a6004803603810190610685919061327d565b6116e1565b6040516106979190613204565b60405180910390f35b6106a8611714565b6040516106b59190613688565b60405180910390f35b6106c6611738565b6040516106d39190613688565b60405180910390f35b6106f660048036038101906106f191906138a7565b61173f565b005b610700611755565b60405161070d9190613688565b60405180910390f35b610730600480360381019061072b9190613988565b611779565b005b61074c6004803603810190610747919061327d565b6117fa565b005b6107686004803603810190610763919061339b565b61185a565b6040516107759190613343565b60405180910390f35b6107986004803603810190610793919061327d565b611901565b005b6107b460048036038101906107af919061364c565b611961565b6040516107c191906136f2565b60405180910390f35b6107e460048036038101906107df91906136a3565b611985565b005b61080060048036038101906107fb919061327d565b6119ae565b60405161080d9190613204565b60405180910390f35b610830600480360381019061082b919061327d565b6119e1565b60405161083d9190613204565b60405180910390f35b610860600480360381019061085b9190613a0b565b611a14565b60405161086d9190613204565b60405180910390f35b61087e611aa8565b60405161088b9190613688565b60405180910390f35b6108ae60048036038101906108a9919061327d565b611acc565b6040516108bb9190613204565b60405180910390f35b60006108cf82611c10565b9050919050565b7f5f1d1e303f9c0a1801dd708bdc4239781d66c88ca6cb941c5769ba09b5c1b28561090881610903611c8a565b611c92565b6109327fe7837d04f36ce0b2f3cc662bf1b2b632a7fbd12ae95199e8bd3dcfbcc440b66b83611985565b5050565b60606000805461094590613a7a565b80601f016020809104026020016040519081016040528092919081815260200182805461097190613a7a565b80156109be5780601f10610993576101008083540402835291602001916109be565b820191906000526020600020905b8154815290600101906020018083116109a157829003601f168201915b5050505050905090565b60006109d382611d2f565b610a12576040517f08c379a0000000000000000000000000000000000000000000000000000000008152600401610a0990613b1e565b60405180910390fd5b6004600083815260200190815260200160002060009054906101000a900473ffffffffffffffffffffffffffffffffffffffff169050919050565b6000610a58826111f3565b90508073ffffffffffffffffffffffffffffffffffffffff168373ffffffffffffffffffffffffffffffffffffffff161415610ac9576040517f08c379a0000000000000000000000000000000000000000000000000000000008152600401610ac090613bb0565b60405180910390fd5b8073ffffffffffffffffffffffffffffffffffffffff16610ae8611c8a565b73ffffffffffffffffffffffffffffffffffffffff161480610b175750610b1681610b11611c8a565b611a14565b5b610b56576040517f08c379a0000000000000000000000000000000000000000000000000000000008152600401610b4d90613c42565b60405180910390fd5b610b608383611d9b565b505050565b7f5f1d1e303f9c0a1801dd708bdc4239781d66c88ca6cb941c5769ba09b5c1b285610b9781610b92611c8a565b611c92565b610bc17fe7837d04f36ce0b2f3cc662bf1b2b632a7fbd12ae95199e8bd3dcfbcc440b66b83610eb5565b5050565b7f5f1d1e303f9c0a1801dd708bdc4239781d66c88ca6cb941c5769ba09b5c1b285610bf781610bf2611c8a565b611c92565b600983604051610c079190613c9e565b908152602001604051809103902060009054906101000a900460ff1615610c63576040517f08c379a0000000000000000000000000000000000000000000000000000000008152600401610c5a90613d01565b60405180910390fd5b6000600860008473ffffffffffffffffffffffffffffffffffffffff1673ffffffffffffffffffffffffffffffffffffffff1681526020019081526020016000205414610ce5576040517f08c379a0000000000000000000000000000000000000000000000000000000008152600401610cdc90613d93565b60405180910390fd5b610cee826110a0565b600a83908060018154018082558091505060019003906000526020600020016000909190919091509080519060200190610d299291906130ad565b506000600a805490509050610d3e8382611e54565b6001600985604051610d509190613c9e565b908152602001604051809103902060006101000a81548160ff02191690831515021790555080600860008573ffffffffffffffffffffffffffffffffffffffff1673ffffffffffffffffffffffffffffffffffffffff1681526020019081526020016000208190555050505050565b600073ffffffffffffffffffffffffffffffffffffffff163373ffffffffffffffffffffffffffffffffffffffff1614610e2e576040517f08c379a0000000000000000000000000000000000000000000000000000000008152600401610e2590613e25565b60405180910390fd5b610e39838383612022565b505050565b600060066000838152602001908152602001600020600101549050919050565b7f5f1d1e303f9c0a1801dd708bdc4239781d66c88ca6cb941c5769ba09b5c1b28581565b6000610eae7f5f1d1e303f9c0a1801dd708bdc4239781d66c88ca6cb941c5769ba09b5c1b285836115e4565b9050919050565b610ebe82610e3e565b610ecf81610eca611c8a565b611c92565b610ed98383612082565b505050565b7f5f1d1e303f9c0a1801dd708bdc4239781d66c88ca6cb941c5769ba09b5c1b285610f1081610f0b611c8a565b611c92565b610f3a7f36a5c4aaacb6b388bbd448bf11096b7dafc5652bcc9046084fd0e95b1fb0b2cc83611985565b5050565b610f46611c8a565b73ffffffffffffffffffffffffffffffffffffffff168173ffffffffffffffffffffffffffffffffffffffff1614610fb3576040517f08c379a0000000000000000000000000000000000000000000000000000000008152600401610faa90613eb7565b60405180910390fd5b610fbd82826120b6565b5050565b600073ffffffffffffffffffffffffffffffffffffffff163373ffffffffffffffffffffffffffffffffffffffff1614611030576040517f08c379a000000000000000000000000000000000000000000000000000000000815260040161102790613e25565b60405180910390fd5b61103b8383836120ea565b505050565b7f5f1d1e303f9c0a1801dd708bdc4239781d66c88ca6cb941c5769ba09b5c1b2856110728161106d611c8a565b611c92565b61109c7ff3f9cfff7b46f415da5a492b1718971da203f87c6aae9299e7b408eb83ef8bee83610eb5565b5050565b7f5f1d1e303f9c0a1801dd708bdc4239781d66c88ca6cb941c5769ba09b5c1b2856110d2816110cd611c8a565b611c92565b6110fc7f36a5c4aaacb6b388bbd448bf11096b7dafc5652bcc9046084fd0e95b1fb0b2cc836115e4565b61113b576040517f08c379a000000000000000000000000000000000000000000000000000000000815260040161113290613f23565b60405180910390fd5b6111657f36a5c4aaacb6b388bbd448bf11096b7dafc5652bcc9046084fd0e95b1fb0b2cc83611985565b61118f7f4758f7d70d6088cbfad5c79861ac6457ba2af02adf5ea419e97879ae24459cb683610eb5565b5050565b7f5f1d1e303f9c0a1801dd708bdc4239781d66c88ca6cb941c5769ba09b5c1b2856111c5816111c0611c8a565b611c92565b6111ef7fae4a0595970935aa5495afbbb72e5f1f6ff1062766b4a3028c0c9b7d5cf7e34583610eb5565b5050565b6000806002600084815260200190815260200160002060009054906101000a900473ffffffffffffffffffffffffffffffffffffffff169050600073ffffffffffffffffffffffffffffffffffffffff168173ffffffffffffffffffffffffffffffffffffffff16141561129c576040517f08c379a000000000000000000000000000000000000000000000000000000000815260040161129390613fb5565b60405180910390fd5b80915050919050565b7ff3f9cfff7b46f415da5a492b1718971da203f87c6aae9299e7b408eb83ef8bee81565b60008073ffffffffffffffffffffffffffffffffffffffff168273ffffffffffffffffffffffffffffffffffffffff16141561133a576040517f08c379a000000000000000000000000000000000000000000000000000000000815260040161133190614047565b60405180910390fd5b600360008373ffffffffffffffffffffffffffffffffffffffff1673ffffffffffffffffffffffffffffffffffffffff168152602001908152602001600020549050919050565b60006113ad7f4758f7d70d6088cbfad5c79861ac6457ba2af02adf5ea419e97879ae24459cb6836115e4565b9050919050565b6060600a805480602002602001604051908101604052809291908181526020016000905b828210156114845783829060005260206000200180546113f790613a7a565b80601f016020809104026020016040519081016040528092919081815260200182805461142390613a7a565b80156114705780601f1061144557610100808354040283529160200191611470565b820191906000526020600020905b81548152906001019060200180831161145357829003601f168201915b5050505050815260200190600101906113d8565b50505050905090565b7f5f1d1e303f9c0a1801dd708bdc4239781d66c88ca6cb941c5769ba09b5c1b2856114bf816114ba611c8a565b611c92565b6114e97fae4a0595970935aa5495afbbb72e5f1f6ff1062766b4a3028c0c9b7d5cf7e34583611985565b5050565b7fae4a0595970935aa5495afbbb72e5f1f6ff1062766b4a3028c0c9b7d5cf7e34581565b7f5f1d1e303f9c0a1801dd708bdc4239781d66c88ca6cb941c5769ba09b5c1b2856115438161153e611c8a565b611c92565b61156d7f5f1d1e303f9c0a1801dd708bdc4239781d66c88ca6cb941c5769ba09b5c1b28583610eb5565b61157a6000801b83610eb5565b6115876000801b33610f3e565b6115b17f5f1d1e303f9c0a1801dd708bdc4239781d66c88ca6cb941c5769ba09b5c1b28533610f3e565b5050565b60006115dc826007600086815260200190815260200160002061210a90919063ffffffff16565b905092915050565b60006006600084815260200190815260200160002060000160008373ffffffffffffffffffffffffffffffffffffffff1673ffffffffffffffffffffffffffffffffffffffff16815260200190815260200160002060009054906101000a900460ff16905092915050565b60606001805461165e90613a7a565b80601f016020809104026020016040519081016040528092919081815260200182805461168a90613a7a565b80156116d75780601f106116ac576101008083540402835291602001916116d7565b820191906000526020600020905b8154815290600101906020018083116116ba57829003601f168201915b5050505050905090565b600061170d7fae4a0595970935aa5495afbbb72e5f1f6ff1062766b4a3028c0c9b7d5cf7e345836115e4565b9050919050565b7fe7837d04f36ce0b2f3cc662bf1b2b632a7fbd12ae95199e8bd3dcfbcc440b66b81565b6000801b81565b61175161174a611c8a565b8383612124565b5050565b7f4758f7d70d6088cbfad5c79861ac6457ba2af02adf5ea419e97879ae24459cb681565b600073ffffffffffffffffffffffffffffffffffffffff163373ffffffffffffffffffffffffffffffffffffffff16146117e8576040517f08c379a00000000000000000000000000000000000000000000000000000000081526004016117df90613e25565b60405180910390fd5b6117f484848484612291565b50505050565b7f5f1d1e303f9c0a1801dd708bdc4239781d66c88ca6cb941c5769ba09b5c1b28561182c81611827611c8a565b611c92565b6118567ff3f9cfff7b46f415da5a492b1718971da203f87c6aae9299e7b408eb83ef8bee83611985565b5050565b606061186582611d2f565b6118a4576040517f08c379a000000000000000000000000000000000000000000000000000000000815260040161189b906140d9565b60405180910390fd5b60006118ae6122f3565b905060008151116118ce57604051806020016040528060008152506118f9565b806118d88461230a565b6040516020016118e99291906140f9565b6040516020818303038152906040525b915050919050565b7f5f1d1e303f9c0a1801dd708bdc4239781d66c88ca6cb941c5769ba09b5c1b2856119338161192e611c8a565b611c92565b61195d7f36a5c4aaacb6b388bbd448bf11096b7dafc5652bcc9046084fd0e95b1fb0b2cc83610eb5565b5050565b600061197e6007600084815260200190815260200160002061246b565b9050919050565b61198e82610e3e565b61199f8161199a611c8a565b611c92565b6119a983836120b6565b505050565b60006119da7fe7837d04f36ce0b2f3cc662bf1b2b632a7fbd12ae95199e8bd3dcfbcc440b66b836115e4565b9050919050565b6000611a0d7ff3f9cfff7b46f415da5a492b1718971da203f87c6aae9299e7b408eb83ef8bee836115e4565b9050919050565b6000600560008473ffffffffffffffffffffffffffffffffffffffff1673ffffffffffffffffffffffffffffffffffffffff16815260200190815260200160002060008373ffffffffffffffffffffffffffffffffffffffff1673ffffffffffffffffffffffffffffffffffffffff16815260200190815260200160002060009054906101000a900460ff16905092915050565b7f36a5c4aaacb6b388bbd448bf11096b7dafc5652bcc9046084fd0e95b1fb0b2cc81565b6000611af87f36a5c4aaacb6b388bbd448bf11096b7dafc5652bcc9046084fd0e95b1fb0b2cc836115e4565b9050919050565b611b0982826115e4565b611bdc5760016006600084815260200190815260200160002060000160008373ffffffffffffffffffffffffffffffffffffffff1673ffffffffffffffffffffffffffffffffffffffff16815260200190815260200160002060006101000a81548160ff021916908315150217905550611b81611c8a565b73ffffffffffffffffffffffffffffffffffffffff168173ffffffffffffffffffffffffffffffffffffffff16837f2f8788117e7eff1d82e926ec794901d17c78024a50270940304540a733656f0d60405160405180910390a45b5050565b6000611c08836000018373ffffffffffffffffffffffffffffffffffffffff1660001b612480565b905092915050565b60007f5a05180f000000000000000000000000000000000000000000000000000000007bffffffffffffffffffffffffffffffffffffffffffffffffffffffff1916827bffffffffffffffffffffffffffffffffffffffffffffffffffffffff19161480611c835750611c82826124f0565b5b9050919050565b600033905090565b611c9c82826115e4565b611d2b57611cc18173ffffffffffffffffffffffffffffffffffffffff16601461256a565b611ccf8360001c602061256a565b604051602001611ce09291906141b5565b6040516020818303038152906040526040517f08c379a0000000000000000000000000000000000000000000000000000000008152600401611d229190613343565b60405180910390fd5b5050565b60008073ffffffffffffffffffffffffffffffffffffffff166002600084815260200190815260200160002060009054906101000a900473ffffffffffffffffffffffffffffffffffffffff1673ffffffffffffffffffffffffffffffffffffffff1614159050919050565b816004600083815260200190815260200160002060006101000a81548173ffffffffffffffffffffffffffffffffffffffff021916908373ffffffffffffffffffffffffffffffffffffffff160217905550808273ffffffffffffffffffffffffffffffffffffffff16611e0e836111f3565b73ffffffffffffffffffffffffffffffffffffffff167f8c5be1e5ebec7d5bd14f71427d1e84f3dd0314c0f7b2291e5b200ac8c7c3b92560405160405180910390a45050565b600073ffffffffffffffffffffffffffffffffffffffff168273ffffffffffffffffffffffffffffffffffffffff161415611ec4576040517f08c379a0000000000000000000000000000000000000000000000000000000008152600401611ebb9061423b565b60405180910390fd5b611ecd81611d2f565b15611f0d576040517f08c379a0000000000000000000000000000000000000000000000000000000008152600401611f04906142a7565b60405180910390fd5b611f19600083836127a6565b6001600360008473ffffffffffffffffffffffffffffffffffffffff1673ffffffffffffffffffffffffffffffffffffffff1681526020019081526020016000206000828254611f6991906142f6565b92505081905550816002600083815260200190815260200160002060006101000a81548173ffffffffffffffffffffffffffffffffffffffff021916908373ffffffffffffffffffffffffffffffffffffffff160217905550808273ffffffffffffffffffffffffffffffffffffffff16600073ffffffffffffffffffffffffffffffffffffffff167fddf252ad1be2c89b69c2b068fc378daa952ba7f163c4a11628f55a4df523b3ef60405160405180910390a45050565b61203361202d611c8a565b826127ab565b612072576040517f08c379a0000000000000000000000000000000000000000000000000000000008152600401612069906143be565b60405180910390fd5b61207d838383612889565b505050565b61208c8282611aff565b6120b18160076000858152602001908152602001600020611be090919063ffffffff16565b505050565b6120c08282612ae5565b6120e58160076000858152602001908152602001600020612bc790919063ffffffff16565b505050565b61210583838360405180602001604052806000815250611779565b505050565b60006121198360000183612bf7565b60001c905092915050565b8173ffffffffffffffffffffffffffffffffffffffff168373ffffffffffffffffffffffffffffffffffffffff161415612193576040517f08c379a000000000000000000000000000000000000000000000000000000000815260040161218a9061442a565b60405180910390fd5b80600560008573ffffffffffffffffffffffffffffffffffffffff1673ffffffffffffffffffffffffffffffffffffffff16815260200190815260200160002060008473ffffffffffffffffffffffffffffffffffffffff1673ffffffffffffffffffffffffffffffffffffffff16815260200190815260200160002060006101000a81548160ff0219169083151502179055508173ffffffffffffffffffffffffffffffffffffffff168373ffffffffffffffffffffffffffffffffffffffff167f17307eab39ab6107e8899845ad3d59bd9653f200f220920489ca2b5937696c31836040516122849190613204565b60405180910390a3505050565b6122a261229c611c8a565b836127ab565b6122e1576040517f08c379a00000000000000000000000000000000000000000000000000000000081526004016122d8906143be565b60405180910390fd5b6122ed84848484612c22565b50505050565b606060405180602001604052806000815250905090565b60606000821415612352576040518060400160405280600181526020017f30000000000000000000000000000000000000000000000000000000000000008152509050612466565b600082905060005b6000821461238457808061236d9061444a565b915050600a8261237d91906144c2565b915061235a565b60008167ffffffffffffffff8111156123a05761239f61343c565b5b6040519080825280601f01601f1916602001820160405280156123d25781602001600182028036833780820191505090505b5090505b6000851461245f576001826123eb91906144f3565b9150600a856123fa9190614527565b603061240691906142f6565b60f81b81838151811061241c5761241b614558565b5b60200101907effffffffffffffffffffffffffffffffffffffffffffffffffffffffffffff1916908160001a905350600a8561245891906144c2565b94506123d6565b8093505050505b919050565b600061247982600001612c7e565b9050919050565b600061248c8383612c8f565b6124e55782600001829080600181540180825580915050600190039060005260206000200160009091909190915055826000018054905083600101600084815260200190815260200160002081905550600190506124ea565b600090505b92915050565b60007f7965db0b000000000000000000000000000000000000000000000000000000007bffffffffffffffffffffffffffffffffffffffffffffffffffffffff1916827bffffffffffffffffffffffffffffffffffffffffffffffffffffffff19161480612563575061256282612cb2565b5b9050919050565b60606000600283600261257d9190614587565b61258791906142f6565b67ffffffffffffffff8111156125a05761259f61343c565b5b6040519080825280601f01601f1916602001820160405280156125d25781602001600182028036833780820191505090505b5090507f30000000000000000000000000000000000000000000000000000000000000008160008151811061260a57612609614558565b5b60200101907effffffffffffffffffffffffffffffffffffffffffffffffffffffffffffff1916908160001a9053507f78000000000000000000000000000000000000000000000000000000000000008160018151811061266e5761266d614558565b5b60200101907effffffffffffffffffffffffffffffffffffffffffffffffffffffffffffff1916908160001a905350600060018460026126ae9190614587565b6126b891906142f6565b90505b6001811115612758577f3031323334353637383961626364656600000000000000000000000000000000600f8616601081106126fa576126f9614558565b5b1a60f81b82828151811061271157612710614558565b5b60200101907effffffffffffffffffffffffffffffffffffffffffffffffffffffffffffff1916908160001a905350600485901c945080612751906145e1565b90506126bb565b506000841461279c576040517f08c379a000000000000000000000000000000000000000000000000000000000815260040161279390614657565b60405180910390fd5b8091505092915050565b505050565b60006127b682611d2f565b6127f5576040517f08c379a00000000000000000000000000000000000000000000000000000000081526004016127ec906146e9565b60405180910390fd5b6000612800836111f3565b90508073ffffffffffffffffffffffffffffffffffffffff168473ffffffffffffffffffffffffffffffffffffffff16148061286f57508373ffffffffffffffffffffffffffffffffffffffff16612857846109c8565b73ffffffffffffffffffffffffffffffffffffffff16145b80612880575061287f8185611a14565b5b91505092915050565b8273ffffffffffffffffffffffffffffffffffffffff166128a9826111f3565b73ffffffffffffffffffffffffffffffffffffffff16146128ff576040517f08c379a00000000000000000000000000000000000000000000000000000000081526004016128f69061477b565b60405180910390fd5b600073ffffffffffffffffffffffffffffffffffffffff168273ffffffffffffffffffffffffffffffffffffffff16141561296f576040517f08c379a00000000000000000000000000000000000000000000000000000000081526004016129669061480d565b60405180910390fd5b61297a8383836127a6565b612985600082611d9b565b6001600360008573ffffffffffffffffffffffffffffffffffffffff1673ffffffffffffffffffffffffffffffffffffffff16815260200190815260200160002060008282546129d591906144f3565b925050819055506001600360008473ffffffffffffffffffffffffffffffffffffffff1673ffffffffffffffffffffffffffffffffffffffff1681526020019081526020016000206000828254612a2c91906142f6565b92505081905550816002600083815260200190815260200160002060006101000a81548173ffffffffffffffffffffffffffffffffffffffff021916908373ffffffffffffffffffffffffffffffffffffffff160217905550808273ffffffffffffffffffffffffffffffffffffffff168473ffffffffffffffffffffffffffffffffffffffff167fddf252ad1be2c89b69c2b068fc378daa952ba7f163c4a11628f55a4df523b3ef60405160405180910390a4505050565b612aef82826115e4565b15612bc35760006006600084815260200190815260200160002060000160008373ffffffffffffffffffffffffffffffffffffffff1673ffffffffffffffffffffffffffffffffffffffff16815260200190815260200160002060006101000a81548160ff021916908315150217905550612b68611c8a565b73ffffffffffffffffffffffffffffffffffffffff168173ffffffffffffffffffffffffffffffffffffffff16837ff6391f5c32d9c69d2a47ea670b442974b53935d1edc7fd64eb21e047a839171b60405160405180910390a45b5050565b6000612bef836000018373ffffffffffffffffffffffffffffffffffffffff1660001b612d94565b905092915050565b6000826000018281548110612c0f57612c0e614558565b5b9060005260206000200154905092915050565b612c2d848484612889565b612c3984848484612ea8565b612c78576040517f08c379a0000000000000000000000000000000000000000000000000000000008152600401612c6f9061489f565b60405180910390fd5b50505050565b600081600001805490509050919050565b600080836001016000848152602001908152602001600020541415905092915050565b60007f80ac58cd000000000000000000000000000000000000000000000000000000007bffffffffffffffffffffffffffffffffffffffffffffffffffffffff1916827bffffffffffffffffffffffffffffffffffffffffffffffffffffffff19161480612d7d57507f5b5e139f000000000000000000000000000000000000000000000000000000007bffffffffffffffffffffffffffffffffffffffffffffffffffffffff1916827bffffffffffffffffffffffffffffffffffffffffffffffffffffffff1916145b80612d8d5750612d8c82613030565b5b9050919050565b60008083600101600084815260200190815260200160002054905060008114612e9c576000600182612dc691906144f3565b9050600060018660000180549050612dde91906144f3565b9050818114612e4d576000866000018281548110612dff57612dfe614558565b5b9060005260206000200154905080876000018481548110612e2357612e22614558565b5b90600052602060002001819055508387600101600083815260200190815260200160002081905550505b85600001805480612e6157612e606148bf565b5b600190038181906000526020600020016000905590558560010160008681526020019081526020016000206000905560019350505050612ea2565b60009150505b92915050565b6000612ec98473ffffffffffffffffffffffffffffffffffffffff1661309a565b15613023578373ffffffffffffffffffffffffffffffffffffffff1663150b7a02612ef2611c8a565b8786866040518563ffffffff1660e01b8152600401612f149493929190614943565b6020604051808303816000875af1925050508015612f5057506040513d601f19601f82011682018060405250810190612f4d91906149a4565b60015b612fd3573d8060008114612f80576040519150601f19603f3d011682016040523d82523d6000602084013e612f85565b606091505b50600081511415612fcb576040517f08c379a0000000000000000000000000000000000000000000000000000000008152600401612fc29061489f565b60405180910390fd5b805181602001fd5b63150b7a0260e01b7bffffffffffffffffffffffffffffffffffffffffffffffffffffffff1916817bffffffffffffffffffffffffffffffffffffffffffffffffffffffff191614915050613028565b600190505b949350505050565b60007f01ffc9a7000000000000000000000000000000000000000000000000000000007bffffffffffffffffffffffffffffffffffffffffffffffffffffffff1916827bffffffffffffffffffffffffffffffffffffffffffffffffffffffff1916149050919050565b600080823b905060008111915050919050565b8280546130b990613a7a565b90600052602060002090601f0160209004810192826130db5760008555613122565b82601f106130f457805160ff1916838001178555613122565b82800160010185558215613122579182015b82811115613121578251825591602001919060010190613106565b5b50905061312f9190613133565b5090565b5b8082111561314c576000816000905550600101613134565b5090565b6000604051905090565b600080fd5b600080fd5b60007fffffffff0000000000000000000000000000000000000000000000000000000082169050919050565b61319981613164565b81146131a457600080fd5b50565b6000813590506131b681613190565b92915050565b6000602082840312156131d2576131d161315a565b5b60006131e0848285016131a7565b91505092915050565b60008115159050919050565b6131fe816131e9565b82525050565b600060208201905061321960008301846131f5565b92915050565b600073ffffffffffffffffffffffffffffffffffffffff82169050919050565b600061324a8261321f565b9050919050565b61325a8161323f565b811461326557600080fd5b50565b60008135905061327781613251565b92915050565b6000602082840312156132935761329261315a565b5b60006132a184828501613268565b91505092915050565b600081519050919050565b600082825260208201905092915050565b60005b838110156132e45780820151818401526020810190506132c9565b838111156132f3576000848401525b50505050565b6000601f19601f8301169050919050565b6000613315826132aa565b61331f81856132b5565b935061332f8185602086016132c6565b613338816132f9565b840191505092915050565b6000602082019050818103600083015261335d818461330a565b905092915050565b6000819050919050565b61337881613365565b811461338357600080fd5b50565b6000813590506133958161336f565b92915050565b6000602082840312156133b1576133b061315a565b5b60006133bf84828501613386565b91505092915050565b6133d18161323f565b82525050565b60006020820190506133ec60008301846133c8565b92915050565b600080604083850312156134095761340861315a565b5b600061341785828601613268565b925050602061342885828601613386565b9150509250929050565b600080fd5b600080fd5b7f4e487b7100000000000000000000000000000000000000000000000000000000600052604160045260246000fd5b613474826132f9565b810181811067ffffffffffffffff821117156134935761349261343c565b5b80604052505050565b60006134a6613150565b90506134b2828261346b565b919050565b600067ffffffffffffffff8211156134d2576134d161343c565b5b6134db826132f9565b9050602081019050919050565b82818337600083830152505050565b600061350a613505846134b7565b61349c565b90508281526020810184848401111561352657613525613437565b5b6135318482856134e8565b509392505050565b600082601f83011261354e5761354d613432565b5b813561355e8482602086016134f7565b91505092915050565b6000806040838503121561357e5761357d61315a565b5b600083013567ffffffffffffffff81111561359c5761359b61315f565b5b6135a885828601613539565b92505060206135b985828601613268565b9150509250929050565b6000806000606084860312156135dc576135db61315a565b5b60006135ea86828701613268565b93505060206135fb86828701613268565b925050604061360c86828701613386565b9150509250925092565b6000819050919050565b61362981613616565b811461363457600080fd5b50565b60008135905061364681613620565b92915050565b6000602082840312156136625761366161315a565b5b600061367084828501613637565b91505092915050565b61368281613616565b82525050565b600060208201905061369d6000830184613679565b92915050565b600080604083850312156136ba576136b961315a565b5b60006136c885828601613637565b92505060206136d985828601613268565b9150509250929050565b6136ec81613365565b82525050565b600060208201905061370760008301846136e3565b92915050565b600081519050919050565b600082825260208201905092915050565b6000819050602082019050919050565b600082825260208201905092915050565b6000613755826132aa565b61375f8185613739565b935061376f8185602086016132c6565b613778816132f9565b840191505092915050565b600061378f838361374a565b905092915050565b6000602082019050919050565b60006137af8261370d565b6137b98185613718565b9350836020820285016137cb85613729565b8060005b8581101561380757848403895281516137e88582613783565b94506137f383613797565b925060208a019950506001810190506137cf565b50829750879550505050505092915050565b6000602082019050818103600083015261383381846137a4565b905092915050565b600080604083850312156138525761385161315a565b5b600061386085828601613637565b925050602061387185828601613386565b9150509250929050565b613884816131e9565b811461388f57600080fd5b50565b6000813590506138a18161387b565b92915050565b600080604083850312156138be576138bd61315a565b5b60006138cc85828601613268565b92505060206138dd85828601613892565b9150509250929050565b600067ffffffffffffffff8211156139025761390161343c565b5b61390b826132f9565b9050602081019050919050565b600061392b613926846138e7565b61349c565b90508281526020810184848401111561394757613946613437565b5b6139528482856134e8565b509392505050565b600082601f83011261396f5761396e613432565b5b813561397f848260208601613918565b91505092915050565b600080600080608085870312156139a2576139a161315a565b5b60006139b087828801613268565b94505060206139c187828801613268565b93505060406139d287828801613386565b925050606085013567ffffffffffffffff8111156139f3576139f261315f565b5b6139ff8782880161395a565b91505092959194509250565b60008060408385031215613a2257613a2161315a565b5b6000613a3085828601613268565b9250506020613a4185828601613268565b9150509250929050565b7f4e487b7100000000000000000000000000000000000000000000000000000000600052602260045260246000fd5b60006002820490506001821680613a9257607f821691505b60208210811415613aa657613aa5613a4b565b5b50919050565b7f4552433732313a20617070726f76656420717565727920666f72206e6f6e657860008201527f697374656e7420746f6b656e0000000000000000000000000000000000000000602082015250565b6000613b08602c836132b5565b9150613b1382613aac565b604082019050919050565b60006020820190508181036000830152613b3781613afb565b9050919050565b7f4552433732313a20617070726f76616c20746f2063757272656e74206f776e6560008201527f7200000000000000000000000000000000000000000000000000000000000000602082015250565b6000613b9a6021836132b5565b9150613ba582613b3e565b604082019050919050565b60006020820190508181036000830152613bc981613b8d565b9050919050565b7f4552433732313a20617070726f76652063616c6c6572206973206e6f74206f7760008201527f6e6572206e6f7220617070726f76656420666f7220616c6c0000000000000000602082015250565b6000613c2c6038836132b5565b9150613c3782613bd0565b604082019050919050565b60006020820190508181036000830152613c5b81613c1f565b9050919050565b600081905092915050565b6000613c78826132aa565b613c828185613c62565b9350613c928185602086016132c6565b80840191505092915050565b6000613caa8284613c6d565b915081905092915050565b7f54686973206c696e6b20697320616c7265616479206d696e7465640000000000600082015250565b6000613ceb601b836132b5565b9150613cf682613cb5565b602082019050919050565b60006020820190508181036000830152613d1a81613cde565b9050919050565b7f5468697320677261647561746520616c7265616479206861732061204469706c60008201527f6f6d610000000000000000000000000000000000000000000000000000000000602082015250565b6000613d7d6023836132b5565b9150613d8882613d21565b604082019050919050565b60006020820190508181036000830152613dac81613d70565b9050919050565b7f5472616e73666572206166746572206d696e742069732070726f68696269746560008201527f6400000000000000000000000000000000000000000000000000000000000000602082015250565b6000613e0f6021836132b5565b9150613e1a82613db3565b604082019050919050565b60006020820190508181036000830152613e3e81613e02565b9050919050565b7f416363657373436f6e74726f6c3a2063616e206f6e6c792072656e6f756e636560008201527f20726f6c657320666f722073656c660000000000000000000000000000000000602082015250565b6000613ea1602f836132b5565b9150613eac82613e45565b604082019050919050565b60006020820190508181036000830152613ed081613e94565b9050919050565b7f5468652061646472657373206973206e6f7420612073747564656e7400000000600082015250565b6000613f0d601c836132b5565b9150613f1882613ed7565b602082019050919050565b60006020820190508181036000830152613f3c81613f00565b9050919050565b7f4552433732313a206f776e657220717565727920666f72206e6f6e657869737460008201527f656e7420746f6b656e0000000000000000000000000000000000000000000000602082015250565b6000613f9f6029836132b5565b9150613faa82613f43565b604082019050919050565b60006020820190508181036000830152613fce81613f92565b9050919050565b7f4552433732313a2062616c616e636520717565727920666f7220746865207a6560008201527f726f206164647265737300000000000000000000000000000000000000000000602082015250565b6000614031602a836132b5565b915061403c82613fd5565b604082019050919050565b6000602082019050818103600083015261406081614024565b9050919050565b7f4552433732314d657461646174613a2055524920717565727920666f72206e6f60008201527f6e6578697374656e7420746f6b656e0000000000000000000000000000000000602082015250565b60006140c3602f836132b5565b91506140ce82614067565b604082019050919050565b600060208201905081810360008301526140f2816140b6565b9050919050565b60006141058285613c6d565b91506141118284613c6d565b91508190509392505050565b7f416363657373436f6e74726f6c3a206163636f756e7420000000000000000000600082015250565b6000614153601783613c62565b915061415e8261411d565b601782019050919050565b7f206973206d697373696e6720726f6c6520000000000000000000000000000000600082015250565b600061419f601183613c62565b91506141aa82614169565b601182019050919050565b60006141c082614146565b91506141cc8285613c6d565b91506141d782614192565b91506141e38284613c6d565b91508190509392505050565b7f4552433732313a206d696e7420746f20746865207a65726f2061646472657373600082015250565b60006142256020836132b5565b9150614230826141ef565b602082019050919050565b6000602082019050818103600083015261425481614218565b9050919050565b7f4552433732313a20746f6b656e20616c7265616479206d696e74656400000000600082015250565b6000614291601c836132b5565b915061429c8261425b565b602082019050919050565b600060208201905081810360008301526142c081614284565b9050919050565b7f4e487b7100000000000000000000000000000000000000000000000000000000600052601160045260246000fd5b600061430182613365565b915061430c83613365565b9250827fffffffffffffffffffffffffffffffffffffffffffffffffffffffffffffffff03821115614341576143406142c7565b5b828201905092915050565b7f4552433732313a207472616e736665722063616c6c6572206973206e6f74206f60008201527f776e6572206e6f7220617070726f766564000000000000000000000000000000602082015250565b60006143a86031836132b5565b91506143b38261434c565b604082019050919050565b600060208201905081810360008301526143d78161439b565b9050919050565b7f4552433732313a20617070726f766520746f2063616c6c657200000000000000600082015250565b60006144146019836132b5565b915061441f826143de565b602082019050919050565b6000602082019050818103600083015261444381614407565b9050919050565b600061445582613365565b91507fffffffffffffffffffffffffffffffffffffffffffffffffffffffffffffffff821415614488576144876142c7565b5b600182019050919050565b7f4e487b7100000000000000000000000000000000000000000000000000000000600052601260045260246000fd5b60006144cd82613365565b91506144d883613365565b9250826144e8576144e7614493565b5b828204905092915050565b60006144fe82613365565b915061450983613365565b92508282101561451c5761451b6142c7565b5b828203905092915050565b600061453282613365565b915061453d83613365565b92508261454d5761454c614493565b5b828206905092915050565b7f4e487b7100000000000000000000000000000000000000000000000000000000600052603260045260246000fd5b600061459282613365565b915061459d83613365565b9250817fffffffffffffffffffffffffffffffffffffffffffffffffffffffffffffffff04831182151516156145d6576145d56142c7565b5b828202905092915050565b60006145ec82613365565b91506000821415614600576145ff6142c7565b5b600182039050919050565b7f537472696e67733a20686578206c656e67746820696e73756666696369656e74600082015250565b60006146416020836132b5565b915061464c8261460b565b602082019050919050565b6000602082019050818103600083015261467081614634565b9050919050565b7f4552433732313a206f70657261746f7220717565727920666f72206e6f6e657860008201527f697374656e7420746f6b656e0000000000000000000000000000000000000000602082015250565b60006146d3602c836132b5565b91506146de82614677565b604082019050919050565b60006020820190508181036000830152614702816146c6565b9050919050565b7f4552433732313a207472616e73666572206f6620746f6b656e2074686174206960008201527f73206e6f74206f776e0000000000000000000000000000000000000000000000602082015250565b60006147656029836132b5565b915061477082614709565b604082019050919050565b6000602082019050818103600083015261479481614758565b9050919050565b7f4552433732313a207472616e7366657220746f20746865207a65726f2061646460008201527f7265737300000000000000000000000000000000000000000000000000000000602082015250565b60006147f76024836132b5565b91506148028261479b565b604082019050919050565b60006020820190508181036000830152614826816147ea565b9050919050565b7f4552433732313a207472616e7366657220746f206e6f6e20455243373231526560008201527f63656976657220696d706c656d656e7465720000000000000000000000000000602082015250565b60006148896032836132b5565b91506148948261482d565b604082019050919050565b600060208201905081810360008301526148b88161487c565b9050919050565b7f4e487b7100000000000000000000000000000000000000000000000000000000600052603160045260246000fd5b600081519050919050565b600082825260208201905092915050565b6000614915826148ee565b61491f81856148f9565b935061492f8185602086016132c6565b614938816132f9565b840191505092915050565b600060808201905061495860008301876133c8565b61496560208301866133c8565b61497260408301856136e3565b8181036060830152614984818461490a565b905095945050505050565b60008151905061499e81613190565b92915050565b6000602082840312156149ba576149b961315a565b5b60006149c88482850161498f565b9150509291505056fea264697066735822122048f7c695d11cb8e9817592c49f5f9c9471d2d7d25f784b7252a2687b88b2756c64736f6c634300080a0033",
  "immutableReferences": {},
  "source": "pragma solidity ^0.8.10;\r\n\r\nimport \"@openzeppelin/contracts/token/ERC721/ERC721.sol\";\r\nimport \"./Roles.sol\";\r\n\r\ncontract Diploma is ERC721, Roles {\r\n\r\n    //Mapping owner to the tokenID\r\n    mapping(address => uint256) _hasCertificate;\r\n    //Mapping tokenID to the owner is defined in ERC721.sol as ownerOf\r\n    //is Diploma link exist\r\n    mapping(string => bool) _diplomaExist;\r\n    //List of Diploma Links\r\n    string[] _diplomaLinks;\r\n\r\n    constructor() ERC721(\"Diploma\", \"DPLM\"){\r\n        _setupRole(DEFAULT_ADMIN_ROLE, msg.sender);\r\n        _setupRole(RECTOR_ROLE, msg.sender);\r\n    }\r\n\r\n    function mint(string memory _diplomaLink, address graduatedAddress) public onlyRole(RECTOR_ROLE){\r\n        require(!_diplomaExist[_diplomaLink], \"This link is already minted\");\r\n        require(_hasCertificate[graduatedAddress] == 0, \"This graduate already has a Diploma\");\r\n        grantGraduatedRole(graduatedAddress);\r\n        //diplomaLinks - add\r\n        _diplomaLinks.push(_diplomaLink);\r\n        uint _id = _diplomaLinks.length; //tokenID's start from 1 because default uint256 value is 0\r\n        //Call mint of ERC721\r\n        _mint(graduatedAddress, _id);\r\n        //Trace it\r\n        _diplomaExist[_diplomaLink] = true;\r\n        _hasCertificate[graduatedAddress] = _id;\r\n    }\r\n    function getDiplomaLinks() public view returns(string[] memory diplomaLinks){\r\n        return _diplomaLinks;\r\n    }\r\n\r\n    //TODO Contract Owner can make mistakes when minting. Token should be somewhat editable for contract owner\r\n    function transferFrom(//Only callable when minted\r\n        address from,\r\n        address to,\r\n        uint256 tokenId\r\n    ) public virtual override {\r\n        require(msg.sender == 0x0000000000000000000000000000000000000000, \"Transfer after mint is prohibited\");\r\n        super.transferFrom(from,to,tokenId);\r\n    }\r\n    function safeTransferFrom(//Only callable when minted\r\n        address from,\r\n        address to,\r\n        uint256 tokenId\r\n    ) public virtual override {\r\n        require(msg.sender == 0x0000000000000000000000000000000000000000, \"Transfer after mint is prohibited\");\r\n        super.safeTransferFrom(from,to,tokenId);\r\n    }\r\n    function safeTransferFrom(//Only callable when minted\r\n        address from,\r\n        address to,\r\n        uint256 tokenId,\r\n        bytes memory _data\r\n    ) public virtual override {\r\n        require(msg.sender == 0x0000000000000000000000000000000000000000, \"Transfer after mint is prohibited\");\r\n        super.safeTransferFrom(from, to, tokenId, _data);\r\n    }\r\n    function supportsInterface(bytes4 interfaceId) public view virtual override(ERC721, AccessControlEnumerable) returns (bool) {\r\n        return super.supportsInterface(interfaceId);\r\n    }\r\n\r\n}\r\n",
  "sourcePath": "C:\\Users\\asus\\Desktop\\Dersler\\CMPE492\\certification-project\\contracts\\Diploma.sol",
  "compiler": {
    "name": "solc",
    "version": "0.8.10+commit.fc410830.Emscripten.clang"
  },
  "schemaVersion": "3.4.4",
  "updatedAt": "2022-01-14T18:18:06.872Z",
  "networkType": "ethereum",
  "devdoc": {
    "kind": "dev",
    "methods": {
      "approve(address,uint256)": {
        "details": "See {IERC721-approve}."
      },
      "balanceOf(address)": {
        "details": "See {IERC721-balanceOf}."
      },
      "getApproved(uint256)": {
        "details": "See {IERC721-getApproved}."
      },
      "getRoleAdmin(bytes32)": {
        "details": "Returns the admin role that controls `role`. See {grantRole} and {revokeRole}. To change a role's admin, use {_setRoleAdmin}."
      },
      "getRoleMember(bytes32,uint256)": {
        "details": "Returns one of the accounts that have `role`. `index` must be a value between 0 and {getRoleMemberCount}, non-inclusive. Role bearers are not sorted in any particular way, and their ordering may change at any point. WARNING: When using {getRoleMember} and {getRoleMemberCount}, make sure you perform all queries on the same block. See the following https://forum.openzeppelin.com/t/iterating-over-elements-on-enumerableset-in-openzeppelin-contracts/2296[forum post] for more information."
      },
      "getRoleMemberCount(bytes32)": {
        "details": "Returns the number of accounts that have `role`. Can be used together with {getRoleMember} to enumerate all bearers of a role."
      },
      "grantRole(bytes32,address)": {
        "details": "Grants `role` to `account`. If `account` had not been already granted `role`, emits a {RoleGranted} event. Requirements: - the caller must have ``role``'s admin role."
      },
      "hasRole(bytes32,address)": {
        "details": "Returns `true` if `account` has been granted `role`."
      },
      "isApprovedForAll(address,address)": {
        "details": "See {IERC721-isApprovedForAll}."
      },
      "name()": {
        "details": "See {IERC721Metadata-name}."
      },
      "ownerOf(uint256)": {
        "details": "See {IERC721-ownerOf}."
      },
      "renounceRole(bytes32,address)": {
        "details": "Revokes `role` from the calling account. Roles are often managed via {grantRole} and {revokeRole}: this function's purpose is to provide a mechanism for accounts to lose their privileges if they are compromised (such as when a trusted device is misplaced). If the calling account had been revoked `role`, emits a {RoleRevoked} event. Requirements: - the caller must be `account`."
      },
      "revokeRole(bytes32,address)": {
        "details": "Revokes `role` from `account`. If `account` had been granted `role`, emits a {RoleRevoked} event. Requirements: - the caller must have ``role``'s admin role."
      },
      "safeTransferFrom(address,address,uint256)": {
        "details": "See {IERC721-safeTransferFrom}."
      },
      "safeTransferFrom(address,address,uint256,bytes)": {
        "details": "See {IERC721-safeTransferFrom}."
      },
      "setApprovalForAll(address,bool)": {
        "details": "See {IERC721-setApprovalForAll}."
      },
      "symbol()": {
        "details": "See {IERC721Metadata-symbol}."
      },
      "tokenURI(uint256)": {
        "details": "See {IERC721Metadata-tokenURI}."
      },
      "transferFrom(address,address,uint256)": {
        "details": "See {IERC721-transferFrom}."
      }
    },
    "version": 1
  },
  "userdoc": {
    "kind": "user",
    "methods": {},
    "version": 1
  }
}