{
  "contractName": "Diploma",
  "abi": [
    {
      "inputs": [],
      "stateMutability": "nonpayable",
      "type": "constructor"
    },
    {
      "anonymous": false,
      "inputs": [
        {
          "indexed": true,
          "internalType": "address",
          "name": "owner",
          "type": "address"
        },
        {
          "indexed": true,
          "internalType": "address",
          "name": "approved",
          "type": "address"
        },
        {
          "indexed": true,
          "internalType": "uint256",
          "name": "tokenId",
          "type": "uint256"
        }
      ],
      "name": "Approval",
      "type": "event"
    },
    {
      "anonymous": false,
      "inputs": [
        {
          "indexed": true,
          "internalType": "address",
          "name": "owner",
          "type": "address"
        },
        {
          "indexed": true,
          "internalType": "address",
          "name": "operator",
          "type": "address"
        },
        {
          "indexed": false,
          "internalType": "bool",
          "name": "approved",
          "type": "bool"
        }
      ],
      "name": "ApprovalForAll",
      "type": "event"
    },
    {
      "anonymous": false,
      "inputs": [
        {
          "indexed": true,
          "internalType": "bytes32",
          "name": "role",
          "type": "bytes32"
        },
        {
          "indexed": true,
          "internalType": "bytes32",
          "name": "previousAdminRole",
          "type": "bytes32"
        },
        {
          "indexed": true,
          "internalType": "bytes32",
          "name": "newAdminRole",
          "type": "bytes32"
        }
      ],
      "name": "RoleAdminChanged",
      "type": "event"
    },
    {
      "anonymous": false,
      "inputs": [
        {
          "indexed": true,
          "internalType": "bytes32",
          "name": "role",
          "type": "bytes32"
        },
        {
          "indexed": true,
          "internalType": "address",
          "name": "account",
          "type": "address"
        },
        {
          "indexed": true,
          "internalType": "address",
          "name": "sender",
          "type": "address"
        }
      ],
      "name": "RoleGranted",
      "type": "event"
    },
    {
      "anonymous": false,
      "inputs": [
        {
          "indexed": true,
          "internalType": "bytes32",
          "name": "role",
          "type": "bytes32"
        },
        {
          "indexed": true,
          "internalType": "address",
          "name": "account",
          "type": "address"
        },
        {
          "indexed": true,
          "internalType": "address",
          "name": "sender",
          "type": "address"
        }
      ],
      "name": "RoleRevoked",
      "type": "event"
    },
    {
      "anonymous": false,
      "inputs": [
        {
          "indexed": true,
          "internalType": "address",
          "name": "from",
          "type": "address"
        },
        {
          "indexed": true,
          "internalType": "address",
          "name": "to",
          "type": "address"
        },
        {
          "indexed": true,
          "internalType": "uint256",
          "name": "tokenId",
          "type": "uint256"
        }
      ],
      "name": "Transfer",
      "type": "event"
    },
    {
      "inputs": [],
      "name": "DEFAULT_ADMIN_ROLE",
      "outputs": [
        {
          "internalType": "bytes32",
          "name": "",
          "type": "bytes32"
        }
      ],
      "stateMutability": "view",
      "type": "function",
      "constant": true
    },
    {
      "inputs": [],
      "name": "DEPARTMENT_ROLE",
      "outputs": [
        {
          "internalType": "bytes32",
          "name": "",
          "type": "bytes32"
        }
      ],
      "stateMutability": "view",
      "type": "function",
      "constant": true
    },
    {
      "inputs": [],
      "name": "FACULTY_ROLE",
      "outputs": [
        {
          "internalType": "bytes32",
          "name": "",
          "type": "bytes32"
        }
      ],
      "stateMutability": "view",
      "type": "function",
      "constant": true
    },
    {
      "inputs": [],
      "name": "GRADUATED_ROLE",
      "outputs": [
        {
          "internalType": "bytes32",
          "name": "",
          "type": "bytes32"
        }
      ],
      "stateMutability": "view",
      "type": "function",
      "constant": true
    },
    {
      "inputs": [],
      "name": "INSTRUCTOR_ROLE",
      "outputs": [
        {
          "internalType": "bytes32",
          "name": "",
          "type": "bytes32"
        }
      ],
      "stateMutability": "view",
      "type": "function",
      "constant": true
    },
    {
      "inputs": [],
      "name": "RECTOR_ROLE",
      "outputs": [
        {
          "internalType": "bytes32",
          "name": "",
          "type": "bytes32"
        }
      ],
      "stateMutability": "view",
      "type": "function",
      "constant": true
    },
    {
      "inputs": [],
      "name": "STUDENT_ROLE",
      "outputs": [
        {
          "internalType": "bytes32",
          "name": "",
          "type": "bytes32"
        }
      ],
      "stateMutability": "view",
      "type": "function",
      "constant": true
    },
    {
      "inputs": [
        {
          "internalType": "address",
          "name": "to",
          "type": "address"
        },
        {
          "internalType": "uint256",
          "name": "tokenId",
          "type": "uint256"
        }
      ],
      "name": "approve",
      "outputs": [],
      "stateMutability": "nonpayable",
      "type": "function"
    },
    {
      "inputs": [
        {
          "internalType": "address",
          "name": "owner",
          "type": "address"
        }
      ],
      "name": "balanceOf",
      "outputs": [
        {
          "internalType": "uint256",
          "name": "",
          "type": "uint256"
        }
      ],
      "stateMutability": "view",
      "type": "function",
      "constant": true
    },
    {
      "inputs": [
        {
          "internalType": "uint256",
          "name": "tokenId",
          "type": "uint256"
        }
      ],
      "name": "getApproved",
      "outputs": [
        {
          "internalType": "address",
          "name": "",
          "type": "address"
        }
      ],
      "stateMutability": "view",
      "type": "function",
      "constant": true
    },
    {
      "inputs": [
        {
          "internalType": "bytes32",
          "name": "role",
          "type": "bytes32"
        }
      ],
      "name": "getRoleAdmin",
      "outputs": [
        {
          "internalType": "bytes32",
          "name": "",
          "type": "bytes32"
        }
      ],
      "stateMutability": "view",
      "type": "function",
      "constant": true
    },
    {
      "inputs": [
        {
          "internalType": "bytes32",
          "name": "role",
          "type": "bytes32"
        },
        {
          "internalType": "uint256",
          "name": "index",
          "type": "uint256"
        }
      ],
      "name": "getRoleMember",
      "outputs": [
        {
          "internalType": "address",
          "name": "",
          "type": "address"
        }
      ],
      "stateMutability": "view",
      "type": "function",
      "constant": true
    },
    {
      "inputs": [
        {
          "internalType": "bytes32",
          "name": "role",
          "type": "bytes32"
        }
      ],
      "name": "getRoleMemberCount",
      "outputs": [
        {
          "internalType": "uint256",
          "name": "",
          "type": "uint256"
        }
      ],
      "stateMutability": "view",
      "type": "function",
      "constant": true
    },
    {
      "inputs": [
        {
          "internalType": "address",
          "name": "account",
          "type": "address"
        }
      ],
      "name": "grantGraduatedRole",
      "outputs": [],
      "stateMutability": "nonpayable",
      "type": "function"
    },
    {
      "inputs": [
        {
          "internalType": "address",
          "name": "account",
          "type": "address"
        }
      ],
      "name": "grantInstructorRole",
      "outputs": [],
      "stateMutability": "nonpayable",
      "type": "function"
    },
    {
      "inputs": [
        {
          "internalType": "address",
          "name": "account",
          "type": "address"
        }
      ],
      "name": "grantRectorRole",
      "outputs": [],
      "stateMutability": "nonpayable",
      "type": "function"
    },
    {
      "inputs": [
        {
          "internalType": "bytes32",
          "name": "role",
          "type": "bytes32"
        },
        {
          "internalType": "address",
          "name": "account",
          "type": "address"
        }
      ],
      "name": "grantRole",
      "outputs": [],
      "stateMutability": "nonpayable",
      "type": "function"
    },
    {
      "inputs": [
        {
          "internalType": "address",
          "name": "account",
          "type": "address"
        }
      ],
      "name": "grantStudentRole",
      "outputs": [],
      "stateMutability": "nonpayable",
      "type": "function"
    },
    {
      "inputs": [
        {
          "internalType": "bytes32",
          "name": "role",
          "type": "bytes32"
        },
        {
          "internalType": "address",
          "name": "account",
          "type": "address"
        }
      ],
      "name": "hasRole",
      "outputs": [
        {
          "internalType": "bool",
          "name": "",
          "type": "bool"
        }
      ],
      "stateMutability": "view",
      "type": "function",
      "constant": true
    },
    {
      "inputs": [
        {
          "internalType": "address",
          "name": "owner",
          "type": "address"
        },
        {
          "internalType": "address",
          "name": "operator",
          "type": "address"
        }
      ],
      "name": "isApprovedForAll",
      "outputs": [
        {
          "internalType": "bool",
          "name": "",
          "type": "bool"
        }
      ],
      "stateMutability": "view",
      "type": "function",
      "constant": true
    },
    {
      "inputs": [],
      "name": "name",
      "outputs": [
        {
          "internalType": "string",
          "name": "",
          "type": "string"
        }
      ],
      "stateMutability": "view",
      "type": "function",
      "constant": true
    },
    {
      "inputs": [
        {
          "internalType": "uint256",
          "name": "tokenId",
          "type": "uint256"
        }
      ],
      "name": "ownerOf",
      "outputs": [
        {
          "internalType": "address",
          "name": "",
          "type": "address"
        }
      ],
      "stateMutability": "view",
      "type": "function",
      "constant": true
    },
    {
      "inputs": [
        {
          "internalType": "bytes32",
          "name": "role",
          "type": "bytes32"
        },
        {
          "internalType": "address",
          "name": "account",
          "type": "address"
        }
      ],
      "name": "renounceRole",
      "outputs": [],
      "stateMutability": "nonpayable",
      "type": "function"
    },
    {
      "inputs": [
        {
          "internalType": "address",
          "name": "account",
          "type": "address"
        }
      ],
      "name": "revokeInstructorRole",
      "outputs": [],
      "stateMutability": "nonpayable",
      "type": "function"
    },
    {
      "inputs": [
        {
          "internalType": "bytes32",
          "name": "role",
          "type": "bytes32"
        },
        {
          "internalType": "address",
          "name": "account",
          "type": "address"
        }
      ],
      "name": "revokeRole",
      "outputs": [],
      "stateMutability": "nonpayable",
      "type": "function"
    },
    {
      "inputs": [
        {
          "internalType": "address",
          "name": "account",
          "type": "address"
        }
      ],
      "name": "revokeStudentRole",
      "outputs": [],
      "stateMutability": "nonpayable",
      "type": "function"
    },
    {
      "inputs": [
        {
          "internalType": "address",
          "name": "operator",
          "type": "address"
        },
        {
          "internalType": "bool",
          "name": "approved",
          "type": "bool"
        }
      ],
      "name": "setApprovalForAll",
      "outputs": [],
      "stateMutability": "nonpayable",
      "type": "function"
    },
    {
      "inputs": [],
      "name": "symbol",
      "outputs": [
        {
          "internalType": "string",
          "name": "",
          "type": "string"
        }
      ],
      "stateMutability": "view",
      "type": "function",
      "constant": true
    },
    {
      "inputs": [
        {
          "internalType": "uint256",
          "name": "tokenId",
          "type": "uint256"
        }
      ],
      "name": "tokenURI",
      "outputs": [
        {
          "internalType": "string",
          "name": "",
          "type": "string"
        }
      ],
      "stateMutability": "view",
      "type": "function",
      "constant": true
    },
    {
      "inputs": [
        {
          "internalType": "string",
          "name": "_diplomaLink",
          "type": "string"
        },
        {
          "internalType": "address",
          "name": "graduatedAddress",
          "type": "address"
        }
      ],
      "name": "mint",
      "outputs": [],
      "stateMutability": "nonpayable",
      "type": "function"
    },
    {
      "inputs": [],
      "name": "getDiplomaLinks",
      "outputs": [
        {
          "internalType": "string[]",
          "name": "diplomaLinks",
          "type": "string[]"
        }
      ],
      "stateMutability": "view",
      "type": "function",
      "constant": true
    },
    {
      "inputs": [
        {
          "internalType": "address",
          "name": "from",
          "type": "address"
        },
        {
          "internalType": "address",
          "name": "to",
          "type": "address"
        },
        {
          "internalType": "uint256",
          "name": "tokenId",
          "type": "uint256"
        }
      ],
      "name": "transferFrom",
      "outputs": [],
      "stateMutability": "nonpayable",
      "type": "function"
    },
    {
      "inputs": [
        {
          "internalType": "address",
          "name": "from",
          "type": "address"
        },
        {
          "internalType": "address",
          "name": "to",
          "type": "address"
        },
        {
          "internalType": "uint256",
          "name": "tokenId",
          "type": "uint256"
        }
      ],
      "name": "safeTransferFrom",
      "outputs": [],
      "stateMutability": "nonpayable",
      "type": "function"
    },
    {
      "inputs": [
        {
          "internalType": "address",
          "name": "from",
          "type": "address"
        },
        {
          "internalType": "address",
          "name": "to",
          "type": "address"
        },
        {
          "internalType": "uint256",
          "name": "tokenId",
          "type": "uint256"
        },
        {
          "internalType": "bytes",
          "name": "_data",
          "type": "bytes"
        }
      ],
      "name": "safeTransferFrom",
      "outputs": [],
      "stateMutability": "nonpayable",
      "type": "function"
    },
    {
      "inputs": [
        {
          "internalType": "bytes4",
          "name": "interfaceId",
          "type": "bytes4"
        }
      ],
      "name": "supportsInterface",
      "outputs": [
        {
          "internalType": "bool",
          "name": "",
          "type": "bool"
        }
      ],
      "stateMutability": "view",
      "type": "function",
      "constant": true
    }
  ],
  "bytecode": "0x60806040523480156200001157600080fd5b506040518060400160405280600781526020017f4469706c6f6d61000000000000000000000000000000000000000000000000008152506040518060400160405280600481526020017f44504c4d0000000000000000000000000000000000000000000000000000000081525081600090805190602001906200009692919062000397565b508060019080519060200190620000af92919062000397565b505050620000c76000801b33620000ff60201b60201c565b620000f97f5f1d1e303f9c0a1801dd708bdc4239781d66c88ca6cb941c5769ba09b5c1b28533620000ff60201b60201c565b620004ac565b6200011182826200011560201b60201c565b5050565b6200012c82826200015d60201b620016cd1760201c565b6200015881600760008581526020019081526020016000206200024f60201b620017ae1790919060201c565b505050565b6200016f82826200028760201b60201c565b6200024b5760016006600084815260200190815260200160002060000160008373ffffffffffffffffffffffffffffffffffffffff1673ffffffffffffffffffffffffffffffffffffffff16815260200190815260200160002060006101000a81548160ff021916908315150217905550620001f0620002f260201b60201c565b73ffffffffffffffffffffffffffffffffffffffff168173ffffffffffffffffffffffffffffffffffffffff16837f2f8788117e7eff1d82e926ec794901d17c78024a50270940304540a733656f0d60405160405180910390a45b5050565b60006200027f836000018373ffffffffffffffffffffffffffffffffffffffff1660001b620002fa60201b60201c565b905092915050565b60006006600084815260200190815260200160002060000160008373ffffffffffffffffffffffffffffffffffffffff1673ffffffffffffffffffffffffffffffffffffffff16815260200190815260200160002060009054906101000a900460ff16905092915050565b600033905090565b60006200030e83836200037460201b60201c565b620003695782600001829080600181540180825580915050600190039060005260206000200160009091909190915055826000018054905083600101600084815260200190815260200160002081905550600190506200036e565b600090505b92915050565b600080836001016000848152602001908152602001600020541415905092915050565b828054620003a59062000476565b90600052602060002090601f016020900481019282620003c9576000855562000415565b82601f10620003e457805160ff191683800117855562000415565b8280016001018555821562000415579182015b8281111562000414578251825591602001919060010190620003f7565b5b50905062000424919062000428565b5090565b5b808211156200044357600081600090555060010162000429565b5090565b7f4e487b7100000000000000000000000000000000000000000000000000000000600052602260045260246000fd5b600060028204905060018216806200048f57607f821691505b60208210811415620004a657620004a562000447565b5b50919050565b6145d580620004bc6000396000f3fe608060405234801561001057600080fd5b50600436106102115760003560e01c80637ab08b8011610125578063a22cb465116100ad578063c94d10ad1161007c578063c94d10ad14610610578063ca15c8731461062c578063d547741f1461065c578063e985e9c514610678578063f7be43fb146106a857610211565b8063a22cb4651461058a578063ad7be93a146105a6578063b88d4fde146105c4578063c87b56dd146105e057610211565b80639010d07c116100f45780639010d07c146104d057806391d148541461050057806395d89b4114610530578063996dc0221461054e578063a217fddf1461056c57610211565b80637ab08b801461045c57806386f8e92c1461047a5780638bcf979c146104965780638df6674a146104b457610211565b80632f2ff15d116101a85780635ea07b1c116101775780635ea07b1c146103a65780635f1d514e146103c25780636352211e146103de5780636fe3ceb81461040e57806370a082311461042c57610211565b80632f2ff15d1461033657806332b3c8461461035257806336568abe1461036e57806342842e0e1461038a57610211565b80631c351a9d116101e45780631c351a9d146102b057806323b872dd146102cc578063248a9ca3146102e857806324d42a371461031857610211565b806301ffc9a71461021657806306fdde0314610246578063081812fc14610264578063095ea7b314610294575b600080fd5b610230600480360381019061022b9190612d8a565b6106c6565b60405161023d9190612dd2565b60405180910390f35b61024e6106d8565b60405161025b9190612e86565b60405180910390f35b61027e60048036038101906102799190612ede565b61076a565b60405161028b9190612f4c565b60405180910390f35b6102ae60048036038101906102a99190612f93565b6107ef565b005b6102ca60048036038101906102c59190613108565b610907565b005b6102e660048036038101906102e19190613164565b610bb5565b005b61030260048036038101906102fd91906131ed565b610c34565b60405161030f9190613229565b60405180910390f35b610320610c54565b60405161032d9190613229565b60405180910390f35b610350600480360381019061034b9190613244565b610c78565b005b61036c60048036038101906103679190613284565b610ca1565b005b61038860048036038101906103839190613244565b610d01565b005b6103a4600480360381019061039f9190613164565b610d84565b005b6103c060048036038101906103bb9190613284565b610e03565b005b6103dc60048036038101906103d79190613284565b610ec0565b005b6103f860048036038101906103f39190612ede565b610f20565b6040516104059190612f4c565b60405180910390f35b610416610fd2565b6040516104239190613229565b60405180910390f35b61044660048036038101906104419190613284565b610ff6565b60405161045391906132c0565b60405180910390f35b6104646110ae565b60405161047191906133e7565b60405180910390f35b610494600480360381019061048f9190613284565b611187565b005b61049e6111e7565b6040516104ab9190613229565b60405180910390f35b6104ce60048036038101906104c99190613284565b61120b565b005b6104ea60048036038101906104e59190613409565b6112af565b6040516104f79190612f4c565b60405180910390f35b61051a60048036038101906105159190613244565b6112de565b6040516105279190612dd2565b60405180910390f35b610538611349565b6040516105459190612e86565b60405180910390f35b6105566113db565b6040516105639190613229565b60405180910390f35b6105746113ff565b6040516105819190613229565b60405180910390f35b6105a4600480360381019061059f9190613475565b611406565b005b6105ae61141c565b6040516105bb9190613229565b60405180910390f35b6105de60048036038101906105d99190613556565b611440565b005b6105fa60048036038101906105f59190612ede565b6114c1565b6040516106079190612e86565b60405180910390f35b61062a60048036038101906106259190613284565b611568565b005b610646600480360381019061064191906131ed565b6115c8565b60405161065391906132c0565b60405180910390f35b61067660048036038101906106719190613244565b6115ec565b005b610692600480360381019061068d91906135d9565b611615565b60405161069f9190612dd2565b60405180910390f35b6106b06116a9565b6040516106bd9190613229565b60405180910390f35b60006106d1826117de565b9050919050565b6060600080546106e790613648565b80601f016020809104026020016040519081016040528092919081815260200182805461071390613648565b80156107605780601f1061073557610100808354040283529160200191610760565b820191906000526020600020905b81548152906001019060200180831161074357829003601f168201915b5050505050905090565b600061077582611858565b6107b4576040517f08c379a00000000000000000000000000000000000000000000000000000000081526004016107ab906136ec565b60405180910390fd5b6004600083815260200190815260200160002060009054906101000a900473ffffffffffffffffffffffffffffffffffffffff169050919050565b60006107fa82610f20565b90508073ffffffffffffffffffffffffffffffffffffffff168373ffffffffffffffffffffffffffffffffffffffff16141561086b576040517f08c379a00000000000000000000000000000000000000000000000000000000081526004016108629061377e565b60405180910390fd5b8073ffffffffffffffffffffffffffffffffffffffff1661088a6118c4565b73ffffffffffffffffffffffffffffffffffffffff1614806108b957506108b8816108b36118c4565b611615565b5b6108f8576040517f08c379a00000000000000000000000000000000000000000000000000000000081526004016108ef90613810565b60405180910390fd5b61090283836118cc565b505050565b7f5f1d1e303f9c0a1801dd708bdc4239781d66c88ca6cb941c5769ba09b5c1b285610939816109346118c4565b611985565b600983604051610949919061386c565b908152602001604051809103902060009054906101000a900460ff16156109a5576040517f08c379a000000000000000000000000000000000000000000000000000000000815260040161099c906138cf565b60405180910390fd5b6000600860008473ffffffffffffffffffffffffffffffffffffffff1673ffffffffffffffffffffffffffffffffffffffff1681526020019081526020016000205414610a27576040517f08c379a0000000000000000000000000000000000000000000000000000000008152600401610a1e90613961565b60405180910390fd5b610a517f36a5c4aaacb6b388bbd448bf11096b7dafc5652bcc9046084fd0e95b1fb0b2cc836112de565b610a90576040517f08c379a0000000000000000000000000000000000000000000000000000000008152600401610a87906139cd565b60405180910390fd5b610aba7f36a5c4aaacb6b388bbd448bf11096b7dafc5652bcc9046084fd0e95b1fb0b2cc836115ec565b610ae47f4758f7d70d6088cbfad5c79861ac6457ba2af02adf5ea419e97879ae24459cb683610c78565b600a83908060018154018082558091505060019003906000526020600020016000909190919091509080519060200190610b1f929190612c7b565b506000600a805490509050610b348382611a22565b6001600985604051610b46919061386c565b908152602001604051809103902060006101000a81548160ff02191690831515021790555080600860008573ffffffffffffffffffffffffffffffffffffffff1673ffffffffffffffffffffffffffffffffffffffff1681526020019081526020016000208190555050505050565b600073ffffffffffffffffffffffffffffffffffffffff163373ffffffffffffffffffffffffffffffffffffffff1614610c24576040517f08c379a0000000000000000000000000000000000000000000000000000000008152600401610c1b90613a5f565b60405180910390fd5b610c2f838383611bf0565b505050565b600060066000838152602001908152602001600020600101549050919050565b7f5f1d1e303f9c0a1801dd708bdc4239781d66c88ca6cb941c5769ba09b5c1b28581565b610c8182610c34565b610c9281610c8d6118c4565b611985565b610c9c8383611c50565b505050565b7f5f1d1e303f9c0a1801dd708bdc4239781d66c88ca6cb941c5769ba09b5c1b285610cd381610cce6118c4565b611985565b610cfd7f36a5c4aaacb6b388bbd448bf11096b7dafc5652bcc9046084fd0e95b1fb0b2cc836115ec565b5050565b610d096118c4565b73ffffffffffffffffffffffffffffffffffffffff168173ffffffffffffffffffffffffffffffffffffffff1614610d76576040517f08c379a0000000000000000000000000000000000000000000000000000000008152600401610d6d90613af1565b60405180910390fd5b610d808282611c84565b5050565b600073ffffffffffffffffffffffffffffffffffffffff163373ffffffffffffffffffffffffffffffffffffffff1614610df3576040517f08c379a0000000000000000000000000000000000000000000000000000000008152600401610dea90613a5f565b60405180910390fd5b610dfe838383611cb8565b505050565b7f5f1d1e303f9c0a1801dd708bdc4239781d66c88ca6cb941c5769ba09b5c1b285610e3581610e306118c4565b611985565b610e5f7f36a5c4aaacb6b388bbd448bf11096b7dafc5652bcc9046084fd0e95b1fb0b2cc836112de565b610e6857600080fd5b610e927f36a5c4aaacb6b388bbd448bf11096b7dafc5652bcc9046084fd0e95b1fb0b2cc836115ec565b610ebc7f4758f7d70d6088cbfad5c79861ac6457ba2af02adf5ea419e97879ae24459cb683610c78565b5050565b7f5f1d1e303f9c0a1801dd708bdc4239781d66c88ca6cb941c5769ba09b5c1b285610ef281610eed6118c4565b611985565b610f1c7fae4a0595970935aa5495afbbb72e5f1f6ff1062766b4a3028c0c9b7d5cf7e34583610c78565b5050565b6000806002600084815260200190815260200160002060009054906101000a900473ffffffffffffffffffffffffffffffffffffffff169050600073ffffffffffffffffffffffffffffffffffffffff168173ffffffffffffffffffffffffffffffffffffffff161415610fc9576040517f08c379a0000000000000000000000000000000000000000000000000000000008152600401610fc090613b83565b60405180910390fd5b80915050919050565b7ff3f9cfff7b46f415da5a492b1718971da203f87c6aae9299e7b408eb83ef8bee81565b60008073ffffffffffffffffffffffffffffffffffffffff168273ffffffffffffffffffffffffffffffffffffffff161415611067576040517f08c379a000000000000000000000000000000000000000000000000000000000815260040161105e90613c15565b60405180910390fd5b600360008373ffffffffffffffffffffffffffffffffffffffff1673ffffffffffffffffffffffffffffffffffffffff168152602001908152602001600020549050919050565b6060600a805480602002602001604051908101604052809291908181526020016000905b8282101561117e5783829060005260206000200180546110f190613648565b80601f016020809104026020016040519081016040528092919081815260200182805461111d90613648565b801561116a5780601f1061113f5761010080835404028352916020019161116a565b820191906000526020600020905b81548152906001019060200180831161114d57829003601f168201915b5050505050815260200190600101906110d2565b50505050905090565b7f5f1d1e303f9c0a1801dd708bdc4239781d66c88ca6cb941c5769ba09b5c1b2856111b9816111b46118c4565b611985565b6111e37fae4a0595970935aa5495afbbb72e5f1f6ff1062766b4a3028c0c9b7d5cf7e345836115ec565b5050565b7fae4a0595970935aa5495afbbb72e5f1f6ff1062766b4a3028c0c9b7d5cf7e34581565b7f5f1d1e303f9c0a1801dd708bdc4239781d66c88ca6cb941c5769ba09b5c1b28561123d816112386118c4565b611985565b6112677f5f1d1e303f9c0a1801dd708bdc4239781d66c88ca6cb941c5769ba09b5c1b28583610c78565b6112746000801b83610c78565b6112816000801b33610d01565b6112ab7f5f1d1e303f9c0a1801dd708bdc4239781d66c88ca6cb941c5769ba09b5c1b28533610d01565b5050565b60006112d68260076000868152602001908152602001600020611cd890919063ffffffff16565b905092915050565b60006006600084815260200190815260200160002060000160008373ffffffffffffffffffffffffffffffffffffffff1673ffffffffffffffffffffffffffffffffffffffff16815260200190815260200160002060009054906101000a900460ff16905092915050565b60606001805461135890613648565b80601f016020809104026020016040519081016040528092919081815260200182805461138490613648565b80156113d15780601f106113a6576101008083540402835291602001916113d1565b820191906000526020600020905b8154815290600101906020018083116113b457829003601f168201915b5050505050905090565b7fe7837d04f36ce0b2f3cc662bf1b2b632a7fbd12ae95199e8bd3dcfbcc440b66b81565b6000801b81565b6114186114116118c4565b8383611cf2565b5050565b7f4758f7d70d6088cbfad5c79861ac6457ba2af02adf5ea419e97879ae24459cb681565b600073ffffffffffffffffffffffffffffffffffffffff163373ffffffffffffffffffffffffffffffffffffffff16146114af576040517f08c379a00000000000000000000000000000000000000000000000000000000081526004016114a690613a5f565b60405180910390fd5b6114bb84848484611e5f565b50505050565b60606114cc82611858565b61150b576040517f08c379a000000000000000000000000000000000000000000000000000000000815260040161150290613ca7565b60405180910390fd5b6000611515611ec1565b905060008151116115355760405180602001604052806000815250611560565b8061153f84611ed8565b604051602001611550929190613cc7565b6040516020818303038152906040525b915050919050565b7f5f1d1e303f9c0a1801dd708bdc4239781d66c88ca6cb941c5769ba09b5c1b28561159a816115956118c4565b611985565b6115c47f36a5c4aaacb6b388bbd448bf11096b7dafc5652bcc9046084fd0e95b1fb0b2cc83610c78565b5050565b60006115e560076000848152602001908152602001600020612039565b9050919050565b6115f582610c34565b611606816116016118c4565b611985565b6116108383611c84565b505050565b6000600560008473ffffffffffffffffffffffffffffffffffffffff1673ffffffffffffffffffffffffffffffffffffffff16815260200190815260200160002060008373ffffffffffffffffffffffffffffffffffffffff1673ffffffffffffffffffffffffffffffffffffffff16815260200190815260200160002060009054906101000a900460ff16905092915050565b7f36a5c4aaacb6b388bbd448bf11096b7dafc5652bcc9046084fd0e95b1fb0b2cc81565b6116d782826112de565b6117aa5760016006600084815260200190815260200160002060000160008373ffffffffffffffffffffffffffffffffffffffff1673ffffffffffffffffffffffffffffffffffffffff16815260200190815260200160002060006101000a81548160ff02191690831515021790555061174f6118c4565b73ffffffffffffffffffffffffffffffffffffffff168173ffffffffffffffffffffffffffffffffffffffff16837f2f8788117e7eff1d82e926ec794901d17c78024a50270940304540a733656f0d60405160405180910390a45b5050565b60006117d6836000018373ffffffffffffffffffffffffffffffffffffffff1660001b61204e565b905092915050565b60007f5a05180f000000000000000000000000000000000000000000000000000000007bffffffffffffffffffffffffffffffffffffffffffffffffffffffff1916827bffffffffffffffffffffffffffffffffffffffffffffffffffffffff191614806118515750611850826120be565b5b9050919050565b60008073ffffffffffffffffffffffffffffffffffffffff166002600084815260200190815260200160002060009054906101000a900473ffffffffffffffffffffffffffffffffffffffff1673ffffffffffffffffffffffffffffffffffffffff1614159050919050565b600033905090565b816004600083815260200190815260200160002060006101000a81548173ffffffffffffffffffffffffffffffffffffffff021916908373ffffffffffffffffffffffffffffffffffffffff160217905550808273ffffffffffffffffffffffffffffffffffffffff1661193f83610f20565b73ffffffffffffffffffffffffffffffffffffffff167f8c5be1e5ebec7d5bd14f71427d1e84f3dd0314c0f7b2291e5b200ac8c7c3b92560405160405180910390a45050565b61198f82826112de565b611a1e576119b48173ffffffffffffffffffffffffffffffffffffffff166014612138565b6119c28360001c6020612138565b6040516020016119d3929190613d83565b6040516020818303038152906040526040517f08c379a0000000000000000000000000000000000000000000000000000000008152600401611a159190612e86565b60405180910390fd5b5050565b600073ffffffffffffffffffffffffffffffffffffffff168273ffffffffffffffffffffffffffffffffffffffff161415611a92576040517f08c379a0000000000000000000000000000000000000000000000000000000008152600401611a8990613e09565b60405180910390fd5b611a9b81611858565b15611adb576040517f08c379a0000000000000000000000000000000000000000000000000000000008152600401611ad290613e75565b60405180910390fd5b611ae760008383612374565b6001600360008473ffffffffffffffffffffffffffffffffffffffff1673ffffffffffffffffffffffffffffffffffffffff1681526020019081526020016000206000828254611b379190613ec4565b92505081905550816002600083815260200190815260200160002060006101000a81548173ffffffffffffffffffffffffffffffffffffffff021916908373ffffffffffffffffffffffffffffffffffffffff160217905550808273ffffffffffffffffffffffffffffffffffffffff16600073ffffffffffffffffffffffffffffffffffffffff167fddf252ad1be2c89b69c2b068fc378daa952ba7f163c4a11628f55a4df523b3ef60405160405180910390a45050565b611c01611bfb6118c4565b82612379565b611c40576040517f08c379a0000000000000000000000000000000000000000000000000000000008152600401611c3790613f8c565b60405180910390fd5b611c4b838383612457565b505050565b611c5a82826116cd565b611c7f81600760008581526020019081526020016000206117ae90919063ffffffff16565b505050565b611c8e82826126b3565b611cb3816007600085815260200190815260200160002061279590919063ffffffff16565b505050565b611cd383838360405180602001604052806000815250611440565b505050565b6000611ce783600001836127c5565b60001c905092915050565b8173ffffffffffffffffffffffffffffffffffffffff168373ffffffffffffffffffffffffffffffffffffffff161415611d61576040517f08c379a0000000000000000000000000000000000000000000000000000000008152600401611d5890613ff8565b60405180910390fd5b80600560008573ffffffffffffffffffffffffffffffffffffffff1673ffffffffffffffffffffffffffffffffffffffff16815260200190815260200160002060008473ffffffffffffffffffffffffffffffffffffffff1673ffffffffffffffffffffffffffffffffffffffff16815260200190815260200160002060006101000a81548160ff0219169083151502179055508173ffffffffffffffffffffffffffffffffffffffff168373ffffffffffffffffffffffffffffffffffffffff167f17307eab39ab6107e8899845ad3d59bd9653f200f220920489ca2b5937696c3183604051611e529190612dd2565b60405180910390a3505050565b611e70611e6a6118c4565b83612379565b611eaf576040517f08c379a0000000000000000000000000000000000000000000000000000000008152600401611ea690613f8c565b60405180910390fd5b611ebb848484846127f0565b50505050565b606060405180602001604052806000815250905090565b60606000821415611f20576040518060400160405280600181526020017f30000000000000000000000000000000000000000000000000000000000000008152509050612034565b600082905060005b60008214611f52578080611f3b90614018565b915050600a82611f4b9190614090565b9150611f28565b60008167ffffffffffffffff811115611f6e57611f6d612fdd565b5b6040519080825280601f01601f191660200182016040528015611fa05781602001600182028036833780820191505090505b5090505b6000851461202d57600182611fb991906140c1565b9150600a85611fc891906140f5565b6030611fd49190613ec4565b60f81b818381518110611fea57611fe9614126565b5b60200101907effffffffffffffffffffffffffffffffffffffffffffffffffffffffffffff1916908160001a905350600a856120269190614090565b9450611fa4565b8093505050505b919050565b60006120478260000161284c565b9050919050565b600061205a838361285d565b6120b35782600001829080600181540180825580915050600190039060005260206000200160009091909190915055826000018054905083600101600084815260200190815260200160002081905550600190506120b8565b600090505b92915050565b60007f7965db0b000000000000000000000000000000000000000000000000000000007bffffffffffffffffffffffffffffffffffffffffffffffffffffffff1916827bffffffffffffffffffffffffffffffffffffffffffffffffffffffff19161480612131575061213082612880565b5b9050919050565b60606000600283600261214b9190614155565b6121559190613ec4565b67ffffffffffffffff81111561216e5761216d612fdd565b5b6040519080825280601f01601f1916602001820160405280156121a05781602001600182028036833780820191505090505b5090507f3000000000000000000000000000000000000000000000000000000000000000816000815181106121d8576121d7614126565b5b60200101907effffffffffffffffffffffffffffffffffffffffffffffffffffffffffffff1916908160001a9053507f78000000000000000000000000000000000000000000000000000000000000008160018151811061223c5761223b614126565b5b60200101907effffffffffffffffffffffffffffffffffffffffffffffffffffffffffffff1916908160001a9053506000600184600261227c9190614155565b6122869190613ec4565b90505b6001811115612326577f3031323334353637383961626364656600000000000000000000000000000000600f8616601081106122c8576122c7614126565b5b1a60f81b8282815181106122df576122de614126565b5b60200101907effffffffffffffffffffffffffffffffffffffffffffffffffffffffffffff1916908160001a905350600485901c94508061231f906141af565b9050612289565b506000841461236a576040517f08c379a000000000000000000000000000000000000000000000000000000000815260040161236190614225565b60405180910390fd5b8091505092915050565b505050565b600061238482611858565b6123c3576040517f08c379a00000000000000000000000000000000000000000000000000000000081526004016123ba906142b7565b60405180910390fd5b60006123ce83610f20565b90508073ffffffffffffffffffffffffffffffffffffffff168473ffffffffffffffffffffffffffffffffffffffff16148061243d57508373ffffffffffffffffffffffffffffffffffffffff166124258461076a565b73ffffffffffffffffffffffffffffffffffffffff16145b8061244e575061244d8185611615565b5b91505092915050565b8273ffffffffffffffffffffffffffffffffffffffff1661247782610f20565b73ffffffffffffffffffffffffffffffffffffffff16146124cd576040517f08c379a00000000000000000000000000000000000000000000000000000000081526004016124c490614349565b60405180910390fd5b600073ffffffffffffffffffffffffffffffffffffffff168273ffffffffffffffffffffffffffffffffffffffff16141561253d576040517f08c379a0000000000000000000000000000000000000000000000000000000008152600401612534906143db565b60405180910390fd5b612548838383612374565b6125536000826118cc565b6001600360008573ffffffffffffffffffffffffffffffffffffffff1673ffffffffffffffffffffffffffffffffffffffff16815260200190815260200160002060008282546125a391906140c1565b925050819055506001600360008473ffffffffffffffffffffffffffffffffffffffff1673ffffffffffffffffffffffffffffffffffffffff16815260200190815260200160002060008282546125fa9190613ec4565b92505081905550816002600083815260200190815260200160002060006101000a81548173ffffffffffffffffffffffffffffffffffffffff021916908373ffffffffffffffffffffffffffffffffffffffff160217905550808273ffffffffffffffffffffffffffffffffffffffff168473ffffffffffffffffffffffffffffffffffffffff167fddf252ad1be2c89b69c2b068fc378daa952ba7f163c4a11628f55a4df523b3ef60405160405180910390a4505050565b6126bd82826112de565b156127915760006006600084815260200190815260200160002060000160008373ffffffffffffffffffffffffffffffffffffffff1673ffffffffffffffffffffffffffffffffffffffff16815260200190815260200160002060006101000a81548160ff0219169083151502179055506127366118c4565b73ffffffffffffffffffffffffffffffffffffffff168173ffffffffffffffffffffffffffffffffffffffff16837ff6391f5c32d9c69d2a47ea670b442974b53935d1edc7fd64eb21e047a839171b60405160405180910390a45b5050565b60006127bd836000018373ffffffffffffffffffffffffffffffffffffffff1660001b612962565b905092915050565b60008260000182815481106127dd576127dc614126565b5b9060005260206000200154905092915050565b6127fb848484612457565b61280784848484612a76565b612846576040517f08c379a000000000000000000000000000000000000000000000000000000000815260040161283d9061446d565b60405180910390fd5b50505050565b600081600001805490509050919050565b600080836001016000848152602001908152602001600020541415905092915050565b60007f80ac58cd000000000000000000000000000000000000000000000000000000007bffffffffffffffffffffffffffffffffffffffffffffffffffffffff1916827bffffffffffffffffffffffffffffffffffffffffffffffffffffffff1916148061294b57507f5b5e139f000000000000000000000000000000000000000000000000000000007bffffffffffffffffffffffffffffffffffffffffffffffffffffffff1916827bffffffffffffffffffffffffffffffffffffffffffffffffffffffff1916145b8061295b575061295a82612bfe565b5b9050919050565b60008083600101600084815260200190815260200160002054905060008114612a6a57600060018261299491906140c1565b90506000600186600001805490506129ac91906140c1565b9050818114612a1b5760008660000182815481106129cd576129cc614126565b5b90600052602060002001549050808760000184815481106129f1576129f0614126565b5b90600052602060002001819055508387600101600083815260200190815260200160002081905550505b85600001805480612a2f57612a2e61448d565b5b600190038181906000526020600020016000905590558560010160008681526020019081526020016000206000905560019350505050612a70565b60009150505b92915050565b6000612a978473ffffffffffffffffffffffffffffffffffffffff16612c68565b15612bf1578373ffffffffffffffffffffffffffffffffffffffff1663150b7a02612ac06118c4565b8786866040518563ffffffff1660e01b8152600401612ae29493929190614511565b6020604051808303816000875af1925050508015612b1e57506040513d601f19601f82011682018060405250810190612b1b9190614572565b60015b612ba1573d8060008114612b4e576040519150601f19603f3d011682016040523d82523d6000602084013e612b53565b606091505b50600081511415612b99576040517f08c379a0000000000000000000000000000000000000000000000000000000008152600401612b909061446d565b60405180910390fd5b805181602001fd5b63150b7a0260e01b7bffffffffffffffffffffffffffffffffffffffffffffffffffffffff1916817bffffffffffffffffffffffffffffffffffffffffffffffffffffffff191614915050612bf6565b600190505b949350505050565b60007f01ffc9a7000000000000000000000000000000000000000000000000000000007bffffffffffffffffffffffffffffffffffffffffffffffffffffffff1916827bffffffffffffffffffffffffffffffffffffffffffffffffffffffff1916149050919050565b600080823b905060008111915050919050565b828054612c8790613648565b90600052602060002090601f016020900481019282612ca95760008555612cf0565b82601f10612cc257805160ff1916838001178555612cf0565b82800160010185558215612cf0579182015b82811115612cef578251825591602001919060010190612cd4565b5b509050612cfd9190612d01565b5090565b5b80821115612d1a576000816000905550600101612d02565b5090565b6000604051905090565b600080fd5b600080fd5b60007fffffffff0000000000000000000000000000000000000000000000000000000082169050919050565b612d6781612d32565b8114612d7257600080fd5b50565b600081359050612d8481612d5e565b92915050565b600060208284031215612da057612d9f612d28565b5b6000612dae84828501612d75565b91505092915050565b60008115159050919050565b612dcc81612db7565b82525050565b6000602082019050612de76000830184612dc3565b92915050565b600081519050919050565b600082825260208201905092915050565b60005b83811015612e27578082015181840152602081019050612e0c565b83811115612e36576000848401525b50505050565b6000601f19601f8301169050919050565b6000612e5882612ded565b612e628185612df8565b9350612e72818560208601612e09565b612e7b81612e3c565b840191505092915050565b60006020820190508181036000830152612ea08184612e4d565b905092915050565b6000819050919050565b612ebb81612ea8565b8114612ec657600080fd5b50565b600081359050612ed881612eb2565b92915050565b600060208284031215612ef457612ef3612d28565b5b6000612f0284828501612ec9565b91505092915050565b600073ffffffffffffffffffffffffffffffffffffffff82169050919050565b6000612f3682612f0b565b9050919050565b612f4681612f2b565b82525050565b6000602082019050612f616000830184612f3d565b92915050565b612f7081612f2b565b8114612f7b57600080fd5b50565b600081359050612f8d81612f67565b92915050565b60008060408385031215612faa57612fa9612d28565b5b6000612fb885828601612f7e565b9250506020612fc985828601612ec9565b9150509250929050565b600080fd5b600080fd5b7f4e487b7100000000000000000000000000000000000000000000000000000000600052604160045260246000fd5b61301582612e3c565b810181811067ffffffffffffffff8211171561303457613033612fdd565b5b80604052505050565b6000613047612d1e565b9050613053828261300c565b919050565b600067ffffffffffffffff82111561307357613072612fdd565b5b61307c82612e3c565b9050602081019050919050565b82818337600083830152505050565b60006130ab6130a684613058565b61303d565b9050828152602081018484840111156130c7576130c6612fd8565b5b6130d2848285613089565b509392505050565b600082601f8301126130ef576130ee612fd3565b5b81356130ff848260208601613098565b91505092915050565b6000806040838503121561311f5761311e612d28565b5b600083013567ffffffffffffffff81111561313d5761313c612d2d565b5b613149858286016130da565b925050602061315a85828601612f7e565b9150509250929050565b60008060006060848603121561317d5761317c612d28565b5b600061318b86828701612f7e565b935050602061319c86828701612f7e565b92505060406131ad86828701612ec9565b9150509250925092565b6000819050919050565b6131ca816131b7565b81146131d557600080fd5b50565b6000813590506131e7816131c1565b92915050565b60006020828403121561320357613202612d28565b5b6000613211848285016131d8565b91505092915050565b613223816131b7565b82525050565b600060208201905061323e600083018461321a565b92915050565b6000806040838503121561325b5761325a612d28565b5b6000613269858286016131d8565b925050602061327a85828601612f7e565b9150509250929050565b60006020828403121561329a57613299612d28565b5b60006132a884828501612f7e565b91505092915050565b6132ba81612ea8565b82525050565b60006020820190506132d560008301846132b1565b92915050565b600081519050919050565b600082825260208201905092915050565b6000819050602082019050919050565b600082825260208201905092915050565b600061332382612ded565b61332d8185613307565b935061333d818560208601612e09565b61334681612e3c565b840191505092915050565b600061335d8383613318565b905092915050565b6000602082019050919050565b600061337d826132db565b61338781856132e6565b935083602082028501613399856132f7565b8060005b858110156133d557848403895281516133b68582613351565b94506133c183613365565b925060208a0199505060018101905061339d565b50829750879550505050505092915050565b600060208201905081810360008301526134018184613372565b905092915050565b600080604083850312156134205761341f612d28565b5b600061342e858286016131d8565b925050602061343f85828601612ec9565b9150509250929050565b61345281612db7565b811461345d57600080fd5b50565b60008135905061346f81613449565b92915050565b6000806040838503121561348c5761348b612d28565b5b600061349a85828601612f7e565b92505060206134ab85828601613460565b9150509250929050565b600067ffffffffffffffff8211156134d0576134cf612fdd565b5b6134d982612e3c565b9050602081019050919050565b60006134f96134f4846134b5565b61303d565b90508281526020810184848401111561351557613514612fd8565b5b613520848285613089565b509392505050565b600082601f83011261353d5761353c612fd3565b5b813561354d8482602086016134e6565b91505092915050565b600080600080608085870312156135705761356f612d28565b5b600061357e87828801612f7e565b945050602061358f87828801612f7e565b93505060406135a087828801612ec9565b925050606085013567ffffffffffffffff8111156135c1576135c0612d2d565b5b6135cd87828801613528565b91505092959194509250565b600080604083850312156135f0576135ef612d28565b5b60006135fe85828601612f7e565b925050602061360f85828601612f7e565b9150509250929050565b7f4e487b7100000000000000000000000000000000000000000000000000000000600052602260045260246000fd5b6000600282049050600182168061366057607f821691505b6020821081141561367457613673613619565b5b50919050565b7f4552433732313a20617070726f76656420717565727920666f72206e6f6e657860008201527f697374656e7420746f6b656e0000000000000000000000000000000000000000602082015250565b60006136d6602c83612df8565b91506136e18261367a565b604082019050919050565b60006020820190508181036000830152613705816136c9565b9050919050565b7f4552433732313a20617070726f76616c20746f2063757272656e74206f776e6560008201527f7200000000000000000000000000000000000000000000000000000000000000602082015250565b6000613768602183612df8565b91506137738261370c565b604082019050919050565b600060208201905081810360008301526137978161375b565b9050919050565b7f4552433732313a20617070726f76652063616c6c6572206973206e6f74206f7760008201527f6e6572206e6f7220617070726f76656420666f7220616c6c0000000000000000602082015250565b60006137fa603883612df8565b91506138058261379e565b604082019050919050565b60006020820190508181036000830152613829816137ed565b9050919050565b600081905092915050565b600061384682612ded565b6138508185613830565b9350613860818560208601612e09565b80840191505092915050565b6000613878828461383b565b915081905092915050565b7f54686973206c696e6b20697320616c7265616479206d696e7465640000000000600082015250565b60006138b9601b83612df8565b91506138c482613883565b602082019050919050565b600060208201905081810360008301526138e8816138ac565b9050919050565b7f5468697320677261647561746520616c7265616479206861732061204469706c60008201527f6f6d610000000000000000000000000000000000000000000000000000000000602082015250565b600061394b602383612df8565b9150613956826138ef565b604082019050919050565b6000602082019050818103600083015261397a8161393e565b9050919050565b7f546869732061646472657373206973206e6f7420612073747564656e74000000600082015250565b60006139b7601d83612df8565b91506139c282613981565b602082019050919050565b600060208201905081810360008301526139e6816139aa565b9050919050565b7f5472616e73666572206166746572206d696e742069732070726f68696269746560008201527f6400000000000000000000000000000000000000000000000000000000000000602082015250565b6000613a49602183612df8565b9150613a54826139ed565b604082019050919050565b60006020820190508181036000830152613a7881613a3c565b9050919050565b7f416363657373436f6e74726f6c3a2063616e206f6e6c792072656e6f756e636560008201527f20726f6c657320666f722073656c660000000000000000000000000000000000602082015250565b6000613adb602f83612df8565b9150613ae682613a7f565b604082019050919050565b60006020820190508181036000830152613b0a81613ace565b9050919050565b7f4552433732313a206f776e657220717565727920666f72206e6f6e657869737460008201527f656e7420746f6b656e0000000000000000000000000000000000000000000000602082015250565b6000613b6d602983612df8565b9150613b7882613b11565b604082019050919050565b60006020820190508181036000830152613b9c81613b60565b9050919050565b7f4552433732313a2062616c616e636520717565727920666f7220746865207a6560008201527f726f206164647265737300000000000000000000000000000000000000000000602082015250565b6000613bff602a83612df8565b9150613c0a82613ba3565b604082019050919050565b60006020820190508181036000830152613c2e81613bf2565b9050919050565b7f4552433732314d657461646174613a2055524920717565727920666f72206e6f60008201527f6e6578697374656e7420746f6b656e0000000000000000000000000000000000602082015250565b6000613c91602f83612df8565b9150613c9c82613c35565b604082019050919050565b60006020820190508181036000830152613cc081613c84565b9050919050565b6000613cd3828561383b565b9150613cdf828461383b565b91508190509392505050565b7f416363657373436f6e74726f6c3a206163636f756e7420000000000000000000600082015250565b6000613d21601783613830565b9150613d2c82613ceb565b601782019050919050565b7f206973206d697373696e6720726f6c6520000000000000000000000000000000600082015250565b6000613d6d601183613830565b9150613d7882613d37565b601182019050919050565b6000613d8e82613d14565b9150613d9a828561383b565b9150613da582613d60565b9150613db1828461383b565b91508190509392505050565b7f4552433732313a206d696e7420746f20746865207a65726f2061646472657373600082015250565b6000613df3602083612df8565b9150613dfe82613dbd565b602082019050919050565b60006020820190508181036000830152613e2281613de6565b9050919050565b7f4552433732313a20746f6b656e20616c7265616479206d696e74656400000000600082015250565b6000613e5f601c83612df8565b9150613e6a82613e29565b602082019050919050565b60006020820190508181036000830152613e8e81613e52565b9050919050565b7f4e487b7100000000000000000000000000000000000000000000000000000000600052601160045260246000fd5b6000613ecf82612ea8565b9150613eda83612ea8565b9250827fffffffffffffffffffffffffffffffffffffffffffffffffffffffffffffffff03821115613f0f57613f0e613e95565b5b828201905092915050565b7f4552433732313a207472616e736665722063616c6c6572206973206e6f74206f60008201527f776e6572206e6f7220617070726f766564000000000000000000000000000000602082015250565b6000613f76603183612df8565b9150613f8182613f1a565b604082019050919050565b60006020820190508181036000830152613fa581613f69565b9050919050565b7f4552433732313a20617070726f766520746f2063616c6c657200000000000000600082015250565b6000613fe2601983612df8565b9150613fed82613fac565b602082019050919050565b6000602082019050818103600083015261401181613fd5565b9050919050565b600061402382612ea8565b91507fffffffffffffffffffffffffffffffffffffffffffffffffffffffffffffffff82141561405657614055613e95565b5b600182019050919050565b7f4e487b7100000000000000000000000000000000000000000000000000000000600052601260045260246000fd5b600061409b82612ea8565b91506140a683612ea8565b9250826140b6576140b5614061565b5b828204905092915050565b60006140cc82612ea8565b91506140d783612ea8565b9250828210156140ea576140e9613e95565b5b828203905092915050565b600061410082612ea8565b915061410b83612ea8565b92508261411b5761411a614061565b5b828206905092915050565b7f4e487b7100000000000000000000000000000000000000000000000000000000600052603260045260246000fd5b600061416082612ea8565b915061416b83612ea8565b9250817fffffffffffffffffffffffffffffffffffffffffffffffffffffffffffffffff04831182151516156141a4576141a3613e95565b5b828202905092915050565b60006141ba82612ea8565b915060008214156141ce576141cd613e95565b5b600182039050919050565b7f537472696e67733a20686578206c656e67746820696e73756666696369656e74600082015250565b600061420f602083612df8565b915061421a826141d9565b602082019050919050565b6000602082019050818103600083015261423e81614202565b9050919050565b7f4552433732313a206f70657261746f7220717565727920666f72206e6f6e657860008201527f697374656e7420746f6b656e0000000000000000000000000000000000000000602082015250565b60006142a1602c83612df8565b91506142ac82614245565b604082019050919050565b600060208201905081810360008301526142d081614294565b9050919050565b7f4552433732313a207472616e73666572206f6620746f6b656e2074686174206960008201527f73206e6f74206f776e0000000000000000000000000000000000000000000000602082015250565b6000614333602983612df8565b915061433e826142d7565b604082019050919050565b6000602082019050818103600083015261436281614326565b9050919050565b7f4552433732313a207472616e7366657220746f20746865207a65726f2061646460008201527f7265737300000000000000000000000000000000000000000000000000000000602082015250565b60006143c5602483612df8565b91506143d082614369565b604082019050919050565b600060208201905081810360008301526143f4816143b8565b9050919050565b7f4552433732313a207472616e7366657220746f206e6f6e20455243373231526560008201527f63656976657220696d706c656d656e7465720000000000000000000000000000602082015250565b6000614457603283612df8565b9150614462826143fb565b604082019050919050565b600060208201905081810360008301526144868161444a565b9050919050565b7f4e487b7100000000000000000000000000000000000000000000000000000000600052603160045260246000fd5b600081519050919050565b600082825260208201905092915050565b60006144e3826144bc565b6144ed81856144c7565b93506144fd818560208601612e09565b61450681612e3c565b840191505092915050565b60006080820190506145266000830187612f3d565b6145336020830186612f3d565b61454060408301856132b1565b818103606083015261455281846144d8565b905095945050505050565b60008151905061456c81612d5e565b92915050565b60006020828403121561458857614587612d28565b5b60006145968482850161455d565b9150509291505056fea26469706673582212206f2b14581114a1f979f80e86ceb8d3e9b1f462fc299cc43c6ef99cfd26b193ec64736f6c634300080a0033",
  "immutableReferences": {},
  "source": "pragma solidity ^0.8.10;\r\n\r\nimport \"@openzeppelin/contracts/token/ERC721/ERC721.sol\";\r\nimport \"./Roles.sol\";\r\n\r\ncontract Diploma is ERC721, Roles {\r\n\r\n    //Mapping owner to the tokenID\r\n    mapping(address => uint256) _hasCertificate;\r\n    //Mapping tokenID to the owner is defined in ERC721.sol as ownerOf\r\n    //is Diploma link exist\r\n    mapping(string => bool) _diplomaExist;\r\n    //List of Diploma Links\r\n    string[] _diplomaLinks;\r\n\r\n    constructor() ERC721(\"Diploma\", \"DPLM\"){\r\n        _setupRole(DEFAULT_ADMIN_ROLE, msg.sender);\r\n        _setupRole(RECTOR_ROLE, msg.sender);\r\n    }\r\n\r\n    function mint(string memory _diplomaLink, address graduatedAddress) public onlyRole(RECTOR_ROLE){\r\n        require(!_diplomaExist[_diplomaLink], \"This link is already minted\");\r\n        require(_hasCertificate[graduatedAddress] == 0, \"This graduate already has a Diploma\");\r\n        require(hasRole(STUDENT_ROLE, graduatedAddress), \"This address is not a student\");\r\n        revokeRole(STUDENT_ROLE, graduatedAddress);\r\n        grantRole(GRADUATED_ROLE, graduatedAddress);\r\n        //diplomaLinks - add\r\n        _diplomaLinks.push(_diplomaLink);\r\n        uint _id = _diplomaLinks.length; //tokenID's start from 1 because default uint256 value is 0\r\n        //Call mint of ERC721\r\n        _mint(graduatedAddress, _id);\r\n        //Trace it\r\n        _diplomaExist[_diplomaLink] = true;\r\n        _hasCertificate[graduatedAddress] = _id;\r\n    }\r\n    function getDiplomaLinks() public view returns(string[] memory diplomaLinks){\r\n        return _diplomaLinks;\r\n    }\r\n\r\n    //TODO Contract Owner can make mistakes when minting. Token should be somewhat editable for contract owner\r\n    function transferFrom(//Only callable when minted\r\n        address from,\r\n        address to,\r\n        uint256 tokenId\r\n    ) public virtual override {\r\n        require(msg.sender == 0x0000000000000000000000000000000000000000, \"Transfer after mint is prohibited\");\r\n        super.transferFrom(from,to,tokenId);\r\n    }\r\n    function safeTransferFrom(//Only callable when minted\r\n        address from,\r\n        address to,\r\n        uint256 tokenId\r\n    ) public virtual override {\r\n        require(msg.sender == 0x0000000000000000000000000000000000000000, \"Transfer after mint is prohibited\");\r\n        super.safeTransferFrom(from,to,tokenId);\r\n    }\r\n    function safeTransferFrom(//Only callable when minted\r\n        address from,\r\n        address to,\r\n        uint256 tokenId,\r\n        bytes memory _data\r\n    ) public virtual override {\r\n        require(msg.sender == 0x0000000000000000000000000000000000000000, \"Transfer after mint is prohibited\");\r\n        super.safeTransferFrom(from, to, tokenId, _data);\r\n    }\r\n    function supportsInterface(bytes4 interfaceId) public view virtual override(ERC721, AccessControlEnumerable) returns (bool) {\r\n        return super.supportsInterface(interfaceId);\r\n    }\r\n\r\n}\r\n",
  "sourcePath": "C:\\Users\\asus\\Desktop\\Dersler\\CMPE492\\certification-project\\contracts\\Diploma.sol",
  "compiler": {
    "name": "solc",
    "version": "0.8.10+commit.fc410830.Emscripten.clang"
  },
  "schemaVersion": "3.4.4",
  "updatedAt": "2022-01-11T23:00:58.713Z",
  "networkType": "ethereum",
  "devdoc": {
    "kind": "dev",
    "methods": {
      "approve(address,uint256)": {
        "details": "See {IERC721-approve}."
      },
      "balanceOf(address)": {
        "details": "See {IERC721-balanceOf}."
      },
      "getApproved(uint256)": {
        "details": "See {IERC721-getApproved}."
      },
      "getRoleAdmin(bytes32)": {
        "details": "Returns the admin role that controls `role`. See {grantRole} and {revokeRole}. To change a role's admin, use {_setRoleAdmin}."
      },
      "getRoleMember(bytes32,uint256)": {
        "details": "Returns one of the accounts that have `role`. `index` must be a value between 0 and {getRoleMemberCount}, non-inclusive. Role bearers are not sorted in any particular way, and their ordering may change at any point. WARNING: When using {getRoleMember} and {getRoleMemberCount}, make sure you perform all queries on the same block. See the following https://forum.openzeppelin.com/t/iterating-over-elements-on-enumerableset-in-openzeppelin-contracts/2296[forum post] for more information."
      },
      "getRoleMemberCount(bytes32)": {
        "details": "Returns the number of accounts that have `role`. Can be used together with {getRoleMember} to enumerate all bearers of a role."
      },
      "grantRole(bytes32,address)": {
        "details": "Grants `role` to `account`. If `account` had not been already granted `role`, emits a {RoleGranted} event. Requirements: - the caller must have ``role``'s admin role."
      },
      "hasRole(bytes32,address)": {
        "details": "Returns `true` if `account` has been granted `role`."
      },
      "isApprovedForAll(address,address)": {
        "details": "See {IERC721-isApprovedForAll}."
      },
      "name()": {
        "details": "See {IERC721Metadata-name}."
      },
      "ownerOf(uint256)": {
        "details": "See {IERC721-ownerOf}."
      },
      "renounceRole(bytes32,address)": {
        "details": "Revokes `role` from the calling account. Roles are often managed via {grantRole} and {revokeRole}: this function's purpose is to provide a mechanism for accounts to lose their privileges if they are compromised (such as when a trusted device is misplaced). If the calling account had been revoked `role`, emits a {RoleRevoked} event. Requirements: - the caller must be `account`."
      },
      "revokeRole(bytes32,address)": {
        "details": "Revokes `role` from `account`. If `account` had been granted `role`, emits a {RoleRevoked} event. Requirements: - the caller must have ``role``'s admin role."
      },
      "safeTransferFrom(address,address,uint256)": {
        "details": "See {IERC721-safeTransferFrom}."
      },
      "safeTransferFrom(address,address,uint256,bytes)": {
        "details": "See {IERC721-safeTransferFrom}."
      },
      "setApprovalForAll(address,bool)": {
        "details": "See {IERC721-setApprovalForAll}."
      },
      "symbol()": {
        "details": "See {IERC721Metadata-symbol}."
      },
      "tokenURI(uint256)": {
        "details": "See {IERC721Metadata-tokenURI}."
      },
      "transferFrom(address,address,uint256)": {
        "details": "See {IERC721-transferFrom}."
      }
    },
    "version": 1
  },
  "userdoc": {
    "kind": "user",
    "methods": {},
    "version": 1
  }
}