{
  "contractName": "Faculty",
  "abi": [
    {
      "inputs": [],
      "stateMutability": "nonpayable",
      "type": "constructor"
    },
    {
      "anonymous": false,
      "inputs": [
        {
          "indexed": true,
          "internalType": "address",
          "name": "owner",
          "type": "address"
        },
        {
          "indexed": true,
          "internalType": "address",
          "name": "approved",
          "type": "address"
        },
        {
          "indexed": true,
          "internalType": "uint256",
          "name": "tokenId",
          "type": "uint256"
        }
      ],
      "name": "Approval",
      "type": "event"
    },
    {
      "anonymous": false,
      "inputs": [
        {
          "indexed": true,
          "internalType": "address",
          "name": "owner",
          "type": "address"
        },
        {
          "indexed": true,
          "internalType": "address",
          "name": "operator",
          "type": "address"
        },
        {
          "indexed": false,
          "internalType": "bool",
          "name": "approved",
          "type": "bool"
        }
      ],
      "name": "ApprovalForAll",
      "type": "event"
    },
    {
      "anonymous": false,
      "inputs": [
        {
          "indexed": true,
          "internalType": "bytes32",
          "name": "role",
          "type": "bytes32"
        },
        {
          "indexed": true,
          "internalType": "bytes32",
          "name": "previousAdminRole",
          "type": "bytes32"
        },
        {
          "indexed": true,
          "internalType": "bytes32",
          "name": "newAdminRole",
          "type": "bytes32"
        }
      ],
      "name": "RoleAdminChanged",
      "type": "event"
    },
    {
      "anonymous": false,
      "inputs": [
        {
          "indexed": true,
          "internalType": "bytes32",
          "name": "role",
          "type": "bytes32"
        },
        {
          "indexed": true,
          "internalType": "address",
          "name": "account",
          "type": "address"
        },
        {
          "indexed": true,
          "internalType": "address",
          "name": "sender",
          "type": "address"
        }
      ],
      "name": "RoleGranted",
      "type": "event"
    },
    {
      "anonymous": false,
      "inputs": [
        {
          "indexed": true,
          "internalType": "bytes32",
          "name": "role",
          "type": "bytes32"
        },
        {
          "indexed": true,
          "internalType": "address",
          "name": "account",
          "type": "address"
        },
        {
          "indexed": true,
          "internalType": "address",
          "name": "sender",
          "type": "address"
        }
      ],
      "name": "RoleRevoked",
      "type": "event"
    },
    {
      "anonymous": false,
      "inputs": [
        {
          "indexed": true,
          "internalType": "address",
          "name": "from",
          "type": "address"
        },
        {
          "indexed": true,
          "internalType": "address",
          "name": "to",
          "type": "address"
        },
        {
          "indexed": true,
          "internalType": "uint256",
          "name": "tokenId",
          "type": "uint256"
        }
      ],
      "name": "Transfer",
      "type": "event"
    },
    {
      "anonymous": false,
      "inputs": [
        {
          "indexed": false,
          "internalType": "uint256",
          "name": "",
          "type": "uint256"
        }
      ],
      "name": "showUint",
      "type": "event"
    },
    {
      "inputs": [],
      "name": "DEFAULT_ADMIN_ROLE",
      "outputs": [
        {
          "internalType": "bytes32",
          "name": "",
          "type": "bytes32"
        }
      ],
      "stateMutability": "view",
      "type": "function",
      "constant": true
    },
    {
      "inputs": [],
      "name": "DEPARTMENT_ROLE",
      "outputs": [
        {
          "internalType": "bytes32",
          "name": "",
          "type": "bytes32"
        }
      ],
      "stateMutability": "view",
      "type": "function",
      "constant": true
    },
    {
      "inputs": [],
      "name": "FACULTY_ROLE",
      "outputs": [
        {
          "internalType": "bytes32",
          "name": "",
          "type": "bytes32"
        }
      ],
      "stateMutability": "view",
      "type": "function",
      "constant": true
    },
    {
      "inputs": [],
      "name": "GRADUATED_ROLE",
      "outputs": [
        {
          "internalType": "bytes32",
          "name": "",
          "type": "bytes32"
        }
      ],
      "stateMutability": "view",
      "type": "function",
      "constant": true
    },
    {
      "inputs": [],
      "name": "INSTRUCTOR_ROLE",
      "outputs": [
        {
          "internalType": "bytes32",
          "name": "",
          "type": "bytes32"
        }
      ],
      "stateMutability": "view",
      "type": "function",
      "constant": true
    },
    {
      "inputs": [],
      "name": "RECTOR_ROLE",
      "outputs": [
        {
          "internalType": "bytes32",
          "name": "",
          "type": "bytes32"
        }
      ],
      "stateMutability": "view",
      "type": "function",
      "constant": true
    },
    {
      "inputs": [],
      "name": "STUDENT_ROLE",
      "outputs": [
        {
          "internalType": "bytes32",
          "name": "",
          "type": "bytes32"
        }
      ],
      "stateMutability": "view",
      "type": "function",
      "constant": true
    },
    {
      "inputs": [
        {
          "internalType": "address",
          "name": "to",
          "type": "address"
        },
        {
          "internalType": "uint256",
          "name": "tokenId",
          "type": "uint256"
        }
      ],
      "name": "approve",
      "outputs": [],
      "stateMutability": "nonpayable",
      "type": "function"
    },
    {
      "inputs": [
        {
          "internalType": "address",
          "name": "owner",
          "type": "address"
        }
      ],
      "name": "balanceOf",
      "outputs": [
        {
          "internalType": "uint256",
          "name": "",
          "type": "uint256"
        }
      ],
      "stateMutability": "view",
      "type": "function",
      "constant": true
    },
    {
      "inputs": [
        {
          "internalType": "uint256",
          "name": "tokenId",
          "type": "uint256"
        }
      ],
      "name": "getApproved",
      "outputs": [
        {
          "internalType": "address",
          "name": "",
          "type": "address"
        }
      ],
      "stateMutability": "view",
      "type": "function",
      "constant": true
    },
    {
      "inputs": [],
      "name": "getDepartments",
      "outputs": [
        {
          "internalType": "address[]",
          "name": "",
          "type": "address[]"
        }
      ],
      "stateMutability": "view",
      "type": "function",
      "constant": true
    },
    {
      "inputs": [],
      "name": "getFaculties",
      "outputs": [
        {
          "internalType": "address[]",
          "name": "",
          "type": "address[]"
        }
      ],
      "stateMutability": "view",
      "type": "function",
      "constant": true
    },
    {
      "inputs": [],
      "name": "getGraduateds",
      "outputs": [
        {
          "internalType": "address[]",
          "name": "",
          "type": "address[]"
        }
      ],
      "stateMutability": "view",
      "type": "function",
      "constant": true
    },
    {
      "inputs": [],
      "name": "getInstructors",
      "outputs": [
        {
          "internalType": "address[]",
          "name": "",
          "type": "address[]"
        }
      ],
      "stateMutability": "view",
      "type": "function",
      "constant": true
    },
    {
      "inputs": [],
      "name": "getRector",
      "outputs": [
        {
          "internalType": "address",
          "name": "",
          "type": "address"
        }
      ],
      "stateMutability": "view",
      "type": "function",
      "constant": true
    },
    {
      "inputs": [
        {
          "internalType": "bytes32",
          "name": "role",
          "type": "bytes32"
        }
      ],
      "name": "getRoleAdmin",
      "outputs": [
        {
          "internalType": "bytes32",
          "name": "",
          "type": "bytes32"
        }
      ],
      "stateMutability": "view",
      "type": "function",
      "constant": true
    },
    {
      "inputs": [
        {
          "internalType": "bytes32",
          "name": "role",
          "type": "bytes32"
        },
        {
          "internalType": "uint256",
          "name": "index",
          "type": "uint256"
        }
      ],
      "name": "getRoleMember",
      "outputs": [
        {
          "internalType": "address",
          "name": "",
          "type": "address"
        }
      ],
      "stateMutability": "view",
      "type": "function",
      "constant": true
    },
    {
      "inputs": [
        {
          "internalType": "bytes32",
          "name": "role",
          "type": "bytes32"
        }
      ],
      "name": "getRoleMemberCount",
      "outputs": [
        {
          "internalType": "uint256",
          "name": "",
          "type": "uint256"
        }
      ],
      "stateMutability": "view",
      "type": "function",
      "constant": true
    },
    {
      "inputs": [],
      "name": "getStudents",
      "outputs": [
        {
          "internalType": "address[]",
          "name": "",
          "type": "address[]"
        }
      ],
      "stateMutability": "view",
      "type": "function",
      "constant": true
    },
    {
      "inputs": [
        {
          "internalType": "address",
          "name": "account",
          "type": "address"
        }
      ],
      "name": "grantDepartmentRole",
      "outputs": [],
      "stateMutability": "nonpayable",
      "type": "function"
    },
    {
      "inputs": [
        {
          "internalType": "address",
          "name": "account",
          "type": "address"
        }
      ],
      "name": "grantFacultyRole",
      "outputs": [],
      "stateMutability": "nonpayable",
      "type": "function"
    },
    {
      "inputs": [
        {
          "internalType": "address",
          "name": "account",
          "type": "address"
        }
      ],
      "name": "grantGraduatedRole",
      "outputs": [],
      "stateMutability": "nonpayable",
      "type": "function"
    },
    {
      "inputs": [
        {
          "internalType": "address",
          "name": "account",
          "type": "address"
        }
      ],
      "name": "grantInstructorRole",
      "outputs": [],
      "stateMutability": "nonpayable",
      "type": "function"
    },
    {
      "inputs": [
        {
          "internalType": "address",
          "name": "account",
          "type": "address"
        }
      ],
      "name": "grantRectorRole",
      "outputs": [],
      "stateMutability": "nonpayable",
      "type": "function"
    },
    {
      "inputs": [
        {
          "internalType": "bytes32",
          "name": "role",
          "type": "bytes32"
        },
        {
          "internalType": "address",
          "name": "account",
          "type": "address"
        }
      ],
      "name": "grantRole",
      "outputs": [],
      "stateMutability": "nonpayable",
      "type": "function"
    },
    {
      "inputs": [
        {
          "internalType": "address",
          "name": "account",
          "type": "address"
        }
      ],
      "name": "grantStudentRole",
      "outputs": [],
      "stateMutability": "nonpayable",
      "type": "function"
    },
    {
      "inputs": [
        {
          "internalType": "address",
          "name": "account",
          "type": "address"
        }
      ],
      "name": "hasDepartmentRole",
      "outputs": [
        {
          "internalType": "bool",
          "name": "",
          "type": "bool"
        }
      ],
      "stateMutability": "view",
      "type": "function",
      "constant": true
    },
    {
      "inputs": [
        {
          "internalType": "address",
          "name": "account",
          "type": "address"
        }
      ],
      "name": "hasFacultyRole",
      "outputs": [
        {
          "internalType": "bool",
          "name": "",
          "type": "bool"
        }
      ],
      "stateMutability": "view",
      "type": "function",
      "constant": true
    },
    {
      "inputs": [
        {
          "internalType": "address",
          "name": "account",
          "type": "address"
        }
      ],
      "name": "hasGraduatedRole",
      "outputs": [
        {
          "internalType": "bool",
          "name": "",
          "type": "bool"
        }
      ],
      "stateMutability": "view",
      "type": "function",
      "constant": true
    },
    {
      "inputs": [
        {
          "internalType": "address",
          "name": "account",
          "type": "address"
        }
      ],
      "name": "hasInstructorRole",
      "outputs": [
        {
          "internalType": "bool",
          "name": "",
          "type": "bool"
        }
      ],
      "stateMutability": "view",
      "type": "function",
      "constant": true
    },
    {
      "inputs": [
        {
          "internalType": "address",
          "name": "account",
          "type": "address"
        }
      ],
      "name": "hasRectorRole",
      "outputs": [
        {
          "internalType": "bool",
          "name": "",
          "type": "bool"
        }
      ],
      "stateMutability": "view",
      "type": "function",
      "constant": true
    },
    {
      "inputs": [
        {
          "internalType": "bytes32",
          "name": "role",
          "type": "bytes32"
        },
        {
          "internalType": "address",
          "name": "account",
          "type": "address"
        }
      ],
      "name": "hasRole",
      "outputs": [
        {
          "internalType": "bool",
          "name": "",
          "type": "bool"
        }
      ],
      "stateMutability": "view",
      "type": "function",
      "constant": true
    },
    {
      "inputs": [
        {
          "internalType": "address",
          "name": "account",
          "type": "address"
        }
      ],
      "name": "hasStudentRole",
      "outputs": [
        {
          "internalType": "bool",
          "name": "",
          "type": "bool"
        }
      ],
      "stateMutability": "view",
      "type": "function",
      "constant": true
    },
    {
      "inputs": [
        {
          "internalType": "address",
          "name": "owner",
          "type": "address"
        },
        {
          "internalType": "address",
          "name": "operator",
          "type": "address"
        }
      ],
      "name": "isApprovedForAll",
      "outputs": [
        {
          "internalType": "bool",
          "name": "",
          "type": "bool"
        }
      ],
      "stateMutability": "view",
      "type": "function",
      "constant": true
    },
    {
      "inputs": [],
      "name": "name",
      "outputs": [
        {
          "internalType": "string",
          "name": "",
          "type": "string"
        }
      ],
      "stateMutability": "view",
      "type": "function",
      "constant": true
    },
    {
      "inputs": [
        {
          "internalType": "uint256",
          "name": "tokenId",
          "type": "uint256"
        }
      ],
      "name": "ownerOf",
      "outputs": [
        {
          "internalType": "address",
          "name": "",
          "type": "address"
        }
      ],
      "stateMutability": "view",
      "type": "function",
      "constant": true
    },
    {
      "inputs": [
        {
          "internalType": "bytes32",
          "name": "role",
          "type": "bytes32"
        },
        {
          "internalType": "address",
          "name": "account",
          "type": "address"
        }
      ],
      "name": "renounceRole",
      "outputs": [],
      "stateMutability": "nonpayable",
      "type": "function"
    },
    {
      "inputs": [
        {
          "internalType": "address",
          "name": "account",
          "type": "address"
        }
      ],
      "name": "revokeDepartmentRole",
      "outputs": [],
      "stateMutability": "nonpayable",
      "type": "function"
    },
    {
      "inputs": [
        {
          "internalType": "address",
          "name": "account",
          "type": "address"
        }
      ],
      "name": "revokeFacultyRole",
      "outputs": [],
      "stateMutability": "nonpayable",
      "type": "function"
    },
    {
      "inputs": [
        {
          "internalType": "address",
          "name": "account",
          "type": "address"
        }
      ],
      "name": "revokeInstructorRole",
      "outputs": [],
      "stateMutability": "nonpayable",
      "type": "function"
    },
    {
      "inputs": [
        {
          "internalType": "bytes32",
          "name": "role",
          "type": "bytes32"
        },
        {
          "internalType": "address",
          "name": "account",
          "type": "address"
        }
      ],
      "name": "revokeRole",
      "outputs": [],
      "stateMutability": "nonpayable",
      "type": "function"
    },
    {
      "inputs": [
        {
          "internalType": "address",
          "name": "account",
          "type": "address"
        }
      ],
      "name": "revokeStudentRole",
      "outputs": [],
      "stateMutability": "nonpayable",
      "type": "function"
    },
    {
      "inputs": [
        {
          "internalType": "address",
          "name": "operator",
          "type": "address"
        },
        {
          "internalType": "bool",
          "name": "approved",
          "type": "bool"
        }
      ],
      "name": "setApprovalForAll",
      "outputs": [],
      "stateMutability": "nonpayable",
      "type": "function"
    },
    {
      "inputs": [],
      "name": "symbol",
      "outputs": [
        {
          "internalType": "string",
          "name": "",
          "type": "string"
        }
      ],
      "stateMutability": "view",
      "type": "function",
      "constant": true
    },
    {
      "inputs": [
        {
          "internalType": "uint256",
          "name": "tokenId",
          "type": "uint256"
        }
      ],
      "name": "tokenURI",
      "outputs": [
        {
          "internalType": "string",
          "name": "",
          "type": "string"
        }
      ],
      "stateMutability": "view",
      "type": "function",
      "constant": true
    },
    {
      "inputs": [
        {
          "internalType": "string",
          "name": "_facultyName",
          "type": "string"
        },
        {
          "internalType": "address",
          "name": "facultyAddress",
          "type": "address"
        }
      ],
      "name": "mint",
      "outputs": [],
      "stateMutability": "nonpayable",
      "type": "function"
    },
    {
      "inputs": [
        {
          "internalType": "string",
          "name": "_facultyName",
          "type": "string"
        }
      ],
      "name": "burn",
      "outputs": [],
      "stateMutability": "nonpayable",
      "type": "function"
    },
    {
      "inputs": [
        {
          "internalType": "uint256",
          "name": "id",
          "type": "uint256"
        }
      ],
      "name": "getFacultyName",
      "outputs": [
        {
          "internalType": "string",
          "name": "facultyName",
          "type": "string"
        }
      ],
      "stateMutability": "view",
      "type": "function",
      "constant": true
    },
    {
      "inputs": [
        {
          "internalType": "string",
          "name": "facultyName",
          "type": "string"
        }
      ],
      "name": "getFacultyID",
      "outputs": [
        {
          "internalType": "uint256",
          "name": "facultyID",
          "type": "uint256"
        }
      ],
      "stateMutability": "view",
      "type": "function",
      "constant": true
    },
    {
      "inputs": [],
      "name": "getTotalSupply",
      "outputs": [
        {
          "internalType": "uint256",
          "name": "totalSupply",
          "type": "uint256"
        }
      ],
      "stateMutability": "view",
      "type": "function",
      "constant": true
    },
    {
      "inputs": [
        {
          "internalType": "address",
          "name": "from",
          "type": "address"
        },
        {
          "internalType": "address",
          "name": "to",
          "type": "address"
        },
        {
          "internalType": "uint256",
          "name": "tokenId",
          "type": "uint256"
        }
      ],
      "name": "transferFrom",
      "outputs": [],
      "stateMutability": "nonpayable",
      "type": "function"
    },
    {
      "inputs": [
        {
          "internalType": "address",
          "name": "from",
          "type": "address"
        },
        {
          "internalType": "address",
          "name": "to",
          "type": "address"
        },
        {
          "internalType": "uint256",
          "name": "tokenId",
          "type": "uint256"
        }
      ],
      "name": "safeTransferFrom",
      "outputs": [],
      "stateMutability": "nonpayable",
      "type": "function"
    },
    {
      "inputs": [
        {
          "internalType": "address",
          "name": "from",
          "type": "address"
        },
        {
          "internalType": "address",
          "name": "to",
          "type": "address"
        },
        {
          "internalType": "uint256",
          "name": "tokenId",
          "type": "uint256"
        },
        {
          "internalType": "bytes",
          "name": "_data",
          "type": "bytes"
        }
      ],
      "name": "safeTransferFrom",
      "outputs": [],
      "stateMutability": "nonpayable",
      "type": "function"
    },
    {
      "inputs": [
        {
          "internalType": "bytes4",
          "name": "interfaceId",
          "type": "bytes4"
        }
      ],
      "name": "supportsInterface",
      "outputs": [
        {
          "internalType": "bool",
          "name": "",
          "type": "bool"
        }
      ],
      "stateMutability": "view",
      "type": "function",
      "constant": true
    }
  ],
  "bytecode": "0x60806040526000600e553480156200001657600080fd5b506040518060400160405280600781526020017f466163756c7479000000000000000000000000000000000000000000000000008152506040518060400160405280600381526020017f464143000000000000000000000000000000000000000000000000000000000081525081600090805190602001906200009b9291906200039c565b508060019080519060200190620000b49291906200039c565b505050620000cc6000801b336200010460201b60201c565b620000fe7f5f1d1e303f9c0a1801dd708bdc4239781d66c88ca6cb941c5769ba09b5c1b285336200010460201b60201c565b620004b1565b6200011682826200011a60201b60201c565b5050565b6200013182826200016260201b620024081760201c565b6200015d81600760008581526020019081526020016000206200025460201b620024e91790919060201c565b505050565b6200017482826200028c60201b60201c565b620002505760016006600084815260200190815260200160002060000160008373ffffffffffffffffffffffffffffffffffffffff1673ffffffffffffffffffffffffffffffffffffffff16815260200190815260200160002060006101000a81548160ff021916908315150217905550620001f5620002f760201b60201c565b73ffffffffffffffffffffffffffffffffffffffff168173ffffffffffffffffffffffffffffffffffffffff16837f2f8788117e7eff1d82e926ec794901d17c78024a50270940304540a733656f0d60405160405180910390a45b5050565b600062000284836000018373ffffffffffffffffffffffffffffffffffffffff1660001b620002ff60201b60201c565b905092915050565b60006006600084815260200190815260200160002060000160008373ffffffffffffffffffffffffffffffffffffffff1673ffffffffffffffffffffffffffffffffffffffff16815260200190815260200160002060009054906101000a900460ff16905092915050565b600033905090565b60006200031383836200037960201b60201c565b6200036e57826000018290806001815401808255809150506001900390600052602060002001600090919091909150558260000180549050836001016000848152602001908152602001600020819055506001905062000373565b600090505b92915050565b600080836001016000848152602001908152602001600020541415905092915050565b828054620003aa906200047b565b90600052602060002090601f016020900481019282620003ce57600085556200041a565b82601f10620003e957805160ff19168380011785556200041a565b828001600101855582156200041a579182015b8281111562000419578251825591602001919060010190620003fc565b5b5090506200042991906200042d565b5090565b5b80821115620004485760008160009055506001016200042e565b5090565b7f4e487b7100000000000000000000000000000000000000000000000000000000600052602260045260246000fd5b600060028204905060018216806200049457607f821691505b60208210811415620004ab57620004aa6200044c565b5b50919050565b61585a80620004c16000396000f3fe608060405234801561001057600080fd5b50600436106103425760003560e01c806386f8e92c116101b8578063c4e41b2211610104578063e17f6b2c116100a2578063f1d064b31161007c578063f1d064b314610a2d578063f7be43fb14610a4b578063f800f1fc14610a69578063fc3ba6b414610a8757610342565b8063e17f6b2c1461099d578063e78af7c5146109cd578063e985e9c5146109fd57610342565b8063ca15c873116100de578063ca15c87314610917578063cf19b6f214610947578063d547741f14610965578063dafa1d2d1461098157610342565b8063c4e41b22146108ad578063c87b56dd146108cb578063c94d10ad146108fb57610342565b80639822a59911610171578063a22cb4651161014b578063a22cb4651461083b578063ad7be93a14610857578063b88d4fde14610875578063b94470511461089157610342565b80639822a599146107cf578063996dc022146107ff578063a217fddf1461081d57610342565b806386f8e92c146106fb5780638bcf979c146107175780638df6674a146107355780639010d07c1461075157806391d148541461078157806395d89b41146107b157610342565b806332b3c846116102925780635eff7dae116102305780636fe3ceb81161020a5780636fe3ceb81461064d5780637048fae51461066b57806370a082311461069b5780637168c27d146106cb57610342565b80635eff7dae146105e35780635f1d514e146106015780636352211e1461061d57610342565b806342842e0e1161026c57806342842e0e14610571578063529f790c1461058d5780635c26b7ca146105a95780635ea07b1c146105c757610342565b806332b3c8461461050957806334604c471461052557806336568abe1461055557610342565b806312fb59f2116102ff578063248a9ca3116102d9578063248a9ca31461046f57806324d42a371461049f5780632be7dc44146104bd5780632f2ff15d146104ed57610342565b806312fb59f21461041b5780631c351a9d1461043757806323b872dd1461045357610342565b806301ffc9a7146103475780630252dffc1461037757806306fdde0314610393578063081812fc146103b1578063095ea7b3146103e15780630c6da2f7146103fd575b600080fd5b610361600480360381019061035c9190613dea565b610ab7565b60405161036e9190613e32565b60405180910390f35b610391600480360381019061038c9190613eab565b610ac9565b005b61039b610b35565b6040516103a89190613f71565b60405180910390f35b6103cb60048036038101906103c69190613fc9565b610bc7565b6040516103d89190614005565b60405180910390f35b6103fb60048036038101906103f69190614020565b610c4c565b005b610405610d64565b604051610412919061411e565b60405180910390f35b61043560048036038101906104309190613eab565b610df2565b005b610451600480360381019061044c9190614275565b610eb5565b005b61046d600480360381019061046891906142d1565b6110be565b005b6104896004803603810190610484919061435a565b61113d565b6040516104969190614396565b60405180910390f35b6104a761115d565b6040516104b49190614396565b60405180910390f35b6104d760048036038101906104d29190613eab565b611181565b6040516104e49190613e32565b60405180910390f35b610507600480360381019061050291906143b1565b6111b4565b005b610523600480360381019061051e9190613eab565b6111dd565b005b61053f600480360381019061053a91906143f1565b611249565b60405161054c9190614449565b60405180910390f35b61056f600480360381019061056a91906143b1565b611271565b005b61058b600480360381019061058691906142d1565b6112f4565b005b6105a760048036038101906105a29190613eab565b611373565b005b6105b1611436565b6040516105be919061411e565b60405180910390f35b6105e160048036038101906105dc9190613eab565b6114c4565b005b6105eb61161a565b6040516105f8919061411e565b60405180910390f35b61061b60048036038101906106169190613eab565b6116a8565b005b61063760048036038101906106329190613fc9565b61176b565b6040516106449190614005565b60405180910390f35b61065561181d565b6040516106629190614396565b60405180910390f35b61068560048036038101906106809190613fc9565b611841565b6040516106929190613f71565b60405180910390f35b6106b560048036038101906106b09190613eab565b6118e6565b6040516106c29190614449565b60405180910390f35b6106e560048036038101906106e09190613eab565b61199e565b6040516106f29190613e32565b60405180910390f35b61071560048036038101906107109190613eab565b6119d1565b005b61071f611a3d565b60405161072c9190614396565b60405180910390f35b61074f600480360381019061074a9190613eab565b611a61565b005b61076b60048036038101906107669190614464565b611b46565b6040516107789190614005565b60405180910390f35b61079b600480360381019061079691906143b1565b611b75565b6040516107a89190613e32565b60405180910390f35b6107b9611be0565b6040516107c69190613f71565b60405180910390f35b6107e960048036038101906107e49190613eab565b611c72565b6040516107f69190613e32565b60405180910390f35b610807611ca5565b6040516108149190614396565b60405180910390f35b610825611cc9565b6040516108329190614396565b60405180910390f35b610855600480360381019061085091906144d0565b611cd0565b005b61085f611ce6565b60405161086c9190614396565b60405180910390f35b61088f600480360381019061088a91906145b1565b611d0a565b005b6108ab60048036038101906108a69190613eab565b611d8b565b005b6108b5611df7565b6040516108c29190614449565b60405180910390f35b6108e560048036038101906108e09190613fc9565b611e01565b6040516108f29190613f71565b60405180910390f35b61091560048036038101906109109190613eab565b611ea8565b005b610931600480360381019061092c919061435a565b611f6b565b60405161093e9190614449565b60405180910390f35b61094f611f8f565b60405161095c9190614005565b60405180910390f35b61097f600480360381019061097a91906143b1565b611fb9565b005b61099b600480360381019061099691906143f1565b611fe2565b005b6109b760048036038101906109b29190613eab565b61219b565b6040516109c49190613e32565b60405180910390f35b6109e760048036038101906109e29190613eab565b6121ce565b6040516109f49190613e32565b60405180910390f35b610a176004803603810190610a129190614634565b612201565b604051610a249190613e32565b60405180910390f35b610a35612295565b604051610a42919061411e565b60405180910390f35b610a53612323565b604051610a609190614396565b60405180910390f35b610a71612347565b604051610a7e919061411e565b60405180910390f35b610aa16004803603810190610a9c9190613eab565b6123d5565b604051610aae9190613e32565b60405180910390f35b6000610ac282612519565b9050919050565b7f5f1d1e303f9c0a1801dd708bdc4239781d66c88ca6cb941c5769ba09b5c1b285610afb81610af6612593565b61259b565b610b257fe7837d04f36ce0b2f3cc662bf1b2b632a7fbd12ae95199e8bd3dcfbcc440b66b83611fb9565b610b3082600a612638565b505050565b606060008054610b44906146a3565b80601f0160208091040260200160405190810160405280929190818152602001828054610b70906146a3565b8015610bbd5780601f10610b9257610100808354040283529160200191610bbd565b820191906000526020600020905b815481529060010190602001808311610ba057829003601f168201915b5050505050905090565b6000610bd28261284c565b610c11576040517f08c379a0000000000000000000000000000000000000000000000000000000008152600401610c0890614747565b60405180910390fd5b6004600083815260200190815260200160002060009054906101000a900473ffffffffffffffffffffffffffffffffffffffff169050919050565b6000610c578261176b565b90508073ffffffffffffffffffffffffffffffffffffffff168373ffffffffffffffffffffffffffffffffffffffff161415610cc8576040517f08c379a0000000000000000000000000000000000000000000000000000000008152600401610cbf906147d9565b60405180910390fd5b8073ffffffffffffffffffffffffffffffffffffffff16610ce7612593565b73ffffffffffffffffffffffffffffffffffffffff161480610d165750610d1581610d10612593565b612201565b5b610d55576040517f08c379a0000000000000000000000000000000000000000000000000000000008152600401610d4c9061486b565b60405180910390fd5b610d5f83836128b8565b505050565b60606009805480602002602001604051908101604052809291908181526020018280548015610de857602002820191906000526020600020905b8160009054906101000a900473ffffffffffffffffffffffffffffffffffffffff1673ffffffffffffffffffffffffffffffffffffffff1681526020019060010190808311610d9e575b5050505050905090565b7f5f1d1e303f9c0a1801dd708bdc4239781d66c88ca6cb941c5769ba09b5c1b285610e2481610e1f612593565b61259b565b610e4e7fe7837d04f36ce0b2f3cc662bf1b2b632a7fbd12ae95199e8bd3dcfbcc440b66b836111b4565b600a829080600181540180825580915050600190039060005260206000200160009091909190916101000a81548173ffffffffffffffffffffffffffffffffffffffff021916908373ffffffffffffffffffffffffffffffffffffffff1602179055505050565b7f5f1d1e303f9c0a1801dd708bdc4239781d66c88ca6cb941c5769ba09b5c1b285610ee781610ee2612593565b61259b565b6000601084604051610ef991906148c7565b90815260200160405180910390205414610f48576040517f08c379a0000000000000000000000000000000000000000000000000000000008152600401610f3f9061492a565b60405180910390fd5b610f5182611373565b610f7b7ff3f9cfff7b46f415da5a492b1718971da203f87c6aae9299e7b408eb83ef8bee83611b75565b610fba576040517f08c379a0000000000000000000000000000000000000000000000000000000008152600401610fb1906149bc565b60405180910390fd5b604051602001610fc990614a02565b6040516020818303038152906040528051906020012083604051602001610ff091906148c7565b604051602081830303815290604052805190602001201415611047576040517f08c379a000000000000000000000000000000000000000000000000000000000815260040161103e90614a63565b60405180910390fd5b6001600e546110569190614ab2565b600e819055506000600e54905061106d8382612971565b8060108560405161107e91906148c7565b90815260200160405180910390208190555083600f600083815260200190815260200160002090805190602001906110b7929190613cdb565b5050505050565b600073ffffffffffffffffffffffffffffffffffffffff163373ffffffffffffffffffffffffffffffffffffffff161461112d576040517f08c379a000000000000000000000000000000000000000000000000000000000815260040161112490614b7a565b60405180910390fd5b611138838383612b3f565b505050565b600060066000838152602001908152602001600020600101549050919050565b7f5f1d1e303f9c0a1801dd708bdc4239781d66c88ca6cb941c5769ba09b5c1b28581565b60006111ad7f5f1d1e303f9c0a1801dd708bdc4239781d66c88ca6cb941c5769ba09b5c1b28583611b75565b9050919050565b6111bd8261113d565b6111ce816111c9612593565b61259b565b6111d88383612b9f565b505050565b7f5f1d1e303f9c0a1801dd708bdc4239781d66c88ca6cb941c5769ba09b5c1b28561120f8161120a612593565b61259b565b6112397f36a5c4aaacb6b388bbd448bf11096b7dafc5652bcc9046084fd0e95b1fb0b2cc83611fb9565b61124482600c612638565b505050565b600060108260405161125b91906148c7565b9081526020016040518091039020549050919050565b611279612593565b73ffffffffffffffffffffffffffffffffffffffff168173ffffffffffffffffffffffffffffffffffffffff16146112e6576040517f08c379a00000000000000000000000000000000000000000000000000000000081526004016112dd90614c0c565b60405180910390fd5b6112f08282612bd3565b5050565b600073ffffffffffffffffffffffffffffffffffffffff163373ffffffffffffffffffffffffffffffffffffffff1614611363576040517f08c379a000000000000000000000000000000000000000000000000000000000815260040161135a90614b7a565b60405180910390fd5b61136e838383612c07565b505050565b7f5f1d1e303f9c0a1801dd708bdc4239781d66c88ca6cb941c5769ba09b5c1b2856113a5816113a0612593565b61259b565b6113cf7ff3f9cfff7b46f415da5a492b1718971da203f87c6aae9299e7b408eb83ef8bee836111b4565b6009829080600181540180825580915050600190039060005260206000200160009091909190916101000a81548173ffffffffffffffffffffffffffffffffffffffff021916908373ffffffffffffffffffffffffffffffffffffffff1602179055505050565b6060600a8054806020026020016040519081016040528092919081815260200182805480156114ba57602002820191906000526020600020905b8160009054906101000a900473ffffffffffffffffffffffffffffffffffffffff1673ffffffffffffffffffffffffffffffffffffffff1681526020019060010190808311611470575b5050505050905090565b7f5f1d1e303f9c0a1801dd708bdc4239781d66c88ca6cb941c5769ba09b5c1b2856114f6816114f1612593565b61259b565b6115207f36a5c4aaacb6b388bbd448bf11096b7dafc5652bcc9046084fd0e95b1fb0b2cc83611b75565b61155f576040517f08c379a000000000000000000000000000000000000000000000000000000000815260040161155690614c78565b60405180910390fd5b6115897f36a5c4aaacb6b388bbd448bf11096b7dafc5652bcc9046084fd0e95b1fb0b2cc83611fb9565b6115b37f4758f7d70d6088cbfad5c79861ac6457ba2af02adf5ea419e97879ae24459cb6836111b4565b600d829080600181540180825580915050600190039060005260206000200160009091909190916101000a81548173ffffffffffffffffffffffffffffffffffffffff021916908373ffffffffffffffffffffffffffffffffffffffff1602179055505050565b6060600b80548060200260200160405190810160405280929190818152602001828054801561169e57602002820191906000526020600020905b8160009054906101000a900473ffffffffffffffffffffffffffffffffffffffff1673ffffffffffffffffffffffffffffffffffffffff1681526020019060010190808311611654575b5050505050905090565b7f5f1d1e303f9c0a1801dd708bdc4239781d66c88ca6cb941c5769ba09b5c1b2856116da816116d5612593565b61259b565b6117047fae4a0595970935aa5495afbbb72e5f1f6ff1062766b4a3028c0c9b7d5cf7e345836111b4565b600b829080600181540180825580915050600190039060005260206000200160009091909190916101000a81548173ffffffffffffffffffffffffffffffffffffffff021916908373ffffffffffffffffffffffffffffffffffffffff1602179055505050565b6000806002600084815260200190815260200160002060009054906101000a900473ffffffffffffffffffffffffffffffffffffffff169050600073ffffffffffffffffffffffffffffffffffffffff168173ffffffffffffffffffffffffffffffffffffffff161415611814576040517f08c379a000000000000000000000000000000000000000000000000000000000815260040161180b90614d0a565b60405180910390fd5b80915050919050565b7ff3f9cfff7b46f415da5a492b1718971da203f87c6aae9299e7b408eb83ef8bee81565b6060600f60008381526020019081526020016000208054611861906146a3565b80601f016020809104026020016040519081016040528092919081815260200182805461188d906146a3565b80156118da5780601f106118af576101008083540402835291602001916118da565b820191906000526020600020905b8154815290600101906020018083116118bd57829003601f168201915b50505050509050919050565b60008073ffffffffffffffffffffffffffffffffffffffff168273ffffffffffffffffffffffffffffffffffffffff161415611957576040517f08c379a000000000000000000000000000000000000000000000000000000000815260040161194e90614d9c565b60405180910390fd5b600360008373ffffffffffffffffffffffffffffffffffffffff1673ffffffffffffffffffffffffffffffffffffffff168152602001908152602001600020549050919050565b60006119ca7f4758f7d70d6088cbfad5c79861ac6457ba2af02adf5ea419e97879ae24459cb683611b75565b9050919050565b7f5f1d1e303f9c0a1801dd708bdc4239781d66c88ca6cb941c5769ba09b5c1b285611a03816119fe612593565b61259b565b611a2d7fae4a0595970935aa5495afbbb72e5f1f6ff1062766b4a3028c0c9b7d5cf7e34583611fb9565b611a3882600b612638565b505050565b7fae4a0595970935aa5495afbbb72e5f1f6ff1062766b4a3028c0c9b7d5cf7e34581565b7f5f1d1e303f9c0a1801dd708bdc4239781d66c88ca6cb941c5769ba09b5c1b285611a9381611a8e612593565b61259b565b611abd7f5f1d1e303f9c0a1801dd708bdc4239781d66c88ca6cb941c5769ba09b5c1b285836111b4565b611aca6000801b836111b4565b611ad76000801b33611271565b611b017f5f1d1e303f9c0a1801dd708bdc4239781d66c88ca6cb941c5769ba09b5c1b28533611271565b81600860006101000a81548173ffffffffffffffffffffffffffffffffffffffff021916908373ffffffffffffffffffffffffffffffffffffffff1602179055505050565b6000611b6d8260076000868152602001908152602001600020612c2790919063ffffffff16565b905092915050565b60006006600084815260200190815260200160002060000160008373ffffffffffffffffffffffffffffffffffffffff1673ffffffffffffffffffffffffffffffffffffffff16815260200190815260200160002060009054906101000a900460ff16905092915050565b606060018054611bef906146a3565b80601f0160208091040260200160405190810160405280929190818152602001828054611c1b906146a3565b8015611c685780601f10611c3d57610100808354040283529160200191611c68565b820191906000526020600020905b815481529060010190602001808311611c4b57829003601f168201915b5050505050905090565b6000611c9e7fae4a0595970935aa5495afbbb72e5f1f6ff1062766b4a3028c0c9b7d5cf7e34583611b75565b9050919050565b7fe7837d04f36ce0b2f3cc662bf1b2b632a7fbd12ae95199e8bd3dcfbcc440b66b81565b6000801b81565b611ce2611cdb612593565b8383612c41565b5050565b7f4758f7d70d6088cbfad5c79861ac6457ba2af02adf5ea419e97879ae24459cb681565b600073ffffffffffffffffffffffffffffffffffffffff163373ffffffffffffffffffffffffffffffffffffffff1614611d79576040517f08c379a0000000000000000000000000000000000000000000000000000000008152600401611d7090614b7a565b60405180910390fd5b611d8584848484612dae565b50505050565b7f5f1d1e303f9c0a1801dd708bdc4239781d66c88ca6cb941c5769ba09b5c1b285611dbd81611db8612593565b61259b565b611de77ff3f9cfff7b46f415da5a492b1718971da203f87c6aae9299e7b408eb83ef8bee83611fb9565b611df2826009612638565b505050565b6000600e54905090565b6060611e0c8261284c565b611e4b576040517f08c379a0000000000000000000000000000000000000000000000000000000008152600401611e4290614e2e565b60405180910390fd5b6000611e55612e10565b90506000815111611e755760405180602001604052806000815250611ea0565b80611e7f84612e27565b604051602001611e90929190614e4e565b6040516020818303038152906040525b915050919050565b7f5f1d1e303f9c0a1801dd708bdc4239781d66c88ca6cb941c5769ba09b5c1b285611eda81611ed5612593565b61259b565b611f047f36a5c4aaacb6b388bbd448bf11096b7dafc5652bcc9046084fd0e95b1fb0b2cc836111b4565b600c829080600181540180825580915050600190039060005260206000200160009091909190916101000a81548173ffffffffffffffffffffffffffffffffffffffff021916908373ffffffffffffffffffffffffffffffffffffffff1602179055505050565b6000611f8860076000848152602001908152602001600020612f88565b9050919050565b6000600860009054906101000a900473ffffffffffffffffffffffffffffffffffffffff16905090565b611fc28261113d565b611fd381611fce612593565b61259b565b611fdd8383612bd3565b505050565b7f5f1d1e303f9c0a1801dd708bdc4239781d66c88ca6cb941c5769ba09b5c1b2856120148161200f612593565b61259b565b600060108360405161202691906148c7565b9081526020016040518091039020549050600081141561207b576040517f08c379a000000000000000000000000000000000000000000000000000000000815260040161207290614ebe565b60405180910390fd5b8260405160200161208c91906148c7565b60405160208183030381529060405280519060200120600f60008381526020019081526020016000206040516020016120c59190614f72565b604051602081830303815290604052805190602001201461211b576040517f08c379a000000000000000000000000000000000000000000000000000000000815260040161211290614fd5565b60405180910390fd5b60006121268261176b565b905061213181611d8b565b61213a82612f9d565b60405180602001604052806000815250600f60008481526020019081526020016000209080519060200190612170929190613cdb565b50600060108560405161218391906148c7565b90815260200160405180910390208190555050505050565b60006121c77fe7837d04f36ce0b2f3cc662bf1b2b632a7fbd12ae95199e8bd3dcfbcc440b66b83611b75565b9050919050565b60006121fa7ff3f9cfff7b46f415da5a492b1718971da203f87c6aae9299e7b408eb83ef8bee83611b75565b9050919050565b6000600560008473ffffffffffffffffffffffffffffffffffffffff1673ffffffffffffffffffffffffffffffffffffffff16815260200190815260200160002060008373ffffffffffffffffffffffffffffffffffffffff1673ffffffffffffffffffffffffffffffffffffffff16815260200190815260200160002060009054906101000a900460ff16905092915050565b6060600c80548060200260200160405190810160405280929190818152602001828054801561231957602002820191906000526020600020905b8160009054906101000a900473ffffffffffffffffffffffffffffffffffffffff1673ffffffffffffffffffffffffffffffffffffffff16815260200190600101908083116122cf575b5050505050905090565b7f36a5c4aaacb6b388bbd448bf11096b7dafc5652bcc9046084fd0e95b1fb0b2cc81565b6060600d8054806020026020016040519081016040528092919081815260200182805480156123cb57602002820191906000526020600020905b8160009054906101000a900473ffffffffffffffffffffffffffffffffffffffff1673ffffffffffffffffffffffffffffffffffffffff1681526020019060010190808311612381575b5050505050905090565b60006124017f36a5c4aaacb6b388bbd448bf11096b7dafc5652bcc9046084fd0e95b1fb0b2cc83611b75565b9050919050565b6124128282611b75565b6124e55760016006600084815260200190815260200160002060000160008373ffffffffffffffffffffffffffffffffffffffff1673ffffffffffffffffffffffffffffffffffffffff16815260200190815260200160002060006101000a81548160ff02191690831515021790555061248a612593565b73ffffffffffffffffffffffffffffffffffffffff168173ffffffffffffffffffffffffffffffffffffffff16837f2f8788117e7eff1d82e926ec794901d17c78024a50270940304540a733656f0d60405160405180910390a45b5050565b6000612511836000018373ffffffffffffffffffffffffffffffffffffffff1660001b6130ae565b905092915050565b60007f5a05180f000000000000000000000000000000000000000000000000000000007bffffffffffffffffffffffffffffffffffffffffffffffffffffffff1916827bffffffffffffffffffffffffffffffffffffffffffffffffffffffff1916148061258c575061258b8261311e565b5b9050919050565b600033905090565b6125a58282611b75565b612634576125ca8173ffffffffffffffffffffffffffffffffffffffff166014613198565b6125d88360001c6020613198565b6040516020016125e992919061508d565b6040516020818303038152906040526040517f08c379a000000000000000000000000000000000000000000000000000000000815260040161262b9190613f71565b60405180910390fd5b5050565b606060005b82805490508110156127bd578373ffffffffffffffffffffffffffffffffffffffff16838281548110612673576126726150c7565b5b9060005260206000200160009054906101000a900473ffffffffffffffffffffffffffffffffffffffff1673ffffffffffffffffffffffffffffffffffffffff1614156127aa5782600184805490506126cc91906150f6565b815481106126dd576126dc6150c7565b5b9060005260206000200160009054906101000a900473ffffffffffffffffffffffffffffffffffffffff1683828154811061271b5761271a6150c7565b5b9060005260206000200160006101000a81548173ffffffffffffffffffffffffffffffffffffffff021916908373ffffffffffffffffffffffffffffffffffffffff160217905550828054806127745761277361512a565b5b6001900381819060005260206000200160006101000a81549073ffffffffffffffffffffffffffffffffffffffff021916905590555b80806127b590615159565b91505061263d565b508180548060200260200160405190810160405280929190818152602001828054801561283f57602002820191906000526020600020905b8160009054906101000a900473ffffffffffffffffffffffffffffffffffffffff1673ffffffffffffffffffffffffffffffffffffffff16815260200190600101908083116127f5575b5050505050905092915050565b60008073ffffffffffffffffffffffffffffffffffffffff166002600084815260200190815260200160002060009054906101000a900473ffffffffffffffffffffffffffffffffffffffff1673ffffffffffffffffffffffffffffffffffffffff1614159050919050565b816004600083815260200190815260200160002060006101000a81548173ffffffffffffffffffffffffffffffffffffffff021916908373ffffffffffffffffffffffffffffffffffffffff160217905550808273ffffffffffffffffffffffffffffffffffffffff1661292b8361176b565b73ffffffffffffffffffffffffffffffffffffffff167f8c5be1e5ebec7d5bd14f71427d1e84f3dd0314c0f7b2291e5b200ac8c7c3b92560405160405180910390a45050565b600073ffffffffffffffffffffffffffffffffffffffff168273ffffffffffffffffffffffffffffffffffffffff1614156129e1576040517f08c379a00000000000000000000000000000000000000000000000000000000081526004016129d8906151ee565b60405180910390fd5b6129ea8161284c565b15612a2a576040517f08c379a0000000000000000000000000000000000000000000000000000000008152600401612a219061525a565b60405180910390fd5b612a36600083836133d4565b6001600360008473ffffffffffffffffffffffffffffffffffffffff1673ffffffffffffffffffffffffffffffffffffffff1681526020019081526020016000206000828254612a869190614ab2565b92505081905550816002600083815260200190815260200160002060006101000a81548173ffffffffffffffffffffffffffffffffffffffff021916908373ffffffffffffffffffffffffffffffffffffffff160217905550808273ffffffffffffffffffffffffffffffffffffffff16600073ffffffffffffffffffffffffffffffffffffffff167fddf252ad1be2c89b69c2b068fc378daa952ba7f163c4a11628f55a4df523b3ef60405160405180910390a45050565b612b50612b4a612593565b826133d9565b612b8f576040517f08c379a0000000000000000000000000000000000000000000000000000000008152600401612b86906152ec565b60405180910390fd5b612b9a8383836134b7565b505050565b612ba98282612408565b612bce81600760008581526020019081526020016000206124e990919063ffffffff16565b505050565b612bdd8282613713565b612c0281600760008581526020019081526020016000206137f590919063ffffffff16565b505050565b612c2283838360405180602001604052806000815250611d0a565b505050565b6000612c368360000183613825565b60001c905092915050565b8173ffffffffffffffffffffffffffffffffffffffff168373ffffffffffffffffffffffffffffffffffffffff161415612cb0576040517f08c379a0000000000000000000000000000000000000000000000000000000008152600401612ca790615358565b60405180910390fd5b80600560008573ffffffffffffffffffffffffffffffffffffffff1673ffffffffffffffffffffffffffffffffffffffff16815260200190815260200160002060008473ffffffffffffffffffffffffffffffffffffffff1673ffffffffffffffffffffffffffffffffffffffff16815260200190815260200160002060006101000a81548160ff0219169083151502179055508173ffffffffffffffffffffffffffffffffffffffff168373ffffffffffffffffffffffffffffffffffffffff167f17307eab39ab6107e8899845ad3d59bd9653f200f220920489ca2b5937696c3183604051612da19190613e32565b60405180910390a3505050565b612dbf612db9612593565b836133d9565b612dfe576040517f08c379a0000000000000000000000000000000000000000000000000000000008152600401612df5906152ec565b60405180910390fd5b612e0a84848484613850565b50505050565b606060405180602001604052806000815250905090565b60606000821415612e6f576040518060400160405280600181526020017f30000000000000000000000000000000000000000000000000000000000000008152509050612f83565b600082905060005b60008214612ea1578080612e8a90615159565b915050600a82612e9a91906153a7565b9150612e77565b60008167ffffffffffffffff811115612ebd57612ebc61414a565b5b6040519080825280601f01601f191660200182016040528015612eef5781602001600182028036833780820191505090505b5090505b60008514612f7c57600182612f0891906150f6565b9150600a85612f1791906153d8565b6030612f239190614ab2565b60f81b818381518110612f3957612f386150c7565b5b60200101907effffffffffffffffffffffffffffffffffffffffffffffffffffffffffffff1916908160001a905350600a85612f7591906153a7565b9450612ef3565b8093505050505b919050565b6000612f96826000016138ac565b9050919050565b6000612fa88261176b565b9050612fb6816000846133d4565b612fc16000836128b8565b6001600360008373ffffffffffffffffffffffffffffffffffffffff1673ffffffffffffffffffffffffffffffffffffffff168152602001908152602001600020600082825461301191906150f6565b925050819055506002600083815260200190815260200160002060006101000a81549073ffffffffffffffffffffffffffffffffffffffff021916905581600073ffffffffffffffffffffffffffffffffffffffff168273ffffffffffffffffffffffffffffffffffffffff167fddf252ad1be2c89b69c2b068fc378daa952ba7f163c4a11628f55a4df523b3ef60405160405180910390a45050565b60006130ba83836138bd565b613113578260000182908060018154018082558091505060019003906000526020600020016000909190919091505582600001805490508360010160008481526020019081526020016000208190555060019050613118565b600090505b92915050565b60007f7965db0b000000000000000000000000000000000000000000000000000000007bffffffffffffffffffffffffffffffffffffffffffffffffffffffff1916827bffffffffffffffffffffffffffffffffffffffffffffffffffffffff191614806131915750613190826138e0565b5b9050919050565b6060600060028360026131ab9190615409565b6131b59190614ab2565b67ffffffffffffffff8111156131ce576131cd61414a565b5b6040519080825280601f01601f1916602001820160405280156132005781602001600182028036833780820191505090505b5090507f300000000000000000000000000000000000000000000000000000000000000081600081518110613238576132376150c7565b5b60200101907effffffffffffffffffffffffffffffffffffffffffffffffffffffffffffff1916908160001a9053507f78000000000000000000000000000000000000000000000000000000000000008160018151811061329c5761329b6150c7565b5b60200101907effffffffffffffffffffffffffffffffffffffffffffffffffffffffffffff1916908160001a905350600060018460026132dc9190615409565b6132e69190614ab2565b90505b6001811115613386577f3031323334353637383961626364656600000000000000000000000000000000600f861660108110613328576133276150c7565b5b1a60f81b82828151811061333f5761333e6150c7565b5b60200101907effffffffffffffffffffffffffffffffffffffffffffffffffffffffffffff1916908160001a905350600485901c94508061337f90615463565b90506132e9565b50600084146133ca576040517f08c379a00000000000000000000000000000000000000000000000000000000081526004016133c1906154d9565b60405180910390fd5b8091505092915050565b505050565b60006133e48261284c565b613423576040517f08c379a000000000000000000000000000000000000000000000000000000000815260040161341a9061556b565b60405180910390fd5b600061342e8361176b565b90508073ffffffffffffffffffffffffffffffffffffffff168473ffffffffffffffffffffffffffffffffffffffff16148061349d57508373ffffffffffffffffffffffffffffffffffffffff1661348584610bc7565b73ffffffffffffffffffffffffffffffffffffffff16145b806134ae57506134ad8185612201565b5b91505092915050565b8273ffffffffffffffffffffffffffffffffffffffff166134d78261176b565b73ffffffffffffffffffffffffffffffffffffffff161461352d576040517f08c379a0000000000000000000000000000000000000000000000000000000008152600401613524906155fd565b60405180910390fd5b600073ffffffffffffffffffffffffffffffffffffffff168273ffffffffffffffffffffffffffffffffffffffff16141561359d576040517f08c379a00000000000000000000000000000000000000000000000000000000081526004016135949061568f565b60405180910390fd5b6135a88383836133d4565b6135b36000826128b8565b6001600360008573ffffffffffffffffffffffffffffffffffffffff1673ffffffffffffffffffffffffffffffffffffffff168152602001908152602001600020600082825461360391906150f6565b925050819055506001600360008473ffffffffffffffffffffffffffffffffffffffff1673ffffffffffffffffffffffffffffffffffffffff168152602001908152602001600020600082825461365a9190614ab2565b92505081905550816002600083815260200190815260200160002060006101000a81548173ffffffffffffffffffffffffffffffffffffffff021916908373ffffffffffffffffffffffffffffffffffffffff160217905550808273ffffffffffffffffffffffffffffffffffffffff168473ffffffffffffffffffffffffffffffffffffffff167fddf252ad1be2c89b69c2b068fc378daa952ba7f163c4a11628f55a4df523b3ef60405160405180910390a4505050565b61371d8282611b75565b156137f15760006006600084815260200190815260200160002060000160008373ffffffffffffffffffffffffffffffffffffffff1673ffffffffffffffffffffffffffffffffffffffff16815260200190815260200160002060006101000a81548160ff021916908315150217905550613796612593565b73ffffffffffffffffffffffffffffffffffffffff168173ffffffffffffffffffffffffffffffffffffffff16837ff6391f5c32d9c69d2a47ea670b442974b53935d1edc7fd64eb21e047a839171b60405160405180910390a45b5050565b600061381d836000018373ffffffffffffffffffffffffffffffffffffffff1660001b6139c2565b905092915050565b600082600001828154811061383d5761383c6150c7565b5b9060005260206000200154905092915050565b61385b8484846134b7565b61386784848484613ad6565b6138a6576040517f08c379a000000000000000000000000000000000000000000000000000000000815260040161389d90615721565b60405180910390fd5b50505050565b600081600001805490509050919050565b600080836001016000848152602001908152602001600020541415905092915050565b60007f80ac58cd000000000000000000000000000000000000000000000000000000007bffffffffffffffffffffffffffffffffffffffffffffffffffffffff1916827bffffffffffffffffffffffffffffffffffffffffffffffffffffffff191614806139ab57507f5b5e139f000000000000000000000000000000000000000000000000000000007bffffffffffffffffffffffffffffffffffffffffffffffffffffffff1916827bffffffffffffffffffffffffffffffffffffffffffffffffffffffff1916145b806139bb57506139ba82613c5e565b5b9050919050565b60008083600101600084815260200190815260200160002054905060008114613aca5760006001826139f491906150f6565b9050600060018660000180549050613a0c91906150f6565b9050818114613a7b576000866000018281548110613a2d57613a2c6150c7565b5b9060005260206000200154905080876000018481548110613a5157613a506150c7565b5b90600052602060002001819055508387600101600083815260200190815260200160002081905550505b85600001805480613a8f57613a8e61512a565b5b600190038181906000526020600020016000905590558560010160008681526020019081526020016000206000905560019350505050613ad0565b60009150505b92915050565b6000613af78473ffffffffffffffffffffffffffffffffffffffff16613cc8565b15613c51578373ffffffffffffffffffffffffffffffffffffffff1663150b7a02613b20612593565b8786866040518563ffffffff1660e01b8152600401613b429493929190615796565b6020604051808303816000875af1925050508015613b7e57506040513d601f19601f82011682018060405250810190613b7b91906157f7565b60015b613c01573d8060008114613bae576040519150601f19603f3d011682016040523d82523d6000602084013e613bb3565b606091505b50600081511415613bf9576040517f08c379a0000000000000000000000000000000000000000000000000000000008152600401613bf090615721565b60405180910390fd5b805181602001fd5b63150b7a0260e01b7bffffffffffffffffffffffffffffffffffffffffffffffffffffffff1916817bffffffffffffffffffffffffffffffffffffffffffffffffffffffff191614915050613c56565b600190505b949350505050565b60007f01ffc9a7000000000000000000000000000000000000000000000000000000007bffffffffffffffffffffffffffffffffffffffffffffffffffffffff1916827bffffffffffffffffffffffffffffffffffffffffffffffffffffffff1916149050919050565b600080823b905060008111915050919050565b828054613ce7906146a3565b90600052602060002090601f016020900481019282613d095760008555613d50565b82601f10613d2257805160ff1916838001178555613d50565b82800160010185558215613d50579182015b82811115613d4f578251825591602001919060010190613d34565b5b509050613d5d9190613d61565b5090565b5b80821115613d7a576000816000905550600101613d62565b5090565b6000604051905090565b600080fd5b600080fd5b60007fffffffff0000000000000000000000000000000000000000000000000000000082169050919050565b613dc781613d92565b8114613dd257600080fd5b50565b600081359050613de481613dbe565b92915050565b600060208284031215613e0057613dff613d88565b5b6000613e0e84828501613dd5565b91505092915050565b60008115159050919050565b613e2c81613e17565b82525050565b6000602082019050613e476000830184613e23565b92915050565b600073ffffffffffffffffffffffffffffffffffffffff82169050919050565b6000613e7882613e4d565b9050919050565b613e8881613e6d565b8114613e9357600080fd5b50565b600081359050613ea581613e7f565b92915050565b600060208284031215613ec157613ec0613d88565b5b6000613ecf84828501613e96565b91505092915050565b600081519050919050565b600082825260208201905092915050565b60005b83811015613f12578082015181840152602081019050613ef7565b83811115613f21576000848401525b50505050565b6000601f19601f8301169050919050565b6000613f4382613ed8565b613f4d8185613ee3565b9350613f5d818560208601613ef4565b613f6681613f27565b840191505092915050565b60006020820190508181036000830152613f8b8184613f38565b905092915050565b6000819050919050565b613fa681613f93565b8114613fb157600080fd5b50565b600081359050613fc381613f9d565b92915050565b600060208284031215613fdf57613fde613d88565b5b6000613fed84828501613fb4565b91505092915050565b613fff81613e6d565b82525050565b600060208201905061401a6000830184613ff6565b92915050565b6000806040838503121561403757614036613d88565b5b600061404585828601613e96565b925050602061405685828601613fb4565b9150509250929050565b600081519050919050565b600082825260208201905092915050565b6000819050602082019050919050565b61409581613e6d565b82525050565b60006140a7838361408c565b60208301905092915050565b6000602082019050919050565b60006140cb82614060565b6140d5818561406b565b93506140e08361407c565b8060005b838110156141115781516140f8888261409b565b9750614103836140b3565b9250506001810190506140e4565b5085935050505092915050565b6000602082019050818103600083015261413881846140c0565b905092915050565b600080fd5b600080fd5b7f4e487b7100000000000000000000000000000000000000000000000000000000600052604160045260246000fd5b61418282613f27565b810181811067ffffffffffffffff821117156141a1576141a061414a565b5b80604052505050565b60006141b4613d7e565b90506141c08282614179565b919050565b600067ffffffffffffffff8211156141e0576141df61414a565b5b6141e982613f27565b9050602081019050919050565b82818337600083830152505050565b6000614218614213846141c5565b6141aa565b90508281526020810184848401111561423457614233614145565b5b61423f8482856141f6565b509392505050565b600082601f83011261425c5761425b614140565b5b813561426c848260208601614205565b91505092915050565b6000806040838503121561428c5761428b613d88565b5b600083013567ffffffffffffffff8111156142aa576142a9613d8d565b5b6142b685828601614247565b92505060206142c785828601613e96565b9150509250929050565b6000806000606084860312156142ea576142e9613d88565b5b60006142f886828701613e96565b935050602061430986828701613e96565b925050604061431a86828701613fb4565b9150509250925092565b6000819050919050565b61433781614324565b811461434257600080fd5b50565b6000813590506143548161432e565b92915050565b6000602082840312156143705761436f613d88565b5b600061437e84828501614345565b91505092915050565b61439081614324565b82525050565b60006020820190506143ab6000830184614387565b92915050565b600080604083850312156143c8576143c7613d88565b5b60006143d685828601614345565b92505060206143e785828601613e96565b9150509250929050565b60006020828403121561440757614406613d88565b5b600082013567ffffffffffffffff81111561442557614424613d8d565b5b61443184828501614247565b91505092915050565b61444381613f93565b82525050565b600060208201905061445e600083018461443a565b92915050565b6000806040838503121561447b5761447a613d88565b5b600061448985828601614345565b925050602061449a85828601613fb4565b9150509250929050565b6144ad81613e17565b81146144b857600080fd5b50565b6000813590506144ca816144a4565b92915050565b600080604083850312156144e7576144e6613d88565b5b60006144f585828601613e96565b9250506020614506858286016144bb565b9150509250929050565b600067ffffffffffffffff82111561452b5761452a61414a565b5b61453482613f27565b9050602081019050919050565b600061455461454f84614510565b6141aa565b9050828152602081018484840111156145705761456f614145565b5b61457b8482856141f6565b509392505050565b600082601f83011261459857614597614140565b5b81356145a8848260208601614541565b91505092915050565b600080600080608085870312156145cb576145ca613d88565b5b60006145d987828801613e96565b94505060206145ea87828801613e96565b93505060406145fb87828801613fb4565b925050606085013567ffffffffffffffff81111561461c5761461b613d8d565b5b61462887828801614583565b91505092959194509250565b6000806040838503121561464b5761464a613d88565b5b600061465985828601613e96565b925050602061466a85828601613e96565b9150509250929050565b7f4e487b7100000000000000000000000000000000000000000000000000000000600052602260045260246000fd5b600060028204905060018216806146bb57607f821691505b602082108114156146cf576146ce614674565b5b50919050565b7f4552433732313a20617070726f76656420717565727920666f72206e6f6e657860008201527f697374656e7420746f6b656e0000000000000000000000000000000000000000602082015250565b6000614731602c83613ee3565b915061473c826146d5565b604082019050919050565b6000602082019050818103600083015261476081614724565b9050919050565b7f4552433732313a20617070726f76616c20746f2063757272656e74206f776e6560008201527f7200000000000000000000000000000000000000000000000000000000000000602082015250565b60006147c3602183613ee3565b91506147ce82614767565b604082019050919050565b600060208201905081810360008301526147f2816147b6565b9050919050565b7f4552433732313a20617070726f76652063616c6c6572206973206e6f74206f7760008201527f6e6572206e6f7220617070726f76656420666f7220616c6c0000000000000000602082015250565b6000614855603883613ee3565b9150614860826147f9565b604082019050919050565b6000602082019050818103600083015261488481614848565b9050919050565b600081905092915050565b60006148a182613ed8565b6148ab818561488b565b93506148bb818560208601613ef4565b80840191505092915050565b60006148d38284614896565b915081905092915050565b7f5468697320466163756c747920697320616c7265616479206578697374000000600082015250565b6000614914601d83613ee3565b915061491f826148de565b602082019050919050565b6000602082019050818103600083015261494381614907565b9050919050565b7f546869732061646472657373206973206e6f7420696e20464143554c54595f5260008201527f4f4c450000000000000000000000000000000000000000000000000000000000602082015250565b60006149a6602383613ee3565b91506149b18261494a565b604082019050919050565b600060208201905081810360008301526149d581614999565b9050919050565b50565b60006149ec60008361488b565b91506149f7826149dc565b600082019050919050565b6000614a0d826149df565b9150819050919050565b7f466163756c7479206e616d652063616e6e6f7420626520656d70747900000000600082015250565b6000614a4d601c83613ee3565b9150614a5882614a17565b602082019050919050565b60006020820190508181036000830152614a7c81614a40565b9050919050565b7f4e487b7100000000000000000000000000000000000000000000000000000000600052601160045260246000fd5b6000614abd82613f93565b9150614ac883613f93565b9250827fffffffffffffffffffffffffffffffffffffffffffffffffffffffffffffffff03821115614afd57614afc614a83565b5b828201905092915050565b7f5472616e73666572206166746572206d696e742069732070726f68696269746560008201527f6400000000000000000000000000000000000000000000000000000000000000602082015250565b6000614b64602183613ee3565b9150614b6f82614b08565b604082019050919050565b60006020820190508181036000830152614b9381614b57565b9050919050565b7f416363657373436f6e74726f6c3a2063616e206f6e6c792072656e6f756e636560008201527f20726f6c657320666f722073656c660000000000000000000000000000000000602082015250565b6000614bf6602f83613ee3565b9150614c0182614b9a565b604082019050919050565b60006020820190508181036000830152614c2581614be9565b9050919050565b7f5468652061646472657373206973206e6f7420612073747564656e7400000000600082015250565b6000614c62601c83613ee3565b9150614c6d82614c2c565b602082019050919050565b60006020820190508181036000830152614c9181614c55565b9050919050565b7f4552433732313a206f776e657220717565727920666f72206e6f6e657869737460008201527f656e7420746f6b656e0000000000000000000000000000000000000000000000602082015250565b6000614cf4602983613ee3565b9150614cff82614c98565b604082019050919050565b60006020820190508181036000830152614d2381614ce7565b9050919050565b7f4552433732313a2062616c616e636520717565727920666f7220746865207a6560008201527f726f206164647265737300000000000000000000000000000000000000000000602082015250565b6000614d86602a83613ee3565b9150614d9182614d2a565b604082019050919050565b60006020820190508181036000830152614db581614d79565b9050919050565b7f4552433732314d657461646174613a2055524920717565727920666f72206e6f60008201527f6e6578697374656e7420746f6b656e0000000000000000000000000000000000602082015250565b6000614e18602f83613ee3565b9150614e2382614dbc565b604082019050919050565b60006020820190508181036000830152614e4781614e0b565b9050919050565b6000614e5a8285614896565b9150614e668284614896565b91508190509392505050565b7f5468697320466163756c7479206973206e6f7420657869737400000000000000600082015250565b6000614ea8601983613ee3565b9150614eb382614e72565b602082019050919050565b60006020820190508181036000830152614ed781614e9b565b9050919050565b60008190508160005260206000209050919050565b60008154614f00816146a3565b614f0a818661488b565b94506001821660008114614f255760018114614f3657614f69565b60ff19831686528186019350614f69565b614f3f85614ede565b60005b83811015614f6157815481890152600182019150602081019050614f42565b838801955050505b50505092915050565b6000614f7e8284614ef3565b915081905092915050565b7f466163756c7479206e616d657320646f206e6f74206d61746368000000000000600082015250565b6000614fbf601a83613ee3565b9150614fca82614f89565b602082019050919050565b60006020820190508181036000830152614fee81614fb2565b9050919050565b7f416363657373436f6e74726f6c3a206163636f756e7420000000000000000000600082015250565b600061502b60178361488b565b915061503682614ff5565b601782019050919050565b7f206973206d697373696e6720726f6c6520000000000000000000000000000000600082015250565b600061507760118361488b565b915061508282615041565b601182019050919050565b60006150988261501e565b91506150a48285614896565b91506150af8261506a565b91506150bb8284614896565b91508190509392505050565b7f4e487b7100000000000000000000000000000000000000000000000000000000600052603260045260246000fd5b600061510182613f93565b915061510c83613f93565b92508282101561511f5761511e614a83565b5b828203905092915050565b7f4e487b7100000000000000000000000000000000000000000000000000000000600052603160045260246000fd5b600061516482613f93565b91507fffffffffffffffffffffffffffffffffffffffffffffffffffffffffffffffff82141561519757615196614a83565b5b600182019050919050565b7f4552433732313a206d696e7420746f20746865207a65726f2061646472657373600082015250565b60006151d8602083613ee3565b91506151e3826151a2565b602082019050919050565b60006020820190508181036000830152615207816151cb565b9050919050565b7f4552433732313a20746f6b656e20616c7265616479206d696e74656400000000600082015250565b6000615244601c83613ee3565b915061524f8261520e565b602082019050919050565b6000602082019050818103600083015261527381615237565b9050919050565b7f4552433732313a207472616e736665722063616c6c6572206973206e6f74206f60008201527f776e6572206e6f7220617070726f766564000000000000000000000000000000602082015250565b60006152d6603183613ee3565b91506152e18261527a565b604082019050919050565b60006020820190508181036000830152615305816152c9565b9050919050565b7f4552433732313a20617070726f766520746f2063616c6c657200000000000000600082015250565b6000615342601983613ee3565b915061534d8261530c565b602082019050919050565b6000602082019050818103600083015261537181615335565b9050919050565b7f4e487b7100000000000000000000000000000000000000000000000000000000600052601260045260246000fd5b60006153b282613f93565b91506153bd83613f93565b9250826153cd576153cc615378565b5b828204905092915050565b60006153e382613f93565b91506153ee83613f93565b9250826153fe576153fd615378565b5b828206905092915050565b600061541482613f93565b915061541f83613f93565b9250817fffffffffffffffffffffffffffffffffffffffffffffffffffffffffffffffff048311821515161561545857615457614a83565b5b828202905092915050565b600061546e82613f93565b9150600082141561548257615481614a83565b5b600182039050919050565b7f537472696e67733a20686578206c656e67746820696e73756666696369656e74600082015250565b60006154c3602083613ee3565b91506154ce8261548d565b602082019050919050565b600060208201905081810360008301526154f2816154b6565b9050919050565b7f4552433732313a206f70657261746f7220717565727920666f72206e6f6e657860008201527f697374656e7420746f6b656e0000000000000000000000000000000000000000602082015250565b6000615555602c83613ee3565b9150615560826154f9565b604082019050919050565b6000602082019050818103600083015261558481615548565b9050919050565b7f4552433732313a207472616e73666572206f6620746f6b656e2074686174206960008201527f73206e6f74206f776e0000000000000000000000000000000000000000000000602082015250565b60006155e7602983613ee3565b91506155f28261558b565b604082019050919050565b60006020820190508181036000830152615616816155da565b9050919050565b7f4552433732313a207472616e7366657220746f20746865207a65726f2061646460008201527f7265737300000000000000000000000000000000000000000000000000000000602082015250565b6000615679602483613ee3565b91506156848261561d565b604082019050919050565b600060208201905081810360008301526156a88161566c565b9050919050565b7f4552433732313a207472616e7366657220746f206e6f6e20455243373231526560008201527f63656976657220696d706c656d656e7465720000000000000000000000000000602082015250565b600061570b603283613ee3565b9150615716826156af565b604082019050919050565b6000602082019050818103600083015261573a816156fe565b9050919050565b600081519050919050565b600082825260208201905092915050565b600061576882615741565b615772818561574c565b9350615782818560208601613ef4565b61578b81613f27565b840191505092915050565b60006080820190506157ab6000830187613ff6565b6157b86020830186613ff6565b6157c5604083018561443a565b81810360608301526157d7818461575d565b905095945050505050565b6000815190506157f181613dbe565b92915050565b60006020828403121561580d5761580c613d88565b5b600061581b848285016157e2565b9150509291505056fea26469706673582212200f196470772061cc35e24436a558da4dc070b0ec1cd540ba215a90fbfe14155b64736f6c634300080a0033",
  "immutableReferences": {},
  "source": "pragma solidity ^0.8.10;\r\n\r\nimport \"@openzeppelin/contracts/token/ERC721/ERC721.sol\";\r\nimport \"./Roles.sol\";\r\n\r\ncontract Faculty is ERC721, Roles{\r\n    uint256 _totalSupply = 0;\r\n    //mapping from tokenID to facultyName\r\n    mapping(uint256 => string) _facultyNameOfID;\r\n    //mapping from facultyName to tokenID\r\n    mapping(string => uint256) _IDOfFacultyName;\r\n\r\n    constructor() ERC721(\"Faculty\", \"FAC\") public{\r\n        _setupRole(DEFAULT_ADMIN_ROLE, msg.sender);\r\n        _setupRole(RECTOR_ROLE, msg.sender);\r\n    }\r\n\r\n    function mint(string memory _facultyName, address facultyAddress) public onlyRole(RECTOR_ROLE){\r\n        require(_IDOfFacultyName[_facultyName] == 0, \"This Faculty is already exist\");\r\n        grantFacultyRole(facultyAddress);\r\n        require(hasRole(FACULTY_ROLE, facultyAddress), \"This address is not in FACULTY_ROLE\");\r\n        require(keccak256(abi.encodePacked(_facultyName)) != keccak256(abi.encodePacked(\"\")), \"Faculty name cannot be empty\");\r\n        // Faculty - add\r\n        _totalSupply = _totalSupply + 1;\r\n        uint _id = _totalSupply; //tokenID's start from 1 because default uint256 value is 0\r\n        // Call the mint function of ERC721\r\n        _mint(facultyAddress, _id);\r\n        // Faculty - track it\r\n        _IDOfFacultyName[_facultyName] = _id;\r\n        _facultyNameOfID[_id] = _facultyName;\r\n    }\r\n    function burn(string memory _facultyName) public onlyRole(RECTOR_ROLE){\r\n        uint _id = _IDOfFacultyName[_facultyName];\r\n        require(_id != 0, \"This Faculty is not exist\");\r\n        require(keccak256(abi.encodePacked(_facultyNameOfID[_id])) == keccak256(abi.encodePacked(_facultyName)), \"Faculty names do not match\");\r\n        //Revoke Role\r\n        address owner = ownerOf(_id);\r\n        revokeFacultyRole(owner);\r\n        _burn(_id);\r\n        _facultyNameOfID[_id] = \"\";\r\n        _IDOfFacultyName[_facultyName] = 0;\r\n    }\r\n    function getFacultyName(uint256 id) public view returns(string memory facultyName){\r\n        return _facultyNameOfID[id];\r\n    }\r\n    function getFacultyID(string memory facultyName) public view returns(uint256 facultyID){\r\n        return _IDOfFacultyName[facultyName];\r\n    }\r\n    function getTotalSupply() public view returns(uint256 totalSupply){\r\n        return _totalSupply;\r\n    }\r\n\r\n    function transferFrom(//Only callable when minted\r\n        address from,\r\n        address to,\r\n        uint256 tokenId\r\n    ) public virtual override {\r\n        require(msg.sender == 0x0000000000000000000000000000000000000000, \"Transfer after mint is prohibited\");\r\n        super.transferFrom(from,to,tokenId);\r\n    }\r\n    function safeTransferFrom(//Only callable when minted\r\n        address from,\r\n        address to,\r\n        uint256 tokenId\r\n    ) public virtual override {\r\n        require(msg.sender == 0x0000000000000000000000000000000000000000, \"Transfer after mint is prohibited\");\r\n        super.safeTransferFrom(from,to,tokenId);\r\n    }\r\n    function safeTransferFrom(//Only callable when minted\r\n        address from,\r\n        address to,\r\n        uint256 tokenId,\r\n        bytes memory _data\r\n    ) public virtual override {\r\n        require(msg.sender == 0x0000000000000000000000000000000000000000, \"Transfer after mint is prohibited\");\r\n        super.safeTransferFrom(from, to, tokenId, _data);\r\n    }\r\n\r\n    function supportsInterface(bytes4 interfaceId) public view virtual override(ERC721, AccessControlEnumerable) returns (bool) {\r\n        return super.supportsInterface(interfaceId);\r\n    }\r\n    event showUint(uint256);\r\n}\r\n",
  "sourcePath": "C:\\Users\\asus\\Desktop\\Dersler\\CMPE492\\certification-project\\contracts\\Faculty.sol",
  "compiler": {
    "name": "solc",
    "version": "0.8.10+commit.fc410830.Emscripten.clang"
  },
  "schemaVersion": "3.4.4",
  "updatedAt": "2022-01-15T00:13:30.858Z",
  "networkType": "ethereum",
  "devdoc": {
    "kind": "dev",
    "methods": {
      "approve(address,uint256)": {
        "details": "See {IERC721-approve}."
      },
      "balanceOf(address)": {
        "details": "See {IERC721-balanceOf}."
      },
      "getApproved(uint256)": {
        "details": "See {IERC721-getApproved}."
      },
      "getRoleAdmin(bytes32)": {
        "details": "Returns the admin role that controls `role`. See {grantRole} and {revokeRole}. To change a role's admin, use {_setRoleAdmin}."
      },
      "getRoleMember(bytes32,uint256)": {
        "details": "Returns one of the accounts that have `role`. `index` must be a value between 0 and {getRoleMemberCount}, non-inclusive. Role bearers are not sorted in any particular way, and their ordering may change at any point. WARNING: When using {getRoleMember} and {getRoleMemberCount}, make sure you perform all queries on the same block. See the following https://forum.openzeppelin.com/t/iterating-over-elements-on-enumerableset-in-openzeppelin-contracts/2296[forum post] for more information."
      },
      "getRoleMemberCount(bytes32)": {
        "details": "Returns the number of accounts that have `role`. Can be used together with {getRoleMember} to enumerate all bearers of a role."
      },
      "grantRole(bytes32,address)": {
        "details": "Grants `role` to `account`. If `account` had not been already granted `role`, emits a {RoleGranted} event. Requirements: - the caller must have ``role``'s admin role."
      },
      "hasRole(bytes32,address)": {
        "details": "Returns `true` if `account` has been granted `role`."
      },
      "isApprovedForAll(address,address)": {
        "details": "See {IERC721-isApprovedForAll}."
      },
      "name()": {
        "details": "See {IERC721Metadata-name}."
      },
      "ownerOf(uint256)": {
        "details": "See {IERC721-ownerOf}."
      },
      "renounceRole(bytes32,address)": {
        "details": "Revokes `role` from the calling account. Roles are often managed via {grantRole} and {revokeRole}: this function's purpose is to provide a mechanism for accounts to lose their privileges if they are compromised (such as when a trusted device is misplaced). If the calling account had been revoked `role`, emits a {RoleRevoked} event. Requirements: - the caller must be `account`."
      },
      "revokeRole(bytes32,address)": {
        "details": "Revokes `role` from `account`. If `account` had been granted `role`, emits a {RoleRevoked} event. Requirements: - the caller must have ``role``'s admin role."
      },
      "safeTransferFrom(address,address,uint256)": {
        "details": "See {IERC721-safeTransferFrom}."
      },
      "safeTransferFrom(address,address,uint256,bytes)": {
        "details": "See {IERC721-safeTransferFrom}."
      },
      "setApprovalForAll(address,bool)": {
        "details": "See {IERC721-setApprovalForAll}."
      },
      "symbol()": {
        "details": "See {IERC721Metadata-symbol}."
      },
      "tokenURI(uint256)": {
        "details": "See {IERC721Metadata-tokenURI}."
      },
      "transferFrom(address,address,uint256)": {
        "details": "See {IERC721-transferFrom}."
      }
    },
    "version": 1
  },
  "userdoc": {
    "kind": "user",
    "methods": {},
    "version": 1
  }
}