{
  "contractName": "Faculty",
  "abi": [
    {
      "inputs": [],
      "stateMutability": "nonpayable",
      "type": "constructor"
    },
    {
      "anonymous": false,
      "inputs": [
        {
          "indexed": true,
          "internalType": "address",
          "name": "owner",
          "type": "address"
        },
        {
          "indexed": true,
          "internalType": "address",
          "name": "approved",
          "type": "address"
        },
        {
          "indexed": true,
          "internalType": "uint256",
          "name": "tokenId",
          "type": "uint256"
        }
      ],
      "name": "Approval",
      "type": "event"
    },
    {
      "anonymous": false,
      "inputs": [
        {
          "indexed": true,
          "internalType": "address",
          "name": "owner",
          "type": "address"
        },
        {
          "indexed": true,
          "internalType": "address",
          "name": "operator",
          "type": "address"
        },
        {
          "indexed": false,
          "internalType": "bool",
          "name": "approved",
          "type": "bool"
        }
      ],
      "name": "ApprovalForAll",
      "type": "event"
    },
    {
      "anonymous": false,
      "inputs": [
        {
          "indexed": true,
          "internalType": "bytes32",
          "name": "role",
          "type": "bytes32"
        },
        {
          "indexed": true,
          "internalType": "bytes32",
          "name": "previousAdminRole",
          "type": "bytes32"
        },
        {
          "indexed": true,
          "internalType": "bytes32",
          "name": "newAdminRole",
          "type": "bytes32"
        }
      ],
      "name": "RoleAdminChanged",
      "type": "event"
    },
    {
      "anonymous": false,
      "inputs": [
        {
          "indexed": true,
          "internalType": "bytes32",
          "name": "role",
          "type": "bytes32"
        },
        {
          "indexed": true,
          "internalType": "address",
          "name": "account",
          "type": "address"
        },
        {
          "indexed": true,
          "internalType": "address",
          "name": "sender",
          "type": "address"
        }
      ],
      "name": "RoleGranted",
      "type": "event"
    },
    {
      "anonymous": false,
      "inputs": [
        {
          "indexed": true,
          "internalType": "bytes32",
          "name": "role",
          "type": "bytes32"
        },
        {
          "indexed": true,
          "internalType": "address",
          "name": "account",
          "type": "address"
        },
        {
          "indexed": true,
          "internalType": "address",
          "name": "sender",
          "type": "address"
        }
      ],
      "name": "RoleRevoked",
      "type": "event"
    },
    {
      "anonymous": false,
      "inputs": [
        {
          "indexed": true,
          "internalType": "address",
          "name": "from",
          "type": "address"
        },
        {
          "indexed": true,
          "internalType": "address",
          "name": "to",
          "type": "address"
        },
        {
          "indexed": true,
          "internalType": "uint256",
          "name": "tokenId",
          "type": "uint256"
        }
      ],
      "name": "Transfer",
      "type": "event"
    },
    {
      "anonymous": false,
      "inputs": [
        {
          "indexed": false,
          "internalType": "uint256",
          "name": "",
          "type": "uint256"
        }
      ],
      "name": "showUint",
      "type": "event"
    },
    {
      "inputs": [],
      "name": "DEFAULT_ADMIN_ROLE",
      "outputs": [
        {
          "internalType": "bytes32",
          "name": "",
          "type": "bytes32"
        }
      ],
      "stateMutability": "view",
      "type": "function",
      "constant": true
    },
    {
      "inputs": [],
      "name": "DEPARTMENT_ROLE",
      "outputs": [
        {
          "internalType": "bytes32",
          "name": "",
          "type": "bytes32"
        }
      ],
      "stateMutability": "view",
      "type": "function",
      "constant": true
    },
    {
      "inputs": [],
      "name": "FACULTY_ROLE",
      "outputs": [
        {
          "internalType": "bytes32",
          "name": "",
          "type": "bytes32"
        }
      ],
      "stateMutability": "view",
      "type": "function",
      "constant": true
    },
    {
      "inputs": [],
      "name": "GRADUATED_ROLE",
      "outputs": [
        {
          "internalType": "bytes32",
          "name": "",
          "type": "bytes32"
        }
      ],
      "stateMutability": "view",
      "type": "function",
      "constant": true
    },
    {
      "inputs": [],
      "name": "INSTRUCTOR_ROLE",
      "outputs": [
        {
          "internalType": "bytes32",
          "name": "",
          "type": "bytes32"
        }
      ],
      "stateMutability": "view",
      "type": "function",
      "constant": true
    },
    {
      "inputs": [],
      "name": "RECTOR_ROLE",
      "outputs": [
        {
          "internalType": "bytes32",
          "name": "",
          "type": "bytes32"
        }
      ],
      "stateMutability": "view",
      "type": "function",
      "constant": true
    },
    {
      "inputs": [],
      "name": "STUDENT_ROLE",
      "outputs": [
        {
          "internalType": "bytes32",
          "name": "",
          "type": "bytes32"
        }
      ],
      "stateMutability": "view",
      "type": "function",
      "constant": true
    },
    {
      "inputs": [
        {
          "internalType": "address",
          "name": "to",
          "type": "address"
        },
        {
          "internalType": "uint256",
          "name": "tokenId",
          "type": "uint256"
        }
      ],
      "name": "approve",
      "outputs": [],
      "stateMutability": "nonpayable",
      "type": "function"
    },
    {
      "inputs": [
        {
          "internalType": "address",
          "name": "owner",
          "type": "address"
        }
      ],
      "name": "balanceOf",
      "outputs": [
        {
          "internalType": "uint256",
          "name": "",
          "type": "uint256"
        }
      ],
      "stateMutability": "view",
      "type": "function",
      "constant": true
    },
    {
      "inputs": [
        {
          "internalType": "uint256",
          "name": "tokenId",
          "type": "uint256"
        }
      ],
      "name": "getApproved",
      "outputs": [
        {
          "internalType": "address",
          "name": "",
          "type": "address"
        }
      ],
      "stateMutability": "view",
      "type": "function",
      "constant": true
    },
    {
      "inputs": [
        {
          "internalType": "bytes32",
          "name": "role",
          "type": "bytes32"
        }
      ],
      "name": "getRoleAdmin",
      "outputs": [
        {
          "internalType": "bytes32",
          "name": "",
          "type": "bytes32"
        }
      ],
      "stateMutability": "view",
      "type": "function",
      "constant": true
    },
    {
      "inputs": [
        {
          "internalType": "bytes32",
          "name": "role",
          "type": "bytes32"
        },
        {
          "internalType": "uint256",
          "name": "index",
          "type": "uint256"
        }
      ],
      "name": "getRoleMember",
      "outputs": [
        {
          "internalType": "address",
          "name": "",
          "type": "address"
        }
      ],
      "stateMutability": "view",
      "type": "function",
      "constant": true
    },
    {
      "inputs": [
        {
          "internalType": "bytes32",
          "name": "role",
          "type": "bytes32"
        }
      ],
      "name": "getRoleMemberCount",
      "outputs": [
        {
          "internalType": "uint256",
          "name": "",
          "type": "uint256"
        }
      ],
      "stateMutability": "view",
      "type": "function",
      "constant": true
    },
    {
      "inputs": [
        {
          "internalType": "address",
          "name": "account",
          "type": "address"
        }
      ],
      "name": "grantGraduatedRole",
      "outputs": [],
      "stateMutability": "nonpayable",
      "type": "function"
    },
    {
      "inputs": [
        {
          "internalType": "address",
          "name": "account",
          "type": "address"
        }
      ],
      "name": "grantInstructorRole",
      "outputs": [],
      "stateMutability": "nonpayable",
      "type": "function"
    },
    {
      "inputs": [
        {
          "internalType": "address",
          "name": "account",
          "type": "address"
        }
      ],
      "name": "grantRectorRole",
      "outputs": [],
      "stateMutability": "nonpayable",
      "type": "function"
    },
    {
      "inputs": [
        {
          "internalType": "bytes32",
          "name": "role",
          "type": "bytes32"
        },
        {
          "internalType": "address",
          "name": "account",
          "type": "address"
        }
      ],
      "name": "grantRole",
      "outputs": [],
      "stateMutability": "nonpayable",
      "type": "function"
    },
    {
      "inputs": [
        {
          "internalType": "address",
          "name": "account",
          "type": "address"
        }
      ],
      "name": "grantStudentRole",
      "outputs": [],
      "stateMutability": "nonpayable",
      "type": "function"
    },
    {
      "inputs": [
        {
          "internalType": "bytes32",
          "name": "role",
          "type": "bytes32"
        },
        {
          "internalType": "address",
          "name": "account",
          "type": "address"
        }
      ],
      "name": "hasRole",
      "outputs": [
        {
          "internalType": "bool",
          "name": "",
          "type": "bool"
        }
      ],
      "stateMutability": "view",
      "type": "function",
      "constant": true
    },
    {
      "inputs": [
        {
          "internalType": "address",
          "name": "owner",
          "type": "address"
        },
        {
          "internalType": "address",
          "name": "operator",
          "type": "address"
        }
      ],
      "name": "isApprovedForAll",
      "outputs": [
        {
          "internalType": "bool",
          "name": "",
          "type": "bool"
        }
      ],
      "stateMutability": "view",
      "type": "function",
      "constant": true
    },
    {
      "inputs": [],
      "name": "name",
      "outputs": [
        {
          "internalType": "string",
          "name": "",
          "type": "string"
        }
      ],
      "stateMutability": "view",
      "type": "function",
      "constant": true
    },
    {
      "inputs": [
        {
          "internalType": "uint256",
          "name": "tokenId",
          "type": "uint256"
        }
      ],
      "name": "ownerOf",
      "outputs": [
        {
          "internalType": "address",
          "name": "",
          "type": "address"
        }
      ],
      "stateMutability": "view",
      "type": "function",
      "constant": true
    },
    {
      "inputs": [
        {
          "internalType": "bytes32",
          "name": "role",
          "type": "bytes32"
        },
        {
          "internalType": "address",
          "name": "account",
          "type": "address"
        }
      ],
      "name": "renounceRole",
      "outputs": [],
      "stateMutability": "nonpayable",
      "type": "function"
    },
    {
      "inputs": [
        {
          "internalType": "address",
          "name": "account",
          "type": "address"
        }
      ],
      "name": "revokeInstructorRole",
      "outputs": [],
      "stateMutability": "nonpayable",
      "type": "function"
    },
    {
      "inputs": [
        {
          "internalType": "bytes32",
          "name": "role",
          "type": "bytes32"
        },
        {
          "internalType": "address",
          "name": "account",
          "type": "address"
        }
      ],
      "name": "revokeRole",
      "outputs": [],
      "stateMutability": "nonpayable",
      "type": "function"
    },
    {
      "inputs": [
        {
          "internalType": "address",
          "name": "account",
          "type": "address"
        }
      ],
      "name": "revokeStudentRole",
      "outputs": [],
      "stateMutability": "nonpayable",
      "type": "function"
    },
    {
      "inputs": [
        {
          "internalType": "address",
          "name": "operator",
          "type": "address"
        },
        {
          "internalType": "bool",
          "name": "approved",
          "type": "bool"
        }
      ],
      "name": "setApprovalForAll",
      "outputs": [],
      "stateMutability": "nonpayable",
      "type": "function"
    },
    {
      "inputs": [],
      "name": "symbol",
      "outputs": [
        {
          "internalType": "string",
          "name": "",
          "type": "string"
        }
      ],
      "stateMutability": "view",
      "type": "function",
      "constant": true
    },
    {
      "inputs": [
        {
          "internalType": "uint256",
          "name": "tokenId",
          "type": "uint256"
        }
      ],
      "name": "tokenURI",
      "outputs": [
        {
          "internalType": "string",
          "name": "",
          "type": "string"
        }
      ],
      "stateMutability": "view",
      "type": "function",
      "constant": true
    },
    {
      "inputs": [
        {
          "internalType": "string",
          "name": "_facultyName",
          "type": "string"
        },
        {
          "internalType": "address",
          "name": "facultyAddress",
          "type": "address"
        }
      ],
      "name": "mint",
      "outputs": [],
      "stateMutability": "nonpayable",
      "type": "function"
    },
    {
      "inputs": [
        {
          "internalType": "string",
          "name": "_facultyName",
          "type": "string"
        }
      ],
      "name": "burn",
      "outputs": [],
      "stateMutability": "nonpayable",
      "type": "function"
    },
    {
      "inputs": [
        {
          "internalType": "uint256",
          "name": "id",
          "type": "uint256"
        }
      ],
      "name": "getFacultyName",
      "outputs": [
        {
          "internalType": "string",
          "name": "facultyName",
          "type": "string"
        }
      ],
      "stateMutability": "view",
      "type": "function",
      "constant": true
    },
    {
      "inputs": [
        {
          "internalType": "string",
          "name": "facultyName",
          "type": "string"
        }
      ],
      "name": "getFacultyID",
      "outputs": [],
      "stateMutability": "nonpayable",
      "type": "function"
    },
    {
      "inputs": [
        {
          "internalType": "address",
          "name": "from",
          "type": "address"
        },
        {
          "internalType": "address",
          "name": "to",
          "type": "address"
        },
        {
          "internalType": "uint256",
          "name": "tokenId",
          "type": "uint256"
        }
      ],
      "name": "transferFrom",
      "outputs": [],
      "stateMutability": "nonpayable",
      "type": "function"
    },
    {
      "inputs": [
        {
          "internalType": "address",
          "name": "from",
          "type": "address"
        },
        {
          "internalType": "address",
          "name": "to",
          "type": "address"
        },
        {
          "internalType": "uint256",
          "name": "tokenId",
          "type": "uint256"
        }
      ],
      "name": "safeTransferFrom",
      "outputs": [],
      "stateMutability": "nonpayable",
      "type": "function"
    },
    {
      "inputs": [
        {
          "internalType": "address",
          "name": "from",
          "type": "address"
        },
        {
          "internalType": "address",
          "name": "to",
          "type": "address"
        },
        {
          "internalType": "uint256",
          "name": "tokenId",
          "type": "uint256"
        },
        {
          "internalType": "bytes",
          "name": "_data",
          "type": "bytes"
        }
      ],
      "name": "safeTransferFrom",
      "outputs": [],
      "stateMutability": "nonpayable",
      "type": "function"
    },
    {
      "inputs": [
        {
          "internalType": "bytes4",
          "name": "interfaceId",
          "type": "bytes4"
        }
      ],
      "name": "supportsInterface",
      "outputs": [
        {
          "internalType": "bool",
          "name": "",
          "type": "bool"
        }
      ],
      "stateMutability": "view",
      "type": "function",
      "constant": true
    }
  ],
  "bytecode": "0x608060405260006008553480156200001657600080fd5b506040518060400160405280600781526020017f466163756c7479000000000000000000000000000000000000000000000000008152506040518060400160405280600381526020017f464143000000000000000000000000000000000000000000000000000000000081525081600090805190602001906200009b9291906200039c565b508060019080519060200190620000b49291906200039c565b505050620000cc6000801b336200010460201b60201c565b620000fe7f5f1d1e303f9c0a1801dd708bdc4239781d66c88ca6cb941c5769ba09b5c1b285336200010460201b60201c565b620004b1565b6200011682826200011a60201b60201c565b5050565b6200013182826200016260201b620018a71760201c565b6200015d81600760008581526020019081526020016000206200025460201b620019881790919060201c565b505050565b6200017482826200028c60201b60201c565b620002505760016006600084815260200190815260200160002060000160008373ffffffffffffffffffffffffffffffffffffffff1673ffffffffffffffffffffffffffffffffffffffff16815260200190815260200160002060006101000a81548160ff021916908315150217905550620001f5620002f760201b60201c565b73ffffffffffffffffffffffffffffffffffffffff168173ffffffffffffffffffffffffffffffffffffffff16837f2f8788117e7eff1d82e926ec794901d17c78024a50270940304540a733656f0d60405160405180910390a45b5050565b600062000284836000018373ffffffffffffffffffffffffffffffffffffffff1660001b620002ff60201b60201c565b905092915050565b60006006600084815260200190815260200160002060000160008373ffffffffffffffffffffffffffffffffffffffff1673ffffffffffffffffffffffffffffffffffffffff16815260200190815260200160002060009054906101000a900460ff16905092915050565b600033905090565b60006200031383836200037960201b60201c565b6200036e57826000018290806001815401808255809150506001900390600052602060002001600090919091909150558260000180549050836001016000848152602001908152602001600020819055506001905062000373565b600090505b92915050565b600080836001016000848152602001908152602001600020541415905092915050565b828054620003aa906200047b565b90600052602060002090601f016020900481019282620003ce57600085556200041a565b82601f10620003e957805160ff19168380011785556200041a565b828001600101855582156200041a579182015b8281111562000419578251825591602001919060010190620003fc565b5b5090506200042991906200042d565b5090565b5b80821115620004485760008160009055506001016200042e565b5090565b7f4e487b7100000000000000000000000000000000000000000000000000000000600052602260045260246000fd5b600060028204905060018216806200049457607f821691505b60208210811415620004ab57620004aa6200044c565b5b50919050565b61499980620004c16000396000f3fe608060405234801561001057600080fd5b50600436106102275760003560e01c806370a0823111610130578063a22cb465116100b8578063ca15c8731161007c578063ca15c87314610670578063d547741f146106a0578063dafa1d2d146106bc578063e985e9c5146106d8578063f7be43fb1461070857610227565b8063a22cb465146105ce578063ad7be93a146105ea578063b88d4fde14610608578063c87b56dd14610624578063c94d10ad1461065457610227565b80639010d07c116100ff5780639010d07c1461051457806391d148541461054457806395d89b4114610574578063996dc02214610592578063a217fddf146105b057610227565b806370a082311461048e57806386f8e92c146104be5780638bcf979c146104da5780638df6674a146104f857610227565b806332b3c846116101b35780635ea07b1c116101825780635ea07b1c146103d85780635f1d514e146103f45780636352211e146104105780636fe3ceb8146104405780637048fae51461045e57610227565b806332b3c8461461036857806334604c471461038457806336568abe146103a057806342842e0e146103bc57610227565b80631c351a9d116101fa5780631c351a9d146102c657806323b872dd146102e2578063248a9ca3146102fe57806324d42a371461032e5780632f2ff15d1461034c57610227565b806301ffc9a71461022c57806306fdde031461025c578063081812fc1461027a578063095ea7b3146102aa575b600080fd5b61024660048036038101906102419190613075565b610726565b60405161025391906130bd565b60405180910390f35b610264610738565b6040516102719190613171565b60405180910390f35b610294600480360381019061028f91906131c9565b6107ca565b6040516102a19190613237565b60405180910390f35b6102c460048036038101906102bf919061327e565b61084f565b005b6102e060048036038101906102db91906133f3565b610967565b005b6102fc60048036038101906102f7919061344f565b610b91565b005b610318600480360381019061031391906134d8565b610c10565b6040516103259190613514565b60405180910390f35b610336610c30565b6040516103439190613514565b60405180910390f35b6103666004803603810190610361919061352f565b610c54565b005b610382600480360381019061037d919061356f565b610c7d565b005b61039e6004803603810190610399919061359c565b610cdd565b005b6103ba60048036038101906103b5919061352f565b610d35565b005b6103d660048036038101906103d1919061344f565b610db8565b005b6103f260048036038101906103ed919061356f565b610e37565b005b61040e6004803603810190610409919061356f565b610ef4565b005b61042a600480360381019061042591906131c9565b610f54565b6040516104379190613237565b60405180910390f35b610448611006565b6040516104559190613514565b60405180910390f35b610478600480360381019061047391906131c9565b61102a565b6040516104859190613171565b60405180910390f35b6104a860048036038101906104a3919061356f565b6110cf565b6040516104b591906135f4565b60405180910390f35b6104d860048036038101906104d3919061356f565b611187565b005b6104e26111e7565b6040516104ef9190613514565b60405180910390f35b610512600480360381019061050d919061356f565b61120b565b005b61052e6004803603810190610529919061360f565b6112af565b60405161053b9190613237565b60405180910390f35b61055e6004803603810190610559919061352f565b6112de565b60405161056b91906130bd565b60405180910390f35b61057c611349565b6040516105899190613171565b60405180910390f35b61059a6113db565b6040516105a79190613514565b60405180910390f35b6105b86113ff565b6040516105c59190613514565b60405180910390f35b6105e860048036038101906105e3919061367b565b611406565b005b6105f261141c565b6040516105ff9190613514565b60405180910390f35b610622600480360381019061061d919061375c565b611440565b005b61063e600480360381019061063991906131c9565b6114c1565b60405161064b9190613171565b60405180910390f35b61066e6004803603810190610669919061356f565b611568565b005b61068a600480360381019061068591906134d8565b6115c8565b60405161069791906135f4565b60405180910390f35b6106ba60048036038101906106b5919061352f565b6115ec565b005b6106d660048036038101906106d1919061359c565b611615565b005b6106f260048036038101906106ed91906137df565b6117ef565b6040516106ff91906130bd565b60405180910390f35b610710611883565b60405161071d9190613514565b60405180910390f35b6000610731826119b8565b9050919050565b6060600080546107479061384e565b80601f01602080910402602001604051908101604052809291908181526020018280546107739061384e565b80156107c05780601f10610795576101008083540402835291602001916107c0565b820191906000526020600020905b8154815290600101906020018083116107a357829003601f168201915b5050505050905090565b60006107d582611a32565b610814576040517f08c379a000000000000000000000000000000000000000000000000000000000815260040161080b906138f2565b60405180910390fd5b6004600083815260200190815260200160002060009054906101000a900473ffffffffffffffffffffffffffffffffffffffff169050919050565b600061085a82610f54565b90508073ffffffffffffffffffffffffffffffffffffffff168373ffffffffffffffffffffffffffffffffffffffff1614156108cb576040517f08c379a00000000000000000000000000000000000000000000000000000000081526004016108c290613984565b60405180910390fd5b8073ffffffffffffffffffffffffffffffffffffffff166108ea611a9e565b73ffffffffffffffffffffffffffffffffffffffff161480610919575061091881610913611a9e565b6117ef565b5b610958576040517f08c379a000000000000000000000000000000000000000000000000000000000815260040161094f90613a16565b60405180910390fd5b6109628383611aa6565b505050565b7f5f1d1e303f9c0a1801dd708bdc4239781d66c88ca6cb941c5769ba09b5c1b28561099981610994611a9e565b611b5f565b6000600a846040516109ab9190613a72565b908152602001604051809103902054146109fa576040517f08c379a00000000000000000000000000000000000000000000000000000000081526004016109f190613ad5565b60405180910390fd5b610a247ff3f9cfff7b46f415da5a492b1718971da203f87c6aae9299e7b408eb83ef8bee83610c54565b610a4e7ff3f9cfff7b46f415da5a492b1718971da203f87c6aae9299e7b408eb83ef8bee836112de565b610a8d576040517f08c379a0000000000000000000000000000000000000000000000000000000008152600401610a8490613b67565b60405180910390fd5b604051602001610a9c90613bad565b6040516020818303038152906040528051906020012083604051602001610ac39190613a72565b604051602081830303815290604052805190602001201415610b1a576040517f08c379a0000000000000000000000000000000000000000000000000000000008152600401610b1190613c0e565b60405180910390fd5b6001600854610b299190613c5d565b60088190555060006008549050610b408382611bfc565b80600a85604051610b519190613a72565b90815260200160405180910390208190555083600960008381526020019081526020016000209080519060200190610b8a929190612f66565b5050505050565b600073ffffffffffffffffffffffffffffffffffffffff163373ffffffffffffffffffffffffffffffffffffffff1614610c00576040517f08c379a0000000000000000000000000000000000000000000000000000000008152600401610bf790613d25565b60405180910390fd5b610c0b838383611dca565b505050565b600060066000838152602001908152602001600020600101549050919050565b7f5f1d1e303f9c0a1801dd708bdc4239781d66c88ca6cb941c5769ba09b5c1b28581565b610c5d82610c10565b610c6e81610c69611a9e565b611b5f565b610c788383611e2a565b505050565b7f5f1d1e303f9c0a1801dd708bdc4239781d66c88ca6cb941c5769ba09b5c1b285610caf81610caa611a9e565b611b5f565b610cd97f36a5c4aaacb6b388bbd448bf11096b7dafc5652bcc9046084fd0e95b1fb0b2cc836115ec565b5050565b7f790d0346f1ef8fe924b777511b00450bc606713b77bd7328f0ef750745cfa9dd600a82604051610d0e9190613a72565b908152602001604051809103902054604051610d2a91906135f4565b60405180910390a150565b610d3d611a9e565b73ffffffffffffffffffffffffffffffffffffffff168173ffffffffffffffffffffffffffffffffffffffff1614610daa576040517f08c379a0000000000000000000000000000000000000000000000000000000008152600401610da190613db7565b60405180910390fd5b610db48282611e5e565b5050565b600073ffffffffffffffffffffffffffffffffffffffff163373ffffffffffffffffffffffffffffffffffffffff1614610e27576040517f08c379a0000000000000000000000000000000000000000000000000000000008152600401610e1e90613d25565b60405180910390fd5b610e32838383611e92565b505050565b7f5f1d1e303f9c0a1801dd708bdc4239781d66c88ca6cb941c5769ba09b5c1b285610e6981610e64611a9e565b611b5f565b610e937f36a5c4aaacb6b388bbd448bf11096b7dafc5652bcc9046084fd0e95b1fb0b2cc836112de565b610e9c57600080fd5b610ec67f36a5c4aaacb6b388bbd448bf11096b7dafc5652bcc9046084fd0e95b1fb0b2cc836115ec565b610ef07f4758f7d70d6088cbfad5c79861ac6457ba2af02adf5ea419e97879ae24459cb683610c54565b5050565b7f5f1d1e303f9c0a1801dd708bdc4239781d66c88ca6cb941c5769ba09b5c1b285610f2681610f21611a9e565b611b5f565b610f507fae4a0595970935aa5495afbbb72e5f1f6ff1062766b4a3028c0c9b7d5cf7e34583610c54565b5050565b6000806002600084815260200190815260200160002060009054906101000a900473ffffffffffffffffffffffffffffffffffffffff169050600073ffffffffffffffffffffffffffffffffffffffff168173ffffffffffffffffffffffffffffffffffffffff161415610ffd576040517f08c379a0000000000000000000000000000000000000000000000000000000008152600401610ff490613e49565b60405180910390fd5b80915050919050565b7ff3f9cfff7b46f415da5a492b1718971da203f87c6aae9299e7b408eb83ef8bee81565b606060096000838152602001908152602001600020805461104a9061384e565b80601f01602080910402602001604051908101604052809291908181526020018280546110769061384e565b80156110c35780601f10611098576101008083540402835291602001916110c3565b820191906000526020600020905b8154815290600101906020018083116110a657829003601f168201915b50505050509050919050565b60008073ffffffffffffffffffffffffffffffffffffffff168273ffffffffffffffffffffffffffffffffffffffff161415611140576040517f08c379a000000000000000000000000000000000000000000000000000000000815260040161113790613edb565b60405180910390fd5b600360008373ffffffffffffffffffffffffffffffffffffffff1673ffffffffffffffffffffffffffffffffffffffff168152602001908152602001600020549050919050565b7f5f1d1e303f9c0a1801dd708bdc4239781d66c88ca6cb941c5769ba09b5c1b2856111b9816111b4611a9e565b611b5f565b6111e37fae4a0595970935aa5495afbbb72e5f1f6ff1062766b4a3028c0c9b7d5cf7e345836115ec565b5050565b7fae4a0595970935aa5495afbbb72e5f1f6ff1062766b4a3028c0c9b7d5cf7e34581565b7f5f1d1e303f9c0a1801dd708bdc4239781d66c88ca6cb941c5769ba09b5c1b28561123d81611238611a9e565b611b5f565b6112677f5f1d1e303f9c0a1801dd708bdc4239781d66c88ca6cb941c5769ba09b5c1b28583610c54565b6112746000801b83610c54565b6112816000801b33610d35565b6112ab7f5f1d1e303f9c0a1801dd708bdc4239781d66c88ca6cb941c5769ba09b5c1b28533610d35565b5050565b60006112d68260076000868152602001908152602001600020611eb290919063ffffffff16565b905092915050565b60006006600084815260200190815260200160002060000160008373ffffffffffffffffffffffffffffffffffffffff1673ffffffffffffffffffffffffffffffffffffffff16815260200190815260200160002060009054906101000a900460ff16905092915050565b6060600180546113589061384e565b80601f01602080910402602001604051908101604052809291908181526020018280546113849061384e565b80156113d15780601f106113a6576101008083540402835291602001916113d1565b820191906000526020600020905b8154815290600101906020018083116113b457829003601f168201915b5050505050905090565b7fe7837d04f36ce0b2f3cc662bf1b2b632a7fbd12ae95199e8bd3dcfbcc440b66b81565b6000801b81565b611418611411611a9e565b8383611ecc565b5050565b7f4758f7d70d6088cbfad5c79861ac6457ba2af02adf5ea419e97879ae24459cb681565b600073ffffffffffffffffffffffffffffffffffffffff163373ffffffffffffffffffffffffffffffffffffffff16146114af576040517f08c379a00000000000000000000000000000000000000000000000000000000081526004016114a690613d25565b60405180910390fd5b6114bb84848484612039565b50505050565b60606114cc82611a32565b61150b576040517f08c379a000000000000000000000000000000000000000000000000000000000815260040161150290613f6d565b60405180910390fd5b600061151561209b565b905060008151116115355760405180602001604052806000815250611560565b8061153f846120b2565b604051602001611550929190613f8d565b6040516020818303038152906040525b915050919050565b7f5f1d1e303f9c0a1801dd708bdc4239781d66c88ca6cb941c5769ba09b5c1b28561159a81611595611a9e565b611b5f565b6115c47f36a5c4aaacb6b388bbd448bf11096b7dafc5652bcc9046084fd0e95b1fb0b2cc83610c54565b5050565b60006115e560076000848152602001908152602001600020612213565b9050919050565b6115f582610c10565b61160681611601611a9e565b611b5f565b6116108383611e5e565b505050565b7f5f1d1e303f9c0a1801dd708bdc4239781d66c88ca6cb941c5769ba09b5c1b28561164781611642611a9e565b611b5f565b6000600a836040516116599190613a72565b908152602001604051809103902054905060008114156116ae576040517f08c379a00000000000000000000000000000000000000000000000000000000081526004016116a590613ffd565b60405180910390fd5b826040516020016116bf9190613a72565b60405160208183030381529060405280519060200120600960008381526020019081526020016000206040516020016116f891906140b1565b604051602081830303815290604052805190602001201461174e576040517f08c379a000000000000000000000000000000000000000000000000000000000815260040161174590614114565b60405180910390fd5b600061175982610f54565b90506117857ff3f9cfff7b46f415da5a492b1718971da203f87c6aae9299e7b408eb83ef8bee826115ec565b61178e82612228565b604051806020016040528060008152506009600084815260200190815260200160002090805190602001906117c4929190612f66565b506000600a856040516117d79190613a72565b90815260200160405180910390208190555050505050565b6000600560008473ffffffffffffffffffffffffffffffffffffffff1673ffffffffffffffffffffffffffffffffffffffff16815260200190815260200160002060008373ffffffffffffffffffffffffffffffffffffffff1673ffffffffffffffffffffffffffffffffffffffff16815260200190815260200160002060009054906101000a900460ff16905092915050565b7f36a5c4aaacb6b388bbd448bf11096b7dafc5652bcc9046084fd0e95b1fb0b2cc81565b6118b182826112de565b6119845760016006600084815260200190815260200160002060000160008373ffffffffffffffffffffffffffffffffffffffff1673ffffffffffffffffffffffffffffffffffffffff16815260200190815260200160002060006101000a81548160ff021916908315150217905550611929611a9e565b73ffffffffffffffffffffffffffffffffffffffff168173ffffffffffffffffffffffffffffffffffffffff16837f2f8788117e7eff1d82e926ec794901d17c78024a50270940304540a733656f0d60405160405180910390a45b5050565b60006119b0836000018373ffffffffffffffffffffffffffffffffffffffff1660001b612339565b905092915050565b60007f5a05180f000000000000000000000000000000000000000000000000000000007bffffffffffffffffffffffffffffffffffffffffffffffffffffffff1916827bffffffffffffffffffffffffffffffffffffffffffffffffffffffff19161480611a2b5750611a2a826123a9565b5b9050919050565b60008073ffffffffffffffffffffffffffffffffffffffff166002600084815260200190815260200160002060009054906101000a900473ffffffffffffffffffffffffffffffffffffffff1673ffffffffffffffffffffffffffffffffffffffff1614159050919050565b600033905090565b816004600083815260200190815260200160002060006101000a81548173ffffffffffffffffffffffffffffffffffffffff021916908373ffffffffffffffffffffffffffffffffffffffff160217905550808273ffffffffffffffffffffffffffffffffffffffff16611b1983610f54565b73ffffffffffffffffffffffffffffffffffffffff167f8c5be1e5ebec7d5bd14f71427d1e84f3dd0314c0f7b2291e5b200ac8c7c3b92560405160405180910390a45050565b611b6982826112de565b611bf857611b8e8173ffffffffffffffffffffffffffffffffffffffff166014612423565b611b9c8360001c6020612423565b604051602001611bad9291906141cc565b6040516020818303038152906040526040517f08c379a0000000000000000000000000000000000000000000000000000000008152600401611bef9190613171565b60405180910390fd5b5050565b600073ffffffffffffffffffffffffffffffffffffffff168273ffffffffffffffffffffffffffffffffffffffff161415611c6c576040517f08c379a0000000000000000000000000000000000000000000000000000000008152600401611c6390614252565b60405180910390fd5b611c7581611a32565b15611cb5576040517f08c379a0000000000000000000000000000000000000000000000000000000008152600401611cac906142be565b60405180910390fd5b611cc16000838361265f565b6001600360008473ffffffffffffffffffffffffffffffffffffffff1673ffffffffffffffffffffffffffffffffffffffff1681526020019081526020016000206000828254611d119190613c5d565b92505081905550816002600083815260200190815260200160002060006101000a81548173ffffffffffffffffffffffffffffffffffffffff021916908373ffffffffffffffffffffffffffffffffffffffff160217905550808273ffffffffffffffffffffffffffffffffffffffff16600073ffffffffffffffffffffffffffffffffffffffff167fddf252ad1be2c89b69c2b068fc378daa952ba7f163c4a11628f55a4df523b3ef60405160405180910390a45050565b611ddb611dd5611a9e565b82612664565b611e1a576040517f08c379a0000000000000000000000000000000000000000000000000000000008152600401611e1190614350565b60405180910390fd5b611e25838383612742565b505050565b611e3482826118a7565b611e59816007600085815260200190815260200160002061198890919063ffffffff16565b505050565b611e68828261299e565b611e8d8160076000858152602001908152602001600020612a8090919063ffffffff16565b505050565b611ead83838360405180602001604052806000815250611440565b505050565b6000611ec18360000183612ab0565b60001c905092915050565b8173ffffffffffffffffffffffffffffffffffffffff168373ffffffffffffffffffffffffffffffffffffffff161415611f3b576040517f08c379a0000000000000000000000000000000000000000000000000000000008152600401611f32906143bc565b60405180910390fd5b80600560008573ffffffffffffffffffffffffffffffffffffffff1673ffffffffffffffffffffffffffffffffffffffff16815260200190815260200160002060008473ffffffffffffffffffffffffffffffffffffffff1673ffffffffffffffffffffffffffffffffffffffff16815260200190815260200160002060006101000a81548160ff0219169083151502179055508173ffffffffffffffffffffffffffffffffffffffff168373ffffffffffffffffffffffffffffffffffffffff167f17307eab39ab6107e8899845ad3d59bd9653f200f220920489ca2b5937696c318360405161202c91906130bd565b60405180910390a3505050565b61204a612044611a9e565b83612664565b612089576040517f08c379a000000000000000000000000000000000000000000000000000000000815260040161208090614350565b60405180910390fd5b61209584848484612adb565b50505050565b606060405180602001604052806000815250905090565b606060008214156120fa576040518060400160405280600181526020017f3000000000000000000000000000000000000000000000000000000000000000815250905061220e565b600082905060005b6000821461212c578080612115906143dc565b915050600a826121259190614454565b9150612102565b60008167ffffffffffffffff811115612148576121476132c8565b5b6040519080825280601f01601f19166020018201604052801561217a5781602001600182028036833780820191505090505b5090505b60008514612207576001826121939190614485565b9150600a856121a291906144b9565b60306121ae9190613c5d565b60f81b8183815181106121c4576121c36144ea565b5b60200101907effffffffffffffffffffffffffffffffffffffffffffffffffffffffffffff1916908160001a905350600a856122009190614454565b945061217e565b8093505050505b919050565b600061222182600001612b37565b9050919050565b600061223382610f54565b90506122418160008461265f565b61224c600083611aa6565b6001600360008373ffffffffffffffffffffffffffffffffffffffff1673ffffffffffffffffffffffffffffffffffffffff168152602001908152602001600020600082825461229c9190614485565b925050819055506002600083815260200190815260200160002060006101000a81549073ffffffffffffffffffffffffffffffffffffffff021916905581600073ffffffffffffffffffffffffffffffffffffffff168273ffffffffffffffffffffffffffffffffffffffff167fddf252ad1be2c89b69c2b068fc378daa952ba7f163c4a11628f55a4df523b3ef60405160405180910390a45050565b60006123458383612b48565b61239e5782600001829080600181540180825580915050600190039060005260206000200160009091909190915055826000018054905083600101600084815260200190815260200160002081905550600190506123a3565b600090505b92915050565b60007f7965db0b000000000000000000000000000000000000000000000000000000007bffffffffffffffffffffffffffffffffffffffffffffffffffffffff1916827bffffffffffffffffffffffffffffffffffffffffffffffffffffffff1916148061241c575061241b82612b6b565b5b9050919050565b6060600060028360026124369190614519565b6124409190613c5d565b67ffffffffffffffff811115612459576124586132c8565b5b6040519080825280601f01601f19166020018201604052801561248b5781602001600182028036833780820191505090505b5090507f3000000000000000000000000000000000000000000000000000000000000000816000815181106124c3576124c26144ea565b5b60200101907effffffffffffffffffffffffffffffffffffffffffffffffffffffffffffff1916908160001a9053507f780000000000000000000000000000000000000000000000000000000000000081600181518110612527576125266144ea565b5b60200101907effffffffffffffffffffffffffffffffffffffffffffffffffffffffffffff1916908160001a905350600060018460026125679190614519565b6125719190613c5d565b90505b6001811115612611577f3031323334353637383961626364656600000000000000000000000000000000600f8616601081106125b3576125b26144ea565b5b1a60f81b8282815181106125ca576125c96144ea565b5b60200101907effffffffffffffffffffffffffffffffffffffffffffffffffffffffffffff1916908160001a905350600485901c94508061260a90614573565b9050612574565b5060008414612655576040517f08c379a000000000000000000000000000000000000000000000000000000000815260040161264c906145e9565b60405180910390fd5b8091505092915050565b505050565b600061266f82611a32565b6126ae576040517f08c379a00000000000000000000000000000000000000000000000000000000081526004016126a59061467b565b60405180910390fd5b60006126b983610f54565b90508073ffffffffffffffffffffffffffffffffffffffff168473ffffffffffffffffffffffffffffffffffffffff16148061272857508373ffffffffffffffffffffffffffffffffffffffff16612710846107ca565b73ffffffffffffffffffffffffffffffffffffffff16145b80612739575061273881856117ef565b5b91505092915050565b8273ffffffffffffffffffffffffffffffffffffffff1661276282610f54565b73ffffffffffffffffffffffffffffffffffffffff16146127b8576040517f08c379a00000000000000000000000000000000000000000000000000000000081526004016127af9061470d565b60405180910390fd5b600073ffffffffffffffffffffffffffffffffffffffff168273ffffffffffffffffffffffffffffffffffffffff161415612828576040517f08c379a000000000000000000000000000000000000000000000000000000000815260040161281f9061479f565b60405180910390fd5b61283383838361265f565b61283e600082611aa6565b6001600360008573ffffffffffffffffffffffffffffffffffffffff1673ffffffffffffffffffffffffffffffffffffffff168152602001908152602001600020600082825461288e9190614485565b925050819055506001600360008473ffffffffffffffffffffffffffffffffffffffff1673ffffffffffffffffffffffffffffffffffffffff16815260200190815260200160002060008282546128e59190613c5d565b92505081905550816002600083815260200190815260200160002060006101000a81548173ffffffffffffffffffffffffffffffffffffffff021916908373ffffffffffffffffffffffffffffffffffffffff160217905550808273ffffffffffffffffffffffffffffffffffffffff168473ffffffffffffffffffffffffffffffffffffffff167fddf252ad1be2c89b69c2b068fc378daa952ba7f163c4a11628f55a4df523b3ef60405160405180910390a4505050565b6129a882826112de565b15612a7c5760006006600084815260200190815260200160002060000160008373ffffffffffffffffffffffffffffffffffffffff1673ffffffffffffffffffffffffffffffffffffffff16815260200190815260200160002060006101000a81548160ff021916908315150217905550612a21611a9e565b73ffffffffffffffffffffffffffffffffffffffff168173ffffffffffffffffffffffffffffffffffffffff16837ff6391f5c32d9c69d2a47ea670b442974b53935d1edc7fd64eb21e047a839171b60405160405180910390a45b5050565b6000612aa8836000018373ffffffffffffffffffffffffffffffffffffffff1660001b612c4d565b905092915050565b6000826000018281548110612ac857612ac76144ea565b5b9060005260206000200154905092915050565b612ae6848484612742565b612af284848484612d61565b612b31576040517f08c379a0000000000000000000000000000000000000000000000000000000008152600401612b2890614831565b60405180910390fd5b50505050565b600081600001805490509050919050565b600080836001016000848152602001908152602001600020541415905092915050565b60007f80ac58cd000000000000000000000000000000000000000000000000000000007bffffffffffffffffffffffffffffffffffffffffffffffffffffffff1916827bffffffffffffffffffffffffffffffffffffffffffffffffffffffff19161480612c3657507f5b5e139f000000000000000000000000000000000000000000000000000000007bffffffffffffffffffffffffffffffffffffffffffffffffffffffff1916827bffffffffffffffffffffffffffffffffffffffffffffffffffffffff1916145b80612c465750612c4582612ee9565b5b9050919050565b60008083600101600084815260200190815260200160002054905060008114612d55576000600182612c7f9190614485565b9050600060018660000180549050612c979190614485565b9050818114612d06576000866000018281548110612cb857612cb76144ea565b5b9060005260206000200154905080876000018481548110612cdc57612cdb6144ea565b5b90600052602060002001819055508387600101600083815260200190815260200160002081905550505b85600001805480612d1a57612d19614851565b5b600190038181906000526020600020016000905590558560010160008681526020019081526020016000206000905560019350505050612d5b565b60009150505b92915050565b6000612d828473ffffffffffffffffffffffffffffffffffffffff16612f53565b15612edc578373ffffffffffffffffffffffffffffffffffffffff1663150b7a02612dab611a9e565b8786866040518563ffffffff1660e01b8152600401612dcd94939291906148d5565b6020604051808303816000875af1925050508015612e0957506040513d601f19601f82011682018060405250810190612e069190614936565b60015b612e8c573d8060008114612e39576040519150601f19603f3d011682016040523d82523d6000602084013e612e3e565b606091505b50600081511415612e84576040517f08c379a0000000000000000000000000000000000000000000000000000000008152600401612e7b90614831565b60405180910390fd5b805181602001fd5b63150b7a0260e01b7bffffffffffffffffffffffffffffffffffffffffffffffffffffffff1916817bffffffffffffffffffffffffffffffffffffffffffffffffffffffff191614915050612ee1565b600190505b949350505050565b60007f01ffc9a7000000000000000000000000000000000000000000000000000000007bffffffffffffffffffffffffffffffffffffffffffffffffffffffff1916827bffffffffffffffffffffffffffffffffffffffffffffffffffffffff1916149050919050565b600080823b905060008111915050919050565b828054612f729061384e565b90600052602060002090601f016020900481019282612f945760008555612fdb565b82601f10612fad57805160ff1916838001178555612fdb565b82800160010185558215612fdb579182015b82811115612fda578251825591602001919060010190612fbf565b5b509050612fe89190612fec565b5090565b5b80821115613005576000816000905550600101612fed565b5090565b6000604051905090565b600080fd5b600080fd5b60007fffffffff0000000000000000000000000000000000000000000000000000000082169050919050565b6130528161301d565b811461305d57600080fd5b50565b60008135905061306f81613049565b92915050565b60006020828403121561308b5761308a613013565b5b600061309984828501613060565b91505092915050565b60008115159050919050565b6130b7816130a2565b82525050565b60006020820190506130d260008301846130ae565b92915050565b600081519050919050565b600082825260208201905092915050565b60005b838110156131125780820151818401526020810190506130f7565b83811115613121576000848401525b50505050565b6000601f19601f8301169050919050565b6000613143826130d8565b61314d81856130e3565b935061315d8185602086016130f4565b61316681613127565b840191505092915050565b6000602082019050818103600083015261318b8184613138565b905092915050565b6000819050919050565b6131a681613193565b81146131b157600080fd5b50565b6000813590506131c38161319d565b92915050565b6000602082840312156131df576131de613013565b5b60006131ed848285016131b4565b91505092915050565b600073ffffffffffffffffffffffffffffffffffffffff82169050919050565b6000613221826131f6565b9050919050565b61323181613216565b82525050565b600060208201905061324c6000830184613228565b92915050565b61325b81613216565b811461326657600080fd5b50565b60008135905061327881613252565b92915050565b6000806040838503121561329557613294613013565b5b60006132a385828601613269565b92505060206132b4858286016131b4565b9150509250929050565b600080fd5b600080fd5b7f4e487b7100000000000000000000000000000000000000000000000000000000600052604160045260246000fd5b61330082613127565b810181811067ffffffffffffffff8211171561331f5761331e6132c8565b5b80604052505050565b6000613332613009565b905061333e82826132f7565b919050565b600067ffffffffffffffff82111561335e5761335d6132c8565b5b61336782613127565b9050602081019050919050565b82818337600083830152505050565b600061339661339184613343565b613328565b9050828152602081018484840111156133b2576133b16132c3565b5b6133bd848285613374565b509392505050565b600082601f8301126133da576133d96132be565b5b81356133ea848260208601613383565b91505092915050565b6000806040838503121561340a57613409613013565b5b600083013567ffffffffffffffff81111561342857613427613018565b5b613434858286016133c5565b925050602061344585828601613269565b9150509250929050565b60008060006060848603121561346857613467613013565b5b600061347686828701613269565b935050602061348786828701613269565b9250506040613498868287016131b4565b9150509250925092565b6000819050919050565b6134b5816134a2565b81146134c057600080fd5b50565b6000813590506134d2816134ac565b92915050565b6000602082840312156134ee576134ed613013565b5b60006134fc848285016134c3565b91505092915050565b61350e816134a2565b82525050565b60006020820190506135296000830184613505565b92915050565b6000806040838503121561354657613545613013565b5b6000613554858286016134c3565b925050602061356585828601613269565b9150509250929050565b60006020828403121561358557613584613013565b5b600061359384828501613269565b91505092915050565b6000602082840312156135b2576135b1613013565b5b600082013567ffffffffffffffff8111156135d0576135cf613018565b5b6135dc848285016133c5565b91505092915050565b6135ee81613193565b82525050565b600060208201905061360960008301846135e5565b92915050565b6000806040838503121561362657613625613013565b5b6000613634858286016134c3565b9250506020613645858286016131b4565b9150509250929050565b613658816130a2565b811461366357600080fd5b50565b6000813590506136758161364f565b92915050565b6000806040838503121561369257613691613013565b5b60006136a085828601613269565b92505060206136b185828601613666565b9150509250929050565b600067ffffffffffffffff8211156136d6576136d56132c8565b5b6136df82613127565b9050602081019050919050565b60006136ff6136fa846136bb565b613328565b90508281526020810184848401111561371b5761371a6132c3565b5b613726848285613374565b509392505050565b600082601f830112613743576137426132be565b5b81356137538482602086016136ec565b91505092915050565b6000806000806080858703121561377657613775613013565b5b600061378487828801613269565b945050602061379587828801613269565b93505060406137a6878288016131b4565b925050606085013567ffffffffffffffff8111156137c7576137c6613018565b5b6137d38782880161372e565b91505092959194509250565b600080604083850312156137f6576137f5613013565b5b600061380485828601613269565b925050602061381585828601613269565b9150509250929050565b7f4e487b7100000000000000000000000000000000000000000000000000000000600052602260045260246000fd5b6000600282049050600182168061386657607f821691505b6020821081141561387a5761387961381f565b5b50919050565b7f4552433732313a20617070726f76656420717565727920666f72206e6f6e657860008201527f697374656e7420746f6b656e0000000000000000000000000000000000000000602082015250565b60006138dc602c836130e3565b91506138e782613880565b604082019050919050565b6000602082019050818103600083015261390b816138cf565b9050919050565b7f4552433732313a20617070726f76616c20746f2063757272656e74206f776e6560008201527f7200000000000000000000000000000000000000000000000000000000000000602082015250565b600061396e6021836130e3565b915061397982613912565b604082019050919050565b6000602082019050818103600083015261399d81613961565b9050919050565b7f4552433732313a20617070726f76652063616c6c6572206973206e6f74206f7760008201527f6e6572206e6f7220617070726f76656420666f7220616c6c0000000000000000602082015250565b6000613a006038836130e3565b9150613a0b826139a4565b604082019050919050565b60006020820190508181036000830152613a2f816139f3565b9050919050565b600081905092915050565b6000613a4c826130d8565b613a568185613a36565b9350613a668185602086016130f4565b80840191505092915050565b6000613a7e8284613a41565b915081905092915050565b7f5468697320466163756c747920697320616c7265616479206578697374000000600082015250565b6000613abf601d836130e3565b9150613aca82613a89565b602082019050919050565b60006020820190508181036000830152613aee81613ab2565b9050919050565b7f546869732061646472657373206973206e6f7420696e20464143554c54595f5260008201527f4f4c450000000000000000000000000000000000000000000000000000000000602082015250565b6000613b516023836130e3565b9150613b5c82613af5565b604082019050919050565b60006020820190508181036000830152613b8081613b44565b9050919050565b50565b6000613b97600083613a36565b9150613ba282613b87565b600082019050919050565b6000613bb882613b8a565b9150819050919050565b7f466163756c7479206e616d652063616e6e6f7420626520656d70747900000000600082015250565b6000613bf8601c836130e3565b9150613c0382613bc2565b602082019050919050565b60006020820190508181036000830152613c2781613beb565b9050919050565b7f4e487b7100000000000000000000000000000000000000000000000000000000600052601160045260246000fd5b6000613c6882613193565b9150613c7383613193565b9250827fffffffffffffffffffffffffffffffffffffffffffffffffffffffffffffffff03821115613ca857613ca7613c2e565b5b828201905092915050565b7f5472616e73666572206166746572206d696e742069732070726f68696269746560008201527f6400000000000000000000000000000000000000000000000000000000000000602082015250565b6000613d0f6021836130e3565b9150613d1a82613cb3565b604082019050919050565b60006020820190508181036000830152613d3e81613d02565b9050919050565b7f416363657373436f6e74726f6c3a2063616e206f6e6c792072656e6f756e636560008201527f20726f6c657320666f722073656c660000000000000000000000000000000000602082015250565b6000613da1602f836130e3565b9150613dac82613d45565b604082019050919050565b60006020820190508181036000830152613dd081613d94565b9050919050565b7f4552433732313a206f776e657220717565727920666f72206e6f6e657869737460008201527f656e7420746f6b656e0000000000000000000000000000000000000000000000602082015250565b6000613e336029836130e3565b9150613e3e82613dd7565b604082019050919050565b60006020820190508181036000830152613e6281613e26565b9050919050565b7f4552433732313a2062616c616e636520717565727920666f7220746865207a6560008201527f726f206164647265737300000000000000000000000000000000000000000000602082015250565b6000613ec5602a836130e3565b9150613ed082613e69565b604082019050919050565b60006020820190508181036000830152613ef481613eb8565b9050919050565b7f4552433732314d657461646174613a2055524920717565727920666f72206e6f60008201527f6e6578697374656e7420746f6b656e0000000000000000000000000000000000602082015250565b6000613f57602f836130e3565b9150613f6282613efb565b604082019050919050565b60006020820190508181036000830152613f8681613f4a565b9050919050565b6000613f998285613a41565b9150613fa58284613a41565b91508190509392505050565b7f5468697320466163756c7479206973206e6f7420657869737400000000000000600082015250565b6000613fe76019836130e3565b9150613ff282613fb1565b602082019050919050565b6000602082019050818103600083015261401681613fda565b9050919050565b60008190508160005260206000209050919050565b6000815461403f8161384e565b6140498186613a36565b945060018216600081146140645760018114614075576140a8565b60ff198316865281860193506140a8565b61407e8561401d565b60005b838110156140a057815481890152600182019150602081019050614081565b838801955050505b50505092915050565b60006140bd8284614032565b915081905092915050565b7f466163756c7479206e616d657320646f206e6f74206d61746368000000000000600082015250565b60006140fe601a836130e3565b9150614109826140c8565b602082019050919050565b6000602082019050818103600083015261412d816140f1565b9050919050565b7f416363657373436f6e74726f6c3a206163636f756e7420000000000000000000600082015250565b600061416a601783613a36565b915061417582614134565b601782019050919050565b7f206973206d697373696e6720726f6c6520000000000000000000000000000000600082015250565b60006141b6601183613a36565b91506141c182614180565b601182019050919050565b60006141d78261415d565b91506141e38285613a41565b91506141ee826141a9565b91506141fa8284613a41565b91508190509392505050565b7f4552433732313a206d696e7420746f20746865207a65726f2061646472657373600082015250565b600061423c6020836130e3565b915061424782614206565b602082019050919050565b6000602082019050818103600083015261426b8161422f565b9050919050565b7f4552433732313a20746f6b656e20616c7265616479206d696e74656400000000600082015250565b60006142a8601c836130e3565b91506142b382614272565b602082019050919050565b600060208201905081810360008301526142d78161429b565b9050919050565b7f4552433732313a207472616e736665722063616c6c6572206973206e6f74206f60008201527f776e6572206e6f7220617070726f766564000000000000000000000000000000602082015250565b600061433a6031836130e3565b9150614345826142de565b604082019050919050565b600060208201905081810360008301526143698161432d565b9050919050565b7f4552433732313a20617070726f766520746f2063616c6c657200000000000000600082015250565b60006143a66019836130e3565b91506143b182614370565b602082019050919050565b600060208201905081810360008301526143d581614399565b9050919050565b60006143e782613193565b91507fffffffffffffffffffffffffffffffffffffffffffffffffffffffffffffffff82141561441a57614419613c2e565b5b600182019050919050565b7f4e487b7100000000000000000000000000000000000000000000000000000000600052601260045260246000fd5b600061445f82613193565b915061446a83613193565b92508261447a57614479614425565b5b828204905092915050565b600061449082613193565b915061449b83613193565b9250828210156144ae576144ad613c2e565b5b828203905092915050565b60006144c482613193565b91506144cf83613193565b9250826144df576144de614425565b5b828206905092915050565b7f4e487b7100000000000000000000000000000000000000000000000000000000600052603260045260246000fd5b600061452482613193565b915061452f83613193565b9250817fffffffffffffffffffffffffffffffffffffffffffffffffffffffffffffffff048311821515161561456857614567613c2e565b5b828202905092915050565b600061457e82613193565b9150600082141561459257614591613c2e565b5b600182039050919050565b7f537472696e67733a20686578206c656e67746820696e73756666696369656e74600082015250565b60006145d36020836130e3565b91506145de8261459d565b602082019050919050565b60006020820190508181036000830152614602816145c6565b9050919050565b7f4552433732313a206f70657261746f7220717565727920666f72206e6f6e657860008201527f697374656e7420746f6b656e0000000000000000000000000000000000000000602082015250565b6000614665602c836130e3565b915061467082614609565b604082019050919050565b6000602082019050818103600083015261469481614658565b9050919050565b7f4552433732313a207472616e73666572206f6620746f6b656e2074686174206960008201527f73206e6f74206f776e0000000000000000000000000000000000000000000000602082015250565b60006146f76029836130e3565b91506147028261469b565b604082019050919050565b60006020820190508181036000830152614726816146ea565b9050919050565b7f4552433732313a207472616e7366657220746f20746865207a65726f2061646460008201527f7265737300000000000000000000000000000000000000000000000000000000602082015250565b60006147896024836130e3565b91506147948261472d565b604082019050919050565b600060208201905081810360008301526147b88161477c565b9050919050565b7f4552433732313a207472616e7366657220746f206e6f6e20455243373231526560008201527f63656976657220696d706c656d656e7465720000000000000000000000000000602082015250565b600061481b6032836130e3565b9150614826826147bf565b604082019050919050565b6000602082019050818103600083015261484a8161480e565b9050919050565b7f4e487b7100000000000000000000000000000000000000000000000000000000600052603160045260246000fd5b600081519050919050565b600082825260208201905092915050565b60006148a782614880565b6148b1818561488b565b93506148c18185602086016130f4565b6148ca81613127565b840191505092915050565b60006080820190506148ea6000830187613228565b6148f76020830186613228565b61490460408301856135e5565b8181036060830152614916818461489c565b905095945050505050565b60008151905061493081613049565b92915050565b60006020828403121561494c5761494b613013565b5b600061495a84828501614921565b9150509291505056fea2646970667358221220cbfaee5ee59cbbc8e00f6d41ddea5db7959cd1cd24381f5fd5de35303de67c0f64736f6c634300080a0033",
  "immutableReferences": {},
  "source": "pragma solidity ^0.8.10;\r\n\r\nimport \"@openzeppelin/contracts/token/ERC721/ERC721.sol\";\r\nimport \"./Roles.sol\";\r\n\r\ncontract Faculty is ERC721, Roles{\r\n    uint256 _totalSupply = 0;\r\n    //mapping from tokenID to facultyName\r\n    mapping(uint256 => string) _facultyNameOfID;\r\n    //mapping from facultyName to tokenID\r\n    mapping(string => uint256) _IDOfFacultyName;\r\n\r\n    constructor() ERC721(\"Faculty\", \"FAC\") public{\r\n        _setupRole(DEFAULT_ADMIN_ROLE, msg.sender);\r\n        _setupRole(RECTOR_ROLE, msg.sender);\r\n    }\r\n\r\n    function mint(string memory _facultyName, address facultyAddress) public onlyRole(RECTOR_ROLE){\r\n        require(_IDOfFacultyName[_facultyName] == 0, \"This Faculty is already exist\");\r\n        grantRole(FACULTY_ROLE, facultyAddress);\r\n        require(hasRole(FACULTY_ROLE, facultyAddress), \"This address is not in FACULTY_ROLE\");\r\n        require(keccak256(abi.encodePacked(_facultyName)) != keccak256(abi.encodePacked(\"\")), \"Faculty name cannot be empty\");\r\n        // Faculty - add\r\n        _totalSupply = _totalSupply + 1;\r\n        uint _id = _totalSupply; //tokenID's start from 1 because default uint256 value is 0\r\n        // Call the mint function of ERC721\r\n        _mint(facultyAddress, _id);\r\n        // Faculty - track it\r\n        _IDOfFacultyName[_facultyName] = _id;\r\n        _facultyNameOfID[_id] = _facultyName;\r\n    }\r\n    function burn(string memory _facultyName) public onlyRole(RECTOR_ROLE){\r\n        uint _id = _IDOfFacultyName[_facultyName];\r\n        require(_id != 0, \"This Faculty is not exist\");\r\n        require(keccak256(abi.encodePacked(_facultyNameOfID[_id])) == keccak256(abi.encodePacked(_facultyName)), \"Faculty names do not match\");\r\n        //Revoke Role\r\n        address owner = ownerOf(_id);\r\n        revokeRole(FACULTY_ROLE, owner);\r\n        _burn(_id);\r\n        _facultyNameOfID[_id] = \"\";\r\n        _IDOfFacultyName[_facultyName] = 0;\r\n    }\r\n    function getFacultyName(uint256 id) public view returns(string memory facultyName){\r\n        return _facultyNameOfID[id];\r\n    }\r\n    function getFacultyID(string memory facultyName) public{\r\n        emit showUint(_IDOfFacultyName[facultyName]);\r\n    }\r\n\r\n    function transferFrom(//Only callable when minted\r\n        address from,\r\n        address to,\r\n        uint256 tokenId\r\n    ) public virtual override {\r\n        require(msg.sender == 0x0000000000000000000000000000000000000000, \"Transfer after mint is prohibited\");\r\n        super.transferFrom(from,to,tokenId);\r\n    }\r\n    function safeTransferFrom(//Only callable when minted\r\n        address from,\r\n        address to,\r\n        uint256 tokenId\r\n    ) public virtual override {\r\n        require(msg.sender == 0x0000000000000000000000000000000000000000, \"Transfer after mint is prohibited\");\r\n        super.safeTransferFrom(from,to,tokenId);\r\n    }\r\n    function safeTransferFrom(//Only callable when minted\r\n        address from,\r\n        address to,\r\n        uint256 tokenId,\r\n        bytes memory _data\r\n    ) public virtual override {\r\n        require(msg.sender == 0x0000000000000000000000000000000000000000, \"Transfer after mint is prohibited\");\r\n        super.safeTransferFrom(from, to, tokenId, _data);\r\n    }\r\n\r\n    function supportsInterface(bytes4 interfaceId) public view virtual override(ERC721, AccessControlEnumerable) returns (bool) {\r\n        return super.supportsInterface(interfaceId);\r\n    }\r\n    event showUint(uint256);\r\n}\r\n",
  "sourcePath": "C:\\Users\\asus\\Desktop\\Dersler\\CMPE492\\certification-project\\contracts\\Faculty.sol",
  "compiler": {
    "name": "solc",
    "version": "0.8.10+commit.fc410830.Emscripten.clang"
  },
  "schemaVersion": "3.4.4",
  "updatedAt": "2022-01-11T23:00:58.797Z",
  "networkType": "ethereum",
  "devdoc": {
    "kind": "dev",
    "methods": {
      "approve(address,uint256)": {
        "details": "See {IERC721-approve}."
      },
      "balanceOf(address)": {
        "details": "See {IERC721-balanceOf}."
      },
      "getApproved(uint256)": {
        "details": "See {IERC721-getApproved}."
      },
      "getRoleAdmin(bytes32)": {
        "details": "Returns the admin role that controls `role`. See {grantRole} and {revokeRole}. To change a role's admin, use {_setRoleAdmin}."
      },
      "getRoleMember(bytes32,uint256)": {
        "details": "Returns one of the accounts that have `role`. `index` must be a value between 0 and {getRoleMemberCount}, non-inclusive. Role bearers are not sorted in any particular way, and their ordering may change at any point. WARNING: When using {getRoleMember} and {getRoleMemberCount}, make sure you perform all queries on the same block. See the following https://forum.openzeppelin.com/t/iterating-over-elements-on-enumerableset-in-openzeppelin-contracts/2296[forum post] for more information."
      },
      "getRoleMemberCount(bytes32)": {
        "details": "Returns the number of accounts that have `role`. Can be used together with {getRoleMember} to enumerate all bearers of a role."
      },
      "grantRole(bytes32,address)": {
        "details": "Grants `role` to `account`. If `account` had not been already granted `role`, emits a {RoleGranted} event. Requirements: - the caller must have ``role``'s admin role."
      },
      "hasRole(bytes32,address)": {
        "details": "Returns `true` if `account` has been granted `role`."
      },
      "isApprovedForAll(address,address)": {
        "details": "See {IERC721-isApprovedForAll}."
      },
      "name()": {
        "details": "See {IERC721Metadata-name}."
      },
      "ownerOf(uint256)": {
        "details": "See {IERC721-ownerOf}."
      },
      "renounceRole(bytes32,address)": {
        "details": "Revokes `role` from the calling account. Roles are often managed via {grantRole} and {revokeRole}: this function's purpose is to provide a mechanism for accounts to lose their privileges if they are compromised (such as when a trusted device is misplaced). If the calling account had been revoked `role`, emits a {RoleRevoked} event. Requirements: - the caller must be `account`."
      },
      "revokeRole(bytes32,address)": {
        "details": "Revokes `role` from `account`. If `account` had been granted `role`, emits a {RoleRevoked} event. Requirements: - the caller must have ``role``'s admin role."
      },
      "safeTransferFrom(address,address,uint256)": {
        "details": "See {IERC721-safeTransferFrom}."
      },
      "safeTransferFrom(address,address,uint256,bytes)": {
        "details": "See {IERC721-safeTransferFrom}."
      },
      "setApprovalForAll(address,bool)": {
        "details": "See {IERC721-setApprovalForAll}."
      },
      "symbol()": {
        "details": "See {IERC721Metadata-symbol}."
      },
      "tokenURI(uint256)": {
        "details": "See {IERC721Metadata-tokenURI}."
      },
      "transferFrom(address,address,uint256)": {
        "details": "See {IERC721-transferFrom}."
      }
    },
    "version": 1
  },
  "userdoc": {
    "kind": "user",
    "methods": {},
    "version": 1
  }
}