{
  "contractName": "Faculty",
  "abi": [
    {
      "inputs": [
        {
          "internalType": "address",
          "name": "_rolesContractAddress",
          "type": "address"
        }
      ],
      "stateMutability": "nonpayable",
      "type": "constructor"
    },
    {
      "anonymous": false,
      "inputs": [
        {
          "indexed": true,
          "internalType": "address",
          "name": "owner",
          "type": "address"
        },
        {
          "indexed": true,
          "internalType": "address",
          "name": "approved",
          "type": "address"
        },
        {
          "indexed": true,
          "internalType": "uint256",
          "name": "tokenId",
          "type": "uint256"
        }
      ],
      "name": "Approval",
      "type": "event"
    },
    {
      "anonymous": false,
      "inputs": [
        {
          "indexed": true,
          "internalType": "address",
          "name": "owner",
          "type": "address"
        },
        {
          "indexed": true,
          "internalType": "address",
          "name": "operator",
          "type": "address"
        },
        {
          "indexed": false,
          "internalType": "bool",
          "name": "approved",
          "type": "bool"
        }
      ],
      "name": "ApprovalForAll",
      "type": "event"
    },
    {
      "anonymous": false,
      "inputs": [
        {
          "indexed": true,
          "internalType": "address",
          "name": "from",
          "type": "address"
        },
        {
          "indexed": true,
          "internalType": "address",
          "name": "to",
          "type": "address"
        },
        {
          "indexed": true,
          "internalType": "uint256",
          "name": "tokenId",
          "type": "uint256"
        }
      ],
      "name": "Transfer",
      "type": "event"
    },
    {
      "inputs": [
        {
          "internalType": "address",
          "name": "to",
          "type": "address"
        },
        {
          "internalType": "uint256",
          "name": "tokenId",
          "type": "uint256"
        }
      ],
      "name": "approve",
      "outputs": [],
      "stateMutability": "nonpayable",
      "type": "function"
    },
    {
      "inputs": [
        {
          "internalType": "address",
          "name": "owner",
          "type": "address"
        }
      ],
      "name": "balanceOf",
      "outputs": [
        {
          "internalType": "uint256",
          "name": "",
          "type": "uint256"
        }
      ],
      "stateMutability": "view",
      "type": "function"
    },
    {
      "inputs": [
        {
          "internalType": "uint256",
          "name": "tokenId",
          "type": "uint256"
        }
      ],
      "name": "getApproved",
      "outputs": [
        {
          "internalType": "address",
          "name": "",
          "type": "address"
        }
      ],
      "stateMutability": "view",
      "type": "function"
    },
    {
      "inputs": [
        {
          "internalType": "address",
          "name": "owner",
          "type": "address"
        },
        {
          "internalType": "address",
          "name": "operator",
          "type": "address"
        }
      ],
      "name": "isApprovedForAll",
      "outputs": [
        {
          "internalType": "bool",
          "name": "",
          "type": "bool"
        }
      ],
      "stateMutability": "view",
      "type": "function"
    },
    {
      "inputs": [],
      "name": "name",
      "outputs": [
        {
          "internalType": "string",
          "name": "",
          "type": "string"
        }
      ],
      "stateMutability": "view",
      "type": "function"
    },
    {
      "inputs": [
        {
          "internalType": "uint256",
          "name": "tokenId",
          "type": "uint256"
        }
      ],
      "name": "ownerOf",
      "outputs": [
        {
          "internalType": "address",
          "name": "",
          "type": "address"
        }
      ],
      "stateMutability": "view",
      "type": "function"
    },
    {
      "inputs": [
        {
          "internalType": "address",
          "name": "operator",
          "type": "address"
        },
        {
          "internalType": "bool",
          "name": "approved",
          "type": "bool"
        }
      ],
      "name": "setApprovalForAll",
      "outputs": [],
      "stateMutability": "nonpayable",
      "type": "function"
    },
    {
      "inputs": [
        {
          "internalType": "bytes4",
          "name": "interfaceId",
          "type": "bytes4"
        }
      ],
      "name": "supportsInterface",
      "outputs": [
        {
          "internalType": "bool",
          "name": "",
          "type": "bool"
        }
      ],
      "stateMutability": "view",
      "type": "function"
    },
    {
      "inputs": [],
      "name": "symbol",
      "outputs": [
        {
          "internalType": "string",
          "name": "",
          "type": "string"
        }
      ],
      "stateMutability": "view",
      "type": "function"
    },
    {
      "inputs": [
        {
          "internalType": "uint256",
          "name": "tokenId",
          "type": "uint256"
        }
      ],
      "name": "tokenURI",
      "outputs": [
        {
          "internalType": "string",
          "name": "",
          "type": "string"
        }
      ],
      "stateMutability": "view",
      "type": "function"
    },
    {
      "inputs": [
        {
          "internalType": "string",
          "name": "_facultyName",
          "type": "string"
        },
        {
          "internalType": "address",
          "name": "facultyAddress",
          "type": "address"
        }
      ],
      "name": "mint",
      "outputs": [],
      "stateMutability": "nonpayable",
      "type": "function"
    },
    {
      "inputs": [
        {
          "internalType": "uint256",
          "name": "id",
          "type": "uint256"
        }
      ],
      "name": "getFacultyName",
      "outputs": [
        {
          "internalType": "string",
          "name": "",
          "type": "string"
        }
      ],
      "stateMutability": "view",
      "type": "function"
    },
    {
      "inputs": [
        {
          "internalType": "string",
          "name": "facultyName",
          "type": "string"
        }
      ],
      "name": "getFacultyID",
      "outputs": [
        {
          "internalType": "uint256",
          "name": "",
          "type": "uint256"
        }
      ],
      "stateMutability": "view",
      "type": "function"
    },
    {
      "inputs": [],
      "name": "getTotalSupply",
      "outputs": [
        {
          "internalType": "uint256",
          "name": "",
          "type": "uint256"
        }
      ],
      "stateMutability": "view",
      "type": "function"
    },
    {
      "inputs": [
        {
          "internalType": "uint256",
          "name": "id",
          "type": "uint256"
        }
      ],
      "name": "getDepartments",
      "outputs": [
        {
          "internalType": "address[]",
          "name": "",
          "type": "address[]"
        }
      ],
      "stateMutability": "view",
      "type": "function"
    },
    {
      "inputs": [
        {
          "internalType": "uint256",
          "name": "_id",
          "type": "uint256"
        },
        {
          "internalType": "address[]",
          "name": "departments",
          "type": "address[]"
        }
      ],
      "name": "setDepartments",
      "outputs": [],
      "stateMutability": "nonpayable",
      "type": "function"
    },
    {
      "inputs": [
        {
          "internalType": "address",
          "name": "from",
          "type": "address"
        },
        {
          "internalType": "address",
          "name": "to",
          "type": "address"
        },
        {
          "internalType": "uint256",
          "name": "tokenId",
          "type": "uint256"
        }
      ],
      "name": "transferFrom",
      "outputs": [],
      "stateMutability": "nonpayable",
      "type": "function"
    },
    {
      "inputs": [
        {
          "internalType": "address",
          "name": "from",
          "type": "address"
        },
        {
          "internalType": "address",
          "name": "to",
          "type": "address"
        },
        {
          "internalType": "uint256",
          "name": "tokenId",
          "type": "uint256"
        }
      ],
      "name": "safeTransferFrom",
      "outputs": [],
      "stateMutability": "nonpayable",
      "type": "function"
    },
    {
      "inputs": [
        {
          "internalType": "address",
          "name": "from",
          "type": "address"
        },
        {
          "internalType": "address",
          "name": "to",
          "type": "address"
        },
        {
          "internalType": "uint256",
          "name": "tokenId",
          "type": "uint256"
        },
        {
          "internalType": "bytes",
          "name": "_data",
          "type": "bytes"
        }
      ],
      "name": "safeTransferFrom",
      "outputs": [],
      "stateMutability": "nonpayable",
      "type": "function"
    }
  ],
  "bytecode": "0x608060405260006007553480156200001657600080fd5b5060405162003b0f38038062003b0f83398181016040528101906200003c91906200023e565b6040518060400160405280600781526020017f466163756c7479000000000000000000000000000000000000000000000000008152506040518060400160405280600381526020017f46414300000000000000000000000000000000000000000000000000000000008152508160009080519060200190620000c092919062000124565b508060019080519060200190620000d992919062000124565b50505080600660006101000a81548173ffffffffffffffffffffffffffffffffffffffff021916908373ffffffffffffffffffffffffffffffffffffffff16021790555050620002d5565b82805462000132906200029f565b90600052602060002090601f016020900481019282620001565760008555620001a2565b82601f106200017157805160ff1916838001178555620001a2565b82800160010185558215620001a2579182015b82811115620001a157825182559160200191906001019062000184565b5b509050620001b19190620001b5565b5090565b5b80821115620001d0576000816000905550600101620001b6565b5090565b600080fd5b600073ffffffffffffffffffffffffffffffffffffffff82169050919050565b60006200020682620001d9565b9050919050565b6200021881620001f9565b81146200022457600080fd5b50565b60008151905062000238816200020d565b92915050565b600060208284031215620002575762000256620001d4565b5b6000620002678482850162000227565b91505092915050565b7f4e487b7100000000000000000000000000000000000000000000000000000000600052602260045260246000fd5b60006002820490506001821680620002b857607f821691505b60208210811415620002cf57620002ce62000270565b5b50919050565b61382a80620002e56000396000f3fe608060405234801561001057600080fd5b50600436106101215760003560e01c80636352211e116100ad578063b88d4fde11610071578063b88d4fde1461033e578063b9837a001461035a578063c4e41b2214610376578063c87b56dd14610394578063e985e9c5146103c457610121565b80636352211e146102745780637048fae5146102a457806370a08231146102d457806395d89b4114610304578063a22cb4651461032257610121565b80631c351a9d116100f45780631c351a9d146101c057806323b872dd146101dc57806326970179146101f857806334604c471461022857806342842e0e1461025857610121565b806301ffc9a71461012657806306fdde0314610156578063081812fc14610174578063095ea7b3146101a4575b600080fd5b610140600480360381019061013b9190612043565b6103f4565b60405161014d919061208b565b60405180910390f35b61015e6104d6565b60405161016b919061213f565b60405180910390f35b61018e60048036038101906101899190612197565b610568565b60405161019b9190612205565b60405180910390f35b6101be60048036038101906101b9919061224c565b6105ed565b005b6101da60048036038101906101d591906123c1565b610705565b005b6101f660048036038101906101f1919061241d565b610aac565b005b610212600480360381019061020d9190612197565b610b2b565b60405161021f919061252e565b60405180910390f35b610242600480360381019061023d9190612550565b610bcc565b60405161024f91906125a8565b60405180910390f35b610272600480360381019061026d919061241d565b610bf4565b005b61028e60048036038101906102899190612197565b610c73565b60405161029b9190612205565b60405180910390f35b6102be60048036038101906102b99190612197565b610d25565b6040516102cb919061213f565b60405180910390f35b6102ee60048036038101906102e991906125c3565b610dca565b6040516102fb91906125a8565b60405180910390f35b61030c610e82565b604051610319919061213f565b60405180910390f35b61033c6004803603810190610337919061261c565b610f14565b005b610358600480360381019061035391906126fd565b610f2a565b005b610374600480360381019061036f9190612848565b610fab565b005b61037e611103565b60405161038b91906125a8565b60405180910390f35b6103ae60048036038101906103a99190612197565b61110d565b6040516103bb919061213f565b60405180910390f35b6103de60048036038101906103d991906128a4565b6111b4565b6040516103eb919061208b565b60405180910390f35b60007f80ac58cd000000000000000000000000000000000000000000000000000000007bffffffffffffffffffffffffffffffffffffffffffffffffffffffff1916827bffffffffffffffffffffffffffffffffffffffffffffffffffffffff191614806104bf57507f5b5e139f000000000000000000000000000000000000000000000000000000007bffffffffffffffffffffffffffffffffffffffffffffffffffffffff1916827bffffffffffffffffffffffffffffffffffffffffffffffffffffffff1916145b806104cf57506104ce82611248565b5b9050919050565b6060600080546104e590612913565b80601f016020809104026020016040519081016040528092919081815260200182805461051190612913565b801561055e5780601f106105335761010080835404028352916020019161055e565b820191906000526020600020905b81548152906001019060200180831161054157829003601f168201915b5050505050905090565b6000610573826112b2565b6105b2576040517f08c379a00000000000000000000000000000000000000000000000000000000081526004016105a9906129b7565b60405180910390fd5b6004600083815260200190815260200160002060009054906101000a900473ffffffffffffffffffffffffffffffffffffffff169050919050565b60006105f882610c73565b90508073ffffffffffffffffffffffffffffffffffffffff168373ffffffffffffffffffffffffffffffffffffffff161415610669576040517f08c379a000000000000000000000000000000000000000000000000000000000815260040161066090612a49565b60405180910390fd5b8073ffffffffffffffffffffffffffffffffffffffff1661068861131e565b73ffffffffffffffffffffffffffffffffffffffff1614806106b757506106b6816106b161131e565b6111b4565b5b6106f6576040517f08c379a00000000000000000000000000000000000000000000000000000000081526004016106ed90612adb565b60405180910390fd5b6107008383611326565b505050565b600660009054906101000a900473ffffffffffffffffffffffffffffffffffffffff1673ffffffffffffffffffffffffffffffffffffffff16632be7dc44336040518263ffffffff1660e01b81526004016107609190612205565b602060405180830381865afa15801561077d573d6000803e3d6000fd5b505050506040513d601f19601f820116820180604052508101906107a19190612b10565b6107e0576040517f08c379a00000000000000000000000000000000000000000000000000000000081526004016107d790612baf565b60405180910390fd5b60006009836040516107f29190612c0b565b90815260200160405180910390205414610841576040517f08c379a000000000000000000000000000000000000000000000000000000000815260040161083890612c6e565b60405180910390fd5b600660009054906101000a900473ffffffffffffffffffffffffffffffffffffffff1673ffffffffffffffffffffffffffffffffffffffff1663529f790c826040518263ffffffff1660e01b815260040161089c9190612205565b600060405180830381600087803b1580156108b657600080fd5b505af11580156108ca573d6000803e3d6000fd5b50505050600660009054906101000a900473ffffffffffffffffffffffffffffffffffffffff1673ffffffffffffffffffffffffffffffffffffffff1663e78af7c5826040518263ffffffff1660e01b81526004016109299190612205565b602060405180830381865afa158015610946573d6000803e3d6000fd5b505050506040513d601f19601f8201168201806040525081019061096a9190612b10565b6109a9576040517f08c379a00000000000000000000000000000000000000000000000000000000081526004016109a090612d00565b60405180910390fd5b6040516020016109b890612d46565b60405160208183030381529060405280519060200120826040516020016109df9190612c0b565b604051602081830303815290604052805190602001201415610a36576040517f08c379a0000000000000000000000000000000000000000000000000000000008152600401610a2d90612da7565b60405180910390fd5b6001600754610a459190612df6565b60078190555060006007549050610a5c82826113df565b80600984604051610a6d9190612c0b565b90815260200160405180910390208190555082600860008381526020019081526020016000209080519060200190610aa6929190611eaa565b50505050565b600073ffffffffffffffffffffffffffffffffffffffff163373ffffffffffffffffffffffffffffffffffffffff1614610b1b576040517f08c379a0000000000000000000000000000000000000000000000000000000008152600401610b1290612ebe565b60405180910390fd5b610b268383836115ad565b505050565b6060600a6000838152602001908152602001600020805480602002602001604051908101604052809291908181526020018280548015610bc057602002820191906000526020600020905b8160009054906101000a900473ffffffffffffffffffffffffffffffffffffffff1673ffffffffffffffffffffffffffffffffffffffff1681526020019060010190808311610b76575b50505050509050919050565b6000600982604051610bde9190612c0b565b9081526020016040518091039020549050919050565b600073ffffffffffffffffffffffffffffffffffffffff163373ffffffffffffffffffffffffffffffffffffffff1614610c63576040517f08c379a0000000000000000000000000000000000000000000000000000000008152600401610c5a90612ebe565b60405180910390fd5b610c6e83838361160d565b505050565b6000806002600084815260200190815260200160002060009054906101000a900473ffffffffffffffffffffffffffffffffffffffff169050600073ffffffffffffffffffffffffffffffffffffffff168173ffffffffffffffffffffffffffffffffffffffff161415610d1c576040517f08c379a0000000000000000000000000000000000000000000000000000000008152600401610d1390612f50565b60405180910390fd5b80915050919050565b6060600860008381526020019081526020016000208054610d4590612913565b80601f0160208091040260200160405190810160405280929190818152602001828054610d7190612913565b8015610dbe5780601f10610d9357610100808354040283529160200191610dbe565b820191906000526020600020905b815481529060010190602001808311610da157829003601f168201915b50505050509050919050565b60008073ffffffffffffffffffffffffffffffffffffffff168273ffffffffffffffffffffffffffffffffffffffff161415610e3b576040517f08c379a0000000000000000000000000000000000000000000000000000000008152600401610e3290612fe2565b60405180910390fd5b600360008373ffffffffffffffffffffffffffffffffffffffff1673ffffffffffffffffffffffffffffffffffffffff168152602001908152602001600020549050919050565b606060018054610e9190612913565b80601f0160208091040260200160405190810160405280929190818152602001828054610ebd90612913565b8015610f0a5780601f10610edf57610100808354040283529160200191610f0a565b820191906000526020600020905b815481529060010190602001808311610eed57829003601f168201915b5050505050905090565b610f26610f1f61131e565b838361162d565b5050565b600073ffffffffffffffffffffffffffffffffffffffff163373ffffffffffffffffffffffffffffffffffffffff1614610f99576040517f08c379a0000000000000000000000000000000000000000000000000000000008152600401610f9090612ebe565b60405180910390fd5b610fa58484848461179a565b50505050565b600660009054906101000a900473ffffffffffffffffffffffffffffffffffffffff1673ffffffffffffffffffffffffffffffffffffffff16632be7dc44336040518263ffffffff1660e01b81526004016110069190612205565b602060405180830381865afa158015611023573d6000803e3d6000fd5b505050506040513d601f19601f820116820180604052508101906110479190612b10565b611086576040517f08c379a000000000000000000000000000000000000000000000000000000000815260040161107d90613074565b60405180910390fd5b60008211801561109857506007548211155b6110d7576040517f08c379a00000000000000000000000000000000000000000000000000000000081526004016110ce906130e0565b60405180910390fd5b80600a600084815260200190815260200160002090805190602001906110fe929190611f30565b505050565b6000600754905090565b6060611118826112b2565b611157576040517f08c379a000000000000000000000000000000000000000000000000000000000815260040161114e90613172565b60405180910390fd5b60006111616117fc565b9050600081511161118157604051806020016040528060008152506111ac565b8061118b84611813565b60405160200161119c929190613192565b6040516020818303038152906040525b915050919050565b6000600560008473ffffffffffffffffffffffffffffffffffffffff1673ffffffffffffffffffffffffffffffffffffffff16815260200190815260200160002060008373ffffffffffffffffffffffffffffffffffffffff1673ffffffffffffffffffffffffffffffffffffffff16815260200190815260200160002060009054906101000a900460ff16905092915050565b60007f01ffc9a7000000000000000000000000000000000000000000000000000000007bffffffffffffffffffffffffffffffffffffffffffffffffffffffff1916827bffffffffffffffffffffffffffffffffffffffffffffffffffffffff1916149050919050565b60008073ffffffffffffffffffffffffffffffffffffffff166002600084815260200190815260200160002060009054906101000a900473ffffffffffffffffffffffffffffffffffffffff1673ffffffffffffffffffffffffffffffffffffffff1614159050919050565b600033905090565b816004600083815260200190815260200160002060006101000a81548173ffffffffffffffffffffffffffffffffffffffff021916908373ffffffffffffffffffffffffffffffffffffffff160217905550808273ffffffffffffffffffffffffffffffffffffffff1661139983610c73565b73ffffffffffffffffffffffffffffffffffffffff167f8c5be1e5ebec7d5bd14f71427d1e84f3dd0314c0f7b2291e5b200ac8c7c3b92560405160405180910390a45050565b600073ffffffffffffffffffffffffffffffffffffffff168273ffffffffffffffffffffffffffffffffffffffff16141561144f576040517f08c379a000000000000000000000000000000000000000000000000000000000815260040161144690613202565b60405180910390fd5b611458816112b2565b15611498576040517f08c379a000000000000000000000000000000000000000000000000000000000815260040161148f9061326e565b60405180910390fd5b6114a460008383611974565b6001600360008473ffffffffffffffffffffffffffffffffffffffff1673ffffffffffffffffffffffffffffffffffffffff16815260200190815260200160002060008282546114f49190612df6565b92505081905550816002600083815260200190815260200160002060006101000a81548173ffffffffffffffffffffffffffffffffffffffff021916908373ffffffffffffffffffffffffffffffffffffffff160217905550808273ffffffffffffffffffffffffffffffffffffffff16600073ffffffffffffffffffffffffffffffffffffffff167fddf252ad1be2c89b69c2b068fc378daa952ba7f163c4a11628f55a4df523b3ef60405160405180910390a45050565b6115be6115b861131e565b82611979565b6115fd576040517f08c379a00000000000000000000000000000000000000000000000000000000081526004016115f490613300565b60405180910390fd5b611608838383611a57565b505050565b61162883838360405180602001604052806000815250610f2a565b505050565b8173ffffffffffffffffffffffffffffffffffffffff168373ffffffffffffffffffffffffffffffffffffffff16141561169c576040517f08c379a00000000000000000000000000000000000000000000000000000000081526004016116939061336c565b60405180910390fd5b80600560008573ffffffffffffffffffffffffffffffffffffffff1673ffffffffffffffffffffffffffffffffffffffff16815260200190815260200160002060008473ffffffffffffffffffffffffffffffffffffffff1673ffffffffffffffffffffffffffffffffffffffff16815260200190815260200160002060006101000a81548160ff0219169083151502179055508173ffffffffffffffffffffffffffffffffffffffff168373ffffffffffffffffffffffffffffffffffffffff167f17307eab39ab6107e8899845ad3d59bd9653f200f220920489ca2b5937696c318360405161178d919061208b565b60405180910390a3505050565b6117ab6117a561131e565b83611979565b6117ea576040517f08c379a00000000000000000000000000000000000000000000000000000000081526004016117e190613300565b60405180910390fd5b6117f684848484611cb3565b50505050565b606060405180602001604052806000815250905090565b6060600082141561185b576040518060400160405280600181526020017f3000000000000000000000000000000000000000000000000000000000000000815250905061196f565b600082905060005b6000821461188d5780806118769061338c565b915050600a826118869190613404565b9150611863565b60008167ffffffffffffffff8111156118a9576118a8612296565b5b6040519080825280601f01601f1916602001820160405280156118db5781602001600182028036833780820191505090505b5090505b60008514611968576001826118f49190613435565b9150600a856119039190613469565b603061190f9190612df6565b60f81b8183815181106119255761192461349a565b5b60200101907effffffffffffffffffffffffffffffffffffffffffffffffffffffffffffff1916908160001a905350600a856119619190613404565b94506118df565b8093505050505b919050565b505050565b6000611984826112b2565b6119c3576040517f08c379a00000000000000000000000000000000000000000000000000000000081526004016119ba9061353b565b60405180910390fd5b60006119ce83610c73565b90508073ffffffffffffffffffffffffffffffffffffffff168473ffffffffffffffffffffffffffffffffffffffff161480611a3d57508373ffffffffffffffffffffffffffffffffffffffff16611a2584610568565b73ffffffffffffffffffffffffffffffffffffffff16145b80611a4e5750611a4d81856111b4565b5b91505092915050565b8273ffffffffffffffffffffffffffffffffffffffff16611a7782610c73565b73ffffffffffffffffffffffffffffffffffffffff1614611acd576040517f08c379a0000000000000000000000000000000000000000000000000000000008152600401611ac4906135cd565b60405180910390fd5b600073ffffffffffffffffffffffffffffffffffffffff168273ffffffffffffffffffffffffffffffffffffffff161415611b3d576040517f08c379a0000000000000000000000000000000000000000000000000000000008152600401611b349061365f565b60405180910390fd5b611b48838383611974565b611b53600082611326565b6001600360008573ffffffffffffffffffffffffffffffffffffffff1673ffffffffffffffffffffffffffffffffffffffff1681526020019081526020016000206000828254611ba39190613435565b925050819055506001600360008473ffffffffffffffffffffffffffffffffffffffff1673ffffffffffffffffffffffffffffffffffffffff1681526020019081526020016000206000828254611bfa9190612df6565b92505081905550816002600083815260200190815260200160002060006101000a81548173ffffffffffffffffffffffffffffffffffffffff021916908373ffffffffffffffffffffffffffffffffffffffff160217905550808273ffffffffffffffffffffffffffffffffffffffff168473ffffffffffffffffffffffffffffffffffffffff167fddf252ad1be2c89b69c2b068fc378daa952ba7f163c4a11628f55a4df523b3ef60405160405180910390a4505050565b611cbe848484611a57565b611cca84848484611d0f565b611d09576040517f08c379a0000000000000000000000000000000000000000000000000000000008152600401611d00906136f1565b60405180910390fd5b50505050565b6000611d308473ffffffffffffffffffffffffffffffffffffffff16611e97565b15611e8a578373ffffffffffffffffffffffffffffffffffffffff1663150b7a02611d5961131e565b8786866040518563ffffffff1660e01b8152600401611d7b9493929190613766565b6020604051808303816000875af1925050508015611db757506040513d601f19601f82011682018060405250810190611db491906137c7565b60015b611e3a573d8060008114611de7576040519150601f19603f3d011682016040523d82523d6000602084013e611dec565b606091505b50600081511415611e32576040517f08c379a0000000000000000000000000000000000000000000000000000000008152600401611e29906136f1565b60405180910390fd5b805181602001fd5b63150b7a0260e01b7bffffffffffffffffffffffffffffffffffffffffffffffffffffffff1916817bffffffffffffffffffffffffffffffffffffffffffffffffffffffff191614915050611e8f565b600190505b949350505050565b600080823b905060008111915050919050565b828054611eb690612913565b90600052602060002090601f016020900481019282611ed85760008555611f1f565b82601f10611ef157805160ff1916838001178555611f1f565b82800160010185558215611f1f579182015b82811115611f1e578251825591602001919060010190611f03565b5b509050611f2c9190611fba565b5090565b828054828255906000526020600020908101928215611fa9579160200282015b82811115611fa85782518260006101000a81548173ffffffffffffffffffffffffffffffffffffffff021916908373ffffffffffffffffffffffffffffffffffffffff16021790555091602001919060010190611f50565b5b509050611fb69190611fba565b5090565b5b80821115611fd3576000816000905550600101611fbb565b5090565b6000604051905090565b600080fd5b600080fd5b60007fffffffff0000000000000000000000000000000000000000000000000000000082169050919050565b61202081611feb565b811461202b57600080fd5b50565b60008135905061203d81612017565b92915050565b60006020828403121561205957612058611fe1565b5b60006120678482850161202e565b91505092915050565b60008115159050919050565b61208581612070565b82525050565b60006020820190506120a0600083018461207c565b92915050565b600081519050919050565b600082825260208201905092915050565b60005b838110156120e05780820151818401526020810190506120c5565b838111156120ef576000848401525b50505050565b6000601f19601f8301169050919050565b6000612111826120a6565b61211b81856120b1565b935061212b8185602086016120c2565b612134816120f5565b840191505092915050565b600060208201905081810360008301526121598184612106565b905092915050565b6000819050919050565b61217481612161565b811461217f57600080fd5b50565b6000813590506121918161216b565b92915050565b6000602082840312156121ad576121ac611fe1565b5b60006121bb84828501612182565b91505092915050565b600073ffffffffffffffffffffffffffffffffffffffff82169050919050565b60006121ef826121c4565b9050919050565b6121ff816121e4565b82525050565b600060208201905061221a60008301846121f6565b92915050565b612229816121e4565b811461223457600080fd5b50565b60008135905061224681612220565b92915050565b6000806040838503121561226357612262611fe1565b5b600061227185828601612237565b925050602061228285828601612182565b9150509250929050565b600080fd5b600080fd5b7f4e487b7100000000000000000000000000000000000000000000000000000000600052604160045260246000fd5b6122ce826120f5565b810181811067ffffffffffffffff821117156122ed576122ec612296565b5b80604052505050565b6000612300611fd7565b905061230c82826122c5565b919050565b600067ffffffffffffffff82111561232c5761232b612296565b5b612335826120f5565b9050602081019050919050565b82818337600083830152505050565b600061236461235f84612311565b6122f6565b9050828152602081018484840111156123805761237f612291565b5b61238b848285612342565b509392505050565b600082601f8301126123a8576123a761228c565b5b81356123b8848260208601612351565b91505092915050565b600080604083850312156123d8576123d7611fe1565b5b600083013567ffffffffffffffff8111156123f6576123f5611fe6565b5b61240285828601612393565b925050602061241385828601612237565b9150509250929050565b60008060006060848603121561243657612435611fe1565b5b600061244486828701612237565b935050602061245586828701612237565b925050604061246686828701612182565b9150509250925092565b600081519050919050565b600082825260208201905092915050565b6000819050602082019050919050565b6124a5816121e4565b82525050565b60006124b7838361249c565b60208301905092915050565b6000602082019050919050565b60006124db82612470565b6124e5818561247b565b93506124f08361248c565b8060005b8381101561252157815161250888826124ab565b9750612513836124c3565b9250506001810190506124f4565b5085935050505092915050565b6000602082019050818103600083015261254881846124d0565b905092915050565b60006020828403121561256657612565611fe1565b5b600082013567ffffffffffffffff81111561258457612583611fe6565b5b61259084828501612393565b91505092915050565b6125a281612161565b82525050565b60006020820190506125bd6000830184612599565b92915050565b6000602082840312156125d9576125d8611fe1565b5b60006125e784828501612237565b91505092915050565b6125f981612070565b811461260457600080fd5b50565b600081359050612616816125f0565b92915050565b6000806040838503121561263357612632611fe1565b5b600061264185828601612237565b925050602061265285828601612607565b9150509250929050565b600067ffffffffffffffff82111561267757612676612296565b5b612680826120f5565b9050602081019050919050565b60006126a061269b8461265c565b6122f6565b9050828152602081018484840111156126bc576126bb612291565b5b6126c7848285612342565b509392505050565b600082601f8301126126e4576126e361228c565b5b81356126f484826020860161268d565b91505092915050565b6000806000806080858703121561271757612716611fe1565b5b600061272587828801612237565b945050602061273687828801612237565b935050604061274787828801612182565b925050606085013567ffffffffffffffff81111561276857612767611fe6565b5b612774878288016126cf565b91505092959194509250565b600067ffffffffffffffff82111561279b5761279a612296565b5b602082029050602081019050919050565b600080fd5b60006127c46127bf84612780565b6122f6565b905080838252602082019050602084028301858111156127e7576127e66127ac565b5b835b8181101561281057806127fc8882612237565b8452602084019350506020810190506127e9565b5050509392505050565b600082601f83011261282f5761282e61228c565b5b813561283f8482602086016127b1565b91505092915050565b6000806040838503121561285f5761285e611fe1565b5b600061286d85828601612182565b925050602083013567ffffffffffffffff81111561288e5761288d611fe6565b5b61289a8582860161281a565b9150509250929050565b600080604083850312156128bb576128ba611fe1565b5b60006128c985828601612237565b92505060206128da85828601612237565b9150509250929050565b7f4e487b7100000000000000000000000000000000000000000000000000000000600052602260045260246000fd5b6000600282049050600182168061292b57607f821691505b6020821081141561293f5761293e6128e4565b5b50919050565b7f4552433732313a20617070726f76656420717565727920666f72206e6f6e657860008201527f697374656e7420746f6b656e0000000000000000000000000000000000000000602082015250565b60006129a1602c836120b1565b91506129ac82612945565b604082019050919050565b600060208201905081810360008301526129d081612994565b9050919050565b7f4552433732313a20617070726f76616c20746f2063757272656e74206f776e6560008201527f7200000000000000000000000000000000000000000000000000000000000000602082015250565b6000612a336021836120b1565b9150612a3e826129d7565b604082019050919050565b60006020820190508181036000830152612a6281612a26565b9050919050565b7f4552433732313a20617070726f76652063616c6c6572206973206e6f74206f7760008201527f6e6572206e6f7220617070726f76656420666f7220616c6c0000000000000000602082015250565b6000612ac56038836120b1565b9150612ad082612a69565b604082019050919050565b60006020820190508181036000830152612af481612ab8565b9050919050565b600081519050612b0a816125f0565b92915050565b600060208284031215612b2657612b25611fe1565b5b6000612b3484828501612afb565b91505092915050565b7f54686973206163636f756e7420646f6573206e6f74206861766520526563746f60008201527f72205065726d6d6973696f6e7300000000000000000000000000000000000000602082015250565b6000612b99602d836120b1565b9150612ba482612b3d565b604082019050919050565b60006020820190508181036000830152612bc881612b8c565b9050919050565b600081905092915050565b6000612be5826120a6565b612bef8185612bcf565b9350612bff8185602086016120c2565b80840191505092915050565b6000612c178284612bda565b915081905092915050565b7f5468697320466163756c747920697320616c7265616479206578697374000000600082015250565b6000612c58601d836120b1565b9150612c6382612c22565b602082019050919050565b60006020820190508181036000830152612c8781612c4b565b9050919050565b7f546869732061646472657373206973206e6f7420696e20464143554c54595f5260008201527f4f4c450000000000000000000000000000000000000000000000000000000000602082015250565b6000612cea6023836120b1565b9150612cf582612c8e565b604082019050919050565b60006020820190508181036000830152612d1981612cdd565b9050919050565b50565b6000612d30600083612bcf565b9150612d3b82612d20565b600082019050919050565b6000612d5182612d23565b9150819050919050565b7f466163756c7479206e616d652063616e6e6f7420626520656d70747900000000600082015250565b6000612d91601c836120b1565b9150612d9c82612d5b565b602082019050919050565b60006020820190508181036000830152612dc081612d84565b9050919050565b7f4e487b7100000000000000000000000000000000000000000000000000000000600052601160045260246000fd5b6000612e0182612161565b9150612e0c83612161565b9250827fffffffffffffffffffffffffffffffffffffffffffffffffffffffffffffffff03821115612e4157612e40612dc7565b5b828201905092915050565b7f5472616e73666572206166746572206d696e742069732070726f68696269746560008201527f6400000000000000000000000000000000000000000000000000000000000000602082015250565b6000612ea86021836120b1565b9150612eb382612e4c565b604082019050919050565b60006020820190508181036000830152612ed781612e9b565b9050919050565b7f4552433732313a206f776e657220717565727920666f72206e6f6e657869737460008201527f656e7420746f6b656e0000000000000000000000000000000000000000000000602082015250565b6000612f3a6029836120b1565b9150612f4582612ede565b604082019050919050565b60006020820190508181036000830152612f6981612f2d565b9050919050565b7f4552433732313a2062616c616e636520717565727920666f7220746865207a6560008201527f726f206164647265737300000000000000000000000000000000000000000000602082015250565b6000612fcc602a836120b1565b9150612fd782612f70565b604082019050919050565b60006020820190508181036000830152612ffb81612fbf565b9050919050565b7f54686973206164647265737320646f6573206e6f74206861766520526563746f60008201527f72205065726d697373696f6e7300000000000000000000000000000000000000602082015250565b600061305e602d836120b1565b915061306982613002565b604082019050919050565b6000602082019050818103600083015261308d81613051565b9050919050565b7f5468697320466163756c747920646f6573206e6f742065786973740000000000600082015250565b60006130ca601b836120b1565b91506130d582613094565b602082019050919050565b600060208201905081810360008301526130f9816130bd565b9050919050565b7f4552433732314d657461646174613a2055524920717565727920666f72206e6f60008201527f6e6578697374656e7420746f6b656e0000000000000000000000000000000000602082015250565b600061315c602f836120b1565b915061316782613100565b604082019050919050565b6000602082019050818103600083015261318b8161314f565b9050919050565b600061319e8285612bda565b91506131aa8284612bda565b91508190509392505050565b7f4552433732313a206d696e7420746f20746865207a65726f2061646472657373600082015250565b60006131ec6020836120b1565b91506131f7826131b6565b602082019050919050565b6000602082019050818103600083015261321b816131df565b9050919050565b7f4552433732313a20746f6b656e20616c7265616479206d696e74656400000000600082015250565b6000613258601c836120b1565b915061326382613222565b602082019050919050565b600060208201905081810360008301526132878161324b565b9050919050565b7f4552433732313a207472616e736665722063616c6c6572206973206e6f74206f60008201527f776e6572206e6f7220617070726f766564000000000000000000000000000000602082015250565b60006132ea6031836120b1565b91506132f58261328e565b604082019050919050565b60006020820190508181036000830152613319816132dd565b9050919050565b7f4552433732313a20617070726f766520746f2063616c6c657200000000000000600082015250565b60006133566019836120b1565b915061336182613320565b602082019050919050565b6000602082019050818103600083015261338581613349565b9050919050565b600061339782612161565b91507fffffffffffffffffffffffffffffffffffffffffffffffffffffffffffffffff8214156133ca576133c9612dc7565b5b600182019050919050565b7f4e487b7100000000000000000000000000000000000000000000000000000000600052601260045260246000fd5b600061340f82612161565b915061341a83612161565b92508261342a576134296133d5565b5b828204905092915050565b600061344082612161565b915061344b83612161565b92508282101561345e5761345d612dc7565b5b828203905092915050565b600061347482612161565b915061347f83612161565b92508261348f5761348e6133d5565b5b828206905092915050565b7f4e487b7100000000000000000000000000000000000000000000000000000000600052603260045260246000fd5b7f4552433732313a206f70657261746f7220717565727920666f72206e6f6e657860008201527f697374656e7420746f6b656e0000000000000000000000000000000000000000602082015250565b6000613525602c836120b1565b9150613530826134c9565b604082019050919050565b6000602082019050818103600083015261355481613518565b9050919050565b7f4552433732313a207472616e73666572206f6620746f6b656e2074686174206960008201527f73206e6f74206f776e0000000000000000000000000000000000000000000000602082015250565b60006135b76029836120b1565b91506135c28261355b565b604082019050919050565b600060208201905081810360008301526135e6816135aa565b9050919050565b7f4552433732313a207472616e7366657220746f20746865207a65726f2061646460008201527f7265737300000000000000000000000000000000000000000000000000000000602082015250565b60006136496024836120b1565b9150613654826135ed565b604082019050919050565b600060208201905081810360008301526136788161363c565b9050919050565b7f4552433732313a207472616e7366657220746f206e6f6e20455243373231526560008201527f63656976657220696d706c656d656e7465720000000000000000000000000000602082015250565b60006136db6032836120b1565b91506136e68261367f565b604082019050919050565b6000602082019050818103600083015261370a816136ce565b9050919050565b600081519050919050565b600082825260208201905092915050565b600061373882613711565b613742818561371c565b93506137528185602086016120c2565b61375b816120f5565b840191505092915050565b600060808201905061377b60008301876121f6565b61378860208301866121f6565b6137956040830185612599565b81810360608301526137a7818461372d565b905095945050505050565b6000815190506137c181612017565b92915050565b6000602082840312156137dd576137dc611fe1565b5b60006137eb848285016137b2565b9150509291505056fea2646970667358221220b61283831e041cfe92fdaa258cad4cb7f1ed7dc18f589aca970022dea810d80d64736f6c634300080a0033",
  "immutableReferences": {},
  "source": "pragma solidity ^0.8.10;\r\n\r\nimport \"@openzeppelin/contracts/token/ERC721/ERC721.sol\";\r\nimport \"./Roles.sol\";\r\n\r\ncontract Faculty is ERC721{\r\n\r\n    address rolesContractAddress;\r\n\r\n    uint256 _totalSupply = 0;\r\n    //mapping from tokenID to facultyName\r\n    mapping(uint256 => string) _facultyNameOfID;\r\n    //mapping from facultyName to tokenID\r\n    mapping(string => uint256) _IDOfFacultyName;\r\n    //mapping from tokenID to its departments\r\n    mapping(uint256 => address[]) _departments;\r\n\r\n    constructor(address _rolesContractAddress) ERC721(\"Faculty\", \"FAC\"){\r\n        rolesContractAddress =_rolesContractAddress;\r\n    }\r\n\r\n    function mint(string memory _facultyName, address facultyAddress) public{\r\n        require(Roles(rolesContractAddress).hasRectorRole(msg.sender), \"This account does not have Rector Permmisions\");\r\n        require(_IDOfFacultyName[_facultyName] == 0, \"This Faculty is already exist\");\r\n        Roles(rolesContractAddress).grantFacultyRole(facultyAddress);\r\n        require(Roles(rolesContractAddress).hasFacultyRole(facultyAddress), \"This address is not in FACULTY_ROLE\");\r\n        require(keccak256(abi.encodePacked(_facultyName)) != keccak256(abi.encodePacked(\"\")), \"Faculty name cannot be empty\");\r\n        // Faculty - add\r\n        _totalSupply = _totalSupply + 1;\r\n        uint _id = _totalSupply; //tokenID's start from 1 because default uint256 value is 0\r\n        // Call the mint function of ERC721\r\n        _mint(facultyAddress, _id);\r\n        // Faculty - track it\r\n        _IDOfFacultyName[_facultyName] = _id;\r\n        _facultyNameOfID[_id] = _facultyName;\r\n    }\r\n    function getFacultyName(uint256 id) public view returns(string memory){\r\n        return _facultyNameOfID[id];\r\n    }\r\n    function getFacultyID(string memory facultyName) public view returns(uint256){\r\n        return _IDOfFacultyName[facultyName];\r\n    }\r\n    function getTotalSupply() public view returns(uint256){\r\n        return _totalSupply;\r\n    }\r\n    function getDepartments(uint256 id) public view returns(address[] memory){\r\n        return _departments[id];\r\n    }\r\n    function setDepartments(uint256 _id, address[] memory departments) public{\r\n        require(Roles(rolesContractAddress).hasRectorRole(msg.sender), \"This address does not have Rector Permissions\");\r\n        require(_id>0 && _id<=_totalSupply, \"This Faculty does not exist\");\r\n        _departments[_id] = departments;\r\n    }\r\n\r\n    function transferFrom(//Only callable when minted\r\n        address from,\r\n        address to,\r\n        uint256 tokenId\r\n    ) public virtual override {\r\n        require(msg.sender == 0x0000000000000000000000000000000000000000, \"Transfer after mint is prohibited\");\r\n        super.transferFrom(from,to,tokenId);\r\n    }\r\n    function safeTransferFrom(//Only callable when minted\r\n        address from,\r\n        address to,\r\n        uint256 tokenId\r\n    ) public virtual override {\r\n        require(msg.sender == 0x0000000000000000000000000000000000000000, \"Transfer after mint is prohibited\");\r\n        super.safeTransferFrom(from,to,tokenId);\r\n    }\r\n    function safeTransferFrom(//Only callable when minted\r\n        address from,\r\n        address to,\r\n        uint256 tokenId,\r\n        bytes memory _data\r\n    ) public virtual override {\r\n        require(msg.sender == 0x0000000000000000000000000000000000000000, \"Transfer after mint is prohibited\");\r\n        super.safeTransferFrom(from, to, tokenId, _data);\r\n    }\r\n\r\n}\r\n",
  "sourcePath": "C:\\Users\\asus\\Desktop\\Dersler\\CMPE492\\certification-project\\contracts\\Faculty.sol",
  "compiler": {
    "name": "solc",
    "version": "0.8.10+commit.fc410830.Emscripten.clang"
  },
  "schemaVersion": "3.4.4",
  "updatedAt": "2022-01-23T18:41:48.804Z",
  "devdoc": {
    "kind": "dev",
    "methods": {
      "approve(address,uint256)": {
        "details": "See {IERC721-approve}."
      },
      "balanceOf(address)": {
        "details": "See {IERC721-balanceOf}."
      },
      "getApproved(uint256)": {
        "details": "See {IERC721-getApproved}."
      },
      "isApprovedForAll(address,address)": {
        "details": "See {IERC721-isApprovedForAll}."
      },
      "name()": {
        "details": "See {IERC721Metadata-name}."
      },
      "ownerOf(uint256)": {
        "details": "See {IERC721-ownerOf}."
      },
      "safeTransferFrom(address,address,uint256)": {
        "details": "See {IERC721-safeTransferFrom}."
      },
      "safeTransferFrom(address,address,uint256,bytes)": {
        "details": "See {IERC721-safeTransferFrom}."
      },
      "setApprovalForAll(address,bool)": {
        "details": "See {IERC721-setApprovalForAll}."
      },
      "supportsInterface(bytes4)": {
        "details": "See {IERC165-supportsInterface}."
      },
      "symbol()": {
        "details": "See {IERC721Metadata-symbol}."
      },
      "tokenURI(uint256)": {
        "details": "See {IERC721Metadata-tokenURI}."
      },
      "transferFrom(address,address,uint256)": {
        "details": "See {IERC721-transferFrom}."
      }
    },
    "version": 1
  },
  "userdoc": {
    "kind": "user",
    "methods": {},
    "version": 1
  }
}