{
  "contractName": "Faculty",
  "abi": [
    {
      "inputs": [
        {
          "internalType": "address",
          "name": "_rolesContractAddress",
          "type": "address"
        }
      ],
      "stateMutability": "nonpayable",
      "type": "constructor"
    },
    {
      "anonymous": false,
      "inputs": [
        {
          "indexed": true,
          "internalType": "address",
          "name": "owner",
          "type": "address"
        },
        {
          "indexed": true,
          "internalType": "address",
          "name": "approved",
          "type": "address"
        },
        {
          "indexed": true,
          "internalType": "uint256",
          "name": "tokenId",
          "type": "uint256"
        }
      ],
      "name": "Approval",
      "type": "event"
    },
    {
      "anonymous": false,
      "inputs": [
        {
          "indexed": true,
          "internalType": "address",
          "name": "owner",
          "type": "address"
        },
        {
          "indexed": true,
          "internalType": "address",
          "name": "operator",
          "type": "address"
        },
        {
          "indexed": false,
          "internalType": "bool",
          "name": "approved",
          "type": "bool"
        }
      ],
      "name": "ApprovalForAll",
      "type": "event"
    },
    {
      "anonymous": false,
      "inputs": [
        {
          "indexed": true,
          "internalType": "address",
          "name": "from",
          "type": "address"
        },
        {
          "indexed": true,
          "internalType": "address",
          "name": "to",
          "type": "address"
        },
        {
          "indexed": true,
          "internalType": "uint256",
          "name": "tokenId",
          "type": "uint256"
        }
      ],
      "name": "Transfer",
      "type": "event"
    },
    {
      "inputs": [
        {
          "internalType": "address",
          "name": "to",
          "type": "address"
        },
        {
          "internalType": "uint256",
          "name": "tokenId",
          "type": "uint256"
        }
      ],
      "name": "approve",
      "outputs": [],
      "stateMutability": "nonpayable",
      "type": "function"
    },
    {
      "inputs": [
        {
          "internalType": "address",
          "name": "owner",
          "type": "address"
        }
      ],
      "name": "balanceOf",
      "outputs": [
        {
          "internalType": "uint256",
          "name": "",
          "type": "uint256"
        }
      ],
      "stateMutability": "view",
      "type": "function"
    },
    {
      "inputs": [
        {
          "internalType": "uint256",
          "name": "tokenId",
          "type": "uint256"
        }
      ],
      "name": "getApproved",
      "outputs": [
        {
          "internalType": "address",
          "name": "",
          "type": "address"
        }
      ],
      "stateMutability": "view",
      "type": "function"
    },
    {
      "inputs": [
        {
          "internalType": "address",
          "name": "owner",
          "type": "address"
        },
        {
          "internalType": "address",
          "name": "operator",
          "type": "address"
        }
      ],
      "name": "isApprovedForAll",
      "outputs": [
        {
          "internalType": "bool",
          "name": "",
          "type": "bool"
        }
      ],
      "stateMutability": "view",
      "type": "function"
    },
    {
      "inputs": [],
      "name": "name",
      "outputs": [
        {
          "internalType": "string",
          "name": "",
          "type": "string"
        }
      ],
      "stateMutability": "view",
      "type": "function"
    },
    {
      "inputs": [
        {
          "internalType": "uint256",
          "name": "tokenId",
          "type": "uint256"
        }
      ],
      "name": "ownerOf",
      "outputs": [
        {
          "internalType": "address",
          "name": "",
          "type": "address"
        }
      ],
      "stateMutability": "view",
      "type": "function"
    },
    {
      "inputs": [
        {
          "internalType": "address",
          "name": "operator",
          "type": "address"
        },
        {
          "internalType": "bool",
          "name": "approved",
          "type": "bool"
        }
      ],
      "name": "setApprovalForAll",
      "outputs": [],
      "stateMutability": "nonpayable",
      "type": "function"
    },
    {
      "inputs": [
        {
          "internalType": "bytes4",
          "name": "interfaceId",
          "type": "bytes4"
        }
      ],
      "name": "supportsInterface",
      "outputs": [
        {
          "internalType": "bool",
          "name": "",
          "type": "bool"
        }
      ],
      "stateMutability": "view",
      "type": "function"
    },
    {
      "inputs": [],
      "name": "symbol",
      "outputs": [
        {
          "internalType": "string",
          "name": "",
          "type": "string"
        }
      ],
      "stateMutability": "view",
      "type": "function"
    },
    {
      "inputs": [
        {
          "internalType": "uint256",
          "name": "tokenId",
          "type": "uint256"
        }
      ],
      "name": "tokenURI",
      "outputs": [
        {
          "internalType": "string",
          "name": "",
          "type": "string"
        }
      ],
      "stateMutability": "view",
      "type": "function"
    },
    {
      "inputs": [
        {
          "internalType": "string",
          "name": "_facultyName",
          "type": "string"
        },
        {
          "internalType": "address",
          "name": "facultyAddress",
          "type": "address"
        }
      ],
      "name": "mint",
      "outputs": [],
      "stateMutability": "nonpayable",
      "type": "function"
    },
    {
      "inputs": [
        {
          "internalType": "uint256",
          "name": "id",
          "type": "uint256"
        }
      ],
      "name": "getFacultyName",
      "outputs": [
        {
          "internalType": "string",
          "name": "",
          "type": "string"
        }
      ],
      "stateMutability": "view",
      "type": "function"
    },
    {
      "inputs": [
        {
          "internalType": "string",
          "name": "facultyName",
          "type": "string"
        }
      ],
      "name": "getFacultyID",
      "outputs": [
        {
          "internalType": "uint256",
          "name": "",
          "type": "uint256"
        }
      ],
      "stateMutability": "view",
      "type": "function"
    },
    {
      "inputs": [],
      "name": "getTotalSupply",
      "outputs": [
        {
          "internalType": "uint256",
          "name": "",
          "type": "uint256"
        }
      ],
      "stateMutability": "view",
      "type": "function"
    },
    {
      "inputs": [
        {
          "internalType": "uint256",
          "name": "id",
          "type": "uint256"
        }
      ],
      "name": "getDepartments",
      "outputs": [
        {
          "internalType": "address[]",
          "name": "",
          "type": "address[]"
        }
      ],
      "stateMutability": "view",
      "type": "function"
    },
    {
      "inputs": [
        {
          "internalType": "uint256",
          "name": "id",
          "type": "uint256"
        },
        {
          "internalType": "address[]",
          "name": "departments",
          "type": "address[]"
        }
      ],
      "name": "setDepartments",
      "outputs": [],
      "stateMutability": "nonpayable",
      "type": "function"
    },
    {
      "inputs": [
        {
          "internalType": "address",
          "name": "from",
          "type": "address"
        },
        {
          "internalType": "address",
          "name": "to",
          "type": "address"
        },
        {
          "internalType": "uint256",
          "name": "tokenId",
          "type": "uint256"
        }
      ],
      "name": "transferFrom",
      "outputs": [],
      "stateMutability": "nonpayable",
      "type": "function"
    },
    {
      "inputs": [
        {
          "internalType": "address",
          "name": "from",
          "type": "address"
        },
        {
          "internalType": "address",
          "name": "to",
          "type": "address"
        },
        {
          "internalType": "uint256",
          "name": "tokenId",
          "type": "uint256"
        }
      ],
      "name": "safeTransferFrom",
      "outputs": [],
      "stateMutability": "nonpayable",
      "type": "function"
    },
    {
      "inputs": [
        {
          "internalType": "address",
          "name": "from",
          "type": "address"
        },
        {
          "internalType": "address",
          "name": "to",
          "type": "address"
        },
        {
          "internalType": "uint256",
          "name": "tokenId",
          "type": "uint256"
        },
        {
          "internalType": "bytes",
          "name": "_data",
          "type": "bytes"
        }
      ],
      "name": "safeTransferFrom",
      "outputs": [],
      "stateMutability": "nonpayable",
      "type": "function"
    }
  ],
  "bytecode": "0x608060405260006007553480156200001657600080fd5b5060405162003a5238038062003a5283398181016040528101906200003c91906200023e565b6040518060400160405280600781526020017f466163756c7479000000000000000000000000000000000000000000000000008152506040518060400160405280600381526020017f46414300000000000000000000000000000000000000000000000000000000008152508160009080519060200190620000c092919062000124565b508060019080519060200190620000d992919062000124565b50505080600660006101000a81548173ffffffffffffffffffffffffffffffffffffffff021916908373ffffffffffffffffffffffffffffffffffffffff16021790555050620002d5565b82805462000132906200029f565b90600052602060002090601f016020900481019282620001565760008555620001a2565b82601f106200017157805160ff1916838001178555620001a2565b82800160010185558215620001a2579182015b82811115620001a157825182559160200191906001019062000184565b5b509050620001b19190620001b5565b5090565b5b80821115620001d0576000816000905550600101620001b6565b5090565b600080fd5b600073ffffffffffffffffffffffffffffffffffffffff82169050919050565b60006200020682620001d9565b9050919050565b6200021881620001f9565b81146200022457600080fd5b50565b60008151905062000238816200020d565b92915050565b600060208284031215620002575762000256620001d4565b5b6000620002678482850162000227565b91505092915050565b7f4e487b7100000000000000000000000000000000000000000000000000000000600052602260045260246000fd5b60006002820490506001821680620002b857607f821691505b60208210811415620002cf57620002ce62000270565b5b50919050565b61376d80620002e56000396000f3fe608060405234801561001057600080fd5b50600436106101215760003560e01c80636352211e116100ad578063b88d4fde11610071578063b88d4fde1461033e578063b9837a001461035a578063c4e41b2214610376578063c87b56dd14610394578063e985e9c5146103c457610121565b80636352211e146102745780637048fae5146102a457806370a08231146102d457806395d89b4114610304578063a22cb4651461032257610121565b80631c351a9d116100f45780631c351a9d146101c057806323b872dd146101dc57806326970179146101f857806334604c471461022857806342842e0e1461025857610121565b806301ffc9a71461012657806306fdde0314610156578063081812fc14610174578063095ea7b3146101a4575b600080fd5b610140600480360381019061013b9190611ff2565b6103f4565b60405161014d919061203a565b60405180910390f35b61015e6104d6565b60405161016b91906120ee565b60405180910390f35b61018e60048036038101906101899190612146565b610568565b60405161019b91906121b4565b60405180910390f35b6101be60048036038101906101b991906121fb565b6105ed565b005b6101da60048036038101906101d59190612370565b610705565b005b6101f660048036038101906101f191906123cc565b610aac565b005b610212600480360381019061020d9190612146565b610b2b565b60405161021f91906124dd565b60405180910390f35b610242600480360381019061023d91906124ff565b610bcc565b60405161024f9190612557565b60405180910390f35b610272600480360381019061026d91906123cc565b610bf4565b005b61028e60048036038101906102899190612146565b610c73565b60405161029b91906121b4565b60405180910390f35b6102be60048036038101906102b99190612146565b610d25565b6040516102cb91906120ee565b60405180910390f35b6102ee60048036038101906102e99190612572565b610dca565b6040516102fb9190612557565b60405180910390f35b61030c610e82565b60405161031991906120ee565b60405180910390f35b61033c600480360381019061033791906125cb565b610f14565b005b610358600480360381019061035391906126ac565b610f2a565b005b610374600480360381019061036f91906127f7565b610fab565b005b61037e6110b2565b60405161038b9190612557565b60405180910390f35b6103ae60048036038101906103a99190612146565b6110bc565b6040516103bb91906120ee565b60405180910390f35b6103de60048036038101906103d99190612853565b611163565b6040516103eb919061203a565b60405180910390f35b60007f80ac58cd000000000000000000000000000000000000000000000000000000007bffffffffffffffffffffffffffffffffffffffffffffffffffffffff1916827bffffffffffffffffffffffffffffffffffffffffffffffffffffffff191614806104bf57507f5b5e139f000000000000000000000000000000000000000000000000000000007bffffffffffffffffffffffffffffffffffffffffffffffffffffffff1916827bffffffffffffffffffffffffffffffffffffffffffffffffffffffff1916145b806104cf57506104ce826111f7565b5b9050919050565b6060600080546104e5906128c2565b80601f0160208091040260200160405190810160405280929190818152602001828054610511906128c2565b801561055e5780601f106105335761010080835404028352916020019161055e565b820191906000526020600020905b81548152906001019060200180831161054157829003601f168201915b5050505050905090565b600061057382611261565b6105b2576040517f08c379a00000000000000000000000000000000000000000000000000000000081526004016105a990612966565b60405180910390fd5b6004600083815260200190815260200160002060009054906101000a900473ffffffffffffffffffffffffffffffffffffffff169050919050565b60006105f882610c73565b90508073ffffffffffffffffffffffffffffffffffffffff168373ffffffffffffffffffffffffffffffffffffffff161415610669576040517f08c379a0000000000000000000000000000000000000000000000000000000008152600401610660906129f8565b60405180910390fd5b8073ffffffffffffffffffffffffffffffffffffffff166106886112cd565b73ffffffffffffffffffffffffffffffffffffffff1614806106b757506106b6816106b16112cd565b611163565b5b6106f6576040517f08c379a00000000000000000000000000000000000000000000000000000000081526004016106ed90612a8a565b60405180910390fd5b61070083836112d5565b505050565b600660009054906101000a900473ffffffffffffffffffffffffffffffffffffffff1673ffffffffffffffffffffffffffffffffffffffff16632be7dc44336040518263ffffffff1660e01b815260040161076091906121b4565b602060405180830381865afa15801561077d573d6000803e3d6000fd5b505050506040513d601f19601f820116820180604052508101906107a19190612abf565b6107e0576040517f08c379a00000000000000000000000000000000000000000000000000000000081526004016107d790612b5e565b60405180910390fd5b60006009836040516107f29190612bba565b90815260200160405180910390205414610841576040517f08c379a000000000000000000000000000000000000000000000000000000000815260040161083890612c1d565b60405180910390fd5b600660009054906101000a900473ffffffffffffffffffffffffffffffffffffffff1673ffffffffffffffffffffffffffffffffffffffff1663529f790c826040518263ffffffff1660e01b815260040161089c91906121b4565b600060405180830381600087803b1580156108b657600080fd5b505af11580156108ca573d6000803e3d6000fd5b50505050600660009054906101000a900473ffffffffffffffffffffffffffffffffffffffff1673ffffffffffffffffffffffffffffffffffffffff1663e78af7c5826040518263ffffffff1660e01b815260040161092991906121b4565b602060405180830381865afa158015610946573d6000803e3d6000fd5b505050506040513d601f19601f8201168201806040525081019061096a9190612abf565b6109a9576040517f08c379a00000000000000000000000000000000000000000000000000000000081526004016109a090612caf565b60405180910390fd5b6040516020016109b890612cf5565b60405160208183030381529060405280519060200120826040516020016109df9190612bba565b604051602081830303815290604052805190602001201415610a36576040517f08c379a0000000000000000000000000000000000000000000000000000000008152600401610a2d90612d56565b60405180910390fd5b6001600754610a459190612da5565b60078190555060006007549050610a5c828261138e565b80600984604051610a6d9190612bba565b90815260200160405180910390208190555082600860008381526020019081526020016000209080519060200190610aa6929190611e59565b50505050565b600073ffffffffffffffffffffffffffffffffffffffff163373ffffffffffffffffffffffffffffffffffffffff1614610b1b576040517f08c379a0000000000000000000000000000000000000000000000000000000008152600401610b1290612e6d565b60405180910390fd5b610b2683838361155c565b505050565b6060600a6000838152602001908152602001600020805480602002602001604051908101604052809291908181526020018280548015610bc057602002820191906000526020600020905b8160009054906101000a900473ffffffffffffffffffffffffffffffffffffffff1673ffffffffffffffffffffffffffffffffffffffff1681526020019060010190808311610b76575b50505050509050919050565b6000600982604051610bde9190612bba565b9081526020016040518091039020549050919050565b600073ffffffffffffffffffffffffffffffffffffffff163373ffffffffffffffffffffffffffffffffffffffff1614610c63576040517f08c379a0000000000000000000000000000000000000000000000000000000008152600401610c5a90612e6d565b60405180910390fd5b610c6e8383836115bc565b505050565b6000806002600084815260200190815260200160002060009054906101000a900473ffffffffffffffffffffffffffffffffffffffff169050600073ffffffffffffffffffffffffffffffffffffffff168173ffffffffffffffffffffffffffffffffffffffff161415610d1c576040517f08c379a0000000000000000000000000000000000000000000000000000000008152600401610d1390612eff565b60405180910390fd5b80915050919050565b6060600860008381526020019081526020016000208054610d45906128c2565b80601f0160208091040260200160405190810160405280929190818152602001828054610d71906128c2565b8015610dbe5780601f10610d9357610100808354040283529160200191610dbe565b820191906000526020600020905b815481529060010190602001808311610da157829003601f168201915b50505050509050919050565b60008073ffffffffffffffffffffffffffffffffffffffff168273ffffffffffffffffffffffffffffffffffffffff161415610e3b576040517f08c379a0000000000000000000000000000000000000000000000000000000008152600401610e3290612f91565b60405180910390fd5b600360008373ffffffffffffffffffffffffffffffffffffffff1673ffffffffffffffffffffffffffffffffffffffff168152602001908152602001600020549050919050565b606060018054610e91906128c2565b80601f0160208091040260200160405190810160405280929190818152602001828054610ebd906128c2565b8015610f0a5780601f10610edf57610100808354040283529160200191610f0a565b820191906000526020600020905b815481529060010190602001808311610eed57829003601f168201915b5050505050905090565b610f26610f1f6112cd565b83836115dc565b5050565b600073ffffffffffffffffffffffffffffffffffffffff163373ffffffffffffffffffffffffffffffffffffffff1614610f99576040517f08c379a0000000000000000000000000000000000000000000000000000000008152600401610f9090612e6d565b60405180910390fd5b610fa584848484611749565b50505050565b600660009054906101000a900473ffffffffffffffffffffffffffffffffffffffff1673ffffffffffffffffffffffffffffffffffffffff16632be7dc44336040518263ffffffff1660e01b815260040161100691906121b4565b602060405180830381865afa158015611023573d6000803e3d6000fd5b505050506040513d601f19601f820116820180604052508101906110479190612abf565b611086576040517f08c379a000000000000000000000000000000000000000000000000000000000815260040161107d90613023565b60405180910390fd5b80600a600084815260200190815260200160002090805190602001906110ad929190611edf565b505050565b6000600754905090565b60606110c782611261565b611106576040517f08c379a00000000000000000000000000000000000000000000000000000000081526004016110fd906130b5565b60405180910390fd5b60006111106117ab565b90506000815111611130576040518060200160405280600081525061115b565b8061113a846117c2565b60405160200161114b9291906130d5565b6040516020818303038152906040525b915050919050565b6000600560008473ffffffffffffffffffffffffffffffffffffffff1673ffffffffffffffffffffffffffffffffffffffff16815260200190815260200160002060008373ffffffffffffffffffffffffffffffffffffffff1673ffffffffffffffffffffffffffffffffffffffff16815260200190815260200160002060009054906101000a900460ff16905092915050565b60007f01ffc9a7000000000000000000000000000000000000000000000000000000007bffffffffffffffffffffffffffffffffffffffffffffffffffffffff1916827bffffffffffffffffffffffffffffffffffffffffffffffffffffffff1916149050919050565b60008073ffffffffffffffffffffffffffffffffffffffff166002600084815260200190815260200160002060009054906101000a900473ffffffffffffffffffffffffffffffffffffffff1673ffffffffffffffffffffffffffffffffffffffff1614159050919050565b600033905090565b816004600083815260200190815260200160002060006101000a81548173ffffffffffffffffffffffffffffffffffffffff021916908373ffffffffffffffffffffffffffffffffffffffff160217905550808273ffffffffffffffffffffffffffffffffffffffff1661134883610c73565b73ffffffffffffffffffffffffffffffffffffffff167f8c5be1e5ebec7d5bd14f71427d1e84f3dd0314c0f7b2291e5b200ac8c7c3b92560405160405180910390a45050565b600073ffffffffffffffffffffffffffffffffffffffff168273ffffffffffffffffffffffffffffffffffffffff1614156113fe576040517f08c379a00000000000000000000000000000000000000000000000000000000081526004016113f590613145565b60405180910390fd5b61140781611261565b15611447576040517f08c379a000000000000000000000000000000000000000000000000000000000815260040161143e906131b1565b60405180910390fd5b61145360008383611923565b6001600360008473ffffffffffffffffffffffffffffffffffffffff1673ffffffffffffffffffffffffffffffffffffffff16815260200190815260200160002060008282546114a39190612da5565b92505081905550816002600083815260200190815260200160002060006101000a81548173ffffffffffffffffffffffffffffffffffffffff021916908373ffffffffffffffffffffffffffffffffffffffff160217905550808273ffffffffffffffffffffffffffffffffffffffff16600073ffffffffffffffffffffffffffffffffffffffff167fddf252ad1be2c89b69c2b068fc378daa952ba7f163c4a11628f55a4df523b3ef60405160405180910390a45050565b61156d6115676112cd565b82611928565b6115ac576040517f08c379a00000000000000000000000000000000000000000000000000000000081526004016115a390613243565b60405180910390fd5b6115b7838383611a06565b505050565b6115d783838360405180602001604052806000815250610f2a565b505050565b8173ffffffffffffffffffffffffffffffffffffffff168373ffffffffffffffffffffffffffffffffffffffff16141561164b576040517f08c379a0000000000000000000000000000000000000000000000000000000008152600401611642906132af565b60405180910390fd5b80600560008573ffffffffffffffffffffffffffffffffffffffff1673ffffffffffffffffffffffffffffffffffffffff16815260200190815260200160002060008473ffffffffffffffffffffffffffffffffffffffff1673ffffffffffffffffffffffffffffffffffffffff16815260200190815260200160002060006101000a81548160ff0219169083151502179055508173ffffffffffffffffffffffffffffffffffffffff168373ffffffffffffffffffffffffffffffffffffffff167f17307eab39ab6107e8899845ad3d59bd9653f200f220920489ca2b5937696c318360405161173c919061203a565b60405180910390a3505050565b61175a6117546112cd565b83611928565b611799576040517f08c379a000000000000000000000000000000000000000000000000000000000815260040161179090613243565b60405180910390fd5b6117a584848484611c62565b50505050565b606060405180602001604052806000815250905090565b6060600082141561180a576040518060400160405280600181526020017f3000000000000000000000000000000000000000000000000000000000000000815250905061191e565b600082905060005b6000821461183c578080611825906132cf565b915050600a826118359190613347565b9150611812565b60008167ffffffffffffffff81111561185857611857612245565b5b6040519080825280601f01601f19166020018201604052801561188a5781602001600182028036833780820191505090505b5090505b60008514611917576001826118a39190613378565b9150600a856118b291906133ac565b60306118be9190612da5565b60f81b8183815181106118d4576118d36133dd565b5b60200101907effffffffffffffffffffffffffffffffffffffffffffffffffffffffffffff1916908160001a905350600a856119109190613347565b945061188e565b8093505050505b919050565b505050565b600061193382611261565b611972576040517f08c379a00000000000000000000000000000000000000000000000000000000081526004016119699061347e565b60405180910390fd5b600061197d83610c73565b90508073ffffffffffffffffffffffffffffffffffffffff168473ffffffffffffffffffffffffffffffffffffffff1614806119ec57508373ffffffffffffffffffffffffffffffffffffffff166119d484610568565b73ffffffffffffffffffffffffffffffffffffffff16145b806119fd57506119fc8185611163565b5b91505092915050565b8273ffffffffffffffffffffffffffffffffffffffff16611a2682610c73565b73ffffffffffffffffffffffffffffffffffffffff1614611a7c576040517f08c379a0000000000000000000000000000000000000000000000000000000008152600401611a7390613510565b60405180910390fd5b600073ffffffffffffffffffffffffffffffffffffffff168273ffffffffffffffffffffffffffffffffffffffff161415611aec576040517f08c379a0000000000000000000000000000000000000000000000000000000008152600401611ae3906135a2565b60405180910390fd5b611af7838383611923565b611b026000826112d5565b6001600360008573ffffffffffffffffffffffffffffffffffffffff1673ffffffffffffffffffffffffffffffffffffffff1681526020019081526020016000206000828254611b529190613378565b925050819055506001600360008473ffffffffffffffffffffffffffffffffffffffff1673ffffffffffffffffffffffffffffffffffffffff1681526020019081526020016000206000828254611ba99190612da5565b92505081905550816002600083815260200190815260200160002060006101000a81548173ffffffffffffffffffffffffffffffffffffffff021916908373ffffffffffffffffffffffffffffffffffffffff160217905550808273ffffffffffffffffffffffffffffffffffffffff168473ffffffffffffffffffffffffffffffffffffffff167fddf252ad1be2c89b69c2b068fc378daa952ba7f163c4a11628f55a4df523b3ef60405160405180910390a4505050565b611c6d848484611a06565b611c7984848484611cbe565b611cb8576040517f08c379a0000000000000000000000000000000000000000000000000000000008152600401611caf90613634565b60405180910390fd5b50505050565b6000611cdf8473ffffffffffffffffffffffffffffffffffffffff16611e46565b15611e39578373ffffffffffffffffffffffffffffffffffffffff1663150b7a02611d086112cd565b8786866040518563ffffffff1660e01b8152600401611d2a94939291906136a9565b6020604051808303816000875af1925050508015611d6657506040513d601f19601f82011682018060405250810190611d63919061370a565b60015b611de9573d8060008114611d96576040519150601f19603f3d011682016040523d82523d6000602084013e611d9b565b606091505b50600081511415611de1576040517f08c379a0000000000000000000000000000000000000000000000000000000008152600401611dd890613634565b60405180910390fd5b805181602001fd5b63150b7a0260e01b7bffffffffffffffffffffffffffffffffffffffffffffffffffffffff1916817bffffffffffffffffffffffffffffffffffffffffffffffffffffffff191614915050611e3e565b600190505b949350505050565b600080823b905060008111915050919050565b828054611e65906128c2565b90600052602060002090601f016020900481019282611e875760008555611ece565b82601f10611ea057805160ff1916838001178555611ece565b82800160010185558215611ece579182015b82811115611ecd578251825591602001919060010190611eb2565b5b509050611edb9190611f69565b5090565b828054828255906000526020600020908101928215611f58579160200282015b82811115611f575782518260006101000a81548173ffffffffffffffffffffffffffffffffffffffff021916908373ffffffffffffffffffffffffffffffffffffffff16021790555091602001919060010190611eff565b5b509050611f659190611f69565b5090565b5b80821115611f82576000816000905550600101611f6a565b5090565b6000604051905090565b600080fd5b600080fd5b60007fffffffff0000000000000000000000000000000000000000000000000000000082169050919050565b611fcf81611f9a565b8114611fda57600080fd5b50565b600081359050611fec81611fc6565b92915050565b60006020828403121561200857612007611f90565b5b600061201684828501611fdd565b91505092915050565b60008115159050919050565b6120348161201f565b82525050565b600060208201905061204f600083018461202b565b92915050565b600081519050919050565b600082825260208201905092915050565b60005b8381101561208f578082015181840152602081019050612074565b8381111561209e576000848401525b50505050565b6000601f19601f8301169050919050565b60006120c082612055565b6120ca8185612060565b93506120da818560208601612071565b6120e3816120a4565b840191505092915050565b6000602082019050818103600083015261210881846120b5565b905092915050565b6000819050919050565b61212381612110565b811461212e57600080fd5b50565b6000813590506121408161211a565b92915050565b60006020828403121561215c5761215b611f90565b5b600061216a84828501612131565b91505092915050565b600073ffffffffffffffffffffffffffffffffffffffff82169050919050565b600061219e82612173565b9050919050565b6121ae81612193565b82525050565b60006020820190506121c960008301846121a5565b92915050565b6121d881612193565b81146121e357600080fd5b50565b6000813590506121f5816121cf565b92915050565b6000806040838503121561221257612211611f90565b5b6000612220858286016121e6565b925050602061223185828601612131565b9150509250929050565b600080fd5b600080fd5b7f4e487b7100000000000000000000000000000000000000000000000000000000600052604160045260246000fd5b61227d826120a4565b810181811067ffffffffffffffff8211171561229c5761229b612245565b5b80604052505050565b60006122af611f86565b90506122bb8282612274565b919050565b600067ffffffffffffffff8211156122db576122da612245565b5b6122e4826120a4565b9050602081019050919050565b82818337600083830152505050565b600061231361230e846122c0565b6122a5565b90508281526020810184848401111561232f5761232e612240565b5b61233a8482856122f1565b509392505050565b600082601f8301126123575761235661223b565b5b8135612367848260208601612300565b91505092915050565b6000806040838503121561238757612386611f90565b5b600083013567ffffffffffffffff8111156123a5576123a4611f95565b5b6123b185828601612342565b92505060206123c2858286016121e6565b9150509250929050565b6000806000606084860312156123e5576123e4611f90565b5b60006123f3868287016121e6565b9350506020612404868287016121e6565b925050604061241586828701612131565b9150509250925092565b600081519050919050565b600082825260208201905092915050565b6000819050602082019050919050565b61245481612193565b82525050565b6000612466838361244b565b60208301905092915050565b6000602082019050919050565b600061248a8261241f565b612494818561242a565b935061249f8361243b565b8060005b838110156124d05781516124b7888261245a565b97506124c283612472565b9250506001810190506124a3565b5085935050505092915050565b600060208201905081810360008301526124f7818461247f565b905092915050565b60006020828403121561251557612514611f90565b5b600082013567ffffffffffffffff81111561253357612532611f95565b5b61253f84828501612342565b91505092915050565b61255181612110565b82525050565b600060208201905061256c6000830184612548565b92915050565b60006020828403121561258857612587611f90565b5b6000612596848285016121e6565b91505092915050565b6125a88161201f565b81146125b357600080fd5b50565b6000813590506125c58161259f565b92915050565b600080604083850312156125e2576125e1611f90565b5b60006125f0858286016121e6565b9250506020612601858286016125b6565b9150509250929050565b600067ffffffffffffffff82111561262657612625612245565b5b61262f826120a4565b9050602081019050919050565b600061264f61264a8461260b565b6122a5565b90508281526020810184848401111561266b5761266a612240565b5b6126768482856122f1565b509392505050565b600082601f8301126126935761269261223b565b5b81356126a384826020860161263c565b91505092915050565b600080600080608085870312156126c6576126c5611f90565b5b60006126d4878288016121e6565b94505060206126e5878288016121e6565b93505060406126f687828801612131565b925050606085013567ffffffffffffffff81111561271757612716611f95565b5b6127238782880161267e565b91505092959194509250565b600067ffffffffffffffff82111561274a57612749612245565b5b602082029050602081019050919050565b600080fd5b600061277361276e8461272f565b6122a5565b905080838252602082019050602084028301858111156127965761279561275b565b5b835b818110156127bf57806127ab88826121e6565b845260208401935050602081019050612798565b5050509392505050565b600082601f8301126127de576127dd61223b565b5b81356127ee848260208601612760565b91505092915050565b6000806040838503121561280e5761280d611f90565b5b600061281c85828601612131565b925050602083013567ffffffffffffffff81111561283d5761283c611f95565b5b612849858286016127c9565b9150509250929050565b6000806040838503121561286a57612869611f90565b5b6000612878858286016121e6565b9250506020612889858286016121e6565b9150509250929050565b7f4e487b7100000000000000000000000000000000000000000000000000000000600052602260045260246000fd5b600060028204905060018216806128da57607f821691505b602082108114156128ee576128ed612893565b5b50919050565b7f4552433732313a20617070726f76656420717565727920666f72206e6f6e657860008201527f697374656e7420746f6b656e0000000000000000000000000000000000000000602082015250565b6000612950602c83612060565b915061295b826128f4565b604082019050919050565b6000602082019050818103600083015261297f81612943565b9050919050565b7f4552433732313a20617070726f76616c20746f2063757272656e74206f776e6560008201527f7200000000000000000000000000000000000000000000000000000000000000602082015250565b60006129e2602183612060565b91506129ed82612986565b604082019050919050565b60006020820190508181036000830152612a11816129d5565b9050919050565b7f4552433732313a20617070726f76652063616c6c6572206973206e6f74206f7760008201527f6e6572206e6f7220617070726f76656420666f7220616c6c0000000000000000602082015250565b6000612a74603883612060565b9150612a7f82612a18565b604082019050919050565b60006020820190508181036000830152612aa381612a67565b9050919050565b600081519050612ab98161259f565b92915050565b600060208284031215612ad557612ad4611f90565b5b6000612ae384828501612aaa565b91505092915050565b7f54686973206163636f756e7420646f6573206e6f74206861766520526563746f60008201527f72205065726d6d6973696f6e7300000000000000000000000000000000000000602082015250565b6000612b48602d83612060565b9150612b5382612aec565b604082019050919050565b60006020820190508181036000830152612b7781612b3b565b9050919050565b600081905092915050565b6000612b9482612055565b612b9e8185612b7e565b9350612bae818560208601612071565b80840191505092915050565b6000612bc68284612b89565b915081905092915050565b7f5468697320466163756c747920697320616c7265616479206578697374000000600082015250565b6000612c07601d83612060565b9150612c1282612bd1565b602082019050919050565b60006020820190508181036000830152612c3681612bfa565b9050919050565b7f546869732061646472657373206973206e6f7420696e20464143554c54595f5260008201527f4f4c450000000000000000000000000000000000000000000000000000000000602082015250565b6000612c99602383612060565b9150612ca482612c3d565b604082019050919050565b60006020820190508181036000830152612cc881612c8c565b9050919050565b50565b6000612cdf600083612b7e565b9150612cea82612ccf565b600082019050919050565b6000612d0082612cd2565b9150819050919050565b7f466163756c7479206e616d652063616e6e6f7420626520656d70747900000000600082015250565b6000612d40601c83612060565b9150612d4b82612d0a565b602082019050919050565b60006020820190508181036000830152612d6f81612d33565b9050919050565b7f4e487b7100000000000000000000000000000000000000000000000000000000600052601160045260246000fd5b6000612db082612110565b9150612dbb83612110565b9250827fffffffffffffffffffffffffffffffffffffffffffffffffffffffffffffffff03821115612df057612def612d76565b5b828201905092915050565b7f5472616e73666572206166746572206d696e742069732070726f68696269746560008201527f6400000000000000000000000000000000000000000000000000000000000000602082015250565b6000612e57602183612060565b9150612e6282612dfb565b604082019050919050565b60006020820190508181036000830152612e8681612e4a565b9050919050565b7f4552433732313a206f776e657220717565727920666f72206e6f6e657869737460008201527f656e7420746f6b656e0000000000000000000000000000000000000000000000602082015250565b6000612ee9602983612060565b9150612ef482612e8d565b604082019050919050565b60006020820190508181036000830152612f1881612edc565b9050919050565b7f4552433732313a2062616c616e636520717565727920666f7220746865207a6560008201527f726f206164647265737300000000000000000000000000000000000000000000602082015250565b6000612f7b602a83612060565b9150612f8682612f1f565b604082019050919050565b60006020820190508181036000830152612faa81612f6e565b9050919050565b7f54686973206164647265737320646f6573206e6f74206861766520526563746f60008201527f72205065726d697373696f6e7300000000000000000000000000000000000000602082015250565b600061300d602d83612060565b915061301882612fb1565b604082019050919050565b6000602082019050818103600083015261303c81613000565b9050919050565b7f4552433732314d657461646174613a2055524920717565727920666f72206e6f60008201527f6e6578697374656e7420746f6b656e0000000000000000000000000000000000602082015250565b600061309f602f83612060565b91506130aa82613043565b604082019050919050565b600060208201905081810360008301526130ce81613092565b9050919050565b60006130e18285612b89565b91506130ed8284612b89565b91508190509392505050565b7f4552433732313a206d696e7420746f20746865207a65726f2061646472657373600082015250565b600061312f602083612060565b915061313a826130f9565b602082019050919050565b6000602082019050818103600083015261315e81613122565b9050919050565b7f4552433732313a20746f6b656e20616c7265616479206d696e74656400000000600082015250565b600061319b601c83612060565b91506131a682613165565b602082019050919050565b600060208201905081810360008301526131ca8161318e565b9050919050565b7f4552433732313a207472616e736665722063616c6c6572206973206e6f74206f60008201527f776e6572206e6f7220617070726f766564000000000000000000000000000000602082015250565b600061322d603183612060565b9150613238826131d1565b604082019050919050565b6000602082019050818103600083015261325c81613220565b9050919050565b7f4552433732313a20617070726f766520746f2063616c6c657200000000000000600082015250565b6000613299601983612060565b91506132a482613263565b602082019050919050565b600060208201905081810360008301526132c88161328c565b9050919050565b60006132da82612110565b91507fffffffffffffffffffffffffffffffffffffffffffffffffffffffffffffffff82141561330d5761330c612d76565b5b600182019050919050565b7f4e487b7100000000000000000000000000000000000000000000000000000000600052601260045260246000fd5b600061335282612110565b915061335d83612110565b92508261336d5761336c613318565b5b828204905092915050565b600061338382612110565b915061338e83612110565b9250828210156133a1576133a0612d76565b5b828203905092915050565b60006133b782612110565b91506133c283612110565b9250826133d2576133d1613318565b5b828206905092915050565b7f4e487b7100000000000000000000000000000000000000000000000000000000600052603260045260246000fd5b7f4552433732313a206f70657261746f7220717565727920666f72206e6f6e657860008201527f697374656e7420746f6b656e0000000000000000000000000000000000000000602082015250565b6000613468602c83612060565b91506134738261340c565b604082019050919050565b600060208201905081810360008301526134978161345b565b9050919050565b7f4552433732313a207472616e73666572206f6620746f6b656e2074686174206960008201527f73206e6f74206f776e0000000000000000000000000000000000000000000000602082015250565b60006134fa602983612060565b91506135058261349e565b604082019050919050565b60006020820190508181036000830152613529816134ed565b9050919050565b7f4552433732313a207472616e7366657220746f20746865207a65726f2061646460008201527f7265737300000000000000000000000000000000000000000000000000000000602082015250565b600061358c602483612060565b915061359782613530565b604082019050919050565b600060208201905081810360008301526135bb8161357f565b9050919050565b7f4552433732313a207472616e7366657220746f206e6f6e20455243373231526560008201527f63656976657220696d706c656d656e7465720000000000000000000000000000602082015250565b600061361e603283612060565b9150613629826135c2565b604082019050919050565b6000602082019050818103600083015261364d81613611565b9050919050565b600081519050919050565b600082825260208201905092915050565b600061367b82613654565b613685818561365f565b9350613695818560208601612071565b61369e816120a4565b840191505092915050565b60006080820190506136be60008301876121a5565b6136cb60208301866121a5565b6136d86040830185612548565b81810360608301526136ea8184613670565b905095945050505050565b60008151905061370481611fc6565b92915050565b6000602082840312156137205761371f611f90565b5b600061372e848285016136f5565b9150509291505056fea2646970667358221220fe5d285f6e94774af9127e9b66ecf18c9e1060808bd8e6a59407e0d316dedcfb64736f6c634300080a0033",
  "immutableReferences": {},
  "source": "pragma solidity ^0.8.10;\r\n\r\nimport \"@openzeppelin/contracts/token/ERC721/ERC721.sol\";\r\nimport \"./Roles.sol\";\r\n\r\ncontract Faculty is ERC721{\r\n\r\n    address rolesContractAddress;\r\n\r\n    uint256 _totalSupply = 0;\r\n    //mapping from tokenID to facultyName\r\n    mapping(uint256 => string) _facultyNameOfID;\r\n    //mapping from facultyName to tokenID\r\n    mapping(string => uint256) _IDOfFacultyName;\r\n    //mapping from tokenID to its departments\r\n    mapping(uint256 => address[]) _departments;\r\n\r\n    constructor(address _rolesContractAddress) ERC721(\"Faculty\", \"FAC\"){\r\n        rolesContractAddress =_rolesContractAddress;\r\n    }\r\n\r\n    function mint(string memory _facultyName, address facultyAddress) public{\r\n        require(Roles(rolesContractAddress).hasRectorRole(msg.sender), \"This account does not have Rector Permmisions\");\r\n        require(_IDOfFacultyName[_facultyName] == 0, \"This Faculty is already exist\");\r\n        Roles(rolesContractAddress).grantFacultyRole(facultyAddress);\r\n        require(Roles(rolesContractAddress).hasFacultyRole(facultyAddress), \"This address is not in FACULTY_ROLE\");\r\n        require(keccak256(abi.encodePacked(_facultyName)) != keccak256(abi.encodePacked(\"\")), \"Faculty name cannot be empty\");\r\n        // Faculty - add\r\n        _totalSupply = _totalSupply + 1;\r\n        uint _id = _totalSupply; //tokenID's start from 1 because default uint256 value is 0\r\n        // Call the mint function of ERC721\r\n        _mint(facultyAddress, _id);\r\n        // Faculty - track it\r\n        _IDOfFacultyName[_facultyName] = _id;\r\n        _facultyNameOfID[_id] = _facultyName;\r\n    }\r\n    function getFacultyName(uint256 id) public view returns(string memory){\r\n        return _facultyNameOfID[id];\r\n    }\r\n    function getFacultyID(string memory facultyName) public view returns(uint256){\r\n        return _IDOfFacultyName[facultyName];\r\n    }\r\n    function getTotalSupply() public view returns(uint256){\r\n        return _totalSupply;\r\n    }\r\n    function getDepartments(uint256 id) public view returns(address[] memory){\r\n        return _departments[id];\r\n    }\r\n    function setDepartments(uint256 id, address[] memory departments) public{\r\n        require(Roles(rolesContractAddress).hasRectorRole(msg.sender), \"This address does not have Rector Permissions\");\r\n        _departments[id] = departments;\r\n    }\r\n\r\n    function transferFrom(//Only callable when minted\r\n        address from,\r\n        address to,\r\n        uint256 tokenId\r\n    ) public virtual override {\r\n        require(msg.sender == 0x0000000000000000000000000000000000000000, \"Transfer after mint is prohibited\");\r\n        super.transferFrom(from,to,tokenId);\r\n    }\r\n    function safeTransferFrom(//Only callable when minted\r\n        address from,\r\n        address to,\r\n        uint256 tokenId\r\n    ) public virtual override {\r\n        require(msg.sender == 0x0000000000000000000000000000000000000000, \"Transfer after mint is prohibited\");\r\n        super.safeTransferFrom(from,to,tokenId);\r\n    }\r\n    function safeTransferFrom(//Only callable when minted\r\n        address from,\r\n        address to,\r\n        uint256 tokenId,\r\n        bytes memory _data\r\n    ) public virtual override {\r\n        require(msg.sender == 0x0000000000000000000000000000000000000000, \"Transfer after mint is prohibited\");\r\n        super.safeTransferFrom(from, to, tokenId, _data);\r\n    }\r\n\r\n}\r\n",
  "sourcePath": "C:\\Users\\asus\\Desktop\\Dersler\\CMPE492\\certification-project\\contracts\\Faculty.sol",
  "compiler": {
    "name": "solc",
    "version": "0.8.10+commit.fc410830.Emscripten.clang"
  },
  "schemaVersion": "3.4.4",
  "updatedAt": "2022-01-21T02:53:35.304Z",
  "devdoc": {
    "kind": "dev",
    "methods": {
      "approve(address,uint256)": {
        "details": "See {IERC721-approve}."
      },
      "balanceOf(address)": {
        "details": "See {IERC721-balanceOf}."
      },
      "getApproved(uint256)": {
        "details": "See {IERC721-getApproved}."
      },
      "isApprovedForAll(address,address)": {
        "details": "See {IERC721-isApprovedForAll}."
      },
      "name()": {
        "details": "See {IERC721Metadata-name}."
      },
      "ownerOf(uint256)": {
        "details": "See {IERC721-ownerOf}."
      },
      "safeTransferFrom(address,address,uint256)": {
        "details": "See {IERC721-safeTransferFrom}."
      },
      "safeTransferFrom(address,address,uint256,bytes)": {
        "details": "See {IERC721-safeTransferFrom}."
      },
      "setApprovalForAll(address,bool)": {
        "details": "See {IERC721-setApprovalForAll}."
      },
      "supportsInterface(bytes4)": {
        "details": "See {IERC165-supportsInterface}."
      },
      "symbol()": {
        "details": "See {IERC721Metadata-symbol}."
      },
      "tokenURI(uint256)": {
        "details": "See {IERC721Metadata-tokenURI}."
      },
      "transferFrom(address,address,uint256)": {
        "details": "See {IERC721-transferFrom}."
      }
    },
    "version": 1
  },
  "userdoc": {
    "kind": "user",
    "methods": {},
    "version": 1
  }
}