{
  "contractName": "Faculty",
  "abi": [
    {
      "inputs": [],
      "stateMutability": "nonpayable",
      "type": "constructor"
    },
    {
      "anonymous": false,
      "inputs": [
        {
          "indexed": true,
          "internalType": "address",
          "name": "owner",
          "type": "address"
        },
        {
          "indexed": true,
          "internalType": "address",
          "name": "approved",
          "type": "address"
        },
        {
          "indexed": true,
          "internalType": "uint256",
          "name": "tokenId",
          "type": "uint256"
        }
      ],
      "name": "Approval",
      "type": "event"
    },
    {
      "anonymous": false,
      "inputs": [
        {
          "indexed": true,
          "internalType": "address",
          "name": "owner",
          "type": "address"
        },
        {
          "indexed": true,
          "internalType": "address",
          "name": "operator",
          "type": "address"
        },
        {
          "indexed": false,
          "internalType": "bool",
          "name": "approved",
          "type": "bool"
        }
      ],
      "name": "ApprovalForAll",
      "type": "event"
    },
    {
      "anonymous": false,
      "inputs": [
        {
          "indexed": true,
          "internalType": "bytes32",
          "name": "role",
          "type": "bytes32"
        },
        {
          "indexed": true,
          "internalType": "bytes32",
          "name": "previousAdminRole",
          "type": "bytes32"
        },
        {
          "indexed": true,
          "internalType": "bytes32",
          "name": "newAdminRole",
          "type": "bytes32"
        }
      ],
      "name": "RoleAdminChanged",
      "type": "event"
    },
    {
      "anonymous": false,
      "inputs": [
        {
          "indexed": true,
          "internalType": "bytes32",
          "name": "role",
          "type": "bytes32"
        },
        {
          "indexed": true,
          "internalType": "address",
          "name": "account",
          "type": "address"
        },
        {
          "indexed": true,
          "internalType": "address",
          "name": "sender",
          "type": "address"
        }
      ],
      "name": "RoleGranted",
      "type": "event"
    },
    {
      "anonymous": false,
      "inputs": [
        {
          "indexed": true,
          "internalType": "bytes32",
          "name": "role",
          "type": "bytes32"
        },
        {
          "indexed": true,
          "internalType": "address",
          "name": "account",
          "type": "address"
        },
        {
          "indexed": true,
          "internalType": "address",
          "name": "sender",
          "type": "address"
        }
      ],
      "name": "RoleRevoked",
      "type": "event"
    },
    {
      "anonymous": false,
      "inputs": [
        {
          "indexed": true,
          "internalType": "address",
          "name": "from",
          "type": "address"
        },
        {
          "indexed": true,
          "internalType": "address",
          "name": "to",
          "type": "address"
        },
        {
          "indexed": true,
          "internalType": "uint256",
          "name": "tokenId",
          "type": "uint256"
        }
      ],
      "name": "Transfer",
      "type": "event"
    },
    {
      "inputs": [],
      "name": "DEFAULT_ADMIN_ROLE",
      "outputs": [
        {
          "internalType": "bytes32",
          "name": "",
          "type": "bytes32"
        }
      ],
      "stateMutability": "view",
      "type": "function",
      "constant": true
    },
    {
      "inputs": [],
      "name": "DEPARTMENT_ROLE",
      "outputs": [
        {
          "internalType": "bytes32",
          "name": "",
          "type": "bytes32"
        }
      ],
      "stateMutability": "view",
      "type": "function",
      "constant": true
    },
    {
      "inputs": [],
      "name": "FACULTY_ROLE",
      "outputs": [
        {
          "internalType": "bytes32",
          "name": "",
          "type": "bytes32"
        }
      ],
      "stateMutability": "view",
      "type": "function",
      "constant": true
    },
    {
      "inputs": [],
      "name": "GRADUATED_ROLE",
      "outputs": [
        {
          "internalType": "bytes32",
          "name": "",
          "type": "bytes32"
        }
      ],
      "stateMutability": "view",
      "type": "function",
      "constant": true
    },
    {
      "inputs": [],
      "name": "INSTRUCTOR_ROLE",
      "outputs": [
        {
          "internalType": "bytes32",
          "name": "",
          "type": "bytes32"
        }
      ],
      "stateMutability": "view",
      "type": "function",
      "constant": true
    },
    {
      "inputs": [],
      "name": "RECTOR_ROLE",
      "outputs": [
        {
          "internalType": "bytes32",
          "name": "",
          "type": "bytes32"
        }
      ],
      "stateMutability": "view",
      "type": "function",
      "constant": true
    },
    {
      "inputs": [],
      "name": "STUDENT_ROLE",
      "outputs": [
        {
          "internalType": "bytes32",
          "name": "",
          "type": "bytes32"
        }
      ],
      "stateMutability": "view",
      "type": "function",
      "constant": true
    },
    {
      "inputs": [
        {
          "internalType": "address",
          "name": "to",
          "type": "address"
        },
        {
          "internalType": "uint256",
          "name": "tokenId",
          "type": "uint256"
        }
      ],
      "name": "approve",
      "outputs": [],
      "stateMutability": "nonpayable",
      "type": "function"
    },
    {
      "inputs": [
        {
          "internalType": "address",
          "name": "owner",
          "type": "address"
        }
      ],
      "name": "balanceOf",
      "outputs": [
        {
          "internalType": "uint256",
          "name": "",
          "type": "uint256"
        }
      ],
      "stateMutability": "view",
      "type": "function",
      "constant": true
    },
    {
      "inputs": [
        {
          "internalType": "uint256",
          "name": "tokenId",
          "type": "uint256"
        }
      ],
      "name": "getApproved",
      "outputs": [
        {
          "internalType": "address",
          "name": "",
          "type": "address"
        }
      ],
      "stateMutability": "view",
      "type": "function",
      "constant": true
    },
    {
      "inputs": [],
      "name": "getDepartmentRoles",
      "outputs": [
        {
          "internalType": "address[]",
          "name": "",
          "type": "address[]"
        }
      ],
      "stateMutability": "view",
      "type": "function",
      "constant": true
    },
    {
      "inputs": [],
      "name": "getFacultyRoles",
      "outputs": [
        {
          "internalType": "address[]",
          "name": "",
          "type": "address[]"
        }
      ],
      "stateMutability": "view",
      "type": "function",
      "constant": true
    },
    {
      "inputs": [],
      "name": "getGraduatedRoles",
      "outputs": [
        {
          "internalType": "address[]",
          "name": "",
          "type": "address[]"
        }
      ],
      "stateMutability": "view",
      "type": "function",
      "constant": true
    },
    {
      "inputs": [],
      "name": "getInstructorRoles",
      "outputs": [
        {
          "internalType": "address[]",
          "name": "",
          "type": "address[]"
        }
      ],
      "stateMutability": "view",
      "type": "function",
      "constant": true
    },
    {
      "inputs": [],
      "name": "getRectorRole",
      "outputs": [
        {
          "internalType": "address",
          "name": "",
          "type": "address"
        }
      ],
      "stateMutability": "view",
      "type": "function",
      "constant": true
    },
    {
      "inputs": [
        {
          "internalType": "bytes32",
          "name": "role",
          "type": "bytes32"
        }
      ],
      "name": "getRoleAdmin",
      "outputs": [
        {
          "internalType": "bytes32",
          "name": "",
          "type": "bytes32"
        }
      ],
      "stateMutability": "view",
      "type": "function",
      "constant": true
    },
    {
      "inputs": [
        {
          "internalType": "bytes32",
          "name": "role",
          "type": "bytes32"
        },
        {
          "internalType": "uint256",
          "name": "index",
          "type": "uint256"
        }
      ],
      "name": "getRoleMember",
      "outputs": [
        {
          "internalType": "address",
          "name": "",
          "type": "address"
        }
      ],
      "stateMutability": "view",
      "type": "function",
      "constant": true
    },
    {
      "inputs": [
        {
          "internalType": "bytes32",
          "name": "role",
          "type": "bytes32"
        }
      ],
      "name": "getRoleMemberCount",
      "outputs": [
        {
          "internalType": "uint256",
          "name": "",
          "type": "uint256"
        }
      ],
      "stateMutability": "view",
      "type": "function",
      "constant": true
    },
    {
      "inputs": [],
      "name": "getStudentRoles",
      "outputs": [
        {
          "internalType": "address[]",
          "name": "",
          "type": "address[]"
        }
      ],
      "stateMutability": "view",
      "type": "function",
      "constant": true
    },
    {
      "inputs": [
        {
          "internalType": "address",
          "name": "account",
          "type": "address"
        }
      ],
      "name": "grantDepartmentRole",
      "outputs": [],
      "stateMutability": "nonpayable",
      "type": "function"
    },
    {
      "inputs": [
        {
          "internalType": "address",
          "name": "account",
          "type": "address"
        }
      ],
      "name": "grantFacultyRole",
      "outputs": [],
      "stateMutability": "nonpayable",
      "type": "function"
    },
    {
      "inputs": [
        {
          "internalType": "address",
          "name": "account",
          "type": "address"
        }
      ],
      "name": "grantGraduatedRole",
      "outputs": [],
      "stateMutability": "nonpayable",
      "type": "function"
    },
    {
      "inputs": [
        {
          "internalType": "address",
          "name": "account",
          "type": "address"
        }
      ],
      "name": "grantInstructorRole",
      "outputs": [],
      "stateMutability": "nonpayable",
      "type": "function"
    },
    {
      "inputs": [
        {
          "internalType": "address",
          "name": "account",
          "type": "address"
        }
      ],
      "name": "grantRectorRole",
      "outputs": [],
      "stateMutability": "nonpayable",
      "type": "function"
    },
    {
      "inputs": [
        {
          "internalType": "bytes32",
          "name": "role",
          "type": "bytes32"
        },
        {
          "internalType": "address",
          "name": "account",
          "type": "address"
        }
      ],
      "name": "grantRole",
      "outputs": [],
      "stateMutability": "nonpayable",
      "type": "function"
    },
    {
      "inputs": [
        {
          "internalType": "address",
          "name": "account",
          "type": "address"
        }
      ],
      "name": "grantStudentRole",
      "outputs": [],
      "stateMutability": "nonpayable",
      "type": "function"
    },
    {
      "inputs": [
        {
          "internalType": "address",
          "name": "account",
          "type": "address"
        }
      ],
      "name": "hasDepartmentRole",
      "outputs": [
        {
          "internalType": "bool",
          "name": "",
          "type": "bool"
        }
      ],
      "stateMutability": "view",
      "type": "function",
      "constant": true
    },
    {
      "inputs": [
        {
          "internalType": "address",
          "name": "account",
          "type": "address"
        }
      ],
      "name": "hasFacultyRole",
      "outputs": [
        {
          "internalType": "bool",
          "name": "",
          "type": "bool"
        }
      ],
      "stateMutability": "view",
      "type": "function",
      "constant": true
    },
    {
      "inputs": [
        {
          "internalType": "address",
          "name": "account",
          "type": "address"
        }
      ],
      "name": "hasGraduatedRole",
      "outputs": [
        {
          "internalType": "bool",
          "name": "",
          "type": "bool"
        }
      ],
      "stateMutability": "view",
      "type": "function",
      "constant": true
    },
    {
      "inputs": [
        {
          "internalType": "address",
          "name": "account",
          "type": "address"
        }
      ],
      "name": "hasInstructorRole",
      "outputs": [
        {
          "internalType": "bool",
          "name": "",
          "type": "bool"
        }
      ],
      "stateMutability": "view",
      "type": "function",
      "constant": true
    },
    {
      "inputs": [
        {
          "internalType": "address",
          "name": "account",
          "type": "address"
        }
      ],
      "name": "hasRectorRole",
      "outputs": [
        {
          "internalType": "bool",
          "name": "",
          "type": "bool"
        }
      ],
      "stateMutability": "view",
      "type": "function",
      "constant": true
    },
    {
      "inputs": [
        {
          "internalType": "bytes32",
          "name": "role",
          "type": "bytes32"
        },
        {
          "internalType": "address",
          "name": "account",
          "type": "address"
        }
      ],
      "name": "hasRole",
      "outputs": [
        {
          "internalType": "bool",
          "name": "",
          "type": "bool"
        }
      ],
      "stateMutability": "view",
      "type": "function",
      "constant": true
    },
    {
      "inputs": [
        {
          "internalType": "address",
          "name": "account",
          "type": "address"
        }
      ],
      "name": "hasStudentRole",
      "outputs": [
        {
          "internalType": "bool",
          "name": "",
          "type": "bool"
        }
      ],
      "stateMutability": "view",
      "type": "function",
      "constant": true
    },
    {
      "inputs": [
        {
          "internalType": "address",
          "name": "owner",
          "type": "address"
        },
        {
          "internalType": "address",
          "name": "operator",
          "type": "address"
        }
      ],
      "name": "isApprovedForAll",
      "outputs": [
        {
          "internalType": "bool",
          "name": "",
          "type": "bool"
        }
      ],
      "stateMutability": "view",
      "type": "function",
      "constant": true
    },
    {
      "inputs": [],
      "name": "name",
      "outputs": [
        {
          "internalType": "string",
          "name": "",
          "type": "string"
        }
      ],
      "stateMutability": "view",
      "type": "function",
      "constant": true
    },
    {
      "inputs": [
        {
          "internalType": "uint256",
          "name": "tokenId",
          "type": "uint256"
        }
      ],
      "name": "ownerOf",
      "outputs": [
        {
          "internalType": "address",
          "name": "",
          "type": "address"
        }
      ],
      "stateMutability": "view",
      "type": "function",
      "constant": true
    },
    {
      "inputs": [
        {
          "internalType": "bytes32",
          "name": "role",
          "type": "bytes32"
        },
        {
          "internalType": "address",
          "name": "account",
          "type": "address"
        }
      ],
      "name": "renounceRole",
      "outputs": [],
      "stateMutability": "nonpayable",
      "type": "function"
    },
    {
      "inputs": [
        {
          "internalType": "address",
          "name": "account",
          "type": "address"
        }
      ],
      "name": "revokeDepartmentRole",
      "outputs": [],
      "stateMutability": "nonpayable",
      "type": "function"
    },
    {
      "inputs": [
        {
          "internalType": "address",
          "name": "account",
          "type": "address"
        }
      ],
      "name": "revokeFacultyRole",
      "outputs": [],
      "stateMutability": "nonpayable",
      "type": "function"
    },
    {
      "inputs": [
        {
          "internalType": "address",
          "name": "account",
          "type": "address"
        }
      ],
      "name": "revokeInstructorRole",
      "outputs": [],
      "stateMutability": "nonpayable",
      "type": "function"
    },
    {
      "inputs": [
        {
          "internalType": "bytes32",
          "name": "role",
          "type": "bytes32"
        },
        {
          "internalType": "address",
          "name": "account",
          "type": "address"
        }
      ],
      "name": "revokeRole",
      "outputs": [],
      "stateMutability": "nonpayable",
      "type": "function"
    },
    {
      "inputs": [
        {
          "internalType": "address",
          "name": "account",
          "type": "address"
        }
      ],
      "name": "revokeStudentRole",
      "outputs": [],
      "stateMutability": "nonpayable",
      "type": "function"
    },
    {
      "inputs": [
        {
          "internalType": "address",
          "name": "operator",
          "type": "address"
        },
        {
          "internalType": "bool",
          "name": "approved",
          "type": "bool"
        }
      ],
      "name": "setApprovalForAll",
      "outputs": [],
      "stateMutability": "nonpayable",
      "type": "function"
    },
    {
      "inputs": [],
      "name": "symbol",
      "outputs": [
        {
          "internalType": "string",
          "name": "",
          "type": "string"
        }
      ],
      "stateMutability": "view",
      "type": "function",
      "constant": true
    },
    {
      "inputs": [
        {
          "internalType": "uint256",
          "name": "tokenId",
          "type": "uint256"
        }
      ],
      "name": "tokenURI",
      "outputs": [
        {
          "internalType": "string",
          "name": "",
          "type": "string"
        }
      ],
      "stateMutability": "view",
      "type": "function",
      "constant": true
    },
    {
      "inputs": [
        {
          "internalType": "string",
          "name": "_facultyName",
          "type": "string"
        },
        {
          "internalType": "address",
          "name": "facultyAddress",
          "type": "address"
        }
      ],
      "name": "mint",
      "outputs": [],
      "stateMutability": "nonpayable",
      "type": "function"
    },
    {
      "inputs": [
        {
          "internalType": "uint256",
          "name": "id",
          "type": "uint256"
        }
      ],
      "name": "getFacultyName",
      "outputs": [
        {
          "internalType": "string",
          "name": "",
          "type": "string"
        }
      ],
      "stateMutability": "view",
      "type": "function",
      "constant": true
    },
    {
      "inputs": [
        {
          "internalType": "string",
          "name": "facultyName",
          "type": "string"
        }
      ],
      "name": "getFacultyID",
      "outputs": [
        {
          "internalType": "uint256",
          "name": "",
          "type": "uint256"
        }
      ],
      "stateMutability": "view",
      "type": "function",
      "constant": true
    },
    {
      "inputs": [],
      "name": "getTotalSupply",
      "outputs": [
        {
          "internalType": "uint256",
          "name": "",
          "type": "uint256"
        }
      ],
      "stateMutability": "view",
      "type": "function",
      "constant": true
    },
    {
      "inputs": [
        {
          "internalType": "uint256",
          "name": "id",
          "type": "uint256"
        }
      ],
      "name": "getDepartments",
      "outputs": [
        {
          "internalType": "address[]",
          "name": "",
          "type": "address[]"
        }
      ],
      "stateMutability": "view",
      "type": "function",
      "constant": true
    },
    {
      "inputs": [
        {
          "internalType": "uint256",
          "name": "id",
          "type": "uint256"
        },
        {
          "internalType": "address[]",
          "name": "departments",
          "type": "address[]"
        }
      ],
      "name": "setDepartments",
      "outputs": [],
      "stateMutability": "nonpayable",
      "type": "function"
    },
    {
      "inputs": [
        {
          "internalType": "address",
          "name": "from",
          "type": "address"
        },
        {
          "internalType": "address",
          "name": "to",
          "type": "address"
        },
        {
          "internalType": "uint256",
          "name": "tokenId",
          "type": "uint256"
        }
      ],
      "name": "transferFrom",
      "outputs": [],
      "stateMutability": "nonpayable",
      "type": "function"
    },
    {
      "inputs": [
        {
          "internalType": "address",
          "name": "from",
          "type": "address"
        },
        {
          "internalType": "address",
          "name": "to",
          "type": "address"
        },
        {
          "internalType": "uint256",
          "name": "tokenId",
          "type": "uint256"
        }
      ],
      "name": "safeTransferFrom",
      "outputs": [],
      "stateMutability": "nonpayable",
      "type": "function"
    },
    {
      "inputs": [
        {
          "internalType": "address",
          "name": "from",
          "type": "address"
        },
        {
          "internalType": "address",
          "name": "to",
          "type": "address"
        },
        {
          "internalType": "uint256",
          "name": "tokenId",
          "type": "uint256"
        },
        {
          "internalType": "bytes",
          "name": "_data",
          "type": "bytes"
        }
      ],
      "name": "safeTransferFrom",
      "outputs": [],
      "stateMutability": "nonpayable",
      "type": "function"
    },
    {
      "inputs": [
        {
          "internalType": "bytes4",
          "name": "interfaceId",
          "type": "bytes4"
        }
      ],
      "name": "supportsInterface",
      "outputs": [
        {
          "internalType": "bool",
          "name": "",
          "type": "bool"
        }
      ],
      "stateMutability": "view",
      "type": "function",
      "constant": true
    }
  ],
  "bytecode": "0x60806040526000600e553480156200001657600080fd5b506040518060400160405280600781526020017f466163756c7479000000000000000000000000000000000000000000000000008152506040518060400160405280600381526020017f464143000000000000000000000000000000000000000000000000000000000081525081600090805190602001906200009b92919062000b77565b508060019080519060200190620000b492919062000b77565b505050620000cc6000801b336200011560201b60201c565b620000fe7f5f1d1e303f9c0a1801dd708bdc4239781d66c88ca6cb941c5769ba09b5c1b285336200011560201b60201c565b6200010f336200012b60201b60201c565b62001170565b6200012782826200024060201b60201c565b5050565b7f5f1d1e303f9c0a1801dd708bdc4239781d66c88ca6cb941c5769ba09b5c1b2856200016d81620001616200028860201b60201c565b6200029060201b60201c565b6200019f7f5f1d1e303f9c0a1801dd708bdc4239781d66c88ca6cb941c5769ba09b5c1b285836200035460201b60201c565b620001b46000801b836200035460201b60201c565b620001c96000801b336200039d60201b60201c565b620001fb7f5f1d1e303f9c0a1801dd708bdc4239781d66c88ca6cb941c5769ba09b5c1b285336200039d60201b60201c565b81600860006101000a81548173ffffffffffffffffffffffffffffffffffffffff021916908373ffffffffffffffffffffffffffffffffffffffff1602179055505050565b6200025782826200043360201b620023671760201c565b6200028381600760008581526020019081526020016000206200052560201b620024481790919060201c565b505050565b600033905090565b620002a282826200055d60201b60201c565b6200035057620002d58173ffffffffffffffffffffffffffffffffffffffff166014620005c860201b620024781760201c565b620002f08360001c6020620005c860201b620024781760201c565b6040516020016200030392919062000d4a565b6040516020818303038152906040526040517f08c379a000000000000000000000000000000000000000000000000000000000815260040162000347919062000def565b60405180910390fd5b5050565b62000365826200082360201b60201c565b62000386816200037a6200028860201b60201c565b6200029060201b60201c565b6200039883836200024060201b60201c565b505050565b620003ad6200028860201b60201c565b73ffffffffffffffffffffffffffffffffffffffff168173ffffffffffffffffffffffffffffffffffffffff16146200041d576040517f08c379a0000000000000000000000000000000000000000000000000000000008152600401620004149062000e89565b60405180910390fd5b6200042f82826200084360201b60201c565b5050565b6200044582826200055d60201b60201c565b620005215760016006600084815260200190815260200160002060000160008373ffffffffffffffffffffffffffffffffffffffff1673ffffffffffffffffffffffffffffffffffffffff16815260200190815260200160002060006101000a81548160ff021916908315150217905550620004c66200028860201b60201c565b73ffffffffffffffffffffffffffffffffffffffff168173ffffffffffffffffffffffffffffffffffffffff16837f2f8788117e7eff1d82e926ec794901d17c78024a50270940304540a733656f0d60405160405180910390a45b5050565b600062000555836000018373ffffffffffffffffffffffffffffffffffffffff1660001b6200088b60201b60201c565b905092915050565b60006006600084815260200190815260200160002060000160008373ffffffffffffffffffffffffffffffffffffffff1673ffffffffffffffffffffffffffffffffffffffff16815260200190815260200160002060009054906101000a900460ff16905092915050565b606060006002836002620005dd919062000ee4565b620005e9919062000f45565b67ffffffffffffffff81111562000605576200060462000fa2565b5b6040519080825280601f01601f191660200182016040528015620006385781602001600182028036833780820191505090505b5090507f30000000000000000000000000000000000000000000000000000000000000008160008151811062000673576200067262000fd1565b5b60200101907effffffffffffffffffffffffffffffffffffffffffffffffffffffffffffff1916908160001a9053507f780000000000000000000000000000000000000000000000000000000000000081600181518110620006da57620006d962000fd1565b5b60200101907effffffffffffffffffffffffffffffffffffffffffffffffffffffffffffff1916908160001a905350600060018460026200071c919062000ee4565b62000728919062000f45565b90505b6001811115620007d2577f3031323334353637383961626364656600000000000000000000000000000000600f8616601081106200076e576200076d62000fd1565b5b1a60f81b82828151811062000788576200078762000fd1565b5b60200101907effffffffffffffffffffffffffffffffffffffffffffffffffffffffffffff1916908160001a905350600485901c945080620007ca9062001000565b90506200072b565b506000841462000819576040517f08c379a000000000000000000000000000000000000000000000000000000000815260040162000810906200107f565b60405180910390fd5b8091505092915050565b600060066000838152602001908152602001600020600101549050919050565b6200085a82826200090560201b620026b41760201c565b620008868160076000858152602001908152602001600020620009f860201b620027961790919060201c565b505050565b60006200089f838362000a3060201b60201c565b620008fa578260000182908060018154018082558091505060019003906000526020600020016000909190919091505582600001805490508360010160008481526020019081526020016000208190555060019050620008ff565b600090505b92915050565b6200091782826200055d60201b60201c565b15620009f45760006006600084815260200190815260200160002060000160008373ffffffffffffffffffffffffffffffffffffffff1673ffffffffffffffffffffffffffffffffffffffff16815260200190815260200160002060006101000a81548160ff021916908315150217905550620009996200028860201b60201c565b73ffffffffffffffffffffffffffffffffffffffff168173ffffffffffffffffffffffffffffffffffffffff16837ff6391f5c32d9c69d2a47ea670b442974b53935d1edc7fd64eb21e047a839171b60405160405180910390a45b5050565b600062000a28836000018373ffffffffffffffffffffffffffffffffffffffff1660001b62000a5360201b60201c565b905092915050565b600080836001016000848152602001908152602001600020541415905092915050565b6000808360010160008481526020019081526020016000205490506000811462000b6b57600060018262000a889190620010a1565b905060006001866000018054905062000aa29190620010a1565b905081811462000b1857600086600001828154811062000ac75762000ac662000fd1565b5b906000526020600020015490508087600001848154811062000aee5762000aed62000fd1565b5b90600052602060002001819055508387600101600083815260200190815260200160002081905550505b8560000180548062000b2f5762000b2e620010dc565b5b60019003818190600052602060002001600090559055856001016000868152602001908152602001600020600090556001935050505062000b71565b60009150505b92915050565b82805462000b85906200113a565b90600052602060002090601f01602090048101928262000ba9576000855562000bf5565b82601f1062000bc457805160ff191683800117855562000bf5565b8280016001018555821562000bf5579182015b8281111562000bf457825182559160200191906001019062000bd7565b5b50905062000c04919062000c08565b5090565b5b8082111562000c2357600081600090555060010162000c09565b5090565b600081905092915050565b7f416363657373436f6e74726f6c3a206163636f756e7420000000000000000000600082015250565b600062000c6a60178362000c27565b915062000c778262000c32565b601782019050919050565b600081519050919050565b60005b8381101562000cad57808201518184015260208101905062000c90565b8381111562000cbd576000848401525b50505050565b600062000cd08262000c82565b62000cdc818562000c27565b935062000cee81856020860162000c8d565b80840191505092915050565b7f206973206d697373696e6720726f6c6520000000000000000000000000000000600082015250565b600062000d3260118362000c27565b915062000d3f8262000cfa565b601182019050919050565b600062000d578262000c5b565b915062000d65828562000cc3565b915062000d728262000d23565b915062000d80828462000cc3565b91508190509392505050565b600082825260208201905092915050565b6000601f19601f8301169050919050565b600062000dbb8262000c82565b62000dc7818562000d8c565b935062000dd981856020860162000c8d565b62000de48162000d9d565b840191505092915050565b6000602082019050818103600083015262000e0b818462000dae565b905092915050565b7f416363657373436f6e74726f6c3a2063616e206f6e6c792072656e6f756e636560008201527f20726f6c657320666f722073656c660000000000000000000000000000000000602082015250565b600062000e71602f8362000d8c565b915062000e7e8262000e13565b604082019050919050565b6000602082019050818103600083015262000ea48162000e62565b9050919050565b6000819050919050565b7f4e487b7100000000000000000000000000000000000000000000000000000000600052601160045260246000fd5b600062000ef18262000eab565b915062000efe8362000eab565b9250817fffffffffffffffffffffffffffffffffffffffffffffffffffffffffffffffff048311821515161562000f3a5762000f3962000eb5565b5b828202905092915050565b600062000f528262000eab565b915062000f5f8362000eab565b9250827fffffffffffffffffffffffffffffffffffffffffffffffffffffffffffffffff0382111562000f975762000f9662000eb5565b5b828201905092915050565b7f4e487b7100000000000000000000000000000000000000000000000000000000600052604160045260246000fd5b7f4e487b7100000000000000000000000000000000000000000000000000000000600052603260045260246000fd5b60006200100d8262000eab565b9150600082141562001024576200102362000eb5565b5b600182039050919050565b7f537472696e67733a20686578206c656e67746820696e73756666696369656e74600082015250565b60006200106760208362000d8c565b915062001074826200102f565b602082019050919050565b600060208201905081810360008301526200109a8162001058565b9050919050565b6000620010ae8262000eab565b9150620010bb8362000eab565b925082821015620010d157620010d062000eb5565b5b828203905092915050565b7f4e487b7100000000000000000000000000000000000000000000000000000000600052603160045260246000fd5b7f4e487b7100000000000000000000000000000000000000000000000000000000600052602260045260246000fd5b600060028204905060018216806200115357607f821691505b602082108114156200116a57620011696200110b565b5b50919050565b6156d380620011806000396000f3fe608060405234801561001057600080fd5b506004361061035d5760003560e01c80637168c27d116101d3578063b944705111610104578063d547741f116100a2578063e78af7c51161007c578063e78af7c514610a54578063e985e9c514610a84578063f7be43fb14610ab4578063fc3ba6b414610ad25761035d565b8063d547741f146109ea578063db0b1fee14610a06578063e17f6b2c14610a245761035d565b8063c4e41b22116100de578063c4e41b2214610950578063c87b56dd1461096e578063c94d10ad1461099e578063ca15c873146109ba5761035d565b8063b9447051146108fa578063b9837a0014610916578063ba5adbd1146109325761035d565b8063973c4b6c11610171578063a217fddf1161014b578063a217fddf14610886578063a22cb465146108a4578063ad7be93a146108c0578063b88d4fde146108de5761035d565b8063973c4b6c1461081a5780639822a59914610838578063996dc022146108685761035d565b80638df6674a116101ad5780638df6674a146107805780639010d07c1461079c57806391d14854146107cc57806395d89b41146107fc5761035d565b80637168c27d1461071657806386f8e92c146107465780638bcf979c146107625761035d565b80632be7dc44116102ad5780635e3c7e8e1161024b5780636352211e116102255780636352211e146106685780636fe3ceb8146106985780637048fae5146106b657806370a08231146106e65761035d565b80635e3c7e8e146106125780635ea07b1c146106305780635f1d514e1461064c5761035d565b806334604c471161028757806334604c471461058e57806336568abe146105be57806342842e0e146105da578063529f790c146105f65761035d565b80632be7dc44146105265780632f2ff15d1461055657806332b3c846146105725761035d565b806316bec7811161031a578063248a9ca3116102f4578063248a9ca31461048a57806324d42a37146104ba57806326970179146104d85780632b1533c4146105085761035d565b806316bec781146104345780631c351a9d1461045257806323b872dd1461046e5761035d565b806301ffc9a7146103625780630252dffc1461039257806306fdde03146103ae578063081812fc146103cc578063095ea7b3146103fc57806312fb59f214610418575b600080fd5b61037c60048036038101906103779190613cc2565b610b02565b6040516103899190613d0a565b60405180910390f35b6103ac60048036038101906103a79190613d83565b610b14565b005b6103b6610b80565b6040516103c39190613e49565b60405180910390f35b6103e660048036038101906103e19190613ea1565b610c12565b6040516103f39190613edd565b60405180910390f35b61041660048036038101906104119190613ef8565b610c97565b005b610432600480360381019061042d9190613d83565b610daf565b005b61043c610e72565b6040516104499190613ff6565b60405180910390f35b61046c6004803603810190610467919061414d565b610f00565b005b610488600480360381019061048391906141a9565b611109565b005b6104a4600480360381019061049f9190614232565b611188565b6040516104b1919061426e565b60405180910390f35b6104c26111a8565b6040516104cf919061426e565b60405180910390f35b6104f260048036038101906104ed9190613ea1565b6111cc565b6040516104ff9190613ff6565b60405180910390f35b61051061126d565b60405161051d9190613ff6565b60405180910390f35b610540600480360381019061053b9190613d83565b6112fb565b60405161054d9190613d0a565b60405180910390f35b610570600480360381019061056b9190614289565b61132e565b005b61058c60048036038101906105879190613d83565b611357565b005b6105a860048036038101906105a391906142c9565b6113c3565b6040516105b59190614321565b60405180910390f35b6105d860048036038101906105d39190614289565b6113eb565b005b6105f460048036038101906105ef91906141a9565b61146e565b005b610610600480360381019061060b9190613d83565b6114ed565b005b61061a6115b0565b6040516106279190613ff6565b60405180910390f35b61064a60048036038101906106459190613d83565b61163e565b005b61066660048036038101906106619190613d83565b611794565b005b610682600480360381019061067d9190613ea1565b611857565b60405161068f9190613edd565b60405180910390f35b6106a0611909565b6040516106ad919061426e565b60405180910390f35b6106d060048036038101906106cb9190613ea1565b61192d565b6040516106dd9190613e49565b60405180910390f35b61070060048036038101906106fb9190613d83565b6119d2565b60405161070d9190614321565b60405180910390f35b610730600480360381019061072b9190613d83565b611a8a565b60405161073d9190613d0a565b60405180910390f35b610760600480360381019061075b9190613d83565b611abd565b005b61076a611b29565b604051610777919061426e565b60405180910390f35b61079a60048036038101906107959190613d83565b611b4d565b005b6107b660048036038101906107b1919061433c565b611c32565b6040516107c39190613edd565b60405180910390f35b6107e660048036038101906107e19190614289565b611c61565b6040516107f39190613d0a565b60405180910390f35b610804611ccc565b6040516108119190613e49565b60405180910390f35b610822611d5e565b60405161082f9190613edd565b60405180910390f35b610852600480360381019061084d9190613d83565b611d88565b60405161085f9190613d0a565b60405180910390f35b610870611dbb565b60405161087d919061426e565b60405180910390f35b61088e611ddf565b60405161089b919061426e565b60405180910390f35b6108be60048036038101906108b991906143a8565b611de6565b005b6108c8611dfc565b6040516108d5919061426e565b60405180910390f35b6108f860048036038101906108f39190614489565b611e20565b005b610914600480360381019061090f9190613d83565b611ea1565b005b610930600480360381019061092b91906145d4565b611f0d565b005b61093a611f39565b6040516109479190613ff6565b60405180910390f35b610958611fc7565b6040516109659190614321565b60405180910390f35b61098860048036038101906109839190613ea1565b611fd1565b6040516109959190613e49565b60405180910390f35b6109b860048036038101906109b39190613d83565b612078565b005b6109d460048036038101906109cf9190614232565b61213b565b6040516109e19190614321565b60405180910390f35b610a0460048036038101906109ff9190614289565b61215f565b005b610a0e612188565b604051610a1b9190613ff6565b60405180910390f35b610a3e6004803603810190610a399190613d83565b612216565b604051610a4b9190613d0a565b60405180910390f35b610a6e6004803603810190610a699190613d83565b612249565b604051610a7b9190613d0a565b60405180910390f35b610a9e6004803603810190610a999190614630565b61227c565b604051610aab9190613d0a565b60405180910390f35b610abc612310565b604051610ac9919061426e565b60405180910390f35b610aec6004803603810190610ae79190613d83565b612334565b604051610af99190613d0a565b60405180910390f35b6000610b0d826127c6565b9050919050565b7f5f1d1e303f9c0a1801dd708bdc4239781d66c88ca6cb941c5769ba09b5c1b285610b4681610b41612840565b612848565b610b707fe7837d04f36ce0b2f3cc662bf1b2b632a7fbd12ae95199e8bd3dcfbcc440b66b8361215f565b610b7b82600a6128e5565b505050565b606060008054610b8f9061469f565b80601f0160208091040260200160405190810160405280929190818152602001828054610bbb9061469f565b8015610c085780601f10610bdd57610100808354040283529160200191610c08565b820191906000526020600020905b815481529060010190602001808311610beb57829003601f168201915b5050505050905090565b6000610c1d82612af9565b610c5c576040517f08c379a0000000000000000000000000000000000000000000000000000000008152600401610c5390614743565b60405180910390fd5b6004600083815260200190815260200160002060009054906101000a900473ffffffffffffffffffffffffffffffffffffffff169050919050565b6000610ca282611857565b90508073ffffffffffffffffffffffffffffffffffffffff168373ffffffffffffffffffffffffffffffffffffffff161415610d13576040517f08c379a0000000000000000000000000000000000000000000000000000000008152600401610d0a906147d5565b60405180910390fd5b8073ffffffffffffffffffffffffffffffffffffffff16610d32612840565b73ffffffffffffffffffffffffffffffffffffffff161480610d615750610d6081610d5b612840565b61227c565b5b610da0576040517f08c379a0000000000000000000000000000000000000000000000000000000008152600401610d9790614867565b60405180910390fd5b610daa8383612b65565b505050565b7f5f1d1e303f9c0a1801dd708bdc4239781d66c88ca6cb941c5769ba09b5c1b285610de181610ddc612840565b612848565b610e0b7fe7837d04f36ce0b2f3cc662bf1b2b632a7fbd12ae95199e8bd3dcfbcc440b66b8361132e565b600a829080600181540180825580915050600190039060005260206000200160009091909190916101000a81548173ffffffffffffffffffffffffffffffffffffffff021916908373ffffffffffffffffffffffffffffffffffffffff1602179055505050565b6060600a805480602002602001604051908101604052809291908181526020018280548015610ef657602002820191906000526020600020905b8160009054906101000a900473ffffffffffffffffffffffffffffffffffffffff1673ffffffffffffffffffffffffffffffffffffffff1681526020019060010190808311610eac575b5050505050905090565b7f5f1d1e303f9c0a1801dd708bdc4239781d66c88ca6cb941c5769ba09b5c1b285610f3281610f2d612840565b612848565b6000601084604051610f4491906148c3565b90815260200160405180910390205414610f93576040517f08c379a0000000000000000000000000000000000000000000000000000000008152600401610f8a90614926565b60405180910390fd5b610f9c826114ed565b610fc67ff3f9cfff7b46f415da5a492b1718971da203f87c6aae9299e7b408eb83ef8bee83611c61565b611005576040517f08c379a0000000000000000000000000000000000000000000000000000000008152600401610ffc906149b8565b60405180910390fd5b604051602001611014906149fe565b604051602081830303815290604052805190602001208360405160200161103b91906148c3565b604051602081830303815290604052805190602001201415611092576040517f08c379a000000000000000000000000000000000000000000000000000000000815260040161108990614a5f565b60405180910390fd5b6001600e546110a19190614aae565b600e819055506000600e5490506110b88382612c1e565b806010856040516110c991906148c3565b90815260200160405180910390208190555083600f60008381526020019081526020016000209080519060200190611102929190613b29565b5050505050565b600073ffffffffffffffffffffffffffffffffffffffff163373ffffffffffffffffffffffffffffffffffffffff1614611178576040517f08c379a000000000000000000000000000000000000000000000000000000000815260040161116f90614b76565b60405180910390fd5b611183838383612dec565b505050565b600060066000838152602001908152602001600020600101549050919050565b7f5f1d1e303f9c0a1801dd708bdc4239781d66c88ca6cb941c5769ba09b5c1b28581565b60606011600083815260200190815260200160002080548060200260200160405190810160405280929190818152602001828054801561126157602002820191906000526020600020905b8160009054906101000a900473ffffffffffffffffffffffffffffffffffffffff1673ffffffffffffffffffffffffffffffffffffffff1681526020019060010190808311611217575b50505050509050919050565b606060098054806020026020016040519081016040528092919081815260200182805480156112f157602002820191906000526020600020905b8160009054906101000a900473ffffffffffffffffffffffffffffffffffffffff1673ffffffffffffffffffffffffffffffffffffffff16815260200190600101908083116112a7575b5050505050905090565b60006113277f5f1d1e303f9c0a1801dd708bdc4239781d66c88ca6cb941c5769ba09b5c1b28583611c61565b9050919050565b61133782611188565b61134881611343612840565b612848565b6113528383612e4c565b505050565b7f5f1d1e303f9c0a1801dd708bdc4239781d66c88ca6cb941c5769ba09b5c1b28561138981611384612840565b612848565b6113b37f36a5c4aaacb6b388bbd448bf11096b7dafc5652bcc9046084fd0e95b1fb0b2cc8361215f565b6113be82600c6128e5565b505050565b60006010826040516113d591906148c3565b9081526020016040518091039020549050919050565b6113f3612840565b73ffffffffffffffffffffffffffffffffffffffff168173ffffffffffffffffffffffffffffffffffffffff1614611460576040517f08c379a000000000000000000000000000000000000000000000000000000000815260040161145790614c08565b60405180910390fd5b61146a8282612e80565b5050565b600073ffffffffffffffffffffffffffffffffffffffff163373ffffffffffffffffffffffffffffffffffffffff16146114dd576040517f08c379a00000000000000000000000000000000000000000000000000000000081526004016114d490614b76565b60405180910390fd5b6114e8838383612eb4565b505050565b7f5f1d1e303f9c0a1801dd708bdc4239781d66c88ca6cb941c5769ba09b5c1b28561151f8161151a612840565b612848565b6115497ff3f9cfff7b46f415da5a492b1718971da203f87c6aae9299e7b408eb83ef8bee8361132e565b6009829080600181540180825580915050600190039060005260206000200160009091909190916101000a81548173ffffffffffffffffffffffffffffffffffffffff021916908373ffffffffffffffffffffffffffffffffffffffff1602179055505050565b6060600b80548060200260200160405190810160405280929190818152602001828054801561163457602002820191906000526020600020905b8160009054906101000a900473ffffffffffffffffffffffffffffffffffffffff1673ffffffffffffffffffffffffffffffffffffffff16815260200190600101908083116115ea575b5050505050905090565b7f5f1d1e303f9c0a1801dd708bdc4239781d66c88ca6cb941c5769ba09b5c1b2856116708161166b612840565b612848565b61169a7f36a5c4aaacb6b388bbd448bf11096b7dafc5652bcc9046084fd0e95b1fb0b2cc83611c61565b6116d9576040517f08c379a00000000000000000000000000000000000000000000000000000000081526004016116d090614c74565b60405180910390fd5b6117037f36a5c4aaacb6b388bbd448bf11096b7dafc5652bcc9046084fd0e95b1fb0b2cc8361215f565b61172d7f4758f7d70d6088cbfad5c79861ac6457ba2af02adf5ea419e97879ae24459cb68361132e565b600d829080600181540180825580915050600190039060005260206000200160009091909190916101000a81548173ffffffffffffffffffffffffffffffffffffffff021916908373ffffffffffffffffffffffffffffffffffffffff1602179055505050565b7f5f1d1e303f9c0a1801dd708bdc4239781d66c88ca6cb941c5769ba09b5c1b2856117c6816117c1612840565b612848565b6117f07fae4a0595970935aa5495afbbb72e5f1f6ff1062766b4a3028c0c9b7d5cf7e3458361132e565b600b829080600181540180825580915050600190039060005260206000200160009091909190916101000a81548173ffffffffffffffffffffffffffffffffffffffff021916908373ffffffffffffffffffffffffffffffffffffffff1602179055505050565b6000806002600084815260200190815260200160002060009054906101000a900473ffffffffffffffffffffffffffffffffffffffff169050600073ffffffffffffffffffffffffffffffffffffffff168173ffffffffffffffffffffffffffffffffffffffff161415611900576040517f08c379a00000000000000000000000000000000000000000000000000000000081526004016118f790614d06565b60405180910390fd5b80915050919050565b7ff3f9cfff7b46f415da5a492b1718971da203f87c6aae9299e7b408eb83ef8bee81565b6060600f6000838152602001908152602001600020805461194d9061469f565b80601f01602080910402602001604051908101604052809291908181526020018280546119799061469f565b80156119c65780601f1061199b576101008083540402835291602001916119c6565b820191906000526020600020905b8154815290600101906020018083116119a957829003601f168201915b50505050509050919050565b60008073ffffffffffffffffffffffffffffffffffffffff168273ffffffffffffffffffffffffffffffffffffffff161415611a43576040517f08c379a0000000000000000000000000000000000000000000000000000000008152600401611a3a90614d98565b60405180910390fd5b600360008373ffffffffffffffffffffffffffffffffffffffff1673ffffffffffffffffffffffffffffffffffffffff168152602001908152602001600020549050919050565b6000611ab67f4758f7d70d6088cbfad5c79861ac6457ba2af02adf5ea419e97879ae24459cb683611c61565b9050919050565b7f5f1d1e303f9c0a1801dd708bdc4239781d66c88ca6cb941c5769ba09b5c1b285611aef81611aea612840565b612848565b611b197fae4a0595970935aa5495afbbb72e5f1f6ff1062766b4a3028c0c9b7d5cf7e3458361215f565b611b2482600b6128e5565b505050565b7fae4a0595970935aa5495afbbb72e5f1f6ff1062766b4a3028c0c9b7d5cf7e34581565b7f5f1d1e303f9c0a1801dd708bdc4239781d66c88ca6cb941c5769ba09b5c1b285611b7f81611b7a612840565b612848565b611ba97f5f1d1e303f9c0a1801dd708bdc4239781d66c88ca6cb941c5769ba09b5c1b2858361132e565b611bb66000801b8361132e565b611bc36000801b336113eb565b611bed7f5f1d1e303f9c0a1801dd708bdc4239781d66c88ca6cb941c5769ba09b5c1b285336113eb565b81600860006101000a81548173ffffffffffffffffffffffffffffffffffffffff021916908373ffffffffffffffffffffffffffffffffffffffff1602179055505050565b6000611c598260076000868152602001908152602001600020612ed490919063ffffffff16565b905092915050565b60006006600084815260200190815260200160002060000160008373ffffffffffffffffffffffffffffffffffffffff1673ffffffffffffffffffffffffffffffffffffffff16815260200190815260200160002060009054906101000a900460ff16905092915050565b606060018054611cdb9061469f565b80601f0160208091040260200160405190810160405280929190818152602001828054611d079061469f565b8015611d545780601f10611d2957610100808354040283529160200191611d54565b820191906000526020600020905b815481529060010190602001808311611d3757829003601f168201915b5050505050905090565b6000600860009054906101000a900473ffffffffffffffffffffffffffffffffffffffff16905090565b6000611db47fae4a0595970935aa5495afbbb72e5f1f6ff1062766b4a3028c0c9b7d5cf7e34583611c61565b9050919050565b7fe7837d04f36ce0b2f3cc662bf1b2b632a7fbd12ae95199e8bd3dcfbcc440b66b81565b6000801b81565b611df8611df1612840565b8383612eee565b5050565b7f4758f7d70d6088cbfad5c79861ac6457ba2af02adf5ea419e97879ae24459cb681565b600073ffffffffffffffffffffffffffffffffffffffff163373ffffffffffffffffffffffffffffffffffffffff1614611e8f576040517f08c379a0000000000000000000000000000000000000000000000000000000008152600401611e8690614b76565b60405180910390fd5b611e9b8484848461305b565b50505050565b7f5f1d1e303f9c0a1801dd708bdc4239781d66c88ca6cb941c5769ba09b5c1b285611ed381611ece612840565b612848565b611efd7ff3f9cfff7b46f415da5a492b1718971da203f87c6aae9299e7b408eb83ef8bee8361215f565b611f088260096128e5565b505050565b80601160008481526020019081526020016000209080519060200190611f34929190613baf565b505050565b6060600c805480602002602001604051908101604052809291908181526020018280548015611fbd57602002820191906000526020600020905b8160009054906101000a900473ffffffffffffffffffffffffffffffffffffffff1673ffffffffffffffffffffffffffffffffffffffff1681526020019060010190808311611f73575b5050505050905090565b6000600e54905090565b6060611fdc82612af9565b61201b576040517f08c379a000000000000000000000000000000000000000000000000000000000815260040161201290614e2a565b60405180910390fd5b60006120256130bd565b905060008151116120455760405180602001604052806000815250612070565b8061204f846130d4565b604051602001612060929190614e4a565b6040516020818303038152906040525b915050919050565b7f5f1d1e303f9c0a1801dd708bdc4239781d66c88ca6cb941c5769ba09b5c1b2856120aa816120a5612840565b612848565b6120d47f36a5c4aaacb6b388bbd448bf11096b7dafc5652bcc9046084fd0e95b1fb0b2cc8361132e565b600c829080600181540180825580915050600190039060005260206000200160009091909190916101000a81548173ffffffffffffffffffffffffffffffffffffffff021916908373ffffffffffffffffffffffffffffffffffffffff1602179055505050565b600061215860076000848152602001908152602001600020613235565b9050919050565b61216882611188565b61217981612174612840565b612848565b6121838383612e80565b505050565b6060600d80548060200260200160405190810160405280929190818152602001828054801561220c57602002820191906000526020600020905b8160009054906101000a900473ffffffffffffffffffffffffffffffffffffffff1673ffffffffffffffffffffffffffffffffffffffff16815260200190600101908083116121c2575b5050505050905090565b60006122427fe7837d04f36ce0b2f3cc662bf1b2b632a7fbd12ae95199e8bd3dcfbcc440b66b83611c61565b9050919050565b60006122757ff3f9cfff7b46f415da5a492b1718971da203f87c6aae9299e7b408eb83ef8bee83611c61565b9050919050565b6000600560008473ffffffffffffffffffffffffffffffffffffffff1673ffffffffffffffffffffffffffffffffffffffff16815260200190815260200160002060008373ffffffffffffffffffffffffffffffffffffffff1673ffffffffffffffffffffffffffffffffffffffff16815260200190815260200160002060009054906101000a900460ff16905092915050565b7f36a5c4aaacb6b388bbd448bf11096b7dafc5652bcc9046084fd0e95b1fb0b2cc81565b60006123607f36a5c4aaacb6b388bbd448bf11096b7dafc5652bcc9046084fd0e95b1fb0b2cc83611c61565b9050919050565b6123718282611c61565b6124445760016006600084815260200190815260200160002060000160008373ffffffffffffffffffffffffffffffffffffffff1673ffffffffffffffffffffffffffffffffffffffff16815260200190815260200160002060006101000a81548160ff0219169083151502179055506123e9612840565b73ffffffffffffffffffffffffffffffffffffffff168173ffffffffffffffffffffffffffffffffffffffff16837f2f8788117e7eff1d82e926ec794901d17c78024a50270940304540a733656f0d60405160405180910390a45b5050565b6000612470836000018373ffffffffffffffffffffffffffffffffffffffff1660001b61324a565b905092915050565b60606000600283600261248b9190614e6e565b6124959190614aae565b67ffffffffffffffff8111156124ae576124ad614022565b5b6040519080825280601f01601f1916602001820160405280156124e05781602001600182028036833780820191505090505b5090507f30000000000000000000000000000000000000000000000000000000000000008160008151811061251857612517614ec8565b5b60200101907effffffffffffffffffffffffffffffffffffffffffffffffffffffffffffff1916908160001a9053507f78000000000000000000000000000000000000000000000000000000000000008160018151811061257c5761257b614ec8565b5b60200101907effffffffffffffffffffffffffffffffffffffffffffffffffffffffffffff1916908160001a905350600060018460026125bc9190614e6e565b6125c69190614aae565b90505b6001811115612666577f3031323334353637383961626364656600000000000000000000000000000000600f86166010811061260857612607614ec8565b5b1a60f81b82828151811061261f5761261e614ec8565b5b60200101907effffffffffffffffffffffffffffffffffffffffffffffffffffffffffffff1916908160001a905350600485901c94508061265f90614ef7565b90506125c9565b50600084146126aa576040517f08c379a00000000000000000000000000000000000000000000000000000000081526004016126a190614f6d565b60405180910390fd5b8091505092915050565b6126be8282611c61565b156127925760006006600084815260200190815260200160002060000160008373ffffffffffffffffffffffffffffffffffffffff1673ffffffffffffffffffffffffffffffffffffffff16815260200190815260200160002060006101000a81548160ff021916908315150217905550612737612840565b73ffffffffffffffffffffffffffffffffffffffff168173ffffffffffffffffffffffffffffffffffffffff16837ff6391f5c32d9c69d2a47ea670b442974b53935d1edc7fd64eb21e047a839171b60405160405180910390a45b5050565b60006127be836000018373ffffffffffffffffffffffffffffffffffffffff1660001b6132ba565b905092915050565b60007f5a05180f000000000000000000000000000000000000000000000000000000007bffffffffffffffffffffffffffffffffffffffffffffffffffffffff1916827bffffffffffffffffffffffffffffffffffffffffffffffffffffffff191614806128395750612838826133ce565b5b9050919050565b600033905090565b6128528282611c61565b6128e1576128778173ffffffffffffffffffffffffffffffffffffffff166014612478565b6128858360001c6020612478565b604051602001612896929190615025565b6040516020818303038152906040526040517f08c379a00000000000000000000000000000000000000000000000000000000081526004016128d89190613e49565b60405180910390fd5b5050565b606060005b8280549050811015612a6a578373ffffffffffffffffffffffffffffffffffffffff168382815481106129205761291f614ec8565b5b9060005260206000200160009054906101000a900473ffffffffffffffffffffffffffffffffffffffff1673ffffffffffffffffffffffffffffffffffffffff161415612a57578260018480549050612979919061505f565b8154811061298a57612989614ec8565b5b9060005260206000200160009054906101000a900473ffffffffffffffffffffffffffffffffffffffff168382815481106129c8576129c7614ec8565b5b9060005260206000200160006101000a81548173ffffffffffffffffffffffffffffffffffffffff021916908373ffffffffffffffffffffffffffffffffffffffff16021790555082805480612a2157612a20615093565b5b6001900381819060005260206000200160006101000a81549073ffffffffffffffffffffffffffffffffffffffff021916905590555b8080612a62906150c2565b9150506128ea565b5081805480602002602001604051908101604052809291908181526020018280548015612aec57602002820191906000526020600020905b8160009054906101000a900473ffffffffffffffffffffffffffffffffffffffff1673ffffffffffffffffffffffffffffffffffffffff1681526020019060010190808311612aa2575b5050505050905092915050565b60008073ffffffffffffffffffffffffffffffffffffffff166002600084815260200190815260200160002060009054906101000a900473ffffffffffffffffffffffffffffffffffffffff1673ffffffffffffffffffffffffffffffffffffffff1614159050919050565b816004600083815260200190815260200160002060006101000a81548173ffffffffffffffffffffffffffffffffffffffff021916908373ffffffffffffffffffffffffffffffffffffffff160217905550808273ffffffffffffffffffffffffffffffffffffffff16612bd883611857565b73ffffffffffffffffffffffffffffffffffffffff167f8c5be1e5ebec7d5bd14f71427d1e84f3dd0314c0f7b2291e5b200ac8c7c3b92560405160405180910390a45050565b600073ffffffffffffffffffffffffffffffffffffffff168273ffffffffffffffffffffffffffffffffffffffff161415612c8e576040517f08c379a0000000000000000000000000000000000000000000000000000000008152600401612c8590615157565b60405180910390fd5b612c9781612af9565b15612cd7576040517f08c379a0000000000000000000000000000000000000000000000000000000008152600401612cce906151c3565b60405180910390fd5b612ce360008383613448565b6001600360008473ffffffffffffffffffffffffffffffffffffffff1673ffffffffffffffffffffffffffffffffffffffff1681526020019081526020016000206000828254612d339190614aae565b92505081905550816002600083815260200190815260200160002060006101000a81548173ffffffffffffffffffffffffffffffffffffffff021916908373ffffffffffffffffffffffffffffffffffffffff160217905550808273ffffffffffffffffffffffffffffffffffffffff16600073ffffffffffffffffffffffffffffffffffffffff167fddf252ad1be2c89b69c2b068fc378daa952ba7f163c4a11628f55a4df523b3ef60405160405180910390a45050565b612dfd612df7612840565b8261344d565b612e3c576040517f08c379a0000000000000000000000000000000000000000000000000000000008152600401612e3390615255565b60405180910390fd5b612e4783838361352b565b505050565b612e568282612367565b612e7b816007600085815260200190815260200160002061244890919063ffffffff16565b505050565b612e8a82826126b4565b612eaf816007600085815260200190815260200160002061279690919063ffffffff16565b505050565b612ecf83838360405180602001604052806000815250611e20565b505050565b6000612ee38360000183613787565b60001c905092915050565b8173ffffffffffffffffffffffffffffffffffffffff168373ffffffffffffffffffffffffffffffffffffffff161415612f5d576040517f08c379a0000000000000000000000000000000000000000000000000000000008152600401612f54906152c1565b60405180910390fd5b80600560008573ffffffffffffffffffffffffffffffffffffffff1673ffffffffffffffffffffffffffffffffffffffff16815260200190815260200160002060008473ffffffffffffffffffffffffffffffffffffffff1673ffffffffffffffffffffffffffffffffffffffff16815260200190815260200160002060006101000a81548160ff0219169083151502179055508173ffffffffffffffffffffffffffffffffffffffff168373ffffffffffffffffffffffffffffffffffffffff167f17307eab39ab6107e8899845ad3d59bd9653f200f220920489ca2b5937696c318360405161304e9190613d0a565b60405180910390a3505050565b61306c613066612840565b8361344d565b6130ab576040517f08c379a00000000000000000000000000000000000000000000000000000000081526004016130a290615255565b60405180910390fd5b6130b7848484846137b2565b50505050565b606060405180602001604052806000815250905090565b6060600082141561311c576040518060400160405280600181526020017f30000000000000000000000000000000000000000000000000000000000000008152509050613230565b600082905060005b6000821461314e578080613137906150c2565b915050600a826131479190615310565b9150613124565b60008167ffffffffffffffff81111561316a57613169614022565b5b6040519080825280601f01601f19166020018201604052801561319c5781602001600182028036833780820191505090505b5090505b60008514613229576001826131b5919061505f565b9150600a856131c49190615341565b60306131d09190614aae565b60f81b8183815181106131e6576131e5614ec8565b5b60200101907effffffffffffffffffffffffffffffffffffffffffffffffffffffffffffff1916908160001a905350600a856132229190615310565b94506131a0565b8093505050505b919050565b60006132438260000161380e565b9050919050565b6000613256838361381f565b6132af5782600001829080600181540180825580915050600190039060005260206000200160009091909190915055826000018054905083600101600084815260200190815260200160002081905550600190506132b4565b600090505b92915050565b600080836001016000848152602001908152602001600020549050600081146133c25760006001826132ec919061505f565b9050600060018660000180549050613304919061505f565b905081811461337357600086600001828154811061332557613324614ec8565b5b906000526020600020015490508087600001848154811061334957613348614ec8565b5b90600052602060002001819055508387600101600083815260200190815260200160002081905550505b8560000180548061338757613386615093565b5b6001900381819060005260206000200160009055905585600101600086815260200190815260200160002060009055600193505050506133c8565b60009150505b92915050565b60007f7965db0b000000000000000000000000000000000000000000000000000000007bffffffffffffffffffffffffffffffffffffffffffffffffffffffff1916827bffffffffffffffffffffffffffffffffffffffffffffffffffffffff19161480613441575061344082613842565b5b9050919050565b505050565b600061345882612af9565b613497576040517f08c379a000000000000000000000000000000000000000000000000000000000815260040161348e906153e4565b60405180910390fd5b60006134a283611857565b90508073ffffffffffffffffffffffffffffffffffffffff168473ffffffffffffffffffffffffffffffffffffffff16148061351157508373ffffffffffffffffffffffffffffffffffffffff166134f984610c12565b73ffffffffffffffffffffffffffffffffffffffff16145b806135225750613521818561227c565b5b91505092915050565b8273ffffffffffffffffffffffffffffffffffffffff1661354b82611857565b73ffffffffffffffffffffffffffffffffffffffff16146135a1576040517f08c379a000000000000000000000000000000000000000000000000000000000815260040161359890615476565b60405180910390fd5b600073ffffffffffffffffffffffffffffffffffffffff168273ffffffffffffffffffffffffffffffffffffffff161415613611576040517f08c379a000000000000000000000000000000000000000000000000000000000815260040161360890615508565b60405180910390fd5b61361c838383613448565b613627600082612b65565b6001600360008573ffffffffffffffffffffffffffffffffffffffff1673ffffffffffffffffffffffffffffffffffffffff1681526020019081526020016000206000828254613677919061505f565b925050819055506001600360008473ffffffffffffffffffffffffffffffffffffffff1673ffffffffffffffffffffffffffffffffffffffff16815260200190815260200160002060008282546136ce9190614aae565b92505081905550816002600083815260200190815260200160002060006101000a81548173ffffffffffffffffffffffffffffffffffffffff021916908373ffffffffffffffffffffffffffffffffffffffff160217905550808273ffffffffffffffffffffffffffffffffffffffff168473ffffffffffffffffffffffffffffffffffffffff167fddf252ad1be2c89b69c2b068fc378daa952ba7f163c4a11628f55a4df523b3ef60405160405180910390a4505050565b600082600001828154811061379f5761379e614ec8565b5b9060005260206000200154905092915050565b6137bd84848461352b565b6137c984848484613924565b613808576040517f08c379a00000000000000000000000000000000000000000000000000000000081526004016137ff9061559a565b60405180910390fd5b50505050565b600081600001805490509050919050565b600080836001016000848152602001908152602001600020541415905092915050565b60007f80ac58cd000000000000000000000000000000000000000000000000000000007bffffffffffffffffffffffffffffffffffffffffffffffffffffffff1916827bffffffffffffffffffffffffffffffffffffffffffffffffffffffff1916148061390d57507f5b5e139f000000000000000000000000000000000000000000000000000000007bffffffffffffffffffffffffffffffffffffffffffffffffffffffff1916827bffffffffffffffffffffffffffffffffffffffffffffffffffffffff1916145b8061391d575061391c82613aac565b5b9050919050565b60006139458473ffffffffffffffffffffffffffffffffffffffff16613b16565b15613a9f578373ffffffffffffffffffffffffffffffffffffffff1663150b7a0261396e612840565b8786866040518563ffffffff1660e01b8152600401613990949392919061560f565b6020604051808303816000875af19250505080156139cc57506040513d601f19601f820116820180604052508101906139c99190615670565b60015b613a4f573d80600081146139fc576040519150601f19603f3d011682016040523d82523d6000602084013e613a01565b606091505b50600081511415613a47576040517f08c379a0000000000000000000000000000000000000000000000000000000008152600401613a3e9061559a565b60405180910390fd5b805181602001fd5b63150b7a0260e01b7bffffffffffffffffffffffffffffffffffffffffffffffffffffffff1916817bffffffffffffffffffffffffffffffffffffffffffffffffffffffff191614915050613aa4565b600190505b949350505050565b60007f01ffc9a7000000000000000000000000000000000000000000000000000000007bffffffffffffffffffffffffffffffffffffffffffffffffffffffff1916827bffffffffffffffffffffffffffffffffffffffffffffffffffffffff1916149050919050565b600080823b905060008111915050919050565b828054613b359061469f565b90600052602060002090601f016020900481019282613b575760008555613b9e565b82601f10613b7057805160ff1916838001178555613b9e565b82800160010185558215613b9e579182015b82811115613b9d578251825591602001919060010190613b82565b5b509050613bab9190613c39565b5090565b828054828255906000526020600020908101928215613c28579160200282015b82811115613c275782518260006101000a81548173ffffffffffffffffffffffffffffffffffffffff021916908373ffffffffffffffffffffffffffffffffffffffff16021790555091602001919060010190613bcf565b5b509050613c359190613c39565b5090565b5b80821115613c52576000816000905550600101613c3a565b5090565b6000604051905090565b600080fd5b600080fd5b60007fffffffff0000000000000000000000000000000000000000000000000000000082169050919050565b613c9f81613c6a565b8114613caa57600080fd5b50565b600081359050613cbc81613c96565b92915050565b600060208284031215613cd857613cd7613c60565b5b6000613ce684828501613cad565b91505092915050565b60008115159050919050565b613d0481613cef565b82525050565b6000602082019050613d1f6000830184613cfb565b92915050565b600073ffffffffffffffffffffffffffffffffffffffff82169050919050565b6000613d5082613d25565b9050919050565b613d6081613d45565b8114613d6b57600080fd5b50565b600081359050613d7d81613d57565b92915050565b600060208284031215613d9957613d98613c60565b5b6000613da784828501613d6e565b91505092915050565b600081519050919050565b600082825260208201905092915050565b60005b83811015613dea578082015181840152602081019050613dcf565b83811115613df9576000848401525b50505050565b6000601f19601f8301169050919050565b6000613e1b82613db0565b613e258185613dbb565b9350613e35818560208601613dcc565b613e3e81613dff565b840191505092915050565b60006020820190508181036000830152613e638184613e10565b905092915050565b6000819050919050565b613e7e81613e6b565b8114613e8957600080fd5b50565b600081359050613e9b81613e75565b92915050565b600060208284031215613eb757613eb6613c60565b5b6000613ec584828501613e8c565b91505092915050565b613ed781613d45565b82525050565b6000602082019050613ef26000830184613ece565b92915050565b60008060408385031215613f0f57613f0e613c60565b5b6000613f1d85828601613d6e565b9250506020613f2e85828601613e8c565b9150509250929050565b600081519050919050565b600082825260208201905092915050565b6000819050602082019050919050565b613f6d81613d45565b82525050565b6000613f7f8383613f64565b60208301905092915050565b6000602082019050919050565b6000613fa382613f38565b613fad8185613f43565b9350613fb883613f54565b8060005b83811015613fe9578151613fd08882613f73565b9750613fdb83613f8b565b925050600181019050613fbc565b5085935050505092915050565b600060208201905081810360008301526140108184613f98565b905092915050565b600080fd5b600080fd5b7f4e487b7100000000000000000000000000000000000000000000000000000000600052604160045260246000fd5b61405a82613dff565b810181811067ffffffffffffffff8211171561407957614078614022565b5b80604052505050565b600061408c613c56565b90506140988282614051565b919050565b600067ffffffffffffffff8211156140b8576140b7614022565b5b6140c182613dff565b9050602081019050919050565b82818337600083830152505050565b60006140f06140eb8461409d565b614082565b90508281526020810184848401111561410c5761410b61401d565b5b6141178482856140ce565b509392505050565b600082601f83011261413457614133614018565b5b81356141448482602086016140dd565b91505092915050565b6000806040838503121561416457614163613c60565b5b600083013567ffffffffffffffff81111561418257614181613c65565b5b61418e8582860161411f565b925050602061419f85828601613d6e565b9150509250929050565b6000806000606084860312156141c2576141c1613c60565b5b60006141d086828701613d6e565b93505060206141e186828701613d6e565b92505060406141f286828701613e8c565b9150509250925092565b6000819050919050565b61420f816141fc565b811461421a57600080fd5b50565b60008135905061422c81614206565b92915050565b60006020828403121561424857614247613c60565b5b60006142568482850161421d565b91505092915050565b614268816141fc565b82525050565b6000602082019050614283600083018461425f565b92915050565b600080604083850312156142a05761429f613c60565b5b60006142ae8582860161421d565b92505060206142bf85828601613d6e565b9150509250929050565b6000602082840312156142df576142de613c60565b5b600082013567ffffffffffffffff8111156142fd576142fc613c65565b5b6143098482850161411f565b91505092915050565b61431b81613e6b565b82525050565b60006020820190506143366000830184614312565b92915050565b6000806040838503121561435357614352613c60565b5b60006143618582860161421d565b925050602061437285828601613e8c565b9150509250929050565b61438581613cef565b811461439057600080fd5b50565b6000813590506143a28161437c565b92915050565b600080604083850312156143bf576143be613c60565b5b60006143cd85828601613d6e565b92505060206143de85828601614393565b9150509250929050565b600067ffffffffffffffff82111561440357614402614022565b5b61440c82613dff565b9050602081019050919050565b600061442c614427846143e8565b614082565b9050828152602081018484840111156144485761444761401d565b5b6144538482856140ce565b509392505050565b600082601f8301126144705761446f614018565b5b8135614480848260208601614419565b91505092915050565b600080600080608085870312156144a3576144a2613c60565b5b60006144b187828801613d6e565b94505060206144c287828801613d6e565b93505060406144d387828801613e8c565b925050606085013567ffffffffffffffff8111156144f4576144f3613c65565b5b6145008782880161445b565b91505092959194509250565b600067ffffffffffffffff82111561452757614526614022565b5b602082029050602081019050919050565b600080fd5b600061455061454b8461450c565b614082565b9050808382526020820190506020840283018581111561457357614572614538565b5b835b8181101561459c57806145888882613d6e565b845260208401935050602081019050614575565b5050509392505050565b600082601f8301126145bb576145ba614018565b5b81356145cb84826020860161453d565b91505092915050565b600080604083850312156145eb576145ea613c60565b5b60006145f985828601613e8c565b925050602083013567ffffffffffffffff81111561461a57614619613c65565b5b614626858286016145a6565b9150509250929050565b6000806040838503121561464757614646613c60565b5b600061465585828601613d6e565b925050602061466685828601613d6e565b9150509250929050565b7f4e487b7100000000000000000000000000000000000000000000000000000000600052602260045260246000fd5b600060028204905060018216806146b757607f821691505b602082108114156146cb576146ca614670565b5b50919050565b7f4552433732313a20617070726f76656420717565727920666f72206e6f6e657860008201527f697374656e7420746f6b656e0000000000000000000000000000000000000000602082015250565b600061472d602c83613dbb565b9150614738826146d1565b604082019050919050565b6000602082019050818103600083015261475c81614720565b9050919050565b7f4552433732313a20617070726f76616c20746f2063757272656e74206f776e6560008201527f7200000000000000000000000000000000000000000000000000000000000000602082015250565b60006147bf602183613dbb565b91506147ca82614763565b604082019050919050565b600060208201905081810360008301526147ee816147b2565b9050919050565b7f4552433732313a20617070726f76652063616c6c6572206973206e6f74206f7760008201527f6e6572206e6f7220617070726f76656420666f7220616c6c0000000000000000602082015250565b6000614851603883613dbb565b915061485c826147f5565b604082019050919050565b6000602082019050818103600083015261488081614844565b9050919050565b600081905092915050565b600061489d82613db0565b6148a78185614887565b93506148b7818560208601613dcc565b80840191505092915050565b60006148cf8284614892565b915081905092915050565b7f5468697320466163756c747920697320616c7265616479206578697374000000600082015250565b6000614910601d83613dbb565b915061491b826148da565b602082019050919050565b6000602082019050818103600083015261493f81614903565b9050919050565b7f546869732061646472657373206973206e6f7420696e20464143554c54595f5260008201527f4f4c450000000000000000000000000000000000000000000000000000000000602082015250565b60006149a2602383613dbb565b91506149ad82614946565b604082019050919050565b600060208201905081810360008301526149d181614995565b9050919050565b50565b60006149e8600083614887565b91506149f3826149d8565b600082019050919050565b6000614a09826149db565b9150819050919050565b7f466163756c7479206e616d652063616e6e6f7420626520656d70747900000000600082015250565b6000614a49601c83613dbb565b9150614a5482614a13565b602082019050919050565b60006020820190508181036000830152614a7881614a3c565b9050919050565b7f4e487b7100000000000000000000000000000000000000000000000000000000600052601160045260246000fd5b6000614ab982613e6b565b9150614ac483613e6b565b9250827fffffffffffffffffffffffffffffffffffffffffffffffffffffffffffffffff03821115614af957614af8614a7f565b5b828201905092915050565b7f5472616e73666572206166746572206d696e742069732070726f68696269746560008201527f6400000000000000000000000000000000000000000000000000000000000000602082015250565b6000614b60602183613dbb565b9150614b6b82614b04565b604082019050919050565b60006020820190508181036000830152614b8f81614b53565b9050919050565b7f416363657373436f6e74726f6c3a2063616e206f6e6c792072656e6f756e636560008201527f20726f6c657320666f722073656c660000000000000000000000000000000000602082015250565b6000614bf2602f83613dbb565b9150614bfd82614b96565b604082019050919050565b60006020820190508181036000830152614c2181614be5565b9050919050565b7f5468652061646472657373206973206e6f7420612073747564656e7400000000600082015250565b6000614c5e601c83613dbb565b9150614c6982614c28565b602082019050919050565b60006020820190508181036000830152614c8d81614c51565b9050919050565b7f4552433732313a206f776e657220717565727920666f72206e6f6e657869737460008201527f656e7420746f6b656e0000000000000000000000000000000000000000000000602082015250565b6000614cf0602983613dbb565b9150614cfb82614c94565b604082019050919050565b60006020820190508181036000830152614d1f81614ce3565b9050919050565b7f4552433732313a2062616c616e636520717565727920666f7220746865207a6560008201527f726f206164647265737300000000000000000000000000000000000000000000602082015250565b6000614d82602a83613dbb565b9150614d8d82614d26565b604082019050919050565b60006020820190508181036000830152614db181614d75565b9050919050565b7f4552433732314d657461646174613a2055524920717565727920666f72206e6f60008201527f6e6578697374656e7420746f6b656e0000000000000000000000000000000000602082015250565b6000614e14602f83613dbb565b9150614e1f82614db8565b604082019050919050565b60006020820190508181036000830152614e4381614e07565b9050919050565b6000614e568285614892565b9150614e628284614892565b91508190509392505050565b6000614e7982613e6b565b9150614e8483613e6b565b9250817fffffffffffffffffffffffffffffffffffffffffffffffffffffffffffffffff0483118215151615614ebd57614ebc614a7f565b5b828202905092915050565b7f4e487b7100000000000000000000000000000000000000000000000000000000600052603260045260246000fd5b6000614f0282613e6b565b91506000821415614f1657614f15614a7f565b5b600182039050919050565b7f537472696e67733a20686578206c656e67746820696e73756666696369656e74600082015250565b6000614f57602083613dbb565b9150614f6282614f21565b602082019050919050565b60006020820190508181036000830152614f8681614f4a565b9050919050565b7f416363657373436f6e74726f6c3a206163636f756e7420000000000000000000600082015250565b6000614fc3601783614887565b9150614fce82614f8d565b601782019050919050565b7f206973206d697373696e6720726f6c6520000000000000000000000000000000600082015250565b600061500f601183614887565b915061501a82614fd9565b601182019050919050565b600061503082614fb6565b915061503c8285614892565b915061504782615002565b91506150538284614892565b91508190509392505050565b600061506a82613e6b565b915061507583613e6b565b92508282101561508857615087614a7f565b5b828203905092915050565b7f4e487b7100000000000000000000000000000000000000000000000000000000600052603160045260246000fd5b60006150cd82613e6b565b91507fffffffffffffffffffffffffffffffffffffffffffffffffffffffffffffffff821415615100576150ff614a7f565b5b600182019050919050565b7f4552433732313a206d696e7420746f20746865207a65726f2061646472657373600082015250565b6000615141602083613dbb565b915061514c8261510b565b602082019050919050565b6000602082019050818103600083015261517081615134565b9050919050565b7f4552433732313a20746f6b656e20616c7265616479206d696e74656400000000600082015250565b60006151ad601c83613dbb565b91506151b882615177565b602082019050919050565b600060208201905081810360008301526151dc816151a0565b9050919050565b7f4552433732313a207472616e736665722063616c6c6572206973206e6f74206f60008201527f776e6572206e6f7220617070726f766564000000000000000000000000000000602082015250565b600061523f603183613dbb565b915061524a826151e3565b604082019050919050565b6000602082019050818103600083015261526e81615232565b9050919050565b7f4552433732313a20617070726f766520746f2063616c6c657200000000000000600082015250565b60006152ab601983613dbb565b91506152b682615275565b602082019050919050565b600060208201905081810360008301526152da8161529e565b9050919050565b7f4e487b7100000000000000000000000000000000000000000000000000000000600052601260045260246000fd5b600061531b82613e6b565b915061532683613e6b565b925082615336576153356152e1565b5b828204905092915050565b600061534c82613e6b565b915061535783613e6b565b925082615367576153666152e1565b5b828206905092915050565b7f4552433732313a206f70657261746f7220717565727920666f72206e6f6e657860008201527f697374656e7420746f6b656e0000000000000000000000000000000000000000602082015250565b60006153ce602c83613dbb565b91506153d982615372565b604082019050919050565b600060208201905081810360008301526153fd816153c1565b9050919050565b7f4552433732313a207472616e73666572206f6620746f6b656e2074686174206960008201527f73206e6f74206f776e0000000000000000000000000000000000000000000000602082015250565b6000615460602983613dbb565b915061546b82615404565b604082019050919050565b6000602082019050818103600083015261548f81615453565b9050919050565b7f4552433732313a207472616e7366657220746f20746865207a65726f2061646460008201527f7265737300000000000000000000000000000000000000000000000000000000602082015250565b60006154f2602483613dbb565b91506154fd82615496565b604082019050919050565b60006020820190508181036000830152615521816154e5565b9050919050565b7f4552433732313a207472616e7366657220746f206e6f6e20455243373231526560008201527f63656976657220696d706c656d656e7465720000000000000000000000000000602082015250565b6000615584603283613dbb565b915061558f82615528565b604082019050919050565b600060208201905081810360008301526155b381615577565b9050919050565b600081519050919050565b600082825260208201905092915050565b60006155e1826155ba565b6155eb81856155c5565b93506155fb818560208601613dcc565b61560481613dff565b840191505092915050565b60006080820190506156246000830187613ece565b6156316020830186613ece565b61563e6040830185614312565b818103606083015261565081846155d6565b905095945050505050565b60008151905061566a81613c96565b92915050565b60006020828403121561568657615685613c60565b5b60006156948482850161565b565b9150509291505056fea264697066735822122020aee6401c0a48329cdb7da86d59748e9c48523759f057e00bd15d13cecfe06264736f6c634300080a0033",
  "immutableReferences": {},
  "source": "pragma solidity ^0.8.10;\r\n\r\nimport \"@openzeppelin/contracts/token/ERC721/ERC721.sol\";\r\nimport \"./Roles.sol\";\r\n\r\ncontract Faculty is ERC721, Roles{\r\n    uint256 _totalSupply = 0;\r\n    //mapping from tokenID to facultyName\r\n    mapping(uint256 => string) _facultyNameOfID;\r\n    //mapping from facultyName to tokenID\r\n    mapping(string => uint256) _IDOfFacultyName;\r\n    //mapping from tokenID to its departments\r\n    mapping(uint256 => address[]) _departments;\r\n\r\n    constructor() ERC721(\"Faculty\", \"FAC\") public{\r\n        _setupRole(DEFAULT_ADMIN_ROLE, msg.sender);\r\n        _setupRole(RECTOR_ROLE, msg.sender);\r\n        grantRectorRole(msg.sender);\r\n    }\r\n\r\n    function mint(string memory _facultyName, address facultyAddress) public onlyRole(RECTOR_ROLE){\r\n        require(_IDOfFacultyName[_facultyName] == 0, \"This Faculty is already exist\");\r\n        grantFacultyRole(facultyAddress);\r\n        require(hasRole(FACULTY_ROLE, facultyAddress), \"This address is not in FACULTY_ROLE\");\r\n        require(keccak256(abi.encodePacked(_facultyName)) != keccak256(abi.encodePacked(\"\")), \"Faculty name cannot be empty\");\r\n        // Faculty - add\r\n        _totalSupply = _totalSupply + 1;\r\n        uint _id = _totalSupply; //tokenID's start from 1 because default uint256 value is 0\r\n        // Call the mint function of ERC721\r\n        _mint(facultyAddress, _id);\r\n        // Faculty - track it\r\n        _IDOfFacultyName[_facultyName] = _id;\r\n        _facultyNameOfID[_id] = _facultyName;\r\n    }\r\n//    function burn(string memory _facultyName) public onlyRole(RECTOR_ROLE){\r\n//        uint _id = _IDOfFacultyName[_facultyName];\r\n//        require(_id != 0, \"This Faculty is not exist\");\r\n//        require(keccak256(abi.encodePacked(_facultyNameOfID[_id])) == keccak256(abi.encodePacked(_facultyName)), \"Faculty names do not match\");\r\n//        //Revoke Role\r\n//        address owner = ownerOf(_id);\r\n//        revokeFacultyRole(owner);\r\n//        _burn(_id);\r\n//        _facultyNameOfID[_id] = \"\";\r\n//        _IDOfFacultyName[_facultyName] = 0;\r\n//    }\r\n    function getFacultyName(uint256 id) public view returns(string memory){\r\n        return _facultyNameOfID[id];\r\n    }\r\n    function getFacultyID(string memory facultyName) public view returns(uint256){\r\n        return _IDOfFacultyName[facultyName];\r\n    }\r\n    function getTotalSupply() public view returns(uint256){\r\n        return _totalSupply;\r\n    }\r\n    function getDepartments(uint256 id) public view returns(address[] memory){\r\n        return _departments[id];\r\n    }\r\n    //TODO handle public visiblity to onlyRole\r\n    function setDepartments(uint256 id, address[] memory departments) public{\r\n        _departments[id] = departments;\r\n    }\r\n\r\n    function transferFrom(//Only callable when minted\r\n        address from,\r\n        address to,\r\n        uint256 tokenId\r\n    ) public virtual override {\r\n        require(msg.sender == 0x0000000000000000000000000000000000000000, \"Transfer after mint is prohibited\");\r\n        super.transferFrom(from,to,tokenId);\r\n    }\r\n    function safeTransferFrom(//Only callable when minted\r\n        address from,\r\n        address to,\r\n        uint256 tokenId\r\n    ) public virtual override {\r\n        require(msg.sender == 0x0000000000000000000000000000000000000000, \"Transfer after mint is prohibited\");\r\n        super.safeTransferFrom(from,to,tokenId);\r\n    }\r\n    function safeTransferFrom(//Only callable when minted\r\n        address from,\r\n        address to,\r\n        uint256 tokenId,\r\n        bytes memory _data\r\n    ) public virtual override {\r\n        require(msg.sender == 0x0000000000000000000000000000000000000000, \"Transfer after mint is prohibited\");\r\n        super.safeTransferFrom(from, to, tokenId, _data);\r\n    }\r\n\r\n    function supportsInterface(bytes4 interfaceId) public view virtual override(ERC721, AccessControlEnumerable) returns (bool) {\r\n        return super.supportsInterface(interfaceId);\r\n    }\r\n}\r\n",
  "sourcePath": "C:\\Users\\asus\\Desktop\\Dersler\\CMPE492\\certification-project\\contracts\\Faculty.sol",
  "compiler": {
    "name": "solc",
    "version": "0.8.10+commit.fc410830.Emscripten.clang"
  },
  "schemaVersion": "3.4.4",
  "updatedAt": "2022-01-15T15:50:46.799Z",
  "networkType": "ethereum",
  "devdoc": {
    "kind": "dev",
    "methods": {
      "approve(address,uint256)": {
        "details": "See {IERC721-approve}."
      },
      "balanceOf(address)": {
        "details": "See {IERC721-balanceOf}."
      },
      "getApproved(uint256)": {
        "details": "See {IERC721-getApproved}."
      },
      "getRoleAdmin(bytes32)": {
        "details": "Returns the admin role that controls `role`. See {grantRole} and {revokeRole}. To change a role's admin, use {_setRoleAdmin}."
      },
      "getRoleMember(bytes32,uint256)": {
        "details": "Returns one of the accounts that have `role`. `index` must be a value between 0 and {getRoleMemberCount}, non-inclusive. Role bearers are not sorted in any particular way, and their ordering may change at any point. WARNING: When using {getRoleMember} and {getRoleMemberCount}, make sure you perform all queries on the same block. See the following https://forum.openzeppelin.com/t/iterating-over-elements-on-enumerableset-in-openzeppelin-contracts/2296[forum post] for more information."
      },
      "getRoleMemberCount(bytes32)": {
        "details": "Returns the number of accounts that have `role`. Can be used together with {getRoleMember} to enumerate all bearers of a role."
      },
      "grantRole(bytes32,address)": {
        "details": "Grants `role` to `account`. If `account` had not been already granted `role`, emits a {RoleGranted} event. Requirements: - the caller must have ``role``'s admin role."
      },
      "hasRole(bytes32,address)": {
        "details": "Returns `true` if `account` has been granted `role`."
      },
      "isApprovedForAll(address,address)": {
        "details": "See {IERC721-isApprovedForAll}."
      },
      "name()": {
        "details": "See {IERC721Metadata-name}."
      },
      "ownerOf(uint256)": {
        "details": "See {IERC721-ownerOf}."
      },
      "renounceRole(bytes32,address)": {
        "details": "Revokes `role` from the calling account. Roles are often managed via {grantRole} and {revokeRole}: this function's purpose is to provide a mechanism for accounts to lose their privileges if they are compromised (such as when a trusted device is misplaced). If the calling account had been revoked `role`, emits a {RoleRevoked} event. Requirements: - the caller must be `account`."
      },
      "revokeRole(bytes32,address)": {
        "details": "Revokes `role` from `account`. If `account` had been granted `role`, emits a {RoleRevoked} event. Requirements: - the caller must have ``role``'s admin role."
      },
      "safeTransferFrom(address,address,uint256)": {
        "details": "See {IERC721-safeTransferFrom}."
      },
      "safeTransferFrom(address,address,uint256,bytes)": {
        "details": "See {IERC721-safeTransferFrom}."
      },
      "setApprovalForAll(address,bool)": {
        "details": "See {IERC721-setApprovalForAll}."
      },
      "symbol()": {
        "details": "See {IERC721Metadata-symbol}."
      },
      "tokenURI(uint256)": {
        "details": "See {IERC721Metadata-tokenURI}."
      },
      "transferFrom(address,address,uint256)": {
        "details": "See {IERC721-transferFrom}."
      }
    },
    "version": 1
  },
  "userdoc": {
    "kind": "user",
    "methods": {},
    "version": 1
  }
}