{
  "contractName": "Request",
  "abi": [
    {
      "inputs": [
        {
          "internalType": "address",
          "name": "_departmentContractAddress",
          "type": "address"
        },
        {
          "internalType": "address",
          "name": "_rolesContractAddress",
          "type": "address"
        }
      ],
      "stateMutability": "nonpayable",
      "type": "constructor"
    },
    {
      "inputs": [
        {
          "internalType": "string",
          "name": "_diplomaLink",
          "type": "string"
        },
        {
          "internalType": "address",
          "name": "_graduatedAddress",
          "type": "address"
        }
      ],
      "name": "createDiplomaRequest",
      "outputs": [],
      "stateMutability": "nonpayable",
      "type": "function"
    },
    {
      "inputs": [
        {
          "components": [
            {
              "internalType": "address",
              "name": "studentAddress",
              "type": "address"
            },
            {
              "internalType": "string",
              "name": "diplomaLink",
              "type": "string"
            },
            {
              "internalType": "address",
              "name": "requestorDepartment",
              "type": "address"
            },
            {
              "internalType": "bool",
              "name": "atRector",
              "type": "bool"
            }
          ],
          "internalType": "struct Request.DiplomaRequest",
          "name": "diplomaRequest",
          "type": "tuple"
        }
      ],
      "name": "approveDiplomaRequest",
      "outputs": [],
      "stateMutability": "nonpayable",
      "type": "function"
    },
    {
      "inputs": [],
      "name": "disapproveDiplomaRequest",
      "outputs": [],
      "stateMutability": "nonpayable",
      "type": "function"
    },
    {
      "inputs": [],
      "name": "getDiplomaRequests",
      "outputs": [
        {
          "components": [
            {
              "internalType": "address",
              "name": "studentAddress",
              "type": "address"
            },
            {
              "internalType": "string",
              "name": "diplomaLink",
              "type": "string"
            },
            {
              "internalType": "address",
              "name": "requestorDepartment",
              "type": "address"
            },
            {
              "internalType": "bool",
              "name": "atRector",
              "type": "bool"
            }
          ],
          "internalType": "struct Request.DiplomaRequest[]",
          "name": "",
          "type": "tuple[]"
        }
      ],
      "stateMutability": "view",
      "type": "function"
    },
    {
      "inputs": [
        {
          "internalType": "string",
          "name": "_courseLink",
          "type": "string"
        },
        {
          "internalType": "address",
          "name": "_instructorAddress",
          "type": "address"
        }
      ],
      "name": "createCourseRequest",
      "outputs": [],
      "stateMutability": "nonpayable",
      "type": "function"
    },
    {
      "inputs": [
        {
          "components": [
            {
              "internalType": "address",
              "name": "instructorAddress",
              "type": "address"
            },
            {
              "internalType": "string",
              "name": "courseLink",
              "type": "string"
            },
            {
              "internalType": "address",
              "name": "requestorDepartment",
              "type": "address"
            },
            {
              "internalType": "bool",
              "name": "atRector",
              "type": "bool"
            }
          ],
          "internalType": "struct Request.CourseRequest",
          "name": "courseRequest",
          "type": "tuple"
        }
      ],
      "name": "approveCourseRequest",
      "outputs": [],
      "stateMutability": "nonpayable",
      "type": "function"
    },
    {
      "inputs": [
        {
          "components": [
            {
              "internalType": "address",
              "name": "instructorAddress",
              "type": "address"
            },
            {
              "internalType": "string",
              "name": "courseLink",
              "type": "string"
            },
            {
              "internalType": "address",
              "name": "requestorDepartment",
              "type": "address"
            },
            {
              "internalType": "bool",
              "name": "atRector",
              "type": "bool"
            }
          ],
          "internalType": "struct Request.CourseRequest",
          "name": "courseRequest",
          "type": "tuple"
        }
      ],
      "name": "disapproveCourseRequest",
      "outputs": [],
      "stateMutability": "nonpayable",
      "type": "function"
    },
    {
      "inputs": [],
      "name": "getCourseRequests",
      "outputs": [
        {
          "components": [
            {
              "internalType": "address",
              "name": "instructorAddress",
              "type": "address"
            },
            {
              "internalType": "string",
              "name": "courseLink",
              "type": "string"
            },
            {
              "internalType": "address",
              "name": "requestorDepartment",
              "type": "address"
            },
            {
              "internalType": "bool",
              "name": "atRector",
              "type": "bool"
            }
          ],
          "internalType": "struct Request.CourseRequest[]",
          "name": "",
          "type": "tuple[]"
        }
      ],
      "stateMutability": "view",
      "type": "function"
    }
  ],
  "bytecode": "0x60806040523480156200001157600080fd5b506040516200360b3803806200360b83398181016040528101906200003791906200012a565b816000806101000a81548173ffffffffffffffffffffffffffffffffffffffff021916908373ffffffffffffffffffffffffffffffffffffffff16021790555080600160006101000a81548173ffffffffffffffffffffffffffffffffffffffff021916908373ffffffffffffffffffffffffffffffffffffffff160217905550505062000171565b600080fd5b600073ffffffffffffffffffffffffffffffffffffffff82169050919050565b6000620000f282620000c5565b9050919050565b6200010481620000e5565b81146200011057600080fd5b50565b6000815190506200012481620000f9565b92915050565b60008060408385031215620001445762000143620000c0565b5b6000620001548582860162000113565b9250506020620001678582860162000113565b9150509250929050565b61348a80620001816000396000f3fe608060405234801561001057600080fd5b50600436106100875760003560e01c8063a16d7c8e1161005b578063a16d7c8e146100fe578063a31b86a414610108578063bd3905f514610126578063e7fbdc651461014257610087565b806287171a1461008c5780630a174e10146100aa5780634af47a7a146100c65780636c713cbf146100e2575b600080fd5b61009461015e565b6040516100a19190612392565b60405180910390f35b6100c460048036038101906100bf91906125f3565b610316565b005b6100e060048036038101906100db91906125f3565b6106e9565b005b6100fc60048036038101906100f7919061263c565b610cc9565b005b610106611304565b005b610110611306565b60405161011d91906127bd565b60405180910390f35b610140600480360381019061013b919061263c565b6114be565b005b61015c60048036038101906101579190612873565b611a14565b005b60606005805480602002602001604051908101604052809291908181526020016000905b8282101561030d57838290600052602060002090600302016040518060800160405290816000820160009054906101000a900473ffffffffffffffffffffffffffffffffffffffff1673ffffffffffffffffffffffffffffffffffffffff1673ffffffffffffffffffffffffffffffffffffffff16815260200160018201805461020b906128eb565b80601f0160208091040260200160405190810160405280929190818152602001828054610237906128eb565b80156102845780601f1061025957610100808354040283529160200191610284565b820191906000526020600020905b81548152906001019060200180831161026757829003601f168201915b505050505081526020016002820160009054906101000a900473ffffffffffffffffffffffffffffffffffffffff1673ffffffffffffffffffffffffffffffffffffffff1673ffffffffffffffffffffffffffffffffffffffff1681526020016002820160149054906101000a900460ff16151515158152505081526020019060010190610182565b50505050905090565b600160009054906101000a900473ffffffffffffffffffffffffffffffffffffffff1673ffffffffffffffffffffffffffffffffffffffff1663e78af7c5336040518263ffffffff1660e01b8152600401610371919061292c565b602060405180830381865afa15801561038e573d6000803e3d6000fd5b505050506040513d601f19601f820116820180604052508101906103b2919061295c565b6103f1576040517f08c379a00000000000000000000000000000000000000000000000000000000081526004016103e8906129e6565b60405180910390fd5b60001515816060015115151461043c576040517f08c379a000000000000000000000000000000000000000000000000000000000815260040161043390612a52565b60405180910390fd5b600681602001516040516104509190612aae565b908152602001604051809103902060009054906101000a900460ff166104ab576040517f08c379a00000000000000000000000000000000000000000000000000000000081526004016104a290612b11565b60405180910390fd5b60006104ba8260400151611e77565b9050600081116104ff576040517f08c379a00000000000000000000000000000000000000000000000000000000081526004016104f690612ba3565b60405180910390fd5b60008054906101000a900473ffffffffffffffffffffffffffffffffffffffff1673ffffffffffffffffffffffffffffffffffffffff16631fd76cfb826040518263ffffffff1660e01b81526004016105589190612bdc565b602060405180830381865afa158015610575573d6000803e3d6000fd5b505050506040513d601f19601f820116820180604052508101906105999190612c0c565b73ffffffffffffffffffffffffffffffffffffffff163373ffffffffffffffffffffffffffffffffffffffff1614610606576040517f08c379a00000000000000000000000000000000000000000000000000000000081526004016105fd90612cab565b60405180910390fd5b60005b6005805490508110156106e457826020015160405160200161062b9190612aae565b604051602081830303815290604052805190602001206005828154811061065557610654612ccb565b5b90600052602060002090600302016001016040516020016106769190612d8e565b6040516020818303038152906040528051906020012014156106d1576001600582815481106106a8576106a7612ccb565b5b906000526020600020906003020160020160146101000a81548160ff0219169083151502179055505b80806106dc90612dd4565b915050610609565b505050565b600160009054906101000a900473ffffffffffffffffffffffffffffffffffffffff1673ffffffffffffffffffffffffffffffffffffffff1663e78af7c5336040518263ffffffff1660e01b8152600401610744919061292c565b602060405180830381865afa158015610761573d6000803e3d6000fd5b505050506040513d601f19601f82011682018060405250810190610785919061295c565b6107c4576040517f08c379a00000000000000000000000000000000000000000000000000000000081526004016107bb906129e6565b60405180910390fd5b60001515816060015115151461080f576040517f08c379a000000000000000000000000000000000000000000000000000000000815260040161080690612a52565b60405180910390fd5b600681602001516040516108239190612aae565b908152602001604051809103902060009054906101000a900460ff1661087e576040517f08c379a000000000000000000000000000000000000000000000000000000000815260040161087590612b11565b60405180910390fd5b600061088d8260400151611e77565b9050600081116108d2576040517f08c379a00000000000000000000000000000000000000000000000000000000081526004016108c990612ba3565b60405180910390fd5b60008054906101000a900473ffffffffffffffffffffffffffffffffffffffff1673ffffffffffffffffffffffffffffffffffffffff16631fd76cfb826040518263ffffffff1660e01b815260040161092b9190612bdc565b602060405180830381865afa158015610948573d6000803e3d6000fd5b505050506040513d601f19601f8201168201806040525081019061096c9190612c0c565b73ffffffffffffffffffffffffffffffffffffffff163373ffffffffffffffffffffffffffffffffffffffff16146109d9576040517f08c379a00000000000000000000000000000000000000000000000000000000081526004016109d090612cab565b60405180910390fd5b60005b600580549050811015610c895782602001516040516020016109fe9190612aae565b6040516020818303038152906040528051906020012060058281548110610a2857610a27612ccb565b5b9060005260206000209060030201600101604051602001610a499190612d8e565b604051602081830303815290604052805190602001201415610c765760056001600580549050610a799190612e1d565b81548110610a8a57610a89612ccb565b5b906000526020600020906003020160058281548110610aac57610aab612ccb565b5b90600052602060002090600302016000820160009054906101000a900473ffffffffffffffffffffffffffffffffffffffff168160000160006101000a81548173ffffffffffffffffffffffffffffffffffffffff021916908373ffffffffffffffffffffffffffffffffffffffff1602179055506001820181600101908054610b35906128eb565b610b40929190612008565b506002820160009054906101000a900473ffffffffffffffffffffffffffffffffffffffff168160020160006101000a81548173ffffffffffffffffffffffffffffffffffffffff021916908373ffffffffffffffffffffffffffffffffffffffff1602179055506002820160149054906101000a900460ff168160020160146101000a81548160ff0219169083151502179055509050506005805480610bea57610be9612e51565b5b6001900381819060005260206000209060030201600080820160006101000a81549073ffffffffffffffffffffffffffffffffffffffff0219169055600182016000610c369190612095565b6002820160006101000a81549073ffffffffffffffffffffffffffffffffffffffff02191690556002820160146101000a81549060ff0219169055505090555b8080610c8190612dd4565b9150506109dc565b50600060068360200151604051610ca09190612aae565b908152602001604051809103902060006101000a81548160ff0219169083151502179055505050565b600160009054906101000a900473ffffffffffffffffffffffffffffffffffffffff1673ffffffffffffffffffffffffffffffffffffffff1663e17f6b2c336040518263ffffffff1660e01b8152600401610d24919061292c565b602060405180830381865afa158015610d41573d6000803e3d6000fd5b505050506040513d601f19601f82011682018060405250810190610d65919061295c565b610da4576040517f08c379a0000000000000000000000000000000000000000000000000000000008152600401610d9b90612ecc565b60405180910390fd5b600160009054906101000a900473ffffffffffffffffffffffffffffffffffffffff1673ffffffffffffffffffffffffffffffffffffffff1663fc3ba6b4826040518263ffffffff1660e01b8152600401610dff919061292c565b602060405180830381865afa158015610e1c573d6000803e3d6000fd5b505050506040513d601f19601f82011682018060405250810190610e40919061295c565b610e7f576040517f08c379a0000000000000000000000000000000000000000000000000000000008152600401610e7690612f5e565b60405180910390fd5b600382604051610e8f9190612aae565b908152602001604051809103902060009054906101000a900460ff1615610eeb576040517f08c379a0000000000000000000000000000000000000000000000000000000008152600401610ee290612ff0565b60405180910390fd5b600460008273ffffffffffffffffffffffffffffffffffffffff1673ffffffffffffffffffffffffffffffffffffffff16815260200190815260200160002060009054906101000a900460ff1615610f78576040517f08c379a0000000000000000000000000000000000000000000000000000000008152600401610f6f90613082565b60405180910390fd5b6000610f8333611e77565b905060008111610fc8576040517f08c379a0000000000000000000000000000000000000000000000000000000008152600401610fbf90612ba3565b60405180910390fd5b60008060009054906101000a900473ffffffffffffffffffffffffffffffffffffffff1673ffffffffffffffffffffffffffffffffffffffff166375c2f8f0836040518263ffffffff1660e01b81526004016110249190612bdc565b600060405180830381865afa158015611041573d6000803e3d6000fd5b505050506040513d6000823e3d601f19601f8201168201806040525081019061106a919061316a565b90506000805b82518110156110df578473ffffffffffffffffffffffffffffffffffffffff168382815181106110a3576110a2612ccb565b5b602002602001015173ffffffffffffffffffffffffffffffffffffffff1614156110cc57600191505b80806110d790612dd4565b915050611070565b5080611120576040517f08c379a000000000000000000000000000000000000000000000000000000000815260040161111790613225565b60405180910390fd5b600060405180608001604052808673ffffffffffffffffffffffffffffffffffffffff1681526020018781526020013373ffffffffffffffffffffffffffffffffffffffff168152602001600015158152509050600281908060018154018082558091505060019003906000526020600020906003020160009091909190915060008201518160000160006101000a81548173ffffffffffffffffffffffffffffffffffffffff021916908373ffffffffffffffffffffffffffffffffffffffff16021790555060208201518160010190805190602001906112039291906120d5565b5060408201518160020160006101000a81548173ffffffffffffffffffffffffffffffffffffffff021916908373ffffffffffffffffffffffffffffffffffffffff16021790555060608201518160020160146101000a81548160ff0219169083151502179055505050600160038760405161127f9190612aae565b908152602001604051809103902060006101000a81548160ff0219169083151502179055506001600460008773ffffffffffffffffffffffffffffffffffffffff1673ffffffffffffffffffffffffffffffffffffffff16815260200190815260200160002060006101000a81548160ff021916908315150217905550505050505050565b565b60606002805480602002602001604051908101604052809291908181526020016000905b828210156114b557838290600052602060002090600302016040518060800160405290816000820160009054906101000a900473ffffffffffffffffffffffffffffffffffffffff1673ffffffffffffffffffffffffffffffffffffffff1673ffffffffffffffffffffffffffffffffffffffff1681526020016001820180546113b3906128eb565b80601f01602080910402602001604051908101604052809291908181526020018280546113df906128eb565b801561142c5780601f106114015761010080835404028352916020019161142c565b820191906000526020600020905b81548152906001019060200180831161140f57829003601f168201915b505050505081526020016002820160009054906101000a900473ffffffffffffffffffffffffffffffffffffffff1673ffffffffffffffffffffffffffffffffffffffff1673ffffffffffffffffffffffffffffffffffffffff1681526020016002820160149054906101000a900460ff1615151515815250508152602001906001019061132a565b50505050905090565b600160009054906101000a900473ffffffffffffffffffffffffffffffffffffffff1673ffffffffffffffffffffffffffffffffffffffff1663e17f6b2c336040518263ffffffff1660e01b8152600401611519919061292c565b602060405180830381865afa158015611536573d6000803e3d6000fd5b505050506040513d601f19601f8201168201806040525081019061155a919061295c565b611599576040517f08c379a000000000000000000000000000000000000000000000000000000000815260040161159090612ecc565b60405180910390fd5b600160009054906101000a900473ffffffffffffffffffffffffffffffffffffffff1673ffffffffffffffffffffffffffffffffffffffff16639822a599826040518263ffffffff1660e01b81526004016115f4919061292c565b602060405180830381865afa158015611611573d6000803e3d6000fd5b505050506040513d601f19601f82011682018060405250810190611635919061295c565b611674576040517f08c379a000000000000000000000000000000000000000000000000000000000815260040161166b906132b7565b60405180910390fd5b6006826040516116849190612aae565b908152602001604051809103902060009054906101000a900460ff16156116e0576040517f08c379a00000000000000000000000000000000000000000000000000000000081526004016116d790612ff0565b60405180910390fd5b60006116eb33611e77565b905060008111611730576040517f08c379a000000000000000000000000000000000000000000000000000000000815260040161172790612ba3565b60405180910390fd5b60008060009054906101000a900473ffffffffffffffffffffffffffffffffffffffff1673ffffffffffffffffffffffffffffffffffffffff166347519ab7836040518263ffffffff1660e01b815260040161178c9190612bdc565b600060405180830381865afa1580156117a9573d6000803e3d6000fd5b505050506040513d6000823e3d601f19601f820116820180604052508101906117d2919061316a565b90506000805b8251811015611847578473ffffffffffffffffffffffffffffffffffffffff1683828151811061180b5761180a612ccb565b5b602002602001015173ffffffffffffffffffffffffffffffffffffffff16141561183457600191505b808061183f90612dd4565b9150506117d8565b5080611888576040517f08c379a000000000000000000000000000000000000000000000000000000000815260040161187f90613349565b60405180910390fd5b600060405180608001604052808673ffffffffffffffffffffffffffffffffffffffff1681526020018781526020013373ffffffffffffffffffffffffffffffffffffffff168152602001600015158152509050600581908060018154018082558091505060019003906000526020600020906003020160009091909190915060008201518160000160006101000a81548173ffffffffffffffffffffffffffffffffffffffff021916908373ffffffffffffffffffffffffffffffffffffffff160217905550602082015181600101908051906020019061196b9291906120d5565b5060408201518160020160006101000a81548173ffffffffffffffffffffffffffffffffffffffff021916908373ffffffffffffffffffffffffffffffffffffffff16021790555060608201518160020160146101000a81548160ff021916908315150217905550505060016006876040516119e79190612aae565b908152602001604051809103902060006101000a81548160ff021916908315150217905550505050505050565b600160009054906101000a900473ffffffffffffffffffffffffffffffffffffffff1673ffffffffffffffffffffffffffffffffffffffff1663e78af7c5336040518263ffffffff1660e01b8152600401611a6f919061292c565b602060405180830381865afa158015611a8c573d6000803e3d6000fd5b505050506040513d601f19601f82011682018060405250810190611ab0919061295c565b611aef576040517f08c379a0000000000000000000000000000000000000000000000000000000008152600401611ae6906129e6565b60405180910390fd5b600015158160600151151514611b3a576040517f08c379a0000000000000000000000000000000000000000000000000000000008152600401611b3190612a52565b60405180910390fd5b60038160200151604051611b4e9190612aae565b908152602001604051809103902060009054906101000a900460ff16611ba9576040517f08c379a0000000000000000000000000000000000000000000000000000000008152600401611ba090612b11565b60405180910390fd5b60046000826000015173ffffffffffffffffffffffffffffffffffffffff1673ffffffffffffffffffffffffffffffffffffffff16815260200190815260200160002060009054906101000a900460ff16611c39576040517f08c379a0000000000000000000000000000000000000000000000000000000008152600401611c30906133db565b60405180910390fd5b6000611c488260400151611e77565b905060008111611c8d576040517f08c379a0000000000000000000000000000000000000000000000000000000008152600401611c8490612ba3565b60405180910390fd5b60008054906101000a900473ffffffffffffffffffffffffffffffffffffffff1673ffffffffffffffffffffffffffffffffffffffff16631fd76cfb826040518263ffffffff1660e01b8152600401611ce69190612bdc565b602060405180830381865afa158015611d03573d6000803e3d6000fd5b505050506040513d601f19601f82011682018060405250810190611d279190612c0c565b73ffffffffffffffffffffffffffffffffffffffff163373ffffffffffffffffffffffffffffffffffffffff1614611d94576040517f08c379a0000000000000000000000000000000000000000000000000000000008152600401611d8b90612cab565b60405180910390fd5b60005b600280549050811015611e72578260200151604051602001611db99190612aae565b6040516020818303038152906040528051906020012060028281548110611de357611de2612ccb565b5b9060005260206000209060030201600101604051602001611e049190612d8e565b604051602081830303815290604052805190602001201415611e5f57600160028281548110611e3657611e35612ccb565b5b906000526020600020906003020160020160146101000a81548160ff0219169083151502179055505b8080611e6a90612dd4565b915050611d97565b505050565b600080600190505b60008054906101000a900473ffffffffffffffffffffffffffffffffffffffff1673ffffffffffffffffffffffffffffffffffffffff1663c4e41b226040518163ffffffff1660e01b8152600401602060405180830381865afa158015611eea573d6000803e3d6000fd5b505050506040513d601f19601f82011682018060405250810190611f0e9190613427565b8111611ffd578273ffffffffffffffffffffffffffffffffffffffff1660008054906101000a900473ffffffffffffffffffffffffffffffffffffffff1673ffffffffffffffffffffffffffffffffffffffff16636352211e836040518263ffffffff1660e01b8152600401611f849190612bdc565b602060405180830381865afa158015611fa1573d6000803e3d6000fd5b505050506040513d601f19601f82011682018060405250810190611fc59190612c0c565b73ffffffffffffffffffffffffffffffffffffffff161415611fea5780915050612003565b8080611ff590612dd4565b915050611e7f565b50600090505b919050565b828054612014906128eb565b90600052602060002090601f0160209004810192826120365760008555612084565b82601f106120475780548555612084565b8280016001018555821561208457600052602060002091601f016020900482015b82811115612083578254825591600101919060010190612068565b5b509050612091919061215b565b5090565b5080546120a1906128eb565b6000825580601f106120b357506120d2565b601f0160209004906000526020600020908101906120d1919061215b565b5b50565b8280546120e1906128eb565b90600052602060002090601f016020900481019282612103576000855561214a565b82601f1061211c57805160ff191683800117855561214a565b8280016001018555821561214a579182015b8281111561214957825182559160200191906001019061212e565b5b509050612157919061215b565b5090565b5b8082111561217457600081600090555060010161215c565b5090565b600081519050919050565b600082825260208201905092915050565b6000819050602082019050919050565b600073ffffffffffffffffffffffffffffffffffffffff82169050919050565b60006121cf826121a4565b9050919050565b6121df816121c4565b82525050565b600081519050919050565b600082825260208201905092915050565b60005b8381101561221f578082015181840152602081019050612204565b8381111561222e576000848401525b50505050565b6000601f19601f8301169050919050565b6000612250826121e5565b61225a81856121f0565b935061226a818560208601612201565b61227381612234565b840191505092915050565b60008115159050919050565b6122938161227e565b82525050565b60006080830160008301516122b160008601826121d6565b50602083015184820360208601526122c98282612245565b91505060408301516122de60408601826121d6565b5060608301516122f1606086018261228a565b508091505092915050565b60006123088383612299565b905092915050565b6000602082019050919050565b600061232882612178565b6123328185612183565b93508360208202850161234485612194565b8060005b85811015612380578484038952815161236185826122fc565b945061236c83612310565b925060208a01995050600181019050612348565b50829750879550505050505092915050565b600060208201905081810360008301526123ac818461231d565b905092915050565b6000604051905090565b600080fd5b600080fd5b600080fd5b7f4e487b7100000000000000000000000000000000000000000000000000000000600052604160045260246000fd5b61240582612234565b810181811067ffffffffffffffff82111715612424576124236123cd565b5b80604052505050565b60006124376123b4565b905061244382826123fc565b919050565b600080fd5b612456816121c4565b811461246157600080fd5b50565b6000813590506124738161244d565b92915050565b600080fd5b600080fd5b600067ffffffffffffffff82111561249e5761249d6123cd565b5b6124a782612234565b9050602081019050919050565b82818337600083830152505050565b60006124d66124d184612483565b61242d565b9050828152602081018484840111156124f2576124f161247e565b5b6124fd8482856124b4565b509392505050565b600082601f83011261251a57612519612479565b5b813561252a8482602086016124c3565b91505092915050565b61253c8161227e565b811461254757600080fd5b50565b60008135905061255981612533565b92915050565b600060808284031215612575576125746123c8565b5b61257f608061242d565b9050600061258f84828501612464565b600083015250602082013567ffffffffffffffff8111156125b3576125b2612448565b5b6125bf84828501612505565b60208301525060406125d384828501612464565b60408301525060606125e78482850161254a565b60608301525092915050565b600060208284031215612609576126086123be565b5b600082013567ffffffffffffffff811115612627576126266123c3565b5b6126338482850161255f565b91505092915050565b60008060408385031215612653576126526123be565b5b600083013567ffffffffffffffff811115612671576126706123c3565b5b61267d85828601612505565b925050602061268e85828601612464565b9150509250929050565b600081519050919050565b600082825260208201905092915050565b6000819050602082019050919050565b60006080830160008301516126dc60008601826121d6565b50602083015184820360208601526126f48282612245565b915050604083015161270960408601826121d6565b50606083015161271c606086018261228a565b508091505092915050565b600061273383836126c4565b905092915050565b6000602082019050919050565b600061275382612698565b61275d81856126a3565b93508360208202850161276f856126b4565b8060005b858110156127ab578484038952815161278c8582612727565b94506127978361273b565b925060208a01995050600181019050612773565b50829750879550505050505092915050565b600060208201905081810360008301526127d78184612748565b905092915050565b6000608082840312156127f5576127f46123c8565b5b6127ff608061242d565b9050600061280f84828501612464565b600083015250602082013567ffffffffffffffff81111561283357612832612448565b5b61283f84828501612505565b602083015250604061285384828501612464565b60408301525060606128678482850161254a565b60608301525092915050565b600060208284031215612889576128886123be565b5b600082013567ffffffffffffffff8111156128a7576128a66123c3565b5b6128b3848285016127df565b91505092915050565b7f4e487b7100000000000000000000000000000000000000000000000000000000600052602260045260246000fd5b6000600282049050600182168061290357607f821691505b60208210811415612917576129166128bc565b5b50919050565b612926816121c4565b82525050565b6000602082019050612941600083018461291d565b92915050565b60008151905061295681612533565b92915050565b600060208284031215612972576129716123be565b5b600061298084828501612947565b91505092915050565b600082825260208201905092915050565b7f546869732061646472657373206973206e6f74206120466163756c7479000000600082015250565b60006129d0601d83612989565b91506129db8261299a565b602082019050919050565b600060208201905081810360008301526129ff816129c3565b9050919050565b7f54686973207265717565737420697320617070726f76656420616c7265616479600082015250565b6000612a3c602083612989565b9150612a4782612a06565b602082019050919050565b60006020820190508181036000830152612a6b81612a2f565b9050919050565b600081905092915050565b6000612a88826121e5565b612a928185612a72565b9350612aa2818560208601612201565b80840191505092915050565b6000612aba8284612a7d565b915081905092915050565b7f54686973206c696e6b206973206e6f7420726571756573746564000000000000600082015250565b6000612afb601a83612989565b9150612b0682612ac5565b602082019050919050565b60006020820190508181036000830152612b2a81612aee565b9050919050565b7f526571756573746f72204465706172746d656e742063616e6e6f7420666f756e60008201527f6400000000000000000000000000000000000000000000000000000000000000602082015250565b6000612b8d602183612989565b9150612b9882612b31565b604082019050919050565b60006020820190508181036000830152612bbc81612b80565b9050919050565b6000819050919050565b612bd681612bc3565b82525050565b6000602082019050612bf16000830184612bcd565b92915050565b600081519050612c068161244d565b92915050565b600060208284031215612c2257612c216123be565b5b6000612c3084828501612bf7565b91505092915050565b7f5468697320466163756c7479206973206e6f742074686520666163756c74792060008201527f6f662074686520726571756573746f7200000000000000000000000000000000602082015250565b6000612c95603083612989565b9150612ca082612c39565b604082019050919050565b60006020820190508181036000830152612cc481612c88565b9050919050565b7f4e487b7100000000000000000000000000000000000000000000000000000000600052603260045260246000fd5b60008190508160005260206000209050919050565b60008154612d1c816128eb565b612d268186612a72565b94506001821660008114612d415760018114612d5257612d85565b60ff19831686528186019350612d85565b612d5b85612cfa565b60005b83811015612d7d57815481890152600182019150602081019050612d5e565b838801955050505b50505092915050565b6000612d9a8284612d0f565b915081905092915050565b7f4e487b7100000000000000000000000000000000000000000000000000000000600052601160045260246000fd5b6000612ddf82612bc3565b91507fffffffffffffffffffffffffffffffffffffffffffffffffffffffffffffffff821415612e1257612e11612da5565b5b600182019050919050565b6000612e2882612bc3565b9150612e3383612bc3565b925082821015612e4657612e45612da5565b5b828203905092915050565b7f4e487b7100000000000000000000000000000000000000000000000000000000600052603160045260246000fd5b7f546869732061646472657373206973206e6f74206465706172746d656e740000600082015250565b6000612eb6601e83612989565b9150612ec182612e80565b602082019050919050565b60006020820190508181036000830152612ee581612ea9565b9050919050565b7f546869732061646472657373206973206e6f7420696e2053545544454e545f5260008201527f4f4c450000000000000000000000000000000000000000000000000000000000602082015250565b6000612f48602383612989565b9150612f5382612eec565b604082019050919050565b60006020820190508181036000830152612f7781612f3b565b9050919050565b7f54686973206c696e6b20697320616c726561647920726571756573746564206260008201527f65666f7265000000000000000000000000000000000000000000000000000000602082015250565b6000612fda602583612989565b9150612fe582612f7e565b604082019050919050565b6000602082019050818103600083015261300981612fcd565b9050919050565b7f546869732073747564656e742773206469706c6f6d6120697320616c7265616460008201527f7920726571756573746564206265666f72650000000000000000000000000000602082015250565b600061306c603283612989565b915061307782613010565b604082019050919050565b6000602082019050818103600083015261309b8161305f565b9050919050565b600067ffffffffffffffff8211156130bd576130bc6123cd565b5b602082029050602081019050919050565b600080fd5b60006130e66130e1846130a2565b61242d565b90508083825260208201905060208402830185811115613109576131086130ce565b5b835b81811015613132578061311e8882612bf7565b84526020840193505060208101905061310b565b5050509392505050565b600082601f83011261315157613150612479565b5b81516131618482602086016130d3565b91505092915050565b6000602082840312156131805761317f6123be565b5b600082015167ffffffffffffffff81111561319e5761319d6123c3565b5b6131aa8482850161313c565b91505092915050565b7f546869732061646472657373206973206e6f74206f6e65206f6620746865207360008201527f747564656e7473206f662074686973206465706172746d656e74000000000000602082015250565b600061320f603a83612989565b915061321a826131b3565b604082019050919050565b6000602082019050818103600083015261323e81613202565b9050919050565b7f546869732061646472657373206973206e6f7420696e20494e5354525543544f60008201527f525f524f4c450000000000000000000000000000000000000000000000000000602082015250565b60006132a1602683612989565b91506132ac82613245565b604082019050919050565b600060208201905081810360008301526132d081613294565b9050919050565b7f546869732061646472657373206973206e6f74206f6e65206f6620746865206960008201527f6e7374727563746f72206f662074686973206465706172746d656e7400000000602082015250565b6000613333603c83612989565b915061333e826132d7565b604082019050919050565b6000602082019050818103600083015261336281613326565b9050919050565b7f546869732073747564656e742773206469706c6f6d61206973206e6f7420726560008201527f7175657374656400000000000000000000000000000000000000000000000000602082015250565b60006133c5602783612989565b91506133d082613369565b604082019050919050565b600060208201905081810360008301526133f4816133b8565b9050919050565b61340481612bc3565b811461340f57600080fd5b50565b600081519050613421816133fb565b92915050565b60006020828403121561343d5761343c6123be565b5b600061344b84828501613412565b9150509291505056fea264697066735822122086319f1955c05789ebac1077b5a270e4eb2e649c185bbe5387024178ceb2965964736f6c634300080a0033",
  "immutableReferences": {},
  "source": "pragma solidity ^0.8.10;\r\n\r\nimport \"./Department.sol\";\r\nimport \"./Roles.sol\";\r\n\r\ncontract Request {\r\n\r\n    address departmentContractAddress;\r\n    address rolesContractAddress;\r\n\r\n    /////////////////////////////////////////////// DIPLOMA ////////////////////////////////////////////////////////////////\r\n    struct DiplomaRequest {\r\n        address studentAddress;\r\n        string diplomaLink;\r\n        address requestorDepartment;\r\n        bool atRector;\r\n    }\r\n    //DiplomaRequest list\r\n    DiplomaRequest[] _diplomaRequests;\r\n    //is Diploma link in _diplomaRequests exist\r\n    mapping(string => bool) _linkDiplomaExist;\r\n    //is Diploma student in _diplomaRequests exist\r\n    mapping(address => bool) _studentRequestExist;\r\n\r\n    constructor(address _departmentContractAddress, address _rolesContractAddress){\r\n        departmentContractAddress = _departmentContractAddress;\r\n        rolesContractAddress = _rolesContractAddress;\r\n    }\r\n\r\n    function createDiplomaRequest(string memory _diplomaLink, address _graduatedAddress) public {\r\n        //Requirements\r\n        require(Roles(rolesContractAddress).hasDepartmentRole(msg.sender), \"This address is not department\");\r\n        require(Roles(rolesContractAddress).hasStudentRole(_graduatedAddress), \"This address is not in STUDENT_ROLE\");\r\n        require(!_linkDiplomaExist[_diplomaLink], \"This link is already requested before\");\r\n        require(!_studentRequestExist[_graduatedAddress], \"This student's diploma is already requested before\");\r\n        uint256 departmentID = getDepartmentID(msg.sender);\r\n        require(departmentID > 0, \"Requestor Department cannot found\");\r\n        address[] memory students = Department(departmentContractAddress).getStudents(departmentID);\r\n        bool studentExist = false;\r\n        for (uint i = 0; i < students.length; i++) {\r\n            if (students[i] == _graduatedAddress) {\r\n                studentExist = true;\r\n            }\r\n        }\r\n        require(studentExist, \"This address is not one of the students of this department\");\r\n        DiplomaRequest memory request = DiplomaRequest(_graduatedAddress, _diplomaLink, msg.sender, false);\r\n        _diplomaRequests.push(request);\r\n        _linkDiplomaExist[_diplomaLink] = true;\r\n        _studentRequestExist[_graduatedAddress] = true;\r\n    }\r\n\r\n    function approveDiplomaRequest(DiplomaRequest memory diplomaRequest) public {\r\n        //Requirements\r\n        require(Roles(rolesContractAddress).hasFacultyRole(msg.sender), \"This address is not a Faculty\");\r\n        require(diplomaRequest.atRector == false, \"This request is approved already\");\r\n        require(_linkDiplomaExist[diplomaRequest.diplomaLink], \"This link is not requested\");\r\n        require(_studentRequestExist[diplomaRequest.studentAddress], \"This student's diploma is not requested\");\r\n\r\n        uint256 departmentID = getDepartmentID(diplomaRequest.requestorDepartment);\r\n        require(departmentID > 0, \"Requestor Department cannot found\");\r\n        require(msg.sender == Department(departmentContractAddress).getFaculty(departmentID), \"This Faculty is not the faculty of the requestor\");\r\n\r\n        //Approval\r\n        for (uint256 i = 0; i < _diplomaRequests.length; i++) {\r\n            if (keccak256(abi.encodePacked(_diplomaRequests[i].diplomaLink)) == keccak256(abi.encodePacked(diplomaRequest.diplomaLink))) {\r\n                _diplomaRequests[i].atRector = true;\r\n            }\r\n        }\r\n    }\r\n\r\n    function disapproveDiplomaRequest() public {\r\n        //        require(Roles(rolesContractAddress).hasFacultyRole(msg.sender), \"This address is not a Faculty\");\r\n    }\r\n\r\n    function getDiplomaRequests() public view returns (DiplomaRequest[] memory){\r\n        return _diplomaRequests;\r\n    }\r\n\r\n    ////////////////////////////////////////////////////////////////////////////////////////////////////////////////////////\r\n    /////////////////////////////////////////////// COURSE /////////////////////////////////////////////////////////////////\r\n    struct CourseRequest {\r\n        address instructorAddress;\r\n        string courseLink;\r\n        address requestorDepartment;\r\n        bool atRector;\r\n    }\r\n    //CourseRequest list\r\n    CourseRequest[] _courseRequests;\r\n    //is Diploma link in _courseRequests exist\r\n    mapping(string => bool) _linkCourseExist;\r\n\r\n    function createCourseRequest(string memory _courseLink, address _instructorAddress) public {\r\n        //Requirements\r\n        require(Roles(rolesContractAddress).hasDepartmentRole(msg.sender), \"This address is not department\");\r\n        require(Roles(rolesContractAddress).hasInstructorRole(_instructorAddress), \"This address is not in INSTRUCTOR_ROLE\");\r\n        require(!_linkCourseExist[_courseLink], \"This link is already requested before\");\r\n        uint256 departmentID = getDepartmentID(msg.sender);\r\n        require(departmentID > 0, \"Requestor Department cannot found\");\r\n        address[] memory instructors = Department(departmentContractAddress).getInstructors(departmentID);\r\n        bool instructorExist = false;\r\n        for (uint i = 0; i < instructors.length; i++) {\r\n            if (instructors[i] == _instructorAddress) {\r\n                instructorExist = true;\r\n            }\r\n        }\r\n        require(instructorExist, \"This address is not one of the instructor of this department\");\r\n        CourseRequest memory request = CourseRequest(_instructorAddress, _courseLink, msg.sender, false);\r\n        _courseRequests.push(request);\r\n        _linkCourseExist[_courseLink] = true;\r\n    }\r\n\r\n    function approveCourseRequest(CourseRequest memory courseRequest) public {\r\n        //Requirements\r\n        require(Roles(rolesContractAddress).hasFacultyRole(msg.sender), \"This address is not a Faculty\");\r\n        require(courseRequest.atRector == false, \"This request is approved already\");\r\n        require(_linkCourseExist[courseRequest.courseLink], \"This link is not requested\");\r\n        uint256 departmentID = getDepartmentID(courseRequest.requestorDepartment);\r\n        require(departmentID > 0, \"Requestor Department cannot found\");\r\n        require(msg.sender == Department(departmentContractAddress).getFaculty(departmentID), \"This Faculty is not the faculty of the requestor\");\r\n        //Approval\r\n        for (uint256 i = 0; i < _courseRequests.length; i++) {\r\n            if (keccak256(abi.encodePacked(_courseRequests[i].courseLink)) == keccak256(abi.encodePacked(courseRequest.courseLink))) {\r\n                _courseRequests[i].atRector = true;\r\n            }\r\n        }\r\n    }\r\n\r\n    function disapproveCourseRequest(CourseRequest memory courseRequest) public {\r\n        require(Roles(rolesContractAddress).hasFacultyRole(msg.sender), \"This address is not a Faculty\");\r\n        require(courseRequest.atRector == false, \"This request is approved already\");\r\n        require(_linkCourseExist[courseRequest.courseLink], \"This link is not requested\");\r\n        uint256 departmentID = getDepartmentID(courseRequest.requestorDepartment);\r\n        require(departmentID > 0, \"Requestor Department cannot found\");\r\n        require(msg.sender == Department(departmentContractAddress).getFaculty(departmentID), \"This Faculty is not the faculty of the requestor\");\r\n\r\n        for (uint256 i = 0; i < _courseRequests.length; i++) {\r\n            if (keccak256(abi.encodePacked(_courseRequests[i].courseLink)) == keccak256(abi.encodePacked(courseRequest.courseLink))) {\r\n                _courseRequests[i] = _courseRequests[_courseRequests.length-1];\r\n                _courseRequests.pop();\r\n            }\r\n        }\r\n        _linkCourseExist[courseRequest.courseLink] = false;\r\n    }\r\n\r\n    function getCourseRequests() public view returns (CourseRequest[] memory){\r\n        return _courseRequests;\r\n    }\r\n    ////////////////////////////////////////////////////////////////////////////////////////////////////////////////////////\r\n    function getDepartmentID(address departmentAddress) private returns (uint256){\r\n        for (uint256 i = 1; i <= Department(departmentContractAddress).getTotalSupply(); i++) {\r\n            if (Department(departmentContractAddress).ownerOf(i) == departmentAddress) {\r\n                return i;\r\n            }\r\n        }\r\n        return 0;\r\n    }\r\n\r\n}\r\n",
  "sourcePath": "C:\\Users\\asus\\Desktop\\Dersler\\CMPE492\\certification-project\\contracts\\Request.sol",
  "compiler": {
    "name": "solc",
    "version": "0.8.10+commit.fc410830.Emscripten.clang"
  },
  "schemaVersion": "3.4.4",
  "updatedAt": "2022-01-20T00:24:07.001Z",
  "devdoc": {
    "kind": "dev",
    "methods": {},
    "version": 1
  },
  "userdoc": {
    "kind": "user",
    "methods": {},
    "version": 1
  }
}