{
  "contractName": "Request",
  "abi": [
    {
      "inputs": [
        {
          "internalType": "address",
          "name": "_departmentContractAddress",
          "type": "address"
        },
        {
          "internalType": "address",
          "name": "_rolesContractAddress",
          "type": "address"
        }
      ],
      "stateMutability": "nonpayable",
      "type": "constructor"
    },
    {
      "inputs": [
        {
          "internalType": "string",
          "name": "_diplomaLink",
          "type": "string"
        },
        {
          "internalType": "address",
          "name": "_graduatedAddress",
          "type": "address"
        }
      ],
      "name": "createDiplomaRequest",
      "outputs": [],
      "stateMutability": "nonpayable",
      "type": "function"
    },
    {
      "inputs": [
        {
          "components": [
            {
              "internalType": "address",
              "name": "studentAddress",
              "type": "address"
            },
            {
              "internalType": "string",
              "name": "diplomaLink",
              "type": "string"
            },
            {
              "internalType": "address",
              "name": "requestorDepartment",
              "type": "address"
            },
            {
              "internalType": "bool",
              "name": "atRector",
              "type": "bool"
            },
            {
              "internalType": "bool",
              "name": "minted",
              "type": "bool"
            }
          ],
          "internalType": "struct Request.DiplomaRequest",
          "name": "diplomaRequest",
          "type": "tuple"
        }
      ],
      "name": "approveDiplomaRequest",
      "outputs": [],
      "stateMutability": "nonpayable",
      "type": "function"
    },
    {
      "inputs": [
        {
          "internalType": "string",
          "name": "_link",
          "type": "string"
        },
        {
          "internalType": "address",
          "name": "_address",
          "type": "address"
        }
      ],
      "name": "diplomaMinted",
      "outputs": [],
      "stateMutability": "nonpayable",
      "type": "function"
    },
    {
      "inputs": [
        {
          "components": [
            {
              "internalType": "address",
              "name": "studentAddress",
              "type": "address"
            },
            {
              "internalType": "string",
              "name": "diplomaLink",
              "type": "string"
            },
            {
              "internalType": "address",
              "name": "requestorDepartment",
              "type": "address"
            },
            {
              "internalType": "bool",
              "name": "atRector",
              "type": "bool"
            },
            {
              "internalType": "bool",
              "name": "minted",
              "type": "bool"
            }
          ],
          "internalType": "struct Request.DiplomaRequest",
          "name": "diplomaRequest",
          "type": "tuple"
        }
      ],
      "name": "disapproveDiplomaRequest",
      "outputs": [],
      "stateMutability": "nonpayable",
      "type": "function"
    },
    {
      "inputs": [],
      "name": "getDiplomaRequests",
      "outputs": [
        {
          "components": [
            {
              "internalType": "address",
              "name": "studentAddress",
              "type": "address"
            },
            {
              "internalType": "string",
              "name": "diplomaLink",
              "type": "string"
            },
            {
              "internalType": "address",
              "name": "requestorDepartment",
              "type": "address"
            },
            {
              "internalType": "bool",
              "name": "atRector",
              "type": "bool"
            },
            {
              "internalType": "bool",
              "name": "minted",
              "type": "bool"
            }
          ],
          "internalType": "struct Request.DiplomaRequest[]",
          "name": "",
          "type": "tuple[]"
        }
      ],
      "stateMutability": "view",
      "type": "function"
    },
    {
      "inputs": [
        {
          "internalType": "string",
          "name": "_courseLink",
          "type": "string"
        },
        {
          "internalType": "address",
          "name": "_instructorAddress",
          "type": "address"
        }
      ],
      "name": "createCourseRequest",
      "outputs": [],
      "stateMutability": "nonpayable",
      "type": "function"
    },
    {
      "inputs": [
        {
          "components": [
            {
              "internalType": "address",
              "name": "instructorAddress",
              "type": "address"
            },
            {
              "internalType": "string",
              "name": "courseLink",
              "type": "string"
            },
            {
              "internalType": "address",
              "name": "requestorDepartment",
              "type": "address"
            },
            {
              "internalType": "bool",
              "name": "atRector",
              "type": "bool"
            },
            {
              "internalType": "bool",
              "name": "minted",
              "type": "bool"
            }
          ],
          "internalType": "struct Request.CourseRequest",
          "name": "courseRequest",
          "type": "tuple"
        }
      ],
      "name": "approveCourseRequest",
      "outputs": [],
      "stateMutability": "nonpayable",
      "type": "function"
    },
    {
      "inputs": [
        {
          "internalType": "string",
          "name": "_link",
          "type": "string"
        }
      ],
      "name": "courseMinted",
      "outputs": [],
      "stateMutability": "nonpayable",
      "type": "function"
    },
    {
      "inputs": [
        {
          "components": [
            {
              "internalType": "address",
              "name": "instructorAddress",
              "type": "address"
            },
            {
              "internalType": "string",
              "name": "courseLink",
              "type": "string"
            },
            {
              "internalType": "address",
              "name": "requestorDepartment",
              "type": "address"
            },
            {
              "internalType": "bool",
              "name": "atRector",
              "type": "bool"
            },
            {
              "internalType": "bool",
              "name": "minted",
              "type": "bool"
            }
          ],
          "internalType": "struct Request.CourseRequest",
          "name": "courseRequest",
          "type": "tuple"
        }
      ],
      "name": "disapproveCourseRequest",
      "outputs": [],
      "stateMutability": "nonpayable",
      "type": "function"
    },
    {
      "inputs": [],
      "name": "getCourseRequests",
      "outputs": [
        {
          "components": [
            {
              "internalType": "address",
              "name": "instructorAddress",
              "type": "address"
            },
            {
              "internalType": "string",
              "name": "courseLink",
              "type": "string"
            },
            {
              "internalType": "address",
              "name": "requestorDepartment",
              "type": "address"
            },
            {
              "internalType": "bool",
              "name": "atRector",
              "type": "bool"
            },
            {
              "internalType": "bool",
              "name": "minted",
              "type": "bool"
            }
          ],
          "internalType": "struct Request.CourseRequest[]",
          "name": "",
          "type": "tuple[]"
        }
      ],
      "stateMutability": "view",
      "type": "function"
    }
  ],
  "bytecode": "0x60806040523480156200001157600080fd5b50604051620048bb380380620048bb83398181016040528101906200003791906200012a565b816000806101000a81548173ffffffffffffffffffffffffffffffffffffffff021916908373ffffffffffffffffffffffffffffffffffffffff16021790555080600160006101000a81548173ffffffffffffffffffffffffffffffffffffffff021916908373ffffffffffffffffffffffffffffffffffffffff160217905550505062000171565b600080fd5b600073ffffffffffffffffffffffffffffffffffffffff82169050919050565b6000620000f282620000c5565b9050919050565b6200010481620000e5565b81146200011057600080fd5b50565b6000815190506200012481620000f9565b92915050565b60008060408385031215620001445762000143620000c0565b5b6000620001548582860162000113565b9250506020620001678582860162000113565b9150509250929050565b61473a80620001816000396000f3fe608060405234801561001057600080fd5b506004361061009d5760003560e01c8063a31b86a411610066578063a31b86a414610130578063b8334b171461014e578063bd3905f51461016a578063ed085ee814610186578063ef51ea6c146101a25761009d565b806287171a146100a25780636c713cbf146100c05780637f846cff146100dc578063851fb476146100f85780639bdab99814610114575b600080fd5b6100aa6101be565b6040516100b791906132c5565b60405180910390f35b6100da60048036038101906100d5919061345c565b610391565b005b6100f660048036038101906100f19190613596565b6109f5565b005b610112600480360381019061010d919061363f565b611153565b005b61012e60048036038101906101299190613596565b611409565b005b6101386117dc565b60405161014591906137d7565b60405180910390f35b610168600480360381019061016391906138a1565b6119af565b005b610184600480360381019061017f919061345c565b6121f9565b005b6101a0600480360381019061019b91906138a1565b612778565b005b6101bc60048036038101906101b791906138ea565b612bdb565b005b60606005805480602002602001604051908101604052809291908181526020016000905b8282101561038857838290600052602060002090600302016040518060a00160405290816000820160009054906101000a900473ffffffffffffffffffffffffffffffffffffffff1673ffffffffffffffffffffffffffffffffffffffff1673ffffffffffffffffffffffffffffffffffffffff16815260200160018201805461026b90613966565b80601f016020809104026020016040519081016040528092919081815260200182805461029790613966565b80156102e45780601f106102b9576101008083540402835291602001916102e4565b820191906000526020600020905b8154815290600101906020018083116102c757829003601f168201915b505050505081526020016002820160009054906101000a900473ffffffffffffffffffffffffffffffffffffffff1673ffffffffffffffffffffffffffffffffffffffff1673ffffffffffffffffffffffffffffffffffffffff1681526020016002820160149054906101000a900460ff161515151581526020016002820160159054906101000a900460ff161515151581525050815260200190600101906101e2565b50505050905090565b600160009054906101000a900473ffffffffffffffffffffffffffffffffffffffff1673ffffffffffffffffffffffffffffffffffffffff1663e17f6b2c336040518263ffffffff1660e01b81526004016103ec91906139a7565b602060405180830381865afa158015610409573d6000803e3d6000fd5b505050506040513d601f19601f8201168201806040525081019061042d91906139d7565b61046c576040517f08c379a000000000000000000000000000000000000000000000000000000000815260040161046390613a61565b60405180910390fd5b600160009054906101000a900473ffffffffffffffffffffffffffffffffffffffff1673ffffffffffffffffffffffffffffffffffffffff1663fc3ba6b4826040518263ffffffff1660e01b81526004016104c791906139a7565b602060405180830381865afa1580156104e4573d6000803e3d6000fd5b505050506040513d601f19601f8201168201806040525081019061050891906139d7565b610547576040517f08c379a000000000000000000000000000000000000000000000000000000000815260040161053e90613af3565b60405180910390fd5b6003826040516105579190613b4f565b908152602001604051809103902060009054906101000a900460ff16156105b3576040517f08c379a00000000000000000000000000000000000000000000000000000000081526004016105aa90613bd8565b60405180910390fd5b600460008273ffffffffffffffffffffffffffffffffffffffff1673ffffffffffffffffffffffffffffffffffffffff16815260200190815260200160002060009054906101000a900460ff1615610640576040517f08c379a000000000000000000000000000000000000000000000000000000000815260040161063790613c6a565b60405180910390fd5b600061064b33612d97565b905060008111610690576040517f08c379a000000000000000000000000000000000000000000000000000000000815260040161068790613cfc565b60405180910390fd5b60008060009054906101000a900473ffffffffffffffffffffffffffffffffffffffff1673ffffffffffffffffffffffffffffffffffffffff166375c2f8f0836040518263ffffffff1660e01b81526004016106ec9190613d35565b600060405180830381865afa158015610709573d6000803e3d6000fd5b505050506040513d6000823e3d601f19601f820116820180604052508101906107329190613e28565b90506000805b82518110156107a7578473ffffffffffffffffffffffffffffffffffffffff1683828151811061076b5761076a613e71565b5b602002602001015173ffffffffffffffffffffffffffffffffffffffff16141561079457600191505b808061079f90613ecf565b915050610738565b50806107e8576040517f08c379a00000000000000000000000000000000000000000000000000000000081526004016107df90613f8a565b60405180910390fd5b60006040518060a001604052808673ffffffffffffffffffffffffffffffffffffffff1681526020018781526020013373ffffffffffffffffffffffffffffffffffffffff168152602001600015158152602001600015158152509050600281908060018154018082558091505060019003906000526020600020906003020160009091909190915060008201518160000160006101000a81548173ffffffffffffffffffffffffffffffffffffffff021916908373ffffffffffffffffffffffffffffffffffffffff16021790555060208201518160010190805190602001906108d4929190612f28565b5060408201518160020160006101000a81548173ffffffffffffffffffffffffffffffffffffffff021916908373ffffffffffffffffffffffffffffffffffffffff16021790555060608201518160020160146101000a81548160ff02191690831515021790555060808201518160020160156101000a81548160ff021916908315150217905550505060016003876040516109709190613b4f565b908152602001604051809103902060006101000a81548160ff0219169083151502179055506001600460008773ffffffffffffffffffffffffffffffffffffffff1673ffffffffffffffffffffffffffffffffffffffff16815260200190815260200160002060006101000a81548160ff021916908315150217905550505050505050565b600160009054906101000a900473ffffffffffffffffffffffffffffffffffffffff1673ffffffffffffffffffffffffffffffffffffffff16632be7dc44336040518263ffffffff1660e01b8152600401610a5091906139a7565b602060405180830381865afa158015610a6d573d6000803e3d6000fd5b505050506040513d601f19601f82011682018060405250810190610a9191906139d7565b15610b3157600115158160600151151514610ae1576040517f08c379a0000000000000000000000000000000000000000000000000000000008152600401610ad89061401c565b60405180910390fd5b600015158160800151151514610b2c576040517f08c379a0000000000000000000000000000000000000000000000000000000008152600401610b2390614088565b60405180910390fd5b610db4565b600160009054906101000a900473ffffffffffffffffffffffffffffffffffffffff1673ffffffffffffffffffffffffffffffffffffffff1663e78af7c5336040518263ffffffff1660e01b8152600401610b8c91906139a7565b602060405180830381865afa158015610ba9573d6000803e3d6000fd5b505050506040513d601f19601f82011682018060405250810190610bcd91906139d7565b610c0c576040517f08c379a0000000000000000000000000000000000000000000000000000000008152600401610c039061411a565b60405180910390fd5b600015158160600151151514610c57576040517f08c379a0000000000000000000000000000000000000000000000000000000008152600401610c4e90614186565b60405180910390fd5b6000610c668260400151612d97565b905060008111610cab576040517f08c379a0000000000000000000000000000000000000000000000000000000008152600401610ca290613cfc565b60405180910390fd5b60008054906101000a900473ffffffffffffffffffffffffffffffffffffffff1673ffffffffffffffffffffffffffffffffffffffff16631fd76cfb826040518263ffffffff1660e01b8152600401610d049190613d35565b602060405180830381865afa158015610d21573d6000803e3d6000fd5b505050506040513d601f19601f82011682018060405250810190610d4591906141a6565b73ffffffffffffffffffffffffffffffffffffffff163373ffffffffffffffffffffffffffffffffffffffff1614610db2576040517f08c379a0000000000000000000000000000000000000000000000000000000008152600401610da990614245565b60405180910390fd5b505b60068160200151604051610dc89190613b4f565b908152602001604051809103902060009054906101000a900460ff16610e23576040517f08c379a0000000000000000000000000000000000000000000000000000000008152600401610e1a906142b1565b60405180910390fd5b60005b600580549050811015611114578160200151604051602001610e489190613b4f565b6040516020818303038152906040528051906020012060058281548110610e7257610e71613e71565b5b9060005260206000209060030201600101604051602001610e939190614365565b6040516020818303038152906040528051906020012014156111015760056001600580549050610ec3919061437c565b81548110610ed457610ed3613e71565b5b906000526020600020906003020160058281548110610ef657610ef5613e71565b5b90600052602060002090600302016000820160009054906101000a900473ffffffffffffffffffffffffffffffffffffffff168160000160006101000a81548173ffffffffffffffffffffffffffffffffffffffff021916908373ffffffffffffffffffffffffffffffffffffffff1602179055506001820181600101908054610f7f90613966565b610f8a929190612fae565b506002820160009054906101000a900473ffffffffffffffffffffffffffffffffffffffff168160020160006101000a81548173ffffffffffffffffffffffffffffffffffffffff021916908373ffffffffffffffffffffffffffffffffffffffff1602179055506002820160149054906101000a900460ff168160020160146101000a81548160ff0219169083151502179055506002820160159054906101000a900460ff168160020160156101000a81548160ff0219169083151502179055509050506005805480611061576110606143b0565b5b6001900381819060005260206000209060030201600080820160006101000a81549073ffffffffffffffffffffffffffffffffffffffff02191690556001820160006110ad919061303b565b6002820160006101000a81549073ffffffffffffffffffffffffffffffffffffffff02191690556002820160146101000a81549060ff02191690556002820160156101000a81549060ff0219169055505090555b808061110c90613ecf565b915050610e26565b5060006006826020015160405161112b9190613b4f565b908152602001604051809103902060006101000a81548160ff02191690831515021790555050565b600160009054906101000a900473ffffffffffffffffffffffffffffffffffffffff1673ffffffffffffffffffffffffffffffffffffffff16632be7dc44336040518263ffffffff1660e01b81526004016111ae91906139a7565b602060405180830381865afa1580156111cb573d6000803e3d6000fd5b505050506040513d601f19601f820116820180604052508101906111ef91906139d7565b61122e576040517f08c379a00000000000000000000000000000000000000000000000000000000081526004016112259061442b565b60405180910390fd5b60038383604051611240929190614470565b908152602001604051809103902060009054906101000a900460ff1661129b576040517f08c379a0000000000000000000000000000000000000000000000000000000008152600401611292906142b1565b60405180910390fd5b600460008273ffffffffffffffffffffffffffffffffffffffff1673ffffffffffffffffffffffffffffffffffffffff16815260200190815260200160002060009054906101000a900460ff16611327576040517f08c379a000000000000000000000000000000000000000000000000000000000815260040161131e906144fb565b60405180910390fd5b60005b60028054905081101561140357838360405160200161134a929190614470565b604051602081830303815290604052805190602001206002828154811061137457611373613e71565b5b90600052602060002090600302016001016040516020016113959190614365565b6040516020818303038152906040528051906020012014156113f0576001600282815481106113c7576113c6613e71565b5b906000526020600020906003020160020160156101000a81548160ff0219169083151502179055505b80806113fb90613ecf565b91505061132a565b50505050565b600160009054906101000a900473ffffffffffffffffffffffffffffffffffffffff1673ffffffffffffffffffffffffffffffffffffffff1663e78af7c5336040518263ffffffff1660e01b815260040161146491906139a7565b602060405180830381865afa158015611481573d6000803e3d6000fd5b505050506040513d601f19601f820116820180604052508101906114a591906139d7565b6114e4576040517f08c379a00000000000000000000000000000000000000000000000000000000081526004016114db90614567565b60405180910390fd5b60001515816060015115151461152f576040517f08c379a000000000000000000000000000000000000000000000000000000000815260040161152690614186565b60405180910390fd5b600681602001516040516115439190613b4f565b908152602001604051809103902060009054906101000a900460ff1661159e576040517f08c379a0000000000000000000000000000000000000000000000000000000008152600401611595906142b1565b60405180910390fd5b60006115ad8260400151612d97565b9050600081116115f2576040517f08c379a00000000000000000000000000000000000000000000000000000000081526004016115e990613cfc565b60405180910390fd5b60008054906101000a900473ffffffffffffffffffffffffffffffffffffffff1673ffffffffffffffffffffffffffffffffffffffff16631fd76cfb826040518263ffffffff1660e01b815260040161164b9190613d35565b602060405180830381865afa158015611668573d6000803e3d6000fd5b505050506040513d601f19601f8201168201806040525081019061168c91906141a6565b73ffffffffffffffffffffffffffffffffffffffff163373ffffffffffffffffffffffffffffffffffffffff16146116f9576040517f08c379a00000000000000000000000000000000000000000000000000000000081526004016116f090614245565b60405180910390fd5b60005b6005805490508110156117d757826020015160405160200161171e9190613b4f565b604051602081830303815290604052805190602001206005828154811061174857611747613e71565b5b90600052602060002090600302016001016040516020016117699190614365565b6040516020818303038152906040528051906020012014156117c45760016005828154811061179b5761179a613e71565b5b906000526020600020906003020160020160146101000a81548160ff0219169083151502179055505b80806117cf90613ecf565b9150506116fc565b505050565b60606002805480602002602001604051908101604052809291908181526020016000905b828210156119a657838290600052602060002090600302016040518060a00160405290816000820160009054906101000a900473ffffffffffffffffffffffffffffffffffffffff1673ffffffffffffffffffffffffffffffffffffffff1673ffffffffffffffffffffffffffffffffffffffff16815260200160018201805461188990613966565b80601f01602080910402602001604051908101604052809291908181526020018280546118b590613966565b80156119025780601f106118d757610100808354040283529160200191611902565b820191906000526020600020905b8154815290600101906020018083116118e557829003601f168201915b505050505081526020016002820160009054906101000a900473ffffffffffffffffffffffffffffffffffffffff1673ffffffffffffffffffffffffffffffffffffffff1673ffffffffffffffffffffffffffffffffffffffff1681526020016002820160149054906101000a900460ff161515151581526020016002820160159054906101000a900460ff16151515158152505081526020019060010190611800565b50505050905090565b600160009054906101000a900473ffffffffffffffffffffffffffffffffffffffff1673ffffffffffffffffffffffffffffffffffffffff16632be7dc44336040518263ffffffff1660e01b8152600401611a0a91906139a7565b602060405180830381865afa158015611a27573d6000803e3d6000fd5b505050506040513d601f19601f82011682018060405250810190611a4b91906139d7565b15611aeb57600115158160600151151514611a9b576040517f08c379a0000000000000000000000000000000000000000000000000000000008152600401611a929061401c565b60405180910390fd5b600015158160800151151514611ae6576040517f08c379a0000000000000000000000000000000000000000000000000000000008152600401611add90614088565b60405180910390fd5b611d6e565b600160009054906101000a900473ffffffffffffffffffffffffffffffffffffffff1673ffffffffffffffffffffffffffffffffffffffff1663e78af7c5336040518263ffffffff1660e01b8152600401611b4691906139a7565b602060405180830381865afa158015611b63573d6000803e3d6000fd5b505050506040513d601f19601f82011682018060405250810190611b8791906139d7565b611bc6576040517f08c379a0000000000000000000000000000000000000000000000000000000008152600401611bbd9061411a565b60405180910390fd5b600015158160600151151514611c11576040517f08c379a0000000000000000000000000000000000000000000000000000000008152600401611c0890614186565b60405180910390fd5b6000611c208260400151612d97565b905060008054906101000a900473ffffffffffffffffffffffffffffffffffffffff1673ffffffffffffffffffffffffffffffffffffffff16631fd76cfb826040518263ffffffff1660e01b8152600401611c7b9190613d35565b602060405180830381865afa158015611c98573d6000803e3d6000fd5b505050506040513d601f19601f82011682018060405250810190611cbc91906141a6565b73ffffffffffffffffffffffffffffffffffffffff163373ffffffffffffffffffffffffffffffffffffffff1614611d29576040517f08c379a0000000000000000000000000000000000000000000000000000000008152600401611d2090614245565b60405180910390fd5b60008111611d6c576040517f08c379a0000000000000000000000000000000000000000000000000000000008152600401611d6390613cfc565b60405180910390fd5b505b60038160200151604051611d829190613b4f565b908152602001604051809103902060009054906101000a900460ff16611ddd576040517f08c379a0000000000000000000000000000000000000000000000000000000008152600401611dd4906142b1565b60405180910390fd5b60046000826000015173ffffffffffffffffffffffffffffffffffffffff1673ffffffffffffffffffffffffffffffffffffffff16815260200190815260200160002060009054906101000a900460ff16611e6d576040517f08c379a0000000000000000000000000000000000000000000000000000000008152600401611e64906144fb565b60405180910390fd5b60005b60028054905081101561215e578160200151604051602001611e929190613b4f565b6040516020818303038152906040528051906020012060028281548110611ebc57611ebb613e71565b5b9060005260206000209060030201600101604051602001611edd9190614365565b60405160208183030381529060405280519060200120141561214b5760026001600280549050611f0d919061437c565b81548110611f1e57611f1d613e71565b5b906000526020600020906003020160028281548110611f4057611f3f613e71565b5b90600052602060002090600302016000820160009054906101000a900473ffffffffffffffffffffffffffffffffffffffff168160000160006101000a81548173ffffffffffffffffffffffffffffffffffffffff021916908373ffffffffffffffffffffffffffffffffffffffff1602179055506001820181600101908054611fc990613966565b611fd4929190612fae565b506002820160009054906101000a900473ffffffffffffffffffffffffffffffffffffffff168160020160006101000a81548173ffffffffffffffffffffffffffffffffffffffff021916908373ffffffffffffffffffffffffffffffffffffffff1602179055506002820160149054906101000a900460ff168160020160146101000a81548160ff0219169083151502179055506002820160159054906101000a900460ff168160020160156101000a81548160ff02191690831515021790555090505060028054806120ab576120aa6143b0565b5b6001900381819060005260206000209060030201600080820160006101000a81549073ffffffffffffffffffffffffffffffffffffffff02191690556001820160006120f7919061303b565b6002820160006101000a81549073ffffffffffffffffffffffffffffffffffffffff02191690556002820160146101000a81549060ff02191690556002820160156101000a81549060ff0219169055505090555b808061215690613ecf565b915050611e70565b506000600382602001516040516121759190613b4f565b908152602001604051809103902060006101000a81548160ff021916908315150217905550600060046000836000015173ffffffffffffffffffffffffffffffffffffffff1673ffffffffffffffffffffffffffffffffffffffff16815260200190815260200160002060006101000a81548160ff02191690831515021790555050565b600160009054906101000a900473ffffffffffffffffffffffffffffffffffffffff1673ffffffffffffffffffffffffffffffffffffffff1663e17f6b2c336040518263ffffffff1660e01b815260040161225491906139a7565b602060405180830381865afa158015612271573d6000803e3d6000fd5b505050506040513d601f19601f8201168201806040525081019061229591906139d7565b6122d4576040517f08c379a00000000000000000000000000000000000000000000000000000000081526004016122cb90613a61565b60405180910390fd5b600160009054906101000a900473ffffffffffffffffffffffffffffffffffffffff1673ffffffffffffffffffffffffffffffffffffffff16639822a599826040518263ffffffff1660e01b815260040161232f91906139a7565b602060405180830381865afa15801561234c573d6000803e3d6000fd5b505050506040513d601f19601f8201168201806040525081019061237091906139d7565b6123af576040517f08c379a00000000000000000000000000000000000000000000000000000000081526004016123a6906145f9565b60405180910390fd5b6006826040516123bf9190613b4f565b908152602001604051809103902060009054906101000a900460ff161561241b576040517f08c379a000000000000000000000000000000000000000000000000000000000815260040161241290613bd8565b60405180910390fd5b600061242633612d97565b90506000811161246b576040517f08c379a000000000000000000000000000000000000000000000000000000000815260040161246290613cfc565b60405180910390fd5b60008060009054906101000a900473ffffffffffffffffffffffffffffffffffffffff1673ffffffffffffffffffffffffffffffffffffffff166347519ab7836040518263ffffffff1660e01b81526004016124c79190613d35565b600060405180830381865afa1580156124e4573d6000803e3d6000fd5b505050506040513d6000823e3d601f19601f8201168201806040525081019061250d9190613e28565b90506000805b8251811015612582578473ffffffffffffffffffffffffffffffffffffffff1683828151811061254657612545613e71565b5b602002602001015173ffffffffffffffffffffffffffffffffffffffff16141561256f57600191505b808061257a90613ecf565b915050612513565b50806125c3576040517f08c379a00000000000000000000000000000000000000000000000000000000081526004016125ba9061468b565b60405180910390fd5b60006040518060a001604052808673ffffffffffffffffffffffffffffffffffffffff1681526020018781526020013373ffffffffffffffffffffffffffffffffffffffff168152602001600015158152602001600015158152509050600581908060018154018082558091505060019003906000526020600020906003020160009091909190915060008201518160000160006101000a81548173ffffffffffffffffffffffffffffffffffffffff021916908373ffffffffffffffffffffffffffffffffffffffff16021790555060208201518160010190805190602001906126af929190612f28565b5060408201518160020160006101000a81548173ffffffffffffffffffffffffffffffffffffffff021916908373ffffffffffffffffffffffffffffffffffffffff16021790555060608201518160020160146101000a81548160ff02191690831515021790555060808201518160020160156101000a81548160ff0219169083151502179055505050600160068760405161274b9190613b4f565b908152602001604051809103902060006101000a81548160ff021916908315150217905550505050505050565b600160009054906101000a900473ffffffffffffffffffffffffffffffffffffffff1673ffffffffffffffffffffffffffffffffffffffff1663e78af7c5336040518263ffffffff1660e01b81526004016127d391906139a7565b602060405180830381865afa1580156127f0573d6000803e3d6000fd5b505050506040513d601f19601f8201168201806040525081019061281491906139d7565b612853576040517f08c379a000000000000000000000000000000000000000000000000000000000815260040161284a90614567565b60405180910390fd5b60001515816060015115151461289e576040517f08c379a000000000000000000000000000000000000000000000000000000000815260040161289590614186565b60405180910390fd5b600381602001516040516128b29190613b4f565b908152602001604051809103902060009054906101000a900460ff1661290d576040517f08c379a0000000000000000000000000000000000000000000000000000000008152600401612904906142b1565b60405180910390fd5b60046000826000015173ffffffffffffffffffffffffffffffffffffffff1673ffffffffffffffffffffffffffffffffffffffff16815260200190815260200160002060009054906101000a900460ff1661299d576040517f08c379a0000000000000000000000000000000000000000000000000000000008152600401612994906144fb565b60405180910390fd5b60006129ac8260400151612d97565b9050600081116129f1576040517f08c379a00000000000000000000000000000000000000000000000000000000081526004016129e890613cfc565b60405180910390fd5b60008054906101000a900473ffffffffffffffffffffffffffffffffffffffff1673ffffffffffffffffffffffffffffffffffffffff16631fd76cfb826040518263ffffffff1660e01b8152600401612a4a9190613d35565b602060405180830381865afa158015612a67573d6000803e3d6000fd5b505050506040513d601f19601f82011682018060405250810190612a8b91906141a6565b73ffffffffffffffffffffffffffffffffffffffff163373ffffffffffffffffffffffffffffffffffffffff1614612af8576040517f08c379a0000000000000000000000000000000000000000000000000000000008152600401612aef90614245565b60405180910390fd5b60005b600280549050811015612bd6578260200151604051602001612b1d9190613b4f565b6040516020818303038152906040528051906020012060028281548110612b4757612b46613e71565b5b9060005260206000209060030201600101604051602001612b689190614365565b604051602081830303815290604052805190602001201415612bc357600160028281548110612b9a57612b99613e71565b5b906000526020600020906003020160020160146101000a81548160ff0219169083151502179055505b8080612bce90613ecf565b915050612afb565b505050565b600160009054906101000a900473ffffffffffffffffffffffffffffffffffffffff1673ffffffffffffffffffffffffffffffffffffffff16632be7dc44336040518263ffffffff1660e01b8152600401612c3691906139a7565b602060405180830381865afa158015612c53573d6000803e3d6000fd5b505050506040513d601f19601f82011682018060405250810190612c7791906139d7565b612cb6576040517f08c379a0000000000000000000000000000000000000000000000000000000008152600401612cad9061442b565b60405180910390fd5b60005b600580549050811015612d92578282604051602001612cd9929190614470565b6040516020818303038152906040528051906020012060058281548110612d0357612d02613e71565b5b9060005260206000209060030201600101604051602001612d249190614365565b604051602081830303815290604052805190602001201415612d7f57600160058281548110612d5657612d55613e71565b5b906000526020600020906003020160020160156101000a81548160ff0219169083151502179055505b8080612d8a90613ecf565b915050612cb9565b505050565b600080600190505b60008054906101000a900473ffffffffffffffffffffffffffffffffffffffff1673ffffffffffffffffffffffffffffffffffffffff1663c4e41b226040518163ffffffff1660e01b8152600401602060405180830381865afa158015612e0a573d6000803e3d6000fd5b505050506040513d601f19601f82011682018060405250810190612e2e91906146d7565b8111612f1d578273ffffffffffffffffffffffffffffffffffffffff1660008054906101000a900473ffffffffffffffffffffffffffffffffffffffff1673ffffffffffffffffffffffffffffffffffffffff16636352211e836040518263ffffffff1660e01b8152600401612ea49190613d35565b602060405180830381865afa158015612ec1573d6000803e3d6000fd5b505050506040513d601f19601f82011682018060405250810190612ee591906141a6565b73ffffffffffffffffffffffffffffffffffffffff161415612f0a5780915050612f23565b8080612f1590613ecf565b915050612d9f565b50600090505b919050565b828054612f3490613966565b90600052602060002090601f016020900481019282612f565760008555612f9d565b82601f10612f6f57805160ff1916838001178555612f9d565b82800160010185558215612f9d579182015b82811115612f9c578251825591602001919060010190612f81565b5b509050612faa919061307b565b5090565b828054612fba90613966565b90600052602060002090601f016020900481019282612fdc576000855561302a565b82601f10612fed578054855561302a565b8280016001018555821561302a57600052602060002091601f016020900482015b8281111561302957825482559160010191906001019061300e565b5b509050613037919061307b565b5090565b50805461304790613966565b6000825580601f106130595750613078565b601f016020900490600052602060002090810190613077919061307b565b5b50565b5b8082111561309457600081600090555060010161307c565b5090565b600081519050919050565b600082825260208201905092915050565b6000819050602082019050919050565b600073ffffffffffffffffffffffffffffffffffffffff82169050919050565b60006130ef826130c4565b9050919050565b6130ff816130e4565b82525050565b600081519050919050565b600082825260208201905092915050565b60005b8381101561313f578082015181840152602081019050613124565b8381111561314e576000848401525b50505050565b6000601f19601f8301169050919050565b600061317082613105565b61317a8185613110565b935061318a818560208601613121565b61319381613154565b840191505092915050565b60008115159050919050565b6131b38161319e565b82525050565b600060a0830160008301516131d160008601826130f6565b50602083015184820360208601526131e98282613165565b91505060408301516131fe60408601826130f6565b50606083015161321160608601826131aa565b50608083015161322460808601826131aa565b508091505092915050565b600061323b83836131b9565b905092915050565b6000602082019050919050565b600061325b82613098565b61326581856130a3565b935083602082028501613277856130b4565b8060005b858110156132b35784840389528151613294858261322f565b945061329f83613243565b925060208a0199505060018101905061327b565b50829750879550505050505092915050565b600060208201905081810360008301526132df8184613250565b905092915050565b6000604051905090565b600080fd5b600080fd5b600080fd5b600080fd5b7f4e487b7100000000000000000000000000000000000000000000000000000000600052604160045260246000fd5b61333d82613154565b810181811067ffffffffffffffff8211171561335c5761335b613305565b5b80604052505050565b600061336f6132e7565b905061337b8282613334565b919050565b600067ffffffffffffffff82111561339b5761339a613305565b5b6133a482613154565b9050602081019050919050565b82818337600083830152505050565b60006133d36133ce84613380565b613365565b9050828152602081018484840111156133ef576133ee613300565b5b6133fa8482856133b1565b509392505050565b600082601f830112613417576134166132fb565b5b81356134278482602086016133c0565b91505092915050565b613439816130e4565b811461344457600080fd5b50565b60008135905061345681613430565b92915050565b60008060408385031215613473576134726132f1565b5b600083013567ffffffffffffffff811115613491576134906132f6565b5b61349d85828601613402565b92505060206134ae85828601613447565b9150509250929050565b600080fd5b600080fd5b6134cb8161319e565b81146134d657600080fd5b50565b6000813590506134e8816134c2565b92915050565b600060a08284031215613504576135036134b8565b5b61350e60a0613365565b9050600061351e84828501613447565b600083015250602082013567ffffffffffffffff811115613542576135416134bd565b5b61354e84828501613402565b602083015250604061356284828501613447565b6040830152506060613576848285016134d9565b606083015250608061358a848285016134d9565b60808301525092915050565b6000602082840312156135ac576135ab6132f1565b5b600082013567ffffffffffffffff8111156135ca576135c96132f6565b5b6135d6848285016134ee565b91505092915050565b600080fd5b600080fd5b60008083601f8401126135ff576135fe6132fb565b5b8235905067ffffffffffffffff81111561361c5761361b6135df565b5b602083019150836001820283011115613638576136376135e4565b5b9250929050565b600080600060408486031215613658576136576132f1565b5b600084013567ffffffffffffffff811115613676576136756132f6565b5b613682868287016135e9565b9350935050602061369586828701613447565b9150509250925092565b600081519050919050565b600082825260208201905092915050565b6000819050602082019050919050565b600060a0830160008301516136e360008601826130f6565b50602083015184820360208601526136fb8282613165565b915050604083015161371060408601826130f6565b50606083015161372360608601826131aa565b50608083015161373660808601826131aa565b508091505092915050565b600061374d83836136cb565b905092915050565b6000602082019050919050565b600061376d8261369f565b61377781856136aa565b935083602082028501613789856136bb565b8060005b858110156137c557848403895281516137a68582613741565b94506137b183613755565b925060208a0199505060018101905061378d565b50829750879550505050505092915050565b600060208201905081810360008301526137f18184613762565b905092915050565b600060a0828403121561380f5761380e6134b8565b5b61381960a0613365565b9050600061382984828501613447565b600083015250602082013567ffffffffffffffff81111561384d5761384c6134bd565b5b61385984828501613402565b602083015250604061386d84828501613447565b6040830152506060613881848285016134d9565b6060830152506080613895848285016134d9565b60808301525092915050565b6000602082840312156138b7576138b66132f1565b5b600082013567ffffffffffffffff8111156138d5576138d46132f6565b5b6138e1848285016137f9565b91505092915050565b60008060208385031215613901576139006132f1565b5b600083013567ffffffffffffffff81111561391f5761391e6132f6565b5b61392b858286016135e9565b92509250509250929050565b7f4e487b7100000000000000000000000000000000000000000000000000000000600052602260045260246000fd5b6000600282049050600182168061397e57607f821691505b6020821081141561399257613991613937565b5b50919050565b6139a1816130e4565b82525050565b60006020820190506139bc6000830184613998565b92915050565b6000815190506139d1816134c2565b92915050565b6000602082840312156139ed576139ec6132f1565b5b60006139fb848285016139c2565b91505092915050565b600082825260208201905092915050565b7f546869732061646472657373206973206e6f74206465706172746d656e740000600082015250565b6000613a4b601e83613a04565b9150613a5682613a15565b602082019050919050565b60006020820190508181036000830152613a7a81613a3e565b9050919050565b7f546869732061646472657373206973206e6f7420696e2053545544454e545f5260008201527f4f4c450000000000000000000000000000000000000000000000000000000000602082015250565b6000613add602383613a04565b9150613ae882613a81565b604082019050919050565b60006020820190508181036000830152613b0c81613ad0565b9050919050565b600081905092915050565b6000613b2982613105565b613b338185613b13565b9350613b43818560208601613121565b80840191505092915050565b6000613b5b8284613b1e565b915081905092915050565b7f54686973206c696e6b20697320616c726561647920726571756573746564206260008201527f65666f7265000000000000000000000000000000000000000000000000000000602082015250565b6000613bc2602583613a04565b9150613bcd82613b66565b604082019050919050565b60006020820190508181036000830152613bf181613bb5565b9050919050565b7f546869732073747564656e742773206469706c6f6d6120697320616c7265616460008201527f7920726571756573746564206265666f72650000000000000000000000000000602082015250565b6000613c54603283613a04565b9150613c5f82613bf8565b604082019050919050565b60006020820190508181036000830152613c8381613c47565b9050919050565b7f526571756573746f72204465706172746d656e742063616e6e6f7420666f756e60008201527f6400000000000000000000000000000000000000000000000000000000000000602082015250565b6000613ce6602183613a04565b9150613cf182613c8a565b604082019050919050565b60006020820190508181036000830152613d1581613cd9565b9050919050565b6000819050919050565b613d2f81613d1c565b82525050565b6000602082019050613d4a6000830184613d26565b92915050565b600067ffffffffffffffff821115613d6b57613d6a613305565b5b602082029050602081019050919050565b600081519050613d8b81613430565b92915050565b6000613da4613d9f84613d50565b613365565b90508083825260208201905060208402830185811115613dc757613dc66135e4565b5b835b81811015613df05780613ddc8882613d7c565b845260208401935050602081019050613dc9565b5050509392505050565b600082601f830112613e0f57613e0e6132fb565b5b8151613e1f848260208601613d91565b91505092915050565b600060208284031215613e3e57613e3d6132f1565b5b600082015167ffffffffffffffff811115613e5c57613e5b6132f6565b5b613e6884828501613dfa565b91505092915050565b7f4e487b7100000000000000000000000000000000000000000000000000000000600052603260045260246000fd5b7f4e487b7100000000000000000000000000000000000000000000000000000000600052601160045260246000fd5b6000613eda82613d1c565b91507fffffffffffffffffffffffffffffffffffffffffffffffffffffffffffffffff821415613f0d57613f0c613ea0565b5b600182019050919050565b7f546869732061646472657373206973206e6f74206f6e65206f6620746865207360008201527f747564656e7473206f662074686973206465706172746d656e74000000000000602082015250565b6000613f74603a83613a04565b9150613f7f82613f18565b604082019050919050565b60006020820190508181036000830152613fa381613f67565b9050919050565b7f546869732072657175657374206973206e6f7420617070726f7665642062792060008201527f466163756c747920796574000000000000000000000000000000000000000000602082015250565b6000614006602b83613a04565b915061401182613faa565b604082019050919050565b6000602082019050818103600083015261403581613ff9565b9050919050565b7f546869732072657175657374206973206d696e74656420616c72656164790000600082015250565b6000614072601e83613a04565b915061407d8261403c565b602082019050919050565b600060208201905081810360008301526140a181614065565b9050919050565b7f546869732061646472657373206973206e6f74206120466163756c7479206e6f60008201527f72206120526563746f7200000000000000000000000000000000000000000000602082015250565b6000614104602a83613a04565b915061410f826140a8565b604082019050919050565b60006020820190508181036000830152614133816140f7565b9050919050565b7f54686973207265717565737420697320617070726f76656420616c7265616479600082015250565b6000614170602083613a04565b915061417b8261413a565b602082019050919050565b6000602082019050818103600083015261419f81614163565b9050919050565b6000602082840312156141bc576141bb6132f1565b5b60006141ca84828501613d7c565b91505092915050565b7f5468697320466163756c7479206973206e6f742074686520666163756c74792060008201527f6f662074686520726571756573746f7200000000000000000000000000000000602082015250565b600061422f603083613a04565b915061423a826141d3565b604082019050919050565b6000602082019050818103600083015261425e81614222565b9050919050565b7f54686973206c696e6b206973206e6f7420726571756573746564000000000000600082015250565b600061429b601a83613a04565b91506142a682614265565b602082019050919050565b600060208201905081810360008301526142ca8161428e565b9050919050565b60008190508160005260206000209050919050565b600081546142f381613966565b6142fd8186613b13565b9450600182166000811461431857600181146143295761435c565b60ff1983168652818601935061435c565b614332856142d1565b60005b8381101561435457815481890152600182019150602081019050614335565b838801955050505b50505092915050565b600061437182846142e6565b915081905092915050565b600061438782613d1c565b915061439283613d1c565b9250828210156143a5576143a4613ea0565b5b828203905092915050565b7f4e487b7100000000000000000000000000000000000000000000000000000000600052603160045260246000fd5b7f546869732061646472657373206973206e6f7420526563746f72000000000000600082015250565b6000614415601a83613a04565b9150614420826143df565b602082019050919050565b6000602082019050818103600083015261444481614408565b9050919050565b60006144578385613b13565b93506144648385846133b1565b82840190509392505050565b600061447d82848661444b565b91508190509392505050565b7f546869732073747564656e742773206469706c6f6d61206973206e6f7420726560008201527f7175657374656400000000000000000000000000000000000000000000000000602082015250565b60006144e5602783613a04565b91506144f082614489565b604082019050919050565b60006020820190508181036000830152614514816144d8565b9050919050565b7f546869732061646472657373206973206e6f74206120466163756c7479000000600082015250565b6000614551601d83613a04565b915061455c8261451b565b602082019050919050565b6000602082019050818103600083015261458081614544565b9050919050565b7f546869732061646472657373206973206e6f7420696e20494e5354525543544f60008201527f525f524f4c450000000000000000000000000000000000000000000000000000602082015250565b60006145e3602683613a04565b91506145ee82614587565b604082019050919050565b60006020820190508181036000830152614612816145d6565b9050919050565b7f546869732061646472657373206973206e6f74206f6e65206f6620746865206960008201527f6e7374727563746f72206f662074686973206465706172746d656e7400000000602082015250565b6000614675603c83613a04565b915061468082614619565b604082019050919050565b600060208201905081810360008301526146a481614668565b9050919050565b6146b481613d1c565b81146146bf57600080fd5b50565b6000815190506146d1816146ab565b92915050565b6000602082840312156146ed576146ec6132f1565b5b60006146fb848285016146c2565b9150509291505056fea2646970667358221220b082501103a6e960536121bf40537359cc404b338f552b405bb0578da5e43a3964736f6c634300080a0033",
  "immutableReferences": {},
  "source": "pragma solidity ^0.8.10;\r\n\r\nimport \"./Department.sol\";\r\nimport \"./Roles.sol\";\r\n\r\ncontract Request {\r\n\r\n    address departmentContractAddress;\r\n    address rolesContractAddress;\r\n\r\n/////////////////////////////////////////////// DIPLOMA ////////////////////////////////////////////////////////////////\r\n    struct DiplomaRequest {\r\n        address studentAddress;\r\n        string diplomaLink;\r\n        address requestorDepartment;\r\n        bool atRector;\r\n        bool minted;\r\n    }\r\n    //DiplomaRequest list\r\n    DiplomaRequest[] _diplomaRequests;\r\n    //is Diploma link in _diplomaRequests exist\r\n    mapping(string => bool) _linkDiplomaExist;\r\n    //is Diploma student in _diplomaRequests exist\r\n    mapping(address => bool) _studentRequestExist;\r\n\r\n    constructor(address _departmentContractAddress, address _rolesContractAddress){\r\n        departmentContractAddress = _departmentContractAddress;\r\n        rolesContractAddress = _rolesContractAddress;\r\n    }\r\n\r\n    function createDiplomaRequest(string memory _diplomaLink, address _graduatedAddress) public {\r\n        //Requirements\r\n        require(Roles(rolesContractAddress).hasDepartmentRole(msg.sender), \"This address is not department\");\r\n        require(Roles(rolesContractAddress).hasStudentRole(_graduatedAddress), \"This address is not in STUDENT_ROLE\");\r\n        require(!_linkDiplomaExist[_diplomaLink], \"This link is already requested before\");\r\n        require(!_studentRequestExist[_graduatedAddress], \"This student's diploma is already requested before\");\r\n        uint256 departmentID = getDepartmentID(msg.sender);\r\n        require(departmentID > 0, \"Requestor Department cannot found\");\r\n        address[] memory students = Department(departmentContractAddress).getStudents(departmentID);\r\n        bool studentExist = false;\r\n        for (uint i = 0; i < students.length; i++) {\r\n            if (students[i] == _graduatedAddress) {\r\n                studentExist = true;\r\n            }\r\n        }\r\n        require(studentExist, \"This address is not one of the students of this department\");\r\n        DiplomaRequest memory request = DiplomaRequest(_graduatedAddress, _diplomaLink, msg.sender, false, false);\r\n        _diplomaRequests.push(request);\r\n        _linkDiplomaExist[_diplomaLink] = true;\r\n        _studentRequestExist[_graduatedAddress] = true;\r\n    }\r\n    function approveDiplomaRequest(DiplomaRequest memory diplomaRequest) public {\r\n        //Requirements\r\n        require(Roles(rolesContractAddress).hasFacultyRole(msg.sender), \"This address is not a Faculty\");\r\n        require(diplomaRequest.atRector == false, \"This request is approved already\");\r\n        require(_linkDiplomaExist[diplomaRequest.diplomaLink], \"This link is not requested\");\r\n        require(_studentRequestExist[diplomaRequest.studentAddress], \"This student's diploma is not requested\");\r\n\r\n        uint256 departmentID = getDepartmentID(diplomaRequest.requestorDepartment);\r\n        require(departmentID > 0, \"Requestor Department cannot found\");\r\n        require(msg.sender == Department(departmentContractAddress).getFaculty(departmentID), \"This Faculty is not the faculty of the requestor\");\r\n\r\n        //Approval\r\n        for (uint256 i = 0; i < _diplomaRequests.length; i++) {\r\n            if (keccak256(abi.encodePacked(_diplomaRequests[i].diplomaLink)) == keccak256(abi.encodePacked(diplomaRequest.diplomaLink))) {\r\n                _diplomaRequests[i].atRector = true;\r\n            }\r\n        }\r\n    }\r\n    function diplomaMinted(string calldata _link, address _address) public {\r\n        require(Roles(rolesContractAddress).hasRectorRole(msg.sender), \"This address is not Rector\");\r\n        require(_linkDiplomaExist[_link], \"This link is not requested\");\r\n        require(_studentRequestExist[_address], \"This student's diploma is not requested\");\r\n\r\n        for (uint256 i = 0; i < _diplomaRequests.length; i++) {\r\n            if (keccak256(abi.encodePacked(_diplomaRequests[i].diplomaLink)) == keccak256(abi.encodePacked(_link))) {\r\n                _diplomaRequests[i].minted = true;\r\n            }\r\n        }\r\n    }\r\n    function disapproveDiplomaRequest(DiplomaRequest memory diplomaRequest) public {\r\n        if(Roles(rolesContractAddress).hasRectorRole(msg.sender)){\r\n            require(diplomaRequest.atRector == true, \"This request is not approved by Faculty yet\");\r\n            require(diplomaRequest.minted == false, \"This request is minted already\");\r\n        }else{\r\n            require(Roles(rolesContractAddress).hasFacultyRole(msg.sender), \"This address is not a Faculty nor a Rector\");\r\n            require(diplomaRequest.atRector == false, \"This request is approved already\");\r\n            uint256 departmentID = getDepartmentID(diplomaRequest.requestorDepartment);\r\n            require(msg.sender == Department(departmentContractAddress).getFaculty(departmentID), \"This Faculty is not the faculty of the requestor\");\r\n            require(departmentID > 0, \"Requestor Department cannot found\");\r\n        }\r\n        require(_linkDiplomaExist[diplomaRequest.diplomaLink], \"This link is not requested\");\r\n        require(_studentRequestExist[diplomaRequest.studentAddress], \"This student's diploma is not requested\");\r\n        for (uint256 i = 0; i < _diplomaRequests.length; i++) {\r\n            if (keccak256(abi.encodePacked(_diplomaRequests[i].diplomaLink)) == keccak256(abi.encodePacked(diplomaRequest.diplomaLink))) {\r\n                _diplomaRequests[i] = _diplomaRequests[_diplomaRequests.length - 1];\r\n                _diplomaRequests.pop();\r\n            }\r\n        }\r\n        _linkDiplomaExist[diplomaRequest.diplomaLink] = false;\r\n        _studentRequestExist[diplomaRequest.studentAddress] = false;\r\n    }\r\n    function getDiplomaRequests() public view returns (DiplomaRequest[] memory){\r\n        return _diplomaRequests;\r\n    }\r\n////////////////////////////////////////////////////////////////////////////////////////////////////////////////////////\r\n/////////////////////////////////////////////// COURSE /////////////////////////////////////////////////////////////////\r\n    struct CourseRequest {\r\n        address instructorAddress;\r\n        string courseLink;\r\n        address requestorDepartment;\r\n        bool atRector;\r\n        bool minted;\r\n    }\r\n    //CourseRequest list\r\n    CourseRequest[] _courseRequests;\r\n    //is Course link in _courseRequests exist\r\n    mapping(string => bool) _linkCourseExist;\r\n\r\n    function createCourseRequest(string memory _courseLink, address _instructorAddress) public {\r\n        //Requirements\r\n        require(Roles(rolesContractAddress).hasDepartmentRole(msg.sender), \"This address is not department\");\r\n        require(Roles(rolesContractAddress).hasInstructorRole(_instructorAddress), \"This address is not in INSTRUCTOR_ROLE\");\r\n        require(!_linkCourseExist[_courseLink], \"This link is already requested before\");\r\n        uint256 departmentID = getDepartmentID(msg.sender);\r\n        require(departmentID > 0, \"Requestor Department cannot found\");\r\n        address[] memory instructors = Department(departmentContractAddress).getInstructors(departmentID);\r\n        bool instructorExist = false;\r\n        for (uint i = 0; i < instructors.length; i++) {\r\n            if (instructors[i] == _instructorAddress) {\r\n                instructorExist = true;\r\n            }\r\n        }\r\n        require(instructorExist, \"This address is not one of the instructor of this department\");\r\n        CourseRequest memory request = CourseRequest(_instructorAddress, _courseLink, msg.sender, false, false);\r\n        _courseRequests.push(request);\r\n        _linkCourseExist[_courseLink] = true;\r\n    }\r\n\r\n    function approveCourseRequest(CourseRequest memory courseRequest) public {\r\n        //Requirements\r\n        require(Roles(rolesContractAddress).hasFacultyRole(msg.sender), \"This address is not a Faculty\");\r\n        require(courseRequest.atRector == false, \"This request is approved already\");\r\n        require(_linkCourseExist[courseRequest.courseLink], \"This link is not requested\");\r\n        uint256 departmentID = getDepartmentID(courseRequest.requestorDepartment);\r\n        require(departmentID > 0, \"Requestor Department cannot found\");\r\n        require(msg.sender == Department(departmentContractAddress).getFaculty(departmentID), \"This Faculty is not the faculty of the requestor\");\r\n        //Approval\r\n        for (uint256 i = 0; i < _courseRequests.length; i++) {\r\n            if (keccak256(abi.encodePacked(_courseRequests[i].courseLink)) == keccak256(abi.encodePacked(courseRequest.courseLink))) {\r\n                _courseRequests[i].atRector = true;\r\n            }\r\n        }\r\n    }\r\n    function courseMinted(string calldata _link) public {\r\n        require(Roles(rolesContractAddress).hasRectorRole(msg.sender), \"This address is not Rector\");\r\n//        require(_linkCourseExist[_link], \"This link is not requested\");//TODO decomment after testing\r\n\r\n        for (uint256 i = 0; i < _courseRequests.length; i++) {\r\n            if (keccak256(abi.encodePacked(_courseRequests[i].courseLink)) == keccak256(abi.encodePacked(_link))) {\r\n                _courseRequests[i].minted = true;\r\n            }\r\n        }\r\n    }\r\n    function disapproveCourseRequest(CourseRequest memory courseRequest) public {\r\n        if(Roles(rolesContractAddress).hasRectorRole(msg.sender)){\r\n            require(courseRequest.atRector == true, \"This request is not approved by Faculty yet\");\r\n            require(courseRequest.minted == false, \"This request is minted already\");\r\n        }else{\r\n            require(Roles(rolesContractAddress).hasFacultyRole(msg.sender), \"This address is not a Faculty nor a Rector\");\r\n            require(courseRequest.atRector == false, \"This request is approved already\");\r\n            uint256 departmentID = getDepartmentID(courseRequest.requestorDepartment);\r\n            require(departmentID > 0, \"Requestor Department cannot found\");\r\n            require(msg.sender == Department(departmentContractAddress).getFaculty(departmentID), \"This Faculty is not the faculty of the requestor\");\r\n        }\r\n        require(_linkCourseExist[courseRequest.courseLink], \"This link is not requested\");\r\n        for (uint256 i = 0; i < _courseRequests.length; i++) {\r\n            if (keccak256(abi.encodePacked(_courseRequests[i].courseLink)) == keccak256(abi.encodePacked(courseRequest.courseLink))) {\r\n                _courseRequests[i] = _courseRequests[_courseRequests.length - 1];\r\n                _courseRequests.pop();\r\n            }\r\n        }\r\n        _linkCourseExist[courseRequest.courseLink] = false;\r\n    }\r\n\r\n    function getCourseRequests() public view returns (CourseRequest[] memory){\r\n        return _courseRequests;\r\n    }\r\n////////////////////////////////////////////////////////////////////////////////////////////////////////////////////////\r\n    function getDepartmentID(address departmentAddress) private returns (uint256){\r\n        for (uint256 i = 1; i <= Department(departmentContractAddress).getTotalSupply(); i++) {\r\n            if (Department(departmentContractAddress).ownerOf(i) == departmentAddress) {\r\n                return i;\r\n            }\r\n        }\r\n        return 0;\r\n    }\r\n\r\n}\r\n",
  "sourcePath": "C:\\Users\\asus\\Desktop\\Dersler\\CMPE492\\certification-project\\contracts\\Request.sol",
  "compiler": {
    "name": "solc",
    "version": "0.8.10+commit.fc410830.Emscripten.clang"
  },
  "schemaVersion": "3.4.4",
  "updatedAt": "2022-01-21T04:26:54.637Z",
  "devdoc": {
    "kind": "dev",
    "methods": {},
    "version": 1
  },
  "userdoc": {
    "kind": "user",
    "methods": {},
    "version": 1
  }
}