{
  "contractName": "Request",
  "abi": [
    {
      "inputs": [
        {
          "internalType": "address",
          "name": "_departmentContractAddress",
          "type": "address"
        },
        {
          "internalType": "address",
          "name": "_rolesContractAddress",
          "type": "address"
        }
      ],
      "stateMutability": "nonpayable",
      "type": "constructor"
    },
    {
      "inputs": [
        {
          "internalType": "string",
          "name": "_diplomaLink",
          "type": "string"
        },
        {
          "internalType": "address",
          "name": "_graduatedAddress",
          "type": "address"
        }
      ],
      "name": "createDiplomaRequest",
      "outputs": [],
      "stateMutability": "nonpayable",
      "type": "function"
    },
    {
      "inputs": [
        {
          "components": [
            {
              "internalType": "address",
              "name": "studentAddress",
              "type": "address"
            },
            {
              "internalType": "string",
              "name": "diplomaLink",
              "type": "string"
            },
            {
              "internalType": "address",
              "name": "requestorDepartment",
              "type": "address"
            },
            {
              "internalType": "bool",
              "name": "atRector",
              "type": "bool"
            }
          ],
          "internalType": "struct Request.DiplomaRequest",
          "name": "diplomaRequest",
          "type": "tuple"
        }
      ],
      "name": "approveDiplomaRequest",
      "outputs": [],
      "stateMutability": "nonpayable",
      "type": "function"
    },
    {
      "inputs": [],
      "name": "disapproveDiplomaRequest",
      "outputs": [],
      "stateMutability": "nonpayable",
      "type": "function"
    },
    {
      "inputs": [],
      "name": "getDiplomaRequests",
      "outputs": [
        {
          "components": [
            {
              "internalType": "address",
              "name": "studentAddress",
              "type": "address"
            },
            {
              "internalType": "string",
              "name": "diplomaLink",
              "type": "string"
            },
            {
              "internalType": "address",
              "name": "requestorDepartment",
              "type": "address"
            },
            {
              "internalType": "bool",
              "name": "atRector",
              "type": "bool"
            }
          ],
          "internalType": "struct Request.DiplomaRequest[]",
          "name": "",
          "type": "tuple[]"
        }
      ],
      "stateMutability": "view",
      "type": "function"
    },
    {
      "inputs": [
        {
          "internalType": "string",
          "name": "_courseLink",
          "type": "string"
        },
        {
          "internalType": "address",
          "name": "_instructorAddress",
          "type": "address"
        }
      ],
      "name": "createCourseRequest",
      "outputs": [],
      "stateMutability": "nonpayable",
      "type": "function"
    },
    {
      "inputs": [
        {
          "components": [
            {
              "internalType": "address",
              "name": "instructorAddress",
              "type": "address"
            },
            {
              "internalType": "string",
              "name": "courseLink",
              "type": "string"
            },
            {
              "internalType": "address",
              "name": "requestorDepartment",
              "type": "address"
            },
            {
              "internalType": "bool",
              "name": "atRector",
              "type": "bool"
            }
          ],
          "internalType": "struct Request.CourseRequest",
          "name": "courseRequest",
          "type": "tuple"
        }
      ],
      "name": "approveCourseRequest",
      "outputs": [],
      "stateMutability": "nonpayable",
      "type": "function"
    },
    {
      "inputs": [],
      "name": "disapproveCourseRequest",
      "outputs": [],
      "stateMutability": "nonpayable",
      "type": "function"
    },
    {
      "inputs": [],
      "name": "getCourseRequests",
      "outputs": [
        {
          "components": [
            {
              "internalType": "address",
              "name": "instructorAddress",
              "type": "address"
            },
            {
              "internalType": "string",
              "name": "courseLink",
              "type": "string"
            },
            {
              "internalType": "address",
              "name": "requestorDepartment",
              "type": "address"
            },
            {
              "internalType": "bool",
              "name": "atRector",
              "type": "bool"
            }
          ],
          "internalType": "struct Request.CourseRequest[]",
          "name": "",
          "type": "tuple[]"
        }
      ],
      "stateMutability": "view",
      "type": "function"
    }
  ],
  "bytecode": "0x60806040523480156200001157600080fd5b5060405162002d0238038062002d0283398181016040528101906200003791906200012a565b816000806101000a81548173ffffffffffffffffffffffffffffffffffffffff021916908373ffffffffffffffffffffffffffffffffffffffff16021790555080600160006101000a81548173ffffffffffffffffffffffffffffffffffffffff021916908373ffffffffffffffffffffffffffffffffffffffff160217905550505062000171565b600080fd5b600073ffffffffffffffffffffffffffffffffffffffff82169050919050565b6000620000f282620000c5565b9050919050565b6200010481620000e5565b81146200011057600080fd5b50565b6000815190506200012481620000f9565b92915050565b60008060408385031215620001445762000143620000c0565b5b6000620001548582860162000113565b9250506020620001678582860162000113565b9150509250929050565b612b8180620001816000396000f3fe608060405234801561001057600080fd5b50600436106100875760003560e01c8063a31b86a41161005b578063a31b86a4146100ec578063bd3905f51461010a578063be1064d814610126578063e7fbdc651461013057610087565b806287171a1461008c5780630a174e10146100aa5780636c713cbf146100c6578063a16d7c8e146100e2575b600080fd5b61009461014c565b6040516100a19190611b97565b60405180910390f35b6100c460048036038101906100bf9190611df8565b610304565b005b6100e060048036038101906100db9190611e41565b6103e2565b005b6100ea610a1d565b005b6100f4610afa565b6040516101019190611fc2565b60405180910390f35b610124600480360381019061011f9190611e41565b610cb2565b005b61012e611208565b005b61014a60048036038101906101459190612078565b6112e5565b005b60606005805480602002602001604051908101604052809291908181526020016000905b828210156102fb57838290600052602060002090600302016040518060800160405290816000820160009054906101000a900473ffffffffffffffffffffffffffffffffffffffff1673ffffffffffffffffffffffffffffffffffffffff1673ffffffffffffffffffffffffffffffffffffffff1681526020016001820180546101f9906120f0565b80601f0160208091040260200160405190810160405280929190818152602001828054610225906120f0565b80156102725780601f1061024757610100808354040283529160200191610272565b820191906000526020600020905b81548152906001019060200180831161025557829003601f168201915b505050505081526020016002820160009054906101000a900473ffffffffffffffffffffffffffffffffffffffff1673ffffffffffffffffffffffffffffffffffffffff1673ffffffffffffffffffffffffffffffffffffffff1681526020016002820160149054906101000a900460ff16151515158152505081526020019060010190610170565b50505050905090565b600160009054906101000a900473ffffffffffffffffffffffffffffffffffffffff1673ffffffffffffffffffffffffffffffffffffffff1663e78af7c5336040518263ffffffff1660e01b815260040161035f9190612131565b602060405180830381865afa15801561037c573d6000803e3d6000fd5b505050506040513d601f19601f820116820180604052508101906103a09190612161565b6103df576040517f08c379a00000000000000000000000000000000000000000000000000000000081526004016103d6906121eb565b60405180910390fd5b50565b600160009054906101000a900473ffffffffffffffffffffffffffffffffffffffff1673ffffffffffffffffffffffffffffffffffffffff1663e17f6b2c336040518263ffffffff1660e01b815260040161043d9190612131565b602060405180830381865afa15801561045a573d6000803e3d6000fd5b505050506040513d601f19601f8201168201806040525081019061047e9190612161565b6104bd576040517f08c379a00000000000000000000000000000000000000000000000000000000081526004016104b490612257565b60405180910390fd5b600160009054906101000a900473ffffffffffffffffffffffffffffffffffffffff1673ffffffffffffffffffffffffffffffffffffffff1663fc3ba6b4826040518263ffffffff1660e01b81526004016105189190612131565b602060405180830381865afa158015610535573d6000803e3d6000fd5b505050506040513d601f19601f820116820180604052508101906105599190612161565b610598576040517f08c379a000000000000000000000000000000000000000000000000000000000815260040161058f906122e9565b60405180910390fd5b6003826040516105a89190612345565b908152602001604051809103902060009054906101000a900460ff1615610604576040517f08c379a00000000000000000000000000000000000000000000000000000000081526004016105fb906123ce565b60405180910390fd5b600460008273ffffffffffffffffffffffffffffffffffffffff1673ffffffffffffffffffffffffffffffffffffffff16815260200190815260200160002060009054906101000a900460ff1615610691576040517f08c379a000000000000000000000000000000000000000000000000000000000815260040161068890612460565b60405180910390fd5b600061069c33611749565b9050600081116106e1576040517f08c379a00000000000000000000000000000000000000000000000000000000081526004016106d8906124f2565b60405180910390fd5b60008060009054906101000a900473ffffffffffffffffffffffffffffffffffffffff1673ffffffffffffffffffffffffffffffffffffffff166375c2f8f0836040518263ffffffff1660e01b815260040161073d919061252b565b600060405180830381865afa15801561075a573d6000803e3d6000fd5b505050506040513d6000823e3d601f19601f820116820180604052508101906107839190612623565b90506000805b82518110156107f8578473ffffffffffffffffffffffffffffffffffffffff168382815181106107bc576107bb61266c565b5b602002602001015173ffffffffffffffffffffffffffffffffffffffff1614156107e557600191505b80806107f0906126ca565b915050610789565b5080610839576040517f08c379a000000000000000000000000000000000000000000000000000000000815260040161083090612785565b60405180910390fd5b600060405180608001604052808673ffffffffffffffffffffffffffffffffffffffff1681526020018781526020013373ffffffffffffffffffffffffffffffffffffffff168152602001600015158152509050600281908060018154018082558091505060019003906000526020600020906003020160009091909190915060008201518160000160006101000a81548173ffffffffffffffffffffffffffffffffffffffff021916908373ffffffffffffffffffffffffffffffffffffffff160217905550602082015181600101908051906020019061091c9291906118da565b5060408201518160020160006101000a81548173ffffffffffffffffffffffffffffffffffffffff021916908373ffffffffffffffffffffffffffffffffffffffff16021790555060608201518160020160146101000a81548160ff021916908315150217905550505060016003876040516109989190612345565b908152602001604051809103902060006101000a81548160ff0219169083151502179055506001600460008773ffffffffffffffffffffffffffffffffffffffff1673ffffffffffffffffffffffffffffffffffffffff16815260200190815260200160002060006101000a81548160ff021916908315150217905550505050505050565b600160009054906101000a900473ffffffffffffffffffffffffffffffffffffffff1673ffffffffffffffffffffffffffffffffffffffff1663e78af7c5336040518263ffffffff1660e01b8152600401610a789190612131565b602060405180830381865afa158015610a95573d6000803e3d6000fd5b505050506040513d601f19601f82011682018060405250810190610ab99190612161565b610af8576040517f08c379a0000000000000000000000000000000000000000000000000000000008152600401610aef906121eb565b60405180910390fd5b565b60606002805480602002602001604051908101604052809291908181526020016000905b82821015610ca957838290600052602060002090600302016040518060800160405290816000820160009054906101000a900473ffffffffffffffffffffffffffffffffffffffff1673ffffffffffffffffffffffffffffffffffffffff1673ffffffffffffffffffffffffffffffffffffffff168152602001600182018054610ba7906120f0565b80601f0160208091040260200160405190810160405280929190818152602001828054610bd3906120f0565b8015610c205780601f10610bf557610100808354040283529160200191610c20565b820191906000526020600020905b815481529060010190602001808311610c0357829003601f168201915b505050505081526020016002820160009054906101000a900473ffffffffffffffffffffffffffffffffffffffff1673ffffffffffffffffffffffffffffffffffffffff1673ffffffffffffffffffffffffffffffffffffffff1681526020016002820160149054906101000a900460ff16151515158152505081526020019060010190610b1e565b50505050905090565b600160009054906101000a900473ffffffffffffffffffffffffffffffffffffffff1673ffffffffffffffffffffffffffffffffffffffff1663e17f6b2c336040518263ffffffff1660e01b8152600401610d0d9190612131565b602060405180830381865afa158015610d2a573d6000803e3d6000fd5b505050506040513d601f19601f82011682018060405250810190610d4e9190612161565b610d8d576040517f08c379a0000000000000000000000000000000000000000000000000000000008152600401610d8490612257565b60405180910390fd5b600160009054906101000a900473ffffffffffffffffffffffffffffffffffffffff1673ffffffffffffffffffffffffffffffffffffffff16639822a599826040518263ffffffff1660e01b8152600401610de89190612131565b602060405180830381865afa158015610e05573d6000803e3d6000fd5b505050506040513d601f19601f82011682018060405250810190610e299190612161565b610e68576040517f08c379a0000000000000000000000000000000000000000000000000000000008152600401610e5f90612817565b60405180910390fd5b600682604051610e789190612345565b908152602001604051809103902060009054906101000a900460ff1615610ed4576040517f08c379a0000000000000000000000000000000000000000000000000000000008152600401610ecb906123ce565b60405180910390fd5b6000610edf33611749565b905060008111610f24576040517f08c379a0000000000000000000000000000000000000000000000000000000008152600401610f1b906124f2565b60405180910390fd5b60008060009054906101000a900473ffffffffffffffffffffffffffffffffffffffff1673ffffffffffffffffffffffffffffffffffffffff166347519ab7836040518263ffffffff1660e01b8152600401610f80919061252b565b600060405180830381865afa158015610f9d573d6000803e3d6000fd5b505050506040513d6000823e3d601f19601f82011682018060405250810190610fc69190612623565b90506000805b825181101561103b578473ffffffffffffffffffffffffffffffffffffffff16838281518110610fff57610ffe61266c565b5b602002602001015173ffffffffffffffffffffffffffffffffffffffff16141561102857600191505b8080611033906126ca565b915050610fcc565b508061107c576040517f08c379a0000000000000000000000000000000000000000000000000000000008152600401611073906128a9565b60405180910390fd5b600060405180608001604052808673ffffffffffffffffffffffffffffffffffffffff1681526020018781526020013373ffffffffffffffffffffffffffffffffffffffff168152602001600015158152509050600581908060018154018082558091505060019003906000526020600020906003020160009091909190915060008201518160000160006101000a81548173ffffffffffffffffffffffffffffffffffffffff021916908373ffffffffffffffffffffffffffffffffffffffff160217905550602082015181600101908051906020019061115f9291906118da565b5060408201518160020160006101000a81548173ffffffffffffffffffffffffffffffffffffffff021916908373ffffffffffffffffffffffffffffffffffffffff16021790555060608201518160020160146101000a81548160ff021916908315150217905550505060016006876040516111db9190612345565b908152602001604051809103902060006101000a81548160ff021916908315150217905550505050505050565b600160009054906101000a900473ffffffffffffffffffffffffffffffffffffffff1673ffffffffffffffffffffffffffffffffffffffff1663e78af7c5336040518263ffffffff1660e01b81526004016112639190612131565b602060405180830381865afa158015611280573d6000803e3d6000fd5b505050506040513d601f19601f820116820180604052508101906112a49190612161565b6112e3576040517f08c379a00000000000000000000000000000000000000000000000000000000081526004016112da906121eb565b60405180910390fd5b565b600160009054906101000a900473ffffffffffffffffffffffffffffffffffffffff1673ffffffffffffffffffffffffffffffffffffffff1663e78af7c5336040518263ffffffff1660e01b81526004016113409190612131565b602060405180830381865afa15801561135d573d6000803e3d6000fd5b505050506040513d601f19601f820116820180604052508101906113819190612161565b6113c0576040517f08c379a00000000000000000000000000000000000000000000000000000000081526004016113b7906121eb565b60405180910390fd5b60001515816060015115151461140b576040517f08c379a000000000000000000000000000000000000000000000000000000000815260040161140290612915565b60405180910390fd5b6003816020015160405161141f9190612345565b908152602001604051809103902060009054906101000a900460ff1661147a576040517f08c379a000000000000000000000000000000000000000000000000000000000815260040161147190612981565b60405180910390fd5b60046000826000015173ffffffffffffffffffffffffffffffffffffffff1673ffffffffffffffffffffffffffffffffffffffff16815260200190815260200160002060009054906101000a900460ff1661150a576040517f08c379a000000000000000000000000000000000000000000000000000000000815260040161150190612a13565b60405180910390fd5b60006115198260400151611749565b90506000811161155e576040517f08c379a0000000000000000000000000000000000000000000000000000000008152600401611555906124f2565b60405180910390fd5b60008054906101000a900473ffffffffffffffffffffffffffffffffffffffff1673ffffffffffffffffffffffffffffffffffffffff16631fd76cfb826040518263ffffffff1660e01b81526004016115b7919061252b565b602060405180830381865afa1580156115d4573d6000803e3d6000fd5b505050506040513d601f19601f820116820180604052508101906115f89190612a33565b73ffffffffffffffffffffffffffffffffffffffff163373ffffffffffffffffffffffffffffffffffffffff1614611665576040517f08c379a000000000000000000000000000000000000000000000000000000000815260040161165c90612ad2565b60405180910390fd5b60005b60028054905081101561174457826000015173ffffffffffffffffffffffffffffffffffffffff16600282815481106116a4576116a361266c565b5b906000526020600020906003020160000160009054906101000a900473ffffffffffffffffffffffffffffffffffffffff1673ffffffffffffffffffffffffffffffffffffffff161415611731576001600282815481106117085761170761266c565b5b906000526020600020906003020160020160146101000a81548160ff0219169083151502179055505b808061173c906126ca565b915050611668565b505050565b600080600190505b60008054906101000a900473ffffffffffffffffffffffffffffffffffffffff1673ffffffffffffffffffffffffffffffffffffffff1663c4e41b226040518163ffffffff1660e01b8152600401602060405180830381865afa1580156117bc573d6000803e3d6000fd5b505050506040513d601f19601f820116820180604052508101906117e09190612b1e565b81116118cf573373ffffffffffffffffffffffffffffffffffffffff1660008054906101000a900473ffffffffffffffffffffffffffffffffffffffff1673ffffffffffffffffffffffffffffffffffffffff16636352211e836040518263ffffffff1660e01b8152600401611856919061252b565b602060405180830381865afa158015611873573d6000803e3d6000fd5b505050506040513d601f19601f820116820180604052508101906118979190612a33565b73ffffffffffffffffffffffffffffffffffffffff1614156118bc57809150506118d5565b80806118c7906126ca565b915050611751565b50600090505b919050565b8280546118e6906120f0565b90600052602060002090601f016020900481019282611908576000855561194f565b82601f1061192157805160ff191683800117855561194f565b8280016001018555821561194f579182015b8281111561194e578251825591602001919060010190611933565b5b50905061195c9190611960565b5090565b5b80821115611979576000816000905550600101611961565b5090565b600081519050919050565b600082825260208201905092915050565b6000819050602082019050919050565b600073ffffffffffffffffffffffffffffffffffffffff82169050919050565b60006119d4826119a9565b9050919050565b6119e4816119c9565b82525050565b600081519050919050565b600082825260208201905092915050565b60005b83811015611a24578082015181840152602081019050611a09565b83811115611a33576000848401525b50505050565b6000601f19601f8301169050919050565b6000611a55826119ea565b611a5f81856119f5565b9350611a6f818560208601611a06565b611a7881611a39565b840191505092915050565b60008115159050919050565b611a9881611a83565b82525050565b6000608083016000830151611ab660008601826119db565b5060208301518482036020860152611ace8282611a4a565b9150506040830151611ae360408601826119db565b506060830151611af66060860182611a8f565b508091505092915050565b6000611b0d8383611a9e565b905092915050565b6000602082019050919050565b6000611b2d8261197d565b611b378185611988565b935083602082028501611b4985611999565b8060005b85811015611b855784840389528151611b668582611b01565b9450611b7183611b15565b925060208a01995050600181019050611b4d565b50829750879550505050505092915050565b60006020820190508181036000830152611bb18184611b22565b905092915050565b6000604051905090565b600080fd5b600080fd5b600080fd5b7f4e487b7100000000000000000000000000000000000000000000000000000000600052604160045260246000fd5b611c0a82611a39565b810181811067ffffffffffffffff82111715611c2957611c28611bd2565b5b80604052505050565b6000611c3c611bb9565b9050611c488282611c01565b919050565b600080fd5b611c5b816119c9565b8114611c6657600080fd5b50565b600081359050611c7881611c52565b92915050565b600080fd5b600080fd5b600067ffffffffffffffff821115611ca357611ca2611bd2565b5b611cac82611a39565b9050602081019050919050565b82818337600083830152505050565b6000611cdb611cd684611c88565b611c32565b905082815260208101848484011115611cf757611cf6611c83565b5b611d02848285611cb9565b509392505050565b600082601f830112611d1f57611d1e611c7e565b5b8135611d2f848260208601611cc8565b91505092915050565b611d4181611a83565b8114611d4c57600080fd5b50565b600081359050611d5e81611d38565b92915050565b600060808284031215611d7a57611d79611bcd565b5b611d846080611c32565b90506000611d9484828501611c69565b600083015250602082013567ffffffffffffffff811115611db857611db7611c4d565b5b611dc484828501611d0a565b6020830152506040611dd884828501611c69565b6040830152506060611dec84828501611d4f565b60608301525092915050565b600060208284031215611e0e57611e0d611bc3565b5b600082013567ffffffffffffffff811115611e2c57611e2b611bc8565b5b611e3884828501611d64565b91505092915050565b60008060408385031215611e5857611e57611bc3565b5b600083013567ffffffffffffffff811115611e7657611e75611bc8565b5b611e8285828601611d0a565b9250506020611e9385828601611c69565b9150509250929050565b600081519050919050565b600082825260208201905092915050565b6000819050602082019050919050565b6000608083016000830151611ee160008601826119db565b5060208301518482036020860152611ef98282611a4a565b9150506040830151611f0e60408601826119db565b506060830151611f216060860182611a8f565b508091505092915050565b6000611f388383611ec9565b905092915050565b6000602082019050919050565b6000611f5882611e9d565b611f628185611ea8565b935083602082028501611f7485611eb9565b8060005b85811015611fb05784840389528151611f918582611f2c565b9450611f9c83611f40565b925060208a01995050600181019050611f78565b50829750879550505050505092915050565b60006020820190508181036000830152611fdc8184611f4d565b905092915050565b600060808284031215611ffa57611ff9611bcd565b5b6120046080611c32565b9050600061201484828501611c69565b600083015250602082013567ffffffffffffffff81111561203857612037611c4d565b5b61204484828501611d0a565b602083015250604061205884828501611c69565b604083015250606061206c84828501611d4f565b60608301525092915050565b60006020828403121561208e5761208d611bc3565b5b600082013567ffffffffffffffff8111156120ac576120ab611bc8565b5b6120b884828501611fe4565b91505092915050565b7f4e487b7100000000000000000000000000000000000000000000000000000000600052602260045260246000fd5b6000600282049050600182168061210857607f821691505b6020821081141561211c5761211b6120c1565b5b50919050565b61212b816119c9565b82525050565b60006020820190506121466000830184612122565b92915050565b60008151905061215b81611d38565b92915050565b60006020828403121561217757612176611bc3565b5b60006121858482850161214c565b91505092915050565b600082825260208201905092915050565b7f546869732061646472657373206973206e6f74206120466163756c7479000000600082015250565b60006121d5601d8361218e565b91506121e08261219f565b602082019050919050565b60006020820190508181036000830152612204816121c8565b9050919050565b7f546869732061646472657373206973206e6f74206465706172746d656e740000600082015250565b6000612241601e8361218e565b915061224c8261220b565b602082019050919050565b6000602082019050818103600083015261227081612234565b9050919050565b7f546869732061646472657373206973206e6f7420696e2053545544454e545f5260008201527f4f4c450000000000000000000000000000000000000000000000000000000000602082015250565b60006122d360238361218e565b91506122de82612277565b604082019050919050565b60006020820190508181036000830152612302816122c6565b9050919050565b600081905092915050565b600061231f826119ea565b6123298185612309565b9350612339818560208601611a06565b80840191505092915050565b60006123518284612314565b915081905092915050565b7f54686973206c696e6b20697320616c726561647920726571756573746564206260008201527f65666f7265000000000000000000000000000000000000000000000000000000602082015250565b60006123b860258361218e565b91506123c38261235c565b604082019050919050565b600060208201905081810360008301526123e7816123ab565b9050919050565b7f546869732073747564656e742773206469706c6f6d6120697320616c7265616460008201527f7920726571756573746564206265666f72650000000000000000000000000000602082015250565b600061244a60328361218e565b9150612455826123ee565b604082019050919050565b600060208201905081810360008301526124798161243d565b9050919050565b7f526571756573746f72204465706172746d656e742063616e6e6f7420666f756e60008201527f6400000000000000000000000000000000000000000000000000000000000000602082015250565b60006124dc60218361218e565b91506124e782612480565b604082019050919050565b6000602082019050818103600083015261250b816124cf565b9050919050565b6000819050919050565b61252581612512565b82525050565b6000602082019050612540600083018461251c565b92915050565b600067ffffffffffffffff82111561256157612560611bd2565b5b602082029050602081019050919050565b600080fd5b60008151905061258681611c52565b92915050565b600061259f61259a84612546565b611c32565b905080838252602082019050602084028301858111156125c2576125c1612572565b5b835b818110156125eb57806125d78882612577565b8452602084019350506020810190506125c4565b5050509392505050565b600082601f83011261260a57612609611c7e565b5b815161261a84826020860161258c565b91505092915050565b60006020828403121561263957612638611bc3565b5b600082015167ffffffffffffffff81111561265757612656611bc8565b5b612663848285016125f5565b91505092915050565b7f4e487b7100000000000000000000000000000000000000000000000000000000600052603260045260246000fd5b7f4e487b7100000000000000000000000000000000000000000000000000000000600052601160045260246000fd5b60006126d582612512565b91507fffffffffffffffffffffffffffffffffffffffffffffffffffffffffffffffff8214156127085761270761269b565b5b600182019050919050565b7f546869732061646472657373206973206e6f74206f6e65206f6620746865207360008201527f747564656e7473206f662074686973206465706172746d656e74000000000000602082015250565b600061276f603a8361218e565b915061277a82612713565b604082019050919050565b6000602082019050818103600083015261279e81612762565b9050919050565b7f546869732061646472657373206973206e6f7420696e20494e5354525543544f60008201527f525f524f4c450000000000000000000000000000000000000000000000000000602082015250565b600061280160268361218e565b915061280c826127a5565b604082019050919050565b60006020820190508181036000830152612830816127f4565b9050919050565b7f546869732061646472657373206973206e6f74206f6e65206f6620746865206960008201527f6e7374727563746f72206f662074686973206465706172746d656e7400000000602082015250565b6000612893603c8361218e565b915061289e82612837565b604082019050919050565b600060208201905081810360008301526128c281612886565b9050919050565b7f54686973207265717565737420697320617070726f76656420616c7265616479600082015250565b60006128ff60208361218e565b915061290a826128c9565b602082019050919050565b6000602082019050818103600083015261292e816128f2565b9050919050565b7f54686973206c696e6b206973206e6f7420726571756573746564000000000000600082015250565b600061296b601a8361218e565b915061297682612935565b602082019050919050565b6000602082019050818103600083015261299a8161295e565b9050919050565b7f546869732073747564656e742773206469706c6f6d61206973206e6f7420726560008201527f7175657374656400000000000000000000000000000000000000000000000000602082015250565b60006129fd60278361218e565b9150612a08826129a1565b604082019050919050565b60006020820190508181036000830152612a2c816129f0565b9050919050565b600060208284031215612a4957612a48611bc3565b5b6000612a5784828501612577565b91505092915050565b7f5468697320466163756c7479206973206e6f742074686520666163756c74792060008201527f6f662074686520726571756573746f7200000000000000000000000000000000602082015250565b6000612abc60308361218e565b9150612ac782612a60565b604082019050919050565b60006020820190508181036000830152612aeb81612aaf565b9050919050565b612afb81612512565b8114612b0657600080fd5b50565b600081519050612b1881612af2565b92915050565b600060208284031215612b3457612b33611bc3565b5b6000612b4284828501612b09565b9150509291505056fea2646970667358221220275a32b27bba63582f73826f82ae10ece2498d3b92fc768257274462e2a4564e64736f6c634300080a0033",
  "immutableReferences": {},
  "source": "pragma solidity ^0.8.10;\r\n\r\nimport \"./Department.sol\";\r\nimport \"./Roles.sol\";\r\n\r\ncontract Request {\r\n\r\n    address departmentContractAddress;\r\n    address rolesContractAddress;\r\n\r\n    struct DiplomaRequest{\r\n        address studentAddress;\r\n        string diplomaLink;\r\n        address requestorDepartment;\r\n        bool atRector;\r\n    }\r\n    //DiplomaRequest list\r\n    DiplomaRequest[] _diplomaRequests;\r\n    //is Diploma link in _diplomaRequests exist\r\n    mapping(string => bool) _linkDiplomaExist;\r\n    //is Diploma student in _diplomaRequests exist\r\n    mapping(address => bool) _studentRequestExist;\r\n\r\n    constructor(address _departmentContractAddress, address _rolesContractAddress){\r\n        departmentContractAddress = _departmentContractAddress;\r\n        rolesContractAddress = _rolesContractAddress;\r\n    }\r\n\r\n    function createDiplomaRequest(string memory _diplomaLink, address _graduatedAddress) public{\r\n        //Requirements\r\n        require(Roles(rolesContractAddress).hasDepartmentRole(msg.sender), \"This address is not department\");\r\n        require(Roles(rolesContractAddress).hasStudentRole(_graduatedAddress), \"This address is not in STUDENT_ROLE\");\r\n        require(!_linkDiplomaExist[_diplomaLink], \"This link is already requested before\");\r\n        require(!_studentRequestExist[_graduatedAddress], \"This student's diploma is already requested before\");\r\n        uint256 departmentID = getDepartmentID(msg.sender);\r\n        require(departmentID > 0, \"Requestor Department cannot found\");\r\n        address[] memory students = Department(departmentContractAddress).getStudents(departmentID);\r\n        bool studentExist = false;\r\n        for(uint i = 0; i<students.length; i++){\r\n            if(students[i] == _graduatedAddress){\r\n                studentExist = true;\r\n            }\r\n        }\r\n        require(studentExist, \"This address is not one of the students of this department\");\r\n        DiplomaRequest memory request = DiplomaRequest(_graduatedAddress,_diplomaLink, msg.sender, false);\r\n        _diplomaRequests.push(request);\r\n        _linkDiplomaExist[_diplomaLink] = true;\r\n        _studentRequestExist[_graduatedAddress] = true;\r\n    }\r\n    function approveDiplomaRequest(DiplomaRequest memory diplomaRequest) public{\r\n        //Requirements\r\n        require(Roles(rolesContractAddress).hasFacultyRole(msg.sender), \"This address is not a Faculty\");\r\n        require(diplomaRequest.atRector == false, \"This request is approved already\");\r\n        require(_linkDiplomaExist[diplomaRequest.diplomaLink], \"This link is not requested\");\r\n        require(_studentRequestExist[diplomaRequest.studentAddress], \"This student's diploma is not requested\");\r\n\r\n        uint256 departmentID = getDepartmentID(diplomaRequest.requestorDepartment);\r\n        require(departmentID > 0, \"Requestor Department cannot found\");\r\n        require(msg.sender == Department(departmentContractAddress).getFaculty(departmentID), \"This Faculty is not the faculty of the requestor\");\r\n\r\n        //Approval\r\n        for(uint256 i = 0; i<_diplomaRequests.length; i++){\r\n            if(_diplomaRequests[i].studentAddress == diplomaRequest.studentAddress){\r\n                _diplomaRequests[i].atRector = true;\r\n            }\r\n        }\r\n    }\r\n    function disapproveDiplomaRequest() public{\r\n        require(Roles(rolesContractAddress).hasFacultyRole(msg.sender), \"This address is not a Faculty\");\r\n    }\r\n    function getDiplomaRequests() public view returns (DiplomaRequest[] memory){\r\n        return _diplomaRequests;\r\n    }\r\n\r\n    struct CourseRequest{\r\n        address instructorAddress;\r\n        string courseLink;\r\n        address requestorDepartment;\r\n        bool atRector;\r\n    }\r\n    //CourseRequest list\r\n    CourseRequest[] _courseRequests;\r\n    //is Diploma link in _courseRequests exist\r\n    mapping(string => bool) _linkCourseExist;\r\n\r\n    function createCourseRequest(string memory _courseLink, address _instructorAddress) public{\r\n        //Requirements\r\n        require(Roles(rolesContractAddress).hasDepartmentRole(msg.sender), \"This address is not department\");\r\n        require(Roles(rolesContractAddress).hasInstructorRole(_instructorAddress), \"This address is not in INSTRUCTOR_ROLE\");\r\n        require(!_linkCourseExist[_courseLink], \"This link is already requested before\");\r\n        uint256 departmentID = getDepartmentID(msg.sender);\r\n        require(departmentID > 0, \"Requestor Department cannot found\");\r\n        address[] memory instructors = Department(departmentContractAddress).getInstructors(departmentID);\r\n        bool instructorExist = false;\r\n        for(uint i = 0; i<instructors.length; i++){\r\n            if(instructors[i] == _instructorAddress){\r\n                instructorExist = true;\r\n            }\r\n        }\r\n        require(instructorExist, \"This address is not one of the instructor of this department\");\r\n        CourseRequest memory request = CourseRequest(_instructorAddress,_courseLink, msg.sender, false);\r\n        _courseRequests.push(request);\r\n        _linkCourseExist[_courseLink] = true;\r\n    }\r\n    function approveCourseRequest(CourseRequest memory courseRequest) public{\r\n        //Requirements\r\n        require(Roles(rolesContractAddress).hasFacultyRole(msg.sender), \"This address is not a Faculty\");\r\n    }\r\n    function disapproveCourseRequest() public{\r\n        require(Roles(rolesContractAddress).hasFacultyRole(msg.sender), \"This address is not a Faculty\");\r\n    }\r\n    function getCourseRequests() public view returns (CourseRequest[] memory){\r\n        return _courseRequests;\r\n    }\r\n\r\n    function getDepartmentID(address departmentAddress) private returns(uint256){\r\n        for(uint256 i = 1; i<=Department(departmentContractAddress).getTotalSupply(); i++){\r\n            if(Department(departmentContractAddress).ownerOf(i) == msg.sender){\r\n                return i;\r\n            }\r\n        }\r\n        return 0;\r\n    }\r\n\r\n}\r\n",
  "sourcePath": "C:\\Users\\asus\\Desktop\\Dersler\\CMPE492\\certification-project\\contracts\\Request.sol",
  "compiler": {
    "name": "solc",
    "version": "0.8.10+commit.fc410830.Emscripten.clang"
  },
  "schemaVersion": "3.4.4",
  "updatedAt": "2022-01-19T02:01:55.479Z",
  "devdoc": {
    "kind": "dev",
    "methods": {},
    "version": 1
  },
  "userdoc": {
    "kind": "user",
    "methods": {},
    "version": 1
  }
}