{
  "contractName": "Request",
  "abi": [
    {
      "inputs": [
        {
          "internalType": "address",
          "name": "_departmentContractAddress",
          "type": "address"
        },
        {
          "internalType": "address",
          "name": "_rolesContractAddress",
          "type": "address"
        }
      ],
      "stateMutability": "nonpayable",
      "type": "constructor"
    },
    {
      "inputs": [
        {
          "internalType": "string",
          "name": "_diplomaLink",
          "type": "string"
        },
        {
          "internalType": "address",
          "name": "_graduatedAddress",
          "type": "address"
        }
      ],
      "name": "createDiplomaRequest",
      "outputs": [],
      "stateMutability": "nonpayable",
      "type": "function"
    },
    {
      "inputs": [
        {
          "components": [
            {
              "internalType": "address",
              "name": "studentAddress",
              "type": "address"
            },
            {
              "internalType": "string",
              "name": "diplomaLink",
              "type": "string"
            },
            {
              "internalType": "address",
              "name": "requestorDepartment",
              "type": "address"
            },
            {
              "internalType": "bool",
              "name": "atRector",
              "type": "bool"
            }
          ],
          "internalType": "struct Request.DiplomaRequest",
          "name": "diplomaRequest",
          "type": "tuple"
        }
      ],
      "name": "approveDiplomaRequest",
      "outputs": [],
      "stateMutability": "nonpayable",
      "type": "function"
    },
    {
      "inputs": [
        {
          "components": [
            {
              "internalType": "address",
              "name": "studentAddress",
              "type": "address"
            },
            {
              "internalType": "string",
              "name": "diplomaLink",
              "type": "string"
            },
            {
              "internalType": "address",
              "name": "requestorDepartment",
              "type": "address"
            },
            {
              "internalType": "bool",
              "name": "atRector",
              "type": "bool"
            }
          ],
          "internalType": "struct Request.DiplomaRequest",
          "name": "diplomaRequest",
          "type": "tuple"
        }
      ],
      "name": "disapproveDiplomaRequest",
      "outputs": [],
      "stateMutability": "nonpayable",
      "type": "function"
    },
    {
      "inputs": [],
      "name": "getDiplomaRequests",
      "outputs": [
        {
          "components": [
            {
              "internalType": "address",
              "name": "studentAddress",
              "type": "address"
            },
            {
              "internalType": "string",
              "name": "diplomaLink",
              "type": "string"
            },
            {
              "internalType": "address",
              "name": "requestorDepartment",
              "type": "address"
            },
            {
              "internalType": "bool",
              "name": "atRector",
              "type": "bool"
            }
          ],
          "internalType": "struct Request.DiplomaRequest[]",
          "name": "",
          "type": "tuple[]"
        }
      ],
      "stateMutability": "view",
      "type": "function"
    },
    {
      "inputs": [
        {
          "internalType": "string",
          "name": "_courseLink",
          "type": "string"
        },
        {
          "internalType": "address",
          "name": "_instructorAddress",
          "type": "address"
        }
      ],
      "name": "createCourseRequest",
      "outputs": [],
      "stateMutability": "nonpayable",
      "type": "function"
    },
    {
      "inputs": [
        {
          "components": [
            {
              "internalType": "address",
              "name": "instructorAddress",
              "type": "address"
            },
            {
              "internalType": "string",
              "name": "courseLink",
              "type": "string"
            },
            {
              "internalType": "address",
              "name": "requestorDepartment",
              "type": "address"
            },
            {
              "internalType": "bool",
              "name": "atRector",
              "type": "bool"
            }
          ],
          "internalType": "struct Request.CourseRequest",
          "name": "courseRequest",
          "type": "tuple"
        }
      ],
      "name": "approveCourseRequest",
      "outputs": [],
      "stateMutability": "nonpayable",
      "type": "function"
    },
    {
      "inputs": [
        {
          "components": [
            {
              "internalType": "address",
              "name": "instructorAddress",
              "type": "address"
            },
            {
              "internalType": "string",
              "name": "courseLink",
              "type": "string"
            },
            {
              "internalType": "address",
              "name": "requestorDepartment",
              "type": "address"
            },
            {
              "internalType": "bool",
              "name": "atRector",
              "type": "bool"
            }
          ],
          "internalType": "struct Request.CourseRequest",
          "name": "courseRequest",
          "type": "tuple"
        }
      ],
      "name": "disapproveCourseRequest",
      "outputs": [],
      "stateMutability": "nonpayable",
      "type": "function"
    },
    {
      "inputs": [],
      "name": "getCourseRequests",
      "outputs": [
        {
          "components": [
            {
              "internalType": "address",
              "name": "instructorAddress",
              "type": "address"
            },
            {
              "internalType": "string",
              "name": "courseLink",
              "type": "string"
            },
            {
              "internalType": "address",
              "name": "requestorDepartment",
              "type": "address"
            },
            {
              "internalType": "bool",
              "name": "atRector",
              "type": "bool"
            }
          ],
          "internalType": "struct Request.CourseRequest[]",
          "name": "",
          "type": "tuple[]"
        }
      ],
      "stateMutability": "view",
      "type": "function"
    }
  ],
  "bytecode": "0x60806040523480156200001157600080fd5b5060405162003ce738038062003ce783398181016040528101906200003791906200012a565b816000806101000a81548173ffffffffffffffffffffffffffffffffffffffff021916908373ffffffffffffffffffffffffffffffffffffffff16021790555080600160006101000a81548173ffffffffffffffffffffffffffffffffffffffff021916908373ffffffffffffffffffffffffffffffffffffffff160217905550505062000171565b600080fd5b600073ffffffffffffffffffffffffffffffffffffffff82169050919050565b6000620000f282620000c5565b9050919050565b6200010481620000e5565b81146200011057600080fd5b50565b6000815190506200012481620000f9565b92915050565b60008060408385031215620001445762000143620000c0565b5b6000620001548582860162000113565b9250506020620001678582860162000113565b9150509250929050565b613b6680620001816000396000f3fe608060405234801561001057600080fd5b50600436106100875760003560e01c8063a31b86a41161005b578063a31b86a4146100fe578063ab18fc671461011c578063bd3905f514610138578063e7fbdc651461015457610087565b806287171a1461008c5780630a174e10146100aa5780634af47a7a146100c65780636c713cbf146100e2575b600080fd5b610094610170565b6040516100a19190612a6e565b60405180910390f35b6100c460048036038101906100bf9190612ccf565b610328565b005b6100e060048036038101906100db9190612ccf565b6106fb565b005b6100fc60048036038101906100f79190612d18565b610cdb565b005b610106611316565b6040516101139190612e99565b60405180910390f35b61013660048036038101906101319190612f4f565b6114ce565b005b610152600480360381019061014d9190612d18565b611b9a565b005b61016e60048036038101906101699190612f4f565b6120f0565b005b60606005805480602002602001604051908101604052809291908181526020016000905b8282101561031f57838290600052602060002090600302016040518060800160405290816000820160009054906101000a900473ffffffffffffffffffffffffffffffffffffffff1673ffffffffffffffffffffffffffffffffffffffff1673ffffffffffffffffffffffffffffffffffffffff16815260200160018201805461021d90612fc7565b80601f016020809104026020016040519081016040528092919081815260200182805461024990612fc7565b80156102965780601f1061026b57610100808354040283529160200191610296565b820191906000526020600020905b81548152906001019060200180831161027957829003601f168201915b505050505081526020016002820160009054906101000a900473ffffffffffffffffffffffffffffffffffffffff1673ffffffffffffffffffffffffffffffffffffffff1673ffffffffffffffffffffffffffffffffffffffff1681526020016002820160149054906101000a900460ff16151515158152505081526020019060010190610194565b50505050905090565b600160009054906101000a900473ffffffffffffffffffffffffffffffffffffffff1673ffffffffffffffffffffffffffffffffffffffff1663e78af7c5336040518263ffffffff1660e01b81526004016103839190613008565b602060405180830381865afa1580156103a0573d6000803e3d6000fd5b505050506040513d601f19601f820116820180604052508101906103c49190613038565b610403576040517f08c379a00000000000000000000000000000000000000000000000000000000081526004016103fa906130c2565b60405180910390fd5b60001515816060015115151461044e576040517f08c379a00000000000000000000000000000000000000000000000000000000081526004016104459061312e565b60405180910390fd5b60068160200151604051610462919061318a565b908152602001604051809103902060009054906101000a900460ff166104bd576040517f08c379a00000000000000000000000000000000000000000000000000000000081526004016104b4906131ed565b60405180910390fd5b60006104cc8260400151612553565b905060008111610511576040517f08c379a00000000000000000000000000000000000000000000000000000000081526004016105089061327f565b60405180910390fd5b60008054906101000a900473ffffffffffffffffffffffffffffffffffffffff1673ffffffffffffffffffffffffffffffffffffffff16631fd76cfb826040518263ffffffff1660e01b815260040161056a91906132b8565b602060405180830381865afa158015610587573d6000803e3d6000fd5b505050506040513d601f19601f820116820180604052508101906105ab91906132e8565b73ffffffffffffffffffffffffffffffffffffffff163373ffffffffffffffffffffffffffffffffffffffff1614610618576040517f08c379a000000000000000000000000000000000000000000000000000000000815260040161060f90613387565b60405180910390fd5b60005b6005805490508110156106f657826020015160405160200161063d919061318a565b6040516020818303038152906040528051906020012060058281548110610667576106666133a7565b5b9060005260206000209060030201600101604051602001610688919061346a565b6040516020818303038152906040528051906020012014156106e3576001600582815481106106ba576106b96133a7565b5b906000526020600020906003020160020160146101000a81548160ff0219169083151502179055505b80806106ee906134b0565b91505061061b565b505050565b600160009054906101000a900473ffffffffffffffffffffffffffffffffffffffff1673ffffffffffffffffffffffffffffffffffffffff1663e78af7c5336040518263ffffffff1660e01b81526004016107569190613008565b602060405180830381865afa158015610773573d6000803e3d6000fd5b505050506040513d601f19601f820116820180604052508101906107979190613038565b6107d6576040517f08c379a00000000000000000000000000000000000000000000000000000000081526004016107cd906130c2565b60405180910390fd5b600015158160600151151514610821576040517f08c379a00000000000000000000000000000000000000000000000000000000081526004016108189061312e565b60405180910390fd5b60068160200151604051610835919061318a565b908152602001604051809103902060009054906101000a900460ff16610890576040517f08c379a0000000000000000000000000000000000000000000000000000000008152600401610887906131ed565b60405180910390fd5b600061089f8260400151612553565b9050600081116108e4576040517f08c379a00000000000000000000000000000000000000000000000000000000081526004016108db9061327f565b60405180910390fd5b60008054906101000a900473ffffffffffffffffffffffffffffffffffffffff1673ffffffffffffffffffffffffffffffffffffffff16631fd76cfb826040518263ffffffff1660e01b815260040161093d91906132b8565b602060405180830381865afa15801561095a573d6000803e3d6000fd5b505050506040513d601f19601f8201168201806040525081019061097e91906132e8565b73ffffffffffffffffffffffffffffffffffffffff163373ffffffffffffffffffffffffffffffffffffffff16146109eb576040517f08c379a00000000000000000000000000000000000000000000000000000000081526004016109e290613387565b60405180910390fd5b60005b600580549050811015610c9b578260200151604051602001610a10919061318a565b6040516020818303038152906040528051906020012060058281548110610a3a57610a396133a7565b5b9060005260206000209060030201600101604051602001610a5b919061346a565b604051602081830303815290604052805190602001201415610c885760056001600580549050610a8b91906134f9565b81548110610a9c57610a9b6133a7565b5b906000526020600020906003020160058281548110610abe57610abd6133a7565b5b90600052602060002090600302016000820160009054906101000a900473ffffffffffffffffffffffffffffffffffffffff168160000160006101000a81548173ffffffffffffffffffffffffffffffffffffffff021916908373ffffffffffffffffffffffffffffffffffffffff1602179055506001820181600101908054610b4790612fc7565b610b529291906126e4565b506002820160009054906101000a900473ffffffffffffffffffffffffffffffffffffffff168160020160006101000a81548173ffffffffffffffffffffffffffffffffffffffff021916908373ffffffffffffffffffffffffffffffffffffffff1602179055506002820160149054906101000a900460ff168160020160146101000a81548160ff0219169083151502179055509050506005805480610bfc57610bfb61352d565b5b6001900381819060005260206000209060030201600080820160006101000a81549073ffffffffffffffffffffffffffffffffffffffff0219169055600182016000610c489190612771565b6002820160006101000a81549073ffffffffffffffffffffffffffffffffffffffff02191690556002820160146101000a81549060ff0219169055505090555b8080610c93906134b0565b9150506109ee565b50600060068360200151604051610cb2919061318a565b908152602001604051809103902060006101000a81548160ff0219169083151502179055505050565b600160009054906101000a900473ffffffffffffffffffffffffffffffffffffffff1673ffffffffffffffffffffffffffffffffffffffff1663e17f6b2c336040518263ffffffff1660e01b8152600401610d369190613008565b602060405180830381865afa158015610d53573d6000803e3d6000fd5b505050506040513d601f19601f82011682018060405250810190610d779190613038565b610db6576040517f08c379a0000000000000000000000000000000000000000000000000000000008152600401610dad906135a8565b60405180910390fd5b600160009054906101000a900473ffffffffffffffffffffffffffffffffffffffff1673ffffffffffffffffffffffffffffffffffffffff1663fc3ba6b4826040518263ffffffff1660e01b8152600401610e119190613008565b602060405180830381865afa158015610e2e573d6000803e3d6000fd5b505050506040513d601f19601f82011682018060405250810190610e529190613038565b610e91576040517f08c379a0000000000000000000000000000000000000000000000000000000008152600401610e889061363a565b60405180910390fd5b600382604051610ea1919061318a565b908152602001604051809103902060009054906101000a900460ff1615610efd576040517f08c379a0000000000000000000000000000000000000000000000000000000008152600401610ef4906136cc565b60405180910390fd5b600460008273ffffffffffffffffffffffffffffffffffffffff1673ffffffffffffffffffffffffffffffffffffffff16815260200190815260200160002060009054906101000a900460ff1615610f8a576040517f08c379a0000000000000000000000000000000000000000000000000000000008152600401610f819061375e565b60405180910390fd5b6000610f9533612553565b905060008111610fda576040517f08c379a0000000000000000000000000000000000000000000000000000000008152600401610fd19061327f565b60405180910390fd5b60008060009054906101000a900473ffffffffffffffffffffffffffffffffffffffff1673ffffffffffffffffffffffffffffffffffffffff166375c2f8f0836040518263ffffffff1660e01b815260040161103691906132b8565b600060405180830381865afa158015611053573d6000803e3d6000fd5b505050506040513d6000823e3d601f19601f8201168201806040525081019061107c9190613846565b90506000805b82518110156110f1578473ffffffffffffffffffffffffffffffffffffffff168382815181106110b5576110b46133a7565b5b602002602001015173ffffffffffffffffffffffffffffffffffffffff1614156110de57600191505b80806110e9906134b0565b915050611082565b5080611132576040517f08c379a000000000000000000000000000000000000000000000000000000000815260040161112990613901565b60405180910390fd5b600060405180608001604052808673ffffffffffffffffffffffffffffffffffffffff1681526020018781526020013373ffffffffffffffffffffffffffffffffffffffff168152602001600015158152509050600281908060018154018082558091505060019003906000526020600020906003020160009091909190915060008201518160000160006101000a81548173ffffffffffffffffffffffffffffffffffffffff021916908373ffffffffffffffffffffffffffffffffffffffff16021790555060208201518160010190805190602001906112159291906127b1565b5060408201518160020160006101000a81548173ffffffffffffffffffffffffffffffffffffffff021916908373ffffffffffffffffffffffffffffffffffffffff16021790555060608201518160020160146101000a81548160ff02191690831515021790555050506001600387604051611291919061318a565b908152602001604051809103902060006101000a81548160ff0219169083151502179055506001600460008773ffffffffffffffffffffffffffffffffffffffff1673ffffffffffffffffffffffffffffffffffffffff16815260200190815260200160002060006101000a81548160ff021916908315150217905550505050505050565b60606002805480602002602001604051908101604052809291908181526020016000905b828210156114c557838290600052602060002090600302016040518060800160405290816000820160009054906101000a900473ffffffffffffffffffffffffffffffffffffffff1673ffffffffffffffffffffffffffffffffffffffff1673ffffffffffffffffffffffffffffffffffffffff1681526020016001820180546113c390612fc7565b80601f01602080910402602001604051908101604052809291908181526020018280546113ef90612fc7565b801561143c5780601f106114115761010080835404028352916020019161143c565b820191906000526020600020905b81548152906001019060200180831161141f57829003601f168201915b505050505081526020016002820160009054906101000a900473ffffffffffffffffffffffffffffffffffffffff1673ffffffffffffffffffffffffffffffffffffffff1673ffffffffffffffffffffffffffffffffffffffff1681526020016002820160149054906101000a900460ff1615151515815250508152602001906001019061133a565b50505050905090565b600160009054906101000a900473ffffffffffffffffffffffffffffffffffffffff1673ffffffffffffffffffffffffffffffffffffffff1663e78af7c5336040518263ffffffff1660e01b81526004016115299190613008565b602060405180830381865afa158015611546573d6000803e3d6000fd5b505050506040513d601f19601f8201168201806040525081019061156a9190613038565b6115a9576040517f08c379a00000000000000000000000000000000000000000000000000000000081526004016115a0906130c2565b60405180910390fd5b6000151581606001511515146115f4576040517f08c379a00000000000000000000000000000000000000000000000000000000081526004016115eb9061312e565b60405180910390fd5b60038160200151604051611608919061318a565b908152602001604051809103902060009054906101000a900460ff16611663576040517f08c379a000000000000000000000000000000000000000000000000000000000815260040161165a906131ed565b60405180910390fd5b60046000826000015173ffffffffffffffffffffffffffffffffffffffff1673ffffffffffffffffffffffffffffffffffffffff16815260200190815260200160002060009054906101000a900460ff166116f3576040517f08c379a00000000000000000000000000000000000000000000000000000000081526004016116ea90613993565b60405180910390fd5b60006117028260400151612553565b905060008111611747576040517f08c379a000000000000000000000000000000000000000000000000000000000815260040161173e9061327f565b60405180910390fd5b60008054906101000a900473ffffffffffffffffffffffffffffffffffffffff1673ffffffffffffffffffffffffffffffffffffffff16631fd76cfb826040518263ffffffff1660e01b81526004016117a091906132b8565b602060405180830381865afa1580156117bd573d6000803e3d6000fd5b505050506040513d601f19601f820116820180604052508101906117e191906132e8565b73ffffffffffffffffffffffffffffffffffffffff163373ffffffffffffffffffffffffffffffffffffffff161461184e576040517f08c379a000000000000000000000000000000000000000000000000000000000815260040161184590613387565b60405180910390fd5b60005b600280549050811015611afe578260200151604051602001611873919061318a565b604051602081830303815290604052805190602001206002828154811061189d5761189c6133a7565b5b90600052602060002090600302016001016040516020016118be919061346a565b604051602081830303815290604052805190602001201415611aeb57600260016002805490506118ee91906134f9565b815481106118ff576118fe6133a7565b5b906000526020600020906003020160028281548110611921576119206133a7565b5b90600052602060002090600302016000820160009054906101000a900473ffffffffffffffffffffffffffffffffffffffff168160000160006101000a81548173ffffffffffffffffffffffffffffffffffffffff021916908373ffffffffffffffffffffffffffffffffffffffff16021790555060018201816001019080546119aa90612fc7565b6119b59291906126e4565b506002820160009054906101000a900473ffffffffffffffffffffffffffffffffffffffff168160020160006101000a81548173ffffffffffffffffffffffffffffffffffffffff021916908373ffffffffffffffffffffffffffffffffffffffff1602179055506002820160149054906101000a900460ff168160020160146101000a81548160ff0219169083151502179055509050506002805480611a5f57611a5e61352d565b5b6001900381819060005260206000209060030201600080820160006101000a81549073ffffffffffffffffffffffffffffffffffffffff0219169055600182016000611aab9190612771565b6002820160006101000a81549073ffffffffffffffffffffffffffffffffffffffff02191690556002820160146101000a81549060ff0219169055505090555b8080611af6906134b0565b915050611851565b50600060038360200151604051611b15919061318a565b908152602001604051809103902060006101000a81548160ff021916908315150217905550600060046000846000015173ffffffffffffffffffffffffffffffffffffffff1673ffffffffffffffffffffffffffffffffffffffff16815260200190815260200160002060006101000a81548160ff0219169083151502179055505050565b600160009054906101000a900473ffffffffffffffffffffffffffffffffffffffff1673ffffffffffffffffffffffffffffffffffffffff1663e17f6b2c336040518263ffffffff1660e01b8152600401611bf59190613008565b602060405180830381865afa158015611c12573d6000803e3d6000fd5b505050506040513d601f19601f82011682018060405250810190611c369190613038565b611c75576040517f08c379a0000000000000000000000000000000000000000000000000000000008152600401611c6c906135a8565b60405180910390fd5b600160009054906101000a900473ffffffffffffffffffffffffffffffffffffffff1673ffffffffffffffffffffffffffffffffffffffff16639822a599826040518263ffffffff1660e01b8152600401611cd09190613008565b602060405180830381865afa158015611ced573d6000803e3d6000fd5b505050506040513d601f19601f82011682018060405250810190611d119190613038565b611d50576040517f08c379a0000000000000000000000000000000000000000000000000000000008152600401611d4790613a25565b60405180910390fd5b600682604051611d60919061318a565b908152602001604051809103902060009054906101000a900460ff1615611dbc576040517f08c379a0000000000000000000000000000000000000000000000000000000008152600401611db3906136cc565b60405180910390fd5b6000611dc733612553565b905060008111611e0c576040517f08c379a0000000000000000000000000000000000000000000000000000000008152600401611e039061327f565b60405180910390fd5b60008060009054906101000a900473ffffffffffffffffffffffffffffffffffffffff1673ffffffffffffffffffffffffffffffffffffffff166347519ab7836040518263ffffffff1660e01b8152600401611e6891906132b8565b600060405180830381865afa158015611e85573d6000803e3d6000fd5b505050506040513d6000823e3d601f19601f82011682018060405250810190611eae9190613846565b90506000805b8251811015611f23578473ffffffffffffffffffffffffffffffffffffffff16838281518110611ee757611ee66133a7565b5b602002602001015173ffffffffffffffffffffffffffffffffffffffff161415611f1057600191505b8080611f1b906134b0565b915050611eb4565b5080611f64576040517f08c379a0000000000000000000000000000000000000000000000000000000008152600401611f5b90613ab7565b60405180910390fd5b600060405180608001604052808673ffffffffffffffffffffffffffffffffffffffff1681526020018781526020013373ffffffffffffffffffffffffffffffffffffffff168152602001600015158152509050600581908060018154018082558091505060019003906000526020600020906003020160009091909190915060008201518160000160006101000a81548173ffffffffffffffffffffffffffffffffffffffff021916908373ffffffffffffffffffffffffffffffffffffffff16021790555060208201518160010190805190602001906120479291906127b1565b5060408201518160020160006101000a81548173ffffffffffffffffffffffffffffffffffffffff021916908373ffffffffffffffffffffffffffffffffffffffff16021790555060608201518160020160146101000a81548160ff021916908315150217905550505060016006876040516120c3919061318a565b908152602001604051809103902060006101000a81548160ff021916908315150217905550505050505050565b600160009054906101000a900473ffffffffffffffffffffffffffffffffffffffff1673ffffffffffffffffffffffffffffffffffffffff1663e78af7c5336040518263ffffffff1660e01b815260040161214b9190613008565b602060405180830381865afa158015612168573d6000803e3d6000fd5b505050506040513d601f19601f8201168201806040525081019061218c9190613038565b6121cb576040517f08c379a00000000000000000000000000000000000000000000000000000000081526004016121c2906130c2565b60405180910390fd5b600015158160600151151514612216576040517f08c379a000000000000000000000000000000000000000000000000000000000815260040161220d9061312e565b60405180910390fd5b6003816020015160405161222a919061318a565b908152602001604051809103902060009054906101000a900460ff16612285576040517f08c379a000000000000000000000000000000000000000000000000000000000815260040161227c906131ed565b60405180910390fd5b60046000826000015173ffffffffffffffffffffffffffffffffffffffff1673ffffffffffffffffffffffffffffffffffffffff16815260200190815260200160002060009054906101000a900460ff16612315576040517f08c379a000000000000000000000000000000000000000000000000000000000815260040161230c90613993565b60405180910390fd5b60006123248260400151612553565b905060008111612369576040517f08c379a00000000000000000000000000000000000000000000000000000000081526004016123609061327f565b60405180910390fd5b60008054906101000a900473ffffffffffffffffffffffffffffffffffffffff1673ffffffffffffffffffffffffffffffffffffffff16631fd76cfb826040518263ffffffff1660e01b81526004016123c291906132b8565b602060405180830381865afa1580156123df573d6000803e3d6000fd5b505050506040513d601f19601f8201168201806040525081019061240391906132e8565b73ffffffffffffffffffffffffffffffffffffffff163373ffffffffffffffffffffffffffffffffffffffff1614612470576040517f08c379a000000000000000000000000000000000000000000000000000000000815260040161246790613387565b60405180910390fd5b60005b60028054905081101561254e578260200151604051602001612495919061318a565b60405160208183030381529060405280519060200120600282815481106124bf576124be6133a7565b5b90600052602060002090600302016001016040516020016124e0919061346a565b60405160208183030381529060405280519060200120141561253b57600160028281548110612512576125116133a7565b5b906000526020600020906003020160020160146101000a81548160ff0219169083151502179055505b8080612546906134b0565b915050612473565b505050565b600080600190505b60008054906101000a900473ffffffffffffffffffffffffffffffffffffffff1673ffffffffffffffffffffffffffffffffffffffff1663c4e41b226040518163ffffffff1660e01b8152600401602060405180830381865afa1580156125c6573d6000803e3d6000fd5b505050506040513d601f19601f820116820180604052508101906125ea9190613b03565b81116126d9578273ffffffffffffffffffffffffffffffffffffffff1660008054906101000a900473ffffffffffffffffffffffffffffffffffffffff1673ffffffffffffffffffffffffffffffffffffffff16636352211e836040518263ffffffff1660e01b815260040161266091906132b8565b602060405180830381865afa15801561267d573d6000803e3d6000fd5b505050506040513d601f19601f820116820180604052508101906126a191906132e8565b73ffffffffffffffffffffffffffffffffffffffff1614156126c657809150506126df565b80806126d1906134b0565b91505061255b565b50600090505b919050565b8280546126f090612fc7565b90600052602060002090601f0160209004810192826127125760008555612760565b82601f106127235780548555612760565b8280016001018555821561276057600052602060002091601f016020900482015b8281111561275f578254825591600101919060010190612744565b5b50905061276d9190612837565b5090565b50805461277d90612fc7565b6000825580601f1061278f57506127ae565b601f0160209004906000526020600020908101906127ad9190612837565b5b50565b8280546127bd90612fc7565b90600052602060002090601f0160209004810192826127df5760008555612826565b82601f106127f857805160ff1916838001178555612826565b82800160010185558215612826579182015b8281111561282557825182559160200191906001019061280a565b5b5090506128339190612837565b5090565b5b80821115612850576000816000905550600101612838565b5090565b600081519050919050565b600082825260208201905092915050565b6000819050602082019050919050565b600073ffffffffffffffffffffffffffffffffffffffff82169050919050565b60006128ab82612880565b9050919050565b6128bb816128a0565b82525050565b600081519050919050565b600082825260208201905092915050565b60005b838110156128fb5780820151818401526020810190506128e0565b8381111561290a576000848401525b50505050565b6000601f19601f8301169050919050565b600061292c826128c1565b61293681856128cc565b93506129468185602086016128dd565b61294f81612910565b840191505092915050565b60008115159050919050565b61296f8161295a565b82525050565b600060808301600083015161298d60008601826128b2565b50602083015184820360208601526129a58282612921565b91505060408301516129ba60408601826128b2565b5060608301516129cd6060860182612966565b508091505092915050565b60006129e48383612975565b905092915050565b6000602082019050919050565b6000612a0482612854565b612a0e818561285f565b935083602082028501612a2085612870565b8060005b85811015612a5c5784840389528151612a3d85826129d8565b9450612a48836129ec565b925060208a01995050600181019050612a24565b50829750879550505050505092915050565b60006020820190508181036000830152612a8881846129f9565b905092915050565b6000604051905090565b600080fd5b600080fd5b600080fd5b7f4e487b7100000000000000000000000000000000000000000000000000000000600052604160045260246000fd5b612ae182612910565b810181811067ffffffffffffffff82111715612b0057612aff612aa9565b5b80604052505050565b6000612b13612a90565b9050612b1f8282612ad8565b919050565b600080fd5b612b32816128a0565b8114612b3d57600080fd5b50565b600081359050612b4f81612b29565b92915050565b600080fd5b600080fd5b600067ffffffffffffffff821115612b7a57612b79612aa9565b5b612b8382612910565b9050602081019050919050565b82818337600083830152505050565b6000612bb2612bad84612b5f565b612b09565b905082815260208101848484011115612bce57612bcd612b5a565b5b612bd9848285612b90565b509392505050565b600082601f830112612bf657612bf5612b55565b5b8135612c06848260208601612b9f565b91505092915050565b612c188161295a565b8114612c2357600080fd5b50565b600081359050612c3581612c0f565b92915050565b600060808284031215612c5157612c50612aa4565b5b612c5b6080612b09565b90506000612c6b84828501612b40565b600083015250602082013567ffffffffffffffff811115612c8f57612c8e612b24565b5b612c9b84828501612be1565b6020830152506040612caf84828501612b40565b6040830152506060612cc384828501612c26565b60608301525092915050565b600060208284031215612ce557612ce4612a9a565b5b600082013567ffffffffffffffff811115612d0357612d02612a9f565b5b612d0f84828501612c3b565b91505092915050565b60008060408385031215612d2f57612d2e612a9a565b5b600083013567ffffffffffffffff811115612d4d57612d4c612a9f565b5b612d5985828601612be1565b9250506020612d6a85828601612b40565b9150509250929050565b600081519050919050565b600082825260208201905092915050565b6000819050602082019050919050565b6000608083016000830151612db860008601826128b2565b5060208301518482036020860152612dd08282612921565b9150506040830151612de560408601826128b2565b506060830151612df86060860182612966565b508091505092915050565b6000612e0f8383612da0565b905092915050565b6000602082019050919050565b6000612e2f82612d74565b612e398185612d7f565b935083602082028501612e4b85612d90565b8060005b85811015612e875784840389528151612e688582612e03565b9450612e7383612e17565b925060208a01995050600181019050612e4f565b50829750879550505050505092915050565b60006020820190508181036000830152612eb38184612e24565b905092915050565b600060808284031215612ed157612ed0612aa4565b5b612edb6080612b09565b90506000612eeb84828501612b40565b600083015250602082013567ffffffffffffffff811115612f0f57612f0e612b24565b5b612f1b84828501612be1565b6020830152506040612f2f84828501612b40565b6040830152506060612f4384828501612c26565b60608301525092915050565b600060208284031215612f6557612f64612a9a565b5b600082013567ffffffffffffffff811115612f8357612f82612a9f565b5b612f8f84828501612ebb565b91505092915050565b7f4e487b7100000000000000000000000000000000000000000000000000000000600052602260045260246000fd5b60006002820490506001821680612fdf57607f821691505b60208210811415612ff357612ff2612f98565b5b50919050565b613002816128a0565b82525050565b600060208201905061301d6000830184612ff9565b92915050565b60008151905061303281612c0f565b92915050565b60006020828403121561304e5761304d612a9a565b5b600061305c84828501613023565b91505092915050565b600082825260208201905092915050565b7f546869732061646472657373206973206e6f74206120466163756c7479000000600082015250565b60006130ac601d83613065565b91506130b782613076565b602082019050919050565b600060208201905081810360008301526130db8161309f565b9050919050565b7f54686973207265717565737420697320617070726f76656420616c7265616479600082015250565b6000613118602083613065565b9150613123826130e2565b602082019050919050565b600060208201905081810360008301526131478161310b565b9050919050565b600081905092915050565b6000613164826128c1565b61316e818561314e565b935061317e8185602086016128dd565b80840191505092915050565b60006131968284613159565b915081905092915050565b7f54686973206c696e6b206973206e6f7420726571756573746564000000000000600082015250565b60006131d7601a83613065565b91506131e2826131a1565b602082019050919050565b60006020820190508181036000830152613206816131ca565b9050919050565b7f526571756573746f72204465706172746d656e742063616e6e6f7420666f756e60008201527f6400000000000000000000000000000000000000000000000000000000000000602082015250565b6000613269602183613065565b91506132748261320d565b604082019050919050565b600060208201905081810360008301526132988161325c565b9050919050565b6000819050919050565b6132b28161329f565b82525050565b60006020820190506132cd60008301846132a9565b92915050565b6000815190506132e281612b29565b92915050565b6000602082840312156132fe576132fd612a9a565b5b600061330c848285016132d3565b91505092915050565b7f5468697320466163756c7479206973206e6f742074686520666163756c74792060008201527f6f662074686520726571756573746f7200000000000000000000000000000000602082015250565b6000613371603083613065565b915061337c82613315565b604082019050919050565b600060208201905081810360008301526133a081613364565b9050919050565b7f4e487b7100000000000000000000000000000000000000000000000000000000600052603260045260246000fd5b60008190508160005260206000209050919050565b600081546133f881612fc7565b613402818661314e565b9450600182166000811461341d576001811461342e57613461565b60ff19831686528186019350613461565b613437856133d6565b60005b838110156134595781548189015260018201915060208101905061343a565b838801955050505b50505092915050565b600061347682846133eb565b915081905092915050565b7f4e487b7100000000000000000000000000000000000000000000000000000000600052601160045260246000fd5b60006134bb8261329f565b91507fffffffffffffffffffffffffffffffffffffffffffffffffffffffffffffffff8214156134ee576134ed613481565b5b600182019050919050565b60006135048261329f565b915061350f8361329f565b92508282101561352257613521613481565b5b828203905092915050565b7f4e487b7100000000000000000000000000000000000000000000000000000000600052603160045260246000fd5b7f546869732061646472657373206973206e6f74206465706172746d656e740000600082015250565b6000613592601e83613065565b915061359d8261355c565b602082019050919050565b600060208201905081810360008301526135c181613585565b9050919050565b7f546869732061646472657373206973206e6f7420696e2053545544454e545f5260008201527f4f4c450000000000000000000000000000000000000000000000000000000000602082015250565b6000613624602383613065565b915061362f826135c8565b604082019050919050565b6000602082019050818103600083015261365381613617565b9050919050565b7f54686973206c696e6b20697320616c726561647920726571756573746564206260008201527f65666f7265000000000000000000000000000000000000000000000000000000602082015250565b60006136b6602583613065565b91506136c18261365a565b604082019050919050565b600060208201905081810360008301526136e5816136a9565b9050919050565b7f546869732073747564656e742773206469706c6f6d6120697320616c7265616460008201527f7920726571756573746564206265666f72650000000000000000000000000000602082015250565b6000613748603283613065565b9150613753826136ec565b604082019050919050565b600060208201905081810360008301526137778161373b565b9050919050565b600067ffffffffffffffff82111561379957613798612aa9565b5b602082029050602081019050919050565b600080fd5b60006137c26137bd8461377e565b612b09565b905080838252602082019050602084028301858111156137e5576137e46137aa565b5b835b8181101561380e57806137fa88826132d3565b8452602084019350506020810190506137e7565b5050509392505050565b600082601f83011261382d5761382c612b55565b5b815161383d8482602086016137af565b91505092915050565b60006020828403121561385c5761385b612a9a565b5b600082015167ffffffffffffffff81111561387a57613879612a9f565b5b61388684828501613818565b91505092915050565b7f546869732061646472657373206973206e6f74206f6e65206f6620746865207360008201527f747564656e7473206f662074686973206465706172746d656e74000000000000602082015250565b60006138eb603a83613065565b91506138f68261388f565b604082019050919050565b6000602082019050818103600083015261391a816138de565b9050919050565b7f546869732073747564656e742773206469706c6f6d61206973206e6f7420726560008201527f7175657374656400000000000000000000000000000000000000000000000000602082015250565b600061397d602783613065565b915061398882613921565b604082019050919050565b600060208201905081810360008301526139ac81613970565b9050919050565b7f546869732061646472657373206973206e6f7420696e20494e5354525543544f60008201527f525f524f4c450000000000000000000000000000000000000000000000000000602082015250565b6000613a0f602683613065565b9150613a1a826139b3565b604082019050919050565b60006020820190508181036000830152613a3e81613a02565b9050919050565b7f546869732061646472657373206973206e6f74206f6e65206f6620746865206960008201527f6e7374727563746f72206f662074686973206465706172746d656e7400000000602082015250565b6000613aa1603c83613065565b9150613aac82613a45565b604082019050919050565b60006020820190508181036000830152613ad081613a94565b9050919050565b613ae08161329f565b8114613aeb57600080fd5b50565b600081519050613afd81613ad7565b92915050565b600060208284031215613b1957613b18612a9a565b5b6000613b2784828501613aee565b9150509291505056fea26469706673582212208132a61b5956b0e2e4839df512f39e09bf8b2982b5fac97efae8a60df16c34e664736f6c634300080a0033",
  "immutableReferences": {},
  "source": "pragma solidity ^0.8.10;\r\n\r\nimport \"./Department.sol\";\r\nimport \"./Roles.sol\";\r\n\r\ncontract Request {\r\n\r\n    address departmentContractAddress;\r\n    address rolesContractAddress;\r\n\r\n/////////////////////////////////////////////// DIPLOMA ////////////////////////////////////////////////////////////////\r\n    struct DiplomaRequest {\r\n        address studentAddress;\r\n        string diplomaLink;\r\n        address requestorDepartment;\r\n        bool atRector;\r\n    }\r\n    //DiplomaRequest list\r\n    DiplomaRequest[] _diplomaRequests;\r\n    //is Diploma link in _diplomaRequests exist\r\n    mapping(string => bool) _linkDiplomaExist;\r\n    //is Diploma student in _diplomaRequests exist\r\n    mapping(address => bool) _studentRequestExist;\r\n\r\n    constructor(address _departmentContractAddress, address _rolesContractAddress){\r\n        departmentContractAddress = _departmentContractAddress;\r\n        rolesContractAddress = _rolesContractAddress;\r\n    }\r\n\r\n    function createDiplomaRequest(string memory _diplomaLink, address _graduatedAddress) public {\r\n        //Requirements\r\n        require(Roles(rolesContractAddress).hasDepartmentRole(msg.sender), \"This address is not department\");\r\n        require(Roles(rolesContractAddress).hasStudentRole(_graduatedAddress), \"This address is not in STUDENT_ROLE\");\r\n        require(!_linkDiplomaExist[_diplomaLink], \"This link is already requested before\");\r\n        require(!_studentRequestExist[_graduatedAddress], \"This student's diploma is already requested before\");\r\n        uint256 departmentID = getDepartmentID(msg.sender);\r\n        require(departmentID > 0, \"Requestor Department cannot found\");\r\n        address[] memory students = Department(departmentContractAddress).getStudents(departmentID);\r\n        bool studentExist = false;\r\n        for (uint i = 0; i < students.length; i++) {\r\n            if (students[i] == _graduatedAddress) {\r\n                studentExist = true;\r\n            }\r\n        }\r\n        require(studentExist, \"This address is not one of the students of this department\");\r\n        DiplomaRequest memory request = DiplomaRequest(_graduatedAddress, _diplomaLink, msg.sender, false);\r\n        _diplomaRequests.push(request);\r\n        _linkDiplomaExist[_diplomaLink] = true;\r\n        _studentRequestExist[_graduatedAddress] = true;\r\n    }\r\n    function approveDiplomaRequest(DiplomaRequest memory diplomaRequest) public {\r\n        //Requirements\r\n        require(Roles(rolesContractAddress).hasFacultyRole(msg.sender), \"This address is not a Faculty\");\r\n        require(diplomaRequest.atRector == false, \"This request is approved already\");\r\n        require(_linkDiplomaExist[diplomaRequest.diplomaLink], \"This link is not requested\");\r\n        require(_studentRequestExist[diplomaRequest.studentAddress], \"This student's diploma is not requested\");\r\n\r\n        uint256 departmentID = getDepartmentID(diplomaRequest.requestorDepartment);\r\n        require(departmentID > 0, \"Requestor Department cannot found\");\r\n        require(msg.sender == Department(departmentContractAddress).getFaculty(departmentID), \"This Faculty is not the faculty of the requestor\");\r\n\r\n        //Approval\r\n        for (uint256 i = 0; i < _diplomaRequests.length; i++) {\r\n            if (keccak256(abi.encodePacked(_diplomaRequests[i].diplomaLink)) == keccak256(abi.encodePacked(diplomaRequest.diplomaLink))) {\r\n                _diplomaRequests[i].atRector = true;\r\n            }\r\n        }\r\n    }\r\n    function disapproveDiplomaRequest(DiplomaRequest memory diplomaRequest) public {\r\n        require(Roles(rolesContractAddress).hasFacultyRole(msg.sender), \"This address is not a Faculty\");\r\n        require(diplomaRequest.atRector == false, \"This request is approved already\");\r\n        require(_linkDiplomaExist[diplomaRequest.diplomaLink], \"This link is not requested\");\r\n        require(_studentRequestExist[diplomaRequest.studentAddress], \"This student's diploma is not requested\");\r\n\r\n        uint256 departmentID = getDepartmentID(diplomaRequest.requestorDepartment);\r\n        require(departmentID > 0, \"Requestor Department cannot found\");\r\n        require(msg.sender == Department(departmentContractAddress).getFaculty(departmentID), \"This Faculty is not the faculty of the requestor\");\r\n        for (uint256 i = 0; i < _diplomaRequests.length; i++) {\r\n            if (keccak256(abi.encodePacked(_diplomaRequests[i].diplomaLink)) == keccak256(abi.encodePacked(diplomaRequest.diplomaLink))) {\r\n                _diplomaRequests[i] = _diplomaRequests[_diplomaRequests.length - 1];\r\n                _diplomaRequests.pop();\r\n            }\r\n        }\r\n        _linkDiplomaExist[diplomaRequest.diplomaLink] = false;\r\n        _studentRequestExist[diplomaRequest.studentAddress] = false;\r\n    }\r\n    function getDiplomaRequests() public view returns (DiplomaRequest[] memory){\r\n        return _diplomaRequests;\r\n    }\r\n////////////////////////////////////////////////////////////////////////////////////////////////////////////////////////\r\n/////////////////////////////////////////////// COURSE /////////////////////////////////////////////////////////////////\r\n    struct CourseRequest {\r\n        address instructorAddress;\r\n        string courseLink;\r\n        address requestorDepartment;\r\n        bool atRector;\r\n    }\r\n    //CourseRequest list\r\n    CourseRequest[] _courseRequests;\r\n    //is Diploma link in _courseRequests exist\r\n    mapping(string => bool) _linkCourseExist;\r\n\r\n    function createCourseRequest(string memory _courseLink, address _instructorAddress) public {\r\n        //Requirements\r\n        require(Roles(rolesContractAddress).hasDepartmentRole(msg.sender), \"This address is not department\");\r\n        require(Roles(rolesContractAddress).hasInstructorRole(_instructorAddress), \"This address is not in INSTRUCTOR_ROLE\");\r\n        require(!_linkCourseExist[_courseLink], \"This link is already requested before\");\r\n        uint256 departmentID = getDepartmentID(msg.sender);\r\n        require(departmentID > 0, \"Requestor Department cannot found\");\r\n        address[] memory instructors = Department(departmentContractAddress).getInstructors(departmentID);\r\n        bool instructorExist = false;\r\n        for (uint i = 0; i < instructors.length; i++) {\r\n            if (instructors[i] == _instructorAddress) {\r\n                instructorExist = true;\r\n            }\r\n        }\r\n        require(instructorExist, \"This address is not one of the instructor of this department\");\r\n        CourseRequest memory request = CourseRequest(_instructorAddress, _courseLink, msg.sender, false);\r\n        _courseRequests.push(request);\r\n        _linkCourseExist[_courseLink] = true;\r\n    }\r\n\r\n    function approveCourseRequest(CourseRequest memory courseRequest) public {\r\n        //Requirements\r\n        require(Roles(rolesContractAddress).hasFacultyRole(msg.sender), \"This address is not a Faculty\");\r\n        require(courseRequest.atRector == false, \"This request is approved already\");\r\n        require(_linkCourseExist[courseRequest.courseLink], \"This link is not requested\");\r\n        uint256 departmentID = getDepartmentID(courseRequest.requestorDepartment);\r\n        require(departmentID > 0, \"Requestor Department cannot found\");\r\n        require(msg.sender == Department(departmentContractAddress).getFaculty(departmentID), \"This Faculty is not the faculty of the requestor\");\r\n        //Approval\r\n        for (uint256 i = 0; i < _courseRequests.length; i++) {\r\n            if (keccak256(abi.encodePacked(_courseRequests[i].courseLink)) == keccak256(abi.encodePacked(courseRequest.courseLink))) {\r\n                _courseRequests[i].atRector = true;\r\n            }\r\n        }\r\n    }\r\n\r\n    function disapproveCourseRequest(CourseRequest memory courseRequest) public {\r\n        require(Roles(rolesContractAddress).hasFacultyRole(msg.sender), \"This address is not a Faculty\");\r\n        require(courseRequest.atRector == false, \"This request is approved already\");\r\n        require(_linkCourseExist[courseRequest.courseLink], \"This link is not requested\");\r\n        uint256 departmentID = getDepartmentID(courseRequest.requestorDepartment);\r\n        require(departmentID > 0, \"Requestor Department cannot found\");\r\n        require(msg.sender == Department(departmentContractAddress).getFaculty(departmentID), \"This Faculty is not the faculty of the requestor\");\r\n        for (uint256 i = 0; i < _courseRequests.length; i++) {\r\n            if (keccak256(abi.encodePacked(_courseRequests[i].courseLink)) == keccak256(abi.encodePacked(courseRequest.courseLink))) {\r\n                _courseRequests[i] = _courseRequests[_courseRequests.length - 1];\r\n                _courseRequests.pop();\r\n            }\r\n        }\r\n        _linkCourseExist[courseRequest.courseLink] = false;\r\n    }\r\n\r\n    function getCourseRequests() public view returns (CourseRequest[] memory){\r\n        return _courseRequests;\r\n    }\r\n////////////////////////////////////////////////////////////////////////////////////////////////////////////////////////\r\n    function getDepartmentID(address departmentAddress) private returns (uint256){\r\n        for (uint256 i = 1; i <= Department(departmentContractAddress).getTotalSupply(); i++) {\r\n            if (Department(departmentContractAddress).ownerOf(i) == departmentAddress) {\r\n                return i;\r\n            }\r\n        }\r\n        return 0;\r\n    }\r\n\r\n}\r\n",
  "sourcePath": "C:\\Users\\asus\\Desktop\\Dersler\\CMPE492\\certification-project\\contracts\\Request.sol",
  "compiler": {
    "name": "solc",
    "version": "0.8.10+commit.fc410830.Emscripten.clang"
  },
  "schemaVersion": "3.4.4",
  "updatedAt": "2022-01-20T01:21:10.770Z",
  "devdoc": {
    "kind": "dev",
    "methods": {},
    "version": 1
  },
  "userdoc": {
    "kind": "user",
    "methods": {},
    "version": 1
  }
}