{
  "contractName": "Request",
  "abi": [
    {
      "inputs": [
        {
          "internalType": "address",
          "name": "_departmentContractAddress",
          "type": "address"
        },
        {
          "internalType": "address",
          "name": "_rolesContractAddress",
          "type": "address"
        }
      ],
      "stateMutability": "nonpayable",
      "type": "constructor"
    },
    {
      "inputs": [
        {
          "internalType": "string",
          "name": "_diplomaLink",
          "type": "string"
        },
        {
          "internalType": "address",
          "name": "_graduatedAddress",
          "type": "address"
        }
      ],
      "name": "createDiplomaRequest",
      "outputs": [],
      "stateMutability": "nonpayable",
      "type": "function"
    },
    {
      "inputs": [
        {
          "components": [
            {
              "internalType": "address",
              "name": "studentAddress",
              "type": "address"
            },
            {
              "internalType": "string",
              "name": "diplomaLink",
              "type": "string"
            },
            {
              "internalType": "address",
              "name": "requestorDepartment",
              "type": "address"
            },
            {
              "internalType": "bool",
              "name": "atRector",
              "type": "bool"
            }
          ],
          "internalType": "struct Request.DiplomaRequest",
          "name": "diplomaRequest",
          "type": "tuple"
        }
      ],
      "name": "approveDiplomaRequest",
      "outputs": [],
      "stateMutability": "nonpayable",
      "type": "function"
    },
    {
      "inputs": [
        {
          "components": [
            {
              "internalType": "address",
              "name": "instructorAddress",
              "type": "address"
            },
            {
              "internalType": "string",
              "name": "courseLink",
              "type": "string"
            },
            {
              "internalType": "address",
              "name": "requestorDepartment",
              "type": "address"
            },
            {
              "internalType": "bool",
              "name": "atRector",
              "type": "bool"
            }
          ],
          "internalType": "struct Request.CourseRequest",
          "name": "courseRequest",
          "type": "tuple"
        }
      ],
      "name": "approveCourseRequest",
      "outputs": [],
      "stateMutability": "nonpayable",
      "type": "function"
    },
    {
      "inputs": [],
      "name": "disapproveDiplomaRequest",
      "outputs": [],
      "stateMutability": "nonpayable",
      "type": "function"
    },
    {
      "inputs": [],
      "name": "getDiplomaRequests",
      "outputs": [
        {
          "components": [
            {
              "internalType": "address",
              "name": "studentAddress",
              "type": "address"
            },
            {
              "internalType": "string",
              "name": "diplomaLink",
              "type": "string"
            },
            {
              "internalType": "address",
              "name": "requestorDepartment",
              "type": "address"
            },
            {
              "internalType": "bool",
              "name": "atRector",
              "type": "bool"
            }
          ],
          "internalType": "struct Request.DiplomaRequest[]",
          "name": "",
          "type": "tuple[]"
        }
      ],
      "stateMutability": "view",
      "type": "function"
    },
    {
      "inputs": [
        {
          "internalType": "string",
          "name": "_courseLink",
          "type": "string"
        },
        {
          "internalType": "address",
          "name": "_instructorAddress",
          "type": "address"
        }
      ],
      "name": "createCourseRequest",
      "outputs": [],
      "stateMutability": "nonpayable",
      "type": "function"
    },
    {
      "inputs": [],
      "name": "disapproveCourseRequest",
      "outputs": [],
      "stateMutability": "nonpayable",
      "type": "function"
    },
    {
      "inputs": [],
      "name": "getCourseRequests",
      "outputs": [
        {
          "components": [
            {
              "internalType": "address",
              "name": "instructorAddress",
              "type": "address"
            },
            {
              "internalType": "string",
              "name": "courseLink",
              "type": "string"
            },
            {
              "internalType": "address",
              "name": "requestorDepartment",
              "type": "address"
            },
            {
              "internalType": "bool",
              "name": "atRector",
              "type": "bool"
            }
          ],
          "internalType": "struct Request.CourseRequest[]",
          "name": "",
          "type": "tuple[]"
        }
      ],
      "stateMutability": "view",
      "type": "function"
    }
  ],
  "bytecode": "0x60806040523480156200001157600080fd5b5060405162002eeb38038062002eeb83398181016040528101906200003791906200012a565b816000806101000a81548173ffffffffffffffffffffffffffffffffffffffff021916908373ffffffffffffffffffffffffffffffffffffffff16021790555080600160006101000a81548173ffffffffffffffffffffffffffffffffffffffff021916908373ffffffffffffffffffffffffffffffffffffffff160217905550505062000171565b600080fd5b600073ffffffffffffffffffffffffffffffffffffffff82169050919050565b6000620000f282620000c5565b9050919050565b6200010481620000e5565b81146200011057600080fd5b50565b6000815190506200012481620000f9565b92915050565b60008060408385031215620001445762000143620000c0565b5b6000620001548582860162000113565b9250506020620001678582860162000113565b9150509250929050565b612d6a80620001816000396000f3fe608060405234801561001057600080fd5b50600436106100875760003560e01c8063a31b86a41161005b578063a31b86a4146100ec578063bd3905f51461010a578063be1064d814610126578063e7fbdc651461013057610087565b806287171a1461008c5780630a174e10146100aa5780636c713cbf146100c6578063a16d7c8e146100e2575b600080fd5b61009461014c565b6040516100a19190611cd5565b60405180910390f35b6100c460048036038101906100bf9190611f36565b610304565b005b6100e060048036038101906100db9190611f7f565b6106d7565b005b6100ea610d12565b005b6100f4610d14565b6040516101019190612100565b60405180910390f35b610124600480360381019061011f9190611f7f565b610ecc565b005b61012e611422565b005b61014a600480360381019061014591906121b6565b611424565b005b60606005805480602002602001604051908101604052809291908181526020016000905b828210156102fb57838290600052602060002090600302016040518060800160405290816000820160009054906101000a900473ffffffffffffffffffffffffffffffffffffffff1673ffffffffffffffffffffffffffffffffffffffff1673ffffffffffffffffffffffffffffffffffffffff1681526020016001820180546101f99061222e565b80601f01602080910402602001604051908101604052809291908181526020018280546102259061222e565b80156102725780601f1061024757610100808354040283529160200191610272565b820191906000526020600020905b81548152906001019060200180831161025557829003601f168201915b505050505081526020016002820160009054906101000a900473ffffffffffffffffffffffffffffffffffffffff1673ffffffffffffffffffffffffffffffffffffffff1673ffffffffffffffffffffffffffffffffffffffff1681526020016002820160149054906101000a900460ff16151515158152505081526020019060010190610170565b50505050905090565b600160009054906101000a900473ffffffffffffffffffffffffffffffffffffffff1673ffffffffffffffffffffffffffffffffffffffff1663e78af7c5336040518263ffffffff1660e01b815260040161035f919061226f565b602060405180830381865afa15801561037c573d6000803e3d6000fd5b505050506040513d601f19601f820116820180604052508101906103a0919061229f565b6103df576040517f08c379a00000000000000000000000000000000000000000000000000000000081526004016103d690612329565b60405180910390fd5b60001515816060015115151461042a576040517f08c379a000000000000000000000000000000000000000000000000000000000815260040161042190612395565b60405180910390fd5b6006816020015160405161043e91906123f1565b908152602001604051809103902060009054906101000a900460ff16610499576040517f08c379a000000000000000000000000000000000000000000000000000000000815260040161049090612454565b60405180910390fd5b60006104a88260400151611887565b9050600081116104ed576040517f08c379a00000000000000000000000000000000000000000000000000000000081526004016104e4906124e6565b60405180910390fd5b60008054906101000a900473ffffffffffffffffffffffffffffffffffffffff1673ffffffffffffffffffffffffffffffffffffffff16631fd76cfb826040518263ffffffff1660e01b8152600401610546919061251f565b602060405180830381865afa158015610563573d6000803e3d6000fd5b505050506040513d601f19601f82011682018060405250810190610587919061254f565b73ffffffffffffffffffffffffffffffffffffffff163373ffffffffffffffffffffffffffffffffffffffff16146105f4576040517f08c379a00000000000000000000000000000000000000000000000000000000081526004016105eb906125ee565b60405180910390fd5b60005b6005805490508110156106d257826020015160405160200161061991906123f1565b60405160208183030381529060405280519060200120600582815481106106435761064261260e565b5b906000526020600020906003020160010160405160200161066491906126d1565b6040516020818303038152906040528051906020012014156106bf576001600582815481106106965761069561260e565b5b906000526020600020906003020160020160146101000a81548160ff0219169083151502179055505b80806106ca90612717565b9150506105f7565b505050565b600160009054906101000a900473ffffffffffffffffffffffffffffffffffffffff1673ffffffffffffffffffffffffffffffffffffffff1663e17f6b2c336040518263ffffffff1660e01b8152600401610732919061226f565b602060405180830381865afa15801561074f573d6000803e3d6000fd5b505050506040513d601f19601f82011682018060405250810190610773919061229f565b6107b2576040517f08c379a00000000000000000000000000000000000000000000000000000000081526004016107a9906127ac565b60405180910390fd5b600160009054906101000a900473ffffffffffffffffffffffffffffffffffffffff1673ffffffffffffffffffffffffffffffffffffffff1663fc3ba6b4826040518263ffffffff1660e01b815260040161080d919061226f565b602060405180830381865afa15801561082a573d6000803e3d6000fd5b505050506040513d601f19601f8201168201806040525081019061084e919061229f565b61088d576040517f08c379a00000000000000000000000000000000000000000000000000000000081526004016108849061283e565b60405180910390fd5b60038260405161089d91906123f1565b908152602001604051809103902060009054906101000a900460ff16156108f9576040517f08c379a00000000000000000000000000000000000000000000000000000000081526004016108f0906128d0565b60405180910390fd5b600460008273ffffffffffffffffffffffffffffffffffffffff1673ffffffffffffffffffffffffffffffffffffffff16815260200190815260200160002060009054906101000a900460ff1615610986576040517f08c379a000000000000000000000000000000000000000000000000000000000815260040161097d90612962565b60405180910390fd5b600061099133611887565b9050600081116109d6576040517f08c379a00000000000000000000000000000000000000000000000000000000081526004016109cd906124e6565b60405180910390fd5b60008060009054906101000a900473ffffffffffffffffffffffffffffffffffffffff1673ffffffffffffffffffffffffffffffffffffffff166375c2f8f0836040518263ffffffff1660e01b8152600401610a32919061251f565b600060405180830381865afa158015610a4f573d6000803e3d6000fd5b505050506040513d6000823e3d601f19601f82011682018060405250810190610a789190612a4a565b90506000805b8251811015610aed578473ffffffffffffffffffffffffffffffffffffffff16838281518110610ab157610ab061260e565b5b602002602001015173ffffffffffffffffffffffffffffffffffffffff161415610ada57600191505b8080610ae590612717565b915050610a7e565b5080610b2e576040517f08c379a0000000000000000000000000000000000000000000000000000000008152600401610b2590612b05565b60405180910390fd5b600060405180608001604052808673ffffffffffffffffffffffffffffffffffffffff1681526020018781526020013373ffffffffffffffffffffffffffffffffffffffff168152602001600015158152509050600281908060018154018082558091505060019003906000526020600020906003020160009091909190915060008201518160000160006101000a81548173ffffffffffffffffffffffffffffffffffffffff021916908373ffffffffffffffffffffffffffffffffffffffff1602179055506020820151816001019080519060200190610c11929190611a18565b5060408201518160020160006101000a81548173ffffffffffffffffffffffffffffffffffffffff021916908373ffffffffffffffffffffffffffffffffffffffff16021790555060608201518160020160146101000a81548160ff02191690831515021790555050506001600387604051610c8d91906123f1565b908152602001604051809103902060006101000a81548160ff0219169083151502179055506001600460008773ffffffffffffffffffffffffffffffffffffffff1673ffffffffffffffffffffffffffffffffffffffff16815260200190815260200160002060006101000a81548160ff021916908315150217905550505050505050565b565b60606002805480602002602001604051908101604052809291908181526020016000905b82821015610ec357838290600052602060002090600302016040518060800160405290816000820160009054906101000a900473ffffffffffffffffffffffffffffffffffffffff1673ffffffffffffffffffffffffffffffffffffffff1673ffffffffffffffffffffffffffffffffffffffff168152602001600182018054610dc19061222e565b80601f0160208091040260200160405190810160405280929190818152602001828054610ded9061222e565b8015610e3a5780601f10610e0f57610100808354040283529160200191610e3a565b820191906000526020600020905b815481529060010190602001808311610e1d57829003601f168201915b505050505081526020016002820160009054906101000a900473ffffffffffffffffffffffffffffffffffffffff1673ffffffffffffffffffffffffffffffffffffffff1673ffffffffffffffffffffffffffffffffffffffff1681526020016002820160149054906101000a900460ff16151515158152505081526020019060010190610d38565b50505050905090565b600160009054906101000a900473ffffffffffffffffffffffffffffffffffffffff1673ffffffffffffffffffffffffffffffffffffffff1663e17f6b2c336040518263ffffffff1660e01b8152600401610f27919061226f565b602060405180830381865afa158015610f44573d6000803e3d6000fd5b505050506040513d601f19601f82011682018060405250810190610f68919061229f565b610fa7576040517f08c379a0000000000000000000000000000000000000000000000000000000008152600401610f9e906127ac565b60405180910390fd5b600160009054906101000a900473ffffffffffffffffffffffffffffffffffffffff1673ffffffffffffffffffffffffffffffffffffffff16639822a599826040518263ffffffff1660e01b8152600401611002919061226f565b602060405180830381865afa15801561101f573d6000803e3d6000fd5b505050506040513d601f19601f82011682018060405250810190611043919061229f565b611082576040517f08c379a000000000000000000000000000000000000000000000000000000000815260040161107990612b97565b60405180910390fd5b60068260405161109291906123f1565b908152602001604051809103902060009054906101000a900460ff16156110ee576040517f08c379a00000000000000000000000000000000000000000000000000000000081526004016110e5906128d0565b60405180910390fd5b60006110f933611887565b90506000811161113e576040517f08c379a0000000000000000000000000000000000000000000000000000000008152600401611135906124e6565b60405180910390fd5b60008060009054906101000a900473ffffffffffffffffffffffffffffffffffffffff1673ffffffffffffffffffffffffffffffffffffffff166347519ab7836040518263ffffffff1660e01b815260040161119a919061251f565b600060405180830381865afa1580156111b7573d6000803e3d6000fd5b505050506040513d6000823e3d601f19601f820116820180604052508101906111e09190612a4a565b90506000805b8251811015611255578473ffffffffffffffffffffffffffffffffffffffff168382815181106112195761121861260e565b5b602002602001015173ffffffffffffffffffffffffffffffffffffffff16141561124257600191505b808061124d90612717565b9150506111e6565b5080611296576040517f08c379a000000000000000000000000000000000000000000000000000000000815260040161128d90612c29565b60405180910390fd5b600060405180608001604052808673ffffffffffffffffffffffffffffffffffffffff1681526020018781526020013373ffffffffffffffffffffffffffffffffffffffff168152602001600015158152509050600581908060018154018082558091505060019003906000526020600020906003020160009091909190915060008201518160000160006101000a81548173ffffffffffffffffffffffffffffffffffffffff021916908373ffffffffffffffffffffffffffffffffffffffff1602179055506020820151816001019080519060200190611379929190611a18565b5060408201518160020160006101000a81548173ffffffffffffffffffffffffffffffffffffffff021916908373ffffffffffffffffffffffffffffffffffffffff16021790555060608201518160020160146101000a81548160ff021916908315150217905550505060016006876040516113f591906123f1565b908152602001604051809103902060006101000a81548160ff021916908315150217905550505050505050565b565b600160009054906101000a900473ffffffffffffffffffffffffffffffffffffffff1673ffffffffffffffffffffffffffffffffffffffff1663e78af7c5336040518263ffffffff1660e01b815260040161147f919061226f565b602060405180830381865afa15801561149c573d6000803e3d6000fd5b505050506040513d601f19601f820116820180604052508101906114c0919061229f565b6114ff576040517f08c379a00000000000000000000000000000000000000000000000000000000081526004016114f690612329565b60405180910390fd5b60001515816060015115151461154a576040517f08c379a000000000000000000000000000000000000000000000000000000000815260040161154190612395565b60405180910390fd5b6003816020015160405161155e91906123f1565b908152602001604051809103902060009054906101000a900460ff166115b9576040517f08c379a00000000000000000000000000000000000000000000000000000000081526004016115b090612454565b60405180910390fd5b60046000826000015173ffffffffffffffffffffffffffffffffffffffff1673ffffffffffffffffffffffffffffffffffffffff16815260200190815260200160002060009054906101000a900460ff16611649576040517f08c379a000000000000000000000000000000000000000000000000000000000815260040161164090612cbb565b60405180910390fd5b60006116588260400151611887565b90506000811161169d576040517f08c379a0000000000000000000000000000000000000000000000000000000008152600401611694906124e6565b60405180910390fd5b60008054906101000a900473ffffffffffffffffffffffffffffffffffffffff1673ffffffffffffffffffffffffffffffffffffffff16631fd76cfb826040518263ffffffff1660e01b81526004016116f6919061251f565b602060405180830381865afa158015611713573d6000803e3d6000fd5b505050506040513d601f19601f82011682018060405250810190611737919061254f565b73ffffffffffffffffffffffffffffffffffffffff163373ffffffffffffffffffffffffffffffffffffffff16146117a4576040517f08c379a000000000000000000000000000000000000000000000000000000000815260040161179b906125ee565b60405180910390fd5b60005b6002805490508110156118825782602001516040516020016117c991906123f1565b60405160208183030381529060405280519060200120600282815481106117f3576117f261260e565b5b906000526020600020906003020160010160405160200161181491906126d1565b60405160208183030381529060405280519060200120141561186f576001600282815481106118465761184561260e565b5b906000526020600020906003020160020160146101000a81548160ff0219169083151502179055505b808061187a90612717565b9150506117a7565b505050565b600080600190505b60008054906101000a900473ffffffffffffffffffffffffffffffffffffffff1673ffffffffffffffffffffffffffffffffffffffff1663c4e41b226040518163ffffffff1660e01b8152600401602060405180830381865afa1580156118fa573d6000803e3d6000fd5b505050506040513d601f19601f8201168201806040525081019061191e9190612d07565b8111611a0d578273ffffffffffffffffffffffffffffffffffffffff1660008054906101000a900473ffffffffffffffffffffffffffffffffffffffff1673ffffffffffffffffffffffffffffffffffffffff16636352211e836040518263ffffffff1660e01b8152600401611994919061251f565b602060405180830381865afa1580156119b1573d6000803e3d6000fd5b505050506040513d601f19601f820116820180604052508101906119d5919061254f565b73ffffffffffffffffffffffffffffffffffffffff1614156119fa5780915050611a13565b8080611a0590612717565b91505061188f565b50600090505b919050565b828054611a249061222e565b90600052602060002090601f016020900481019282611a465760008555611a8d565b82601f10611a5f57805160ff1916838001178555611a8d565b82800160010185558215611a8d579182015b82811115611a8c578251825591602001919060010190611a71565b5b509050611a9a9190611a9e565b5090565b5b80821115611ab7576000816000905550600101611a9f565b5090565b600081519050919050565b600082825260208201905092915050565b6000819050602082019050919050565b600073ffffffffffffffffffffffffffffffffffffffff82169050919050565b6000611b1282611ae7565b9050919050565b611b2281611b07565b82525050565b600081519050919050565b600082825260208201905092915050565b60005b83811015611b62578082015181840152602081019050611b47565b83811115611b71576000848401525b50505050565b6000601f19601f8301169050919050565b6000611b9382611b28565b611b9d8185611b33565b9350611bad818560208601611b44565b611bb681611b77565b840191505092915050565b60008115159050919050565b611bd681611bc1565b82525050565b6000608083016000830151611bf46000860182611b19565b5060208301518482036020860152611c0c8282611b88565b9150506040830151611c216040860182611b19565b506060830151611c346060860182611bcd565b508091505092915050565b6000611c4b8383611bdc565b905092915050565b6000602082019050919050565b6000611c6b82611abb565b611c758185611ac6565b935083602082028501611c8785611ad7565b8060005b85811015611cc35784840389528151611ca48582611c3f565b9450611caf83611c53565b925060208a01995050600181019050611c8b565b50829750879550505050505092915050565b60006020820190508181036000830152611cef8184611c60565b905092915050565b6000604051905090565b600080fd5b600080fd5b600080fd5b7f4e487b7100000000000000000000000000000000000000000000000000000000600052604160045260246000fd5b611d4882611b77565b810181811067ffffffffffffffff82111715611d6757611d66611d10565b5b80604052505050565b6000611d7a611cf7565b9050611d868282611d3f565b919050565b600080fd5b611d9981611b07565b8114611da457600080fd5b50565b600081359050611db681611d90565b92915050565b600080fd5b600080fd5b600067ffffffffffffffff821115611de157611de0611d10565b5b611dea82611b77565b9050602081019050919050565b82818337600083830152505050565b6000611e19611e1484611dc6565b611d70565b905082815260208101848484011115611e3557611e34611dc1565b5b611e40848285611df7565b509392505050565b600082601f830112611e5d57611e5c611dbc565b5b8135611e6d848260208601611e06565b91505092915050565b611e7f81611bc1565b8114611e8a57600080fd5b50565b600081359050611e9c81611e76565b92915050565b600060808284031215611eb857611eb7611d0b565b5b611ec26080611d70565b90506000611ed284828501611da7565b600083015250602082013567ffffffffffffffff811115611ef657611ef5611d8b565b5b611f0284828501611e48565b6020830152506040611f1684828501611da7565b6040830152506060611f2a84828501611e8d565b60608301525092915050565b600060208284031215611f4c57611f4b611d01565b5b600082013567ffffffffffffffff811115611f6a57611f69611d06565b5b611f7684828501611ea2565b91505092915050565b60008060408385031215611f9657611f95611d01565b5b600083013567ffffffffffffffff811115611fb457611fb3611d06565b5b611fc085828601611e48565b9250506020611fd185828601611da7565b9150509250929050565b600081519050919050565b600082825260208201905092915050565b6000819050602082019050919050565b600060808301600083015161201f6000860182611b19565b50602083015184820360208601526120378282611b88565b915050604083015161204c6040860182611b19565b50606083015161205f6060860182611bcd565b508091505092915050565b60006120768383612007565b905092915050565b6000602082019050919050565b600061209682611fdb565b6120a08185611fe6565b9350836020820285016120b285611ff7565b8060005b858110156120ee57848403895281516120cf858261206a565b94506120da8361207e565b925060208a019950506001810190506120b6565b50829750879550505050505092915050565b6000602082019050818103600083015261211a818461208b565b905092915050565b60006080828403121561213857612137611d0b565b5b6121426080611d70565b9050600061215284828501611da7565b600083015250602082013567ffffffffffffffff81111561217657612175611d8b565b5b61218284828501611e48565b602083015250604061219684828501611da7565b60408301525060606121aa84828501611e8d565b60608301525092915050565b6000602082840312156121cc576121cb611d01565b5b600082013567ffffffffffffffff8111156121ea576121e9611d06565b5b6121f684828501612122565b91505092915050565b7f4e487b7100000000000000000000000000000000000000000000000000000000600052602260045260246000fd5b6000600282049050600182168061224657607f821691505b6020821081141561225a576122596121ff565b5b50919050565b61226981611b07565b82525050565b60006020820190506122846000830184612260565b92915050565b60008151905061229981611e76565b92915050565b6000602082840312156122b5576122b4611d01565b5b60006122c38482850161228a565b91505092915050565b600082825260208201905092915050565b7f546869732061646472657373206973206e6f74206120466163756c7479000000600082015250565b6000612313601d836122cc565b915061231e826122dd565b602082019050919050565b6000602082019050818103600083015261234281612306565b9050919050565b7f54686973207265717565737420697320617070726f76656420616c7265616479600082015250565b600061237f6020836122cc565b915061238a82612349565b602082019050919050565b600060208201905081810360008301526123ae81612372565b9050919050565b600081905092915050565b60006123cb82611b28565b6123d581856123b5565b93506123e5818560208601611b44565b80840191505092915050565b60006123fd82846123c0565b915081905092915050565b7f54686973206c696e6b206973206e6f7420726571756573746564000000000000600082015250565b600061243e601a836122cc565b915061244982612408565b602082019050919050565b6000602082019050818103600083015261246d81612431565b9050919050565b7f526571756573746f72204465706172746d656e742063616e6e6f7420666f756e60008201527f6400000000000000000000000000000000000000000000000000000000000000602082015250565b60006124d06021836122cc565b91506124db82612474565b604082019050919050565b600060208201905081810360008301526124ff816124c3565b9050919050565b6000819050919050565b61251981612506565b82525050565b60006020820190506125346000830184612510565b92915050565b60008151905061254981611d90565b92915050565b60006020828403121561256557612564611d01565b5b60006125738482850161253a565b91505092915050565b7f5468697320466163756c7479206973206e6f742074686520666163756c74792060008201527f6f662074686520726571756573746f7200000000000000000000000000000000602082015250565b60006125d86030836122cc565b91506125e38261257c565b604082019050919050565b60006020820190508181036000830152612607816125cb565b9050919050565b7f4e487b7100000000000000000000000000000000000000000000000000000000600052603260045260246000fd5b60008190508160005260206000209050919050565b6000815461265f8161222e565b61266981866123b5565b945060018216600081146126845760018114612695576126c8565b60ff198316865281860193506126c8565b61269e8561263d565b60005b838110156126c0578154818901526001820191506020810190506126a1565b838801955050505b50505092915050565b60006126dd8284612652565b915081905092915050565b7f4e487b7100000000000000000000000000000000000000000000000000000000600052601160045260246000fd5b600061272282612506565b91507fffffffffffffffffffffffffffffffffffffffffffffffffffffffffffffffff821415612755576127546126e8565b5b600182019050919050565b7f546869732061646472657373206973206e6f74206465706172746d656e740000600082015250565b6000612796601e836122cc565b91506127a182612760565b602082019050919050565b600060208201905081810360008301526127c581612789565b9050919050565b7f546869732061646472657373206973206e6f7420696e2053545544454e545f5260008201527f4f4c450000000000000000000000000000000000000000000000000000000000602082015250565b60006128286023836122cc565b9150612833826127cc565b604082019050919050565b600060208201905081810360008301526128578161281b565b9050919050565b7f54686973206c696e6b20697320616c726561647920726571756573746564206260008201527f65666f7265000000000000000000000000000000000000000000000000000000602082015250565b60006128ba6025836122cc565b91506128c58261285e565b604082019050919050565b600060208201905081810360008301526128e9816128ad565b9050919050565b7f546869732073747564656e742773206469706c6f6d6120697320616c7265616460008201527f7920726571756573746564206265666f72650000000000000000000000000000602082015250565b600061294c6032836122cc565b9150612957826128f0565b604082019050919050565b6000602082019050818103600083015261297b8161293f565b9050919050565b600067ffffffffffffffff82111561299d5761299c611d10565b5b602082029050602081019050919050565b600080fd5b60006129c66129c184612982565b611d70565b905080838252602082019050602084028301858111156129e9576129e86129ae565b5b835b81811015612a1257806129fe888261253a565b8452602084019350506020810190506129eb565b5050509392505050565b600082601f830112612a3157612a30611dbc565b5b8151612a418482602086016129b3565b91505092915050565b600060208284031215612a6057612a5f611d01565b5b600082015167ffffffffffffffff811115612a7e57612a7d611d06565b5b612a8a84828501612a1c565b91505092915050565b7f546869732061646472657373206973206e6f74206f6e65206f6620746865207360008201527f747564656e7473206f662074686973206465706172746d656e74000000000000602082015250565b6000612aef603a836122cc565b9150612afa82612a93565b604082019050919050565b60006020820190508181036000830152612b1e81612ae2565b9050919050565b7f546869732061646472657373206973206e6f7420696e20494e5354525543544f60008201527f525f524f4c450000000000000000000000000000000000000000000000000000602082015250565b6000612b816026836122cc565b9150612b8c82612b25565b604082019050919050565b60006020820190508181036000830152612bb081612b74565b9050919050565b7f546869732061646472657373206973206e6f74206f6e65206f6620746865206960008201527f6e7374727563746f72206f662074686973206465706172746d656e7400000000602082015250565b6000612c13603c836122cc565b9150612c1e82612bb7565b604082019050919050565b60006020820190508181036000830152612c4281612c06565b9050919050565b7f546869732073747564656e742773206469706c6f6d61206973206e6f7420726560008201527f7175657374656400000000000000000000000000000000000000000000000000602082015250565b6000612ca56027836122cc565b9150612cb082612c49565b604082019050919050565b60006020820190508181036000830152612cd481612c98565b9050919050565b612ce481612506565b8114612cef57600080fd5b50565b600081519050612d0181612cdb565b92915050565b600060208284031215612d1d57612d1c611d01565b5b6000612d2b84828501612cf2565b9150509291505056fea26469706673582212202e2862deefae80667dd40413f4e7f33bbd4b316763120217732e4ebe088bc0a264736f6c634300080a0033",
  "immutableReferences": {},
  "source": "pragma solidity ^0.8.10;\r\n\r\nimport \"./Department.sol\";\r\nimport \"./Roles.sol\";\r\n\r\ncontract Request {\r\n\r\n    address departmentContractAddress;\r\n    address rolesContractAddress;\r\n\r\n    /////////////////////////////////////////////// DIPLOMA ////////////////////////////////////////////////////////////////\r\n    struct DiplomaRequest {\r\n        address studentAddress;\r\n        string diplomaLink;\r\n        address requestorDepartment;\r\n        bool atRector;\r\n    }\r\n    //DiplomaRequest list\r\n    DiplomaRequest[] _diplomaRequests;\r\n    //is Diploma link in _diplomaRequests exist\r\n    mapping(string => bool) _linkDiplomaExist;\r\n    //is Diploma student in _diplomaRequests exist\r\n    mapping(address => bool) _studentRequestExist;\r\n\r\n    constructor(address _departmentContractAddress, address _rolesContractAddress){\r\n        departmentContractAddress = _departmentContractAddress;\r\n        rolesContractAddress = _rolesContractAddress;\r\n    }\r\n\r\n    function createDiplomaRequest(string memory _diplomaLink, address _graduatedAddress) public {\r\n        //Requirements\r\n        require(Roles(rolesContractAddress).hasDepartmentRole(msg.sender), \"This address is not department\");\r\n        require(Roles(rolesContractAddress).hasStudentRole(_graduatedAddress), \"This address is not in STUDENT_ROLE\");\r\n        require(!_linkDiplomaExist[_diplomaLink], \"This link is already requested before\");\r\n        require(!_studentRequestExist[_graduatedAddress], \"This student's diploma is already requested before\");\r\n        uint256 departmentID = getDepartmentID(msg.sender);\r\n        require(departmentID > 0, \"Requestor Department cannot found\");\r\n        address[] memory students = Department(departmentContractAddress).getStudents(departmentID);\r\n        bool studentExist = false;\r\n        for (uint i = 0; i < students.length; i++) {\r\n            if (students[i] == _graduatedAddress) {\r\n                studentExist = true;\r\n            }\r\n        }\r\n        require(studentExist, \"This address is not one of the students of this department\");\r\n        DiplomaRequest memory request = DiplomaRequest(_graduatedAddress, _diplomaLink, msg.sender, false);\r\n        _diplomaRequests.push(request);\r\n        _linkDiplomaExist[_diplomaLink] = true;\r\n        _studentRequestExist[_graduatedAddress] = true;\r\n    }\r\n\r\n    function approveDiplomaRequest(DiplomaRequest memory diplomaRequest) public {\r\n        //Requirements\r\n        require(Roles(rolesContractAddress).hasFacultyRole(msg.sender), \"This address is not a Faculty\");\r\n        require(diplomaRequest.atRector == false, \"This request is approved already\");\r\n        require(_linkDiplomaExist[diplomaRequest.diplomaLink], \"This link is not requested\");\r\n        require(_studentRequestExist[diplomaRequest.studentAddress], \"This student's diploma is not requested\");\r\n\r\n        uint256 departmentID = getDepartmentID(diplomaRequest.requestorDepartment);\r\n        require(departmentID > 0, \"Requestor Department cannot found\");\r\n        require(msg.sender == Department(departmentContractAddress).getFaculty(departmentID), \"This Faculty is not the faculty of the requestor\");\r\n\r\n        //Approval\r\n        for (uint256 i = 0; i < _diplomaRequests.length; i++) {\r\n            if (keccak256(abi.encodePacked(_diplomaRequests[i].diplomaLink)) == keccak256(abi.encodePacked(diplomaRequest.diplomaLink))) {\r\n                _diplomaRequests[i].atRector = true;\r\n            }\r\n        }\r\n    }\r\n\r\n    function approveCourseRequest(CourseRequest memory courseRequest) public {\r\n        //Requirements\r\n        require(Roles(rolesContractAddress).hasFacultyRole(msg.sender), \"This address is not a Faculty\");\r\n        require(courseRequest.atRector == false, \"This request is approved already\");\r\n        require(_linkCourseExist[courseRequest.courseLink], \"This link is not requested\");\r\n\r\n        uint256 departmentID = getDepartmentID(courseRequest.requestorDepartment);\r\n        require(departmentID > 0, \"Requestor Department cannot found\");\r\n        require(msg.sender == Department(departmentContractAddress).getFaculty(departmentID), \"This Faculty is not the faculty of the requestor\");\r\n        //Approval\r\n        for (uint256 i = 0; i < _courseRequests.length; i++) {\r\n            if (keccak256(abi.encodePacked(_courseRequests[i].courseLink)) == keccak256(abi.encodePacked(courseRequest.courseLink))) {\r\n                _courseRequests[i].atRector = true;\r\n            }\r\n        }\r\n    }\r\n\r\n    function disapproveDiplomaRequest() public {\r\n        //        require(Roles(rolesContractAddress).hasFacultyRole(msg.sender), \"This address is not a Faculty\");\r\n    }\r\n\r\n    function getDiplomaRequests() public view returns (DiplomaRequest[] memory){\r\n        return _diplomaRequests;\r\n    }\r\n\r\n    ////////////////////////////////////////////////////////////////////////////////////////////////////////////////////////\r\n    /////////////////////////////////////////////// COURSE /////////////////////////////////////////////////////////////////\r\n    struct CourseRequest {\r\n        address instructorAddress;\r\n        string courseLink;\r\n        address requestorDepartment;\r\n        bool atRector;\r\n    }\r\n    //CourseRequest list\r\n    CourseRequest[] _courseRequests;\r\n    //is Diploma link in _courseRequests exist\r\n    mapping(string => bool) _linkCourseExist;\r\n\r\n    function createCourseRequest(string memory _courseLink, address _instructorAddress) public {\r\n        //Requirements\r\n        require(Roles(rolesContractAddress).hasDepartmentRole(msg.sender), \"This address is not department\");\r\n        require(Roles(rolesContractAddress).hasInstructorRole(_instructorAddress), \"This address is not in INSTRUCTOR_ROLE\");\r\n        require(!_linkCourseExist[_courseLink], \"This link is already requested before\");\r\n        uint256 departmentID = getDepartmentID(msg.sender);\r\n        require(departmentID > 0, \"Requestor Department cannot found\");\r\n        address[] memory instructors = Department(departmentContractAddress).getInstructors(departmentID);\r\n        bool instructorExist = false;\r\n        for (uint i = 0; i < instructors.length; i++) {\r\n            if (instructors[i] == _instructorAddress) {\r\n                instructorExist = true;\r\n            }\r\n        }\r\n        require(instructorExist, \"This address is not one of the instructor of this department\");\r\n        CourseRequest memory request = CourseRequest(_instructorAddress, _courseLink, msg.sender, false);\r\n        _courseRequests.push(request);\r\n        _linkCourseExist[_courseLink] = true;\r\n    }\r\n\r\n    function disapproveCourseRequest() public {\r\n        //        require(Roles(rolesContractAddress).hasFacultyRole(msg.sender), \"This address is not a Faculty\");\r\n    }\r\n\r\n    function getCourseRequests() public view returns (CourseRequest[] memory){\r\n        return _courseRequests;\r\n    }\r\n    ////////////////////////////////////////////////////////////////////////////////////////////////////////////////////////\r\n    function getDepartmentID(address departmentAddress) private returns (uint256){\r\n        for (uint256 i = 1; i <= Department(departmentContractAddress).getTotalSupply(); i++) {\r\n            if (Department(departmentContractAddress).ownerOf(i) == departmentAddress) {\r\n                return i;\r\n            }\r\n        }\r\n        return 0;\r\n    }\r\n\r\n}\r\n",
  "sourcePath": "C:\\Users\\asus\\Desktop\\Dersler\\CMPE492\\certification-project\\contracts\\Request.sol",
  "compiler": {
    "name": "solc",
    "version": "0.8.10+commit.fc410830.Emscripten.clang"
  },
  "schemaVersion": "3.4.4",
  "updatedAt": "2022-01-19T23:58:03.285Z",
  "devdoc": {
    "kind": "dev",
    "methods": {},
    "version": 1
  },
  "userdoc": {
    "kind": "user",
    "methods": {},
    "version": 1
  }
}