{
  "contractName": "Roles",
  "abi": [
    {
      "inputs": [],
      "stateMutability": "nonpayable",
      "type": "constructor"
    },
    {
      "anonymous": false,
      "inputs": [
        {
          "indexed": true,
          "internalType": "bytes32",
          "name": "role",
          "type": "bytes32"
        },
        {
          "indexed": true,
          "internalType": "bytes32",
          "name": "previousAdminRole",
          "type": "bytes32"
        },
        {
          "indexed": true,
          "internalType": "bytes32",
          "name": "newAdminRole",
          "type": "bytes32"
        }
      ],
      "name": "RoleAdminChanged",
      "type": "event"
    },
    {
      "anonymous": false,
      "inputs": [
        {
          "indexed": true,
          "internalType": "bytes32",
          "name": "role",
          "type": "bytes32"
        },
        {
          "indexed": true,
          "internalType": "address",
          "name": "account",
          "type": "address"
        },
        {
          "indexed": true,
          "internalType": "address",
          "name": "sender",
          "type": "address"
        }
      ],
      "name": "RoleGranted",
      "type": "event"
    },
    {
      "anonymous": false,
      "inputs": [
        {
          "indexed": true,
          "internalType": "bytes32",
          "name": "role",
          "type": "bytes32"
        },
        {
          "indexed": true,
          "internalType": "address",
          "name": "account",
          "type": "address"
        },
        {
          "indexed": true,
          "internalType": "address",
          "name": "sender",
          "type": "address"
        }
      ],
      "name": "RoleRevoked",
      "type": "event"
    },
    {
      "inputs": [],
      "name": "DEFAULT_ADMIN_ROLE",
      "outputs": [
        {
          "internalType": "bytes32",
          "name": "",
          "type": "bytes32"
        }
      ],
      "stateMutability": "view",
      "type": "function"
    },
    {
      "inputs": [],
      "name": "DEPARTMENT_ROLE",
      "outputs": [
        {
          "internalType": "bytes32",
          "name": "",
          "type": "bytes32"
        }
      ],
      "stateMutability": "view",
      "type": "function"
    },
    {
      "inputs": [],
      "name": "FACULTY_ROLE",
      "outputs": [
        {
          "internalType": "bytes32",
          "name": "",
          "type": "bytes32"
        }
      ],
      "stateMutability": "view",
      "type": "function"
    },
    {
      "inputs": [],
      "name": "GRADUATED_ROLE",
      "outputs": [
        {
          "internalType": "bytes32",
          "name": "",
          "type": "bytes32"
        }
      ],
      "stateMutability": "view",
      "type": "function"
    },
    {
      "inputs": [],
      "name": "INSTRUCTOR_ROLE",
      "outputs": [
        {
          "internalType": "bytes32",
          "name": "",
          "type": "bytes32"
        }
      ],
      "stateMutability": "view",
      "type": "function"
    },
    {
      "inputs": [],
      "name": "RECTOR_ROLE",
      "outputs": [
        {
          "internalType": "bytes32",
          "name": "",
          "type": "bytes32"
        }
      ],
      "stateMutability": "view",
      "type": "function"
    },
    {
      "inputs": [],
      "name": "STUDENT_ROLE",
      "outputs": [
        {
          "internalType": "bytes32",
          "name": "",
          "type": "bytes32"
        }
      ],
      "stateMutability": "view",
      "type": "function"
    },
    {
      "inputs": [
        {
          "internalType": "bytes32",
          "name": "role",
          "type": "bytes32"
        }
      ],
      "name": "getRoleAdmin",
      "outputs": [
        {
          "internalType": "bytes32",
          "name": "",
          "type": "bytes32"
        }
      ],
      "stateMutability": "view",
      "type": "function"
    },
    {
      "inputs": [
        {
          "internalType": "bytes32",
          "name": "role",
          "type": "bytes32"
        },
        {
          "internalType": "uint256",
          "name": "index",
          "type": "uint256"
        }
      ],
      "name": "getRoleMember",
      "outputs": [
        {
          "internalType": "address",
          "name": "",
          "type": "address"
        }
      ],
      "stateMutability": "view",
      "type": "function"
    },
    {
      "inputs": [
        {
          "internalType": "bytes32",
          "name": "role",
          "type": "bytes32"
        }
      ],
      "name": "getRoleMemberCount",
      "outputs": [
        {
          "internalType": "uint256",
          "name": "",
          "type": "uint256"
        }
      ],
      "stateMutability": "view",
      "type": "function"
    },
    {
      "inputs": [
        {
          "internalType": "bytes32",
          "name": "role",
          "type": "bytes32"
        },
        {
          "internalType": "address",
          "name": "account",
          "type": "address"
        }
      ],
      "name": "grantRole",
      "outputs": [],
      "stateMutability": "nonpayable",
      "type": "function"
    },
    {
      "inputs": [
        {
          "internalType": "bytes32",
          "name": "role",
          "type": "bytes32"
        },
        {
          "internalType": "address",
          "name": "account",
          "type": "address"
        }
      ],
      "name": "hasRole",
      "outputs": [
        {
          "internalType": "bool",
          "name": "",
          "type": "bool"
        }
      ],
      "stateMutability": "view",
      "type": "function"
    },
    {
      "inputs": [
        {
          "internalType": "bytes32",
          "name": "role",
          "type": "bytes32"
        },
        {
          "internalType": "address",
          "name": "account",
          "type": "address"
        }
      ],
      "name": "renounceRole",
      "outputs": [],
      "stateMutability": "nonpayable",
      "type": "function"
    },
    {
      "inputs": [
        {
          "internalType": "bytes32",
          "name": "role",
          "type": "bytes32"
        },
        {
          "internalType": "address",
          "name": "account",
          "type": "address"
        }
      ],
      "name": "revokeRole",
      "outputs": [],
      "stateMutability": "nonpayable",
      "type": "function"
    },
    {
      "inputs": [
        {
          "internalType": "bytes4",
          "name": "interfaceId",
          "type": "bytes4"
        }
      ],
      "name": "supportsInterface",
      "outputs": [
        {
          "internalType": "bool",
          "name": "",
          "type": "bool"
        }
      ],
      "stateMutability": "view",
      "type": "function"
    },
    {
      "inputs": [
        {
          "internalType": "address",
          "name": "_courseContractAddress",
          "type": "address"
        },
        {
          "internalType": "address",
          "name": "_departmentContractAddress",
          "type": "address"
        },
        {
          "internalType": "address",
          "name": "_diplomaContractAddress",
          "type": "address"
        },
        {
          "internalType": "address",
          "name": "_facultyContractAddress",
          "type": "address"
        }
      ],
      "name": "init",
      "outputs": [],
      "stateMutability": "nonpayable",
      "type": "function"
    },
    {
      "inputs": [
        {
          "internalType": "address",
          "name": "account",
          "type": "address"
        }
      ],
      "name": "grantRectorRole",
      "outputs": [],
      "stateMutability": "nonpayable",
      "type": "function"
    },
    {
      "inputs": [
        {
          "internalType": "address",
          "name": "account",
          "type": "address"
        }
      ],
      "name": "grantFacultyRole",
      "outputs": [],
      "stateMutability": "nonpayable",
      "type": "function"
    },
    {
      "inputs": [
        {
          "internalType": "address",
          "name": "account",
          "type": "address"
        }
      ],
      "name": "grantDepartmentRole",
      "outputs": [],
      "stateMutability": "nonpayable",
      "type": "function"
    },
    {
      "inputs": [
        {
          "internalType": "address",
          "name": "account",
          "type": "address"
        }
      ],
      "name": "grantInstructorRole",
      "outputs": [],
      "stateMutability": "nonpayable",
      "type": "function"
    },
    {
      "inputs": [
        {
          "internalType": "address",
          "name": "account",
          "type": "address"
        }
      ],
      "name": "grantStudentRole",
      "outputs": [],
      "stateMutability": "nonpayable",
      "type": "function"
    },
    {
      "inputs": [
        {
          "internalType": "address",
          "name": "account",
          "type": "address"
        }
      ],
      "name": "grantGraduatedRole",
      "outputs": [],
      "stateMutability": "nonpayable",
      "type": "function"
    },
    {
      "inputs": [
        {
          "internalType": "address",
          "name": "account",
          "type": "address"
        }
      ],
      "name": "hasRectorRole",
      "outputs": [
        {
          "internalType": "bool",
          "name": "",
          "type": "bool"
        }
      ],
      "stateMutability": "view",
      "type": "function"
    },
    {
      "inputs": [
        {
          "internalType": "address",
          "name": "account",
          "type": "address"
        }
      ],
      "name": "hasFacultyRole",
      "outputs": [
        {
          "internalType": "bool",
          "name": "",
          "type": "bool"
        }
      ],
      "stateMutability": "view",
      "type": "function"
    },
    {
      "inputs": [
        {
          "internalType": "address",
          "name": "account",
          "type": "address"
        }
      ],
      "name": "hasDepartmentRole",
      "outputs": [
        {
          "internalType": "bool",
          "name": "",
          "type": "bool"
        }
      ],
      "stateMutability": "view",
      "type": "function"
    },
    {
      "inputs": [
        {
          "internalType": "address",
          "name": "account",
          "type": "address"
        }
      ],
      "name": "hasInstructorRole",
      "outputs": [
        {
          "internalType": "bool",
          "name": "",
          "type": "bool"
        }
      ],
      "stateMutability": "view",
      "type": "function"
    },
    {
      "inputs": [
        {
          "internalType": "address",
          "name": "account",
          "type": "address"
        }
      ],
      "name": "hasStudentRole",
      "outputs": [
        {
          "internalType": "bool",
          "name": "",
          "type": "bool"
        }
      ],
      "stateMutability": "view",
      "type": "function"
    },
    {
      "inputs": [
        {
          "internalType": "address",
          "name": "account",
          "type": "address"
        }
      ],
      "name": "hasGraduatedRole",
      "outputs": [
        {
          "internalType": "bool",
          "name": "",
          "type": "bool"
        }
      ],
      "stateMutability": "view",
      "type": "function"
    },
    {
      "inputs": [],
      "name": "getRectorRole",
      "outputs": [
        {
          "internalType": "address",
          "name": "",
          "type": "address"
        }
      ],
      "stateMutability": "view",
      "type": "function"
    },
    {
      "inputs": [],
      "name": "getFacultyRoles",
      "outputs": [
        {
          "internalType": "address[]",
          "name": "",
          "type": "address[]"
        }
      ],
      "stateMutability": "view",
      "type": "function"
    },
    {
      "inputs": [],
      "name": "getDepartmentRoles",
      "outputs": [
        {
          "internalType": "address[]",
          "name": "",
          "type": "address[]"
        }
      ],
      "stateMutability": "view",
      "type": "function"
    },
    {
      "inputs": [],
      "name": "getInstructorRoles",
      "outputs": [
        {
          "internalType": "address[]",
          "name": "",
          "type": "address[]"
        }
      ],
      "stateMutability": "view",
      "type": "function"
    },
    {
      "inputs": [],
      "name": "getStudentRoles",
      "outputs": [
        {
          "internalType": "address[]",
          "name": "",
          "type": "address[]"
        }
      ],
      "stateMutability": "view",
      "type": "function"
    },
    {
      "inputs": [],
      "name": "getGraduatedRoles",
      "outputs": [
        {
          "internalType": "address[]",
          "name": "",
          "type": "address[]"
        }
      ],
      "stateMutability": "view",
      "type": "function"
    },
    {
      "inputs": [
        {
          "internalType": "address",
          "name": "account",
          "type": "address"
        }
      ],
      "name": "revokeFacultyRole",
      "outputs": [],
      "stateMutability": "nonpayable",
      "type": "function"
    },
    {
      "inputs": [
        {
          "internalType": "address",
          "name": "account",
          "type": "address"
        }
      ],
      "name": "revokeDepartmentRole",
      "outputs": [],
      "stateMutability": "nonpayable",
      "type": "function"
    },
    {
      "inputs": [
        {
          "internalType": "address",
          "name": "account",
          "type": "address"
        }
      ],
      "name": "revokeInstructorRole",
      "outputs": [],
      "stateMutability": "nonpayable",
      "type": "function"
    },
    {
      "inputs": [
        {
          "internalType": "address",
          "name": "account",
          "type": "address"
        }
      ],
      "name": "revokeStudentRole",
      "outputs": [],
      "stateMutability": "nonpayable",
      "type": "function"
    }
  ],
  "bytecode": "0x60806040523480156200001157600080fd5b50620000276000801b33620000a060201b60201c565b620000597f5f1d1e303f9c0a1801dd708bdc4239781d66c88ca6cb941c5769ba09b5c1b28533620000a060201b60201c565b33600260006101000a81548173ffffffffffffffffffffffffffffffffffffffff021916908373ffffffffffffffffffffffffffffffffffffffff16021790555062000336565b620000b28282620000b660201b60201c565b5050565b620000cd8282620000fe60201b620016681760201c565b620000f98160016000858152602001908152602001600020620001ef60201b620017481790919060201c565b505050565b6200011082826200022760201b60201c565b620001eb57600160008084815260200190815260200160002060000160008373ffffffffffffffffffffffffffffffffffffffff1673ffffffffffffffffffffffffffffffffffffffff16815260200190815260200160002060006101000a81548160ff021916908315150217905550620001906200029160201b60201c565b73ffffffffffffffffffffffffffffffffffffffff168173ffffffffffffffffffffffffffffffffffffffff16837f2f8788117e7eff1d82e926ec794901d17c78024a50270940304540a733656f0d60405160405180910390a45b5050565b60006200021f836000018373ffffffffffffffffffffffffffffffffffffffff1660001b6200029960201b60201c565b905092915050565b600080600084815260200190815260200160002060000160008373ffffffffffffffffffffffffffffffffffffffff1673ffffffffffffffffffffffffffffffffffffffff16815260200190815260200160002060009054906101000a900460ff16905092915050565b600033905090565b6000620002ad83836200031360201b60201c565b620003085782600001829080600181540180825580915050600190039060005260206000200160009091909190915055826000018054905083600101600084815260200190815260200160002081905550600190506200030d565b600090505b92915050565b600080836001016000848152602001908152602001600020541415905092915050565b612a0380620003466000396000f3fe608060405234801561001057600080fd5b50600436106102325760003560e01c80638bcf979c11610130578063b9447051116100b8578063db0b1fee1161007c578063db0b1fee14610689578063e17f6b2c146106a7578063e78af7c5146106d7578063f7be43fb14610707578063fc3ba6b41461072557610232565b8063b9447051146105e7578063ba5adbd114610603578063c94d10ad14610621578063ca15c8731461063d578063d547741f1461066d57610232565b8063973c4b6c116100ff578063973c4b6c1461053f5780639822a5991461055d578063996dc0221461058d578063a217fddf146105ab578063ad7be93a146105c957610232565b80638bcf979c146104a55780638df6674a146104c35780639010d07c146104df57806391d148541461050f57610232565b80632f2ff15d116101be5780635ea07b1c116101825780635ea07b1c146104035780635f1d514e1461041f5780636fe3ceb81461043b5780637168c27d1461045957806386f8e92c1461048957610232565b80632f2ff15d1461037557806332b3c8461461039157806336568abe146103ad578063529f790c146103c95780635e3c7e8e146103e557610232565b806316bec7811161020557806316bec781146102bb578063248a9ca3146102d957806324d42a37146103095780632b1533c4146103275780632be7dc441461034557610232565b806301ffc9a7146102375780630252dffc1461026757806306552ff31461028357806312fb59f21461029f575b600080fd5b610251600480360381019061024c91906120bb565b610755565b60405161025e9190612103565b60405180910390f35b610281600480360381019061027c919061217c565b6107cf565b005b61029d600480360381019061029891906121a9565b61083a565b005b6102b960048036038101906102b4919061217c565b61094f565b005b6102c3610a12565b6040516102d091906122ce565b60405180910390f35b6102f360048036038101906102ee9190612326565b610aa0565b6040516103009190612362565b60405180910390f35b610311610abf565b60405161031e9190612362565b60405180910390f35b61032f610ae3565b60405161033c91906122ce565b60405180910390f35b61035f600480360381019061035a919061217c565b610b71565b60405161036c9190612103565b60405180910390f35b61038f600480360381019061038a919061237d565b610ba4565b005b6103ab60048036038101906103a6919061217c565b610bcd565b005b6103c760048036038101906103c2919061237d565b610c38565b005b6103e360048036038101906103de919061217c565b610cbb565b005b6103ed610d7e565b6040516103fa91906122ce565b60405180910390f35b61041d6004803603810190610418919061217c565b610e0c565b005b6104396004803603810190610434919061217c565b610f41565b005b610443611004565b6040516104509190612362565b60405180910390f35b610473600480360381019061046e919061217c565b611028565b6040516104809190612103565b60405180910390f35b6104a3600480360381019061049e919061217c565b61105b565b005b6104ad6110c6565b6040516104ba9190612362565b60405180910390f35b6104dd60048036038101906104d8919061217c565b6110ea565b005b6104f960048036038101906104f491906123f3565b6111cf565b6040516105069190612442565b60405180910390f35b6105296004803603810190610524919061237d565b6111fe565b6040516105369190612103565b60405180910390f35b610547611268565b6040516105549190612442565b60405180910390f35b6105776004803603810190610572919061217c565b611292565b6040516105849190612103565b60405180910390f35b6105956112c5565b6040516105a29190612362565b60405180910390f35b6105b36112e9565b6040516105c09190612362565b60405180910390f35b6105d16112f0565b6040516105de9190612362565b60405180910390f35b61060160048036038101906105fc919061217c565b611314565b005b61060b61137f565b60405161061891906122ce565b60405180910390f35b61063b6004803603810190610636919061217c565b61140d565b005b61065760048036038101906106529190612326565b6114d0565b604051610664919061246c565b60405180910390f35b6106876004803603810190610682919061237d565b6114f4565b005b61069161151d565b60405161069e91906122ce565b60405180910390f35b6106c160048036038101906106bc919061217c565b6115ab565b6040516106ce9190612103565b60405180910390f35b6106f160048036038101906106ec919061217c565b6115de565b6040516106fe9190612103565b60405180910390f35b61070f611611565b60405161071c9190612362565b60405180910390f35b61073f600480360381019061073a919061217c565b611635565b60405161074c9190612103565b60405180910390f35b60007f5a05180f000000000000000000000000000000000000000000000000000000007bffffffffffffffffffffffffffffffffffffffffffffffffffffffff1916827bffffffffffffffffffffffffffffffffffffffffffffffffffffffff191614806107c857506107c782611778565b5b9050919050565b7f5f1d1e303f9c0a1801dd708bdc4239781d66c88ca6cb941c5769ba09b5c1b285610801816107fc6117f2565b6117fa565b61082b7fe7837d04f36ce0b2f3cc662bf1b2b632a7fbd12ae95199e8bd3dcfbcc440b66b836114f4565b610836826004611897565b5050565b7f5f1d1e303f9c0a1801dd708bdc4239781d66c88ca6cb941c5769ba09b5c1b28561086c816108676117f2565b6117fa565b6108796000801b86611a1f565b6108a37f5f1d1e303f9c0a1801dd708bdc4239781d66c88ca6cb941c5769ba09b5c1b28586611a1f565b6108b06000801b85611a1f565b6108da7f5f1d1e303f9c0a1801dd708bdc4239781d66c88ca6cb941c5769ba09b5c1b28585611a1f565b6108e76000801b84611a1f565b6109117f5f1d1e303f9c0a1801dd708bdc4239781d66c88ca6cb941c5769ba09b5c1b28584611a1f565b61091e6000801b83611a1f565b6109487f5f1d1e303f9c0a1801dd708bdc4239781d66c88ca6cb941c5769ba09b5c1b28583611a1f565b5050505050565b7f5f1d1e303f9c0a1801dd708bdc4239781d66c88ca6cb941c5769ba09b5c1b2856109818161097c6117f2565b6117fa565b6109ab7fe7837d04f36ce0b2f3cc662bf1b2b632a7fbd12ae95199e8bd3dcfbcc440b66b83610ba4565b6004829080600181540180825580915050600190039060005260206000200160009091909190916101000a81548173ffffffffffffffffffffffffffffffffffffffff021916908373ffffffffffffffffffffffffffffffffffffffff1602179055505050565b60606004805480602002602001604051908101604052809291908181526020018280548015610a9657602002820191906000526020600020905b8160009054906101000a900473ffffffffffffffffffffffffffffffffffffffff1673ffffffffffffffffffffffffffffffffffffffff1681526020019060010190808311610a4c575b5050505050905090565b6000806000838152602001908152602001600020600101549050919050565b7f5f1d1e303f9c0a1801dd708bdc4239781d66c88ca6cb941c5769ba09b5c1b28581565b60606003805480602002602001604051908101604052809291908181526020018280548015610b6757602002820191906000526020600020905b8160009054906101000a900473ffffffffffffffffffffffffffffffffffffffff1673ffffffffffffffffffffffffffffffffffffffff1681526020019060010190808311610b1d575b5050505050905090565b6000610b9d7f5f1d1e303f9c0a1801dd708bdc4239781d66c88ca6cb941c5769ba09b5c1b285836111fe565b9050919050565b610bad82610aa0565b610bbe81610bb96117f2565b6117fa565b610bc88383611a2d565b505050565b7f5f1d1e303f9c0a1801dd708bdc4239781d66c88ca6cb941c5769ba09b5c1b285610bff81610bfa6117f2565b6117fa565b610c297f36a5c4aaacb6b388bbd448bf11096b7dafc5652bcc9046084fd0e95b1fb0b2cc836114f4565b610c34826006611897565b5050565b610c406117f2565b73ffffffffffffffffffffffffffffffffffffffff168173ffffffffffffffffffffffffffffffffffffffff1614610cad576040517f08c379a0000000000000000000000000000000000000000000000000000000008152600401610ca49061250a565b60405180910390fd5b610cb78282611a61565b5050565b7f5f1d1e303f9c0a1801dd708bdc4239781d66c88ca6cb941c5769ba09b5c1b285610ced81610ce86117f2565b6117fa565b610d177ff3f9cfff7b46f415da5a492b1718971da203f87c6aae9299e7b408eb83ef8bee83610ba4565b6003829080600181540180825580915050600190039060005260206000200160009091909190916101000a81548173ffffffffffffffffffffffffffffffffffffffff021916908373ffffffffffffffffffffffffffffffffffffffff1602179055505050565b60606005805480602002602001604051908101604052809291908181526020018280548015610e0257602002820191906000526020600020905b8160009054906101000a900473ffffffffffffffffffffffffffffffffffffffff1673ffffffffffffffffffffffffffffffffffffffff1681526020019060010190808311610db8575b5050505050905090565b7f5f1d1e303f9c0a1801dd708bdc4239781d66c88ca6cb941c5769ba09b5c1b285610e3e81610e396117f2565b6117fa565b610e687f36a5c4aaacb6b388bbd448bf11096b7dafc5652bcc9046084fd0e95b1fb0b2cc836111fe565b610ea7576040517f08c379a0000000000000000000000000000000000000000000000000000000008152600401610e9e90612576565b60405180910390fd5b610eb082610bcd565b610eda7f4758f7d70d6088cbfad5c79861ac6457ba2af02adf5ea419e97879ae24459cb683610ba4565b6007829080600181540180825580915050600190039060005260206000200160009091909190916101000a81548173ffffffffffffffffffffffffffffffffffffffff021916908373ffffffffffffffffffffffffffffffffffffffff1602179055505050565b7f5f1d1e303f9c0a1801dd708bdc4239781d66c88ca6cb941c5769ba09b5c1b285610f7381610f6e6117f2565b6117fa565b610f9d7fae4a0595970935aa5495afbbb72e5f1f6ff1062766b4a3028c0c9b7d5cf7e34583610ba4565b6005829080600181540180825580915050600190039060005260206000200160009091909190916101000a81548173ffffffffffffffffffffffffffffffffffffffff021916908373ffffffffffffffffffffffffffffffffffffffff1602179055505050565b7ff3f9cfff7b46f415da5a492b1718971da203f87c6aae9299e7b408eb83ef8bee81565b60006110547f4758f7d70d6088cbfad5c79861ac6457ba2af02adf5ea419e97879ae24459cb6836111fe565b9050919050565b7f5f1d1e303f9c0a1801dd708bdc4239781d66c88ca6cb941c5769ba09b5c1b28561108d816110886117f2565b6117fa565b6110b77fae4a0595970935aa5495afbbb72e5f1f6ff1062766b4a3028c0c9b7d5cf7e345836114f4565b6110c2826005611897565b5050565b7fae4a0595970935aa5495afbbb72e5f1f6ff1062766b4a3028c0c9b7d5cf7e34581565b7f5f1d1e303f9c0a1801dd708bdc4239781d66c88ca6cb941c5769ba09b5c1b28561111c816111176117f2565b6117fa565b6111467f5f1d1e303f9c0a1801dd708bdc4239781d66c88ca6cb941c5769ba09b5c1b28583610ba4565b6111536000801b83610ba4565b6111606000801b33610c38565b61118a7f5f1d1e303f9c0a1801dd708bdc4239781d66c88ca6cb941c5769ba09b5c1b28533610c38565b81600260006101000a81548173ffffffffffffffffffffffffffffffffffffffff021916908373ffffffffffffffffffffffffffffffffffffffff1602179055505050565b60006111f68260016000868152602001908152602001600020611a9590919063ffffffff16565b905092915050565b600080600084815260200190815260200160002060000160008373ffffffffffffffffffffffffffffffffffffffff1673ffffffffffffffffffffffffffffffffffffffff16815260200190815260200160002060009054906101000a900460ff16905092915050565b6000600260009054906101000a900473ffffffffffffffffffffffffffffffffffffffff16905090565b60006112be7fae4a0595970935aa5495afbbb72e5f1f6ff1062766b4a3028c0c9b7d5cf7e345836111fe565b9050919050565b7fe7837d04f36ce0b2f3cc662bf1b2b632a7fbd12ae95199e8bd3dcfbcc440b66b81565b6000801b81565b7f4758f7d70d6088cbfad5c79861ac6457ba2af02adf5ea419e97879ae24459cb681565b7f5f1d1e303f9c0a1801dd708bdc4239781d66c88ca6cb941c5769ba09b5c1b285611346816113416117f2565b6117fa565b6113707ff3f9cfff7b46f415da5a492b1718971da203f87c6aae9299e7b408eb83ef8bee836114f4565b61137b826003611897565b5050565b6060600680548060200260200160405190810160405280929190818152602001828054801561140357602002820191906000526020600020905b8160009054906101000a900473ffffffffffffffffffffffffffffffffffffffff1673ffffffffffffffffffffffffffffffffffffffff16815260200190600101908083116113b9575b5050505050905090565b7f5f1d1e303f9c0a1801dd708bdc4239781d66c88ca6cb941c5769ba09b5c1b28561143f8161143a6117f2565b6117fa565b6114697f36a5c4aaacb6b388bbd448bf11096b7dafc5652bcc9046084fd0e95b1fb0b2cc83610ba4565b6006829080600181540180825580915050600190039060005260206000200160009091909190916101000a81548173ffffffffffffffffffffffffffffffffffffffff021916908373ffffffffffffffffffffffffffffffffffffffff1602179055505050565b60006114ed60016000848152602001908152602001600020611aaf565b9050919050565b6114fd82610aa0565b61150e816115096117f2565b6117fa565b6115188383611a61565b505050565b606060078054806020026020016040519081016040528092919081815260200182805480156115a157602002820191906000526020600020905b8160009054906101000a900473ffffffffffffffffffffffffffffffffffffffff1673ffffffffffffffffffffffffffffffffffffffff1681526020019060010190808311611557575b5050505050905090565b60006115d77fe7837d04f36ce0b2f3cc662bf1b2b632a7fbd12ae95199e8bd3dcfbcc440b66b836111fe565b9050919050565b600061160a7ff3f9cfff7b46f415da5a492b1718971da203f87c6aae9299e7b408eb83ef8bee836111fe565b9050919050565b7f36a5c4aaacb6b388bbd448bf11096b7dafc5652bcc9046084fd0e95b1fb0b2cc81565b60006116617f36a5c4aaacb6b388bbd448bf11096b7dafc5652bcc9046084fd0e95b1fb0b2cc836111fe565b9050919050565b61167282826111fe565b61174457600160008084815260200190815260200160002060000160008373ffffffffffffffffffffffffffffffffffffffff1673ffffffffffffffffffffffffffffffffffffffff16815260200190815260200160002060006101000a81548160ff0219169083151502179055506116e96117f2565b73ffffffffffffffffffffffffffffffffffffffff168173ffffffffffffffffffffffffffffffffffffffff16837f2f8788117e7eff1d82e926ec794901d17c78024a50270940304540a733656f0d60405160405180910390a45b5050565b6000611770836000018373ffffffffffffffffffffffffffffffffffffffff1660001b611ac4565b905092915050565b60007f7965db0b000000000000000000000000000000000000000000000000000000007bffffffffffffffffffffffffffffffffffffffffffffffffffffffff1916827bffffffffffffffffffffffffffffffffffffffffffffffffffffffff191614806117eb57506117ea82611b34565b5b9050919050565b600033905090565b61180482826111fe565b611893576118298173ffffffffffffffffffffffffffffffffffffffff166014611b9e565b6118378360001c6020611b9e565b6040516020016118489291906126a8565b6040516020818303038152906040526040517f08c379a000000000000000000000000000000000000000000000000000000000815260040161188a919061272c565b60405180910390fd5b5050565b60005b8180549050811015611a1a578273ffffffffffffffffffffffffffffffffffffffff168282815481106118d0576118cf61274e565b5b9060005260206000200160009054906101000a900473ffffffffffffffffffffffffffffffffffffffff1673ffffffffffffffffffffffffffffffffffffffff161415611a0757816001838054905061192991906127ac565b8154811061193a5761193961274e565b5b9060005260206000200160009054906101000a900473ffffffffffffffffffffffffffffffffffffffff168282815481106119785761197761274e565b5b9060005260206000200160006101000a81548173ffffffffffffffffffffffffffffffffffffffff021916908373ffffffffffffffffffffffffffffffffffffffff160217905550818054806119d1576119d06127e0565b5b6001900381819060005260206000200160006101000a81549073ffffffffffffffffffffffffffffffffffffffff021916905590555b8080611a129061280f565b91505061189a565b505050565b611a298282611a2d565b5050565b611a378282611668565b611a5c816001600085815260200190815260200160002061174890919063ffffffff16565b505050565b611a6b8282611dda565b611a908160016000858152602001908152602001600020611ebb90919063ffffffff16565b505050565b6000611aa48360000183611eeb565b60001c905092915050565b6000611abd82600001611f16565b9050919050565b6000611ad08383611f27565b611b29578260000182908060018154018082558091505060019003906000526020600020016000909190919091505582600001805490508360010160008481526020019081526020016000208190555060019050611b2e565b600090505b92915050565b60007f01ffc9a7000000000000000000000000000000000000000000000000000000007bffffffffffffffffffffffffffffffffffffffffffffffffffffffff1916827bffffffffffffffffffffffffffffffffffffffffffffffffffffffff1916149050919050565b606060006002836002611bb19190612858565b611bbb91906128b2565b67ffffffffffffffff811115611bd457611bd3612908565b5b6040519080825280601f01601f191660200182016040528015611c065781602001600182028036833780820191505090505b5090507f300000000000000000000000000000000000000000000000000000000000000081600081518110611c3e57611c3d61274e565b5b60200101907effffffffffffffffffffffffffffffffffffffffffffffffffffffffffffff1916908160001a9053507f780000000000000000000000000000000000000000000000000000000000000081600181518110611ca257611ca161274e565b5b60200101907effffffffffffffffffffffffffffffffffffffffffffffffffffffffffffff1916908160001a90535060006001846002611ce29190612858565b611cec91906128b2565b90505b6001811115611d8c577f3031323334353637383961626364656600000000000000000000000000000000600f861660108110611d2e57611d2d61274e565b5b1a60f81b828281518110611d4557611d4461274e565b5b60200101907effffffffffffffffffffffffffffffffffffffffffffffffffffffffffffff1916908160001a905350600485901c945080611d8590612937565b9050611cef565b5060008414611dd0576040517f08c379a0000000000000000000000000000000000000000000000000000000008152600401611dc7906129ad565b60405180910390fd5b8091505092915050565b611de482826111fe565b15611eb757600080600084815260200190815260200160002060000160008373ffffffffffffffffffffffffffffffffffffffff1673ffffffffffffffffffffffffffffffffffffffff16815260200190815260200160002060006101000a81548160ff021916908315150217905550611e5c6117f2565b73ffffffffffffffffffffffffffffffffffffffff168173ffffffffffffffffffffffffffffffffffffffff16837ff6391f5c32d9c69d2a47ea670b442974b53935d1edc7fd64eb21e047a839171b60405160405180910390a45b5050565b6000611ee3836000018373ffffffffffffffffffffffffffffffffffffffff1660001b611f4a565b905092915050565b6000826000018281548110611f0357611f0261274e565b5b9060005260206000200154905092915050565b600081600001805490509050919050565b600080836001016000848152602001908152602001600020541415905092915050565b60008083600101600084815260200190815260200160002054905060008114612052576000600182611f7c91906127ac565b9050600060018660000180549050611f9491906127ac565b9050818114612003576000866000018281548110611fb557611fb461274e565b5b9060005260206000200154905080876000018481548110611fd957611fd861274e565b5b90600052602060002001819055508387600101600083815260200190815260200160002081905550505b85600001805480612017576120166127e0565b5b600190038181906000526020600020016000905590558560010160008681526020019081526020016000206000905560019350505050612058565b60009150505b92915050565b600080fd5b60007fffffffff0000000000000000000000000000000000000000000000000000000082169050919050565b61209881612063565b81146120a357600080fd5b50565b6000813590506120b58161208f565b92915050565b6000602082840312156120d1576120d061205e565b5b60006120df848285016120a6565b91505092915050565b60008115159050919050565b6120fd816120e8565b82525050565b600060208201905061211860008301846120f4565b92915050565b600073ffffffffffffffffffffffffffffffffffffffff82169050919050565b60006121498261211e565b9050919050565b6121598161213e565b811461216457600080fd5b50565b60008135905061217681612150565b92915050565b6000602082840312156121925761219161205e565b5b60006121a084828501612167565b91505092915050565b600080600080608085870312156121c3576121c261205e565b5b60006121d187828801612167565b94505060206121e287828801612167565b93505060406121f387828801612167565b925050606061220487828801612167565b91505092959194509250565b600081519050919050565b600082825260208201905092915050565b6000819050602082019050919050565b6122458161213e565b82525050565b6000612257838361223c565b60208301905092915050565b6000602082019050919050565b600061227b82612210565b612285818561221b565b93506122908361222c565b8060005b838110156122c15781516122a8888261224b565b97506122b383612263565b925050600181019050612294565b5085935050505092915050565b600060208201905081810360008301526122e88184612270565b905092915050565b6000819050919050565b612303816122f0565b811461230e57600080fd5b50565b600081359050612320816122fa565b92915050565b60006020828403121561233c5761233b61205e565b5b600061234a84828501612311565b91505092915050565b61235c816122f0565b82525050565b60006020820190506123776000830184612353565b92915050565b600080604083850312156123945761239361205e565b5b60006123a285828601612311565b92505060206123b385828601612167565b9150509250929050565b6000819050919050565b6123d0816123bd565b81146123db57600080fd5b50565b6000813590506123ed816123c7565b92915050565b6000806040838503121561240a5761240961205e565b5b600061241885828601612311565b9250506020612429858286016123de565b9150509250929050565b61243c8161213e565b82525050565b60006020820190506124576000830184612433565b92915050565b612466816123bd565b82525050565b6000602082019050612481600083018461245d565b92915050565b600082825260208201905092915050565b7f416363657373436f6e74726f6c3a2063616e206f6e6c792072656e6f756e636560008201527f20726f6c657320666f722073656c660000000000000000000000000000000000602082015250565b60006124f4602f83612487565b91506124ff82612498565b604082019050919050565b60006020820190508181036000830152612523816124e7565b9050919050565b7f5468652061646472657373206973206e6f7420612073747564656e7400000000600082015250565b6000612560601c83612487565b915061256b8261252a565b602082019050919050565b6000602082019050818103600083015261258f81612553565b9050919050565b600081905092915050565b7f416363657373436f6e74726f6c3a206163636f756e7420000000000000000000600082015250565b60006125d7601783612596565b91506125e2826125a1565b601782019050919050565b600081519050919050565b60005b838110156126165780820151818401526020810190506125fb565b83811115612625576000848401525b50505050565b6000612636826125ed565b6126408185612596565b93506126508185602086016125f8565b80840191505092915050565b7f206973206d697373696e6720726f6c6520000000000000000000000000000000600082015250565b6000612692601183612596565b915061269d8261265c565b601182019050919050565b60006126b3826125ca565b91506126bf828561262b565b91506126ca82612685565b91506126d6828461262b565b91508190509392505050565b6000601f19601f8301169050919050565b60006126fe826125ed565b6127088185612487565b93506127188185602086016125f8565b612721816126e2565b840191505092915050565b6000602082019050818103600083015261274681846126f3565b905092915050565b7f4e487b7100000000000000000000000000000000000000000000000000000000600052603260045260246000fd5b7f4e487b7100000000000000000000000000000000000000000000000000000000600052601160045260246000fd5b60006127b7826123bd565b91506127c2836123bd565b9250828210156127d5576127d461277d565b5b828203905092915050565b7f4e487b7100000000000000000000000000000000000000000000000000000000600052603160045260246000fd5b600061281a826123bd565b91507fffffffffffffffffffffffffffffffffffffffffffffffffffffffffffffffff82141561284d5761284c61277d565b5b600182019050919050565b6000612863826123bd565b915061286e836123bd565b9250817fffffffffffffffffffffffffffffffffffffffffffffffffffffffffffffffff04831182151516156128a7576128a661277d565b5b828202905092915050565b60006128bd826123bd565b91506128c8836123bd565b9250827fffffffffffffffffffffffffffffffffffffffffffffffffffffffffffffffff038211156128fd576128fc61277d565b5b828201905092915050565b7f4e487b7100000000000000000000000000000000000000000000000000000000600052604160045260246000fd5b6000612942826123bd565b915060008214156129565761295561277d565b5b600182039050919050565b7f537472696e67733a20686578206c656e67746820696e73756666696369656e74600082015250565b6000612997602083612487565b91506129a282612961565b602082019050919050565b600060208201905081810360008301526129c68161298a565b905091905056fea26469706673582212201796e8d807ff6313ebeca641f94ef834784cab3dde4788af766768169ef8757e64736f6c634300080a0033",
  "immutableReferences": {},
  "source": "pragma solidity ^0.8.10;\r\n\r\nimport \"@openzeppelin/contracts/access/AccessControlEnumerable.sol\";\r\n\r\ncontract Roles is AccessControlEnumerable {\r\n\r\n    bytes32 public constant RECTOR_ROLE = keccak256(\"RECTOR_ROLE\");\r\n    bytes32 public constant FACULTY_ROLE = keccak256(\"FACULTY_ROLE\");\r\n    bytes32 public constant DEPARTMENT_ROLE = keccak256(\"DEPARTMENT_ROLE\");\r\n    bytes32 public constant INSTRUCTOR_ROLE = keccak256(\"INSTRUCTOR_ROLE\");\r\n    bytes32 public constant STUDENT_ROLE = keccak256(\"STUDENT_ROLE\");\r\n    bytes32 public constant GRADUATED_ROLE = keccak256(\"GRADUATED_ROLE\");\r\n\r\n    //Unordered lists of roles\r\n    address Rector;\r\n    address[] Faculties;\r\n    address[] Departments;\r\n    address[] Instructors;\r\n    address[] Students;\r\n    address[] Graduateds;\r\n\r\n    constructor() {\r\n        _setupRole(DEFAULT_ADMIN_ROLE, msg.sender);\r\n        _setupRole(RECTOR_ROLE, msg.sender);\r\n        Rector = msg.sender;\r\n    }\r\n\r\n    function init(\r\n        address _courseContractAddress,\r\n        address _departmentContractAddress,\r\n        address _diplomaContractAddress,\r\n        address _facultyContractAddress\r\n    ) public onlyRole(RECTOR_ROLE){\r\n        _setupRole(DEFAULT_ADMIN_ROLE, _courseContractAddress);\r\n        _setupRole(RECTOR_ROLE, _courseContractAddress);\r\n\r\n        _setupRole(DEFAULT_ADMIN_ROLE, _departmentContractAddress);\r\n        _setupRole(RECTOR_ROLE, _departmentContractAddress);\r\n\r\n        _setupRole(DEFAULT_ADMIN_ROLE, _diplomaContractAddress);\r\n        _setupRole(RECTOR_ROLE, _diplomaContractAddress);\r\n\r\n        _setupRole(DEFAULT_ADMIN_ROLE, _facultyContractAddress);\r\n        _setupRole(RECTOR_ROLE, _facultyContractAddress);\r\n    }\r\n\r\n    //////////////////////////// CREATE ROLE ///////////////////////////////////////////////////////////////////////////\r\n    //TODO One Address should have only one role. Handle it\r\n    function grantRectorRole(address account) public onlyRole(RECTOR_ROLE) {\r\n        grantRole(RECTOR_ROLE, account);\r\n        grantRole(DEFAULT_ADMIN_ROLE, account);\r\n        renounceRole(DEFAULT_ADMIN_ROLE, msg.sender);\r\n        renounceRole(RECTOR_ROLE, msg.sender);\r\n        Rector = account;\r\n    }\r\n    function grantFacultyRole(address account) public onlyRole(RECTOR_ROLE) {grantRole(FACULTY_ROLE, account); Faculties.push(account);}\r\n    function grantDepartmentRole(address account) public onlyRole(RECTOR_ROLE) {grantRole(DEPARTMENT_ROLE, account); Departments.push(account);}\r\n    function grantInstructorRole(address account) public onlyRole(RECTOR_ROLE) {grantRole(INSTRUCTOR_ROLE, account); Instructors.push(account);}\r\n    function grantStudentRole(address account) public onlyRole(RECTOR_ROLE) {grantRole(STUDENT_ROLE, account); Students.push(account);}\r\n    function grantGraduatedRole(address account) public onlyRole(RECTOR_ROLE) {\r\n        require(hasRole(STUDENT_ROLE, account), \"The address is not a student\");\r\n        revokeStudentRole(account);\r\n        grantRole(GRADUATED_ROLE, account);\r\n        Graduateds.push(account);\r\n    }\r\n    ////////////////////////////////////////////////////////////////////////////////////////////////////////////////////\r\n    //////////////////////////// READ ROLE /////////////////////////////////////////////////////////////////////////////\r\n    function hasRectorRole(address account) public view returns (bool){return hasRole(RECTOR_ROLE, account);}\r\n    function hasFacultyRole(address account) public view returns (bool){return hasRole(FACULTY_ROLE, account);}\r\n    function hasDepartmentRole(address account) public view returns (bool){return hasRole(DEPARTMENT_ROLE, account);}\r\n    function hasInstructorRole(address account) public view returns (bool){return hasRole(INSTRUCTOR_ROLE, account);}\r\n    function hasStudentRole(address account) public view returns (bool){return hasRole(STUDENT_ROLE, account);}\r\n    function hasGraduatedRole(address account) public view returns (bool){return hasRole(GRADUATED_ROLE, account);}\r\n\r\n    function getRectorRole() public view returns(address){return Rector;}\r\n    function getFacultyRoles() public view returns(address[] memory){return Faculties;}\r\n    function getDepartmentRoles() public view returns(address[] memory){return Departments;}\r\n    function getInstructorRoles() public view returns(address[] memory){return Instructors;}\r\n    function getStudentRoles() public view returns(address[] memory){return Students;}\r\n    function getGraduatedRoles() public view returns(address[] memory){return Graduateds;}\r\n\r\n    ////////////////////////////////////////////////////////////////////////////////////////////////////////////////////\r\n    //////////////////////////// DELETE ROLE ///////////////////////////////////////////////////////////////////////////\r\n    function revokeFacultyRole(address account) public onlyRole(RECTOR_ROLE) {revokeRole(FACULTY_ROLE, account); removeElement(account,Faculties);}\r\n    function revokeDepartmentRole(address account) public onlyRole(RECTOR_ROLE) {revokeRole(DEPARTMENT_ROLE, account); removeElement(account,Departments);}\r\n    function revokeInstructorRole(address account) public onlyRole(RECTOR_ROLE) {revokeRole(INSTRUCTOR_ROLE, account); removeElement(account,Instructors);}\r\n    function revokeStudentRole(address account) public onlyRole(RECTOR_ROLE) {revokeRole(STUDENT_ROLE, account); removeElement(account,Students);}\r\n    ////////////////////////////////////////////////////////////////////////////////////////////////////////////////////\r\n\r\n    function removeElement(address element, address[] storage arr) private{\r\n        for(uint i = 0; i<arr.length; i++){\r\n            if(arr[i] == element){\r\n                arr[i] = arr[arr.length-1];\r\n                arr.pop();\r\n            }\r\n        }\r\n    }\r\n}",
  "sourcePath": "C:\\Users\\asus\\Desktop\\Dersler\\CMPE492\\certification-project\\contracts\\Roles.sol",
  "compiler": {
    "name": "solc",
    "version": "0.8.10+commit.fc410830.Emscripten.clang"
  },
  "schemaVersion": "3.4.4",
  "updatedAt": "2022-01-22T20:06:17.158Z",
  "devdoc": {
    "kind": "dev",
    "methods": {
      "getRoleAdmin(bytes32)": {
        "details": "Returns the admin role that controls `role`. See {grantRole} and {revokeRole}. To change a role's admin, use {_setRoleAdmin}."
      },
      "getRoleMember(bytes32,uint256)": {
        "details": "Returns one of the accounts that have `role`. `index` must be a value between 0 and {getRoleMemberCount}, non-inclusive. Role bearers are not sorted in any particular way, and their ordering may change at any point. WARNING: When using {getRoleMember} and {getRoleMemberCount}, make sure you perform all queries on the same block. See the following https://forum.openzeppelin.com/t/iterating-over-elements-on-enumerableset-in-openzeppelin-contracts/2296[forum post] for more information."
      },
      "getRoleMemberCount(bytes32)": {
        "details": "Returns the number of accounts that have `role`. Can be used together with {getRoleMember} to enumerate all bearers of a role."
      },
      "grantRole(bytes32,address)": {
        "details": "Grants `role` to `account`. If `account` had not been already granted `role`, emits a {RoleGranted} event. Requirements: - the caller must have ``role``'s admin role."
      },
      "hasRole(bytes32,address)": {
        "details": "Returns `true` if `account` has been granted `role`."
      },
      "renounceRole(bytes32,address)": {
        "details": "Revokes `role` from the calling account. Roles are often managed via {grantRole} and {revokeRole}: this function's purpose is to provide a mechanism for accounts to lose their privileges if they are compromised (such as when a trusted device is misplaced). If the calling account had been revoked `role`, emits a {RoleRevoked} event. Requirements: - the caller must be `account`."
      },
      "revokeRole(bytes32,address)": {
        "details": "Revokes `role` from `account`. If `account` had been granted `role`, emits a {RoleRevoked} event. Requirements: - the caller must have ``role``'s admin role."
      },
      "supportsInterface(bytes4)": {
        "details": "See {IERC165-supportsInterface}."
      }
    },
    "version": 1
  },
  "userdoc": {
    "kind": "user",
    "methods": {},
    "version": 1
  }
}