{
  "contractName": "Roles",
  "abi": [
    {
      "inputs": [],
      "stateMutability": "nonpayable",
      "type": "constructor"
    },
    {
      "anonymous": false,
      "inputs": [
        {
          "indexed": true,
          "internalType": "bytes32",
          "name": "role",
          "type": "bytes32"
        },
        {
          "indexed": true,
          "internalType": "bytes32",
          "name": "previousAdminRole",
          "type": "bytes32"
        },
        {
          "indexed": true,
          "internalType": "bytes32",
          "name": "newAdminRole",
          "type": "bytes32"
        }
      ],
      "name": "RoleAdminChanged",
      "type": "event"
    },
    {
      "anonymous": false,
      "inputs": [
        {
          "indexed": true,
          "internalType": "bytes32",
          "name": "role",
          "type": "bytes32"
        },
        {
          "indexed": true,
          "internalType": "address",
          "name": "account",
          "type": "address"
        },
        {
          "indexed": true,
          "internalType": "address",
          "name": "sender",
          "type": "address"
        }
      ],
      "name": "RoleGranted",
      "type": "event"
    },
    {
      "anonymous": false,
      "inputs": [
        {
          "indexed": true,
          "internalType": "bytes32",
          "name": "role",
          "type": "bytes32"
        },
        {
          "indexed": true,
          "internalType": "address",
          "name": "account",
          "type": "address"
        },
        {
          "indexed": true,
          "internalType": "address",
          "name": "sender",
          "type": "address"
        }
      ],
      "name": "RoleRevoked",
      "type": "event"
    },
    {
      "inputs": [],
      "name": "DEFAULT_ADMIN_ROLE",
      "outputs": [
        {
          "internalType": "bytes32",
          "name": "",
          "type": "bytes32"
        }
      ],
      "stateMutability": "view",
      "type": "function",
      "constant": true
    },
    {
      "inputs": [],
      "name": "DEPARTMENT_ROLE",
      "outputs": [
        {
          "internalType": "bytes32",
          "name": "",
          "type": "bytes32"
        }
      ],
      "stateMutability": "view",
      "type": "function",
      "constant": true
    },
    {
      "inputs": [],
      "name": "FACULTY_ROLE",
      "outputs": [
        {
          "internalType": "bytes32",
          "name": "",
          "type": "bytes32"
        }
      ],
      "stateMutability": "view",
      "type": "function",
      "constant": true
    },
    {
      "inputs": [],
      "name": "GRADUATED_ROLE",
      "outputs": [
        {
          "internalType": "bytes32",
          "name": "",
          "type": "bytes32"
        }
      ],
      "stateMutability": "view",
      "type": "function",
      "constant": true
    },
    {
      "inputs": [],
      "name": "INSTRUCTOR_ROLE",
      "outputs": [
        {
          "internalType": "bytes32",
          "name": "",
          "type": "bytes32"
        }
      ],
      "stateMutability": "view",
      "type": "function",
      "constant": true
    },
    {
      "inputs": [],
      "name": "RECTOR_ROLE",
      "outputs": [
        {
          "internalType": "bytes32",
          "name": "",
          "type": "bytes32"
        }
      ],
      "stateMutability": "view",
      "type": "function",
      "constant": true
    },
    {
      "inputs": [],
      "name": "STUDENT_ROLE",
      "outputs": [
        {
          "internalType": "bytes32",
          "name": "",
          "type": "bytes32"
        }
      ],
      "stateMutability": "view",
      "type": "function",
      "constant": true
    },
    {
      "inputs": [
        {
          "internalType": "bytes32",
          "name": "role",
          "type": "bytes32"
        }
      ],
      "name": "getRoleAdmin",
      "outputs": [
        {
          "internalType": "bytes32",
          "name": "",
          "type": "bytes32"
        }
      ],
      "stateMutability": "view",
      "type": "function",
      "constant": true
    },
    {
      "inputs": [
        {
          "internalType": "bytes32",
          "name": "role",
          "type": "bytes32"
        },
        {
          "internalType": "uint256",
          "name": "index",
          "type": "uint256"
        }
      ],
      "name": "getRoleMember",
      "outputs": [
        {
          "internalType": "address",
          "name": "",
          "type": "address"
        }
      ],
      "stateMutability": "view",
      "type": "function",
      "constant": true
    },
    {
      "inputs": [
        {
          "internalType": "bytes32",
          "name": "role",
          "type": "bytes32"
        }
      ],
      "name": "getRoleMemberCount",
      "outputs": [
        {
          "internalType": "uint256",
          "name": "",
          "type": "uint256"
        }
      ],
      "stateMutability": "view",
      "type": "function",
      "constant": true
    },
    {
      "inputs": [
        {
          "internalType": "bytes32",
          "name": "role",
          "type": "bytes32"
        },
        {
          "internalType": "address",
          "name": "account",
          "type": "address"
        }
      ],
      "name": "grantRole",
      "outputs": [],
      "stateMutability": "nonpayable",
      "type": "function"
    },
    {
      "inputs": [
        {
          "internalType": "bytes32",
          "name": "role",
          "type": "bytes32"
        },
        {
          "internalType": "address",
          "name": "account",
          "type": "address"
        }
      ],
      "name": "hasRole",
      "outputs": [
        {
          "internalType": "bool",
          "name": "",
          "type": "bool"
        }
      ],
      "stateMutability": "view",
      "type": "function",
      "constant": true
    },
    {
      "inputs": [
        {
          "internalType": "bytes32",
          "name": "role",
          "type": "bytes32"
        },
        {
          "internalType": "address",
          "name": "account",
          "type": "address"
        }
      ],
      "name": "renounceRole",
      "outputs": [],
      "stateMutability": "nonpayable",
      "type": "function"
    },
    {
      "inputs": [
        {
          "internalType": "bytes32",
          "name": "role",
          "type": "bytes32"
        },
        {
          "internalType": "address",
          "name": "account",
          "type": "address"
        }
      ],
      "name": "revokeRole",
      "outputs": [],
      "stateMutability": "nonpayable",
      "type": "function"
    },
    {
      "inputs": [
        {
          "internalType": "bytes4",
          "name": "interfaceId",
          "type": "bytes4"
        }
      ],
      "name": "supportsInterface",
      "outputs": [
        {
          "internalType": "bool",
          "name": "",
          "type": "bool"
        }
      ],
      "stateMutability": "view",
      "type": "function",
      "constant": true
    },
    {
      "inputs": [
        {
          "internalType": "address",
          "name": "_courseContractAddress",
          "type": "address"
        },
        {
          "internalType": "address",
          "name": "_departmentContractAddress",
          "type": "address"
        },
        {
          "internalType": "address",
          "name": "_diplomaContractAddress",
          "type": "address"
        },
        {
          "internalType": "address",
          "name": "_facultyContractAddress",
          "type": "address"
        }
      ],
      "name": "init",
      "outputs": [],
      "stateMutability": "nonpayable",
      "type": "function"
    },
    {
      "inputs": [
        {
          "internalType": "address",
          "name": "account",
          "type": "address"
        }
      ],
      "name": "grantRectorRole",
      "outputs": [],
      "stateMutability": "nonpayable",
      "type": "function"
    },
    {
      "inputs": [
        {
          "internalType": "address",
          "name": "account",
          "type": "address"
        }
      ],
      "name": "grantFacultyRole",
      "outputs": [],
      "stateMutability": "nonpayable",
      "type": "function"
    },
    {
      "inputs": [
        {
          "internalType": "address",
          "name": "account",
          "type": "address"
        }
      ],
      "name": "grantDepartmentRole",
      "outputs": [],
      "stateMutability": "nonpayable",
      "type": "function"
    },
    {
      "inputs": [
        {
          "internalType": "address",
          "name": "account",
          "type": "address"
        }
      ],
      "name": "grantInstructorRole",
      "outputs": [],
      "stateMutability": "nonpayable",
      "type": "function"
    },
    {
      "inputs": [
        {
          "internalType": "address",
          "name": "account",
          "type": "address"
        }
      ],
      "name": "grantStudentRole",
      "outputs": [],
      "stateMutability": "nonpayable",
      "type": "function"
    },
    {
      "inputs": [
        {
          "internalType": "address",
          "name": "account",
          "type": "address"
        }
      ],
      "name": "grantGraduatedRole",
      "outputs": [],
      "stateMutability": "nonpayable",
      "type": "function"
    },
    {
      "inputs": [
        {
          "internalType": "address",
          "name": "account",
          "type": "address"
        }
      ],
      "name": "hasRectorRole",
      "outputs": [
        {
          "internalType": "bool",
          "name": "",
          "type": "bool"
        }
      ],
      "stateMutability": "view",
      "type": "function",
      "constant": true
    },
    {
      "inputs": [
        {
          "internalType": "address",
          "name": "account",
          "type": "address"
        }
      ],
      "name": "hasFacultyRole",
      "outputs": [
        {
          "internalType": "bool",
          "name": "",
          "type": "bool"
        }
      ],
      "stateMutability": "view",
      "type": "function",
      "constant": true
    },
    {
      "inputs": [
        {
          "internalType": "address",
          "name": "account",
          "type": "address"
        }
      ],
      "name": "hasDepartmentRole",
      "outputs": [
        {
          "internalType": "bool",
          "name": "",
          "type": "bool"
        }
      ],
      "stateMutability": "view",
      "type": "function",
      "constant": true
    },
    {
      "inputs": [
        {
          "internalType": "address",
          "name": "account",
          "type": "address"
        }
      ],
      "name": "hasInstructorRole",
      "outputs": [
        {
          "internalType": "bool",
          "name": "",
          "type": "bool"
        }
      ],
      "stateMutability": "view",
      "type": "function",
      "constant": true
    },
    {
      "inputs": [
        {
          "internalType": "address",
          "name": "account",
          "type": "address"
        }
      ],
      "name": "hasStudentRole",
      "outputs": [
        {
          "internalType": "bool",
          "name": "",
          "type": "bool"
        }
      ],
      "stateMutability": "view",
      "type": "function",
      "constant": true
    },
    {
      "inputs": [
        {
          "internalType": "address",
          "name": "account",
          "type": "address"
        }
      ],
      "name": "hasGraduatedRole",
      "outputs": [
        {
          "internalType": "bool",
          "name": "",
          "type": "bool"
        }
      ],
      "stateMutability": "view",
      "type": "function",
      "constant": true
    },
    {
      "inputs": [],
      "name": "getRectorRole",
      "outputs": [
        {
          "internalType": "address",
          "name": "",
          "type": "address"
        }
      ],
      "stateMutability": "view",
      "type": "function",
      "constant": true
    },
    {
      "inputs": [],
      "name": "getFacultyRoles",
      "outputs": [
        {
          "internalType": "address[]",
          "name": "",
          "type": "address[]"
        }
      ],
      "stateMutability": "view",
      "type": "function",
      "constant": true
    },
    {
      "inputs": [],
      "name": "getDepartmentRoles",
      "outputs": [
        {
          "internalType": "address[]",
          "name": "",
          "type": "address[]"
        }
      ],
      "stateMutability": "view",
      "type": "function",
      "constant": true
    },
    {
      "inputs": [],
      "name": "getInstructorRoles",
      "outputs": [
        {
          "internalType": "address[]",
          "name": "",
          "type": "address[]"
        }
      ],
      "stateMutability": "view",
      "type": "function",
      "constant": true
    },
    {
      "inputs": [],
      "name": "getStudentRoles",
      "outputs": [
        {
          "internalType": "address[]",
          "name": "",
          "type": "address[]"
        }
      ],
      "stateMutability": "view",
      "type": "function",
      "constant": true
    },
    {
      "inputs": [],
      "name": "getGraduatedRoles",
      "outputs": [
        {
          "internalType": "address[]",
          "name": "",
          "type": "address[]"
        }
      ],
      "stateMutability": "view",
      "type": "function",
      "constant": true
    },
    {
      "inputs": [
        {
          "internalType": "address",
          "name": "account",
          "type": "address"
        }
      ],
      "name": "revokeFacultyRole",
      "outputs": [],
      "stateMutability": "nonpayable",
      "type": "function"
    },
    {
      "inputs": [
        {
          "internalType": "address",
          "name": "account",
          "type": "address"
        }
      ],
      "name": "revokeDepartmentRole",
      "outputs": [],
      "stateMutability": "nonpayable",
      "type": "function"
    },
    {
      "inputs": [
        {
          "internalType": "address",
          "name": "account",
          "type": "address"
        }
      ],
      "name": "revokeInstructorRole",
      "outputs": [],
      "stateMutability": "nonpayable",
      "type": "function"
    },
    {
      "inputs": [
        {
          "internalType": "address",
          "name": "account",
          "type": "address"
        }
      ],
      "name": "revokeStudentRole",
      "outputs": [],
      "stateMutability": "nonpayable",
      "type": "function"
    }
  ],
  "bytecode": "0x60806040523480156200001157600080fd5b50620000276000801b336200005f60201b60201c565b620000597f5f1d1e303f9c0a1801dd708bdc4239781d66c88ca6cb941c5769ba09b5c1b285336200005f60201b60201c565b620002f5565b6200007182826200007560201b60201c565b5050565b6200008c8282620000bd60201b6200168d1760201c565b620000b88160016000858152602001908152602001600020620001ae60201b6200176d1790919060201c565b505050565b620000cf8282620001e660201b60201c565b620001aa57600160008084815260200190815260200160002060000160008373ffffffffffffffffffffffffffffffffffffffff1673ffffffffffffffffffffffffffffffffffffffff16815260200190815260200160002060006101000a81548160ff0219169083151502179055506200014f6200025060201b60201c565b73ffffffffffffffffffffffffffffffffffffffff168173ffffffffffffffffffffffffffffffffffffffff16837f2f8788117e7eff1d82e926ec794901d17c78024a50270940304540a733656f0d60405160405180910390a45b5050565b6000620001de836000018373ffffffffffffffffffffffffffffffffffffffff1660001b6200025860201b60201c565b905092915050565b600080600084815260200190815260200160002060000160008373ffffffffffffffffffffffffffffffffffffffff1673ffffffffffffffffffffffffffffffffffffffff16815260200190815260200160002060009054906101000a900460ff16905092915050565b600033905090565b60006200026c8383620002d260201b60201c565b620002c7578260000182908060018154018082558091505060019003906000526020600020016000909190919091505582600001805490508360010160008481526020019081526020016000208190555060019050620002cc565b600090505b92915050565b600080836001016000848152602001908152602001600020541415905092915050565b612ab480620003056000396000f3fe608060405234801561001057600080fd5b50600436106102325760003560e01c80638bcf979c11610130578063b9447051116100b8578063db0b1fee1161007c578063db0b1fee14610689578063e17f6b2c146106a7578063e78af7c5146106d7578063f7be43fb14610707578063fc3ba6b41461072557610232565b8063b9447051146105e7578063ba5adbd114610603578063c94d10ad14610621578063ca15c8731461063d578063d547741f1461066d57610232565b8063973c4b6c116100ff578063973c4b6c1461053f5780639822a5991461055d578063996dc0221461058d578063a217fddf146105ab578063ad7be93a146105c957610232565b80638bcf979c146104a55780638df6674a146104c35780639010d07c146104df57806391d148541461050f57610232565b80632f2ff15d116101be5780635ea07b1c116101825780635ea07b1c146104035780635f1d514e1461041f5780636fe3ceb81461043b5780637168c27d1461045957806386f8e92c1461048957610232565b80632f2ff15d1461037557806332b3c8461461039157806336568abe146103ad578063529f790c146103c95780635e3c7e8e146103e557610232565b806316bec7811161020557806316bec781146102bb578063248a9ca3146102d957806324d42a37146103095780632b1533c4146103275780632be7dc441461034557610232565b806301ffc9a7146102375780630252dffc1461026757806306552ff31461028357806312fb59f21461029f575b600080fd5b610251600480360381019061024c919061216c565b610755565b60405161025e91906121b4565b60405180910390f35b610281600480360381019061027c919061222d565b6107cf565b005b61029d6004803603810190610298919061225a565b61083b565b005b6102b960048036038101906102b4919061222d565b610950565b005b6102c3610a13565b6040516102d0919061237f565b60405180910390f35b6102f360048036038101906102ee91906123d7565b610aa1565b6040516103009190612413565b60405180910390f35b610311610ac0565b60405161031e9190612413565b60405180910390f35b61032f610ae4565b60405161033c919061237f565b60405180910390f35b61035f600480360381019061035a919061222d565b610b72565b60405161036c91906121b4565b60405180910390f35b61038f600480360381019061038a919061242e565b610ba5565b005b6103ab60048036038101906103a6919061222d565b610bce565b005b6103c760048036038101906103c2919061242e565b610c3a565b005b6103e360048036038101906103de919061222d565b610cbd565b005b6103ed610d80565b6040516103fa919061237f565b60405180910390f35b61041d6004803603810190610418919061222d565b610e0e565b005b6104396004803603810190610434919061222d565b610f64565b005b610443611027565b6040516104509190612413565b60405180910390f35b610473600480360381019061046e919061222d565b61104b565b60405161048091906121b4565b60405180910390f35b6104a3600480360381019061049e919061222d565b61107e565b005b6104ad6110ea565b6040516104ba9190612413565b60405180910390f35b6104dd60048036038101906104d8919061222d565b61110e565b005b6104f960048036038101906104f491906124a4565b6111f3565b60405161050691906124f3565b60405180910390f35b6105296004803603810190610524919061242e565b611222565b60405161053691906121b4565b60405180910390f35b61054761128c565b60405161055491906124f3565b60405180910390f35b6105776004803603810190610572919061222d565b6112b6565b60405161058491906121b4565b60405180910390f35b6105956112e9565b6040516105a29190612413565b60405180910390f35b6105b361130d565b6040516105c09190612413565b60405180910390f35b6105d1611314565b6040516105de9190612413565b60405180910390f35b61060160048036038101906105fc919061222d565b611338565b005b61060b6113a4565b604051610618919061237f565b60405180910390f35b61063b6004803603810190610636919061222d565b611432565b005b610657600480360381019061065291906123d7565b6114f5565b604051610664919061251d565b60405180910390f35b6106876004803603810190610682919061242e565b611519565b005b610691611542565b60405161069e919061237f565b60405180910390f35b6106c160048036038101906106bc919061222d565b6115d0565b6040516106ce91906121b4565b60405180910390f35b6106f160048036038101906106ec919061222d565b611603565b6040516106fe91906121b4565b60405180910390f35b61070f611636565b60405161071c9190612413565b60405180910390f35b61073f600480360381019061073a919061222d565b61165a565b60405161074c91906121b4565b60405180910390f35b60007f5a05180f000000000000000000000000000000000000000000000000000000007bffffffffffffffffffffffffffffffffffffffffffffffffffffffff1916827bffffffffffffffffffffffffffffffffffffffffffffffffffffffff191614806107c857506107c78261179d565b5b9050919050565b7f5f1d1e303f9c0a1801dd708bdc4239781d66c88ca6cb941c5769ba09b5c1b285610801816107fc611817565b61181f565b61082b7fe7837d04f36ce0b2f3cc662bf1b2b632a7fbd12ae95199e8bd3dcfbcc440b66b83611519565b6108368260046118bc565b505050565b7f5f1d1e303f9c0a1801dd708bdc4239781d66c88ca6cb941c5769ba09b5c1b28561086d81610868611817565b61181f565b61087a6000801b86611ad0565b6108a47f5f1d1e303f9c0a1801dd708bdc4239781d66c88ca6cb941c5769ba09b5c1b28586611ad0565b6108b16000801b85611ad0565b6108db7f5f1d1e303f9c0a1801dd708bdc4239781d66c88ca6cb941c5769ba09b5c1b28585611ad0565b6108e86000801b84611ad0565b6109127f5f1d1e303f9c0a1801dd708bdc4239781d66c88ca6cb941c5769ba09b5c1b28584611ad0565b61091f6000801b83611ad0565b6109497f5f1d1e303f9c0a1801dd708bdc4239781d66c88ca6cb941c5769ba09b5c1b28583611ad0565b5050505050565b7f5f1d1e303f9c0a1801dd708bdc4239781d66c88ca6cb941c5769ba09b5c1b2856109828161097d611817565b61181f565b6109ac7fe7837d04f36ce0b2f3cc662bf1b2b632a7fbd12ae95199e8bd3dcfbcc440b66b83610ba5565b6004829080600181540180825580915050600190039060005260206000200160009091909190916101000a81548173ffffffffffffffffffffffffffffffffffffffff021916908373ffffffffffffffffffffffffffffffffffffffff1602179055505050565b60606004805480602002602001604051908101604052809291908181526020018280548015610a9757602002820191906000526020600020905b8160009054906101000a900473ffffffffffffffffffffffffffffffffffffffff1673ffffffffffffffffffffffffffffffffffffffff1681526020019060010190808311610a4d575b5050505050905090565b6000806000838152602001908152602001600020600101549050919050565b7f5f1d1e303f9c0a1801dd708bdc4239781d66c88ca6cb941c5769ba09b5c1b28581565b60606003805480602002602001604051908101604052809291908181526020018280548015610b6857602002820191906000526020600020905b8160009054906101000a900473ffffffffffffffffffffffffffffffffffffffff1673ffffffffffffffffffffffffffffffffffffffff1681526020019060010190808311610b1e575b5050505050905090565b6000610b9e7f5f1d1e303f9c0a1801dd708bdc4239781d66c88ca6cb941c5769ba09b5c1b28583611222565b9050919050565b610bae82610aa1565b610bbf81610bba611817565b61181f565b610bc98383611ade565b505050565b7f5f1d1e303f9c0a1801dd708bdc4239781d66c88ca6cb941c5769ba09b5c1b285610c0081610bfb611817565b61181f565b610c2a7f36a5c4aaacb6b388bbd448bf11096b7dafc5652bcc9046084fd0e95b1fb0b2cc83611519565b610c358260066118bc565b505050565b610c42611817565b73ffffffffffffffffffffffffffffffffffffffff168173ffffffffffffffffffffffffffffffffffffffff1614610caf576040517f08c379a0000000000000000000000000000000000000000000000000000000008152600401610ca6906125bb565b60405180910390fd5b610cb98282611b12565b5050565b7f5f1d1e303f9c0a1801dd708bdc4239781d66c88ca6cb941c5769ba09b5c1b285610cef81610cea611817565b61181f565b610d197ff3f9cfff7b46f415da5a492b1718971da203f87c6aae9299e7b408eb83ef8bee83610ba5565b6003829080600181540180825580915050600190039060005260206000200160009091909190916101000a81548173ffffffffffffffffffffffffffffffffffffffff021916908373ffffffffffffffffffffffffffffffffffffffff1602179055505050565b60606005805480602002602001604051908101604052809291908181526020018280548015610e0457602002820191906000526020600020905b8160009054906101000a900473ffffffffffffffffffffffffffffffffffffffff1673ffffffffffffffffffffffffffffffffffffffff1681526020019060010190808311610dba575b5050505050905090565b7f5f1d1e303f9c0a1801dd708bdc4239781d66c88ca6cb941c5769ba09b5c1b285610e4081610e3b611817565b61181f565b610e6a7f36a5c4aaacb6b388bbd448bf11096b7dafc5652bcc9046084fd0e95b1fb0b2cc83611222565b610ea9576040517f08c379a0000000000000000000000000000000000000000000000000000000008152600401610ea090612627565b60405180910390fd5b610ed37f36a5c4aaacb6b388bbd448bf11096b7dafc5652bcc9046084fd0e95b1fb0b2cc83611519565b610efd7f4758f7d70d6088cbfad5c79861ac6457ba2af02adf5ea419e97879ae24459cb683610ba5565b6007829080600181540180825580915050600190039060005260206000200160009091909190916101000a81548173ffffffffffffffffffffffffffffffffffffffff021916908373ffffffffffffffffffffffffffffffffffffffff1602179055505050565b7f5f1d1e303f9c0a1801dd708bdc4239781d66c88ca6cb941c5769ba09b5c1b285610f9681610f91611817565b61181f565b610fc07fae4a0595970935aa5495afbbb72e5f1f6ff1062766b4a3028c0c9b7d5cf7e34583610ba5565b6005829080600181540180825580915050600190039060005260206000200160009091909190916101000a81548173ffffffffffffffffffffffffffffffffffffffff021916908373ffffffffffffffffffffffffffffffffffffffff1602179055505050565b7ff3f9cfff7b46f415da5a492b1718971da203f87c6aae9299e7b408eb83ef8bee81565b60006110777f4758f7d70d6088cbfad5c79861ac6457ba2af02adf5ea419e97879ae24459cb683611222565b9050919050565b7f5f1d1e303f9c0a1801dd708bdc4239781d66c88ca6cb941c5769ba09b5c1b2856110b0816110ab611817565b61181f565b6110da7fae4a0595970935aa5495afbbb72e5f1f6ff1062766b4a3028c0c9b7d5cf7e34583611519565b6110e58260056118bc565b505050565b7fae4a0595970935aa5495afbbb72e5f1f6ff1062766b4a3028c0c9b7d5cf7e34581565b7f5f1d1e303f9c0a1801dd708bdc4239781d66c88ca6cb941c5769ba09b5c1b2856111408161113b611817565b61181f565b61116a7f5f1d1e303f9c0a1801dd708bdc4239781d66c88ca6cb941c5769ba09b5c1b28583610ba5565b6111776000801b83610ba5565b6111846000801b33610c3a565b6111ae7f5f1d1e303f9c0a1801dd708bdc4239781d66c88ca6cb941c5769ba09b5c1b28533610c3a565b81600260006101000a81548173ffffffffffffffffffffffffffffffffffffffff021916908373ffffffffffffffffffffffffffffffffffffffff1602179055505050565b600061121a8260016000868152602001908152602001600020611b4690919063ffffffff16565b905092915050565b600080600084815260200190815260200160002060000160008373ffffffffffffffffffffffffffffffffffffffff1673ffffffffffffffffffffffffffffffffffffffff16815260200190815260200160002060009054906101000a900460ff16905092915050565b6000600260009054906101000a900473ffffffffffffffffffffffffffffffffffffffff16905090565b60006112e27fae4a0595970935aa5495afbbb72e5f1f6ff1062766b4a3028c0c9b7d5cf7e34583611222565b9050919050565b7fe7837d04f36ce0b2f3cc662bf1b2b632a7fbd12ae95199e8bd3dcfbcc440b66b81565b6000801b81565b7f4758f7d70d6088cbfad5c79861ac6457ba2af02adf5ea419e97879ae24459cb681565b7f5f1d1e303f9c0a1801dd708bdc4239781d66c88ca6cb941c5769ba09b5c1b28561136a81611365611817565b61181f565b6113947ff3f9cfff7b46f415da5a492b1718971da203f87c6aae9299e7b408eb83ef8bee83611519565b61139f8260036118bc565b505050565b6060600680548060200260200160405190810160405280929190818152602001828054801561142857602002820191906000526020600020905b8160009054906101000a900473ffffffffffffffffffffffffffffffffffffffff1673ffffffffffffffffffffffffffffffffffffffff16815260200190600101908083116113de575b5050505050905090565b7f5f1d1e303f9c0a1801dd708bdc4239781d66c88ca6cb941c5769ba09b5c1b2856114648161145f611817565b61181f565b61148e7f36a5c4aaacb6b388bbd448bf11096b7dafc5652bcc9046084fd0e95b1fb0b2cc83610ba5565b6006829080600181540180825580915050600190039060005260206000200160009091909190916101000a81548173ffffffffffffffffffffffffffffffffffffffff021916908373ffffffffffffffffffffffffffffffffffffffff1602179055505050565b600061151260016000848152602001908152602001600020611b60565b9050919050565b61152282610aa1565b6115338161152e611817565b61181f565b61153d8383611b12565b505050565b606060078054806020026020016040519081016040528092919081815260200182805480156115c657602002820191906000526020600020905b8160009054906101000a900473ffffffffffffffffffffffffffffffffffffffff1673ffffffffffffffffffffffffffffffffffffffff168152602001906001019080831161157c575b5050505050905090565b60006115fc7fe7837d04f36ce0b2f3cc662bf1b2b632a7fbd12ae95199e8bd3dcfbcc440b66b83611222565b9050919050565b600061162f7ff3f9cfff7b46f415da5a492b1718971da203f87c6aae9299e7b408eb83ef8bee83611222565b9050919050565b7f36a5c4aaacb6b388bbd448bf11096b7dafc5652bcc9046084fd0e95b1fb0b2cc81565b60006116867f36a5c4aaacb6b388bbd448bf11096b7dafc5652bcc9046084fd0e95b1fb0b2cc83611222565b9050919050565b6116978282611222565b61176957600160008084815260200190815260200160002060000160008373ffffffffffffffffffffffffffffffffffffffff1673ffffffffffffffffffffffffffffffffffffffff16815260200190815260200160002060006101000a81548160ff02191690831515021790555061170e611817565b73ffffffffffffffffffffffffffffffffffffffff168173ffffffffffffffffffffffffffffffffffffffff16837f2f8788117e7eff1d82e926ec794901d17c78024a50270940304540a733656f0d60405160405180910390a45b5050565b6000611795836000018373ffffffffffffffffffffffffffffffffffffffff1660001b611b75565b905092915050565b60007f7965db0b000000000000000000000000000000000000000000000000000000007bffffffffffffffffffffffffffffffffffffffffffffffffffffffff1916827bffffffffffffffffffffffffffffffffffffffffffffffffffffffff19161480611810575061180f82611be5565b5b9050919050565b600033905090565b6118298282611222565b6118b85761184e8173ffffffffffffffffffffffffffffffffffffffff166014611c4f565b61185c8360001c6020611c4f565b60405160200161186d929190612759565b6040516020818303038152906040526040517f08c379a00000000000000000000000000000000000000000000000000000000081526004016118af91906127dd565b60405180910390fd5b5050565b606060005b8280549050811015611a41578373ffffffffffffffffffffffffffffffffffffffff168382815481106118f7576118f66127ff565b5b9060005260206000200160009054906101000a900473ffffffffffffffffffffffffffffffffffffffff1673ffffffffffffffffffffffffffffffffffffffff161415611a2e578260018480549050611950919061285d565b81548110611961576119606127ff565b5b9060005260206000200160009054906101000a900473ffffffffffffffffffffffffffffffffffffffff1683828154811061199f5761199e6127ff565b5b9060005260206000200160006101000a81548173ffffffffffffffffffffffffffffffffffffffff021916908373ffffffffffffffffffffffffffffffffffffffff160217905550828054806119f8576119f7612891565b5b6001900381819060005260206000200160006101000a81549073ffffffffffffffffffffffffffffffffffffffff021916905590555b8080611a39906128c0565b9150506118c1565b5081805480602002602001604051908101604052809291908181526020018280548015611ac357602002820191906000526020600020905b8160009054906101000a900473ffffffffffffffffffffffffffffffffffffffff1673ffffffffffffffffffffffffffffffffffffffff1681526020019060010190808311611a79575b5050505050905092915050565b611ada8282611ade565b5050565b611ae8828261168d565b611b0d816001600085815260200190815260200160002061176d90919063ffffffff16565b505050565b611b1c8282611e8b565b611b418160016000858152602001908152602001600020611f6c90919063ffffffff16565b505050565b6000611b558360000183611f9c565b60001c905092915050565b6000611b6e82600001611fc7565b9050919050565b6000611b818383611fd8565b611bda578260000182908060018154018082558091505060019003906000526020600020016000909190919091505582600001805490508360010160008481526020019081526020016000208190555060019050611bdf565b600090505b92915050565b60007f01ffc9a7000000000000000000000000000000000000000000000000000000007bffffffffffffffffffffffffffffffffffffffffffffffffffffffff1916827bffffffffffffffffffffffffffffffffffffffffffffffffffffffff1916149050919050565b606060006002836002611c629190612909565b611c6c9190612963565b67ffffffffffffffff811115611c8557611c846129b9565b5b6040519080825280601f01601f191660200182016040528015611cb75781602001600182028036833780820191505090505b5090507f300000000000000000000000000000000000000000000000000000000000000081600081518110611cef57611cee6127ff565b5b60200101907effffffffffffffffffffffffffffffffffffffffffffffffffffffffffffff1916908160001a9053507f780000000000000000000000000000000000000000000000000000000000000081600181518110611d5357611d526127ff565b5b60200101907effffffffffffffffffffffffffffffffffffffffffffffffffffffffffffff1916908160001a90535060006001846002611d939190612909565b611d9d9190612963565b90505b6001811115611e3d577f3031323334353637383961626364656600000000000000000000000000000000600f861660108110611ddf57611dde6127ff565b5b1a60f81b828281518110611df657611df56127ff565b5b60200101907effffffffffffffffffffffffffffffffffffffffffffffffffffffffffffff1916908160001a905350600485901c945080611e36906129e8565b9050611da0565b5060008414611e81576040517f08c379a0000000000000000000000000000000000000000000000000000000008152600401611e7890612a5e565b60405180910390fd5b8091505092915050565b611e958282611222565b15611f6857600080600084815260200190815260200160002060000160008373ffffffffffffffffffffffffffffffffffffffff1673ffffffffffffffffffffffffffffffffffffffff16815260200190815260200160002060006101000a81548160ff021916908315150217905550611f0d611817565b73ffffffffffffffffffffffffffffffffffffffff168173ffffffffffffffffffffffffffffffffffffffff16837ff6391f5c32d9c69d2a47ea670b442974b53935d1edc7fd64eb21e047a839171b60405160405180910390a45b5050565b6000611f94836000018373ffffffffffffffffffffffffffffffffffffffff1660001b611ffb565b905092915050565b6000826000018281548110611fb457611fb36127ff565b5b9060005260206000200154905092915050565b600081600001805490509050919050565b600080836001016000848152602001908152602001600020541415905092915050565b6000808360010160008481526020019081526020016000205490506000811461210357600060018261202d919061285d565b9050600060018660000180549050612045919061285d565b90508181146120b4576000866000018281548110612066576120656127ff565b5b906000526020600020015490508087600001848154811061208a576120896127ff565b5b90600052602060002001819055508387600101600083815260200190815260200160002081905550505b856000018054806120c8576120c7612891565b5b600190038181906000526020600020016000905590558560010160008681526020019081526020016000206000905560019350505050612109565b60009150505b92915050565b600080fd5b60007fffffffff0000000000000000000000000000000000000000000000000000000082169050919050565b61214981612114565b811461215457600080fd5b50565b60008135905061216681612140565b92915050565b6000602082840312156121825761218161210f565b5b600061219084828501612157565b91505092915050565b60008115159050919050565b6121ae81612199565b82525050565b60006020820190506121c960008301846121a5565b92915050565b600073ffffffffffffffffffffffffffffffffffffffff82169050919050565b60006121fa826121cf565b9050919050565b61220a816121ef565b811461221557600080fd5b50565b60008135905061222781612201565b92915050565b6000602082840312156122435761224261210f565b5b600061225184828501612218565b91505092915050565b600080600080608085870312156122745761227361210f565b5b600061228287828801612218565b945050602061229387828801612218565b93505060406122a487828801612218565b92505060606122b587828801612218565b91505092959194509250565b600081519050919050565b600082825260208201905092915050565b6000819050602082019050919050565b6122f6816121ef565b82525050565b600061230883836122ed565b60208301905092915050565b6000602082019050919050565b600061232c826122c1565b61233681856122cc565b9350612341836122dd565b8060005b8381101561237257815161235988826122fc565b975061236483612314565b925050600181019050612345565b5085935050505092915050565b600060208201905081810360008301526123998184612321565b905092915050565b6000819050919050565b6123b4816123a1565b81146123bf57600080fd5b50565b6000813590506123d1816123ab565b92915050565b6000602082840312156123ed576123ec61210f565b5b60006123fb848285016123c2565b91505092915050565b61240d816123a1565b82525050565b60006020820190506124286000830184612404565b92915050565b600080604083850312156124455761244461210f565b5b6000612453858286016123c2565b925050602061246485828601612218565b9150509250929050565b6000819050919050565b6124818161246e565b811461248c57600080fd5b50565b60008135905061249e81612478565b92915050565b600080604083850312156124bb576124ba61210f565b5b60006124c9858286016123c2565b92505060206124da8582860161248f565b9150509250929050565b6124ed816121ef565b82525050565b600060208201905061250860008301846124e4565b92915050565b6125178161246e565b82525050565b6000602082019050612532600083018461250e565b92915050565b600082825260208201905092915050565b7f416363657373436f6e74726f6c3a2063616e206f6e6c792072656e6f756e636560008201527f20726f6c657320666f722073656c660000000000000000000000000000000000602082015250565b60006125a5602f83612538565b91506125b082612549565b604082019050919050565b600060208201905081810360008301526125d481612598565b9050919050565b7f5468652061646472657373206973206e6f7420612073747564656e7400000000600082015250565b6000612611601c83612538565b915061261c826125db565b602082019050919050565b6000602082019050818103600083015261264081612604565b9050919050565b600081905092915050565b7f416363657373436f6e74726f6c3a206163636f756e7420000000000000000000600082015250565b6000612688601783612647565b915061269382612652565b601782019050919050565b600081519050919050565b60005b838110156126c75780820151818401526020810190506126ac565b838111156126d6576000848401525b50505050565b60006126e78261269e565b6126f18185612647565b93506127018185602086016126a9565b80840191505092915050565b7f206973206d697373696e6720726f6c6520000000000000000000000000000000600082015250565b6000612743601183612647565b915061274e8261270d565b601182019050919050565b60006127648261267b565b915061277082856126dc565b915061277b82612736565b915061278782846126dc565b91508190509392505050565b6000601f19601f8301169050919050565b60006127af8261269e565b6127b98185612538565b93506127c98185602086016126a9565b6127d281612793565b840191505092915050565b600060208201905081810360008301526127f781846127a4565b905092915050565b7f4e487b7100000000000000000000000000000000000000000000000000000000600052603260045260246000fd5b7f4e487b7100000000000000000000000000000000000000000000000000000000600052601160045260246000fd5b60006128688261246e565b91506128738361246e565b9250828210156128865761288561282e565b5b828203905092915050565b7f4e487b7100000000000000000000000000000000000000000000000000000000600052603160045260246000fd5b60006128cb8261246e565b91507fffffffffffffffffffffffffffffffffffffffffffffffffffffffffffffffff8214156128fe576128fd61282e565b5b600182019050919050565b60006129148261246e565b915061291f8361246e565b9250817fffffffffffffffffffffffffffffffffffffffffffffffffffffffffffffffff04831182151516156129585761295761282e565b5b828202905092915050565b600061296e8261246e565b91506129798361246e565b9250827fffffffffffffffffffffffffffffffffffffffffffffffffffffffffffffffff038211156129ae576129ad61282e565b5b828201905092915050565b7f4e487b7100000000000000000000000000000000000000000000000000000000600052604160045260246000fd5b60006129f38261246e565b91506000821415612a0757612a0661282e565b5b600182039050919050565b7f537472696e67733a20686578206c656e67746820696e73756666696369656e74600082015250565b6000612a48602083612538565b9150612a5382612a12565b602082019050919050565b60006020820190508181036000830152612a7781612a3b565b905091905056fea26469706673582212206b872b8820322d8eb48e436c24571006ddeb776457da35b017ab59e84c116e6464736f6c634300080a0033",
  "immutableReferences": {},
  "source": "pragma solidity ^0.8.10;\r\n\r\nimport \"@openzeppelin/contracts/access/AccessControlEnumerable.sol\";\r\n\r\ncontract Roles is AccessControlEnumerable {\r\n\r\n\r\n    bytes32 public constant RECTOR_ROLE = keccak256(\"RECTOR_ROLE\");\r\n    bytes32 public constant FACULTY_ROLE = keccak256(\"FACULTY_ROLE\");\r\n    bytes32 public constant DEPARTMENT_ROLE = keccak256(\"DEPARTMENT_ROLE\");\r\n    bytes32 public constant INSTRUCTOR_ROLE = keccak256(\"INSTRUCTOR_ROLE\");\r\n    bytes32 public constant STUDENT_ROLE = keccak256(\"STUDENT_ROLE\");\r\n    bytes32 public constant GRADUATED_ROLE = keccak256(\"GRADUATED_ROLE\");\r\n\r\n    //Unordered lists of roles\r\n    address Rector;\r\n    address[] Faculties;\r\n    address[] Departments;\r\n    address[] Instructors;\r\n    address[] Students;\r\n    address[] Graduateds;\r\n\r\n    constructor() {\r\n        _setupRole(DEFAULT_ADMIN_ROLE, msg.sender);\r\n        _setupRole(RECTOR_ROLE, msg.sender);\r\n    }\r\n\r\n    function init(\r\n        address _courseContractAddress,\r\n        address _departmentContractAddress,\r\n        address _diplomaContractAddress,\r\n        address _facultyContractAddress\r\n    ) public onlyRole(RECTOR_ROLE){\r\n        _setupRole(DEFAULT_ADMIN_ROLE, _courseContractAddress);\r\n        _setupRole(RECTOR_ROLE, _courseContractAddress);\r\n\r\n        _setupRole(DEFAULT_ADMIN_ROLE, _departmentContractAddress);\r\n        _setupRole(RECTOR_ROLE, _departmentContractAddress);\r\n\r\n        _setupRole(DEFAULT_ADMIN_ROLE, _diplomaContractAddress);\r\n        _setupRole(RECTOR_ROLE, _diplomaContractAddress);\r\n\r\n        _setupRole(DEFAULT_ADMIN_ROLE, _facultyContractAddress);\r\n        _setupRole(RECTOR_ROLE, _facultyContractAddress);\r\n    }\r\n\r\n    //////////////////////////// CREATE ROLE ///////////////////////////////////////////////////////////////////////////\r\n    //TODO One Address should have only one role. Handle it\r\n    function grantRectorRole(address account) public onlyRole(RECTOR_ROLE) {\r\n        grantRole(RECTOR_ROLE, account);\r\n        grantRole(DEFAULT_ADMIN_ROLE, account);\r\n        renounceRole(DEFAULT_ADMIN_ROLE, msg.sender);\r\n        renounceRole(RECTOR_ROLE, msg.sender);\r\n        Rector = account;\r\n    }\r\n    function grantFacultyRole(address account) public onlyRole(RECTOR_ROLE) {grantRole(FACULTY_ROLE, account); Faculties.push(account);}\r\n    function grantDepartmentRole(address account) public onlyRole(RECTOR_ROLE) {grantRole(DEPARTMENT_ROLE, account); Departments.push(account);}\r\n    function grantInstructorRole(address account) public onlyRole(RECTOR_ROLE) {grantRole(INSTRUCTOR_ROLE, account); Instructors.push(account);}\r\n    function grantStudentRole(address account) public onlyRole(RECTOR_ROLE) {grantRole(STUDENT_ROLE, account); Students.push(account);}\r\n    function grantGraduatedRole(address account) public onlyRole(RECTOR_ROLE) {\r\n        require(hasRole(STUDENT_ROLE, account), \"The address is not a student\");\r\n        revokeRole(STUDENT_ROLE, account);\r\n        grantRole(GRADUATED_ROLE, account);\r\n        Graduateds.push(account);\r\n    }\r\n    ////////////////////////////////////////////////////////////////////////////////////////////////////////////////////\r\n    //////////////////////////// READ ROLE /////////////////////////////////////////////////////////////////////////////\r\n    function hasRectorRole(address account) public view returns (bool){return hasRole(RECTOR_ROLE, account);}\r\n    function hasFacultyRole(address account) public view returns (bool){return hasRole(FACULTY_ROLE, account);}\r\n    function hasDepartmentRole(address account) public view returns (bool){return hasRole(DEPARTMENT_ROLE, account);}\r\n    function hasInstructorRole(address account) public view returns (bool){return hasRole(INSTRUCTOR_ROLE, account);}\r\n    function hasStudentRole(address account) public view returns (bool){return hasRole(STUDENT_ROLE, account);}\r\n    function hasGraduatedRole(address account) public view returns (bool){return hasRole(GRADUATED_ROLE, account);}\r\n\r\n    function getRectorRole() public view returns(address){return Rector;}\r\n    function getFacultyRoles() public view returns(address[] memory){return Faculties;}\r\n    function getDepartmentRoles() public view returns(address[] memory){return Departments;}\r\n    function getInstructorRoles() public view returns(address[] memory){return Instructors;}\r\n    function getStudentRoles() public view returns(address[] memory){return Students;}\r\n    function getGraduatedRoles() public view returns(address[] memory){return Graduateds;}\r\n\r\n    //TODO It is left for the front-end\r\n\r\n    ////////////////////////////////////////////////////////////////////////////////////////////////////////////////////\r\n    //////////////////////////// DELETE ROLE ///////////////////////////////////////////////////////////////////////////\r\n    function revokeFacultyRole(address account) public onlyRole(RECTOR_ROLE) {revokeRole(FACULTY_ROLE, account); removeElement(account,Faculties);}\r\n    function revokeDepartmentRole(address account) public onlyRole(RECTOR_ROLE) {revokeRole(DEPARTMENT_ROLE, account); removeElement(account,Departments);}\r\n    function revokeInstructorRole(address account) public onlyRole(RECTOR_ROLE) {revokeRole(INSTRUCTOR_ROLE, account); removeElement(account,Instructors);}\r\n    function revokeStudentRole(address account) public onlyRole(RECTOR_ROLE) {revokeRole(STUDENT_ROLE, account); removeElement(account,Students);}\r\n    ////////////////////////////////////////////////////////////////////////////////////////////////////////////////////\r\n\r\n    function removeElement(address element, address[] storage arr) private returns(address[] memory){\r\n        for(uint i = 0; i<arr.length; i++){\r\n            if(arr[i] == element){\r\n                arr[i] = arr[arr.length-1];\r\n                arr.pop();\r\n            }\r\n        }\r\n        return arr;\r\n    }\r\n\r\n    //Create Read Delete\r\n    //1 EF\r\n    //2 Fen Edb\r\n    //3 Ibf\r\n    //4 Mhendislik\r\n    //5 Uygulamal Bilimler Yksekokulu\r\n}\r\n",
  "sourcePath": "C:\\Users\\asus\\Desktop\\Dersler\\CMPE492\\certification-project\\contracts\\Roles.sol",
  "compiler": {
    "name": "solc",
    "version": "0.8.10+commit.fc410830.Emscripten.clang"
  },
  "schemaVersion": "3.4.4",
  "updatedAt": "2022-01-18T21:05:26.121Z",
  "networkType": "ethereum",
  "devdoc": {
    "kind": "dev",
    "methods": {
      "getRoleAdmin(bytes32)": {
        "details": "Returns the admin role that controls `role`. See {grantRole} and {revokeRole}. To change a role's admin, use {_setRoleAdmin}."
      },
      "getRoleMember(bytes32,uint256)": {
        "details": "Returns one of the accounts that have `role`. `index` must be a value between 0 and {getRoleMemberCount}, non-inclusive. Role bearers are not sorted in any particular way, and their ordering may change at any point. WARNING: When using {getRoleMember} and {getRoleMemberCount}, make sure you perform all queries on the same block. See the following https://forum.openzeppelin.com/t/iterating-over-elements-on-enumerableset-in-openzeppelin-contracts/2296[forum post] for more information."
      },
      "getRoleMemberCount(bytes32)": {
        "details": "Returns the number of accounts that have `role`. Can be used together with {getRoleMember} to enumerate all bearers of a role."
      },
      "grantRole(bytes32,address)": {
        "details": "Grants `role` to `account`. If `account` had not been already granted `role`, emits a {RoleGranted} event. Requirements: - the caller must have ``role``'s admin role."
      },
      "hasRole(bytes32,address)": {
        "details": "Returns `true` if `account` has been granted `role`."
      },
      "renounceRole(bytes32,address)": {
        "details": "Revokes `role` from the calling account. Roles are often managed via {grantRole} and {revokeRole}: this function's purpose is to provide a mechanism for accounts to lose their privileges if they are compromised (such as when a trusted device is misplaced). If the calling account had been revoked `role`, emits a {RoleRevoked} event. Requirements: - the caller must be `account`."
      },
      "revokeRole(bytes32,address)": {
        "details": "Revokes `role` from `account`. If `account` had been granted `role`, emits a {RoleRevoked} event. Requirements: - the caller must have ``role``'s admin role."
      },
      "supportsInterface(bytes4)": {
        "details": "See {IERC165-supportsInterface}."
      }
    },
    "version": 1
  },
  "userdoc": {
    "kind": "user",
    "methods": {},
    "version": 1
  }
}